{
	"Voting/Voting.sol": {
		"Voting": {
			"abi": [
				{
					"inputs": [],
					"stateMutability": "nonpayable",
					"type": "constructor"
				},
				{
					"anonymous": false,
					"inputs": [
						{
							"indexed": true,
							"internalType": "uint256",
							"name": "electionId",
							"type": "uint256"
						},
						{
							"indexed": false,
							"internalType": "uint256",
							"name": "candidateId",
							"type": "uint256"
						},
						{
							"indexed": false,
							"internalType": "string",
							"name": "name",
							"type": "string"
						}
					],
					"name": "CandidateAdded",
					"type": "event"
				},
				{
					"anonymous": false,
					"inputs": [
						{
							"indexed": true,
							"internalType": "uint256",
							"name": "electionId",
							"type": "uint256"
						},
						{
							"indexed": false,
							"internalType": "string",
							"name": "name",
							"type": "string"
						}
					],
					"name": "ElectionCreated",
					"type": "event"
				},
				{
					"anonymous": false,
					"inputs": [
						{
							"indexed": true,
							"internalType": "uint256",
							"name": "electionId",
							"type": "uint256"
						}
					],
					"name": "ElectionEnded",
					"type": "event"
				},
				{
					"anonymous": false,
					"inputs": [
						{
							"indexed": true,
							"internalType": "uint256",
							"name": "electionId",
							"type": "uint256"
						}
					],
					"name": "ElectionStarted",
					"type": "event"
				},
				{
					"anonymous": false,
					"inputs": [
						{
							"indexed": true,
							"internalType": "uint256",
							"name": "electionId",
							"type": "uint256"
						},
						{
							"indexed": false,
							"internalType": "uint256",
							"name": "candidateId",
							"type": "uint256"
						},
						{
							"indexed": false,
							"internalType": "address",
							"name": "voter",
							"type": "address"
						}
					],
					"name": "Voted",
					"type": "event"
				},
				{
					"inputs": [
						{
							"internalType": "uint256",
							"name": "electionId",
							"type": "uint256"
						},
						{
							"internalType": "uint256",
							"name": "candidateId",
							"type": "uint256"
						},
						{
							"internalType": "string",
							"name": "name",
							"type": "string"
						}
					],
					"name": "addCandidate",
					"outputs": [],
					"stateMutability": "nonpayable",
					"type": "function"
				},
				{
					"inputs": [
						{
							"internalType": "uint256",
							"name": "",
							"type": "uint256"
						},
						{
							"internalType": "uint256",
							"name": "",
							"type": "uint256"
						}
					],
					"name": "candidateIds",
					"outputs": [
						{
							"internalType": "uint256",
							"name": "",
							"type": "uint256"
						}
					],
					"stateMutability": "view",
					"type": "function"
				},
				{
					"inputs": [
						{
							"internalType": "uint256",
							"name": "",
							"type": "uint256"
						},
						{
							"internalType": "uint256",
							"name": "",
							"type": "uint256"
						}
					],
					"name": "candidates",
					"outputs": [
						{
							"internalType": "uint256",
							"name": "candidateId",
							"type": "uint256"
						},
						{
							"internalType": "string",
							"name": "name",
							"type": "string"
						},
						{
							"internalType": "uint256",
							"name": "voteCount",
							"type": "uint256"
						}
					],
					"stateMutability": "view",
					"type": "function"
				},
				{
					"inputs": [
						{
							"internalType": "string",
							"name": "_name",
							"type": "string"
						},
						{
							"internalType": "uint256",
							"name": "_id",
							"type": "uint256"
						},
						{
							"internalType": "uint256",
							"name": "_startTime",
							"type": "uint256"
						},
						{
							"internalType": "uint256",
							"name": "_endTime",
							"type": "uint256"
						}
					],
					"name": "createElection",
					"outputs": [],
					"stateMutability": "nonpayable",
					"type": "function"
				},
				{
					"inputs": [
						{
							"internalType": "uint256",
							"name": "",
							"type": "uint256"
						}
					],
					"name": "electionIds",
					"outputs": [
						{
							"internalType": "uint256",
							"name": "",
							"type": "uint256"
						}
					],
					"stateMutability": "view",
					"type": "function"
				},
				{
					"inputs": [
						{
							"internalType": "uint256",
							"name": "",
							"type": "uint256"
						}
					],
					"name": "electionStatus",
					"outputs": [
						{
							"internalType": "enum Voting.Status",
							"name": "",
							"type": "uint8"
						}
					],
					"stateMutability": "view",
					"type": "function"
				},
				{
					"inputs": [
						{
							"internalType": "uint256",
							"name": "",
							"type": "uint256"
						}
					],
					"name": "elections",
					"outputs": [
						{
							"internalType": "string",
							"name": "name",
							"type": "string"
						},
						{
							"internalType": "uint256",
							"name": "id",
							"type": "uint256"
						},
						{
							"internalType": "uint256",
							"name": "startTime",
							"type": "uint256"
						},
						{
							"internalType": "uint256",
							"name": "endTime",
							"type": "uint256"
						},
						{
							"internalType": "bool",
							"name": "exists",
							"type": "bool"
						}
					],
					"stateMutability": "view",
					"type": "function"
				},
				{
					"inputs": [],
					"name": "getAllElections",
					"outputs": [
						{
							"components": [
								{
									"internalType": "string",
									"name": "name",
									"type": "string"
								},
								{
									"internalType": "uint256",
									"name": "id",
									"type": "uint256"
								},
								{
									"internalType": "uint256",
									"name": "startTime",
									"type": "uint256"
								},
								{
									"internalType": "uint256",
									"name": "endTime",
									"type": "uint256"
								},
								{
									"internalType": "bool",
									"name": "exists",
									"type": "bool"
								}
							],
							"internalType": "struct Voting.Election[]",
							"name": "",
							"type": "tuple[]"
						}
					],
					"stateMutability": "view",
					"type": "function"
				},
				{
					"inputs": [
						{
							"internalType": "uint256",
							"name": "electionId",
							"type": "uint256"
						}
					],
					"name": "getCandidates",
					"outputs": [
						{
							"components": [
								{
									"internalType": "uint256",
									"name": "candidateId",
									"type": "uint256"
								},
								{
									"internalType": "string",
									"name": "name",
									"type": "string"
								},
								{
									"internalType": "uint256",
									"name": "voteCount",
									"type": "uint256"
								}
							],
							"internalType": "struct Voting.VoteDetails[]",
							"name": "",
							"type": "tuple[]"
						}
					],
					"stateMutability": "view",
					"type": "function"
				},
				{
					"inputs": [
						{
							"internalType": "uint256",
							"name": "electionId",
							"type": "uint256"
						}
					],
					"name": "getElectionById",
					"outputs": [
						{
							"components": [
								{
									"internalType": "string",
									"name": "name",
									"type": "string"
								},
								{
									"internalType": "uint256",
									"name": "id",
									"type": "uint256"
								},
								{
									"internalType": "uint256",
									"name": "startTime",
									"type": "uint256"
								},
								{
									"internalType": "uint256",
									"name": "endTime",
									"type": "uint256"
								},
								{
									"internalType": "bool",
									"name": "exists",
									"type": "bool"
								}
							],
							"internalType": "struct Voting.Election",
							"name": "",
							"type": "tuple"
						},
						{
							"internalType": "enum Voting.Status",
							"name": "",
							"type": "uint8"
						}
					],
					"stateMutability": "view",
					"type": "function"
				},
				{
					"inputs": [
						{
							"internalType": "uint256",
							"name": "electionId",
							"type": "uint256"
						}
					],
					"name": "getWinner",
					"outputs": [
						{
							"components": [
								{
									"internalType": "uint256",
									"name": "candidateId",
									"type": "uint256"
								},
								{
									"internalType": "string",
									"name": "name",
									"type": "string"
								},
								{
									"internalType": "uint256",
									"name": "voteCount",
									"type": "uint256"
								}
							],
							"internalType": "struct Voting.VoteDetails",
							"name": "",
							"type": "tuple"
						}
					],
					"stateMutability": "view",
					"type": "function"
				},
				{
					"inputs": [
						{
							"internalType": "uint256",
							"name": "",
							"type": "uint256"
						},
						{
							"internalType": "address",
							"name": "",
							"type": "address"
						}
					],
					"name": "hasVoted",
					"outputs": [
						{
							"internalType": "bool",
							"name": "",
							"type": "bool"
						}
					],
					"stateMutability": "view",
					"type": "function"
				},
				{
					"inputs": [
						{
							"internalType": "uint256",
							"name": "electionId",
							"type": "uint256"
						}
					],
					"name": "manuallyEndElection",
					"outputs": [],
					"stateMutability": "nonpayable",
					"type": "function"
				},
				{
					"inputs": [],
					"name": "owner",
					"outputs": [
						{
							"internalType": "address",
							"name": "",
							"type": "address"
						}
					],
					"stateMutability": "view",
					"type": "function"
				},
				{
					"inputs": [
						{
							"internalType": "uint256",
							"name": "electionId",
							"type": "uint256"
						}
					],
					"name": "startElection",
					"outputs": [],
					"stateMutability": "nonpayable",
					"type": "function"
				},
				{
					"inputs": [
						{
							"internalType": "uint256",
							"name": "electionId",
							"type": "uint256"
						},
						{
							"internalType": "uint256",
							"name": "candidateId",
							"type": "uint256"
						}
					],
					"name": "vote",
					"outputs": [],
					"stateMutability": "nonpayable",
					"type": "function"
				}
			],
			"devdoc": {
				"kind": "dev",
				"methods": {},
				"version": 1
			},
			"evm": {
				"assembly": "    /* \"Voting/Voting.sol\":58:8836  contract Voting {... */\n  mstore(0x40, 0x80)\n    /* \"Voting/Voting.sol\":2290:2339  constructor() {... */\n  callvalue\n  dup1\n  iszero\n  tag_1\n  jumpi\n  revert(0x00, 0x00)\ntag_1:\n  pop\n    /* \"Voting/Voting.sol\":2322:2332  msg.sender */\n  caller\n    /* \"Voting/Voting.sol\":2314:2319  owner */\n  0x00\n  0x00\n    /* \"Voting/Voting.sol\":2314:2332  owner = msg.sender */\n  0x0100\n  exp\n  dup2\n  sload\n  dup2\n  0xffffffffffffffffffffffffffffffffffffffff\n  mul\n  not\n  and\n  swap1\n  dup4\n  0xffffffffffffffffffffffffffffffffffffffff\n  and\n  mul\n  or\n  swap1\n  sstore\n  pop\n    /* \"Voting/Voting.sol\":58:8836  contract Voting {... */\n  dataSize(sub_0)\n  dup1\n  dataOffset(sub_0)\n  0x00\n  codecopy\n  0x00\n  return\nstop\n\nsub_0: assembly {\n        /* \"Voting/Voting.sol\":58:8836  contract Voting {... */\n      mstore(0x40, 0x80)\n      callvalue\n      dup1\n      iszero\n      tag_1\n      jumpi\n      revert(0x00, 0x00)\n    tag_1:\n      pop\n      jumpi(tag_2, lt(calldatasize, 0x04))\n      shr(0xe0, calldataload(0x00))\n      dup1\n      0x7fd5f268\n      gt\n      tag_19\n      jumpi\n      dup1\n      0xb384abef\n      gt\n      tag_20\n      jumpi\n      dup1\n      0xb384abef\n      eq\n      tag_15\n      jumpi\n      dup1\n      0xc6958b12\n      eq\n      tag_16\n      jumpi\n      dup1\n      0xe3cd91fa\n      eq\n      tag_17\n      jumpi\n      dup1\n      0xf497d15f\n      eq\n      tag_18\n      jumpi\n      jump(tag_2)\n    tag_20:\n      dup1\n      0x7fd5f268\n      eq\n      tag_11\n      jumpi\n      dup1\n      0x8da5cb5b\n      eq\n      tag_12\n      jumpi\n      dup1\n      0x941b00ac\n      eq\n      tag_13\n      jumpi\n      dup1\n      0xa958f1aa\n      eq\n      tag_14\n      jumpi\n      jump(tag_2)\n    tag_19:\n      dup1\n      0x51ce4e24\n      gt\n      tag_21\n      jumpi\n      dup1\n      0x51ce4e24\n      eq\n      tag_7\n      jumpi\n      dup1\n      0x5e6fef01\n      eq\n      tag_8\n      jumpi\n      dup1\n      0x6d32dc4b\n      eq\n      tag_9\n      jumpi\n      dup1\n      0x7de14242\n      eq\n      tag_10\n      jumpi\n      jump(tag_2)\n    tag_21:\n      dup1\n      0x02330a61\n      eq\n      tag_3\n      jumpi\n      dup1\n      0x3e39a7a5\n      eq\n      tag_4\n      jumpi\n      dup1\n      0x4129b2c9\n      eq\n      tag_5\n      jumpi\n      dup1\n      0x43859632\n      eq\n      tag_6\n      jumpi\n    tag_2:\n      revert(0x00, 0x00)\n        /* \"Voting/Voting.sol\":793:821  uint256[] public electionIds */\n    tag_3:\n      tag_22\n      0x04\n      dup1\n      calldatasize\n      sub\n      dup2\n      add\n      swap1\n      tag_23\n      swap2\n      swap1\n      tag_24\n      jump\t// in\n    tag_23:\n      tag_25\n      jump\t// in\n    tag_22:\n      mload(0x40)\n      tag_26\n      swap2\n      swap1\n      tag_27\n      jump\t// in\n    tag_26:\n      mload(0x40)\n      dup1\n      swap2\n      sub\n      swap1\n      return\n        /* \"Voting/Voting.sol\":5958:6419  function getCandidates(uint256 electionId)... */\n    tag_4:\n      tag_28\n      0x04\n      dup1\n      calldatasize\n      sub\n      dup2\n      add\n      swap1\n      tag_29\n      swap2\n      swap1\n      tag_24\n      jump\t// in\n    tag_29:\n      tag_30\n      jump\t// in\n    tag_28:\n      mload(0x40)\n      tag_31\n      swap2\n      swap1\n      tag_32\n      jump\t// in\n    tag_31:\n      mload(0x40)\n      dup1\n      swap2\n      sub\n      swap1\n      return\n        /* \"Voting/Voting.sol\":7416:8339  function getWinner(uint256 electionId)... */\n    tag_5:\n      tag_33\n      0x04\n      dup1\n      calldatasize\n      sub\n      dup2\n      add\n      swap1\n      tag_34\n      swap2\n      swap1\n      tag_24\n      jump\t// in\n    tag_34:\n      tag_35\n      jump\t// in\n    tag_33:\n      mload(0x40)\n      tag_36\n      swap2\n      swap1\n      tag_37\n      jump\t// in\n    tag_36:\n      mload(0x40)\n      dup1\n      swap2\n      sub\n      swap1\n      return\n        /* \"Voting/Voting.sol\":673:733  mapping(uint256 => mapping(address => bool)) public hasVoted */\n    tag_6:\n      tag_38\n      0x04\n      dup1\n      calldatasize\n      sub\n      dup2\n      add\n      swap1\n      tag_39\n      swap2\n      swap1\n      tag_40\n      jump\t// in\n    tag_39:\n      tag_41\n      jump\t// in\n    tag_38:\n      mload(0x40)\n      tag_42\n      swap2\n      swap1\n      tag_43\n      jump\t// in\n    tag_42:\n      mload(0x40)\n      dup1\n      swap2\n      sub\n      swap1\n      return\n        /* \"Voting/Voting.sol\":8345:8834  function manuallyEndElection(uint256 electionId) public onlyOwner {... */\n    tag_7:\n      tag_44\n      0x04\n      dup1\n      calldatasize\n      sub\n      dup2\n      add\n      swap1\n      tag_45\n      swap2\n      swap1\n      tag_24\n      jump\t// in\n    tag_45:\n      tag_46\n      jump\t// in\n    tag_44:\n      stop\n        /* \"Voting/Voting.sol\":622:667  mapping(uint256 => Election) public elections */\n    tag_8:\n      tag_47\n      0x04\n      dup1\n      calldatasize\n      sub\n      dup2\n      add\n      swap1\n      tag_48\n      swap2\n      swap1\n      tag_24\n      jump\t// in\n    tag_48:\n      tag_49\n      jump\t// in\n    tag_47:\n      mload(0x40)\n      tag_50\n      swap6\n      swap5\n      swap4\n      swap3\n      swap2\n      swap1\n      tag_51\n      jump\t// in\n    tag_50:\n      mload(0x40)\n      dup1\n      swap2\n      sub\n      swap1\n      return\n        /* \"Voting/Voting.sol\":4282:4935  function startElection(uint256 electionId) public onlyOwner {... */\n    tag_9:\n      tag_52\n      0x04\n      dup1\n      calldatasize\n      sub\n      dup2\n      add\n      swap1\n      tag_53\n      swap2\n      swap1\n      tag_24\n      jump\t// in\n    tag_53:\n      tag_54\n      jump\t// in\n    tag_52:\n      stop\n        /* \"Voting/Voting.sol\":492:561  mapping(uint256 => mapping(uint256 => VoteDetails)) public candidates */\n    tag_10:\n      tag_55\n      0x04\n      dup1\n      calldatasize\n      sub\n      dup2\n      add\n      swap1\n      tag_56\n      swap2\n      swap1\n      tag_57\n      jump\t// in\n    tag_56:\n      tag_58\n      jump\t// in\n    tag_55:\n      mload(0x40)\n      tag_59\n      swap4\n      swap3\n      swap2\n      swap1\n      tag_60\n      jump\t// in\n    tag_59:\n      mload(0x40)\n      dup1\n      swap2\n      sub\n      swap1\n      return\n        /* \"Voting/Voting.sol\":6425:6713  function getAllElections() public view returns (Election[] memory) {... */\n    tag_11:\n      tag_61\n      tag_62\n      jump\t// in\n    tag_61:\n      mload(0x40)\n      tag_63\n      swap2\n      swap1\n      tag_64\n      jump\t// in\n    tag_63:\n      mload(0x40)\n      dup1\n      swap2\n      sub\n      swap1\n      return\n        /* \"Voting/Voting.sol\":465:485  address public owner */\n    tag_12:\n      tag_65\n      tag_66\n      jump\t// in\n    tag_65:\n      mload(0x40)\n      tag_67\n      swap2\n      swap1\n      tag_68\n      jump\t// in\n    tag_67:\n      mload(0x40)\n      dup1\n      swap2\n      sub\n      swap1\n      return\n        /* \"Voting/Voting.sol\":739:787  mapping(uint256 => Status) public electionStatus */\n    tag_13:\n      tag_69\n      0x04\n      dup1\n      calldatasize\n      sub\n      dup2\n      add\n      swap1\n      tag_70\n      swap2\n      swap1\n      tag_24\n      jump\t// in\n    tag_70:\n      tag_71\n      jump\t// in\n    tag_69:\n      mload(0x40)\n      tag_72\n      swap2\n      swap1\n      tag_73\n      jump\t// in\n    tag_72:\n      mload(0x40)\n      dup1\n      swap2\n      sub\n      swap1\n      return\n        /* \"Voting/Voting.sol\":3235:4207  function addCandidate(... */\n    tag_14:\n      tag_74\n      0x04\n      dup1\n      calldatasize\n      sub\n      dup2\n      add\n      swap1\n      tag_75\n      swap2\n      swap1\n      tag_76\n      jump\t// in\n    tag_75:\n      tag_77\n      jump\t// in\n    tag_74:\n      stop\n        /* \"Voting/Voting.sol\":4941:5952  function vote(uint256 electionId, uint256 candidateId)... */\n    tag_15:\n      tag_78\n      0x04\n      dup1\n      calldatasize\n      sub\n      dup2\n      add\n      swap1\n      tag_79\n      swap2\n      swap1\n      tag_57\n      jump\t// in\n    tag_79:\n      tag_80\n      jump\t// in\n    tag_78:\n      stop\n        /* \"Voting/Voting.sol\":6719:7410  function getElectionById(uint256 electionId)... */\n    tag_16:\n      tag_81\n      0x04\n      dup1\n      calldatasize\n      sub\n      dup2\n      add\n      swap1\n      tag_82\n      swap2\n      swap1\n      tag_24\n      jump\t// in\n    tag_82:\n      tag_83\n      jump\t// in\n    tag_81:\n      mload(0x40)\n      tag_84\n      swap3\n      swap2\n      swap1\n      tag_85\n      jump\t// in\n    tag_84:\n      mload(0x40)\n      dup1\n      swap2\n      sub\n      swap1\n      return\n        /* \"Voting/Voting.sol\":2345:3229  function createElection(... */\n    tag_17:\n      tag_86\n      0x04\n      dup1\n      calldatasize\n      sub\n      dup2\n      add\n      swap1\n      tag_87\n      swap2\n      swap1\n      tag_88\n      jump\t// in\n    tag_87:\n      tag_89\n      jump\t// in\n    tag_86:\n      stop\n        /* \"Voting/Voting.sol\":567:616  mapping(uint256 => uint256[]) public candidateIds */\n    tag_18:\n      tag_90\n      0x04\n      dup1\n      calldatasize\n      sub\n      dup2\n      add\n      swap1\n      tag_91\n      swap2\n      swap1\n      tag_57\n      jump\t// in\n    tag_91:\n      tag_92\n      jump\t// in\n    tag_90:\n      mload(0x40)\n      tag_93\n      swap2\n      swap1\n      tag_27\n      jump\t// in\n    tag_93:\n      mload(0x40)\n      dup1\n      swap2\n      sub\n      swap1\n      return\n        /* \"Voting/Voting.sol\":793:821  uint256[] public electionIds */\n    tag_25:\n      0x06\n      dup2\n      dup2\n      sload\n      dup2\n      lt\n      tag_94\n      jumpi\n      0x00\n      dup1\n      revert\n    tag_94:\n      swap1\n      0x00\n      mstore\n      keccak256(0x00, 0x20)\n      add\n      0x00\n      swap2\n      pop\n      swap1\n      pop\n      sload\n      dup2\n      jump\t// out\n        /* \"Voting/Voting.sol\":5958:6419  function getCandidates(uint256 electionId)... */\n    tag_30:\n        /* \"Voting/Voting.sol\":6046:6066  VoteDetails[] memory */\n      0x60\n        /* \"Voting/Voting.sol\":6151:6171  uint256[] memory ids */\n      0x00\n        /* \"Voting/Voting.sol\":6174:6186  candidateIds */\n      0x02\n        /* \"Voting/Voting.sol\":6174:6198  candidateIds[electionId] */\n      0x00\n        /* \"Voting/Voting.sol\":6187:6197  electionId */\n      dup5\n        /* \"Voting/Voting.sol\":6174:6198  candidateIds[electionId] */\n      dup2\n      mstore\n      0x20\n      add\n      swap1\n      dup2\n      mstore\n      0x20\n      add\n      0x00\n      keccak256\n        /* \"Voting/Voting.sol\":6151:6198  uint256[] memory ids = candidateIds[electionId] */\n      dup1\n      sload\n      dup1\n      0x20\n      mul\n      0x20\n      add\n      mload(0x40)\n      swap1\n      dup2\n      add\n      0x40\n      mstore\n      dup1\n      swap3\n      swap2\n      swap1\n      dup2\n      dup2\n      mstore\n      0x20\n      add\n      dup3\n      dup1\n      sload\n      dup1\n      iszero\n      tag_97\n      jumpi\n      0x20\n      mul\n      dup3\n      add\n      swap2\n      swap1\n      0x00\n      mstore\n      keccak256(0x00, 0x20)\n      swap1\n    tag_98:\n      dup2\n      sload\n      dup2\n      mstore\n      0x20\n      add\n      swap1\n      0x01\n      add\n      swap1\n      dup1\n      dup4\n      gt\n      tag_98\n      jumpi\n    tag_97:\n      pop\n      pop\n      pop\n      pop\n      pop\n      swap1\n      pop\n        /* \"Voting/Voting.sol\":6208:6236  VoteDetails[] memory details */\n      0x00\n        /* \"Voting/Voting.sol\":6257:6260  ids */\n      dup2\n        /* \"Voting/Voting.sol\":6257:6267  ids.length */\n      mload\n        /* \"Voting/Voting.sol\":6239:6268  new VoteDetails[](ids.length) */\n      0xffffffffffffffff\n      dup2\n      gt\n      iszero\n      tag_99\n      jumpi\n      tag_100\n      tag_101\n      jump\t// in\n    tag_100:\n    tag_99:\n      mload(0x40)\n      swap1\n      dup1\n      dup3\n      mstore\n      dup1\n      0x20\n      mul\n      0x20\n      add\n      dup3\n      add\n      0x40\n      mstore\n      dup1\n      iszero\n      tag_102\n      jumpi\n      dup2\n      0x20\n      add\n    tag_103:\n      tag_104\n      tag_105\n      jump\t// in\n    tag_104:\n      dup2\n      mstore\n      0x20\n      add\n      swap1\n      0x01\n      swap1\n      sub\n      swap1\n      dup2\n      tag_103\n      jumpi\n      swap1\n      pop\n    tag_102:\n      pop\n        /* \"Voting/Voting.sol\":6208:6268  VoteDetails[] memory details = new VoteDetails[](ids.length) */\n      swap1\n      pop\n        /* \"Voting/Voting.sol\":6284:6293  uint256 i */\n      0x00\n        /* \"Voting/Voting.sol\":6296:6297  0 */\n      0x00\n        /* \"Voting/Voting.sol\":6284:6297  uint256 i = 0 */\n      swap1\n      pop\n        /* \"Voting/Voting.sol\":6279:6388  for (uint256 i = 0; i < ids.length; i++) {... */\n    tag_106:\n        /* \"Voting/Voting.sol\":6303:6306  ids */\n      dup3\n        /* \"Voting/Voting.sol\":6303:6313  ids.length */\n      mload\n        /* \"Voting/Voting.sol\":6299:6300  i */\n      dup2\n        /* \"Voting/Voting.sol\":6299:6313  i < ids.length */\n      lt\n        /* \"Voting/Voting.sol\":6279:6388  for (uint256 i = 0; i < ids.length; i++) {... */\n      iszero\n      tag_107\n      jumpi\n        /* \"Voting/Voting.sol\":6347:6357  candidates */\n      0x01\n        /* \"Voting/Voting.sol\":6347:6369  candidates[electionId] */\n      0x00\n        /* \"Voting/Voting.sol\":6358:6368  electionId */\n      dup7\n        /* \"Voting/Voting.sol\":6347:6369  candidates[electionId] */\n      dup2\n      mstore\n      0x20\n      add\n      swap1\n      dup2\n      mstore\n      0x20\n      add\n      0x00\n      keccak256\n        /* \"Voting/Voting.sol\":6347:6377  candidates[electionId][ids[i]] */\n      0x00\n        /* \"Voting/Voting.sol\":6370:6373  ids */\n      dup5\n        /* \"Voting/Voting.sol\":6374:6375  i */\n      dup4\n        /* \"Voting/Voting.sol\":6370:6376  ids[i] */\n      dup2\n      mload\n      dup2\n      lt\n      tag_109\n      jumpi\n      tag_110\n      tag_111\n      jump\t// in\n    tag_110:\n    tag_109:\n      0x20\n      mul\n      0x20\n      add\n      add\n      mload\n        /* \"Voting/Voting.sol\":6347:6377  candidates[electionId][ids[i]] */\n      dup2\n      mstore\n      0x20\n      add\n      swap1\n      dup2\n      mstore\n      0x20\n      add\n      0x00\n      keccak256\n        /* \"Voting/Voting.sol\":6334:6377  details[i] = candidates[electionId][ids[i]] */\n      mload(0x40)\n      dup1\n      0x60\n      add\n      0x40\n      mstore\n      swap1\n      dup2\n      0x00\n      dup3\n      add\n      sload\n      dup2\n      mstore\n      0x20\n      add\n      0x01\n      dup3\n      add\n      dup1\n      sload\n      tag_112\n      swap1\n      tag_113\n      jump\t// in\n    tag_112:\n      dup1\n      0x1f\n      add\n      0x20\n      dup1\n      swap2\n      div\n      mul\n      0x20\n      add\n      mload(0x40)\n      swap1\n      dup2\n      add\n      0x40\n      mstore\n      dup1\n      swap3\n      swap2\n      swap1\n      dup2\n      dup2\n      mstore\n      0x20\n      add\n      dup3\n      dup1\n      sload\n      tag_114\n      swap1\n      tag_113\n      jump\t// in\n    tag_114:\n      dup1\n      iszero\n      tag_115\n      jumpi\n      dup1\n      0x1f\n      lt\n      tag_116\n      jumpi\n      0x0100\n      dup1\n      dup4\n      sload\n      div\n      mul\n      dup4\n      mstore\n      swap2\n      0x20\n      add\n      swap2\n      jump(tag_115)\n    tag_116:\n      dup3\n      add\n      swap2\n      swap1\n      0x00\n      mstore\n      keccak256(0x00, 0x20)\n      swap1\n    tag_117:\n      dup2\n      sload\n      dup2\n      mstore\n      swap1\n      0x01\n      add\n      swap1\n      0x20\n      add\n      dup1\n      dup4\n      gt\n      tag_117\n      jumpi\n      dup3\n      swap1\n      sub\n      0x1f\n      and\n      dup3\n      add\n      swap2\n    tag_115:\n      pop\n      pop\n      pop\n      pop\n      pop\n      dup2\n      mstore\n      0x20\n      add\n      0x02\n      dup3\n      add\n      sload\n      dup2\n      mstore\n      pop\n      pop\n        /* \"Voting/Voting.sol\":6334:6341  details */\n      dup3\n        /* \"Voting/Voting.sol\":6342:6343  i */\n      dup3\n        /* \"Voting/Voting.sol\":6334:6344  details[i] */\n      dup2\n      mload\n      dup2\n      lt\n      tag_118\n      jumpi\n      tag_119\n      tag_111\n      jump\t// in\n    tag_119:\n    tag_118:\n      0x20\n      mul\n      0x20\n      add\n      add\n        /* \"Voting/Voting.sol\":6334:6377  details[i] = candidates[electionId][ids[i]] */\n      dup2\n      swap1\n      mstore\n      pop\n        /* \"Voting/Voting.sol\":6315:6318  i++ */\n      dup1\n      dup1\n      0x01\n      add\n      swap2\n      pop\n      pop\n        /* \"Voting/Voting.sol\":6279:6388  for (uint256 i = 0; i < ids.length; i++) {... */\n      jump(tag_106)\n    tag_107:\n      pop\n        /* \"Voting/Voting.sol\":6405:6412  details */\n      dup1\n        /* \"Voting/Voting.sol\":6398:6412  return details */\n      swap3\n      pop\n      pop\n      pop\n        /* \"Voting/Voting.sol\":5958:6419  function getCandidates(uint256 electionId)... */\n      swap2\n      swap1\n      pop\n      jump\t// out\n        /* \"Voting/Voting.sol\":7416:8339  function getWinner(uint256 electionId)... */\n    tag_35:\n        /* \"Voting/Voting.sol\":7500:7518  VoteDetails memory */\n      tag_120\n      tag_105\n      jump\t// in\n    tag_120:\n        /* \"Voting/Voting.sol\":7650:7662  Status.Ended */\n      0x02\n        /* \"Voting/Voting.sol\":7620:7662  electionStatus[electionId] == Status.Ended */\n      dup1\n      dup2\n      gt\n      iszero\n      tag_122\n      jumpi\n      tag_123\n      tag_124\n      jump\t// in\n    tag_123:\n    tag_122:\n        /* \"Voting/Voting.sol\":7620:7634  electionStatus */\n      0x05\n        /* \"Voting/Voting.sol\":7620:7646  electionStatus[electionId] */\n      0x00\n        /* \"Voting/Voting.sol\":7635:7645  electionId */\n      dup5\n        /* \"Voting/Voting.sol\":7620:7646  electionStatus[electionId] */\n      dup2\n      mstore\n      0x20\n      add\n      swap1\n      dup2\n      mstore\n      0x20\n      add\n      0x00\n      keccak256\n      0x00\n      swap1\n      sload\n      swap1\n      0x0100\n      exp\n      swap1\n      div\n      0xff\n      and\n        /* \"Voting/Voting.sol\":7620:7662  electionStatus[electionId] == Status.Ended */\n      0x02\n      dup2\n      gt\n      iszero\n      tag_125\n      jumpi\n      tag_126\n      tag_124\n      jump\t// in\n    tag_126:\n    tag_125:\n      eq\n        /* \"Voting/Voting.sol\":7599:7709  require(... */\n      tag_127\n      jumpi\n      mload(0x40)\n      0x08c379a000000000000000000000000000000000000000000000000000000000\n      dup2\n      mstore\n      0x04\n      add\n      tag_128\n      swap1\n      tag_129\n      jump\t// in\n    tag_128:\n      mload(0x40)\n      dup1\n      swap2\n      sub\n      swap1\n      revert\n    tag_127:\n        /* \"Voting/Voting.sol\":7720:7740  uint256[] memory ids */\n      0x00\n        /* \"Voting/Voting.sol\":7743:7755  candidateIds */\n      0x02\n        /* \"Voting/Voting.sol\":7743:7767  candidateIds[electionId] */\n      0x00\n        /* \"Voting/Voting.sol\":7756:7766  electionId */\n      dup5\n        /* \"Voting/Voting.sol\":7743:7767  candidateIds[electionId] */\n      dup2\n      mstore\n      0x20\n      add\n      swap1\n      dup2\n      mstore\n      0x20\n      add\n      0x00\n      keccak256\n        /* \"Voting/Voting.sol\":7720:7767  uint256[] memory ids = candidateIds[electionId] */\n      dup1\n      sload\n      dup1\n      0x20\n      mul\n      0x20\n      add\n      mload(0x40)\n      swap1\n      dup2\n      add\n      0x40\n      mstore\n      dup1\n      swap3\n      swap2\n      swap1\n      dup2\n      dup2\n      mstore\n      0x20\n      add\n      dup3\n      dup1\n      sload\n      dup1\n      iszero\n      tag_130\n      jumpi\n      0x20\n      mul\n      dup3\n      add\n      swap2\n      swap1\n      0x00\n      mstore\n      keccak256(0x00, 0x20)\n      swap1\n    tag_131:\n      dup2\n      sload\n      dup2\n      mstore\n      0x20\n      add\n      swap1\n      0x01\n      add\n      swap1\n      dup1\n      dup4\n      gt\n      tag_131\n      jumpi\n    tag_130:\n      pop\n      pop\n      pop\n      pop\n      pop\n      swap1\n      pop\n        /* \"Voting/Voting.sol\":7798:7799  0 */\n      0x00\n        /* \"Voting/Voting.sol\":7785:7788  ids */\n      dup2\n        /* \"Voting/Voting.sol\":7785:7795  ids.length */\n      mload\n        /* \"Voting/Voting.sol\":7785:7799  ids.length > 0 */\n      gt\n        /* \"Voting/Voting.sol\":7777:7834  require(ids.length > 0, \"No candidates in this election\") */\n      tag_132\n      jumpi\n      mload(0x40)\n      0x08c379a000000000000000000000000000000000000000000000000000000000\n      dup2\n      mstore\n      0x04\n      add\n      tag_133\n      swap1\n      tag_134\n      jump\t// in\n    tag_133:\n      mload(0x40)\n      dup1\n      swap2\n      sub\n      swap1\n      revert\n    tag_132:\n        /* \"Voting/Voting.sol\":7876:7901  VoteDetails memory winner */\n      tag_135\n      tag_105\n      jump\t// in\n    tag_135:\n        /* \"Voting/Voting.sol\":8021:8022  0 */\n      0x00\n        /* \"Voting/Voting.sol\":8008:8011  ids */\n      dup3\n        /* \"Voting/Voting.sol\":8008:8018  ids.length */\n      mload\n        /* \"Voting/Voting.sol\":8008:8022  ids.length > 0 */\n      gt\n        /* \"Voting/Voting.sol\":8004:8088  if (ids.length > 0) {... */\n      iszero\n      tag_136\n      jumpi\n        /* \"Voting/Voting.sol\":8047:8057  candidates */\n      0x01\n        /* \"Voting/Voting.sol\":8047:8069  candidates[electionId] */\n      0x00\n        /* \"Voting/Voting.sol\":8058:8068  electionId */\n      dup6\n        /* \"Voting/Voting.sol\":8047:8069  candidates[electionId] */\n      dup2\n      mstore\n      0x20\n      add\n      swap1\n      dup2\n      mstore\n      0x20\n      add\n      0x00\n      keccak256\n        /* \"Voting/Voting.sol\":8047:8077  candidates[electionId][ids[0]] */\n      0x00\n        /* \"Voting/Voting.sol\":8070:8073  ids */\n      dup4\n        /* \"Voting/Voting.sol\":8074:8075  0 */\n      0x00\n        /* \"Voting/Voting.sol\":8070:8076  ids[0] */\n      dup2\n      mload\n      dup2\n      lt\n      tag_137\n      jumpi\n      tag_138\n      tag_111\n      jump\t// in\n    tag_138:\n    tag_137:\n      0x20\n      mul\n      0x20\n      add\n      add\n      mload\n        /* \"Voting/Voting.sol\":8047:8077  candidates[electionId][ids[0]] */\n      dup2\n      mstore\n      0x20\n      add\n      swap1\n      dup2\n      mstore\n      0x20\n      add\n      0x00\n      keccak256\n        /* \"Voting/Voting.sol\":8038:8077  winner = candidates[electionId][ids[0]] */\n      mload(0x40)\n      dup1\n      0x60\n      add\n      0x40\n      mstore\n      swap1\n      dup2\n      0x00\n      dup3\n      add\n      sload\n      dup2\n      mstore\n      0x20\n      add\n      0x01\n      dup3\n      add\n      dup1\n      sload\n      tag_139\n      swap1\n      tag_113\n      jump\t// in\n    tag_139:\n      dup1\n      0x1f\n      add\n      0x20\n      dup1\n      swap2\n      div\n      mul\n      0x20\n      add\n      mload(0x40)\n      swap1\n      dup2\n      add\n      0x40\n      mstore\n      dup1\n      swap3\n      swap2\n      swap1\n      dup2\n      dup2\n      mstore\n      0x20\n      add\n      dup3\n      dup1\n      sload\n      tag_140\n      swap1\n      tag_113\n      jump\t// in\n    tag_140:\n      dup1\n      iszero\n      tag_141\n      jumpi\n      dup1\n      0x1f\n      lt\n      tag_142\n      jumpi\n      0x0100\n      dup1\n      dup4\n      sload\n      div\n      mul\n      dup4\n      mstore\n      swap2\n      0x20\n      add\n      swap2\n      jump(tag_141)\n    tag_142:\n      dup3\n      add\n      swap2\n      swap1\n      0x00\n      mstore\n      keccak256(0x00, 0x20)\n      swap1\n    tag_143:\n      dup2\n      sload\n      dup2\n      mstore\n      swap1\n      0x01\n      add\n      swap1\n      0x20\n      add\n      dup1\n      dup4\n      gt\n      tag_143\n      jumpi\n      dup3\n      swap1\n      sub\n      0x1f\n      and\n      dup3\n      add\n      swap2\n    tag_141:\n      pop\n      pop\n      pop\n      pop\n      pop\n      dup2\n      mstore\n      0x20\n      add\n      0x02\n      dup3\n      add\n      sload\n      dup2\n      mstore\n      pop\n      pop\n      swap1\n      pop\n        /* \"Voting/Voting.sol\":8004:8088  if (ids.length > 0) {... */\n    tag_136:\n        /* \"Voting/Voting.sol\":8103:8112  uint256 i */\n      0x00\n        /* \"Voting/Voting.sol\":8115:8116  0 */\n      0x00\n        /* \"Voting/Voting.sol\":8103:8116  uint256 i = 0 */\n      swap1\n      pop\n        /* \"Voting/Voting.sol\":8098:8309  for (uint256 i = 0; i < ids.length; i++) {... */\n    tag_144:\n        /* \"Voting/Voting.sol\":8122:8125  ids */\n      dup3\n        /* \"Voting/Voting.sol\":8122:8132  ids.length */\n      mload\n        /* \"Voting/Voting.sol\":8118:8119  i */\n      dup2\n        /* \"Voting/Voting.sol\":8118:8132  i < ids.length */\n      lt\n        /* \"Voting/Voting.sol\":8098:8309  for (uint256 i = 0; i < ids.length; i++) {... */\n      iszero\n      tag_145\n      jumpi\n        /* \"Voting/Voting.sol\":8153:8173  VoteDetails memory c */\n      0x00\n        /* \"Voting/Voting.sol\":8176:8186  candidates */\n      0x01\n        /* \"Voting/Voting.sol\":8176:8198  candidates[electionId] */\n      0x00\n        /* \"Voting/Voting.sol\":8187:8197  electionId */\n      dup8\n        /* \"Voting/Voting.sol\":8176:8198  candidates[electionId] */\n      dup2\n      mstore\n      0x20\n      add\n      swap1\n      dup2\n      mstore\n      0x20\n      add\n      0x00\n      keccak256\n        /* \"Voting/Voting.sol\":8176:8206  candidates[electionId][ids[i]] */\n      0x00\n        /* \"Voting/Voting.sol\":8199:8202  ids */\n      dup6\n        /* \"Voting/Voting.sol\":8203:8204  i */\n      dup5\n        /* \"Voting/Voting.sol\":8199:8205  ids[i] */\n      dup2\n      mload\n      dup2\n      lt\n      tag_147\n      jumpi\n      tag_148\n      tag_111\n      jump\t// in\n    tag_148:\n    tag_147:\n      0x20\n      mul\n      0x20\n      add\n      add\n      mload\n        /* \"Voting/Voting.sol\":8176:8206  candidates[electionId][ids[i]] */\n      dup2\n      mstore\n      0x20\n      add\n      swap1\n      dup2\n      mstore\n      0x20\n      add\n      0x00\n      keccak256\n        /* \"Voting/Voting.sol\":8153:8206  VoteDetails memory c = candidates[electionId][ids[i]] */\n      mload(0x40)\n      dup1\n      0x60\n      add\n      0x40\n      mstore\n      swap1\n      dup2\n      0x00\n      dup3\n      add\n      sload\n      dup2\n      mstore\n      0x20\n      add\n      0x01\n      dup3\n      add\n      dup1\n      sload\n      tag_149\n      swap1\n      tag_113\n      jump\t// in\n    tag_149:\n      dup1\n      0x1f\n      add\n      0x20\n      dup1\n      swap2\n      div\n      mul\n      0x20\n      add\n      mload(0x40)\n      swap1\n      dup2\n      add\n      0x40\n      mstore\n      dup1\n      swap3\n      swap2\n      swap1\n      dup2\n      dup2\n      mstore\n      0x20\n      add\n      dup3\n      dup1\n      sload\n      tag_150\n      swap1\n      tag_113\n      jump\t// in\n    tag_150:\n      dup1\n      iszero\n      tag_151\n      jumpi\n      dup1\n      0x1f\n      lt\n      tag_152\n      jumpi\n      0x0100\n      dup1\n      dup4\n      sload\n      div\n      mul\n      dup4\n      mstore\n      swap2\n      0x20\n      add\n      swap2\n      jump(tag_151)\n    tag_152:\n      dup3\n      add\n      swap2\n      swap1\n      0x00\n      mstore\n      keccak256(0x00, 0x20)\n      swap1\n    tag_153:\n      dup2\n      sload\n      dup2\n      mstore\n      swap1\n      0x01\n      add\n      swap1\n      0x20\n      add\n      dup1\n      dup4\n      gt\n      tag_153\n      jumpi\n      dup3\n      swap1\n      sub\n      0x1f\n      and\n      dup3\n      add\n      swap2\n    tag_151:\n      pop\n      pop\n      pop\n      pop\n      pop\n      dup2\n      mstore\n      0x20\n      add\n      0x02\n      dup3\n      add\n      sload\n      dup2\n      mstore\n      pop\n      pop\n      swap1\n      pop\n        /* \"Voting/Voting.sol\":8238:8244  winner */\n      dup3\n        /* \"Voting/Voting.sol\":8238:8254  winner.voteCount */\n      0x40\n      add\n      mload\n        /* \"Voting/Voting.sol\":8224:8225  c */\n      dup2\n        /* \"Voting/Voting.sol\":8224:8235  c.voteCount */\n      0x40\n      add\n      mload\n        /* \"Voting/Voting.sol\":8224:8254  c.voteCount > winner.voteCount */\n      gt\n        /* \"Voting/Voting.sol\":8220:8299  if (c.voteCount > winner.voteCount) {... */\n      iszero\n      tag_154\n      jumpi\n        /* \"Voting/Voting.sol\":8283:8284  c */\n      dup1\n        /* \"Voting/Voting.sol\":8274:8284  winner = c */\n      swap3\n      pop\n        /* \"Voting/Voting.sol\":8220:8299  if (c.voteCount > winner.voteCount) {... */\n    tag_154:\n        /* \"Voting/Voting.sol\":8139:8309  {... */\n      pop\n        /* \"Voting/Voting.sol\":8134:8137  i++ */\n      dup1\n      dup1\n      0x01\n      add\n      swap2\n      pop\n      pop\n        /* \"Voting/Voting.sol\":8098:8309  for (uint256 i = 0; i < ids.length; i++) {... */\n      jump(tag_144)\n    tag_145:\n      pop\n        /* \"Voting/Voting.sol\":8326:8332  winner */\n      dup1\n        /* \"Voting/Voting.sol\":8319:8332  return winner */\n      swap3\n      pop\n      pop\n      pop\n        /* \"Voting/Voting.sol\":7416:8339  function getWinner(uint256 electionId)... */\n      swap2\n      swap1\n      pop\n      jump\t// out\n        /* \"Voting/Voting.sol\":673:733  mapping(uint256 => mapping(address => bool)) public hasVoted */\n    tag_41:\n      mstore(0x20, 0x04)\n      dup2\n      0x00\n      mstore\n      mstore(0x20, keccak256(0x00, 0x40))\n      dup1\n      0x00\n      mstore\n      keccak256(0x00, 0x40)\n      0x00\n      swap2\n      pop\n      swap2\n      pop\n      swap1\n      sload\n      swap1\n      0x0100\n      exp\n      swap1\n      div\n      0xff\n      and\n      dup2\n      jump\t// out\n        /* \"Voting/Voting.sol\":8345:8834  function manuallyEndElection(uint256 electionId) public onlyOwner {... */\n    tag_46:\n        /* \"Voting/Voting.sol\":1291:1296  owner */\n      0x00\n      0x00\n      swap1\n      sload\n      swap1\n      0x0100\n      exp\n      swap1\n      div\n      0xffffffffffffffffffffffffffffffffffffffff\n      and\n        /* \"Voting/Voting.sol\":1277:1296  msg.sender == owner */\n      0xffffffffffffffffffffffffffffffffffffffff\n      and\n        /* \"Voting/Voting.sol\":1277:1287  msg.sender */\n      caller\n        /* \"Voting/Voting.sol\":1277:1296  msg.sender == owner */\n      0xffffffffffffffffffffffffffffffffffffffff\n      and\n      eq\n        /* \"Voting/Voting.sol\":1269:1322  require(msg.sender == owner, \"You are not the owner\") */\n      tag_156\n      jumpi\n      mload(0x40)\n      0x08c379a000000000000000000000000000000000000000000000000000000000\n      dup2\n      mstore\n      0x04\n      add\n      tag_157\n      swap1\n      tag_158\n      jump\t// in\n    tag_157:\n      mload(0x40)\n      dup1\n      swap2\n      sub\n      swap1\n      revert\n    tag_156:\n        /* \"Voting/Voting.sol\":8472:8484  Status.Ended */\n      0x02\n        /* \"Voting/Voting.sol\":8442:8484  electionStatus[electionId] != Status.Ended */\n      dup1\n      dup2\n      gt\n      iszero\n      tag_160\n      jumpi\n      tag_161\n      tag_124\n      jump\t// in\n    tag_161:\n    tag_160:\n        /* \"Voting/Voting.sol\":8442:8456  electionStatus */\n      0x05\n        /* \"Voting/Voting.sol\":8442:8468  electionStatus[electionId] */\n      0x00\n        /* \"Voting/Voting.sol\":8457:8467  electionId */\n      dup4\n        /* \"Voting/Voting.sol\":8442:8468  electionStatus[electionId] */\n      dup2\n      mstore\n      0x20\n      add\n      swap1\n      dup2\n      mstore\n      0x20\n      add\n      0x00\n      keccak256\n      0x00\n      swap1\n      sload\n      swap1\n      0x0100\n      exp\n      swap1\n      div\n      0xff\n      and\n        /* \"Voting/Voting.sol\":8442:8484  electionStatus[electionId] != Status.Ended */\n      0x02\n      dup2\n      gt\n      iszero\n      tag_162\n      jumpi\n      tag_163\n      tag_124\n      jump\t// in\n    tag_163:\n    tag_162:\n      sub\n        /* \"Voting/Voting.sol\":8421:8532  require(... */\n      tag_164\n      jumpi\n      mload(0x40)\n      0x08c379a000000000000000000000000000000000000000000000000000000000\n      dup2\n      mstore\n      0x04\n      add\n      tag_165\n      swap1\n      tag_166\n      jump\t// in\n    tag_165:\n      mload(0x40)\n      dup1\n      swap2\n      sub\n      swap1\n      revert\n    tag_164:\n        /* \"Voting/Voting.sol\":8652:8666  Status.Ongoing */\n      0x01\n        /* \"Voting/Voting.sol\":8622:8666  electionStatus[electionId] == Status.Ongoing */\n      0x02\n      dup2\n      gt\n      iszero\n      tag_167\n      jumpi\n      tag_168\n      tag_124\n      jump\t// in\n    tag_168:\n    tag_167:\n        /* \"Voting/Voting.sol\":8622:8636  electionStatus */\n      0x05\n        /* \"Voting/Voting.sol\":8622:8648  electionStatus[electionId] */\n      0x00\n        /* \"Voting/Voting.sol\":8637:8647  electionId */\n      dup4\n        /* \"Voting/Voting.sol\":8622:8648  electionStatus[electionId] */\n      dup2\n      mstore\n      0x20\n      add\n      swap1\n      dup2\n      mstore\n      0x20\n      add\n      0x00\n      keccak256\n      0x00\n      swap1\n      sload\n      swap1\n      0x0100\n      exp\n      swap1\n      div\n      0xff\n      and\n        /* \"Voting/Voting.sol\":8622:8666  electionStatus[electionId] == Status.Ongoing */\n      0x02\n      dup2\n      gt\n      iszero\n      tag_169\n      jumpi\n      tag_170\n      tag_124\n      jump\t// in\n    tag_170:\n    tag_169:\n      eq\n        /* \"Voting/Voting.sol\":8601:8736  require(... */\n      tag_171\n      jumpi\n      mload(0x40)\n      0x08c379a000000000000000000000000000000000000000000000000000000000\n      dup2\n      mstore\n      0x04\n      add\n      tag_172\n      swap1\n      tag_173\n      jump\t// in\n    tag_172:\n      mload(0x40)\n      dup1\n      swap2\n      sub\n      swap1\n      revert\n    tag_171:\n        /* \"Voting/Voting.sol\":8775:8787  Status.Ended */\n      0x02\n        /* \"Voting/Voting.sol\":8746:8760  electionStatus */\n      0x05\n        /* \"Voting/Voting.sol\":8746:8772  electionStatus[electionId] */\n      0x00\n        /* \"Voting/Voting.sol\":8761:8771  electionId */\n      dup4\n        /* \"Voting/Voting.sol\":8746:8772  electionStatus[electionId] */\n      dup2\n      mstore\n      0x20\n      add\n      swap1\n      dup2\n      mstore\n      0x20\n      add\n      0x00\n      keccak256\n      0x00\n        /* \"Voting/Voting.sol\":8746:8787  electionStatus[electionId] = Status.Ended */\n      0x0100\n      exp\n      dup2\n      sload\n      dup2\n      0xff\n      mul\n      not\n      and\n      swap1\n      dup4\n      0x02\n      dup2\n      gt\n      iszero\n      tag_174\n      jumpi\n      tag_175\n      tag_124\n      jump\t// in\n    tag_175:\n    tag_174:\n      mul\n      or\n      swap1\n      sstore\n      pop\n        /* \"Voting/Voting.sol\":8816:8826  electionId */\n      dup1\n        /* \"Voting/Voting.sol\":8802:8827  ElectionEnded(electionId) */\n      0x562cd572b2ba3b666cd989fc4ca98419ec81e75f04528df9d9d76fdb7807ee71\n      mload(0x40)\n      mload(0x40)\n      dup1\n      swap2\n      sub\n      swap1\n      log2\n        /* \"Voting/Voting.sol\":8345:8834  function manuallyEndElection(uint256 electionId) public onlyOwner {... */\n      pop\n      jump\t// out\n        /* \"Voting/Voting.sol\":622:667  mapping(uint256 => Election) public elections */\n    tag_49:\n      mstore(0x20, 0x03)\n      dup1\n      0x00\n      mstore\n      keccak256(0x00, 0x40)\n      0x00\n      swap2\n      pop\n      swap1\n      pop\n      dup1\n      0x00\n      add\n      dup1\n      sload\n      tag_176\n      swap1\n      tag_113\n      jump\t// in\n    tag_176:\n      dup1\n      0x1f\n      add\n      0x20\n      dup1\n      swap2\n      div\n      mul\n      0x20\n      add\n      mload(0x40)\n      swap1\n      dup2\n      add\n      0x40\n      mstore\n      dup1\n      swap3\n      swap2\n      swap1\n      dup2\n      dup2\n      mstore\n      0x20\n      add\n      dup3\n      dup1\n      sload\n      tag_177\n      swap1\n      tag_113\n      jump\t// in\n    tag_177:\n      dup1\n      iszero\n      tag_178\n      jumpi\n      dup1\n      0x1f\n      lt\n      tag_179\n      jumpi\n      0x0100\n      dup1\n      dup4\n      sload\n      div\n      mul\n      dup4\n      mstore\n      swap2\n      0x20\n      add\n      swap2\n      jump(tag_178)\n    tag_179:\n      dup3\n      add\n      swap2\n      swap1\n      0x00\n      mstore\n      keccak256(0x00, 0x20)\n      swap1\n    tag_180:\n      dup2\n      sload\n      dup2\n      mstore\n      swap1\n      0x01\n      add\n      swap1\n      0x20\n      add\n      dup1\n      dup4\n      gt\n      tag_180\n      jumpi\n      dup3\n      swap1\n      sub\n      0x1f\n      and\n      dup3\n      add\n      swap2\n    tag_178:\n      pop\n      pop\n      pop\n      pop\n      pop\n      swap1\n      dup1\n      0x01\n      add\n      sload\n      swap1\n      dup1\n      0x02\n      add\n      sload\n      swap1\n      dup1\n      0x03\n      add\n      sload\n      swap1\n      dup1\n      0x04\n      add\n      0x00\n      swap1\n      sload\n      swap1\n      0x0100\n      exp\n      swap1\n      div\n      0xff\n      and\n      swap1\n      pop\n      dup6\n      jump\t// out\n        /* \"Voting/Voting.sol\":4282:4935  function startElection(uint256 electionId) public onlyOwner {... */\n    tag_54:\n        /* \"Voting/Voting.sol\":1291:1296  owner */\n      0x00\n      0x00\n      swap1\n      sload\n      swap1\n      0x0100\n      exp\n      swap1\n      div\n      0xffffffffffffffffffffffffffffffffffffffff\n      and\n        /* \"Voting/Voting.sol\":1277:1296  msg.sender == owner */\n      0xffffffffffffffffffffffffffffffffffffffff\n      and\n        /* \"Voting/Voting.sol\":1277:1287  msg.sender */\n      caller\n        /* \"Voting/Voting.sol\":1277:1296  msg.sender == owner */\n      0xffffffffffffffffffffffffffffffffffffffff\n      and\n      eq\n        /* \"Voting/Voting.sol\":1269:1322  require(msg.sender == owner, \"You are not the owner\") */\n      tag_182\n      jumpi\n      mload(0x40)\n      0x08c379a000000000000000000000000000000000000000000000000000000000\n      dup2\n      mstore\n      0x04\n      add\n      tag_183\n      swap1\n      tag_158\n      jump\t// in\n    tag_183:\n      mload(0x40)\n      dup1\n      swap2\n      sub\n      swap1\n      revert\n    tag_182:\n        /* \"Voting/Voting.sol\":4352:4371  Election storage el */\n      0x00\n        /* \"Voting/Voting.sol\":4374:4383  elections */\n      0x03\n        /* \"Voting/Voting.sol\":4374:4395  elections[electionId] */\n      0x00\n        /* \"Voting/Voting.sol\":4384:4394  electionId */\n      dup4\n        /* \"Voting/Voting.sol\":4374:4395  elections[electionId] */\n      dup2\n      mstore\n      0x20\n      add\n      swap1\n      dup2\n      mstore\n      0x20\n      add\n      0x00\n      keccak256\n        /* \"Voting/Voting.sol\":4352:4395  Election storage el = elections[electionId] */\n      swap1\n      pop\n        /* \"Voting/Voting.sol\":4413:4415  el */\n      dup1\n        /* \"Voting/Voting.sol\":4413:4422  el.exists */\n      0x04\n      add\n      0x00\n      swap1\n      sload\n      swap1\n      0x0100\n      exp\n      swap1\n      div\n      0xff\n      and\n        /* \"Voting/Voting.sol\":4405:4450  require(el.exists, \"Election does not exist\") */\n      tag_185\n      jumpi\n      mload(0x40)\n      0x08c379a000000000000000000000000000000000000000000000000000000000\n      dup2\n      mstore\n      0x04\n      add\n      tag_186\n      swap1\n      tag_187\n      jump\t// in\n    tag_186:\n      mload(0x40)\n      dup1\n      swap2\n      sub\n      swap1\n      revert\n    tag_185:\n        /* \"Voting/Voting.sol\":4511:4528  Status.NotStarted */\n      0x00\n        /* \"Voting/Voting.sol\":4481:4528  electionStatus[electionId] == Status.NotStarted */\n      0x02\n      dup2\n      gt\n      iszero\n      tag_188\n      jumpi\n      tag_189\n      tag_124\n      jump\t// in\n    tag_189:\n    tag_188:\n        /* \"Voting/Voting.sol\":4481:4495  electionStatus */\n      0x05\n        /* \"Voting/Voting.sol\":4481:4507  electionStatus[electionId] */\n      0x00\n        /* \"Voting/Voting.sol\":4496:4506  electionId */\n      dup5\n        /* \"Voting/Voting.sol\":4481:4507  electionStatus[electionId] */\n      dup2\n      mstore\n      0x20\n      add\n      swap1\n      dup2\n      mstore\n      0x20\n      add\n      0x00\n      keccak256\n      0x00\n      swap1\n      sload\n      swap1\n      0x0100\n      exp\n      swap1\n      div\n      0xff\n      and\n        /* \"Voting/Voting.sol\":4481:4528  electionStatus[electionId] == Status.NotStarted */\n      0x02\n      dup2\n      gt\n      iszero\n      tag_190\n      jumpi\n      tag_191\n      tag_124\n      jump\t// in\n    tag_191:\n    tag_190:\n      eq\n        /* \"Voting/Voting.sol\":4460:4587  require(... */\n      tag_192\n      jumpi\n      mload(0x40)\n      0x08c379a000000000000000000000000000000000000000000000000000000000\n      dup2\n      mstore\n      0x04\n      add\n      tag_193\n      swap1\n      tag_194\n      jump\t// in\n    tag_193:\n      mload(0x40)\n      dup1\n      swap2\n      sub\n      swap1\n      revert\n    tag_192:\n        /* \"Voting/Voting.sol\":4639:4640  0 */\n      0x00\n        /* \"Voting/Voting.sol\":4605:4617  candidateIds */\n      0x02\n        /* \"Voting/Voting.sol\":4605:4629  candidateIds[electionId] */\n      0x00\n        /* \"Voting/Voting.sol\":4618:4628  electionId */\n      dup5\n        /* \"Voting/Voting.sol\":4605:4629  candidateIds[electionId] */\n      dup2\n      mstore\n      0x20\n      add\n      swap1\n      dup2\n      mstore\n      0x20\n      add\n      0x00\n      keccak256\n        /* \"Voting/Voting.sol\":4605:4636  candidateIds[electionId].length */\n      dup1\n      sload\n      swap1\n      pop\n        /* \"Voting/Voting.sol\":4605:4640  candidateIds[electionId].length > 0 */\n      gt\n        /* \"Voting/Voting.sol\":4597:4664  require(candidateIds[electionId].length > 0, \"No candidates added\") */\n      tag_195\n      jumpi\n      mload(0x40)\n      0x08c379a000000000000000000000000000000000000000000000000000000000\n      dup2\n      mstore\n      0x04\n      add\n      tag_196\n      swap1\n      tag_197\n      jump\t// in\n    tag_196:\n      mload(0x40)\n      dup1\n      swap2\n      sub\n      swap1\n      revert\n    tag_195:\n        /* \"Voting/Voting.sol\":4872:4886  Status.Ongoing */\n      0x01\n        /* \"Voting/Voting.sol\":4843:4857  electionStatus */\n      0x05\n        /* \"Voting/Voting.sol\":4843:4869  electionStatus[electionId] */\n      0x00\n        /* \"Voting/Voting.sol\":4858:4868  electionId */\n      dup5\n        /* \"Voting/Voting.sol\":4843:4869  electionStatus[electionId] */\n      dup2\n      mstore\n      0x20\n      add\n      swap1\n      dup2\n      mstore\n      0x20\n      add\n      0x00\n      keccak256\n      0x00\n        /* \"Voting/Voting.sol\":4843:4886  electionStatus[electionId] = Status.Ongoing */\n      0x0100\n      exp\n      dup2\n      sload\n      dup2\n      0xff\n      mul\n      not\n      and\n      swap1\n      dup4\n      0x02\n      dup2\n      gt\n      iszero\n      tag_198\n      jumpi\n      tag_199\n      tag_124\n      jump\t// in\n    tag_199:\n    tag_198:\n      mul\n      or\n      swap1\n      sstore\n      pop\n        /* \"Voting/Voting.sol\":4917:4927  electionId */\n      dup2\n        /* \"Voting/Voting.sol\":4901:4928  ElectionStarted(electionId) */\n      0x159eee87222a0489c529f2153c26ad65d718f2cc33ebaa8d399d1dd5b39facaa\n      mload(0x40)\n      mload(0x40)\n      dup1\n      swap2\n      sub\n      swap1\n      log2\n        /* \"Voting/Voting.sol\":4342:4935  {... */\n      pop\n        /* \"Voting/Voting.sol\":4282:4935  function startElection(uint256 electionId) public onlyOwner {... */\n      pop\n      jump\t// out\n        /* \"Voting/Voting.sol\":492:561  mapping(uint256 => mapping(uint256 => VoteDetails)) public candidates */\n    tag_58:\n      mstore(0x20, 0x01)\n      dup2\n      0x00\n      mstore\n      mstore(0x20, keccak256(0x00, 0x40))\n      dup1\n      0x00\n      mstore\n      keccak256(0x00, 0x40)\n      0x00\n      swap2\n      pop\n      swap2\n      pop\n      pop\n      dup1\n      0x00\n      add\n      sload\n      swap1\n      dup1\n      0x01\n      add\n      dup1\n      sload\n      tag_200\n      swap1\n      tag_113\n      jump\t// in\n    tag_200:\n      dup1\n      0x1f\n      add\n      0x20\n      dup1\n      swap2\n      div\n      mul\n      0x20\n      add\n      mload(0x40)\n      swap1\n      dup2\n      add\n      0x40\n      mstore\n      dup1\n      swap3\n      swap2\n      swap1\n      dup2\n      dup2\n      mstore\n      0x20\n      add\n      dup3\n      dup1\n      sload\n      tag_201\n      swap1\n      tag_113\n      jump\t// in\n    tag_201:\n      dup1\n      iszero\n      tag_202\n      jumpi\n      dup1\n      0x1f\n      lt\n      tag_203\n      jumpi\n      0x0100\n      dup1\n      dup4\n      sload\n      div\n      mul\n      dup4\n      mstore\n      swap2\n      0x20\n      add\n      swap2\n      jump(tag_202)\n    tag_203:\n      dup3\n      add\n      swap2\n      swap1\n      0x00\n      mstore\n      keccak256(0x00, 0x20)\n      swap1\n    tag_204:\n      dup2\n      sload\n      dup2\n      mstore\n      swap1\n      0x01\n      add\n      swap1\n      0x20\n      add\n      dup1\n      dup4\n      gt\n      tag_204\n      jumpi\n      dup3\n      swap1\n      sub\n      0x1f\n      and\n      dup3\n      add\n      swap2\n    tag_202:\n      pop\n      pop\n      pop\n      pop\n      pop\n      swap1\n      dup1\n      0x02\n      add\n      sload\n      swap1\n      pop\n      dup4\n      jump\t// out\n        /* \"Voting/Voting.sol\":6425:6713  function getAllElections() public view returns (Election[] memory) {... */\n    tag_62:\n        /* \"Voting/Voting.sol\":6473:6490  Election[] memory */\n      0x60\n        /* \"Voting/Voting.sol\":6502:6526  Election[] memory result */\n      0x00\n        /* \"Voting/Voting.sol\":6544:6555  electionIds */\n      0x06\n        /* \"Voting/Voting.sol\":6544:6562  electionIds.length */\n      dup1\n      sload\n      swap1\n      pop\n        /* \"Voting/Voting.sol\":6529:6563  new Election[](electionIds.length) */\n      0xffffffffffffffff\n      dup2\n      gt\n      iszero\n      tag_206\n      jumpi\n      tag_207\n      tag_101\n      jump\t// in\n    tag_207:\n    tag_206:\n      mload(0x40)\n      swap1\n      dup1\n      dup3\n      mstore\n      dup1\n      0x20\n      mul\n      0x20\n      add\n      dup3\n      add\n      0x40\n      mstore\n      dup1\n      iszero\n      tag_208\n      jumpi\n      dup2\n      0x20\n      add\n    tag_209:\n      tag_210\n      tag_211\n      jump\t// in\n    tag_210:\n      dup2\n      mstore\n      0x20\n      add\n      swap1\n      0x01\n      swap1\n      sub\n      swap1\n      dup2\n      tag_209\n      jumpi\n      swap1\n      pop\n    tag_208:\n      pop\n        /* \"Voting/Voting.sol\":6502:6563  Election[] memory result = new Election[](electionIds.length) */\n      swap1\n      pop\n        /* \"Voting/Voting.sol\":6578:6587  uint256 i */\n      0x00\n        /* \"Voting/Voting.sol\":6590:6591  0 */\n      0x00\n        /* \"Voting/Voting.sol\":6578:6591  uint256 i = 0 */\n      swap1\n      pop\n        /* \"Voting/Voting.sol\":6573:6684  for (uint256 i = 0; i < electionIds.length; i++) {... */\n    tag_212:\n        /* \"Voting/Voting.sol\":6597:6608  electionIds */\n      0x06\n        /* \"Voting/Voting.sol\":6597:6615  electionIds.length */\n      dup1\n      sload\n      swap1\n      pop\n        /* \"Voting/Voting.sol\":6593:6594  i */\n      dup2\n        /* \"Voting/Voting.sol\":6593:6615  i < electionIds.length */\n      lt\n        /* \"Voting/Voting.sol\":6573:6684  for (uint256 i = 0; i < electionIds.length; i++) {... */\n      iszero\n      tag_213\n      jumpi\n        /* \"Voting/Voting.sol\":6648:6657  elections */\n      0x03\n        /* \"Voting/Voting.sol\":6648:6673  elections[electionIds[i]] */\n      0x00\n        /* \"Voting/Voting.sol\":6658:6669  electionIds */\n      0x06\n        /* \"Voting/Voting.sol\":6670:6671  i */\n      dup4\n        /* \"Voting/Voting.sol\":6658:6672  electionIds[i] */\n      dup2\n      sload\n      dup2\n      lt\n      tag_215\n      jumpi\n      tag_216\n      tag_111\n      jump\t// in\n    tag_216:\n    tag_215:\n      swap1\n      0x00\n      mstore\n      keccak256(0x00, 0x20)\n      add\n      sload\n        /* \"Voting/Voting.sol\":6648:6673  elections[electionIds[i]] */\n      dup2\n      mstore\n      0x20\n      add\n      swap1\n      dup2\n      mstore\n      0x20\n      add\n      0x00\n      keccak256\n        /* \"Voting/Voting.sol\":6636:6673  result[i] = elections[electionIds[i]] */\n      mload(0x40)\n      dup1\n      0xa0\n      add\n      0x40\n      mstore\n      swap1\n      dup2\n      0x00\n      dup3\n      add\n      dup1\n      sload\n      tag_218\n      swap1\n      tag_113\n      jump\t// in\n    tag_218:\n      dup1\n      0x1f\n      add\n      0x20\n      dup1\n      swap2\n      div\n      mul\n      0x20\n      add\n      mload(0x40)\n      swap1\n      dup2\n      add\n      0x40\n      mstore\n      dup1\n      swap3\n      swap2\n      swap1\n      dup2\n      dup2\n      mstore\n      0x20\n      add\n      dup3\n      dup1\n      sload\n      tag_219\n      swap1\n      tag_113\n      jump\t// in\n    tag_219:\n      dup1\n      iszero\n      tag_220\n      jumpi\n      dup1\n      0x1f\n      lt\n      tag_221\n      jumpi\n      0x0100\n      dup1\n      dup4\n      sload\n      div\n      mul\n      dup4\n      mstore\n      swap2\n      0x20\n      add\n      swap2\n      jump(tag_220)\n    tag_221:\n      dup3\n      add\n      swap2\n      swap1\n      0x00\n      mstore\n      keccak256(0x00, 0x20)\n      swap1\n    tag_222:\n      dup2\n      sload\n      dup2\n      mstore\n      swap1\n      0x01\n      add\n      swap1\n      0x20\n      add\n      dup1\n      dup4\n      gt\n      tag_222\n      jumpi\n      dup3\n      swap1\n      sub\n      0x1f\n      and\n      dup3\n      add\n      swap2\n    tag_220:\n      pop\n      pop\n      pop\n      pop\n      pop\n      dup2\n      mstore\n      0x20\n      add\n      0x01\n      dup3\n      add\n      sload\n      dup2\n      mstore\n      0x20\n      add\n      0x02\n      dup3\n      add\n      sload\n      dup2\n      mstore\n      0x20\n      add\n      0x03\n      dup3\n      add\n      sload\n      dup2\n      mstore\n      0x20\n      add\n      0x04\n      dup3\n      add\n      0x00\n      swap1\n      sload\n      swap1\n      0x0100\n      exp\n      swap1\n      div\n      0xff\n      and\n      iszero\n      iszero\n      iszero\n      iszero\n      dup2\n      mstore\n      pop\n      pop\n        /* \"Voting/Voting.sol\":6636:6642  result */\n      dup3\n        /* \"Voting/Voting.sol\":6643:6644  i */\n      dup3\n        /* \"Voting/Voting.sol\":6636:6645  result[i] */\n      dup2\n      mload\n      dup2\n      lt\n      tag_223\n      jumpi\n      tag_224\n      tag_111\n      jump\t// in\n    tag_224:\n    tag_223:\n      0x20\n      mul\n      0x20\n      add\n      add\n        /* \"Voting/Voting.sol\":6636:6673  result[i] = elections[electionIds[i]] */\n      dup2\n      swap1\n      mstore\n      pop\n        /* \"Voting/Voting.sol\":6617:6620  i++ */\n      dup1\n      dup1\n      0x01\n      add\n      swap2\n      pop\n      pop\n        /* \"Voting/Voting.sol\":6573:6684  for (uint256 i = 0; i < electionIds.length; i++) {... */\n      jump(tag_212)\n    tag_213:\n      pop\n        /* \"Voting/Voting.sol\":6700:6706  result */\n      dup1\n        /* \"Voting/Voting.sol\":6693:6706  return result */\n      swap2\n      pop\n      pop\n        /* \"Voting/Voting.sol\":6425:6713  function getAllElections() public view returns (Election[] memory) {... */\n      swap1\n      jump\t// out\n        /* \"Voting/Voting.sol\":465:485  address public owner */\n    tag_66:\n      0x00\n      0x00\n      swap1\n      sload\n      swap1\n      0x0100\n      exp\n      swap1\n      div\n      0xffffffffffffffffffffffffffffffffffffffff\n      and\n      dup2\n      jump\t// out\n        /* \"Voting/Voting.sol\":739:787  mapping(uint256 => Status) public electionStatus */\n    tag_71:\n      mstore(0x20, 0x05)\n      dup1\n      0x00\n      mstore\n      keccak256(0x00, 0x40)\n      0x00\n      swap2\n      pop\n      sload\n      swap1\n      0x0100\n      exp\n      swap1\n      div\n      0xff\n      and\n      dup2\n      jump\t// out\n        /* \"Voting/Voting.sol\":3235:4207  function addCandidate(... */\n    tag_77:\n        /* \"Voting/Voting.sol\":1291:1296  owner */\n      0x00\n      0x00\n      swap1\n      sload\n      swap1\n      0x0100\n      exp\n      swap1\n      div\n      0xffffffffffffffffffffffffffffffffffffffff\n      and\n        /* \"Voting/Voting.sol\":1277:1296  msg.sender == owner */\n      0xffffffffffffffffffffffffffffffffffffffff\n      and\n        /* \"Voting/Voting.sol\":1277:1287  msg.sender */\n      caller\n        /* \"Voting/Voting.sol\":1277:1296  msg.sender == owner */\n      0xffffffffffffffffffffffffffffffffffffffff\n      and\n      eq\n        /* \"Voting/Voting.sol\":1269:1322  require(msg.sender == owner, \"You are not the owner\") */\n      tag_226\n      jumpi\n      mload(0x40)\n      0x08c379a000000000000000000000000000000000000000000000000000000000\n      dup2\n      mstore\n      0x04\n      add\n      tag_227\n      swap1\n      tag_158\n      jump\t// in\n    tag_227:\n      mload(0x40)\n      dup1\n      swap2\n      sub\n      swap1\n      revert\n    tag_226:\n        /* \"Voting/Voting.sol\":3385:3394  elections */\n      0x03\n        /* \"Voting/Voting.sol\":3385:3406  elections[electionId] */\n      0x00\n        /* \"Voting/Voting.sol\":3395:3405  electionId */\n      dup6\n        /* \"Voting/Voting.sol\":3385:3406  elections[electionId] */\n      dup2\n      mstore\n      0x20\n      add\n      swap1\n      dup2\n      mstore\n      0x20\n      add\n      0x00\n      keccak256\n        /* \"Voting/Voting.sol\":3385:3413  elections[electionId].exists */\n      0x04\n      add\n      0x00\n      swap1\n      sload\n      swap1\n      0x0100\n      exp\n      swap1\n      div\n      0xff\n      and\n        /* \"Voting/Voting.sol\":3377:3441  require(elections[electionId].exists, \"Election does not exist\") */\n      tag_229\n      jumpi\n      mload(0x40)\n      0x08c379a000000000000000000000000000000000000000000000000000000000\n      dup2\n      mstore\n      0x04\n      add\n      tag_230\n      swap1\n      tag_187\n      jump\t// in\n    tag_230:\n      mload(0x40)\n      dup1\n      swap2\n      sub\n      swap1\n      revert\n    tag_229:\n        /* \"Voting/Voting.sol\":3608:3609  0 */\n      0x00\n        /* \"Voting/Voting.sol\":3557:3567  candidates */\n      0x01\n        /* \"Voting/Voting.sol\":3557:3579  candidates[electionId] */\n      0x00\n        /* \"Voting/Voting.sol\":3568:3578  electionId */\n      dup7\n        /* \"Voting/Voting.sol\":3557:3579  candidates[electionId] */\n      dup2\n      mstore\n      0x20\n      add\n      swap1\n      dup2\n      mstore\n      0x20\n      add\n      0x00\n      keccak256\n        /* \"Voting/Voting.sol\":3557:3592  candidates[electionId][candidateId] */\n      0x00\n        /* \"Voting/Voting.sol\":3580:3591  candidateId */\n      dup6\n        /* \"Voting/Voting.sol\":3557:3592  candidates[electionId][candidateId] */\n      dup2\n      mstore\n      0x20\n      add\n      swap1\n      dup2\n      mstore\n      0x20\n      add\n      0x00\n      keccak256\n        /* \"Voting/Voting.sol\":3557:3604  candidates[electionId][candidateId].candidateId */\n      0x00\n      add\n      sload\n        /* \"Voting/Voting.sol\":3557:3609  candidates[electionId][candidateId].candidateId == 0 */\n      eq\n        /* \"Voting/Voting.sol\":3536:3672  require(... */\n      tag_231\n      jumpi\n      mload(0x40)\n      0x08c379a000000000000000000000000000000000000000000000000000000000\n      dup2\n      mstore\n      0x04\n      add\n      tag_232\n      swap1\n      tag_233\n      jump\t// in\n    tag_232:\n      mload(0x40)\n      dup1\n      swap2\n      sub\n      swap1\n      revert\n    tag_231:\n        /* \"Voting/Voting.sol\":3836:3853  Status.NotStarted */\n      0x00\n        /* \"Voting/Voting.sol\":3806:3853  electionStatus[electionId] == Status.NotStarted */\n      0x02\n      dup2\n      gt\n      iszero\n      tag_234\n      jumpi\n      tag_235\n      tag_124\n      jump\t// in\n    tag_235:\n    tag_234:\n        /* \"Voting/Voting.sol\":3806:3820  electionStatus */\n      0x05\n        /* \"Voting/Voting.sol\":3806:3832  electionStatus[electionId] */\n      0x00\n        /* \"Voting/Voting.sol\":3821:3831  electionId */\n      dup7\n        /* \"Voting/Voting.sol\":3806:3832  electionStatus[electionId] */\n      dup2\n      mstore\n      0x20\n      add\n      swap1\n      dup2\n      mstore\n      0x20\n      add\n      0x00\n      keccak256\n      0x00\n      swap1\n      sload\n      swap1\n      0x0100\n      exp\n      swap1\n      div\n      0xff\n      and\n        /* \"Voting/Voting.sol\":3806:3853  electionStatus[electionId] == Status.NotStarted */\n      0x02\n      dup2\n      gt\n      iszero\n      tag_236\n      jumpi\n      tag_237\n      tag_124\n      jump\t// in\n    tag_237:\n    tag_236:\n      eq\n        /* \"Voting/Voting.sol\":3785:3927  require(... */\n      tag_238\n      jumpi\n      mload(0x40)\n      0x08c379a000000000000000000000000000000000000000000000000000000000\n      dup2\n      mstore\n      0x04\n      add\n      tag_239\n      swap1\n      tag_240\n      jump\t// in\n    tag_239:\n      mload(0x40)\n      dup1\n      swap2\n      sub\n      swap1\n      revert\n    tag_238:\n        /* \"Voting/Voting.sol\":3976:4087  VoteDetails({... */\n      mload(0x40)\n      dup1\n      0x60\n      add\n      0x40\n      mstore\n      dup1\n        /* \"Voting/Voting.sol\":4015:4026  candidateId */\n      dup5\n        /* \"Voting/Voting.sol\":3976:4087  VoteDetails({... */\n      dup2\n      mstore\n      0x20\n      add\n        /* \"Voting/Voting.sol\":4046:4050  name */\n      dup4\n      dup4\n        /* \"Voting/Voting.sol\":3976:4087  VoteDetails({... */\n      dup1\n      dup1\n      0x1f\n      add\n      0x20\n      dup1\n      swap2\n      div\n      mul\n      0x20\n      add\n      mload(0x40)\n      swap1\n      dup2\n      add\n      0x40\n      mstore\n      dup1\n      swap4\n      swap3\n      swap2\n      swap1\n      dup2\n      dup2\n      mstore\n      0x20\n      add\n      dup4\n      dup4\n      dup1\n      dup3\n      dup5\n      calldatacopy\n      0x00\n      dup2\n      dup5\n      add\n      mstore\n      not(0x1f)\n      0x1f\n      dup3\n      add\n      and\n      swap1\n      pop\n      dup1\n      dup4\n      add\n      swap3\n      pop\n      pop\n      pop\n      pop\n      pop\n      pop\n      pop\n      dup2\n      mstore\n      0x20\n      add\n        /* \"Voting/Voting.sol\":4075:4076  0 */\n      0x00\n        /* \"Voting/Voting.sol\":3976:4087  VoteDetails({... */\n      dup2\n      mstore\n      pop\n        /* \"Voting/Voting.sol\":3938:3948  candidates */\n      0x01\n        /* \"Voting/Voting.sol\":3938:3960  candidates[electionId] */\n      0x00\n        /* \"Voting/Voting.sol\":3949:3959  electionId */\n      dup7\n        /* \"Voting/Voting.sol\":3938:3960  candidates[electionId] */\n      dup2\n      mstore\n      0x20\n      add\n      swap1\n      dup2\n      mstore\n      0x20\n      add\n      0x00\n      keccak256\n        /* \"Voting/Voting.sol\":3938:3973  candidates[electionId][candidateId] */\n      0x00\n        /* \"Voting/Voting.sol\":3961:3972  candidateId */\n      dup6\n        /* \"Voting/Voting.sol\":3938:3973  candidates[electionId][candidateId] */\n      dup2\n      mstore\n      0x20\n      add\n      swap1\n      dup2\n      mstore\n      0x20\n      add\n      0x00\n      keccak256\n        /* \"Voting/Voting.sol\":3938:4087  candidates[electionId][candidateId] = VoteDetails({... */\n      0x00\n      dup3\n      add\n      mload\n      dup2\n      0x00\n      add\n      sstore\n      0x20\n      dup3\n      add\n      mload\n      dup2\n      0x01\n      add\n      swap1\n      dup2\n      tag_241\n      swap2\n      swap1\n      tag_242\n      jump\t// in\n    tag_241:\n      pop\n      0x40\n      dup3\n      add\n      mload\n      dup2\n      0x02\n      add\n      sstore\n      swap1\n      pop\n      pop\n        /* \"Voting/Voting.sol\":4098:4110  candidateIds */\n      0x02\n        /* \"Voting/Voting.sol\":4098:4122  candidateIds[electionId] */\n      0x00\n        /* \"Voting/Voting.sol\":4111:4121  electionId */\n      dup6\n        /* \"Voting/Voting.sol\":4098:4122  candidateIds[electionId] */\n      dup2\n      mstore\n      0x20\n      add\n      swap1\n      dup2\n      mstore\n      0x20\n      add\n      0x00\n      keccak256\n        /* \"Voting/Voting.sol\":4128:4139  candidateId */\n      dup4\n        /* \"Voting/Voting.sol\":4098:4140  candidateIds[electionId].push(candidateId) */\n      swap1\n      dup1\n      0x01\n      dup2\n      sload\n      add\n      dup1\n      dup3\n      sstore\n      dup1\n      swap2\n      pop\n      pop\n      0x01\n      swap1\n      sub\n      swap1\n      0x00\n      mstore\n      keccak256(0x00, 0x20)\n      add\n      0x00\n      swap1\n      swap2\n      swap1\n      swap2\n      swap1\n      swap2\n      pop\n      sstore\n        /* \"Voting/Voting.sol\":4170:4180  electionId */\n      dup4\n        /* \"Voting/Voting.sol\":4155:4200  CandidateAdded(electionId, candidateId, name) */\n      0xed8911b3df733b7d5f75724158e54478ea12e30f49c9d31b5261879f5b76586f\n        /* \"Voting/Voting.sol\":4182:4193  candidateId */\n      dup5\n        /* \"Voting/Voting.sol\":4195:4199  name */\n      dup5\n      dup5\n        /* \"Voting/Voting.sol\":4155:4200  CandidateAdded(electionId, candidateId, name) */\n      mload(0x40)\n      tag_244\n      swap4\n      swap3\n      swap2\n      swap1\n      tag_245\n      jump\t// in\n    tag_244:\n      mload(0x40)\n      dup1\n      swap2\n      sub\n      swap1\n      log2\n        /* \"Voting/Voting.sol\":3235:4207  function addCandidate(... */\n      pop\n      pop\n      pop\n      pop\n      jump\t// out\n        /* \"Voting/Voting.sol\":4941:5952  function vote(uint256 electionId, uint256 candidateId)... */\n    tag_80:\n        /* \"Voting/Voting.sol\":5040:5050  electionId */\n      dup2\n        /* \"Voting/Voting.sol\":2036:2050  Status.Ongoing */\n      0x01\n        /* \"Voting/Voting.sol\":2006:2050  electionStatus[electionId] == Status.Ongoing */\n      0x02\n      dup2\n      gt\n      iszero\n      tag_247\n      jumpi\n      tag_248\n      tag_124\n      jump\t// in\n    tag_248:\n    tag_247:\n        /* \"Voting/Voting.sol\":2006:2020  electionStatus */\n      0x05\n        /* \"Voting/Voting.sol\":2006:2032  electionStatus[electionId] */\n      0x00\n        /* \"Voting/Voting.sol\":2021:2031  electionId */\n      dup4\n        /* \"Voting/Voting.sol\":2006:2032  electionStatus[electionId] */\n      dup2\n      mstore\n      0x20\n      add\n      swap1\n      dup2\n      mstore\n      0x20\n      add\n      0x00\n      keccak256\n      0x00\n      swap1\n      sload\n      swap1\n      0x0100\n      exp\n      swap1\n      div\n      0xff\n      and\n        /* \"Voting/Voting.sol\":2006:2050  electionStatus[electionId] == Status.Ongoing */\n      0x02\n      dup2\n      gt\n      iszero\n      tag_249\n      jumpi\n      tag_250\n      tag_124\n      jump\t// in\n    tag_250:\n    tag_249:\n      eq\n        /* \"Voting/Voting.sol\":2006:2114  electionStatus[electionId] == Status.Ongoing &&... */\n      dup1\n      iszero\n      tag_251\n      jumpi\n      pop\n        /* \"Voting/Voting.sol\":2085:2094  elections */\n      0x03\n        /* \"Voting/Voting.sol\":2085:2106  elections[electionId] */\n      0x00\n        /* \"Voting/Voting.sol\":2095:2105  electionId */\n      dup3\n        /* \"Voting/Voting.sol\":2085:2106  elections[electionId] */\n      dup2\n      mstore\n      0x20\n      add\n      swap1\n      dup2\n      mstore\n      0x20\n      add\n      0x00\n      keccak256\n        /* \"Voting/Voting.sol\":2085:2114  elections[electionId].endTime */\n      0x03\n      add\n      sload\n        /* \"Voting/Voting.sol\":2066:2081  block.timestamp */\n      timestamp\n        /* \"Voting/Voting.sol\":2066:2114  block.timestamp >= elections[electionId].endTime */\n      lt\n      iszero\n        /* \"Voting/Voting.sol\":2006:2114  electionStatus[electionId] == Status.Ongoing &&... */\n    tag_251:\n        /* \"Voting/Voting.sol\":1989:2267  if (... */\n      iszero\n      tag_252\n      jumpi\n        /* \"Voting/Voting.sol\":2168:2180  Status.Ended */\n      0x02\n        /* \"Voting/Voting.sol\":2139:2153  electionStatus */\n      0x05\n        /* \"Voting/Voting.sol\":2139:2165  electionStatus[electionId] */\n      0x00\n        /* \"Voting/Voting.sol\":2154:2164  electionId */\n      dup4\n        /* \"Voting/Voting.sol\":2139:2165  electionStatus[electionId] */\n      dup2\n      mstore\n      0x20\n      add\n      swap1\n      dup2\n      mstore\n      0x20\n      add\n      0x00\n      keccak256\n      0x00\n        /* \"Voting/Voting.sol\":2139:2180  electionStatus[electionId] = Status.Ended */\n      0x0100\n      exp\n      dup2\n      sload\n      dup2\n      0xff\n      mul\n      not\n      and\n      swap1\n      dup4\n      0x02\n      dup2\n      gt\n      iszero\n      tag_253\n      jumpi\n      tag_254\n      tag_124\n      jump\t// in\n    tag_254:\n    tag_253:\n      mul\n      or\n      swap1\n      sstore\n      pop\n        /* \"Voting/Voting.sol\":2213:2223  electionId */\n      dup1\n        /* \"Voting/Voting.sol\":2199:2224  ElectionEnded(electionId) */\n      0x562cd572b2ba3b666cd989fc4ca98419ec81e75f04528df9d9d76fdb7807ee71\n      mload(0x40)\n      mload(0x40)\n      dup1\n      swap2\n      sub\n      swap1\n      log2\n        /* \"Voting/Voting.sol\":1989:2267  if (... */\n    tag_252:\n        /* \"Voting/Voting.sol\":5074:5084  electionId */\n      dup3\n        /* \"Voting/Voting.sol\":1450:1464  Status.Ongoing */\n      0x01\n        /* \"Voting/Voting.sol\":1420:1464  electionStatus[electionId] == Status.Ongoing */\n      0x02\n      dup2\n      gt\n      iszero\n      tag_256\n      jumpi\n      tag_257\n      tag_124\n      jump\t// in\n    tag_257:\n    tag_256:\n        /* \"Voting/Voting.sol\":1420:1434  electionStatus */\n      0x05\n        /* \"Voting/Voting.sol\":1420:1446  electionStatus[electionId] */\n      0x00\n        /* \"Voting/Voting.sol\":1435:1445  electionId */\n      dup4\n        /* \"Voting/Voting.sol\":1420:1446  electionStatus[electionId] */\n      dup2\n      mstore\n      0x20\n      add\n      swap1\n      dup2\n      mstore\n      0x20\n      add\n      0x00\n      keccak256\n      0x00\n      swap1\n      sload\n      swap1\n      0x0100\n      exp\n      swap1\n      div\n      0xff\n      and\n        /* \"Voting/Voting.sol\":1420:1464  electionStatus[electionId] == Status.Ongoing */\n      0x02\n      dup2\n      gt\n      iszero\n      tag_258\n      jumpi\n      tag_259\n      tag_124\n      jump\t// in\n    tag_259:\n    tag_258:\n      eq\n        /* \"Voting/Voting.sol\":1399:1513  require(... */\n      tag_260\n      jumpi\n      mload(0x40)\n      0x08c379a000000000000000000000000000000000000000000000000000000000\n      dup2\n      mstore\n      0x04\n      add\n      tag_261\n      swap1\n      tag_262\n      jump\t// in\n    tag_261:\n      mload(0x40)\n      dup1\n      swap2\n      sub\n      swap1\n      revert\n    tag_260:\n        /* \"Voting/Voting.sol\":5100:5118  Election memory el */\n      0x00\n        /* \"Voting/Voting.sol\":5121:5130  elections */\n      0x03\n        /* \"Voting/Voting.sol\":5121:5142  elections[electionId] */\n      0x00\n        /* \"Voting/Voting.sol\":5131:5141  electionId */\n      dup7\n        /* \"Voting/Voting.sol\":5121:5142  elections[electionId] */\n      dup2\n      mstore\n      0x20\n      add\n      swap1\n      dup2\n      mstore\n      0x20\n      add\n      0x00\n      keccak256\n        /* \"Voting/Voting.sol\":5100:5142  Election memory el = elections[electionId] */\n      mload(0x40)\n      dup1\n      0xa0\n      add\n      0x40\n      mstore\n      swap1\n      dup2\n      0x00\n      dup3\n      add\n      dup1\n      sload\n      tag_264\n      swap1\n      tag_113\n      jump\t// in\n    tag_264:\n      dup1\n      0x1f\n      add\n      0x20\n      dup1\n      swap2\n      div\n      mul\n      0x20\n      add\n      mload(0x40)\n      swap1\n      dup2\n      add\n      0x40\n      mstore\n      dup1\n      swap3\n      swap2\n      swap1\n      dup2\n      dup2\n      mstore\n      0x20\n      add\n      dup3\n      dup1\n      sload\n      tag_265\n      swap1\n      tag_113\n      jump\t// in\n    tag_265:\n      dup1\n      iszero\n      tag_266\n      jumpi\n      dup1\n      0x1f\n      lt\n      tag_267\n      jumpi\n      0x0100\n      dup1\n      dup4\n      sload\n      div\n      mul\n      dup4\n      mstore\n      swap2\n      0x20\n      add\n      swap2\n      jump(tag_266)\n    tag_267:\n      dup3\n      add\n      swap2\n      swap1\n      0x00\n      mstore\n      keccak256(0x00, 0x20)\n      swap1\n    tag_268:\n      dup2\n      sload\n      dup2\n      mstore\n      swap1\n      0x01\n      add\n      swap1\n      0x20\n      add\n      dup1\n      dup4\n      gt\n      tag_268\n      jumpi\n      dup3\n      swap1\n      sub\n      0x1f\n      and\n      dup3\n      add\n      swap2\n    tag_266:\n      pop\n      pop\n      pop\n      pop\n      pop\n      dup2\n      mstore\n      0x20\n      add\n      0x01\n      dup3\n      add\n      sload\n      dup2\n      mstore\n      0x20\n      add\n      0x02\n      dup3\n      add\n      sload\n      dup2\n      mstore\n      0x20\n      add\n      0x03\n      dup3\n      add\n      sload\n      dup2\n      mstore\n      0x20\n      add\n      0x04\n      dup3\n      add\n      0x00\n      swap1\n      sload\n      swap1\n      0x0100\n      exp\n      swap1\n      div\n      0xff\n      and\n      iszero\n      iszero\n      iszero\n      iszero\n      dup2\n      mstore\n      pop\n      pop\n      swap1\n      pop\n        /* \"Voting/Voting.sol\":5296:5298  el */\n      dup1\n        /* \"Voting/Voting.sol\":5296:5308  el.startTime */\n      0x40\n      add\n      mload\n        /* \"Voting/Voting.sol\":5277:5292  block.timestamp */\n      timestamp\n        /* \"Voting/Voting.sol\":5277:5308  block.timestamp >= el.startTime */\n      lt\n      iszero\n        /* \"Voting/Voting.sol\":5256:5379  require(... */\n      tag_269\n      jumpi\n      mload(0x40)\n      0x08c379a000000000000000000000000000000000000000000000000000000000\n      dup2\n      mstore\n      0x04\n      add\n      tag_270\n      swap1\n      tag_271\n      jump\t// in\n    tag_270:\n      mload(0x40)\n      dup1\n      swap2\n      sub\n      swap1\n      revert\n    tag_269:\n        /* \"Voting/Voting.sol\":5428:5430  el */\n      dup1\n        /* \"Voting/Voting.sol\":5428:5438  el.endTime */\n      0x60\n      add\n      mload\n        /* \"Voting/Voting.sol\":5410:5425  block.timestamp */\n      timestamp\n        /* \"Voting/Voting.sol\":5410:5438  block.timestamp < el.endTime */\n      lt\n        /* \"Voting/Voting.sol\":5389:5499  require(... */\n      tag_272\n      jumpi\n      mload(0x40)\n      0x08c379a000000000000000000000000000000000000000000000000000000000\n      dup2\n      mstore\n      0x04\n      add\n      tag_273\n      swap1\n      tag_274\n      jump\t// in\n    tag_273:\n      mload(0x40)\n      dup1\n      swap2\n      sub\n      swap1\n      revert\n    tag_272:\n        /* \"Voting/Voting.sol\":5519:5527  hasVoted */\n      0x04\n        /* \"Voting/Voting.sol\":5519:5539  hasVoted[electionId] */\n      0x00\n        /* \"Voting/Voting.sol\":5528:5538  electionId */\n      dup7\n        /* \"Voting/Voting.sol\":5519:5539  hasVoted[electionId] */\n      dup2\n      mstore\n      0x20\n      add\n      swap1\n      dup2\n      mstore\n      0x20\n      add\n      0x00\n      keccak256\n        /* \"Voting/Voting.sol\":5519:5551  hasVoted[electionId][msg.sender] */\n      0x00\n        /* \"Voting/Voting.sol\":5540:5550  msg.sender */\n      caller\n        /* \"Voting/Voting.sol\":5519:5551  hasVoted[electionId][msg.sender] */\n      0xffffffffffffffffffffffffffffffffffffffff\n      and\n      0xffffffffffffffffffffffffffffffffffffffff\n      and\n      dup2\n      mstore\n      0x20\n      add\n      swap1\n      dup2\n      mstore\n      0x20\n      add\n      0x00\n      keccak256\n      0x00\n      swap1\n      sload\n      swap1\n      0x0100\n      exp\n      swap1\n      div\n      0xff\n      and\n        /* \"Voting/Voting.sol\":5518:5551  !hasVoted[electionId][msg.sender] */\n      iszero\n        /* \"Voting/Voting.sol\":5510:5573  require(!hasVoted[electionId][msg.sender], \"You already voted\") */\n      tag_275\n      jumpi\n      mload(0x40)\n      0x08c379a000000000000000000000000000000000000000000000000000000000\n      dup2\n      mstore\n      0x04\n      add\n      tag_276\n      swap1\n      tag_277\n      jump\t// in\n    tag_276:\n      mload(0x40)\n      dup1\n      swap2\n      sub\n      swap1\n      revert\n    tag_275:\n        /* \"Voting/Voting.sol\":5726:5727  0 */\n      0x00\n        /* \"Voting/Voting.sol\":5675:5685  candidates */\n      0x01\n        /* \"Voting/Voting.sol\":5675:5697  candidates[electionId] */\n      0x00\n        /* \"Voting/Voting.sol\":5686:5696  electionId */\n      dup8\n        /* \"Voting/Voting.sol\":5675:5697  candidates[electionId] */\n      dup2\n      mstore\n      0x20\n      add\n      swap1\n      dup2\n      mstore\n      0x20\n      add\n      0x00\n      keccak256\n        /* \"Voting/Voting.sol\":5675:5710  candidates[electionId][candidateId] */\n      0x00\n        /* \"Voting/Voting.sol\":5698:5709  candidateId */\n      dup7\n        /* \"Voting/Voting.sol\":5675:5710  candidates[electionId][candidateId] */\n      dup2\n      mstore\n      0x20\n      add\n      swap1\n      dup2\n      mstore\n      0x20\n      add\n      0x00\n      keccak256\n        /* \"Voting/Voting.sol\":5675:5722  candidates[electionId][candidateId].candidateId */\n      0x00\n      add\n      sload\n        /* \"Voting/Voting.sol\":5675:5727  candidates[electionId][candidateId].candidateId != 0 */\n      sub\n        /* \"Voting/Voting.sol\":5654:5777  require(... */\n      tag_278\n      jumpi\n      mload(0x40)\n      0x08c379a000000000000000000000000000000000000000000000000000000000\n      dup2\n      mstore\n      0x04\n      add\n      tag_279\n      swap1\n      tag_280\n      jump\t// in\n    tag_279:\n      mload(0x40)\n      dup1\n      swap2\n      sub\n      swap1\n      revert\n    tag_278:\n        /* \"Voting/Voting.sol\":5837:5838  1 */\n      0x01\n        /* \"Voting/Voting.sol\":5788:5798  candidates */\n      dup1\n        /* \"Voting/Voting.sol\":5788:5810  candidates[electionId] */\n      0x00\n        /* \"Voting/Voting.sol\":5799:5809  electionId */\n      dup8\n        /* \"Voting/Voting.sol\":5788:5810  candidates[electionId] */\n      dup2\n      mstore\n      0x20\n      add\n      swap1\n      dup2\n      mstore\n      0x20\n      add\n      0x00\n      keccak256\n        /* \"Voting/Voting.sol\":5788:5823  candidates[electionId][candidateId] */\n      0x00\n        /* \"Voting/Voting.sol\":5811:5822  candidateId */\n      dup7\n        /* \"Voting/Voting.sol\":5788:5823  candidates[electionId][candidateId] */\n      dup2\n      mstore\n      0x20\n      add\n      swap1\n      dup2\n      mstore\n      0x20\n      add\n      0x00\n      keccak256\n        /* \"Voting/Voting.sol\":5788:5833  candidates[electionId][candidateId].voteCount */\n      0x02\n      add\n      0x00\n        /* \"Voting/Voting.sol\":5788:5838  candidates[electionId][candidateId].voteCount += 1 */\n      dup3\n      dup3\n      sload\n      tag_281\n      swap2\n      swap1\n      tag_282\n      jump\t// in\n    tag_281:\n      swap3\n      pop\n      pop\n      dup2\n      swap1\n      sstore\n      pop\n        /* \"Voting/Voting.sol\":5883:5887  true */\n      0x01\n        /* \"Voting/Voting.sol\":5848:5856  hasVoted */\n      0x04\n        /* \"Voting/Voting.sol\":5848:5868  hasVoted[electionId] */\n      0x00\n        /* \"Voting/Voting.sol\":5857:5867  electionId */\n      dup8\n        /* \"Voting/Voting.sol\":5848:5868  hasVoted[electionId] */\n      dup2\n      mstore\n      0x20\n      add\n      swap1\n      dup2\n      mstore\n      0x20\n      add\n      0x00\n      keccak256\n        /* \"Voting/Voting.sol\":5848:5880  hasVoted[electionId][msg.sender] */\n      0x00\n        /* \"Voting/Voting.sol\":5869:5879  msg.sender */\n      caller\n        /* \"Voting/Voting.sol\":5848:5880  hasVoted[electionId][msg.sender] */\n      0xffffffffffffffffffffffffffffffffffffffff\n      and\n      0xffffffffffffffffffffffffffffffffffffffff\n      and\n      dup2\n      mstore\n      0x20\n      add\n      swap1\n      dup2\n      mstore\n      0x20\n      add\n      0x00\n      keccak256\n      0x00\n        /* \"Voting/Voting.sol\":5848:5887  hasVoted[electionId][msg.sender] = true */\n      0x0100\n      exp\n      dup2\n      sload\n      dup2\n      0xff\n      mul\n      not\n      and\n      swap1\n      dup4\n      iszero\n      iszero\n      mul\n      or\n      swap1\n      sstore\n      pop\n        /* \"Voting/Voting.sol\":5909:5919  electionId */\n      dup5\n        /* \"Voting/Voting.sol\":5903:5945  Voted(electionId, candidateId, msg.sender) */\n      0xd91ecafccf238642dccd41161308b3eebe62a12bc5819daf5164780c221ec95b\n        /* \"Voting/Voting.sol\":5921:5932  candidateId */\n      dup6\n        /* \"Voting/Voting.sol\":5934:5944  msg.sender */\n      caller\n        /* \"Voting/Voting.sol\":5903:5945  Voted(electionId, candidateId, msg.sender) */\n      mload(0x40)\n      tag_283\n      swap3\n      swap2\n      swap1\n      tag_284\n      jump\t// in\n    tag_283:\n      mload(0x40)\n      dup1\n      swap2\n      sub\n      swap1\n      log2\n        /* \"Voting/Voting.sol\":5090:5952  {... */\n      pop\n        /* \"Voting/Voting.sol\":2276:2277  _ */\n      pop\n        /* \"Voting/Voting.sol\":4941:5952  function vote(uint256 electionId, uint256 candidateId)... */\n      pop\n      pop\n      pop\n      jump\t// out\n        /* \"Voting/Voting.sol\":6719:7410  function getElectionById(uint256 electionId)... */\n    tag_83:\n        /* \"Voting/Voting.sol\":6809:6824  Election memory */\n      tag_285\n      tag_211\n      jump\t// in\n    tag_285:\n        /* \"Voting/Voting.sol\":6826:6832  Status */\n      0x00\n        /* \"Voting/Voting.sol\":6887:6896  elections */\n      0x03\n        /* \"Voting/Voting.sol\":6887:6908  elections[electionId] */\n      0x00\n        /* \"Voting/Voting.sol\":6897:6907  electionId */\n      dup5\n        /* \"Voting/Voting.sol\":6887:6908  elections[electionId] */\n      dup2\n      mstore\n      0x20\n      add\n      swap1\n      dup2\n      mstore\n      0x20\n      add\n      0x00\n      keccak256\n        /* \"Voting/Voting.sol\":6887:6915  elections[electionId].exists */\n      0x04\n      add\n      0x00\n      swap1\n      sload\n      swap1\n      0x0100\n      exp\n      swap1\n      div\n      0xff\n      and\n        /* \"Voting/Voting.sol\":6879:6943  require(elections[electionId].exists, \"Election does not exist\") */\n      tag_287\n      jumpi\n      mload(0x40)\n      0x08c379a000000000000000000000000000000000000000000000000000000000\n      dup2\n      mstore\n      0x04\n      add\n      tag_288\n      swap1\n      tag_187\n      jump\t// in\n    tag_288:\n      mload(0x40)\n      dup1\n      swap2\n      sub\n      swap1\n      revert\n    tag_287:\n        /* \"Voting/Voting.sol\":7353:7362  elections */\n      0x03\n        /* \"Voting/Voting.sol\":7353:7374  elections[electionId] */\n      0x00\n        /* \"Voting/Voting.sol\":7363:7373  electionId */\n      dup5\n        /* \"Voting/Voting.sol\":7353:7374  elections[electionId] */\n      dup2\n      mstore\n      0x20\n      add\n      swap1\n      dup2\n      mstore\n      0x20\n      add\n      0x00\n      keccak256\n        /* \"Voting/Voting.sol\":7376:7390  electionStatus */\n      0x05\n        /* \"Voting/Voting.sol\":7376:7402  electionStatus[electionId] */\n      0x00\n        /* \"Voting/Voting.sol\":7391:7401  electionId */\n      dup6\n        /* \"Voting/Voting.sol\":7376:7402  electionStatus[electionId] */\n      dup2\n      mstore\n      0x20\n      add\n      swap1\n      dup2\n      mstore\n      0x20\n      add\n      0x00\n      keccak256\n      0x00\n      swap1\n      sload\n      swap1\n      0x0100\n      exp\n      swap1\n      div\n      0xff\n      and\n        /* \"Voting/Voting.sol\":7345:7403  return (elections[electionId], electionStatus[electionId]) */\n      dup2\n      mload(0x40)\n      dup1\n      0xa0\n      add\n      0x40\n      mstore\n      swap1\n      dup2\n      0x00\n      dup3\n      add\n      dup1\n      sload\n      tag_289\n      swap1\n      tag_113\n      jump\t// in\n    tag_289:\n      dup1\n      0x1f\n      add\n      0x20\n      dup1\n      swap2\n      div\n      mul\n      0x20\n      add\n      mload(0x40)\n      swap1\n      dup2\n      add\n      0x40\n      mstore\n      dup1\n      swap3\n      swap2\n      swap1\n      dup2\n      dup2\n      mstore\n      0x20\n      add\n      dup3\n      dup1\n      sload\n      tag_290\n      swap1\n      tag_113\n      jump\t// in\n    tag_290:\n      dup1\n      iszero\n      tag_291\n      jumpi\n      dup1\n      0x1f\n      lt\n      tag_292\n      jumpi\n      0x0100\n      dup1\n      dup4\n      sload\n      div\n      mul\n      dup4\n      mstore\n      swap2\n      0x20\n      add\n      swap2\n      jump(tag_291)\n    tag_292:\n      dup3\n      add\n      swap2\n      swap1\n      0x00\n      mstore\n      keccak256(0x00, 0x20)\n      swap1\n    tag_293:\n      dup2\n      sload\n      dup2\n      mstore\n      swap1\n      0x01\n      add\n      swap1\n      0x20\n      add\n      dup1\n      dup4\n      gt\n      tag_293\n      jumpi\n      dup3\n      swap1\n      sub\n      0x1f\n      and\n      dup3\n      add\n      swap2\n    tag_291:\n      pop\n      pop\n      pop\n      pop\n      pop\n      dup2\n      mstore\n      0x20\n      add\n      0x01\n      dup3\n      add\n      sload\n      dup2\n      mstore\n      0x20\n      add\n      0x02\n      dup3\n      add\n      sload\n      dup2\n      mstore\n      0x20\n      add\n      0x03\n      dup3\n      add\n      sload\n      dup2\n      mstore\n      0x20\n      add\n      0x04\n      dup3\n      add\n      0x00\n      swap1\n      sload\n      swap1\n      0x0100\n      exp\n      swap1\n      div\n      0xff\n      and\n      iszero\n      iszero\n      iszero\n      iszero\n      dup2\n      mstore\n      pop\n      pop\n      swap2\n      pop\n      swap2\n      pop\n      swap2\n      pop\n        /* \"Voting/Voting.sol\":6719:7410  function getElectionById(uint256 electionId)... */\n      swap2\n      pop\n      swap2\n      jump\t// out\n        /* \"Voting/Voting.sol\":2345:3229  function createElection(... */\n    tag_89:\n        /* \"Voting/Voting.sol\":1291:1296  owner */\n      0x00\n      0x00\n      swap1\n      sload\n      swap1\n      0x0100\n      exp\n      swap1\n      div\n      0xffffffffffffffffffffffffffffffffffffffff\n      and\n        /* \"Voting/Voting.sol\":1277:1296  msg.sender == owner */\n      0xffffffffffffffffffffffffffffffffffffffff\n      and\n        /* \"Voting/Voting.sol\":1277:1287  msg.sender */\n      caller\n        /* \"Voting/Voting.sol\":1277:1296  msg.sender == owner */\n      0xffffffffffffffffffffffffffffffffffffffff\n      and\n      eq\n        /* \"Voting/Voting.sol\":1269:1322  require(msg.sender == owner, \"You are not the owner\") */\n      tag_295\n      jumpi\n      mload(0x40)\n      0x08c379a000000000000000000000000000000000000000000000000000000000\n      dup2\n      mstore\n      0x04\n      add\n      tag_296\n      swap1\n      tag_158\n      jump\t// in\n    tag_296:\n      mload(0x40)\n      dup1\n      swap2\n      sub\n      swap1\n      revert\n    tag_295:\n        /* \"Voting/Voting.sol\":2597:2606  elections */\n      0x03\n        /* \"Voting/Voting.sol\":2597:2611  elections[_id] */\n      0x00\n        /* \"Voting/Voting.sol\":2607:2610  _id */\n      dup5\n        /* \"Voting/Voting.sol\":2597:2611  elections[_id] */\n      dup2\n      mstore\n      0x20\n      add\n      swap1\n      dup2\n      mstore\n      0x20\n      add\n      0x00\n      keccak256\n        /* \"Voting/Voting.sol\":2597:2618  elections[_id].exists */\n      0x04\n      add\n      0x00\n      swap1\n      sload\n      swap1\n      0x0100\n      exp\n      swap1\n      div\n      0xff\n      and\n        /* \"Voting/Voting.sol\":2596:2618  !elections[_id].exists */\n      iszero\n        /* \"Voting/Voting.sol\":2588:2646  require(!elections[_id].exists, \"Election already exists\") */\n      tag_298\n      jumpi\n      mload(0x40)\n      0x08c379a000000000000000000000000000000000000000000000000000000000\n      dup2\n      mstore\n      0x04\n      add\n      tag_299\n      swap1\n      tag_300\n      jump\t// in\n    tag_299:\n      mload(0x40)\n      dup1\n      swap2\n      sub\n      swap1\n      revert\n    tag_298:\n        /* \"Voting/Voting.sol\":2675:2685  _startTime */\n      dup2\n        /* \"Voting/Voting.sol\":2664:2672  _endTime */\n      dup2\n        /* \"Voting/Voting.sol\":2664:2685  _endTime > _startTime */\n      gt\n        /* \"Voting/Voting.sol\":2656:2723  require(_endTime > _startTime, \"End time must be after start time\") */\n      tag_301\n      jumpi\n      mload(0x40)\n      0x08c379a000000000000000000000000000000000000000000000000000000000\n      dup2\n      mstore\n      0x04\n      add\n      tag_302\n      swap1\n      tag_303\n      jump\t// in\n    tag_302:\n      mload(0x40)\n      dup1\n      swap2\n      sub\n      swap1\n      revert\n    tag_301:\n        /* \"Voting/Voting.sol\":2839:2854  block.timestamp */\n      timestamp\n        /* \"Voting/Voting.sol\":2826:2836  _startTime */\n      dup3\n        /* \"Voting/Voting.sol\":2826:2854  _startTime > block.timestamp */\n      gt\n        /* \"Voting/Voting.sol\":2805:2912  require(... */\n      tag_304\n      jumpi\n      mload(0x40)\n      0x08c379a000000000000000000000000000000000000000000000000000000000\n      dup2\n      mstore\n      0x04\n      add\n      tag_305\n      swap1\n      tag_306\n      jump\t// in\n    tag_305:\n      mload(0x40)\n      dup1\n      swap2\n      sub\n      swap1\n      revert\n    tag_304:\n        /* \"Voting/Voting.sol\":2940:3098  Election({... */\n      mload(0x40)\n      dup1\n      0xa0\n      add\n      0x40\n      mstore\n      dup1\n        /* \"Voting/Voting.sol\":2969:2974  _name */\n      dup7\n      dup7\n        /* \"Voting/Voting.sol\":2940:3098  Election({... */\n      dup1\n      dup1\n      0x1f\n      add\n      0x20\n      dup1\n      swap2\n      div\n      mul\n      0x20\n      add\n      mload(0x40)\n      swap1\n      dup2\n      add\n      0x40\n      mstore\n      dup1\n      swap4\n      swap3\n      swap2\n      swap1\n      dup2\n      dup2\n      mstore\n      0x20\n      add\n      dup4\n      dup4\n      dup1\n      dup3\n      dup5\n      calldatacopy\n      0x00\n      dup2\n      dup5\n      add\n      mstore\n      not(0x1f)\n      0x1f\n      dup3\n      add\n      and\n      swap1\n      pop\n      dup1\n      dup4\n      add\n      swap3\n      pop\n      pop\n      pop\n      pop\n      pop\n      pop\n      pop\n      dup2\n      mstore\n      0x20\n      add\n        /* \"Voting/Voting.sol\":2992:2995  _id */\n      dup5\n        /* \"Voting/Voting.sol\":2940:3098  Election({... */\n      dup2\n      mstore\n      0x20\n      add\n        /* \"Voting/Voting.sol\":3020:3030  _startTime */\n      dup4\n        /* \"Voting/Voting.sol\":2940:3098  Election({... */\n      dup2\n      mstore\n      0x20\n      add\n        /* \"Voting/Voting.sol\":3053:3061  _endTime */\n      dup3\n        /* \"Voting/Voting.sol\":2940:3098  Election({... */\n      dup2\n      mstore\n      0x20\n      add\n        /* \"Voting/Voting.sol\":3083:3087  true */\n      0x01\n        /* \"Voting/Voting.sol\":2940:3098  Election({... */\n      iszero\n      iszero\n      dup2\n      mstore\n      pop\n        /* \"Voting/Voting.sol\":2923:2932  elections */\n      0x03\n        /* \"Voting/Voting.sol\":2923:2937  elections[_id] */\n      0x00\n        /* \"Voting/Voting.sol\":2933:2936  _id */\n      dup6\n        /* \"Voting/Voting.sol\":2923:2937  elections[_id] */\n      dup2\n      mstore\n      0x20\n      add\n      swap1\n      dup2\n      mstore\n      0x20\n      add\n      0x00\n      keccak256\n        /* \"Voting/Voting.sol\":2923:3098  elections[_id] = Election({... */\n      0x00\n      dup3\n      add\n      mload\n      dup2\n      0x00\n      add\n      swap1\n      dup2\n      tag_307\n      swap2\n      swap1\n      tag_242\n      jump\t// in\n    tag_307:\n      pop\n      0x20\n      dup3\n      add\n      mload\n      dup2\n      0x01\n      add\n      sstore\n      0x40\n      dup3\n      add\n      mload\n      dup2\n      0x02\n      add\n      sstore\n      0x60\n      dup3\n      add\n      mload\n      dup2\n      0x03\n      add\n      sstore\n      0x80\n      dup3\n      add\n      mload\n      dup2\n      0x04\n      add\n      exp(0x0100, 0x00)\n      dup2\n      sload\n      dup2\n      0xff\n      mul\n      not\n      and\n      swap1\n      dup4\n      iszero\n      iszero\n      mul\n      or\n      swap1\n      sstore\n      pop\n      swap1\n      pop\n      pop\n        /* \"Voting/Voting.sol\":3109:3120  electionIds */\n      0x06\n        /* \"Voting/Voting.sol\":3126:3129  _id */\n      dup4\n        /* \"Voting/Voting.sol\":3109:3130  electionIds.push(_id) */\n      swap1\n      dup1\n      0x01\n      dup2\n      sload\n      add\n      dup1\n      dup3\n      sstore\n      dup1\n      swap2\n      pop\n      pop\n      0x01\n      swap1\n      sub\n      swap1\n      0x00\n      mstore\n      keccak256(0x00, 0x20)\n      add\n      0x00\n      swap1\n      swap2\n      swap1\n      swap2\n      swap1\n      swap2\n      pop\n      sstore\n        /* \"Voting/Voting.sol\":3162:3179  Status.NotStarted */\n      0x00\n        /* \"Voting/Voting.sol\":3140:3154  electionStatus */\n      0x05\n        /* \"Voting/Voting.sol\":3140:3159  electionStatus[_id] */\n      0x00\n        /* \"Voting/Voting.sol\":3155:3158  _id */\n      dup6\n        /* \"Voting/Voting.sol\":3140:3159  electionStatus[_id] */\n      dup2\n      mstore\n      0x20\n      add\n      swap1\n      dup2\n      mstore\n      0x20\n      add\n      0x00\n      keccak256\n      0x00\n        /* \"Voting/Voting.sol\":3140:3179  electionStatus[_id] = Status.NotStarted */\n      0x0100\n      exp\n      dup2\n      sload\n      dup2\n      0xff\n      mul\n      not\n      and\n      swap1\n      dup4\n      0x02\n      dup2\n      gt\n      iszero\n      tag_309\n      jumpi\n      tag_310\n      tag_124\n      jump\t// in\n    tag_310:\n    tag_309:\n      mul\n      or\n      swap1\n      sstore\n      pop\n        /* \"Voting/Voting.sol\":3211:3214  _id */\n      dup3\n        /* \"Voting/Voting.sol\":3195:3222  ElectionCreated(_id, _name) */\n      0x52be7c4e77b4de76b7607d621492061fe13b58597e72dfb5e51ab8f6187ed141\n        /* \"Voting/Voting.sol\":3216:3221  _name */\n      dup7\n      dup7\n        /* \"Voting/Voting.sol\":3195:3222  ElectionCreated(_id, _name) */\n      mload(0x40)\n      tag_311\n      swap3\n      swap2\n      swap1\n      tag_312\n      jump\t// in\n    tag_311:\n      mload(0x40)\n      dup1\n      swap2\n      sub\n      swap1\n      log2\n        /* \"Voting/Voting.sol\":2345:3229  function createElection(... */\n      pop\n      pop\n      pop\n      pop\n      pop\n      jump\t// out\n        /* \"Voting/Voting.sol\":567:616  mapping(uint256 => uint256[]) public candidateIds */\n    tag_92:\n      mstore(0x20, 0x02)\n      dup2\n      0x00\n      mstore\n      keccak256(0x00, 0x40)\n      dup2\n      dup2\n      sload\n      dup2\n      lt\n      tag_313\n      jumpi\n      0x00\n      dup1\n      revert\n    tag_313:\n      swap1\n      0x00\n      mstore\n      keccak256(0x00, 0x20)\n      add\n      0x00\n      swap2\n      pop\n      swap2\n      pop\n      pop\n      sload\n      dup2\n      jump\t// out\n    tag_105:\n      mload(0x40)\n      dup1\n      0x60\n      add\n      0x40\n      mstore\n      dup1\n      0x00\n      dup2\n      mstore\n      0x20\n      add\n      0x60\n      dup2\n      mstore\n      0x20\n      add\n      0x00\n      dup2\n      mstore\n      pop\n      swap1\n      jump\t// out\n    tag_211:\n      mload(0x40)\n      dup1\n      0xa0\n      add\n      0x40\n      mstore\n      dup1\n      0x60\n      dup2\n      mstore\n      0x20\n      add\n      0x00\n      dup2\n      mstore\n      0x20\n      add\n      0x00\n      dup2\n      mstore\n      0x20\n      add\n      0x00\n      dup2\n      mstore\n      0x20\n      add\n      iszero(iszero(0x00))\n      dup2\n      mstore\n      pop\n      swap1\n      jump\t// out\n        /* \"#utility.yul\":88:205   */\n    tag_316:\n        /* \"#utility.yul\":197:198   */\n      0x00\n        /* \"#utility.yul\":194:195   */\n      0x00\n        /* \"#utility.yul\":187:199   */\n      revert\n        /* \"#utility.yul\":211:328   */\n    tag_317:\n        /* \"#utility.yul\":320:321   */\n      0x00\n        /* \"#utility.yul\":317:318   */\n      0x00\n        /* \"#utility.yul\":310:322   */\n      revert\n        /* \"#utility.yul\":334:411   */\n    tag_318:\n        /* \"#utility.yul\":371:378   */\n      0x00\n        /* \"#utility.yul\":400:405   */\n      dup2\n        /* \"#utility.yul\":389:405   */\n      swap1\n      pop\n        /* \"#utility.yul\":334:411   */\n      swap2\n      swap1\n      pop\n      jump\t// out\n        /* \"#utility.yul\":417:539   */\n    tag_319:\n        /* \"#utility.yul\":490:514   */\n      tag_423\n        /* \"#utility.yul\":508:513   */\n      dup2\n        /* \"#utility.yul\":490:514   */\n      tag_318\n      jump\t// in\n    tag_423:\n        /* \"#utility.yul\":483:488   */\n      dup2\n        /* \"#utility.yul\":480:515   */\n      eq\n        /* \"#utility.yul\":470:533   */\n      tag_424\n      jumpi\n        /* \"#utility.yul\":529:530   */\n      0x00\n        /* \"#utility.yul\":526:527   */\n      0x00\n        /* \"#utility.yul\":519:531   */\n      revert\n        /* \"#utility.yul\":470:533   */\n    tag_424:\n        /* \"#utility.yul\":417:539   */\n      pop\n      jump\t// out\n        /* \"#utility.yul\":545:684   */\n    tag_320:\n        /* \"#utility.yul\":591:596   */\n      0x00\n        /* \"#utility.yul\":629:635   */\n      dup2\n        /* \"#utility.yul\":616:636   */\n      calldataload\n        /* \"#utility.yul\":607:636   */\n      swap1\n      pop\n        /* \"#utility.yul\":645:678   */\n      tag_426\n        /* \"#utility.yul\":672:677   */\n      dup2\n        /* \"#utility.yul\":645:678   */\n      tag_319\n      jump\t// in\n    tag_426:\n        /* \"#utility.yul\":545:684   */\n      swap3\n      swap2\n      pop\n      pop\n      jump\t// out\n        /* \"#utility.yul\":690:1019   */\n    tag_24:\n        /* \"#utility.yul\":749:755   */\n      0x00\n        /* \"#utility.yul\":798:800   */\n      0x20\n        /* \"#utility.yul\":786:795   */\n      dup3\n        /* \"#utility.yul\":777:784   */\n      dup5\n        /* \"#utility.yul\":773:796   */\n      sub\n        /* \"#utility.yul\":769:801   */\n      slt\n        /* \"#utility.yul\":766:885   */\n      iszero\n      tag_428\n      jumpi\n        /* \"#utility.yul\":804:883   */\n      tag_429\n      tag_316\n      jump\t// in\n    tag_429:\n        /* \"#utility.yul\":766:885   */\n    tag_428:\n        /* \"#utility.yul\":924:925   */\n      0x00\n        /* \"#utility.yul\":949:1002   */\n      tag_430\n        /* \"#utility.yul\":994:1001   */\n      dup5\n        /* \"#utility.yul\":985:991   */\n      dup3\n        /* \"#utility.yul\":974:983   */\n      dup6\n        /* \"#utility.yul\":970:992   */\n      add\n        /* \"#utility.yul\":949:1002   */\n      tag_320\n      jump\t// in\n    tag_430:\n        /* \"#utility.yul\":939:1002   */\n      swap2\n      pop\n        /* \"#utility.yul\":895:1012   */\n      pop\n        /* \"#utility.yul\":690:1019   */\n      swap3\n      swap2\n      pop\n      pop\n      jump\t// out\n        /* \"#utility.yul\":1025:1143   */\n    tag_321:\n        /* \"#utility.yul\":1112:1136   */\n      tag_432\n        /* \"#utility.yul\":1130:1135   */\n      dup2\n        /* \"#utility.yul\":1112:1136   */\n      tag_318\n      jump\t// in\n    tag_432:\n        /* \"#utility.yul\":1107:1110   */\n      dup3\n        /* \"#utility.yul\":1100:1137   */\n      mstore\n        /* \"#utility.yul\":1025:1143   */\n      pop\n      pop\n      jump\t// out\n        /* \"#utility.yul\":1149:1371   */\n    tag_27:\n        /* \"#utility.yul\":1242:1246   */\n      0x00\n        /* \"#utility.yul\":1280:1282   */\n      0x20\n        /* \"#utility.yul\":1269:1278   */\n      dup3\n        /* \"#utility.yul\":1265:1283   */\n      add\n        /* \"#utility.yul\":1257:1283   */\n      swap1\n      pop\n        /* \"#utility.yul\":1293:1364   */\n      tag_434\n        /* \"#utility.yul\":1361:1362   */\n      0x00\n        /* \"#utility.yul\":1350:1359   */\n      dup4\n        /* \"#utility.yul\":1346:1363   */\n      add\n        /* \"#utility.yul\":1337:1343   */\n      dup5\n        /* \"#utility.yul\":1293:1364   */\n      tag_321\n      jump\t// in\n    tag_434:\n        /* \"#utility.yul\":1149:1371   */\n      swap3\n      swap2\n      pop\n      pop\n      jump\t// out\n        /* \"#utility.yul\":1377:1518   */\n    tag_322:\n        /* \"#utility.yul\":1471:1477   */\n      0x00\n        /* \"#utility.yul\":1505:1510   */\n      dup2\n        /* \"#utility.yul\":1499:1511   */\n      mload\n        /* \"#utility.yul\":1489:1511   */\n      swap1\n      pop\n        /* \"#utility.yul\":1377:1518   */\n      swap2\n      swap1\n      pop\n      jump\t// out\n        /* \"#utility.yul\":1524:1735   */\n    tag_323:\n        /* \"#utility.yul\":1650:1661   */\n      0x00\n        /* \"#utility.yul\":1684:1690   */\n      dup3\n        /* \"#utility.yul\":1679:1682   */\n      dup3\n        /* \"#utility.yul\":1672:1691   */\n      mstore\n        /* \"#utility.yul\":1724:1728   */\n      0x20\n        /* \"#utility.yul\":1719:1722   */\n      dup3\n        /* \"#utility.yul\":1715:1729   */\n      add\n        /* \"#utility.yul\":1700:1729   */\n      swap1\n      pop\n        /* \"#utility.yul\":1524:1735   */\n      swap3\n      swap2\n      pop\n      pop\n      jump\t// out\n        /* \"#utility.yul\":1741:1900   */\n    tag_324:\n        /* \"#utility.yul\":1835:1839   */\n      0x00\n        /* \"#utility.yul\":1858:1861   */\n      dup2\n        /* \"#utility.yul\":1850:1861   */\n      swap1\n      pop\n        /* \"#utility.yul\":1888:1892   */\n      0x20\n        /* \"#utility.yul\":1883:1886   */\n      dup3\n        /* \"#utility.yul\":1879:1893   */\n      add\n        /* \"#utility.yul\":1871:1893   */\n      swap1\n      pop\n        /* \"#utility.yul\":1741:1900   */\n      swap2\n      swap1\n      pop\n      jump\t// out\n        /* \"#utility.yul\":1906:2014   */\n    tag_325:\n        /* \"#utility.yul\":1983:2007   */\n      tag_439\n        /* \"#utility.yul\":2001:2006   */\n      dup2\n        /* \"#utility.yul\":1983:2007   */\n      tag_318\n      jump\t// in\n    tag_439:\n        /* \"#utility.yul\":1978:1981   */\n      dup3\n        /* \"#utility.yul\":1971:2008   */\n      mstore\n        /* \"#utility.yul\":1906:2014   */\n      pop\n      pop\n      jump\t// out\n        /* \"#utility.yul\":2020:2119   */\n    tag_326:\n        /* \"#utility.yul\":2072:2078   */\n      0x00\n        /* \"#utility.yul\":2106:2111   */\n      dup2\n        /* \"#utility.yul\":2100:2112   */\n      mload\n        /* \"#utility.yul\":2090:2112   */\n      swap1\n      pop\n        /* \"#utility.yul\":2020:2119   */\n      swap2\n      swap1\n      pop\n      jump\t// out\n        /* \"#utility.yul\":2125:2284   */\n    tag_327:\n        /* \"#utility.yul\":2199:2210   */\n      0x00\n        /* \"#utility.yul\":2233:2239   */\n      dup3\n        /* \"#utility.yul\":2228:2231   */\n      dup3\n        /* \"#utility.yul\":2221:2240   */\n      mstore\n        /* \"#utility.yul\":2273:2277   */\n      0x20\n        /* \"#utility.yul\":2268:2271   */\n      dup3\n        /* \"#utility.yul\":2264:2278   */\n      add\n        /* \"#utility.yul\":2249:2278   */\n      swap1\n      pop\n        /* \"#utility.yul\":2125:2284   */\n      swap3\n      swap2\n      pop\n      pop\n      jump\t// out\n        /* \"#utility.yul\":2290:2429   */\n    tag_328:\n        /* \"#utility.yul\":2379:2385   */\n      dup3\n        /* \"#utility.yul\":2374:2377   */\n      dup2\n        /* \"#utility.yul\":2369:2372   */\n      dup4\n        /* \"#utility.yul\":2363:2386   */\n      mcopy\n        /* \"#utility.yul\":2420:2421   */\n      0x00\n        /* \"#utility.yul\":2411:2417   */\n      dup4\n        /* \"#utility.yul\":2406:2409   */\n      dup4\n        /* \"#utility.yul\":2402:2418   */\n      add\n        /* \"#utility.yul\":2395:2422   */\n      mstore\n        /* \"#utility.yul\":2290:2429   */\n      pop\n      pop\n      pop\n      jump\t// out\n        /* \"#utility.yul\":2435:2537   */\n    tag_329:\n        /* \"#utility.yul\":2476:2482   */\n      0x00\n        /* \"#utility.yul\":2527:2529   */\n      0x1f\n        /* \"#utility.yul\":2523:2530   */\n      not\n        /* \"#utility.yul\":2518:2520   */\n      0x1f\n        /* \"#utility.yul\":2511:2516   */\n      dup4\n        /* \"#utility.yul\":2507:2521   */\n      add\n        /* \"#utility.yul\":2503:2531   */\n      and\n        /* \"#utility.yul\":2493:2531   */\n      swap1\n      pop\n        /* \"#utility.yul\":2435:2537   */\n      swap2\n      swap1\n      pop\n      jump\t// out\n        /* \"#utility.yul\":2543:2900   */\n    tag_330:\n        /* \"#utility.yul\":2621:2624   */\n      0x00\n        /* \"#utility.yul\":2649:2688   */\n      tag_445\n        /* \"#utility.yul\":2682:2687   */\n      dup3\n        /* \"#utility.yul\":2649:2688   */\n      tag_326\n      jump\t// in\n    tag_445:\n        /* \"#utility.yul\":2704:2765   */\n      tag_446\n        /* \"#utility.yul\":2758:2764   */\n      dup2\n        /* \"#utility.yul\":2753:2756   */\n      dup6\n        /* \"#utility.yul\":2704:2765   */\n      tag_327\n      jump\t// in\n    tag_446:\n        /* \"#utility.yul\":2697:2765   */\n      swap4\n      pop\n        /* \"#utility.yul\":2774:2839   */\n      tag_447\n        /* \"#utility.yul\":2832:2838   */\n      dup2\n        /* \"#utility.yul\":2827:2830   */\n      dup6\n        /* \"#utility.yul\":2820:2824   */\n      0x20\n        /* \"#utility.yul\":2813:2818   */\n      dup7\n        /* \"#utility.yul\":2809:2825   */\n      add\n        /* \"#utility.yul\":2774:2839   */\n      tag_328\n      jump\t// in\n    tag_447:\n        /* \"#utility.yul\":2864:2893   */\n      tag_448\n        /* \"#utility.yul\":2886:2892   */\n      dup2\n        /* \"#utility.yul\":2864:2893   */\n      tag_329\n      jump\t// in\n    tag_448:\n        /* \"#utility.yul\":2859:2862   */\n      dup5\n        /* \"#utility.yul\":2855:2894   */\n      add\n        /* \"#utility.yul\":2848:2894   */\n      swap2\n      pop\n        /* \"#utility.yul\":2625:2900   */\n      pop\n        /* \"#utility.yul\":2543:2900   */\n      swap3\n      swap2\n      pop\n      pop\n      jump\t// out\n        /* \"#utility.yul\":2968:3754   */\n    tag_331:\n        /* \"#utility.yul\":3081:3084   */\n      0x00\n        /* \"#utility.yul\":3117:3121   */\n      0x60\n        /* \"#utility.yul\":3112:3115   */\n      dup4\n        /* \"#utility.yul\":3108:3122   */\n      add\n        /* \"#utility.yul\":3211:3215   */\n      0x00\n        /* \"#utility.yul\":3204:3209   */\n      dup4\n        /* \"#utility.yul\":3200:3216   */\n      add\n        /* \"#utility.yul\":3194:3217   */\n      mload\n        /* \"#utility.yul\":3230:3293   */\n      tag_450\n        /* \"#utility.yul\":3287:3291   */\n      0x00\n        /* \"#utility.yul\":3282:3285   */\n      dup7\n        /* \"#utility.yul\":3278:3292   */\n      add\n        /* \"#utility.yul\":3264:3276   */\n      dup3\n        /* \"#utility.yul\":3230:3293   */\n      tag_325\n      jump\t// in\n    tag_450:\n        /* \"#utility.yul\":3132:3303   */\n      pop\n        /* \"#utility.yul\":3385:3389   */\n      0x20\n        /* \"#utility.yul\":3378:3383   */\n      dup4\n        /* \"#utility.yul\":3374:3390   */\n      add\n        /* \"#utility.yul\":3368:3391   */\n      mload\n        /* \"#utility.yul\":3438:3441   */\n      dup5\n        /* \"#utility.yul\":3432:3436   */\n      dup3\n        /* \"#utility.yul\":3428:3442   */\n      sub\n        /* \"#utility.yul\":3421:3425   */\n      0x20\n        /* \"#utility.yul\":3416:3419   */\n      dup7\n        /* \"#utility.yul\":3412:3426   */\n      add\n        /* \"#utility.yul\":3405:3443   */\n      mstore\n        /* \"#utility.yul\":3464:3537   */\n      tag_451\n        /* \"#utility.yul\":3532:3536   */\n      dup3\n        /* \"#utility.yul\":3518:3530   */\n      dup3\n        /* \"#utility.yul\":3464:3537   */\n      tag_330\n      jump\t// in\n    tag_451:\n        /* \"#utility.yul\":3456:3537   */\n      swap2\n      pop\n        /* \"#utility.yul\":3313:3548   */\n      pop\n        /* \"#utility.yul\":3635:3639   */\n      0x40\n        /* \"#utility.yul\":3628:3633   */\n      dup4\n        /* \"#utility.yul\":3624:3640   */\n      add\n        /* \"#utility.yul\":3618:3641   */\n      mload\n        /* \"#utility.yul\":3654:3717   */\n      tag_452\n        /* \"#utility.yul\":3711:3715   */\n      0x40\n        /* \"#utility.yul\":3706:3709   */\n      dup7\n        /* \"#utility.yul\":3702:3716   */\n      add\n        /* \"#utility.yul\":3688:3700   */\n      dup3\n        /* \"#utility.yul\":3654:3717   */\n      tag_325\n      jump\t// in\n    tag_452:\n        /* \"#utility.yul\":3558:3727   */\n      pop\n        /* \"#utility.yul\":3744:3748   */\n      dup1\n        /* \"#utility.yul\":3737:3748   */\n      swap2\n      pop\n        /* \"#utility.yul\":3086:3754   */\n      pop\n        /* \"#utility.yul\":2968:3754   */\n      swap3\n      swap2\n      pop\n      pop\n      jump\t// out\n        /* \"#utility.yul\":3760:4024   */\n    tag_332:\n        /* \"#utility.yul\":3883:3893   */\n      0x00\n        /* \"#utility.yul\":3918:4018   */\n      tag_454\n        /* \"#utility.yul\":4014:4017   */\n      dup4\n        /* \"#utility.yul\":4006:4012   */\n      dup4\n        /* \"#utility.yul\":3918:4018   */\n      tag_331\n      jump\t// in\n    tag_454:\n        /* \"#utility.yul\":3904:4018   */\n      swap1\n      pop\n        /* \"#utility.yul\":3760:4024   */\n      swap3\n      swap2\n      pop\n      pop\n      jump\t// out\n        /* \"#utility.yul\":4030:4170   */\n    tag_333:\n        /* \"#utility.yul\":4127:4131   */\n      0x00\n        /* \"#utility.yul\":4159:4163   */\n      0x20\n        /* \"#utility.yul\":4154:4157   */\n      dup3\n        /* \"#utility.yul\":4150:4164   */\n      add\n        /* \"#utility.yul\":4142:4164   */\n      swap1\n      pop\n        /* \"#utility.yul\":4030:4170   */\n      swap2\n      swap1\n      pop\n      jump\t// out\n        /* \"#utility.yul\":4242:5369   */\n    tag_334:\n        /* \"#utility.yul\":4415:4418   */\n      0x00\n        /* \"#utility.yul\":4444:4525   */\n      tag_457\n        /* \"#utility.yul\":4519:4524   */\n      dup3\n        /* \"#utility.yul\":4444:4525   */\n      tag_322\n      jump\t// in\n    tag_457:\n        /* \"#utility.yul\":4541:4654   */\n      tag_458\n        /* \"#utility.yul\":4647:4653   */\n      dup2\n        /* \"#utility.yul\":4642:4645   */\n      dup6\n        /* \"#utility.yul\":4541:4654   */\n      tag_323\n      jump\t// in\n    tag_458:\n        /* \"#utility.yul\":4534:4654   */\n      swap4\n      pop\n        /* \"#utility.yul\":4680:4683   */\n      dup4\n        /* \"#utility.yul\":4725:4729   */\n      0x20\n        /* \"#utility.yul\":4717:4723   */\n      dup3\n        /* \"#utility.yul\":4713:4730   */\n      mul\n        /* \"#utility.yul\":4708:4711   */\n      dup6\n        /* \"#utility.yul\":4704:4731   */\n      add\n        /* \"#utility.yul\":4755:4838   */\n      tag_459\n        /* \"#utility.yul\":4832:4837   */\n      dup6\n        /* \"#utility.yul\":4755:4838   */\n      tag_324\n      jump\t// in\n    tag_459:\n        /* \"#utility.yul\":4861:4868   */\n      dup1\n        /* \"#utility.yul\":4892:4893   */\n      0x00\n        /* \"#utility.yul\":4877:5324   */\n    tag_460:\n        /* \"#utility.yul\":4902:4908   */\n      dup6\n        /* \"#utility.yul\":4899:4900   */\n      dup2\n        /* \"#utility.yul\":4896:4909   */\n      lt\n        /* \"#utility.yul\":4877:5324   */\n      iszero\n      tag_462\n      jumpi\n        /* \"#utility.yul\":4973:4982   */\n      dup5\n        /* \"#utility.yul\":4967:4971   */\n      dup5\n        /* \"#utility.yul\":4963:4983   */\n      sub\n        /* \"#utility.yul\":4958:4961   */\n      dup10\n        /* \"#utility.yul\":4951:4984   */\n      mstore\n        /* \"#utility.yul\":5024:5030   */\n      dup2\n        /* \"#utility.yul\":5018:5031   */\n      mload\n        /* \"#utility.yul\":5052:5170   */\n      tag_463\n        /* \"#utility.yul\":5165:5169   */\n      dup6\n        /* \"#utility.yul\":5150:5163   */\n      dup3\n        /* \"#utility.yul\":5052:5170   */\n      tag_332\n      jump\t// in\n    tag_463:\n        /* \"#utility.yul\":5044:5170   */\n      swap5\n      pop\n        /* \"#utility.yul\":5193:5280   */\n      tag_464\n        /* \"#utility.yul\":5273:5279   */\n      dup4\n        /* \"#utility.yul\":5193:5280   */\n      tag_333\n      jump\t// in\n    tag_464:\n        /* \"#utility.yul\":5183:5280   */\n      swap3\n      pop\n        /* \"#utility.yul\":5309:5313   */\n      0x20\n        /* \"#utility.yul\":5304:5307   */\n      dup11\n        /* \"#utility.yul\":5300:5314   */\n      add\n        /* \"#utility.yul\":5293:5314   */\n      swap10\n      pop\n        /* \"#utility.yul\":4937:5324   */\n      pop\n        /* \"#utility.yul\":4924:4925   */\n      0x01\n        /* \"#utility.yul\":4921:4922   */\n      dup2\n        /* \"#utility.yul\":4917:4926   */\n      add\n        /* \"#utility.yul\":4912:4926   */\n      swap1\n      pop\n        /* \"#utility.yul\":4877:5324   */\n      jump(tag_460)\n    tag_462:\n        /* \"#utility.yul\":4881:4895   */\n      pop\n        /* \"#utility.yul\":5340:5344   */\n      dup3\n        /* \"#utility.yul\":5333:5344   */\n      swap8\n      pop\n        /* \"#utility.yul\":5360:5363   */\n      dup8\n        /* \"#utility.yul\":5353:5363   */\n      swap6\n      pop\n        /* \"#utility.yul\":4420:5369   */\n      pop\n      pop\n      pop\n      pop\n      pop\n        /* \"#utility.yul\":4242:5369   */\n      swap3\n      swap2\n      pop\n      pop\n      jump\t// out\n        /* \"#utility.yul\":5375:5856   */\n    tag_32:\n        /* \"#utility.yul\":5572:5576   */\n      0x00\n        /* \"#utility.yul\":5610:5612   */\n      0x20\n        /* \"#utility.yul\":5599:5608   */\n      dup3\n        /* \"#utility.yul\":5595:5613   */\n      add\n        /* \"#utility.yul\":5587:5613   */\n      swap1\n      pop\n        /* \"#utility.yul\":5659:5668   */\n      dup2\n        /* \"#utility.yul\":5653:5657   */\n      dup2\n        /* \"#utility.yul\":5649:5669   */\n      sub\n        /* \"#utility.yul\":5645:5646   */\n      0x00\n        /* \"#utility.yul\":5634:5643   */\n      dup4\n        /* \"#utility.yul\":5630:5647   */\n      add\n        /* \"#utility.yul\":5623:5670   */\n      mstore\n        /* \"#utility.yul\":5687:5849   */\n      tag_466\n        /* \"#utility.yul\":5844:5848   */\n      dup2\n        /* \"#utility.yul\":5835:5841   */\n      dup5\n        /* \"#utility.yul\":5687:5849   */\n      tag_334\n      jump\t// in\n    tag_466:\n        /* \"#utility.yul\":5679:5849   */\n      swap1\n      pop\n        /* \"#utility.yul\":5375:5856   */\n      swap3\n      swap2\n      pop\n      pop\n      jump\t// out\n        /* \"#utility.yul\":5924:6720   */\n    tag_335:\n        /* \"#utility.yul\":6047:6050   */\n      0x00\n        /* \"#utility.yul\":6083:6087   */\n      0x60\n        /* \"#utility.yul\":6078:6081   */\n      dup4\n        /* \"#utility.yul\":6074:6088   */\n      add\n        /* \"#utility.yul\":6177:6181   */\n      0x00\n        /* \"#utility.yul\":6170:6175   */\n      dup4\n        /* \"#utility.yul\":6166:6182   */\n      add\n        /* \"#utility.yul\":6160:6183   */\n      mload\n        /* \"#utility.yul\":6196:6259   */\n      tag_468\n        /* \"#utility.yul\":6253:6257   */\n      0x00\n        /* \"#utility.yul\":6248:6251   */\n      dup7\n        /* \"#utility.yul\":6244:6258   */\n      add\n        /* \"#utility.yul\":6230:6242   */\n      dup3\n        /* \"#utility.yul\":6196:6259   */\n      tag_325\n      jump\t// in\n    tag_468:\n        /* \"#utility.yul\":6098:6269   */\n      pop\n        /* \"#utility.yul\":6351:6355   */\n      0x20\n        /* \"#utility.yul\":6344:6349   */\n      dup4\n        /* \"#utility.yul\":6340:6356   */\n      add\n        /* \"#utility.yul\":6334:6357   */\n      mload\n        /* \"#utility.yul\":6404:6407   */\n      dup5\n        /* \"#utility.yul\":6398:6402   */\n      dup3\n        /* \"#utility.yul\":6394:6408   */\n      sub\n        /* \"#utility.yul\":6387:6391   */\n      0x20\n        /* \"#utility.yul\":6382:6385   */\n      dup7\n        /* \"#utility.yul\":6378:6392   */\n      add\n        /* \"#utility.yul\":6371:6409   */\n      mstore\n        /* \"#utility.yul\":6430:6503   */\n      tag_469\n        /* \"#utility.yul\":6498:6502   */\n      dup3\n        /* \"#utility.yul\":6484:6496   */\n      dup3\n        /* \"#utility.yul\":6430:6503   */\n      tag_330\n      jump\t// in\n    tag_469:\n        /* \"#utility.yul\":6422:6503   */\n      swap2\n      pop\n        /* \"#utility.yul\":6279:6514   */\n      pop\n        /* \"#utility.yul\":6601:6605   */\n      0x40\n        /* \"#utility.yul\":6594:6599   */\n      dup4\n        /* \"#utility.yul\":6590:6606   */\n      add\n        /* \"#utility.yul\":6584:6607   */\n      mload\n        /* \"#utility.yul\":6620:6683   */\n      tag_470\n        /* \"#utility.yul\":6677:6681   */\n      0x40\n        /* \"#utility.yul\":6672:6675   */\n      dup7\n        /* \"#utility.yul\":6668:6682   */\n      add\n        /* \"#utility.yul\":6654:6666   */\n      dup3\n        /* \"#utility.yul\":6620:6683   */\n      tag_325\n      jump\t// in\n    tag_470:\n        /* \"#utility.yul\":6524:6693   */\n      pop\n        /* \"#utility.yul\":6710:6714   */\n      dup1\n        /* \"#utility.yul\":6703:6714   */\n      swap2\n      pop\n        /* \"#utility.yul\":6052:6720   */\n      pop\n        /* \"#utility.yul\":5924:6720   */\n      swap3\n      swap2\n      pop\n      pop\n      jump\t// out\n        /* \"#utility.yul\":6726:7107   */\n    tag_37:\n        /* \"#utility.yul\":6873:6877   */\n      0x00\n        /* \"#utility.yul\":6911:6913   */\n      0x20\n        /* \"#utility.yul\":6900:6909   */\n      dup3\n        /* \"#utility.yul\":6896:6914   */\n      add\n        /* \"#utility.yul\":6888:6914   */\n      swap1\n      pop\n        /* \"#utility.yul\":6960:6969   */\n      dup2\n        /* \"#utility.yul\":6954:6958   */\n      dup2\n        /* \"#utility.yul\":6950:6970   */\n      sub\n        /* \"#utility.yul\":6946:6947   */\n      0x00\n        /* \"#utility.yul\":6935:6944   */\n      dup4\n        /* \"#utility.yul\":6931:6948   */\n      add\n        /* \"#utility.yul\":6924:6971   */\n      mstore\n        /* \"#utility.yul\":6988:7100   */\n      tag_472\n        /* \"#utility.yul\":7095:7099   */\n      dup2\n        /* \"#utility.yul\":7086:7092   */\n      dup5\n        /* \"#utility.yul\":6988:7100   */\n      tag_335\n      jump\t// in\n    tag_472:\n        /* \"#utility.yul\":6980:7100   */\n      swap1\n      pop\n        /* \"#utility.yul\":6726:7107   */\n      swap3\n      swap2\n      pop\n      pop\n      jump\t// out\n        /* \"#utility.yul\":7113:7239   */\n    tag_336:\n        /* \"#utility.yul\":7150:7157   */\n      0x00\n        /* \"#utility.yul\":7190:7232   */\n      0xffffffffffffffffffffffffffffffffffffffff\n        /* \"#utility.yul\":7183:7188   */\n      dup3\n        /* \"#utility.yul\":7179:7233   */\n      and\n        /* \"#utility.yul\":7168:7233   */\n      swap1\n      pop\n        /* \"#utility.yul\":7113:7239   */\n      swap2\n      swap1\n      pop\n      jump\t// out\n        /* \"#utility.yul\":7245:7341   */\n    tag_337:\n        /* \"#utility.yul\":7282:7289   */\n      0x00\n        /* \"#utility.yul\":7311:7335   */\n      tag_475\n        /* \"#utility.yul\":7329:7334   */\n      dup3\n        /* \"#utility.yul\":7311:7335   */\n      tag_336\n      jump\t// in\n    tag_475:\n        /* \"#utility.yul\":7300:7335   */\n      swap1\n      pop\n        /* \"#utility.yul\":7245:7341   */\n      swap2\n      swap1\n      pop\n      jump\t// out\n        /* \"#utility.yul\":7347:7469   */\n    tag_338:\n        /* \"#utility.yul\":7420:7444   */\n      tag_477\n        /* \"#utility.yul\":7438:7443   */\n      dup2\n        /* \"#utility.yul\":7420:7444   */\n      tag_337\n      jump\t// in\n    tag_477:\n        /* \"#utility.yul\":7413:7418   */\n      dup2\n        /* \"#utility.yul\":7410:7445   */\n      eq\n        /* \"#utility.yul\":7400:7463   */\n      tag_478\n      jumpi\n        /* \"#utility.yul\":7459:7460   */\n      0x00\n        /* \"#utility.yul\":7456:7457   */\n      0x00\n        /* \"#utility.yul\":7449:7461   */\n      revert\n        /* \"#utility.yul\":7400:7463   */\n    tag_478:\n        /* \"#utility.yul\":7347:7469   */\n      pop\n      jump\t// out\n        /* \"#utility.yul\":7475:7614   */\n    tag_339:\n        /* \"#utility.yul\":7521:7526   */\n      0x00\n        /* \"#utility.yul\":7559:7565   */\n      dup2\n        /* \"#utility.yul\":7546:7566   */\n      calldataload\n        /* \"#utility.yul\":7537:7566   */\n      swap1\n      pop\n        /* \"#utility.yul\":7575:7608   */\n      tag_480\n        /* \"#utility.yul\":7602:7607   */\n      dup2\n        /* \"#utility.yul\":7575:7608   */\n      tag_338\n      jump\t// in\n    tag_480:\n        /* \"#utility.yul\":7475:7614   */\n      swap3\n      swap2\n      pop\n      pop\n      jump\t// out\n        /* \"#utility.yul\":7620:8094   */\n    tag_40:\n        /* \"#utility.yul\":7688:7694   */\n      0x00\n        /* \"#utility.yul\":7696:7702   */\n      0x00\n        /* \"#utility.yul\":7745:7747   */\n      0x40\n        /* \"#utility.yul\":7733:7742   */\n      dup4\n        /* \"#utility.yul\":7724:7731   */\n      dup6\n        /* \"#utility.yul\":7720:7743   */\n      sub\n        /* \"#utility.yul\":7716:7748   */\n      slt\n        /* \"#utility.yul\":7713:7832   */\n      iszero\n      tag_482\n      jumpi\n        /* \"#utility.yul\":7751:7830   */\n      tag_483\n      tag_316\n      jump\t// in\n    tag_483:\n        /* \"#utility.yul\":7713:7832   */\n    tag_482:\n        /* \"#utility.yul\":7871:7872   */\n      0x00\n        /* \"#utility.yul\":7896:7949   */\n      tag_484\n        /* \"#utility.yul\":7941:7948   */\n      dup6\n        /* \"#utility.yul\":7932:7938   */\n      dup3\n        /* \"#utility.yul\":7921:7930   */\n      dup7\n        /* \"#utility.yul\":7917:7939   */\n      add\n        /* \"#utility.yul\":7896:7949   */\n      tag_320\n      jump\t// in\n    tag_484:\n        /* \"#utility.yul\":7886:7949   */\n      swap3\n      pop\n        /* \"#utility.yul\":7842:7959   */\n      pop\n        /* \"#utility.yul\":7998:8000   */\n      0x20\n        /* \"#utility.yul\":8024:8077   */\n      tag_485\n        /* \"#utility.yul\":8069:8076   */\n      dup6\n        /* \"#utility.yul\":8060:8066   */\n      dup3\n        /* \"#utility.yul\":8049:8058   */\n      dup7\n        /* \"#utility.yul\":8045:8067   */\n      add\n        /* \"#utility.yul\":8024:8077   */\n      tag_339\n      jump\t// in\n    tag_485:\n        /* \"#utility.yul\":8014:8077   */\n      swap2\n      pop\n        /* \"#utility.yul\":7969:8087   */\n      pop\n        /* \"#utility.yul\":7620:8094   */\n      swap3\n      pop\n      swap3\n      swap1\n      pop\n      jump\t// out\n        /* \"#utility.yul\":8100:8190   */\n    tag_340:\n        /* \"#utility.yul\":8134:8141   */\n      0x00\n        /* \"#utility.yul\":8177:8182   */\n      dup2\n        /* \"#utility.yul\":8170:8183   */\n      iszero\n        /* \"#utility.yul\":8163:8184   */\n      iszero\n        /* \"#utility.yul\":8152:8184   */\n      swap1\n      pop\n        /* \"#utility.yul\":8100:8190   */\n      swap2\n      swap1\n      pop\n      jump\t// out\n        /* \"#utility.yul\":8196:8305   */\n    tag_341:\n        /* \"#utility.yul\":8277:8298   */\n      tag_488\n        /* \"#utility.yul\":8292:8297   */\n      dup2\n        /* \"#utility.yul\":8277:8298   */\n      tag_340\n      jump\t// in\n    tag_488:\n        /* \"#utility.yul\":8272:8275   */\n      dup3\n        /* \"#utility.yul\":8265:8299   */\n      mstore\n        /* \"#utility.yul\":8196:8305   */\n      pop\n      pop\n      jump\t// out\n        /* \"#utility.yul\":8311:8521   */\n    tag_43:\n        /* \"#utility.yul\":8398:8402   */\n      0x00\n        /* \"#utility.yul\":8436:8438   */\n      0x20\n        /* \"#utility.yul\":8425:8434   */\n      dup3\n        /* \"#utility.yul\":8421:8439   */\n      add\n        /* \"#utility.yul\":8413:8439   */\n      swap1\n      pop\n        /* \"#utility.yul\":8449:8514   */\n      tag_490\n        /* \"#utility.yul\":8511:8512   */\n      0x00\n        /* \"#utility.yul\":8500:8509   */\n      dup4\n        /* \"#utility.yul\":8496:8513   */\n      add\n        /* \"#utility.yul\":8487:8493   */\n      dup5\n        /* \"#utility.yul\":8449:8514   */\n      tag_341\n      jump\t// in\n    tag_490:\n        /* \"#utility.yul\":8311:8521   */\n      swap3\n      swap2\n      pop\n      pop\n      jump\t// out\n        /* \"#utility.yul\":8527:8696   */\n    tag_342:\n        /* \"#utility.yul\":8611:8622   */\n      0x00\n        /* \"#utility.yul\":8645:8651   */\n      dup3\n        /* \"#utility.yul\":8640:8643   */\n      dup3\n        /* \"#utility.yul\":8633:8652   */\n      mstore\n        /* \"#utility.yul\":8685:8689   */\n      0x20\n        /* \"#utility.yul\":8680:8683   */\n      dup3\n        /* \"#utility.yul\":8676:8690   */\n      add\n        /* \"#utility.yul\":8661:8690   */\n      swap1\n      pop\n        /* \"#utility.yul\":8527:8696   */\n      swap3\n      swap2\n      pop\n      pop\n      jump\t// out\n        /* \"#utility.yul\":8702:9079   */\n    tag_343:\n        /* \"#utility.yul\":8790:8793   */\n      0x00\n        /* \"#utility.yul\":8818:8857   */\n      tag_493\n        /* \"#utility.yul\":8851:8856   */\n      dup3\n        /* \"#utility.yul\":8818:8857   */\n      tag_326\n      jump\t// in\n    tag_493:\n        /* \"#utility.yul\":8873:8944   */\n      tag_494\n        /* \"#utility.yul\":8937:8943   */\n      dup2\n        /* \"#utility.yul\":8932:8935   */\n      dup6\n        /* \"#utility.yul\":8873:8944   */\n      tag_342\n      jump\t// in\n    tag_494:\n        /* \"#utility.yul\":8866:8944   */\n      swap4\n      pop\n        /* \"#utility.yul\":8953:9018   */\n      tag_495\n        /* \"#utility.yul\":9011:9017   */\n      dup2\n        /* \"#utility.yul\":9006:9009   */\n      dup6\n        /* \"#utility.yul\":8999:9003   */\n      0x20\n        /* \"#utility.yul\":8992:8997   */\n      dup7\n        /* \"#utility.yul\":8988:9004   */\n      add\n        /* \"#utility.yul\":8953:9018   */\n      tag_328\n      jump\t// in\n    tag_495:\n        /* \"#utility.yul\":9043:9072   */\n      tag_496\n        /* \"#utility.yul\":9065:9071   */\n      dup2\n        /* \"#utility.yul\":9043:9072   */\n      tag_329\n      jump\t// in\n    tag_496:\n        /* \"#utility.yul\":9038:9041   */\n      dup5\n        /* \"#utility.yul\":9034:9073   */\n      add\n        /* \"#utility.yul\":9027:9073   */\n      swap2\n      pop\n        /* \"#utility.yul\":8794:9079   */\n      pop\n        /* \"#utility.yul\":8702:9079   */\n      swap3\n      swap2\n      pop\n      pop\n      jump\t// out\n        /* \"#utility.yul\":9085:9828   */\n    tag_51:\n        /* \"#utility.yul\":9304:9308   */\n      0x00\n        /* \"#utility.yul\":9342:9345   */\n      0xa0\n        /* \"#utility.yul\":9331:9340   */\n      dup3\n        /* \"#utility.yul\":9327:9346   */\n      add\n        /* \"#utility.yul\":9319:9346   */\n      swap1\n      pop\n        /* \"#utility.yul\":9392:9401   */\n      dup2\n        /* \"#utility.yul\":9386:9390   */\n      dup2\n        /* \"#utility.yul\":9382:9402   */\n      sub\n        /* \"#utility.yul\":9378:9379   */\n      0x00\n        /* \"#utility.yul\":9367:9376   */\n      dup4\n        /* \"#utility.yul\":9363:9380   */\n      add\n        /* \"#utility.yul\":9356:9403   */\n      mstore\n        /* \"#utility.yul\":9420:9498   */\n      tag_498\n        /* \"#utility.yul\":9493:9497   */\n      dup2\n        /* \"#utility.yul\":9484:9490   */\n      dup9\n        /* \"#utility.yul\":9420:9498   */\n      tag_343\n      jump\t// in\n    tag_498:\n        /* \"#utility.yul\":9412:9498   */\n      swap1\n      pop\n        /* \"#utility.yul\":9508:9580   */\n      tag_499\n        /* \"#utility.yul\":9576:9578   */\n      0x20\n        /* \"#utility.yul\":9565:9574   */\n      dup4\n        /* \"#utility.yul\":9561:9579   */\n      add\n        /* \"#utility.yul\":9552:9558   */\n      dup8\n        /* \"#utility.yul\":9508:9580   */\n      tag_321\n      jump\t// in\n    tag_499:\n        /* \"#utility.yul\":9590:9662   */\n      tag_500\n        /* \"#utility.yul\":9658:9660   */\n      0x40\n        /* \"#utility.yul\":9647:9656   */\n      dup4\n        /* \"#utility.yul\":9643:9661   */\n      add\n        /* \"#utility.yul\":9634:9640   */\n      dup7\n        /* \"#utility.yul\":9590:9662   */\n      tag_321\n      jump\t// in\n    tag_500:\n        /* \"#utility.yul\":9672:9744   */\n      tag_501\n        /* \"#utility.yul\":9740:9742   */\n      0x60\n        /* \"#utility.yul\":9729:9738   */\n      dup4\n        /* \"#utility.yul\":9725:9743   */\n      add\n        /* \"#utility.yul\":9716:9722   */\n      dup6\n        /* \"#utility.yul\":9672:9744   */\n      tag_321\n      jump\t// in\n    tag_501:\n        /* \"#utility.yul\":9754:9821   */\n      tag_502\n        /* \"#utility.yul\":9816:9819   */\n      0x80\n        /* \"#utility.yul\":9805:9814   */\n      dup4\n        /* \"#utility.yul\":9801:9820   */\n      add\n        /* \"#utility.yul\":9792:9798   */\n      dup5\n        /* \"#utility.yul\":9754:9821   */\n      tag_341\n      jump\t// in\n    tag_502:\n        /* \"#utility.yul\":9085:9828   */\n      swap7\n      swap6\n      pop\n      pop\n      pop\n      pop\n      pop\n      pop\n      jump\t// out\n        /* \"#utility.yul\":9834:10308   */\n    tag_57:\n        /* \"#utility.yul\":9902:9908   */\n      0x00\n        /* \"#utility.yul\":9910:9916   */\n      0x00\n        /* \"#utility.yul\":9959:9961   */\n      0x40\n        /* \"#utility.yul\":9947:9956   */\n      dup4\n        /* \"#utility.yul\":9938:9945   */\n      dup6\n        /* \"#utility.yul\":9934:9957   */\n      sub\n        /* \"#utility.yul\":9930:9962   */\n      slt\n        /* \"#utility.yul\":9927:10046   */\n      iszero\n      tag_504\n      jumpi\n        /* \"#utility.yul\":9965:10044   */\n      tag_505\n      tag_316\n      jump\t// in\n    tag_505:\n        /* \"#utility.yul\":9927:10046   */\n    tag_504:\n        /* \"#utility.yul\":10085:10086   */\n      0x00\n        /* \"#utility.yul\":10110:10163   */\n      tag_506\n        /* \"#utility.yul\":10155:10162   */\n      dup6\n        /* \"#utility.yul\":10146:10152   */\n      dup3\n        /* \"#utility.yul\":10135:10144   */\n      dup7\n        /* \"#utility.yul\":10131:10153   */\n      add\n        /* \"#utility.yul\":10110:10163   */\n      tag_320\n      jump\t// in\n    tag_506:\n        /* \"#utility.yul\":10100:10163   */\n      swap3\n      pop\n        /* \"#utility.yul\":10056:10173   */\n      pop\n        /* \"#utility.yul\":10212:10214   */\n      0x20\n        /* \"#utility.yul\":10238:10291   */\n      tag_507\n        /* \"#utility.yul\":10283:10290   */\n      dup6\n        /* \"#utility.yul\":10274:10280   */\n      dup3\n        /* \"#utility.yul\":10263:10272   */\n      dup7\n        /* \"#utility.yul\":10259:10281   */\n      add\n        /* \"#utility.yul\":10238:10291   */\n      tag_320\n      jump\t// in\n    tag_507:\n        /* \"#utility.yul\":10228:10291   */\n      swap2\n      pop\n        /* \"#utility.yul\":10183:10301   */\n      pop\n        /* \"#utility.yul\":9834:10308   */\n      swap3\n      pop\n      swap3\n      swap1\n      pop\n      jump\t// out\n        /* \"#utility.yul\":10314:10847   */\n    tag_60:\n        /* \"#utility.yul\":10483:10487   */\n      0x00\n        /* \"#utility.yul\":10521:10523   */\n      0x60\n        /* \"#utility.yul\":10510:10519   */\n      dup3\n        /* \"#utility.yul\":10506:10524   */\n      add\n        /* \"#utility.yul\":10498:10524   */\n      swap1\n      pop\n        /* \"#utility.yul\":10534:10605   */\n      tag_509\n        /* \"#utility.yul\":10602:10603   */\n      0x00\n        /* \"#utility.yul\":10591:10600   */\n      dup4\n        /* \"#utility.yul\":10587:10604   */\n      add\n        /* \"#utility.yul\":10578:10584   */\n      dup7\n        /* \"#utility.yul\":10534:10605   */\n      tag_321\n      jump\t// in\n    tag_509:\n        /* \"#utility.yul\":10652:10661   */\n      dup2\n        /* \"#utility.yul\":10646:10650   */\n      dup2\n        /* \"#utility.yul\":10642:10662   */\n      sub\n        /* \"#utility.yul\":10637:10639   */\n      0x20\n        /* \"#utility.yul\":10626:10635   */\n      dup4\n        /* \"#utility.yul\":10622:10640   */\n      add\n        /* \"#utility.yul\":10615:10663   */\n      mstore\n        /* \"#utility.yul\":10680:10758   */\n      tag_510\n        /* \"#utility.yul\":10753:10757   */\n      dup2\n        /* \"#utility.yul\":10744:10750   */\n      dup6\n        /* \"#utility.yul\":10680:10758   */\n      tag_343\n      jump\t// in\n    tag_510:\n        /* \"#utility.yul\":10672:10758   */\n      swap1\n      pop\n        /* \"#utility.yul\":10768:10840   */\n      tag_511\n        /* \"#utility.yul\":10836:10838   */\n      0x40\n        /* \"#utility.yul\":10825:10834   */\n      dup4\n        /* \"#utility.yul\":10821:10839   */\n      add\n        /* \"#utility.yul\":10812:10818   */\n      dup5\n        /* \"#utility.yul\":10768:10840   */\n      tag_321\n      jump\t// in\n    tag_511:\n        /* \"#utility.yul\":10314:10847   */\n      swap5\n      swap4\n      pop\n      pop\n      pop\n      pop\n      jump\t// out\n        /* \"#utility.yul\":10853:10991   */\n    tag_344:\n        /* \"#utility.yul\":10944:10950   */\n      0x00\n        /* \"#utility.yul\":10978:10983   */\n      dup2\n        /* \"#utility.yul\":10972:10984   */\n      mload\n        /* \"#utility.yul\":10962:10984   */\n      swap1\n      pop\n        /* \"#utility.yul\":10853:10991   */\n      swap2\n      swap1\n      pop\n      jump\t// out\n        /* \"#utility.yul\":10997:11205   */\n    tag_345:\n        /* \"#utility.yul\":11120:11131   */\n      0x00\n        /* \"#utility.yul\":11154:11160   */\n      dup3\n        /* \"#utility.yul\":11149:11152   */\n      dup3\n        /* \"#utility.yul\":11142:11161   */\n      mstore\n        /* \"#utility.yul\":11194:11198   */\n      0x20\n        /* \"#utility.yul\":11189:11192   */\n      dup3\n        /* \"#utility.yul\":11185:11199   */\n      add\n        /* \"#utility.yul\":11170:11199   */\n      swap1\n      pop\n        /* \"#utility.yul\":10997:11205   */\n      swap3\n      swap2\n      pop\n      pop\n      jump\t// out\n        /* \"#utility.yul\":11211:11367   */\n    tag_346:\n        /* \"#utility.yul\":11302:11306   */\n      0x00\n        /* \"#utility.yul\":11325:11328   */\n      dup2\n        /* \"#utility.yul\":11317:11328   */\n      swap1\n      pop\n        /* \"#utility.yul\":11355:11359   */\n      0x20\n        /* \"#utility.yul\":11350:11353   */\n      dup3\n        /* \"#utility.yul\":11346:11360   */\n      add\n        /* \"#utility.yul\":11338:11360   */\n      swap1\n      pop\n        /* \"#utility.yul\":11211:11367   */\n      swap2\n      swap1\n      pop\n      jump\t// out\n        /* \"#utility.yul\":11373:11472   */\n    tag_347:\n        /* \"#utility.yul\":11444:11465   */\n      tag_516\n        /* \"#utility.yul\":11459:11464   */\n      dup2\n        /* \"#utility.yul\":11444:11465   */\n      tag_340\n      jump\t// in\n    tag_516:\n        /* \"#utility.yul\":11439:11442   */\n      dup3\n        /* \"#utility.yul\":11432:11466   */\n      mstore\n        /* \"#utility.yul\":11373:11472   */\n      pop\n      pop\n      jump\t// out\n        /* \"#utility.yul\":11534:12652   */\n    tag_348:\n        /* \"#utility.yul\":11641:11644   */\n      0x00\n        /* \"#utility.yul\":11677:11681   */\n      0xa0\n        /* \"#utility.yul\":11672:11675   */\n      dup4\n        /* \"#utility.yul\":11668:11682   */\n      add\n        /* \"#utility.yul\":11764:11768   */\n      0x00\n        /* \"#utility.yul\":11757:11762   */\n      dup4\n        /* \"#utility.yul\":11753:11769   */\n      add\n        /* \"#utility.yul\":11747:11770   */\n      mload\n        /* \"#utility.yul\":11817:11820   */\n      dup5\n        /* \"#utility.yul\":11811:11815   */\n      dup3\n        /* \"#utility.yul\":11807:11821   */\n      sub\n        /* \"#utility.yul\":11800:11804   */\n      0x00\n        /* \"#utility.yul\":11795:11798   */\n      dup7\n        /* \"#utility.yul\":11791:11805   */\n      add\n        /* \"#utility.yul\":11784:11822   */\n      mstore\n        /* \"#utility.yul\":11843:11916   */\n      tag_518\n        /* \"#utility.yul\":11911:11915   */\n      dup3\n        /* \"#utility.yul\":11897:11909   */\n      dup3\n        /* \"#utility.yul\":11843:11916   */\n      tag_330\n      jump\t// in\n    tag_518:\n        /* \"#utility.yul\":11835:11916   */\n      swap2\n      pop\n        /* \"#utility.yul\":11692:11927   */\n      pop\n        /* \"#utility.yul\":12007:12011   */\n      0x20\n        /* \"#utility.yul\":12000:12005   */\n      dup4\n        /* \"#utility.yul\":11996:12012   */\n      add\n        /* \"#utility.yul\":11990:12013   */\n      mload\n        /* \"#utility.yul\":12026:12089   */\n      tag_519\n        /* \"#utility.yul\":12083:12087   */\n      0x20\n        /* \"#utility.yul\":12078:12081   */\n      dup7\n        /* \"#utility.yul\":12074:12088   */\n      add\n        /* \"#utility.yul\":12060:12072   */\n      dup3\n        /* \"#utility.yul\":12026:12089   */\n      tag_325\n      jump\t// in\n    tag_519:\n        /* \"#utility.yul\":11937:12099   */\n      pop\n        /* \"#utility.yul\":12186:12190   */\n      0x40\n        /* \"#utility.yul\":12179:12184   */\n      dup4\n        /* \"#utility.yul\":12175:12191   */\n      add\n        /* \"#utility.yul\":12169:12192   */\n      mload\n        /* \"#utility.yul\":12205:12268   */\n      tag_520\n        /* \"#utility.yul\":12262:12266   */\n      0x40\n        /* \"#utility.yul\":12257:12260   */\n      dup7\n        /* \"#utility.yul\":12253:12267   */\n      add\n        /* \"#utility.yul\":12239:12251   */\n      dup3\n        /* \"#utility.yul\":12205:12268   */\n      tag_325\n      jump\t// in\n    tag_520:\n        /* \"#utility.yul\":12109:12278   */\n      pop\n        /* \"#utility.yul\":12363:12367   */\n      0x60\n        /* \"#utility.yul\":12356:12361   */\n      dup4\n        /* \"#utility.yul\":12352:12368   */\n      add\n        /* \"#utility.yul\":12346:12369   */\n      mload\n        /* \"#utility.yul\":12382:12445   */\n      tag_521\n        /* \"#utility.yul\":12439:12443   */\n      0x60\n        /* \"#utility.yul\":12434:12437   */\n      dup7\n        /* \"#utility.yul\":12430:12444   */\n      add\n        /* \"#utility.yul\":12416:12428   */\n      dup3\n        /* \"#utility.yul\":12382:12445   */\n      tag_325\n      jump\t// in\n    tag_521:\n        /* \"#utility.yul\":12288:12455   */\n      pop\n        /* \"#utility.yul\":12539:12543   */\n      0x80\n        /* \"#utility.yul\":12532:12537   */\n      dup4\n        /* \"#utility.yul\":12528:12544   */\n      add\n        /* \"#utility.yul\":12522:12545   */\n      mload\n        /* \"#utility.yul\":12558:12615   */\n      tag_522\n        /* \"#utility.yul\":12609:12613   */\n      0x80\n        /* \"#utility.yul\":12604:12607   */\n      dup7\n        /* \"#utility.yul\":12600:12614   */\n      add\n        /* \"#utility.yul\":12586:12598   */\n      dup3\n        /* \"#utility.yul\":12558:12615   */\n      tag_347\n      jump\t// in\n    tag_522:\n        /* \"#utility.yul\":12465:12625   */\n      pop\n        /* \"#utility.yul\":12642:12646   */\n      dup1\n        /* \"#utility.yul\":12635:12646   */\n      swap2\n      pop\n        /* \"#utility.yul\":11646:12652   */\n      pop\n        /* \"#utility.yul\":11534:12652   */\n      swap3\n      swap2\n      pop\n      pop\n      jump\t// out\n        /* \"#utility.yul\":12658:12910   */\n    tag_349:\n        /* \"#utility.yul\":12775:12785   */\n      0x00\n        /* \"#utility.yul\":12810:12904   */\n      tag_524\n        /* \"#utility.yul\":12900:12903   */\n      dup4\n        /* \"#utility.yul\":12892:12898   */\n      dup4\n        /* \"#utility.yul\":12810:12904   */\n      tag_348\n      jump\t// in\n    tag_524:\n        /* \"#utility.yul\":12796:12904   */\n      swap1\n      pop\n        /* \"#utility.yul\":12658:12910   */\n      swap3\n      swap2\n      pop\n      pop\n      jump\t// out\n        /* \"#utility.yul\":12916:13053   */\n    tag_350:\n        /* \"#utility.yul\":13010:13014   */\n      0x00\n        /* \"#utility.yul\":13042:13046   */\n      0x20\n        /* \"#utility.yul\":13037:13040   */\n      dup3\n        /* \"#utility.yul\":13033:13047   */\n      add\n        /* \"#utility.yul\":13025:13047   */\n      swap1\n      pop\n        /* \"#utility.yul\":12916:13053   */\n      swap2\n      swap1\n      pop\n      jump\t// out\n        /* \"#utility.yul\":13119:14222   */\n    tag_351:\n        /* \"#utility.yul\":13286:13289   */\n      0x00\n        /* \"#utility.yul\":13315:13393   */\n      tag_527\n        /* \"#utility.yul\":13387:13392   */\n      dup3\n        /* \"#utility.yul\":13315:13393   */\n      tag_344\n      jump\t// in\n    tag_527:\n        /* \"#utility.yul\":13409:13519   */\n      tag_528\n        /* \"#utility.yul\":13512:13518   */\n      dup2\n        /* \"#utility.yul\":13507:13510   */\n      dup6\n        /* \"#utility.yul\":13409:13519   */\n      tag_345\n      jump\t// in\n    tag_528:\n        /* \"#utility.yul\":13402:13519   */\n      swap4\n      pop\n        /* \"#utility.yul\":13545:13548   */\n      dup4\n        /* \"#utility.yul\":13590:13594   */\n      0x20\n        /* \"#utility.yul\":13582:13588   */\n      dup3\n        /* \"#utility.yul\":13578:13595   */\n      mul\n        /* \"#utility.yul\":13573:13576   */\n      dup6\n        /* \"#utility.yul\":13569:13596   */\n      add\n        /* \"#utility.yul\":13620:13700   */\n      tag_529\n        /* \"#utility.yul\":13694:13699   */\n      dup6\n        /* \"#utility.yul\":13620:13700   */\n      tag_346\n      jump\t// in\n    tag_529:\n        /* \"#utility.yul\":13723:13730   */\n      dup1\n        /* \"#utility.yul\":13754:13755   */\n      0x00\n        /* \"#utility.yul\":13739:14177   */\n    tag_530:\n        /* \"#utility.yul\":13764:13770   */\n      dup6\n        /* \"#utility.yul\":13761:13762   */\n      dup2\n        /* \"#utility.yul\":13758:13771   */\n      lt\n        /* \"#utility.yul\":13739:14177   */\n      iszero\n      tag_532\n      jumpi\n        /* \"#utility.yul\":13835:13844   */\n      dup5\n        /* \"#utility.yul\":13829:13833   */\n      dup5\n        /* \"#utility.yul\":13825:13845   */\n      sub\n        /* \"#utility.yul\":13820:13823   */\n      dup10\n        /* \"#utility.yul\":13813:13846   */\n      mstore\n        /* \"#utility.yul\":13886:13892   */\n      dup2\n        /* \"#utility.yul\":13880:13893   */\n      mload\n        /* \"#utility.yul\":13914:14026   */\n      tag_533\n        /* \"#utility.yul\":14021:14025   */\n      dup6\n        /* \"#utility.yul\":14006:14019   */\n      dup3\n        /* \"#utility.yul\":13914:14026   */\n      tag_349\n      jump\t// in\n    tag_533:\n        /* \"#utility.yul\":13906:14026   */\n      swap5\n      pop\n        /* \"#utility.yul\":14049:14133   */\n      tag_534\n        /* \"#utility.yul\":14126:14132   */\n      dup4\n        /* \"#utility.yul\":14049:14133   */\n      tag_350\n      jump\t// in\n    tag_534:\n        /* \"#utility.yul\":14039:14133   */\n      swap3\n      pop\n        /* \"#utility.yul\":14162:14166   */\n      0x20\n        /* \"#utility.yul\":14157:14160   */\n      dup11\n        /* \"#utility.yul\":14153:14167   */\n      add\n        /* \"#utility.yul\":14146:14167   */\n      swap10\n      pop\n        /* \"#utility.yul\":13799:14177   */\n      pop\n        /* \"#utility.yul\":13786:13787   */\n      0x01\n        /* \"#utility.yul\":13783:13784   */\n      dup2\n        /* \"#utility.yul\":13779:13788   */\n      add\n        /* \"#utility.yul\":13774:13788   */\n      swap1\n      pop\n        /* \"#utility.yul\":13739:14177   */\n      jump(tag_530)\n    tag_532:\n        /* \"#utility.yul\":13743:13757   */\n      pop\n        /* \"#utility.yul\":14193:14197   */\n      dup3\n        /* \"#utility.yul\":14186:14197   */\n      swap8\n      pop\n        /* \"#utility.yul\":14213:14216   */\n      dup8\n        /* \"#utility.yul\":14206:14216   */\n      swap6\n      pop\n        /* \"#utility.yul\":13291:14222   */\n      pop\n      pop\n      pop\n      pop\n      pop\n        /* \"#utility.yul\":13119:14222   */\n      swap3\n      swap2\n      pop\n      pop\n      jump\t// out\n        /* \"#utility.yul\":14228:14697   */\n    tag_64:\n        /* \"#utility.yul\":14419:14423   */\n      0x00\n        /* \"#utility.yul\":14457:14459   */\n      0x20\n        /* \"#utility.yul\":14446:14455   */\n      dup3\n        /* \"#utility.yul\":14442:14460   */\n      add\n        /* \"#utility.yul\":14434:14460   */\n      swap1\n      pop\n        /* \"#utility.yul\":14506:14515   */\n      dup2\n        /* \"#utility.yul\":14500:14504   */\n      dup2\n        /* \"#utility.yul\":14496:14516   */\n      sub\n        /* \"#utility.yul\":14492:14493   */\n      0x00\n        /* \"#utility.yul\":14481:14490   */\n      dup4\n        /* \"#utility.yul\":14477:14494   */\n      add\n        /* \"#utility.yul\":14470:14517   */\n      mstore\n        /* \"#utility.yul\":14534:14690   */\n      tag_536\n        /* \"#utility.yul\":14685:14689   */\n      dup2\n        /* \"#utility.yul\":14676:14682   */\n      dup5\n        /* \"#utility.yul\":14534:14690   */\n      tag_351\n      jump\t// in\n    tag_536:\n        /* \"#utility.yul\":14526:14690   */\n      swap1\n      pop\n        /* \"#utility.yul\":14228:14697   */\n      swap3\n      swap2\n      pop\n      pop\n      jump\t// out\n        /* \"#utility.yul\":14703:14821   */\n    tag_352:\n        /* \"#utility.yul\":14790:14814   */\n      tag_538\n        /* \"#utility.yul\":14808:14813   */\n      dup2\n        /* \"#utility.yul\":14790:14814   */\n      tag_337\n      jump\t// in\n    tag_538:\n        /* \"#utility.yul\":14785:14788   */\n      dup3\n        /* \"#utility.yul\":14778:14815   */\n      mstore\n        /* \"#utility.yul\":14703:14821   */\n      pop\n      pop\n      jump\t// out\n        /* \"#utility.yul\":14827:15049   */\n    tag_68:\n        /* \"#utility.yul\":14920:14924   */\n      0x00\n        /* \"#utility.yul\":14958:14960   */\n      0x20\n        /* \"#utility.yul\":14947:14956   */\n      dup3\n        /* \"#utility.yul\":14943:14961   */\n      add\n        /* \"#utility.yul\":14935:14961   */\n      swap1\n      pop\n        /* \"#utility.yul\":14971:15042   */\n      tag_540\n        /* \"#utility.yul\":15039:15040   */\n      0x00\n        /* \"#utility.yul\":15028:15037   */\n      dup4\n        /* \"#utility.yul\":15024:15041   */\n      add\n        /* \"#utility.yul\":15015:15021   */\n      dup5\n        /* \"#utility.yul\":14971:15042   */\n      tag_352\n      jump\t// in\n    tag_540:\n        /* \"#utility.yul\":14827:15049   */\n      swap3\n      swap2\n      pop\n      pop\n      jump\t// out\n        /* \"#utility.yul\":15055:15235   */\n    tag_124:\n        /* \"#utility.yul\":15103:15180   */\n      0x4e487b7100000000000000000000000000000000000000000000000000000000\n        /* \"#utility.yul\":15100:15101   */\n      0x00\n        /* \"#utility.yul\":15093:15181   */\n      mstore\n        /* \"#utility.yul\":15200:15204   */\n      0x21\n        /* \"#utility.yul\":15197:15198   */\n      0x04\n        /* \"#utility.yul\":15190:15205   */\n      mstore\n        /* \"#utility.yul\":15224:15228   */\n      0x24\n        /* \"#utility.yul\":15221:15222   */\n      0x00\n        /* \"#utility.yul\":15214:15229   */\n      revert\n        /* \"#utility.yul\":15241:15354   */\n    tag_353:\n        /* \"#utility.yul\":15322:15323   */\n      0x03\n        /* \"#utility.yul\":15315:15320   */\n      dup2\n        /* \"#utility.yul\":15312:15324   */\n      lt\n        /* \"#utility.yul\":15302:15348   */\n      tag_543\n      jumpi\n        /* \"#utility.yul\":15328:15346   */\n      tag_544\n      tag_124\n      jump\t// in\n    tag_544:\n        /* \"#utility.yul\":15302:15348   */\n    tag_543:\n        /* \"#utility.yul\":15241:15354   */\n      pop\n      jump\t// out\n        /* \"#utility.yul\":15360:15487   */\n    tag_354:\n        /* \"#utility.yul\":15405:15412   */\n      0x00\n        /* \"#utility.yul\":15434:15439   */\n      dup2\n        /* \"#utility.yul\":15423:15439   */\n      swap1\n      pop\n        /* \"#utility.yul\":15440:15481   */\n      tag_546\n        /* \"#utility.yul\":15475:15480   */\n      dup3\n        /* \"#utility.yul\":15440:15481   */\n      tag_353\n      jump\t// in\n    tag_546:\n        /* \"#utility.yul\":15360:15487   */\n      swap2\n      swap1\n      pop\n      jump\t// out\n        /* \"#utility.yul\":15493:15620   */\n    tag_355:\n        /* \"#utility.yul\":15549:15558   */\n      0x00\n        /* \"#utility.yul\":15582:15614   */\n      tag_548\n        /* \"#utility.yul\":15608:15613   */\n      dup3\n        /* \"#utility.yul\":15582:15614   */\n      tag_354\n      jump\t// in\n    tag_548:\n        /* \"#utility.yul\":15569:15614   */\n      swap1\n      pop\n        /* \"#utility.yul\":15493:15620   */\n      swap2\n      swap1\n      pop\n      jump\t// out\n        /* \"#utility.yul\":15626:15769   */\n    tag_356:\n        /* \"#utility.yul\":15719:15762   */\n      tag_550\n        /* \"#utility.yul\":15756:15761   */\n      dup2\n        /* \"#utility.yul\":15719:15762   */\n      tag_355\n      jump\t// in\n    tag_550:\n        /* \"#utility.yul\":15714:15717   */\n      dup3\n        /* \"#utility.yul\":15707:15763   */\n      mstore\n        /* \"#utility.yul\":15626:15769   */\n      pop\n      pop\n      jump\t// out\n        /* \"#utility.yul\":15775:16009   */\n    tag_73:\n        /* \"#utility.yul\":15874:15878   */\n      0x00\n        /* \"#utility.yul\":15912:15914   */\n      0x20\n        /* \"#utility.yul\":15901:15910   */\n      dup3\n        /* \"#utility.yul\":15897:15915   */\n      add\n        /* \"#utility.yul\":15889:15915   */\n      swap1\n      pop\n        /* \"#utility.yul\":15925:16002   */\n      tag_552\n        /* \"#utility.yul\":15999:16000   */\n      0x00\n        /* \"#utility.yul\":15988:15997   */\n      dup4\n        /* \"#utility.yul\":15984:16001   */\n      add\n        /* \"#utility.yul\":15975:15981   */\n      dup5\n        /* \"#utility.yul\":15925:16002   */\n      tag_356\n      jump\t// in\n    tag_552:\n        /* \"#utility.yul\":15775:16009   */\n      swap3\n      swap2\n      pop\n      pop\n      jump\t// out\n        /* \"#utility.yul\":16015:16132   */\n    tag_357:\n        /* \"#utility.yul\":16124:16125   */\n      0x00\n        /* \"#utility.yul\":16121:16122   */\n      0x00\n        /* \"#utility.yul\":16114:16126   */\n      revert\n        /* \"#utility.yul\":16138:16255   */\n    tag_358:\n        /* \"#utility.yul\":16247:16248   */\n      0x00\n        /* \"#utility.yul\":16244:16245   */\n      0x00\n        /* \"#utility.yul\":16237:16249   */\n      revert\n        /* \"#utility.yul\":16261:16378   */\n    tag_359:\n        /* \"#utility.yul\":16370:16371   */\n      0x00\n        /* \"#utility.yul\":16367:16368   */\n      0x00\n        /* \"#utility.yul\":16360:16372   */\n      revert\n        /* \"#utility.yul\":16398:16951   */\n    tag_360:\n        /* \"#utility.yul\":16456:16464   */\n      0x00\n        /* \"#utility.yul\":16466:16472   */\n      0x00\n        /* \"#utility.yul\":16516:16519   */\n      dup4\n        /* \"#utility.yul\":16509:16513   */\n      0x1f\n        /* \"#utility.yul\":16501:16507   */\n      dup5\n        /* \"#utility.yul\":16497:16514   */\n      add\n        /* \"#utility.yul\":16493:16520   */\n      slt\n        /* \"#utility.yul\":16483:16605   */\n      tag_557\n      jumpi\n        /* \"#utility.yul\":16524:16603   */\n      tag_558\n      tag_357\n      jump\t// in\n    tag_558:\n        /* \"#utility.yul\":16483:16605   */\n    tag_557:\n        /* \"#utility.yul\":16637:16643   */\n      dup3\n        /* \"#utility.yul\":16624:16644   */\n      calldataload\n        /* \"#utility.yul\":16614:16644   */\n      swap1\n      pop\n        /* \"#utility.yul\":16667:16685   */\n      0xffffffffffffffff\n        /* \"#utility.yul\":16659:16665   */\n      dup2\n        /* \"#utility.yul\":16656:16686   */\n      gt\n        /* \"#utility.yul\":16653:16770   */\n      iszero\n      tag_559\n      jumpi\n        /* \"#utility.yul\":16689:16768   */\n      tag_560\n      tag_358\n      jump\t// in\n    tag_560:\n        /* \"#utility.yul\":16653:16770   */\n    tag_559:\n        /* \"#utility.yul\":16803:16807   */\n      0x20\n        /* \"#utility.yul\":16795:16801   */\n      dup4\n        /* \"#utility.yul\":16791:16808   */\n      add\n        /* \"#utility.yul\":16779:16808   */\n      swap2\n      pop\n        /* \"#utility.yul\":16857:16860   */\n      dup4\n        /* \"#utility.yul\":16849:16853   */\n      0x01\n        /* \"#utility.yul\":16841:16847   */\n      dup3\n        /* \"#utility.yul\":16837:16854   */\n      mul\n        /* \"#utility.yul\":16827:16835   */\n      dup4\n        /* \"#utility.yul\":16823:16855   */\n      add\n        /* \"#utility.yul\":16820:16861   */\n      gt\n        /* \"#utility.yul\":16817:16945   */\n      iszero\n      tag_561\n      jumpi\n        /* \"#utility.yul\":16864:16943   */\n      tag_562\n      tag_359\n      jump\t// in\n    tag_562:\n        /* \"#utility.yul\":16817:16945   */\n    tag_561:\n        /* \"#utility.yul\":16398:16951   */\n      swap3\n      pop\n      swap3\n      swap1\n      pop\n      jump\t// out\n        /* \"#utility.yul\":16957:17776   */\n    tag_76:\n        /* \"#utility.yul\":17046:17052   */\n      0x00\n        /* \"#utility.yul\":17054:17060   */\n      0x00\n        /* \"#utility.yul\":17062:17068   */\n      0x00\n        /* \"#utility.yul\":17070:17076   */\n      0x00\n        /* \"#utility.yul\":17119:17121   */\n      0x60\n        /* \"#utility.yul\":17107:17116   */\n      dup6\n        /* \"#utility.yul\":17098:17105   */\n      dup8\n        /* \"#utility.yul\":17094:17117   */\n      sub\n        /* \"#utility.yul\":17090:17122   */\n      slt\n        /* \"#utility.yul\":17087:17206   */\n      iszero\n      tag_564\n      jumpi\n        /* \"#utility.yul\":17125:17204   */\n      tag_565\n      tag_316\n      jump\t// in\n    tag_565:\n        /* \"#utility.yul\":17087:17206   */\n    tag_564:\n        /* \"#utility.yul\":17245:17246   */\n      0x00\n        /* \"#utility.yul\":17270:17323   */\n      tag_566\n        /* \"#utility.yul\":17315:17322   */\n      dup8\n        /* \"#utility.yul\":17306:17312   */\n      dup3\n        /* \"#utility.yul\":17295:17304   */\n      dup9\n        /* \"#utility.yul\":17291:17313   */\n      add\n        /* \"#utility.yul\":17270:17323   */\n      tag_320\n      jump\t// in\n    tag_566:\n        /* \"#utility.yul\":17260:17323   */\n      swap5\n      pop\n        /* \"#utility.yul\":17216:17333   */\n      pop\n        /* \"#utility.yul\":17372:17374   */\n      0x20\n        /* \"#utility.yul\":17398:17451   */\n      tag_567\n        /* \"#utility.yul\":17443:17450   */\n      dup8\n        /* \"#utility.yul\":17434:17440   */\n      dup3\n        /* \"#utility.yul\":17423:17432   */\n      dup9\n        /* \"#utility.yul\":17419:17441   */\n      add\n        /* \"#utility.yul\":17398:17451   */\n      tag_320\n      jump\t// in\n    tag_567:\n        /* \"#utility.yul\":17388:17451   */\n      swap4\n      pop\n        /* \"#utility.yul\":17343:17461   */\n      pop\n        /* \"#utility.yul\":17528:17530   */\n      0x40\n        /* \"#utility.yul\":17517:17526   */\n      dup6\n        /* \"#utility.yul\":17513:17531   */\n      add\n        /* \"#utility.yul\":17500:17532   */\n      calldataload\n        /* \"#utility.yul\":17559:17577   */\n      0xffffffffffffffff\n        /* \"#utility.yul\":17551:17557   */\n      dup2\n        /* \"#utility.yul\":17548:17578   */\n      gt\n        /* \"#utility.yul\":17545:17662   */\n      iszero\n      tag_568\n      jumpi\n        /* \"#utility.yul\":17581:17660   */\n      tag_569\n      tag_317\n      jump\t// in\n    tag_569:\n        /* \"#utility.yul\":17545:17662   */\n    tag_568:\n        /* \"#utility.yul\":17694:17759   */\n      tag_570\n        /* \"#utility.yul\":17751:17758   */\n      dup8\n        /* \"#utility.yul\":17742:17748   */\n      dup3\n        /* \"#utility.yul\":17731:17740   */\n      dup9\n        /* \"#utility.yul\":17727:17749   */\n      add\n        /* \"#utility.yul\":17694:17759   */\n      tag_360\n      jump\t// in\n    tag_570:\n        /* \"#utility.yul\":17676:17759   */\n      swap3\n      pop\n      swap3\n      pop\n        /* \"#utility.yul\":17471:17769   */\n      pop\n        /* \"#utility.yul\":16957:17776   */\n      swap3\n      swap6\n      swap2\n      swap5\n      pop\n      swap3\n      pop\n      jump\t// out\n        /* \"#utility.yul\":17838:18966   */\n    tag_361:\n        /* \"#utility.yul\":17955:17958   */\n      0x00\n        /* \"#utility.yul\":17991:17995   */\n      0xa0\n        /* \"#utility.yul\":17986:17989   */\n      dup4\n        /* \"#utility.yul\":17982:17996   */\n      add\n        /* \"#utility.yul\":18078:18082   */\n      0x00\n        /* \"#utility.yul\":18071:18076   */\n      dup4\n        /* \"#utility.yul\":18067:18083   */\n      add\n        /* \"#utility.yul\":18061:18084   */\n      mload\n        /* \"#utility.yul\":18131:18134   */\n      dup5\n        /* \"#utility.yul\":18125:18129   */\n      dup3\n        /* \"#utility.yul\":18121:18135   */\n      sub\n        /* \"#utility.yul\":18114:18118   */\n      0x00\n        /* \"#utility.yul\":18109:18112   */\n      dup7\n        /* \"#utility.yul\":18105:18119   */\n      add\n        /* \"#utility.yul\":18098:18136   */\n      mstore\n        /* \"#utility.yul\":18157:18230   */\n      tag_572\n        /* \"#utility.yul\":18225:18229   */\n      dup3\n        /* \"#utility.yul\":18211:18223   */\n      dup3\n        /* \"#utility.yul\":18157:18230   */\n      tag_330\n      jump\t// in\n    tag_572:\n        /* \"#utility.yul\":18149:18230   */\n      swap2\n      pop\n        /* \"#utility.yul\":18006:18241   */\n      pop\n        /* \"#utility.yul\":18321:18325   */\n      0x20\n        /* \"#utility.yul\":18314:18319   */\n      dup4\n        /* \"#utility.yul\":18310:18326   */\n      add\n        /* \"#utility.yul\":18304:18327   */\n      mload\n        /* \"#utility.yul\":18340:18403   */\n      tag_573\n        /* \"#utility.yul\":18397:18401   */\n      0x20\n        /* \"#utility.yul\":18392:18395   */\n      dup7\n        /* \"#utility.yul\":18388:18402   */\n      add\n        /* \"#utility.yul\":18374:18386   */\n      dup3\n        /* \"#utility.yul\":18340:18403   */\n      tag_325\n      jump\t// in\n    tag_573:\n        /* \"#utility.yul\":18251:18413   */\n      pop\n        /* \"#utility.yul\":18500:18504   */\n      0x40\n        /* \"#utility.yul\":18493:18498   */\n      dup4\n        /* \"#utility.yul\":18489:18505   */\n      add\n        /* \"#utility.yul\":18483:18506   */\n      mload\n        /* \"#utility.yul\":18519:18582   */\n      tag_574\n        /* \"#utility.yul\":18576:18580   */\n      0x40\n        /* \"#utility.yul\":18571:18574   */\n      dup7\n        /* \"#utility.yul\":18567:18581   */\n      add\n        /* \"#utility.yul\":18553:18565   */\n      dup3\n        /* \"#utility.yul\":18519:18582   */\n      tag_325\n      jump\t// in\n    tag_574:\n        /* \"#utility.yul\":18423:18592   */\n      pop\n        /* \"#utility.yul\":18677:18681   */\n      0x60\n        /* \"#utility.yul\":18670:18675   */\n      dup4\n        /* \"#utility.yul\":18666:18682   */\n      add\n        /* \"#utility.yul\":18660:18683   */\n      mload\n        /* \"#utility.yul\":18696:18759   */\n      tag_575\n        /* \"#utility.yul\":18753:18757   */\n      0x60\n        /* \"#utility.yul\":18748:18751   */\n      dup7\n        /* \"#utility.yul\":18744:18758   */\n      add\n        /* \"#utility.yul\":18730:18742   */\n      dup3\n        /* \"#utility.yul\":18696:18759   */\n      tag_325\n      jump\t// in\n    tag_575:\n        /* \"#utility.yul\":18602:18769   */\n      pop\n        /* \"#utility.yul\":18853:18857   */\n      0x80\n        /* \"#utility.yul\":18846:18851   */\n      dup4\n        /* \"#utility.yul\":18842:18858   */\n      add\n        /* \"#utility.yul\":18836:18859   */\n      mload\n        /* \"#utility.yul\":18872:18929   */\n      tag_576\n        /* \"#utility.yul\":18923:18927   */\n      0x80\n        /* \"#utility.yul\":18918:18921   */\n      dup7\n        /* \"#utility.yul\":18914:18928   */\n      add\n        /* \"#utility.yul\":18900:18912   */\n      dup3\n        /* \"#utility.yul\":18872:18929   */\n      tag_347\n      jump\t// in\n    tag_576:\n        /* \"#utility.yul\":18779:18939   */\n      pop\n        /* \"#utility.yul\":18956:18960   */\n      dup1\n        /* \"#utility.yul\":18949:18960   */\n      swap2\n      pop\n        /* \"#utility.yul\":17960:18966   */\n      pop\n        /* \"#utility.yul\":17838:18966   */\n      swap3\n      swap2\n      pop\n      pop\n      jump\t// out\n        /* \"#utility.yul\":18972:19463   */\n    tag_85:\n        /* \"#utility.yul\":19147:19151   */\n      0x00\n        /* \"#utility.yul\":19185:19187   */\n      0x40\n        /* \"#utility.yul\":19174:19183   */\n      dup3\n        /* \"#utility.yul\":19170:19188   */\n      add\n        /* \"#utility.yul\":19162:19188   */\n      swap1\n      pop\n        /* \"#utility.yul\":19234:19243   */\n      dup2\n        /* \"#utility.yul\":19228:19232   */\n      dup2\n        /* \"#utility.yul\":19224:19244   */\n      sub\n        /* \"#utility.yul\":19220:19221   */\n      0x00\n        /* \"#utility.yul\":19209:19218   */\n      dup4\n        /* \"#utility.yul\":19205:19222   */\n      add\n        /* \"#utility.yul\":19198:19245   */\n      mstore\n        /* \"#utility.yul\":19262:19368   */\n      tag_578\n        /* \"#utility.yul\":19363:19367   */\n      dup2\n        /* \"#utility.yul\":19354:19360   */\n      dup6\n        /* \"#utility.yul\":19262:19368   */\n      tag_361\n      jump\t// in\n    tag_578:\n        /* \"#utility.yul\":19254:19368   */\n      swap1\n      pop\n        /* \"#utility.yul\":19378:19456   */\n      tag_579\n        /* \"#utility.yul\":19452:19454   */\n      0x20\n        /* \"#utility.yul\":19441:19450   */\n      dup4\n        /* \"#utility.yul\":19437:19455   */\n      add\n        /* \"#utility.yul\":19428:19434   */\n      dup5\n        /* \"#utility.yul\":19378:19456   */\n      tag_356\n      jump\t// in\n    tag_579:\n        /* \"#utility.yul\":18972:19463   */\n      swap4\n      swap3\n      pop\n      pop\n      pop\n      jump\t// out\n        /* \"#utility.yul\":19469:20434   */\n    tag_88:\n        /* \"#utility.yul\":19567:19573   */\n      0x00\n        /* \"#utility.yul\":19575:19581   */\n      0x00\n        /* \"#utility.yul\":19583:19589   */\n      0x00\n        /* \"#utility.yul\":19591:19597   */\n      0x00\n        /* \"#utility.yul\":19599:19605   */\n      0x00\n        /* \"#utility.yul\":19648:19651   */\n      0x80\n        /* \"#utility.yul\":19636:19645   */\n      dup7\n        /* \"#utility.yul\":19627:19634   */\n      dup9\n        /* \"#utility.yul\":19623:19646   */\n      sub\n        /* \"#utility.yul\":19619:19652   */\n      slt\n        /* \"#utility.yul\":19616:19736   */\n      iszero\n      tag_581\n      jumpi\n        /* \"#utility.yul\":19655:19734   */\n      tag_582\n      tag_316\n      jump\t// in\n    tag_582:\n        /* \"#utility.yul\":19616:19736   */\n    tag_581:\n        /* \"#utility.yul\":19803:19804   */\n      0x00\n        /* \"#utility.yul\":19792:19801   */\n      dup7\n        /* \"#utility.yul\":19788:19805   */\n      add\n        /* \"#utility.yul\":19775:19806   */\n      calldataload\n        /* \"#utility.yul\":19833:19851   */\n      0xffffffffffffffff\n        /* \"#utility.yul\":19825:19831   */\n      dup2\n        /* \"#utility.yul\":19822:19852   */\n      gt\n        /* \"#utility.yul\":19819:19936   */\n      iszero\n      tag_583\n      jumpi\n        /* \"#utility.yul\":19855:19934   */\n      tag_584\n      tag_317\n      jump\t// in\n    tag_584:\n        /* \"#utility.yul\":19819:19936   */\n    tag_583:\n        /* \"#utility.yul\":19968:20033   */\n      tag_585\n        /* \"#utility.yul\":20025:20032   */\n      dup9\n        /* \"#utility.yul\":20016:20022   */\n      dup3\n        /* \"#utility.yul\":20005:20014   */\n      dup10\n        /* \"#utility.yul\":20001:20023   */\n      add\n        /* \"#utility.yul\":19968:20033   */\n      tag_360\n      jump\t// in\n    tag_585:\n        /* \"#utility.yul\":19950:20033   */\n      swap6\n      pop\n      swap6\n      pop\n        /* \"#utility.yul\":19746:20043   */\n      pop\n        /* \"#utility.yul\":20082:20084   */\n      0x20\n        /* \"#utility.yul\":20108:20161   */\n      tag_586\n        /* \"#utility.yul\":20153:20160   */\n      dup9\n        /* \"#utility.yul\":20144:20150   */\n      dup3\n        /* \"#utility.yul\":20133:20142   */\n      dup10\n        /* \"#utility.yul\":20129:20151   */\n      add\n        /* \"#utility.yul\":20108:20161   */\n      tag_320\n      jump\t// in\n    tag_586:\n        /* \"#utility.yul\":20098:20161   */\n      swap4\n      pop\n        /* \"#utility.yul\":20053:20171   */\n      pop\n        /* \"#utility.yul\":20210:20212   */\n      0x40\n        /* \"#utility.yul\":20236:20289   */\n      tag_587\n        /* \"#utility.yul\":20281:20288   */\n      dup9\n        /* \"#utility.yul\":20272:20278   */\n      dup3\n        /* \"#utility.yul\":20261:20270   */\n      dup10\n        /* \"#utility.yul\":20257:20279   */\n      add\n        /* \"#utility.yul\":20236:20289   */\n      tag_320\n      jump\t// in\n    tag_587:\n        /* \"#utility.yul\":20226:20289   */\n      swap3\n      pop\n        /* \"#utility.yul\":20181:20299   */\n      pop\n        /* \"#utility.yul\":20338:20340   */\n      0x60\n        /* \"#utility.yul\":20364:20417   */\n      tag_588\n        /* \"#utility.yul\":20409:20416   */\n      dup9\n        /* \"#utility.yul\":20400:20406   */\n      dup3\n        /* \"#utility.yul\":20389:20398   */\n      dup10\n        /* \"#utility.yul\":20385:20407   */\n      add\n        /* \"#utility.yul\":20364:20417   */\n      tag_320\n      jump\t// in\n    tag_588:\n        /* \"#utility.yul\":20354:20417   */\n      swap2\n      pop\n        /* \"#utility.yul\":20309:20427   */\n      pop\n        /* \"#utility.yul\":19469:20434   */\n      swap3\n      swap6\n      pop\n      swap3\n      swap6\n      swap1\n      swap4\n      pop\n      jump\t// out\n        /* \"#utility.yul\":20440:20620   */\n    tag_101:\n        /* \"#utility.yul\":20488:20565   */\n      0x4e487b7100000000000000000000000000000000000000000000000000000000\n        /* \"#utility.yul\":20485:20486   */\n      0x00\n        /* \"#utility.yul\":20478:20566   */\n      mstore\n        /* \"#utility.yul\":20585:20589   */\n      0x41\n        /* \"#utility.yul\":20582:20583   */\n      0x04\n        /* \"#utility.yul\":20575:20590   */\n      mstore\n        /* \"#utility.yul\":20609:20613   */\n      0x24\n        /* \"#utility.yul\":20606:20607   */\n      0x00\n        /* \"#utility.yul\":20599:20614   */\n      revert\n        /* \"#utility.yul\":20626:20806   */\n    tag_111:\n        /* \"#utility.yul\":20674:20751   */\n      0x4e487b7100000000000000000000000000000000000000000000000000000000\n        /* \"#utility.yul\":20671:20672   */\n      0x00\n        /* \"#utility.yul\":20664:20752   */\n      mstore\n        /* \"#utility.yul\":20771:20775   */\n      0x32\n        /* \"#utility.yul\":20768:20769   */\n      0x04\n        /* \"#utility.yul\":20761:20776   */\n      mstore\n        /* \"#utility.yul\":20795:20799   */\n      0x24\n        /* \"#utility.yul\":20792:20793   */\n      0x00\n        /* \"#utility.yul\":20785:20800   */\n      revert\n        /* \"#utility.yul\":20812:20992   */\n    tag_362:\n        /* \"#utility.yul\":20860:20937   */\n      0x4e487b7100000000000000000000000000000000000000000000000000000000\n        /* \"#utility.yul\":20857:20858   */\n      0x00\n        /* \"#utility.yul\":20850:20938   */\n      mstore\n        /* \"#utility.yul\":20957:20961   */\n      0x22\n        /* \"#utility.yul\":20954:20955   */\n      0x04\n        /* \"#utility.yul\":20947:20962   */\n      mstore\n        /* \"#utility.yul\":20981:20985   */\n      0x24\n        /* \"#utility.yul\":20978:20979   */\n      0x00\n        /* \"#utility.yul\":20971:20986   */\n      revert\n        /* \"#utility.yul\":20998:21318   */\n    tag_113:\n        /* \"#utility.yul\":21042:21048   */\n      0x00\n        /* \"#utility.yul\":21079:21080   */\n      0x02\n        /* \"#utility.yul\":21073:21077   */\n      dup3\n        /* \"#utility.yul\":21069:21081   */\n      div\n        /* \"#utility.yul\":21059:21081   */\n      swap1\n      pop\n        /* \"#utility.yul\":21126:21127   */\n      0x01\n        /* \"#utility.yul\":21120:21124   */\n      dup3\n        /* \"#utility.yul\":21116:21128   */\n      and\n        /* \"#utility.yul\":21147:21165   */\n      dup1\n        /* \"#utility.yul\":21137:21218   */\n      tag_593\n      jumpi\n        /* \"#utility.yul\":21203:21207   */\n      0x7f\n        /* \"#utility.yul\":21195:21201   */\n      dup3\n        /* \"#utility.yul\":21191:21208   */\n      and\n        /* \"#utility.yul\":21181:21208   */\n      swap2\n      pop\n        /* \"#utility.yul\":21137:21218   */\n    tag_593:\n        /* \"#utility.yul\":21265:21267   */\n      0x20\n        /* \"#utility.yul\":21257:21263   */\n      dup3\n        /* \"#utility.yul\":21254:21268   */\n      lt\n        /* \"#utility.yul\":21234:21252   */\n      dup2\n        /* \"#utility.yul\":21231:21269   */\n      sub\n        /* \"#utility.yul\":21228:21312   */\n      tag_594\n      jumpi\n        /* \"#utility.yul\":21284:21302   */\n      tag_595\n      tag_362\n      jump\t// in\n    tag_595:\n        /* \"#utility.yul\":21228:21312   */\n    tag_594:\n        /* \"#utility.yul\":21049:21318   */\n      pop\n        /* \"#utility.yul\":20998:21318   */\n      swap2\n      swap1\n      pop\n      jump\t// out\n        /* \"#utility.yul\":21324:21495   */\n    tag_363:\n        /* \"#utility.yul\":21464:21487   */\n      0x456c656374696f6e206973206e6f7420656e6465640000000000000000000000\n        /* \"#utility.yul\":21460:21461   */\n      0x00\n        /* \"#utility.yul\":21452:21458   */\n      dup3\n        /* \"#utility.yul\":21448:21462   */\n      add\n        /* \"#utility.yul\":21441:21488   */\n      mstore\n        /* \"#utility.yul\":21324:21495   */\n      pop\n      jump\t// out\n        /* \"#utility.yul\":21501:21867   */\n    tag_364:\n        /* \"#utility.yul\":21643:21646   */\n      0x00\n        /* \"#utility.yul\":21664:21731   */\n      tag_598\n        /* \"#utility.yul\":21728:21730   */\n      0x15\n        /* \"#utility.yul\":21723:21726   */\n      dup4\n        /* \"#utility.yul\":21664:21731   */\n      tag_342\n      jump\t// in\n    tag_598:\n        /* \"#utility.yul\":21657:21731   */\n      swap2\n      pop\n        /* \"#utility.yul\":21740:21833   */\n      tag_599\n        /* \"#utility.yul\":21829:21832   */\n      dup3\n        /* \"#utility.yul\":21740:21833   */\n      tag_363\n      jump\t// in\n    tag_599:\n        /* \"#utility.yul\":21858:21860   */\n      0x20\n        /* \"#utility.yul\":21853:21856   */\n      dup3\n        /* \"#utility.yul\":21849:21861   */\n      add\n        /* \"#utility.yul\":21842:21861   */\n      swap1\n      pop\n        /* \"#utility.yul\":21501:21867   */\n      swap2\n      swap1\n      pop\n      jump\t// out\n        /* \"#utility.yul\":21873:22292   */\n    tag_129:\n        /* \"#utility.yul\":22039:22043   */\n      0x00\n        /* \"#utility.yul\":22077:22079   */\n      0x20\n        /* \"#utility.yul\":22066:22075   */\n      dup3\n        /* \"#utility.yul\":22062:22080   */\n      add\n        /* \"#utility.yul\":22054:22080   */\n      swap1\n      pop\n        /* \"#utility.yul\":22126:22135   */\n      dup2\n        /* \"#utility.yul\":22120:22124   */\n      dup2\n        /* \"#utility.yul\":22116:22136   */\n      sub\n        /* \"#utility.yul\":22112:22113   */\n      0x00\n        /* \"#utility.yul\":22101:22110   */\n      dup4\n        /* \"#utility.yul\":22097:22114   */\n      add\n        /* \"#utility.yul\":22090:22137   */\n      mstore\n        /* \"#utility.yul\":22154:22285   */\n      tag_601\n        /* \"#utility.yul\":22280:22284   */\n      dup2\n        /* \"#utility.yul\":22154:22285   */\n      tag_364\n      jump\t// in\n    tag_601:\n        /* \"#utility.yul\":22146:22285   */\n      swap1\n      pop\n        /* \"#utility.yul\":21873:22292   */\n      swap2\n      swap1\n      pop\n      jump\t// out\n        /* \"#utility.yul\":22298:22478   */\n    tag_365:\n        /* \"#utility.yul\":22438:22470   */\n      0x4e6f2063616e6469646174657320696e207468697320656c656374696f6e0000\n        /* \"#utility.yul\":22434:22435   */\n      0x00\n        /* \"#utility.yul\":22426:22432   */\n      dup3\n        /* \"#utility.yul\":22422:22436   */\n      add\n        /* \"#utility.yul\":22415:22471   */\n      mstore\n        /* \"#utility.yul\":22298:22478   */\n      pop\n      jump\t// out\n        /* \"#utility.yul\":22484:22850   */\n    tag_366:\n        /* \"#utility.yul\":22626:22629   */\n      0x00\n        /* \"#utility.yul\":22647:22714   */\n      tag_604\n        /* \"#utility.yul\":22711:22713   */\n      0x1e\n        /* \"#utility.yul\":22706:22709   */\n      dup4\n        /* \"#utility.yul\":22647:22714   */\n      tag_342\n      jump\t// in\n    tag_604:\n        /* \"#utility.yul\":22640:22714   */\n      swap2\n      pop\n        /* \"#utility.yul\":22723:22816   */\n      tag_605\n        /* \"#utility.yul\":22812:22815   */\n      dup3\n        /* \"#utility.yul\":22723:22816   */\n      tag_365\n      jump\t// in\n    tag_605:\n        /* \"#utility.yul\":22841:22843   */\n      0x20\n        /* \"#utility.yul\":22836:22839   */\n      dup3\n        /* \"#utility.yul\":22832:22844   */\n      add\n        /* \"#utility.yul\":22825:22844   */\n      swap1\n      pop\n        /* \"#utility.yul\":22484:22850   */\n      swap2\n      swap1\n      pop\n      jump\t// out\n        /* \"#utility.yul\":22856:23275   */\n    tag_134:\n        /* \"#utility.yul\":23022:23026   */\n      0x00\n        /* \"#utility.yul\":23060:23062   */\n      0x20\n        /* \"#utility.yul\":23049:23058   */\n      dup3\n        /* \"#utility.yul\":23045:23063   */\n      add\n        /* \"#utility.yul\":23037:23063   */\n      swap1\n      pop\n        /* \"#utility.yul\":23109:23118   */\n      dup2\n        /* \"#utility.yul\":23103:23107   */\n      dup2\n        /* \"#utility.yul\":23099:23119   */\n      sub\n        /* \"#utility.yul\":23095:23096   */\n      0x00\n        /* \"#utility.yul\":23084:23093   */\n      dup4\n        /* \"#utility.yul\":23080:23097   */\n      add\n        /* \"#utility.yul\":23073:23120   */\n      mstore\n        /* \"#utility.yul\":23137:23268   */\n      tag_607\n        /* \"#utility.yul\":23263:23267   */\n      dup2\n        /* \"#utility.yul\":23137:23268   */\n      tag_366\n      jump\t// in\n    tag_607:\n        /* \"#utility.yul\":23129:23268   */\n      swap1\n      pop\n        /* \"#utility.yul\":22856:23275   */\n      swap2\n      swap1\n      pop\n      jump\t// out\n        /* \"#utility.yul\":23281:23452   */\n    tag_367:\n        /* \"#utility.yul\":23421:23444   */\n      0x596f7520617265206e6f7420746865206f776e65720000000000000000000000\n        /* \"#utility.yul\":23417:23418   */\n      0x00\n        /* \"#utility.yul\":23409:23415   */\n      dup3\n        /* \"#utility.yul\":23405:23419   */\n      add\n        /* \"#utility.yul\":23398:23445   */\n      mstore\n        /* \"#utility.yul\":23281:23452   */\n      pop\n      jump\t// out\n        /* \"#utility.yul\":23458:23824   */\n    tag_368:\n        /* \"#utility.yul\":23600:23603   */\n      0x00\n        /* \"#utility.yul\":23621:23688   */\n      tag_610\n        /* \"#utility.yul\":23685:23687   */\n      0x15\n        /* \"#utility.yul\":23680:23683   */\n      dup4\n        /* \"#utility.yul\":23621:23688   */\n      tag_342\n      jump\t// in\n    tag_610:\n        /* \"#utility.yul\":23614:23688   */\n      swap2\n      pop\n        /* \"#utility.yul\":23697:23790   */\n      tag_611\n        /* \"#utility.yul\":23786:23789   */\n      dup3\n        /* \"#utility.yul\":23697:23790   */\n      tag_367\n      jump\t// in\n    tag_611:\n        /* \"#utility.yul\":23815:23817   */\n      0x20\n        /* \"#utility.yul\":23810:23813   */\n      dup3\n        /* \"#utility.yul\":23806:23818   */\n      add\n        /* \"#utility.yul\":23799:23818   */\n      swap1\n      pop\n        /* \"#utility.yul\":23458:23824   */\n      swap2\n      swap1\n      pop\n      jump\t// out\n        /* \"#utility.yul\":23830:24249   */\n    tag_158:\n        /* \"#utility.yul\":23996:24000   */\n      0x00\n        /* \"#utility.yul\":24034:24036   */\n      0x20\n        /* \"#utility.yul\":24023:24032   */\n      dup3\n        /* \"#utility.yul\":24019:24037   */\n      add\n        /* \"#utility.yul\":24011:24037   */\n      swap1\n      pop\n        /* \"#utility.yul\":24083:24092   */\n      dup2\n        /* \"#utility.yul\":24077:24081   */\n      dup2\n        /* \"#utility.yul\":24073:24093   */\n      sub\n        /* \"#utility.yul\":24069:24070   */\n      0x00\n        /* \"#utility.yul\":24058:24067   */\n      dup4\n        /* \"#utility.yul\":24054:24071   */\n      add\n        /* \"#utility.yul\":24047:24094   */\n      mstore\n        /* \"#utility.yul\":24111:24242   */\n      tag_613\n        /* \"#utility.yul\":24237:24241   */\n      dup2\n        /* \"#utility.yul\":24111:24242   */\n      tag_368\n      jump\t// in\n    tag_613:\n        /* \"#utility.yul\":24103:24242   */\n      swap1\n      pop\n        /* \"#utility.yul\":23830:24249   */\n      swap2\n      swap1\n      pop\n      jump\t// out\n        /* \"#utility.yul\":24255:24427   */\n    tag_369:\n        /* \"#utility.yul\":24395:24419   */\n      0x456c656374696f6e20616c726561647920656e64656400000000000000000000\n        /* \"#utility.yul\":24391:24392   */\n      0x00\n        /* \"#utility.yul\":24383:24389   */\n      dup3\n        /* \"#utility.yul\":24379:24393   */\n      add\n        /* \"#utility.yul\":24372:24420   */\n      mstore\n        /* \"#utility.yul\":24255:24427   */\n      pop\n      jump\t// out\n        /* \"#utility.yul\":24433:24799   */\n    tag_370:\n        /* \"#utility.yul\":24575:24578   */\n      0x00\n        /* \"#utility.yul\":24596:24663   */\n      tag_616\n        /* \"#utility.yul\":24660:24662   */\n      0x16\n        /* \"#utility.yul\":24655:24658   */\n      dup4\n        /* \"#utility.yul\":24596:24663   */\n      tag_342\n      jump\t// in\n    tag_616:\n        /* \"#utility.yul\":24589:24663   */\n      swap2\n      pop\n        /* \"#utility.yul\":24672:24765   */\n      tag_617\n        /* \"#utility.yul\":24761:24764   */\n      dup3\n        /* \"#utility.yul\":24672:24765   */\n      tag_369\n      jump\t// in\n    tag_617:\n        /* \"#utility.yul\":24790:24792   */\n      0x20\n        /* \"#utility.yul\":24785:24788   */\n      dup3\n        /* \"#utility.yul\":24781:24793   */\n      add\n        /* \"#utility.yul\":24774:24793   */\n      swap1\n      pop\n        /* \"#utility.yul\":24433:24799   */\n      swap2\n      swap1\n      pop\n      jump\t// out\n        /* \"#utility.yul\":24805:25224   */\n    tag_166:\n        /* \"#utility.yul\":24971:24975   */\n      0x00\n        /* \"#utility.yul\":25009:25011   */\n      0x20\n        /* \"#utility.yul\":24998:25007   */\n      dup3\n        /* \"#utility.yul\":24994:25012   */\n      add\n        /* \"#utility.yul\":24986:25012   */\n      swap1\n      pop\n        /* \"#utility.yul\":25058:25067   */\n      dup2\n        /* \"#utility.yul\":25052:25056   */\n      dup2\n        /* \"#utility.yul\":25048:25068   */\n      sub\n        /* \"#utility.yul\":25044:25045   */\n      0x00\n        /* \"#utility.yul\":25033:25042   */\n      dup4\n        /* \"#utility.yul\":25029:25046   */\n      add\n        /* \"#utility.yul\":25022:25069   */\n      mstore\n        /* \"#utility.yul\":25086:25217   */\n      tag_619\n        /* \"#utility.yul\":25212:25216   */\n      dup2\n        /* \"#utility.yul\":25086:25217   */\n      tag_370\n      jump\t// in\n    tag_619:\n        /* \"#utility.yul\":25078:25217   */\n      swap1\n      pop\n        /* \"#utility.yul\":24805:25224   */\n      swap2\n      swap1\n      pop\n      jump\t// out\n        /* \"#utility.yul\":25230:25461   */\n    tag_371:\n        /* \"#utility.yul\":25370:25404   */\n      0x456c656374696f6e206973206e6f74206f6e676f696e6720746f206265206d61\n        /* \"#utility.yul\":25366:25367   */\n      0x00\n        /* \"#utility.yul\":25358:25364   */\n      dup3\n        /* \"#utility.yul\":25354:25368   */\n      add\n        /* \"#utility.yul\":25347:25405   */\n      mstore\n        /* \"#utility.yul\":25439:25453   */\n      0x6e75616c6c7920656e6465640000000000000000000000000000000000000000\n        /* \"#utility.yul\":25434:25436   */\n      0x20\n        /* \"#utility.yul\":25426:25432   */\n      dup3\n        /* \"#utility.yul\":25422:25437   */\n      add\n        /* \"#utility.yul\":25415:25454   */\n      mstore\n        /* \"#utility.yul\":25230:25461   */\n      pop\n      jump\t// out\n        /* \"#utility.yul\":25467:25833   */\n    tag_372:\n        /* \"#utility.yul\":25609:25612   */\n      0x00\n        /* \"#utility.yul\":25630:25697   */\n      tag_622\n        /* \"#utility.yul\":25694:25696   */\n      0x2c\n        /* \"#utility.yul\":25689:25692   */\n      dup4\n        /* \"#utility.yul\":25630:25697   */\n      tag_342\n      jump\t// in\n    tag_622:\n        /* \"#utility.yul\":25623:25697   */\n      swap2\n      pop\n        /* \"#utility.yul\":25706:25799   */\n      tag_623\n        /* \"#utility.yul\":25795:25798   */\n      dup3\n        /* \"#utility.yul\":25706:25799   */\n      tag_371\n      jump\t// in\n    tag_623:\n        /* \"#utility.yul\":25824:25826   */\n      0x40\n        /* \"#utility.yul\":25819:25822   */\n      dup3\n        /* \"#utility.yul\":25815:25827   */\n      add\n        /* \"#utility.yul\":25808:25827   */\n      swap1\n      pop\n        /* \"#utility.yul\":25467:25833   */\n      swap2\n      swap1\n      pop\n      jump\t// out\n        /* \"#utility.yul\":25839:26258   */\n    tag_173:\n        /* \"#utility.yul\":26005:26009   */\n      0x00\n        /* \"#utility.yul\":26043:26045   */\n      0x20\n        /* \"#utility.yul\":26032:26041   */\n      dup3\n        /* \"#utility.yul\":26028:26046   */\n      add\n        /* \"#utility.yul\":26020:26046   */\n      swap1\n      pop\n        /* \"#utility.yul\":26092:26101   */\n      dup2\n        /* \"#utility.yul\":26086:26090   */\n      dup2\n        /* \"#utility.yul\":26082:26102   */\n      sub\n        /* \"#utility.yul\":26078:26079   */\n      0x00\n        /* \"#utility.yul\":26067:26076   */\n      dup4\n        /* \"#utility.yul\":26063:26080   */\n      add\n        /* \"#utility.yul\":26056:26103   */\n      mstore\n        /* \"#utility.yul\":26120:26251   */\n      tag_625\n        /* \"#utility.yul\":26246:26250   */\n      dup2\n        /* \"#utility.yul\":26120:26251   */\n      tag_372\n      jump\t// in\n    tag_625:\n        /* \"#utility.yul\":26112:26251   */\n      swap1\n      pop\n        /* \"#utility.yul\":25839:26258   */\n      swap2\n      swap1\n      pop\n      jump\t// out\n        /* \"#utility.yul\":26264:26437   */\n    tag_373:\n        /* \"#utility.yul\":26404:26429   */\n      0x456c656374696f6e20646f6573206e6f74206578697374000000000000000000\n        /* \"#utility.yul\":26400:26401   */\n      0x00\n        /* \"#utility.yul\":26392:26398   */\n      dup3\n        /* \"#utility.yul\":26388:26402   */\n      add\n        /* \"#utility.yul\":26381:26430   */\n      mstore\n        /* \"#utility.yul\":26264:26437   */\n      pop\n      jump\t// out\n        /* \"#utility.yul\":26443:26809   */\n    tag_374:\n        /* \"#utility.yul\":26585:26588   */\n      0x00\n        /* \"#utility.yul\":26606:26673   */\n      tag_628\n        /* \"#utility.yul\":26670:26672   */\n      0x17\n        /* \"#utility.yul\":26665:26668   */\n      dup4\n        /* \"#utility.yul\":26606:26673   */\n      tag_342\n      jump\t// in\n    tag_628:\n        /* \"#utility.yul\":26599:26673   */\n      swap2\n      pop\n        /* \"#utility.yul\":26682:26775   */\n      tag_629\n        /* \"#utility.yul\":26771:26774   */\n      dup3\n        /* \"#utility.yul\":26682:26775   */\n      tag_373\n      jump\t// in\n    tag_629:\n        /* \"#utility.yul\":26800:26802   */\n      0x20\n        /* \"#utility.yul\":26795:26798   */\n      dup3\n        /* \"#utility.yul\":26791:26803   */\n      add\n        /* \"#utility.yul\":26784:26803   */\n      swap1\n      pop\n        /* \"#utility.yul\":26443:26809   */\n      swap2\n      swap1\n      pop\n      jump\t// out\n        /* \"#utility.yul\":26815:27234   */\n    tag_187:\n        /* \"#utility.yul\":26981:26985   */\n      0x00\n        /* \"#utility.yul\":27019:27021   */\n      0x20\n        /* \"#utility.yul\":27008:27017   */\n      dup3\n        /* \"#utility.yul\":27004:27022   */\n      add\n        /* \"#utility.yul\":26996:27022   */\n      swap1\n      pop\n        /* \"#utility.yul\":27068:27077   */\n      dup2\n        /* \"#utility.yul\":27062:27066   */\n      dup2\n        /* \"#utility.yul\":27058:27078   */\n      sub\n        /* \"#utility.yul\":27054:27055   */\n      0x00\n        /* \"#utility.yul\":27043:27052   */\n      dup4\n        /* \"#utility.yul\":27039:27056   */\n      add\n        /* \"#utility.yul\":27032:27079   */\n      mstore\n        /* \"#utility.yul\":27096:27227   */\n      tag_631\n        /* \"#utility.yul\":27222:27226   */\n      dup2\n        /* \"#utility.yul\":27096:27227   */\n      tag_374\n      jump\t// in\n    tag_631:\n        /* \"#utility.yul\":27088:27227   */\n      swap1\n      pop\n        /* \"#utility.yul\":26815:27234   */\n      swap2\n      swap1\n      pop\n      jump\t// out\n        /* \"#utility.yul\":27240:27460   */\n    tag_375:\n        /* \"#utility.yul\":27380:27414   */\n      0x456c656374696f6e20616c72656164792073746172746564206f7220656e6465\n        /* \"#utility.yul\":27376:27377   */\n      0x00\n        /* \"#utility.yul\":27368:27374   */\n      dup3\n        /* \"#utility.yul\":27364:27378   */\n      add\n        /* \"#utility.yul\":27357:27415   */\n      mstore\n        /* \"#utility.yul\":27449:27452   */\n      0x6400000000000000000000000000000000000000000000000000000000000000\n        /* \"#utility.yul\":27444:27446   */\n      0x20\n        /* \"#utility.yul\":27436:27442   */\n      dup3\n        /* \"#utility.yul\":27432:27447   */\n      add\n        /* \"#utility.yul\":27425:27453   */\n      mstore\n        /* \"#utility.yul\":27240:27460   */\n      pop\n      jump\t// out\n        /* \"#utility.yul\":27466:27832   */\n    tag_376:\n        /* \"#utility.yul\":27608:27611   */\n      0x00\n        /* \"#utility.yul\":27629:27696   */\n      tag_634\n        /* \"#utility.yul\":27693:27695   */\n      0x21\n        /* \"#utility.yul\":27688:27691   */\n      dup4\n        /* \"#utility.yul\":27629:27696   */\n      tag_342\n      jump\t// in\n    tag_634:\n        /* \"#utility.yul\":27622:27696   */\n      swap2\n      pop\n        /* \"#utility.yul\":27705:27798   */\n      tag_635\n        /* \"#utility.yul\":27794:27797   */\n      dup3\n        /* \"#utility.yul\":27705:27798   */\n      tag_375\n      jump\t// in\n    tag_635:\n        /* \"#utility.yul\":27823:27825   */\n      0x40\n        /* \"#utility.yul\":27818:27821   */\n      dup3\n        /* \"#utility.yul\":27814:27826   */\n      add\n        /* \"#utility.yul\":27807:27826   */\n      swap1\n      pop\n        /* \"#utility.yul\":27466:27832   */\n      swap2\n      swap1\n      pop\n      jump\t// out\n        /* \"#utility.yul\":27838:28257   */\n    tag_194:\n        /* \"#utility.yul\":28004:28008   */\n      0x00\n        /* \"#utility.yul\":28042:28044   */\n      0x20\n        /* \"#utility.yul\":28031:28040   */\n      dup3\n        /* \"#utility.yul\":28027:28045   */\n      add\n        /* \"#utility.yul\":28019:28045   */\n      swap1\n      pop\n        /* \"#utility.yul\":28091:28100   */\n      dup2\n        /* \"#utility.yul\":28085:28089   */\n      dup2\n        /* \"#utility.yul\":28081:28101   */\n      sub\n        /* \"#utility.yul\":28077:28078   */\n      0x00\n        /* \"#utility.yul\":28066:28075   */\n      dup4\n        /* \"#utility.yul\":28062:28079   */\n      add\n        /* \"#utility.yul\":28055:28102   */\n      mstore\n        /* \"#utility.yul\":28119:28250   */\n      tag_637\n        /* \"#utility.yul\":28245:28249   */\n      dup2\n        /* \"#utility.yul\":28119:28250   */\n      tag_376\n      jump\t// in\n    tag_637:\n        /* \"#utility.yul\":28111:28250   */\n      swap1\n      pop\n        /* \"#utility.yul\":27838:28257   */\n      swap2\n      swap1\n      pop\n      jump\t// out\n        /* \"#utility.yul\":28263:28432   */\n    tag_377:\n        /* \"#utility.yul\":28403:28424   */\n      0x4e6f2063616e6469646174657320616464656400000000000000000000000000\n        /* \"#utility.yul\":28399:28400   */\n      0x00\n        /* \"#utility.yul\":28391:28397   */\n      dup3\n        /* \"#utility.yul\":28387:28401   */\n      add\n        /* \"#utility.yul\":28380:28425   */\n      mstore\n        /* \"#utility.yul\":28263:28432   */\n      pop\n      jump\t// out\n        /* \"#utility.yul\":28438:28804   */\n    tag_378:\n        /* \"#utility.yul\":28580:28583   */\n      0x00\n        /* \"#utility.yul\":28601:28668   */\n      tag_640\n        /* \"#utility.yul\":28665:28667   */\n      0x13\n        /* \"#utility.yul\":28660:28663   */\n      dup4\n        /* \"#utility.yul\":28601:28668   */\n      tag_342\n      jump\t// in\n    tag_640:\n        /* \"#utility.yul\":28594:28668   */\n      swap2\n      pop\n        /* \"#utility.yul\":28677:28770   */\n      tag_641\n        /* \"#utility.yul\":28766:28769   */\n      dup3\n        /* \"#utility.yul\":28677:28770   */\n      tag_377\n      jump\t// in\n    tag_641:\n        /* \"#utility.yul\":28795:28797   */\n      0x20\n        /* \"#utility.yul\":28790:28793   */\n      dup3\n        /* \"#utility.yul\":28786:28798   */\n      add\n        /* \"#utility.yul\":28779:28798   */\n      swap1\n      pop\n        /* \"#utility.yul\":28438:28804   */\n      swap2\n      swap1\n      pop\n      jump\t// out\n        /* \"#utility.yul\":28810:29229   */\n    tag_197:\n        /* \"#utility.yul\":28976:28980   */\n      0x00\n        /* \"#utility.yul\":29014:29016   */\n      0x20\n        /* \"#utility.yul\":29003:29012   */\n      dup3\n        /* \"#utility.yul\":28999:29017   */\n      add\n        /* \"#utility.yul\":28991:29017   */\n      swap1\n      pop\n        /* \"#utility.yul\":29063:29072   */\n      dup2\n        /* \"#utility.yul\":29057:29061   */\n      dup2\n        /* \"#utility.yul\":29053:29073   */\n      sub\n        /* \"#utility.yul\":29049:29050   */\n      0x00\n        /* \"#utility.yul\":29038:29047   */\n      dup4\n        /* \"#utility.yul\":29034:29051   */\n      add\n        /* \"#utility.yul\":29027:29074   */\n      mstore\n        /* \"#utility.yul\":29091:29222   */\n      tag_643\n        /* \"#utility.yul\":29217:29221   */\n      dup2\n        /* \"#utility.yul\":29091:29222   */\n      tag_378\n      jump\t// in\n    tag_643:\n        /* \"#utility.yul\":29083:29222   */\n      swap1\n      pop\n        /* \"#utility.yul\":28810:29229   */\n      swap2\n      swap1\n      pop\n      jump\t// out\n        /* \"#utility.yul\":29235:29459   */\n    tag_379:\n        /* \"#utility.yul\":29375:29409   */\n      0x43616e6469646174652077697468207468697320494420616c72656164792065\n        /* \"#utility.yul\":29371:29372   */\n      0x00\n        /* \"#utility.yul\":29363:29369   */\n      dup3\n        /* \"#utility.yul\":29359:29373   */\n      add\n        /* \"#utility.yul\":29352:29410   */\n      mstore\n        /* \"#utility.yul\":29444:29451   */\n      0x7869737473000000000000000000000000000000000000000000000000000000\n        /* \"#utility.yul\":29439:29441   */\n      0x20\n        /* \"#utility.yul\":29431:29437   */\n      dup3\n        /* \"#utility.yul\":29427:29442   */\n      add\n        /* \"#utility.yul\":29420:29452   */\n      mstore\n        /* \"#utility.yul\":29235:29459   */\n      pop\n      jump\t// out\n        /* \"#utility.yul\":29465:29831   */\n    tag_380:\n        /* \"#utility.yul\":29607:29610   */\n      0x00\n        /* \"#utility.yul\":29628:29695   */\n      tag_646\n        /* \"#utility.yul\":29692:29694   */\n      0x25\n        /* \"#utility.yul\":29687:29690   */\n      dup4\n        /* \"#utility.yul\":29628:29695   */\n      tag_342\n      jump\t// in\n    tag_646:\n        /* \"#utility.yul\":29621:29695   */\n      swap2\n      pop\n        /* \"#utility.yul\":29704:29797   */\n      tag_647\n        /* \"#utility.yul\":29793:29796   */\n      dup3\n        /* \"#utility.yul\":29704:29797   */\n      tag_379\n      jump\t// in\n    tag_647:\n        /* \"#utility.yul\":29822:29824   */\n      0x40\n        /* \"#utility.yul\":29817:29820   */\n      dup3\n        /* \"#utility.yul\":29813:29825   */\n      add\n        /* \"#utility.yul\":29806:29825   */\n      swap1\n      pop\n        /* \"#utility.yul\":29465:29831   */\n      swap2\n      swap1\n      pop\n      jump\t// out\n        /* \"#utility.yul\":29837:30256   */\n    tag_233:\n        /* \"#utility.yul\":30003:30007   */\n      0x00\n        /* \"#utility.yul\":30041:30043   */\n      0x20\n        /* \"#utility.yul\":30030:30039   */\n      dup3\n        /* \"#utility.yul\":30026:30044   */\n      add\n        /* \"#utility.yul\":30018:30044   */\n      swap1\n      pop\n        /* \"#utility.yul\":30090:30099   */\n      dup2\n        /* \"#utility.yul\":30084:30088   */\n      dup2\n        /* \"#utility.yul\":30080:30100   */\n      sub\n        /* \"#utility.yul\":30076:30077   */\n      0x00\n        /* \"#utility.yul\":30065:30074   */\n      dup4\n        /* \"#utility.yul\":30061:30078   */\n      add\n        /* \"#utility.yul\":30054:30101   */\n      mstore\n        /* \"#utility.yul\":30118:30249   */\n      tag_649\n        /* \"#utility.yul\":30244:30248   */\n      dup2\n        /* \"#utility.yul\":30118:30249   */\n      tag_380\n      jump\t// in\n    tag_649:\n        /* \"#utility.yul\":30110:30249   */\n      swap1\n      pop\n        /* \"#utility.yul\":29837:30256   */\n      swap2\n      swap1\n      pop\n      jump\t// out\n        /* \"#utility.yul\":30262:30497   */\n    tag_381:\n        /* \"#utility.yul\":30402:30436   */\n      0x43616e6e6f74206164642063616e6469646174657320616674657220656c6563\n        /* \"#utility.yul\":30398:30399   */\n      0x00\n        /* \"#utility.yul\":30390:30396   */\n      dup3\n        /* \"#utility.yul\":30386:30400   */\n      add\n        /* \"#utility.yul\":30379:30437   */\n      mstore\n        /* \"#utility.yul\":30471:30489   */\n      0x74696f6e20686173207374617274656400000000000000000000000000000000\n        /* \"#utility.yul\":30466:30468   */\n      0x20\n        /* \"#utility.yul\":30458:30464   */\n      dup3\n        /* \"#utility.yul\":30454:30469   */\n      add\n        /* \"#utility.yul\":30447:30490   */\n      mstore\n        /* \"#utility.yul\":30262:30497   */\n      pop\n      jump\t// out\n        /* \"#utility.yul\":30503:30869   */\n    tag_382:\n        /* \"#utility.yul\":30645:30648   */\n      0x00\n        /* \"#utility.yul\":30666:30733   */\n      tag_652\n        /* \"#utility.yul\":30730:30732   */\n      0x30\n        /* \"#utility.yul\":30725:30728   */\n      dup4\n        /* \"#utility.yul\":30666:30733   */\n      tag_342\n      jump\t// in\n    tag_652:\n        /* \"#utility.yul\":30659:30733   */\n      swap2\n      pop\n        /* \"#utility.yul\":30742:30835   */\n      tag_653\n        /* \"#utility.yul\":30831:30834   */\n      dup3\n        /* \"#utility.yul\":30742:30835   */\n      tag_381\n      jump\t// in\n    tag_653:\n        /* \"#utility.yul\":30860:30862   */\n      0x40\n        /* \"#utility.yul\":30855:30858   */\n      dup3\n        /* \"#utility.yul\":30851:30863   */\n      add\n        /* \"#utility.yul\":30844:30863   */\n      swap1\n      pop\n        /* \"#utility.yul\":30503:30869   */\n      swap2\n      swap1\n      pop\n      jump\t// out\n        /* \"#utility.yul\":30875:31294   */\n    tag_240:\n        /* \"#utility.yul\":31041:31045   */\n      0x00\n        /* \"#utility.yul\":31079:31081   */\n      0x20\n        /* \"#utility.yul\":31068:31077   */\n      dup3\n        /* \"#utility.yul\":31064:31082   */\n      add\n        /* \"#utility.yul\":31056:31082   */\n      swap1\n      pop\n        /* \"#utility.yul\":31128:31137   */\n      dup2\n        /* \"#utility.yul\":31122:31126   */\n      dup2\n        /* \"#utility.yul\":31118:31138   */\n      sub\n        /* \"#utility.yul\":31114:31115   */\n      0x00\n        /* \"#utility.yul\":31103:31112   */\n      dup4\n        /* \"#utility.yul\":31099:31116   */\n      add\n        /* \"#utility.yul\":31092:31139   */\n      mstore\n        /* \"#utility.yul\":31156:31287   */\n      tag_655\n        /* \"#utility.yul\":31282:31286   */\n      dup2\n        /* \"#utility.yul\":31156:31287   */\n      tag_382\n      jump\t// in\n    tag_655:\n        /* \"#utility.yul\":31148:31287   */\n      swap1\n      pop\n        /* \"#utility.yul\":30875:31294   */\n      swap2\n      swap1\n      pop\n      jump\t// out\n        /* \"#utility.yul\":31300:31441   */\n    tag_383:\n        /* \"#utility.yul\":31349:31353   */\n      0x00\n        /* \"#utility.yul\":31372:31375   */\n      dup2\n        /* \"#utility.yul\":31364:31375   */\n      swap1\n      pop\n        /* \"#utility.yul\":31395:31398   */\n      dup2\n        /* \"#utility.yul\":31392:31393   */\n      0x00\n        /* \"#utility.yul\":31385:31399   */\n      mstore\n        /* \"#utility.yul\":31429:31433   */\n      0x20\n        /* \"#utility.yul\":31426:31427   */\n      0x00\n        /* \"#utility.yul\":31416:31434   */\n      keccak256\n        /* \"#utility.yul\":31408:31434   */\n      swap1\n      pop\n        /* \"#utility.yul\":31300:31441   */\n      swap2\n      swap1\n      pop\n      jump\t// out\n        /* \"#utility.yul\":31447:31540   */\n    tag_384:\n        /* \"#utility.yul\":31484:31490   */\n      0x00\n        /* \"#utility.yul\":31531:31533   */\n      0x20\n        /* \"#utility.yul\":31526:31528   */\n      0x1f\n        /* \"#utility.yul\":31519:31524   */\n      dup4\n        /* \"#utility.yul\":31515:31529   */\n      add\n        /* \"#utility.yul\":31511:31534   */\n      div\n        /* \"#utility.yul\":31501:31534   */\n      swap1\n      pop\n        /* \"#utility.yul\":31447:31540   */\n      swap2\n      swap1\n      pop\n      jump\t// out\n        /* \"#utility.yul\":31546:31653   */\n    tag_385:\n        /* \"#utility.yul\":31590:31598   */\n      0x00\n        /* \"#utility.yul\":31640:31645   */\n      dup3\n        /* \"#utility.yul\":31634:31638   */\n      dup3\n        /* \"#utility.yul\":31630:31646   */\n      shl\n        /* \"#utility.yul\":31609:31646   */\n      swap1\n      pop\n        /* \"#utility.yul\":31546:31653   */\n      swap3\n      swap2\n      pop\n      pop\n      jump\t// out\n        /* \"#utility.yul\":31659:32052   */\n    tag_386:\n        /* \"#utility.yul\":31728:31734   */\n      0x00\n        /* \"#utility.yul\":31778:31779   */\n      0x08\n        /* \"#utility.yul\":31766:31776   */\n      dup4\n        /* \"#utility.yul\":31762:31780   */\n      mul\n        /* \"#utility.yul\":31801:31898   */\n      tag_660\n        /* \"#utility.yul\":31831:31897   */\n      0xffffffffffffffffffffffffffffffffffffffffffffffffffffffffffffffff\n        /* \"#utility.yul\":31820:31829   */\n      dup3\n        /* \"#utility.yul\":31801:31898   */\n      tag_385\n      jump\t// in\n    tag_660:\n        /* \"#utility.yul\":31919:31958   */\n      tag_661\n        /* \"#utility.yul\":31949:31957   */\n      dup7\n        /* \"#utility.yul\":31938:31947   */\n      dup4\n        /* \"#utility.yul\":31919:31958   */\n      tag_385\n      jump\t// in\n    tag_661:\n        /* \"#utility.yul\":31907:31958   */\n      swap6\n      pop\n        /* \"#utility.yul\":31991:31995   */\n      dup1\n        /* \"#utility.yul\":31987:31996   */\n      not\n        /* \"#utility.yul\":31980:31985   */\n      dup5\n        /* \"#utility.yul\":31976:31997   */\n      and\n        /* \"#utility.yul\":31967:31997   */\n      swap4\n      pop\n        /* \"#utility.yul\":32040:32044   */\n      dup1\n        /* \"#utility.yul\":32030:32038   */\n      dup7\n        /* \"#utility.yul\":32026:32045   */\n      and\n        /* \"#utility.yul\":32019:32024   */\n      dup5\n        /* \"#utility.yul\":32016:32046   */\n      or\n        /* \"#utility.yul\":32006:32046   */\n      swap3\n      pop\n        /* \"#utility.yul\":31735:32052   */\n      pop\n      pop\n        /* \"#utility.yul\":31659:32052   */\n      swap4\n      swap3\n      pop\n      pop\n      pop\n      jump\t// out\n        /* \"#utility.yul\":32058:32118   */\n    tag_387:\n        /* \"#utility.yul\":32086:32089   */\n      0x00\n        /* \"#utility.yul\":32107:32112   */\n      dup2\n        /* \"#utility.yul\":32100:32112   */\n      swap1\n      pop\n        /* \"#utility.yul\":32058:32118   */\n      swap2\n      swap1\n      pop\n      jump\t// out\n        /* \"#utility.yul\":32124:32266   */\n    tag_388:\n        /* \"#utility.yul\":32174:32183   */\n      0x00\n        /* \"#utility.yul\":32207:32260   */\n      tag_664\n        /* \"#utility.yul\":32225:32259   */\n      tag_665\n        /* \"#utility.yul\":32234:32258   */\n      tag_666\n        /* \"#utility.yul\":32252:32257   */\n      dup5\n        /* \"#utility.yul\":32234:32258   */\n      tag_318\n      jump\t// in\n    tag_666:\n        /* \"#utility.yul\":32225:32259   */\n      tag_387\n      jump\t// in\n    tag_665:\n        /* \"#utility.yul\":32207:32260   */\n      tag_318\n      jump\t// in\n    tag_664:\n        /* \"#utility.yul\":32194:32260   */\n      swap1\n      pop\n        /* \"#utility.yul\":32124:32266   */\n      swap2\n      swap1\n      pop\n      jump\t// out\n        /* \"#utility.yul\":32272:32347   */\n    tag_389:\n        /* \"#utility.yul\":32315:32318   */\n      0x00\n        /* \"#utility.yul\":32336:32341   */\n      dup2\n        /* \"#utility.yul\":32329:32341   */\n      swap1\n      pop\n        /* \"#utility.yul\":32272:32347   */\n      swap2\n      swap1\n      pop\n      jump\t// out\n        /* \"#utility.yul\":32353:32622   */\n    tag_390:\n        /* \"#utility.yul\":32463:32502   */\n      tag_669\n        /* \"#utility.yul\":32494:32501   */\n      dup4\n        /* \"#utility.yul\":32463:32502   */\n      tag_388\n      jump\t// in\n    tag_669:\n        /* \"#utility.yul\":32524:32615   */\n      tag_670\n        /* \"#utility.yul\":32573:32614   */\n      tag_671\n        /* \"#utility.yul\":32597:32613   */\n      dup3\n        /* \"#utility.yul\":32573:32614   */\n      tag_389\n      jump\t// in\n    tag_671:\n        /* \"#utility.yul\":32565:32571   */\n      dup5\n        /* \"#utility.yul\":32558:32562   */\n      dup5\n        /* \"#utility.yul\":32552:32563   */\n      sload\n        /* \"#utility.yul\":32524:32615   */\n      tag_386\n      jump\t// in\n    tag_670:\n        /* \"#utility.yul\":32518:32522   */\n      dup3\n        /* \"#utility.yul\":32511:32616   */\n      sstore\n        /* \"#utility.yul\":32429:32622   */\n      pop\n        /* \"#utility.yul\":32353:32622   */\n      pop\n      pop\n      pop\n      jump\t// out\n        /* \"#utility.yul\":32628:32701   */\n    tag_391:\n        /* \"#utility.yul\":32673:32676   */\n      0x00\n        /* \"#utility.yul\":32694:32695   */\n      0x00\n        /* \"#utility.yul\":32687:32695   */\n      swap1\n      pop\n        /* \"#utility.yul\":32628:32701   */\n      swap1\n      jump\t// out\n        /* \"#utility.yul\":32707:32896   */\n    tag_392:\n        /* \"#utility.yul\":32784:32816   */\n      tag_674\n      tag_391\n      jump\t// in\n    tag_674:\n        /* \"#utility.yul\":32825:32890   */\n      tag_675\n        /* \"#utility.yul\":32883:32889   */\n      dup2\n        /* \"#utility.yul\":32875:32881   */\n      dup5\n        /* \"#utility.yul\":32869:32873   */\n      dup5\n        /* \"#utility.yul\":32825:32890   */\n      tag_390\n      jump\t// in\n    tag_675:\n        /* \"#utility.yul\":32760:32896   */\n      pop\n        /* \"#utility.yul\":32707:32896   */\n      pop\n      pop\n      jump\t// out\n        /* \"#utility.yul\":32902:33088   */\n    tag_393:\n        /* \"#utility.yul\":32962:33082   */\n    tag_677:\n        /* \"#utility.yul\":32979:32982   */\n      dup2\n        /* \"#utility.yul\":32972:32977   */\n      dup2\n        /* \"#utility.yul\":32969:32983   */\n      lt\n        /* \"#utility.yul\":32962:33082   */\n      iszero\n      tag_679\n      jumpi\n        /* \"#utility.yul\":33033:33072   */\n      tag_680\n        /* \"#utility.yul\":33070:33071   */\n      0x00\n        /* \"#utility.yul\":33063:33068   */\n      dup3\n        /* \"#utility.yul\":33033:33072   */\n      tag_392\n      jump\t// in\n    tag_680:\n        /* \"#utility.yul\":33006:33007   */\n      0x01\n        /* \"#utility.yul\":32999:33004   */\n      dup2\n        /* \"#utility.yul\":32995:33008   */\n      add\n        /* \"#utility.yul\":32986:33008   */\n      swap1\n      pop\n        /* \"#utility.yul\":32962:33082   */\n      jump(tag_677)\n    tag_679:\n        /* \"#utility.yul\":32902:33088   */\n      pop\n      pop\n      jump\t// out\n        /* \"#utility.yul\":33094:33637   */\n    tag_394:\n        /* \"#utility.yul\":33195:33197   */\n      0x1f\n        /* \"#utility.yul\":33190:33193   */\n      dup3\n        /* \"#utility.yul\":33187:33198   */\n      gt\n        /* \"#utility.yul\":33184:33630   */\n      iszero\n      tag_682\n      jumpi\n        /* \"#utility.yul\":33229:33267   */\n      tag_683\n        /* \"#utility.yul\":33261:33266   */\n      dup2\n        /* \"#utility.yul\":33229:33267   */\n      tag_383\n      jump\t// in\n    tag_683:\n        /* \"#utility.yul\":33313:33342   */\n      tag_684\n        /* \"#utility.yul\":33331:33341   */\n      dup5\n        /* \"#utility.yul\":33313:33342   */\n      tag_384\n      jump\t// in\n    tag_684:\n        /* \"#utility.yul\":33303:33311   */\n      dup2\n        /* \"#utility.yul\":33299:33343   */\n      add\n        /* \"#utility.yul\":33496:33498   */\n      0x20\n        /* \"#utility.yul\":33484:33494   */\n      dup6\n        /* \"#utility.yul\":33481:33499   */\n      lt\n        /* \"#utility.yul\":33478:33527   */\n      iszero\n      tag_685\n      jumpi\n        /* \"#utility.yul\":33517:33525   */\n      dup2\n        /* \"#utility.yul\":33502:33525   */\n      swap1\n      pop\n        /* \"#utility.yul\":33478:33527   */\n    tag_685:\n        /* \"#utility.yul\":33540:33620   */\n      tag_686\n        /* \"#utility.yul\":33596:33618   */\n      tag_687\n        /* \"#utility.yul\":33614:33617   */\n      dup6\n        /* \"#utility.yul\":33596:33618   */\n      tag_384\n      jump\t// in\n    tag_687:\n        /* \"#utility.yul\":33586:33594   */\n      dup4\n        /* \"#utility.yul\":33582:33619   */\n      add\n        /* \"#utility.yul\":33569:33580   */\n      dup3\n        /* \"#utility.yul\":33540:33620   */\n      tag_393\n      jump\t// in\n    tag_686:\n        /* \"#utility.yul\":33199:33630   */\n      pop\n      pop\n        /* \"#utility.yul\":33184:33630   */\n    tag_682:\n        /* \"#utility.yul\":33094:33637   */\n      pop\n      pop\n      pop\n      jump\t// out\n        /* \"#utility.yul\":33643:33760   */\n    tag_395:\n        /* \"#utility.yul\":33697:33705   */\n      0x00\n        /* \"#utility.yul\":33747:33752   */\n      dup3\n        /* \"#utility.yul\":33741:33745   */\n      dup3\n        /* \"#utility.yul\":33737:33753   */\n      shr\n        /* \"#utility.yul\":33716:33753   */\n      swap1\n      pop\n        /* \"#utility.yul\":33643:33760   */\n      swap3\n      swap2\n      pop\n      pop\n      jump\t// out\n        /* \"#utility.yul\":33766:33935   */\n    tag_396:\n        /* \"#utility.yul\":33810:33816   */\n      0x00\n        /* \"#utility.yul\":33843:33894   */\n      tag_690\n        /* \"#utility.yul\":33891:33892   */\n      0x00\n        /* \"#utility.yul\":33887:33893   */\n      not\n        /* \"#utility.yul\":33879:33884   */\n      dup5\n        /* \"#utility.yul\":33876:33877   */\n      0x08\n        /* \"#utility.yul\":33872:33885   */\n      mul\n        /* \"#utility.yul\":33843:33894   */\n      tag_395\n      jump\t// in\n    tag_690:\n        /* \"#utility.yul\":33839:33895   */\n      not\n        /* \"#utility.yul\":33924:33928   */\n      dup1\n        /* \"#utility.yul\":33918:33922   */\n      dup4\n        /* \"#utility.yul\":33914:33929   */\n      and\n        /* \"#utility.yul\":33904:33929   */\n      swap2\n      pop\n        /* \"#utility.yul\":33817:33935   */\n      pop\n        /* \"#utility.yul\":33766:33935   */\n      swap3\n      swap2\n      pop\n      pop\n      jump\t// out\n        /* \"#utility.yul\":33940:34235   */\n    tag_397:\n        /* \"#utility.yul\":34016:34020   */\n      0x00\n        /* \"#utility.yul\":34162:34191   */\n      tag_692\n        /* \"#utility.yul\":34187:34190   */\n      dup4\n        /* \"#utility.yul\":34181:34185   */\n      dup4\n        /* \"#utility.yul\":34162:34191   */\n      tag_396\n      jump\t// in\n    tag_692:\n        /* \"#utility.yul\":34154:34191   */\n      swap2\n      pop\n        /* \"#utility.yul\":34224:34227   */\n      dup3\n        /* \"#utility.yul\":34221:34222   */\n      0x02\n        /* \"#utility.yul\":34217:34228   */\n      mul\n        /* \"#utility.yul\":34211:34215   */\n      dup3\n        /* \"#utility.yul\":34208:34229   */\n      or\n        /* \"#utility.yul\":34200:34229   */\n      swap1\n      pop\n        /* \"#utility.yul\":33940:34235   */\n      swap3\n      swap2\n      pop\n      pop\n      jump\t// out\n        /* \"#utility.yul\":34240:35635   */\n    tag_242:\n        /* \"#utility.yul\":34357:34394   */\n      tag_694\n        /* \"#utility.yul\":34390:34393   */\n      dup3\n        /* \"#utility.yul\":34357:34394   */\n      tag_326\n      jump\t// in\n    tag_694:\n        /* \"#utility.yul\":34459:34477   */\n      0xffffffffffffffff\n        /* \"#utility.yul\":34451:34457   */\n      dup2\n        /* \"#utility.yul\":34448:34478   */\n      gt\n        /* \"#utility.yul\":34445:34501   */\n      iszero\n      tag_695\n      jumpi\n        /* \"#utility.yul\":34481:34499   */\n      tag_696\n      tag_101\n      jump\t// in\n    tag_696:\n        /* \"#utility.yul\":34445:34501   */\n    tag_695:\n        /* \"#utility.yul\":34525:34563   */\n      tag_697\n        /* \"#utility.yul\":34557:34561   */\n      dup3\n        /* \"#utility.yul\":34551:34562   */\n      sload\n        /* \"#utility.yul\":34525:34563   */\n      tag_113\n      jump\t// in\n    tag_697:\n        /* \"#utility.yul\":34610:34677   */\n      tag_698\n        /* \"#utility.yul\":34670:34676   */\n      dup3\n        /* \"#utility.yul\":34662:34668   */\n      dup3\n        /* \"#utility.yul\":34656:34660   */\n      dup6\n        /* \"#utility.yul\":34610:34677   */\n      tag_394\n      jump\t// in\n    tag_698:\n        /* \"#utility.yul\":34704:34705   */\n      0x00\n        /* \"#utility.yul\":34728:34732   */\n      0x20\n        /* \"#utility.yul\":34715:34732   */\n      swap1\n      pop\n        /* \"#utility.yul\":34760:34762   */\n      0x1f\n        /* \"#utility.yul\":34752:34758   */\n      dup4\n        /* \"#utility.yul\":34749:34763   */\n      gt\n        /* \"#utility.yul\":34777:34778   */\n      0x01\n        /* \"#utility.yul\":34772:35390   */\n      dup2\n      eq\n      tag_700\n      jumpi\n        /* \"#utility.yul\":35434:35435   */\n      0x00\n        /* \"#utility.yul\":35451:35457   */\n      dup5\n        /* \"#utility.yul\":35448:35525   */\n      iszero\n      tag_701\n      jumpi\n        /* \"#utility.yul\":35500:35509   */\n      dup3\n        /* \"#utility.yul\":35495:35498   */\n      dup8\n        /* \"#utility.yul\":35491:35510   */\n      add\n        /* \"#utility.yul\":35485:35511   */\n      mload\n        /* \"#utility.yul\":35476:35511   */\n      swap1\n      pop\n        /* \"#utility.yul\":35448:35525   */\n    tag_701:\n        /* \"#utility.yul\":35551:35618   */\n      tag_702\n        /* \"#utility.yul\":35611:35617   */\n      dup6\n        /* \"#utility.yul\":35604:35609   */\n      dup3\n        /* \"#utility.yul\":35551:35618   */\n      tag_397\n      jump\t// in\n    tag_702:\n        /* \"#utility.yul\":35545:35549   */\n      dup7\n        /* \"#utility.yul\":35538:35619   */\n      sstore\n        /* \"#utility.yul\":35407:35629   */\n      pop\n        /* \"#utility.yul\":34742:35629   */\n      jump(tag_699)\n        /* \"#utility.yul\":34772:35390   */\n    tag_700:\n        /* \"#utility.yul\":34824:34828   */\n      0x1f\n        /* \"#utility.yul\":34820:34829   */\n      not\n        /* \"#utility.yul\":34812:34818   */\n      dup5\n        /* \"#utility.yul\":34808:34830   */\n      and\n        /* \"#utility.yul\":34858:34895   */\n      tag_703\n        /* \"#utility.yul\":34890:34894   */\n      dup7\n        /* \"#utility.yul\":34858:34895   */\n      tag_383\n      jump\t// in\n    tag_703:\n        /* \"#utility.yul\":34917:34918   */\n      0x00\n        /* \"#utility.yul\":34931:35139   */\n    tag_704:\n        /* \"#utility.yul\":34945:34952   */\n      dup3\n        /* \"#utility.yul\":34942:34943   */\n      dup2\n        /* \"#utility.yul\":34939:34953   */\n      lt\n        /* \"#utility.yul\":34931:35139   */\n      iszero\n      tag_706\n      jumpi\n        /* \"#utility.yul\":35024:35033   */\n      dup5\n        /* \"#utility.yul\":35019:35022   */\n      dup10\n        /* \"#utility.yul\":35015:35034   */\n      add\n        /* \"#utility.yul\":35009:35035   */\n      mload\n        /* \"#utility.yul\":35001:35007   */\n      dup3\n        /* \"#utility.yul\":34994:35036   */\n      sstore\n        /* \"#utility.yul\":35075:35076   */\n      0x01\n        /* \"#utility.yul\":35067:35073   */\n      dup3\n        /* \"#utility.yul\":35063:35077   */\n      add\n        /* \"#utility.yul\":35053:35077   */\n      swap2\n      pop\n        /* \"#utility.yul\":35122:35124   */\n      0x20\n        /* \"#utility.yul\":35111:35120   */\n      dup6\n        /* \"#utility.yul\":35107:35125   */\n      add\n        /* \"#utility.yul\":35094:35125   */\n      swap5\n      pop\n        /* \"#utility.yul\":34968:34972   */\n      0x20\n        /* \"#utility.yul\":34965:34966   */\n      dup2\n        /* \"#utility.yul\":34961:34973   */\n      add\n        /* \"#utility.yul\":34956:34973   */\n      swap1\n      pop\n        /* \"#utility.yul\":34931:35139   */\n      jump(tag_704)\n    tag_706:\n        /* \"#utility.yul\":35167:35173   */\n      dup7\n        /* \"#utility.yul\":35158:35165   */\n      dup4\n        /* \"#utility.yul\":35155:35174   */\n      lt\n        /* \"#utility.yul\":35152:35331   */\n      iszero\n      tag_707\n      jumpi\n        /* \"#utility.yul\":35225:35234   */\n      dup5\n        /* \"#utility.yul\":35220:35223   */\n      dup10\n        /* \"#utility.yul\":35216:35235   */\n      add\n        /* \"#utility.yul\":35210:35236   */\n      mload\n        /* \"#utility.yul\":35268:35316   */\n      tag_708\n        /* \"#utility.yul\":35310:35314   */\n      0x1f\n        /* \"#utility.yul\":35302:35308   */\n      dup10\n        /* \"#utility.yul\":35298:35315   */\n      and\n        /* \"#utility.yul\":35287:35296   */\n      dup3\n        /* \"#utility.yul\":35268:35316   */\n      tag_396\n      jump\t// in\n    tag_708:\n        /* \"#utility.yul\":35260:35266   */\n      dup4\n        /* \"#utility.yul\":35253:35317   */\n      sstore\n        /* \"#utility.yul\":35175:35331   */\n      pop\n        /* \"#utility.yul\":35152:35331   */\n    tag_707:\n        /* \"#utility.yul\":35377:35378   */\n      0x01\n        /* \"#utility.yul\":35373:35374   */\n      0x02\n        /* \"#utility.yul\":35365:35371   */\n      dup9\n        /* \"#utility.yul\":35361:35375   */\n      mul\n        /* \"#utility.yul\":35357:35379   */\n      add\n        /* \"#utility.yul\":35351:35355   */\n      dup9\n        /* \"#utility.yul\":35344:35380   */\n      sstore\n        /* \"#utility.yul\":34779:35390   */\n      pop\n      pop\n      pop\n        /* \"#utility.yul\":34742:35629   */\n    tag_699:\n      pop\n        /* \"#utility.yul\":34332:35635   */\n      pop\n      pop\n      pop\n        /* \"#utility.yul\":34240:35635   */\n      pop\n      pop\n      jump\t// out\n        /* \"#utility.yul\":35641:35789   */\n    tag_398:\n        /* \"#utility.yul\":35739:35745   */\n      dup3\n        /* \"#utility.yul\":35734:35737   */\n      dup2\n        /* \"#utility.yul\":35729:35732   */\n      dup4\n        /* \"#utility.yul\":35716:35746   */\n      calldatacopy\n        /* \"#utility.yul\":35780:35781   */\n      0x00\n        /* \"#utility.yul\":35771:35777   */\n      dup4\n        /* \"#utility.yul\":35766:35769   */\n      dup4\n        /* \"#utility.yul\":35762:35778   */\n      add\n        /* \"#utility.yul\":35755:35782   */\n      mstore\n        /* \"#utility.yul\":35641:35789   */\n      pop\n      pop\n      pop\n      jump\t// out\n        /* \"#utility.yul\":35819:36136   */\n    tag_399:\n        /* \"#utility.yul\":35917:35920   */\n      0x00\n        /* \"#utility.yul\":35938:36009   */\n      tag_711\n        /* \"#utility.yul\":36002:36008   */\n      dup4\n        /* \"#utility.yul\":35997:36000   */\n      dup6\n        /* \"#utility.yul\":35938:36009   */\n      tag_342\n      jump\t// in\n    tag_711:\n        /* \"#utility.yul\":35931:36009   */\n      swap4\n      pop\n        /* \"#utility.yul\":36019:36075   */\n      tag_712\n        /* \"#utility.yul\":36068:36074   */\n      dup4\n        /* \"#utility.yul\":36063:36066   */\n      dup6\n        /* \"#utility.yul\":36056:36061   */\n      dup5\n        /* \"#utility.yul\":36019:36075   */\n      tag_398\n      jump\t// in\n    tag_712:\n        /* \"#utility.yul\":36100:36129   */\n      tag_713\n        /* \"#utility.yul\":36122:36128   */\n      dup4\n        /* \"#utility.yul\":36100:36129   */\n      tag_329\n      jump\t// in\n    tag_713:\n        /* \"#utility.yul\":36095:36098   */\n      dup5\n        /* \"#utility.yul\":36091:36130   */\n      add\n        /* \"#utility.yul\":36084:36130   */\n      swap1\n      pop\n        /* \"#utility.yul\":35819:36136   */\n      swap4\n      swap3\n      pop\n      pop\n      pop\n      jump\t// out\n        /* \"#utility.yul\":36142:36585   */\n    tag_245:\n        /* \"#utility.yul\":36293:36297   */\n      0x00\n        /* \"#utility.yul\":36331:36333   */\n      0x40\n        /* \"#utility.yul\":36320:36329   */\n      dup3\n        /* \"#utility.yul\":36316:36334   */\n      add\n        /* \"#utility.yul\":36308:36334   */\n      swap1\n      pop\n        /* \"#utility.yul\":36344:36415   */\n      tag_715\n        /* \"#utility.yul\":36412:36413   */\n      0x00\n        /* \"#utility.yul\":36401:36410   */\n      dup4\n        /* \"#utility.yul\":36397:36414   */\n      add\n        /* \"#utility.yul\":36388:36394   */\n      dup7\n        /* \"#utility.yul\":36344:36415   */\n      tag_321\n      jump\t// in\n    tag_715:\n        /* \"#utility.yul\":36462:36471   */\n      dup2\n        /* \"#utility.yul\":36456:36460   */\n      dup2\n        /* \"#utility.yul\":36452:36472   */\n      sub\n        /* \"#utility.yul\":36447:36449   */\n      0x20\n        /* \"#utility.yul\":36436:36445   */\n      dup4\n        /* \"#utility.yul\":36432:36450   */\n      add\n        /* \"#utility.yul\":36425:36473   */\n      mstore\n        /* \"#utility.yul\":36490:36578   */\n      tag_716\n        /* \"#utility.yul\":36573:36577   */\n      dup2\n        /* \"#utility.yul\":36564:36570   */\n      dup5\n        /* \"#utility.yul\":36556:36562   */\n      dup7\n        /* \"#utility.yul\":36490:36578   */\n      tag_399\n      jump\t// in\n    tag_716:\n        /* \"#utility.yul\":36482:36578   */\n      swap1\n      pop\n        /* \"#utility.yul\":36142:36585   */\n      swap5\n      swap4\n      pop\n      pop\n      pop\n      pop\n      jump\t// out\n        /* \"#utility.yul\":36591:36764   */\n    tag_400:\n        /* \"#utility.yul\":36731:36756   */\n      0x456c656374696f6e206973206e6f74206f6e676f696e67000000000000000000\n        /* \"#utility.yul\":36727:36728   */\n      0x00\n        /* \"#utility.yul\":36719:36725   */\n      dup3\n        /* \"#utility.yul\":36715:36729   */\n      add\n        /* \"#utility.yul\":36708:36757   */\n      mstore\n        /* \"#utility.yul\":36591:36764   */\n      pop\n      jump\t// out\n        /* \"#utility.yul\":36770:37136   */\n    tag_401:\n        /* \"#utility.yul\":36912:36915   */\n      0x00\n        /* \"#utility.yul\":36933:37000   */\n      tag_719\n        /* \"#utility.yul\":36997:36999   */\n      0x17\n        /* \"#utility.yul\":36992:36995   */\n      dup4\n        /* \"#utility.yul\":36933:37000   */\n      tag_342\n      jump\t// in\n    tag_719:\n        /* \"#utility.yul\":36926:37000   */\n      swap2\n      pop\n        /* \"#utility.yul\":37009:37102   */\n      tag_720\n        /* \"#utility.yul\":37098:37101   */\n      dup3\n        /* \"#utility.yul\":37009:37102   */\n      tag_400\n      jump\t// in\n    tag_720:\n        /* \"#utility.yul\":37127:37129   */\n      0x20\n        /* \"#utility.yul\":37122:37125   */\n      dup3\n        /* \"#utility.yul\":37118:37130   */\n      add\n        /* \"#utility.yul\":37111:37130   */\n      swap1\n      pop\n        /* \"#utility.yul\":36770:37136   */\n      swap2\n      swap1\n      pop\n      jump\t// out\n        /* \"#utility.yul\":37142:37561   */\n    tag_262:\n        /* \"#utility.yul\":37308:37312   */\n      0x00\n        /* \"#utility.yul\":37346:37348   */\n      0x20\n        /* \"#utility.yul\":37335:37344   */\n      dup3\n        /* \"#utility.yul\":37331:37349   */\n      add\n        /* \"#utility.yul\":37323:37349   */\n      swap1\n      pop\n        /* \"#utility.yul\":37395:37404   */\n      dup2\n        /* \"#utility.yul\":37389:37393   */\n      dup2\n        /* \"#utility.yul\":37385:37405   */\n      sub\n        /* \"#utility.yul\":37381:37382   */\n      0x00\n        /* \"#utility.yul\":37370:37379   */\n      dup4\n        /* \"#utility.yul\":37366:37383   */\n      add\n        /* \"#utility.yul\":37359:37406   */\n      mstore\n        /* \"#utility.yul\":37423:37554   */\n      tag_722\n        /* \"#utility.yul\":37549:37553   */\n      dup2\n        /* \"#utility.yul\":37423:37554   */\n      tag_401\n      jump\t// in\n    tag_722:\n        /* \"#utility.yul\":37415:37554   */\n      swap1\n      pop\n        /* \"#utility.yul\":37142:37561   */\n      swap2\n      swap1\n      pop\n      jump\t// out\n        /* \"#utility.yul\":37567:37799   */\n    tag_402:\n        /* \"#utility.yul\":37707:37741   */\n      0x566f74696e6720686173206e6f7420737461727465642079657420666f722074\n        /* \"#utility.yul\":37703:37704   */\n      0x00\n        /* \"#utility.yul\":37695:37701   */\n      dup3\n        /* \"#utility.yul\":37691:37705   */\n      add\n        /* \"#utility.yul\":37684:37742   */\n      mstore\n        /* \"#utility.yul\":37776:37791   */\n      0x68697320656c656374696f6e2e00000000000000000000000000000000000000\n        /* \"#utility.yul\":37771:37773   */\n      0x20\n        /* \"#utility.yul\":37763:37769   */\n      dup3\n        /* \"#utility.yul\":37759:37774   */\n      add\n        /* \"#utility.yul\":37752:37792   */\n      mstore\n        /* \"#utility.yul\":37567:37799   */\n      pop\n      jump\t// out\n        /* \"#utility.yul\":37805:38171   */\n    tag_403:\n        /* \"#utility.yul\":37947:37950   */\n      0x00\n        /* \"#utility.yul\":37968:38035   */\n      tag_725\n        /* \"#utility.yul\":38032:38034   */\n      0x2d\n        /* \"#utility.yul\":38027:38030   */\n      dup4\n        /* \"#utility.yul\":37968:38035   */\n      tag_342\n      jump\t// in\n    tag_725:\n        /* \"#utility.yul\":37961:38035   */\n      swap2\n      pop\n        /* \"#utility.yul\":38044:38137   */\n      tag_726\n        /* \"#utility.yul\":38133:38136   */\n      dup3\n        /* \"#utility.yul\":38044:38137   */\n      tag_402\n      jump\t// in\n    tag_726:\n        /* \"#utility.yul\":38162:38164   */\n      0x40\n        /* \"#utility.yul\":38157:38160   */\n      dup3\n        /* \"#utility.yul\":38153:38165   */\n      add\n        /* \"#utility.yul\":38146:38165   */\n      swap1\n      pop\n        /* \"#utility.yul\":37805:38171   */\n      swap2\n      swap1\n      pop\n      jump\t// out\n        /* \"#utility.yul\":38177:38596   */\n    tag_271:\n        /* \"#utility.yul\":38343:38347   */\n      0x00\n        /* \"#utility.yul\":38381:38383   */\n      0x20\n        /* \"#utility.yul\":38370:38379   */\n      dup3\n        /* \"#utility.yul\":38366:38384   */\n      add\n        /* \"#utility.yul\":38358:38384   */\n      swap1\n      pop\n        /* \"#utility.yul\":38430:38439   */\n      dup2\n        /* \"#utility.yul\":38424:38428   */\n      dup2\n        /* \"#utility.yul\":38420:38440   */\n      sub\n        /* \"#utility.yul\":38416:38417   */\n      0x00\n        /* \"#utility.yul\":38405:38414   */\n      dup4\n        /* \"#utility.yul\":38401:38418   */\n      add\n        /* \"#utility.yul\":38394:38441   */\n      mstore\n        /* \"#utility.yul\":38458:38589   */\n      tag_728\n        /* \"#utility.yul\":38584:38588   */\n      dup2\n        /* \"#utility.yul\":38458:38589   */\n      tag_403\n      jump\t// in\n    tag_728:\n        /* \"#utility.yul\":38450:38589   */\n      swap1\n      pop\n        /* \"#utility.yul\":38177:38596   */\n      swap2\n      swap1\n      pop\n      jump\t// out\n        /* \"#utility.yul\":38602:38824   */\n    tag_404:\n        /* \"#utility.yul\":38742:38776   */\n      0x566f74696e672068617320656e64656420666f72207468697320656c65637469\n        /* \"#utility.yul\":38738:38739   */\n      0x00\n        /* \"#utility.yul\":38730:38736   */\n      dup3\n        /* \"#utility.yul\":38726:38740   */\n      add\n        /* \"#utility.yul\":38719:38777   */\n      mstore\n        /* \"#utility.yul\":38811:38816   */\n      0x6f6e2e0000000000000000000000000000000000000000000000000000000000\n        /* \"#utility.yul\":38806:38808   */\n      0x20\n        /* \"#utility.yul\":38798:38804   */\n      dup3\n        /* \"#utility.yul\":38794:38809   */\n      add\n        /* \"#utility.yul\":38787:38817   */\n      mstore\n        /* \"#utility.yul\":38602:38824   */\n      pop\n      jump\t// out\n        /* \"#utility.yul\":38830:39196   */\n    tag_405:\n        /* \"#utility.yul\":38972:38975   */\n      0x00\n        /* \"#utility.yul\":38993:39060   */\n      tag_731\n        /* \"#utility.yul\":39057:39059   */\n      0x23\n        /* \"#utility.yul\":39052:39055   */\n      dup4\n        /* \"#utility.yul\":38993:39060   */\n      tag_342\n      jump\t// in\n    tag_731:\n        /* \"#utility.yul\":38986:39060   */\n      swap2\n      pop\n        /* \"#utility.yul\":39069:39162   */\n      tag_732\n        /* \"#utility.yul\":39158:39161   */\n      dup3\n        /* \"#utility.yul\":39069:39162   */\n      tag_404\n      jump\t// in\n    tag_732:\n        /* \"#utility.yul\":39187:39189   */\n      0x40\n        /* \"#utility.yul\":39182:39185   */\n      dup3\n        /* \"#utility.yul\":39178:39190   */\n      add\n        /* \"#utility.yul\":39171:39190   */\n      swap1\n      pop\n        /* \"#utility.yul\":38830:39196   */\n      swap2\n      swap1\n      pop\n      jump\t// out\n        /* \"#utility.yul\":39202:39621   */\n    tag_274:\n        /* \"#utility.yul\":39368:39372   */\n      0x00\n        /* \"#utility.yul\":39406:39408   */\n      0x20\n        /* \"#utility.yul\":39395:39404   */\n      dup3\n        /* \"#utility.yul\":39391:39409   */\n      add\n        /* \"#utility.yul\":39383:39409   */\n      swap1\n      pop\n        /* \"#utility.yul\":39455:39464   */\n      dup2\n        /* \"#utility.yul\":39449:39453   */\n      dup2\n        /* \"#utility.yul\":39445:39465   */\n      sub\n        /* \"#utility.yul\":39441:39442   */\n      0x00\n        /* \"#utility.yul\":39430:39439   */\n      dup4\n        /* \"#utility.yul\":39426:39443   */\n      add\n        /* \"#utility.yul\":39419:39466   */\n      mstore\n        /* \"#utility.yul\":39483:39614   */\n      tag_734\n        /* \"#utility.yul\":39609:39613   */\n      dup2\n        /* \"#utility.yul\":39483:39614   */\n      tag_405\n      jump\t// in\n    tag_734:\n        /* \"#utility.yul\":39475:39614   */\n      swap1\n      pop\n        /* \"#utility.yul\":39202:39621   */\n      swap2\n      swap1\n      pop\n      jump\t// out\n        /* \"#utility.yul\":39627:39794   */\n    tag_406:\n        /* \"#utility.yul\":39767:39786   */\n      0x596f7520616c726561647920766f746564000000000000000000000000000000\n        /* \"#utility.yul\":39763:39764   */\n      0x00\n        /* \"#utility.yul\":39755:39761   */\n      dup3\n        /* \"#utility.yul\":39751:39765   */\n      add\n        /* \"#utility.yul\":39744:39787   */\n      mstore\n        /* \"#utility.yul\":39627:39794   */\n      pop\n      jump\t// out\n        /* \"#utility.yul\":39800:40166   */\n    tag_407:\n        /* \"#utility.yul\":39942:39945   */\n      0x00\n        /* \"#utility.yul\":39963:40030   */\n      tag_737\n        /* \"#utility.yul\":40027:40029   */\n      0x11\n        /* \"#utility.yul\":40022:40025   */\n      dup4\n        /* \"#utility.yul\":39963:40030   */\n      tag_342\n      jump\t// in\n    tag_737:\n        /* \"#utility.yul\":39956:40030   */\n      swap2\n      pop\n        /* \"#utility.yul\":40039:40132   */\n      tag_738\n        /* \"#utility.yul\":40128:40131   */\n      dup3\n        /* \"#utility.yul\":40039:40132   */\n      tag_406\n      jump\t// in\n    tag_738:\n        /* \"#utility.yul\":40157:40159   */\n      0x20\n        /* \"#utility.yul\":40152:40155   */\n      dup3\n        /* \"#utility.yul\":40148:40160   */\n      add\n        /* \"#utility.yul\":40141:40160   */\n      swap1\n      pop\n        /* \"#utility.yul\":39800:40166   */\n      swap2\n      swap1\n      pop\n      jump\t// out\n        /* \"#utility.yul\":40172:40591   */\n    tag_277:\n        /* \"#utility.yul\":40338:40342   */\n      0x00\n        /* \"#utility.yul\":40376:40378   */\n      0x20\n        /* \"#utility.yul\":40365:40374   */\n      dup3\n        /* \"#utility.yul\":40361:40379   */\n      add\n        /* \"#utility.yul\":40353:40379   */\n      swap1\n      pop\n        /* \"#utility.yul\":40425:40434   */\n      dup2\n        /* \"#utility.yul\":40419:40423   */\n      dup2\n        /* \"#utility.yul\":40415:40435   */\n      sub\n        /* \"#utility.yul\":40411:40412   */\n      0x00\n        /* \"#utility.yul\":40400:40409   */\n      dup4\n        /* \"#utility.yul\":40396:40413   */\n      add\n        /* \"#utility.yul\":40389:40436   */\n      mstore\n        /* \"#utility.yul\":40453:40584   */\n      tag_740\n        /* \"#utility.yul\":40579:40583   */\n      dup2\n        /* \"#utility.yul\":40453:40584   */\n      tag_407\n      jump\t// in\n    tag_740:\n        /* \"#utility.yul\":40445:40584   */\n      swap1\n      pop\n        /* \"#utility.yul\":40172:40591   */\n      swap2\n      swap1\n      pop\n      jump\t// out\n        /* \"#utility.yul\":40597:40771   */\n    tag_408:\n        /* \"#utility.yul\":40737:40763   */\n      0x43616e64696461746520646f6573206e6f742065786973740000000000000000\n        /* \"#utility.yul\":40733:40734   */\n      0x00\n        /* \"#utility.yul\":40725:40731   */\n      dup3\n        /* \"#utility.yul\":40721:40735   */\n      add\n        /* \"#utility.yul\":40714:40764   */\n      mstore\n        /* \"#utility.yul\":40597:40771   */\n      pop\n      jump\t// out\n        /* \"#utility.yul\":40777:41143   */\n    tag_409:\n        /* \"#utility.yul\":40919:40922   */\n      0x00\n        /* \"#utility.yul\":40940:41007   */\n      tag_743\n        /* \"#utility.yul\":41004:41006   */\n      0x18\n        /* \"#utility.yul\":40999:41002   */\n      dup4\n        /* \"#utility.yul\":40940:41007   */\n      tag_342\n      jump\t// in\n    tag_743:\n        /* \"#utility.yul\":40933:41007   */\n      swap2\n      pop\n        /* \"#utility.yul\":41016:41109   */\n      tag_744\n        /* \"#utility.yul\":41105:41108   */\n      dup3\n        /* \"#utility.yul\":41016:41109   */\n      tag_408\n      jump\t// in\n    tag_744:\n        /* \"#utility.yul\":41134:41136   */\n      0x20\n        /* \"#utility.yul\":41129:41132   */\n      dup3\n        /* \"#utility.yul\":41125:41137   */\n      add\n        /* \"#utility.yul\":41118:41137   */\n      swap1\n      pop\n        /* \"#utility.yul\":40777:41143   */\n      swap2\n      swap1\n      pop\n      jump\t// out\n        /* \"#utility.yul\":41149:41568   */\n    tag_280:\n        /* \"#utility.yul\":41315:41319   */\n      0x00\n        /* \"#utility.yul\":41353:41355   */\n      0x20\n        /* \"#utility.yul\":41342:41351   */\n      dup3\n        /* \"#utility.yul\":41338:41356   */\n      add\n        /* \"#utility.yul\":41330:41356   */\n      swap1\n      pop\n        /* \"#utility.yul\":41402:41411   */\n      dup2\n        /* \"#utility.yul\":41396:41400   */\n      dup2\n        /* \"#utility.yul\":41392:41412   */\n      sub\n        /* \"#utility.yul\":41388:41389   */\n      0x00\n        /* \"#utility.yul\":41377:41386   */\n      dup4\n        /* \"#utility.yul\":41373:41390   */\n      add\n        /* \"#utility.yul\":41366:41413   */\n      mstore\n        /* \"#utility.yul\":41430:41561   */\n      tag_746\n        /* \"#utility.yul\":41556:41560   */\n      dup2\n        /* \"#utility.yul\":41430:41561   */\n      tag_409\n      jump\t// in\n    tag_746:\n        /* \"#utility.yul\":41422:41561   */\n      swap1\n      pop\n        /* \"#utility.yul\":41149:41568   */\n      swap2\n      swap1\n      pop\n      jump\t// out\n        /* \"#utility.yul\":41574:41754   */\n    tag_410:\n        /* \"#utility.yul\":41622:41699   */\n      0x4e487b7100000000000000000000000000000000000000000000000000000000\n        /* \"#utility.yul\":41619:41620   */\n      0x00\n        /* \"#utility.yul\":41612:41700   */\n      mstore\n        /* \"#utility.yul\":41719:41723   */\n      0x11\n        /* \"#utility.yul\":41716:41717   */\n      0x04\n        /* \"#utility.yul\":41709:41724   */\n      mstore\n        /* \"#utility.yul\":41743:41747   */\n      0x24\n        /* \"#utility.yul\":41740:41741   */\n      0x00\n        /* \"#utility.yul\":41733:41748   */\n      revert\n        /* \"#utility.yul\":41760:41951   */\n    tag_282:\n        /* \"#utility.yul\":41800:41803   */\n      0x00\n        /* \"#utility.yul\":41819:41839   */\n      tag_749\n        /* \"#utility.yul\":41837:41838   */\n      dup3\n        /* \"#utility.yul\":41819:41839   */\n      tag_318\n      jump\t// in\n    tag_749:\n        /* \"#utility.yul\":41814:41839   */\n      swap2\n      pop\n        /* \"#utility.yul\":41853:41873   */\n      tag_750\n        /* \"#utility.yul\":41871:41872   */\n      dup4\n        /* \"#utility.yul\":41853:41873   */\n      tag_318\n      jump\t// in\n    tag_750:\n        /* \"#utility.yul\":41848:41873   */\n      swap3\n      pop\n        /* \"#utility.yul\":41896:41897   */\n      dup3\n        /* \"#utility.yul\":41893:41894   */\n      dup3\n        /* \"#utility.yul\":41889:41898   */\n      add\n        /* \"#utility.yul\":41882:41898   */\n      swap1\n      pop\n        /* \"#utility.yul\":41917:41920   */\n      dup1\n        /* \"#utility.yul\":41914:41915   */\n      dup3\n        /* \"#utility.yul\":41911:41921   */\n      gt\n        /* \"#utility.yul\":41908:41944   */\n      iszero\n      tag_751\n      jumpi\n        /* \"#utility.yul\":41924:41942   */\n      tag_752\n      tag_410\n      jump\t// in\n    tag_752:\n        /* \"#utility.yul\":41908:41944   */\n    tag_751:\n        /* \"#utility.yul\":41760:41951   */\n      swap3\n      swap2\n      pop\n      pop\n      jump\t// out\n        /* \"#utility.yul\":41957:42289   */\n    tag_284:\n        /* \"#utility.yul\":42078:42082   */\n      0x00\n        /* \"#utility.yul\":42116:42118   */\n      0x40\n        /* \"#utility.yul\":42105:42114   */\n      dup3\n        /* \"#utility.yul\":42101:42119   */\n      add\n        /* \"#utility.yul\":42093:42119   */\n      swap1\n      pop\n        /* \"#utility.yul\":42129:42200   */\n      tag_754\n        /* \"#utility.yul\":42197:42198   */\n      0x00\n        /* \"#utility.yul\":42186:42195   */\n      dup4\n        /* \"#utility.yul\":42182:42199   */\n      add\n        /* \"#utility.yul\":42173:42179   */\n      dup6\n        /* \"#utility.yul\":42129:42200   */\n      tag_321\n      jump\t// in\n    tag_754:\n        /* \"#utility.yul\":42210:42282   */\n      tag_755\n        /* \"#utility.yul\":42278:42280   */\n      0x20\n        /* \"#utility.yul\":42267:42276   */\n      dup4\n        /* \"#utility.yul\":42263:42281   */\n      add\n        /* \"#utility.yul\":42254:42260   */\n      dup5\n        /* \"#utility.yul\":42210:42282   */\n      tag_352\n      jump\t// in\n    tag_755:\n        /* \"#utility.yul\":41957:42289   */\n      swap4\n      swap3\n      pop\n      pop\n      pop\n      jump\t// out\n        /* \"#utility.yul\":42295:42468   */\n    tag_411:\n        /* \"#utility.yul\":42435:42460   */\n      0x456c656374696f6e20616c726561647920657869737473000000000000000000\n        /* \"#utility.yul\":42431:42432   */\n      0x00\n        /* \"#utility.yul\":42423:42429   */\n      dup3\n        /* \"#utility.yul\":42419:42433   */\n      add\n        /* \"#utility.yul\":42412:42461   */\n      mstore\n        /* \"#utility.yul\":42295:42468   */\n      pop\n      jump\t// out\n        /* \"#utility.yul\":42474:42840   */\n    tag_412:\n        /* \"#utility.yul\":42616:42619   */\n      0x00\n        /* \"#utility.yul\":42637:42704   */\n      tag_758\n        /* \"#utility.yul\":42701:42703   */\n      0x17\n        /* \"#utility.yul\":42696:42699   */\n      dup4\n        /* \"#utility.yul\":42637:42704   */\n      tag_342\n      jump\t// in\n    tag_758:\n        /* \"#utility.yul\":42630:42704   */\n      swap2\n      pop\n        /* \"#utility.yul\":42713:42806   */\n      tag_759\n        /* \"#utility.yul\":42802:42805   */\n      dup3\n        /* \"#utility.yul\":42713:42806   */\n      tag_411\n      jump\t// in\n    tag_759:\n        /* \"#utility.yul\":42831:42833   */\n      0x20\n        /* \"#utility.yul\":42826:42829   */\n      dup3\n        /* \"#utility.yul\":42822:42834   */\n      add\n        /* \"#utility.yul\":42815:42834   */\n      swap1\n      pop\n        /* \"#utility.yul\":42474:42840   */\n      swap2\n      swap1\n      pop\n      jump\t// out\n        /* \"#utility.yul\":42846:43265   */\n    tag_300:\n        /* \"#utility.yul\":43012:43016   */\n      0x00\n        /* \"#utility.yul\":43050:43052   */\n      0x20\n        /* \"#utility.yul\":43039:43048   */\n      dup3\n        /* \"#utility.yul\":43035:43053   */\n      add\n        /* \"#utility.yul\":43027:43053   */\n      swap1\n      pop\n        /* \"#utility.yul\":43099:43108   */\n      dup2\n        /* \"#utility.yul\":43093:43097   */\n      dup2\n        /* \"#utility.yul\":43089:43109   */\n      sub\n        /* \"#utility.yul\":43085:43086   */\n      0x00\n        /* \"#utility.yul\":43074:43083   */\n      dup4\n        /* \"#utility.yul\":43070:43087   */\n      add\n        /* \"#utility.yul\":43063:43110   */\n      mstore\n        /* \"#utility.yul\":43127:43258   */\n      tag_761\n        /* \"#utility.yul\":43253:43257   */\n      dup2\n        /* \"#utility.yul\":43127:43258   */\n      tag_412\n      jump\t// in\n    tag_761:\n        /* \"#utility.yul\":43119:43258   */\n      swap1\n      pop\n        /* \"#utility.yul\":42846:43265   */\n      swap2\n      swap1\n      pop\n      jump\t// out\n        /* \"#utility.yul\":43271:43491   */\n    tag_413:\n        /* \"#utility.yul\":43411:43445   */\n      0x456e642074696d65206d7573742062652061667465722073746172742074696d\n        /* \"#utility.yul\":43407:43408   */\n      0x00\n        /* \"#utility.yul\":43399:43405   */\n      dup3\n        /* \"#utility.yul\":43395:43409   */\n      add\n        /* \"#utility.yul\":43388:43446   */\n      mstore\n        /* \"#utility.yul\":43480:43483   */\n      0x6500000000000000000000000000000000000000000000000000000000000000\n        /* \"#utility.yul\":43475:43477   */\n      0x20\n        /* \"#utility.yul\":43467:43473   */\n      dup3\n        /* \"#utility.yul\":43463:43478   */\n      add\n        /* \"#utility.yul\":43456:43484   */\n      mstore\n        /* \"#utility.yul\":43271:43491   */\n      pop\n      jump\t// out\n        /* \"#utility.yul\":43497:43863   */\n    tag_414:\n        /* \"#utility.yul\":43639:43642   */\n      0x00\n        /* \"#utility.yul\":43660:43727   */\n      tag_764\n        /* \"#utility.yul\":43724:43726   */\n      0x21\n        /* \"#utility.yul\":43719:43722   */\n      dup4\n        /* \"#utility.yul\":43660:43727   */\n      tag_342\n      jump\t// in\n    tag_764:\n        /* \"#utility.yul\":43653:43727   */\n      swap2\n      pop\n        /* \"#utility.yul\":43736:43829   */\n      tag_765\n        /* \"#utility.yul\":43825:43828   */\n      dup3\n        /* \"#utility.yul\":43736:43829   */\n      tag_413\n      jump\t// in\n    tag_765:\n        /* \"#utility.yul\":43854:43856   */\n      0x40\n        /* \"#utility.yul\":43849:43852   */\n      dup3\n        /* \"#utility.yul\":43845:43857   */\n      add\n        /* \"#utility.yul\":43838:43857   */\n      swap1\n      pop\n        /* \"#utility.yul\":43497:43863   */\n      swap2\n      swap1\n      pop\n      jump\t// out\n        /* \"#utility.yul\":43869:44288   */\n    tag_303:\n        /* \"#utility.yul\":44035:44039   */\n      0x00\n        /* \"#utility.yul\":44073:44075   */\n      0x20\n        /* \"#utility.yul\":44062:44071   */\n      dup3\n        /* \"#utility.yul\":44058:44076   */\n      add\n        /* \"#utility.yul\":44050:44076   */\n      swap1\n      pop\n        /* \"#utility.yul\":44122:44131   */\n      dup2\n        /* \"#utility.yul\":44116:44120   */\n      dup2\n        /* \"#utility.yul\":44112:44132   */\n      sub\n        /* \"#utility.yul\":44108:44109   */\n      0x00\n        /* \"#utility.yul\":44097:44106   */\n      dup4\n        /* \"#utility.yul\":44093:44110   */\n      add\n        /* \"#utility.yul\":44086:44133   */\n      mstore\n        /* \"#utility.yul\":44150:44281   */\n      tag_767\n        /* \"#utility.yul\":44276:44280   */\n      dup2\n        /* \"#utility.yul\":44150:44281   */\n      tag_414\n      jump\t// in\n    tag_767:\n        /* \"#utility.yul\":44142:44281   */\n      swap1\n      pop\n        /* \"#utility.yul\":43869:44288   */\n      swap2\n      swap1\n      pop\n      jump\t// out\n        /* \"#utility.yul\":44294:44476   */\n    tag_415:\n        /* \"#utility.yul\":44434:44468   */\n      0x53746172742074696d65206d75737420626520696e2074686520667574757265\n        /* \"#utility.yul\":44430:44431   */\n      0x00\n        /* \"#utility.yul\":44422:44428   */\n      dup3\n        /* \"#utility.yul\":44418:44432   */\n      add\n        /* \"#utility.yul\":44411:44469   */\n      mstore\n        /* \"#utility.yul\":44294:44476   */\n      pop\n      jump\t// out\n        /* \"#utility.yul\":44482:44848   */\n    tag_416:\n        /* \"#utility.yul\":44624:44627   */\n      0x00\n        /* \"#utility.yul\":44645:44712   */\n      tag_770\n        /* \"#utility.yul\":44709:44711   */\n      0x20\n        /* \"#utility.yul\":44704:44707   */\n      dup4\n        /* \"#utility.yul\":44645:44712   */\n      tag_342\n      jump\t// in\n    tag_770:\n        /* \"#utility.yul\":44638:44712   */\n      swap2\n      pop\n        /* \"#utility.yul\":44721:44814   */\n      tag_771\n        /* \"#utility.yul\":44810:44813   */\n      dup3\n        /* \"#utility.yul\":44721:44814   */\n      tag_415\n      jump\t// in\n    tag_771:\n        /* \"#utility.yul\":44839:44841   */\n      0x20\n        /* \"#utility.yul\":44834:44837   */\n      dup3\n        /* \"#utility.yul\":44830:44842   */\n      add\n        /* \"#utility.yul\":44823:44842   */\n      swap1\n      pop\n        /* \"#utility.yul\":44482:44848   */\n      swap2\n      swap1\n      pop\n      jump\t// out\n        /* \"#utility.yul\":44854:45273   */\n    tag_306:\n        /* \"#utility.yul\":45020:45024   */\n      0x00\n        /* \"#utility.yul\":45058:45060   */\n      0x20\n        /* \"#utility.yul\":45047:45056   */\n      dup3\n        /* \"#utility.yul\":45043:45061   */\n      add\n        /* \"#utility.yul\":45035:45061   */\n      swap1\n      pop\n        /* \"#utility.yul\":45107:45116   */\n      dup2\n        /* \"#utility.yul\":45101:45105   */\n      dup2\n        /* \"#utility.yul\":45097:45117   */\n      sub\n        /* \"#utility.yul\":45093:45094   */\n      0x00\n        /* \"#utility.yul\":45082:45091   */\n      dup4\n        /* \"#utility.yul\":45078:45095   */\n      add\n        /* \"#utility.yul\":45071:45118   */\n      mstore\n        /* \"#utility.yul\":45135:45266   */\n      tag_773\n        /* \"#utility.yul\":45261:45265   */\n      dup2\n        /* \"#utility.yul\":45135:45266   */\n      tag_416\n      jump\t// in\n    tag_773:\n        /* \"#utility.yul\":45127:45266   */\n      swap1\n      pop\n        /* \"#utility.yul\":44854:45273   */\n      swap2\n      swap1\n      pop\n      jump\t// out\n        /* \"#utility.yul\":45279:45612   */\n    tag_312:\n        /* \"#utility.yul\":45402:45406   */\n      0x00\n        /* \"#utility.yul\":45440:45442   */\n      0x20\n        /* \"#utility.yul\":45429:45438   */\n      dup3\n        /* \"#utility.yul\":45425:45443   */\n      add\n        /* \"#utility.yul\":45417:45443   */\n      swap1\n      pop\n        /* \"#utility.yul\":45489:45498   */\n      dup2\n        /* \"#utility.yul\":45483:45487   */\n      dup2\n        /* \"#utility.yul\":45479:45499   */\n      sub\n        /* \"#utility.yul\":45475:45476   */\n      0x00\n        /* \"#utility.yul\":45464:45473   */\n      dup4\n        /* \"#utility.yul\":45460:45477   */\n      add\n        /* \"#utility.yul\":45453:45500   */\n      mstore\n        /* \"#utility.yul\":45517:45605   */\n      tag_775\n        /* \"#utility.yul\":45600:45604   */\n      dup2\n        /* \"#utility.yul\":45591:45597   */\n      dup5\n        /* \"#utility.yul\":45583:45589   */\n      dup7\n        /* \"#utility.yul\":45517:45605   */\n      tag_399\n      jump\t// in\n    tag_775:\n        /* \"#utility.yul\":45509:45605   */\n      swap1\n      pop\n        /* \"#utility.yul\":45279:45612   */\n      swap4\n      swap3\n      pop\n      pop\n      pop\n      jump\t// out\n\n    auxdata: 0xa2646970667358221220de2fe6e31abd3f2652dda76316240e37b65dedf302254efc10e315ba2467436e64736f6c634300081e0033\n}\n",
				"bytecode": {
					"linkReferences": {},
					"object": "6080604052348015600e575f5ffd5b50335f5f6101000a81548173ffffffffffffffffffffffffffffffffffffffff021916908373ffffffffffffffffffffffffffffffffffffffff1602179055506132578061005b5f395ff3fe608060405234801561000f575f5ffd5b50600436106100fe575f3560e01c80637fd5f26811610095578063b384abef11610064578063b384abef146102e8578063c6958b1214610304578063e3cd91fa14610335578063f497d15f14610351576100fe565b80637fd5f268146102605780638da5cb5b1461027e578063941b00ac1461029c578063a958f1aa146102cc576100fe565b806351ce4e24116100d157806351ce4e24146101c25780635e6fef01146101de5780636d32dc4b146102125780637de142421461022e576100fe565b806302330a61146101025780633e39a7a5146101325780634129b2c9146101625780634385963214610192575b5f5ffd5b61011c60048036038101906101179190611d3a565b610381565b6040516101299190611d74565b60405180910390f35b61014c60048036038101906101479190611d3a565b6103a1565b6040516101599190611f14565b60405180910390f35b61017c60048036038101906101779190611d3a565b610588565b6040516101899190611f81565b60405180910390f35b6101ac60048036038101906101a79190611ffb565b6108d9565b6040516101b99190612053565b60405180910390f35b6101dc60048036038101906101d79190611d3a565b610903565b005b6101f860048036038101906101f39190611d3a565b610b01565b6040516102099594939291906120b4565b60405180910390f35b61022c60048036038101906102279190611d3a565b610bc5565b005b6102486004803603810190610243919061210c565b610dfa565b6040516102579392919061214a565b60405180910390f35b610268610eb1565b60405161027591906122c3565b60405180910390f35b610286611053565b60405161029391906122f2565b60405180910390f35b6102b660048036038101906102b19190611d3a565b611077565b6040516102c3919061237e565b60405180910390f35b6102e660048036038101906102e191906123f8565b611094565b005b61030260048036038101906102fd919061210c565b611389565b005b61031e60048036038101906103199190611d3a565b61182e565b60405161032c9291906124dc565b60405180910390f35b61034f600480360381019061034a919061250a565b6119a4565b005b61036b6004803603810190610366919061210c565b611c88565b6040516103789190611d74565b60405180910390f35b60068181548110610390575f80fd5b905f5260205f20015f915090505481565b60605f60025f8481526020019081526020015f208054806020026020016040519081016040528092919081815260200182805480156103fd57602002820191905f5260205f20905b8154815260200190600101908083116103e9575b505050505090505f815167ffffffffffffffff8111156104205761041f61258e565b5b60405190808252806020026020018201604052801561045957816020015b610446611cb3565b81526020019060019003908161043e5790505b5090505f5f90505b825181101561057d5760015f8681526020019081526020015f205f84838151811061048f5761048e6125bb565b5b602002602001015181526020019081526020015f206040518060600160405290815f82015481526020016001820180546104c890612615565b80601f01602080910402602001604051908101604052809291908181526020018280546104f490612615565b801561053f5780601f106105165761010080835404028352916020019161053f565b820191905f5260205f20905b81548152906001019060200180831161052257829003601f168201915b50505050508152602001600282015481525050828281518110610565576105646125bb565b5b60200260200101819052508080600101915050610461565b508092505050919050565b610590611cb3565b6002808111156105a3576105a261230b565b5b60055f8481526020019081526020015f205f9054906101000a900460ff1660028111156105d3576105d261230b565b5b14610613576040517f08c379a000000000000000000000000000000000000000000000000000000000815260040161060a9061268f565b60405180910390fd5b5f60025f8481526020019081526020015f2080548060200260200160405190810160405280929190818152602001828054801561066d57602002820191905f5260205f20905b815481526020019060010190808311610659575b505050505090505f8151116106b7576040517f08c379a00000000000000000000000000000000000000000000000000000000081526004016106ae906126f7565b60405180910390fd5b6106bf611cb3565b5f825111156107b35760015f8581526020019081526020015f205f835f815181106106ed576106ec6125bb565b5b602002602001015181526020019081526020015f206040518060600160405290815f820154815260200160018201805461072690612615565b80601f016020809104026020016040519081016040528092919081815260200182805461075290612615565b801561079d5780601f106107745761010080835404028352916020019161079d565b820191905f5260205f20905b81548152906001019060200180831161078057829003601f168201915b5050505050815260200160028201548152505090505b5f5f90505b82518110156108ce575f60015f8781526020019081526020015f205f8584815181106107e7576107e66125bb565b5b602002602001015181526020019081526020015f206040518060600160405290815f820154815260200160018201805461082090612615565b80601f016020809104026020016040519081016040528092919081815260200182805461084c90612615565b80156108975780601f1061086e57610100808354040283529160200191610897565b820191905f5260205f20905b81548152906001019060200180831161087a57829003601f168201915b5050505050815260200160028201548152505090508260400151816040015111156108c0578092505b5080806001019150506107b8565b508092505050919050565b6004602052815f5260405f20602052805f5260405f205f915091509054906101000a900460ff1681565b5f5f9054906101000a900473ffffffffffffffffffffffffffffffffffffffff1673ffffffffffffffffffffffffffffffffffffffff163373ffffffffffffffffffffffffffffffffffffffff1614610991576040517f08c379a00000000000000000000000000000000000000000000000000000000081526004016109889061275f565b60405180910390fd5b6002808111156109a4576109a361230b565b5b60055f8381526020019081526020015f205f9054906101000a900460ff1660028111156109d4576109d361230b565b5b03610a14576040517f08c379a0000000000000000000000000000000000000000000000000000000008152600401610a0b906127c7565b60405180910390fd5b60016002811115610a2857610a2761230b565b5b60055f8381526020019081526020015f205f9054906101000a900460ff166002811115610a5857610a5761230b565b5b14610a98576040517f08c379a0000000000000000000000000000000000000000000000000000000008152600401610a8f90612855565b60405180910390fd5b600260055f8381526020019081526020015f205f6101000a81548160ff02191690836002811115610acc57610acb61230b565b5b0217905550807f562cd572b2ba3b666cd989fc4ca98419ec81e75f04528df9d9d76fdb7807ee7160405160405180910390a250565b6003602052805f5260405f205f91509050805f018054610b2090612615565b80601f0160208091040260200160405190810160405280929190818152602001828054610b4c90612615565b8015610b975780601f10610b6e57610100808354040283529160200191610b97565b820191905f5260205f20905b815481529060010190602001808311610b7a57829003601f168201915b505050505090806001015490806002015490806003015490806004015f9054906101000a900460ff16905085565b5f5f9054906101000a900473ffffffffffffffffffffffffffffffffffffffff1673ffffffffffffffffffffffffffffffffffffffff163373ffffffffffffffffffffffffffffffffffffffff1614610c53576040517f08c379a0000000000000000000000000000000000000000000000000000000008152600401610c4a9061275f565b60405180910390fd5b5f60035f8381526020019081526020015f209050806004015f9054906101000a900460ff16610cb7576040517f08c379a0000000000000000000000000000000000000000000000000000000008152600401610cae906128bd565b60405180910390fd5b5f6002811115610cca57610cc961230b565b5b60055f8481526020019081526020015f205f9054906101000a900460ff166002811115610cfa57610cf961230b565b5b14610d3a576040517f08c379a0000000000000000000000000000000000000000000000000000000008152600401610d319061294b565b60405180910390fd5b5f60025f8481526020019081526020015f208054905011610d90576040517f08c379a0000000000000000000000000000000000000000000000000000000008152600401610d87906129b3565b60405180910390fd5b600160055f8481526020019081526020015f205f6101000a81548160ff02191690836002811115610dc457610dc361230b565b5b0217905550817f159eee87222a0489c529f2153c26ad65d718f2cc33ebaa8d399d1dd5b39facaa60405160405180910390a25050565b6001602052815f5260405f20602052805f5260405f205f9150915050805f015490806001018054610e2a90612615565b80601f0160208091040260200160405190810160405280929190818152602001828054610e5690612615565b8015610ea15780601f10610e7857610100808354040283529160200191610ea1565b820191905f5260205f20905b815481529060010190602001808311610e8457829003601f168201915b5050505050908060020154905083565b60605f60068054905067ffffffffffffffff811115610ed357610ed261258e565b5b604051908082528060200260200182016040528015610f0c57816020015b610ef9611cd2565b815260200190600190039081610ef15790505b5090505f5f90505b60068054905081101561104b5760035f60068381548110610f3857610f376125bb565b5b905f5260205f20015481526020019081526020015f206040518060a00160405290815f82018054610f6890612615565b80601f0160208091040260200160405190810160405280929190818152602001828054610f9490612615565b8015610fdf5780601f10610fb657610100808354040283529160200191610fdf565b820191905f5260205f20905b815481529060010190602001808311610fc257829003601f168201915b50505050508152602001600182015481526020016002820154815260200160038201548152602001600482015f9054906101000a900460ff161515151581525050828281518110611033576110326125bb565b5b60200260200101819052508080600101915050610f14565b508091505090565b5f5f9054906101000a900473ffffffffffffffffffffffffffffffffffffffff1681565b6005602052805f5260405f205f915054906101000a900460ff1681565b5f5f9054906101000a900473ffffffffffffffffffffffffffffffffffffffff1673ffffffffffffffffffffffffffffffffffffffff163373ffffffffffffffffffffffffffffffffffffffff1614611122576040517f08c379a00000000000000000000000000000000000000000000000000000000081526004016111199061275f565b60405180910390fd5b60035f8581526020019081526020015f206004015f9054906101000a900460ff16611182576040517f08c379a0000000000000000000000000000000000000000000000000000000008152600401611179906128bd565b60405180910390fd5b5f60015f8681526020019081526020015f205f8581526020019081526020015f205f0154146111e6576040517f08c379a00000000000000000000000000000000000000000000000000000000081526004016111dd90612a41565b60405180910390fd5b5f60028111156111f9576111f861230b565b5b60055f8681526020019081526020015f205f9054906101000a900460ff1660028111156112295761122861230b565b5b14611269576040517f08c379a000000000000000000000000000000000000000000000000000000000815260040161126090612acf565b60405180910390fd5b604051806060016040528084815260200183838080601f0160208091040260200160405190810160405280939291908181526020018383808284375f81840152601f19601f8201169050808301925050505050505081526020015f81525060015f8681526020019081526020015f205f8581526020019081526020015f205f820151815f015560208201518160010190816113049190612c8d565b506040820151816002015590505060025f8581526020019081526020015f2083908060018154018082558091505060019003905f5260205f20015f9091909190915055837fed8911b3df733b7d5f75724158e54478ea12e30f49c9d31b5261879f5b76586f84848460405161137b93929190612d96565b60405180910390a250505050565b816001600281111561139e5761139d61230b565b5b60055f8381526020019081526020015f205f9054906101000a900460ff1660028111156113ce576113cd61230b565b5b1480156113ef575060035f8281526020019081526020015f20600301544210155b1561145b57600260055f8381526020019081526020015f205f6101000a81548160ff021916908360028111156114285761142761230b565b5b0217905550807f562cd572b2ba3b666cd989fc4ca98419ec81e75f04528df9d9d76fdb7807ee7160405160405180910390a25b82600160028111156114705761146f61230b565b5b60055f8381526020019081526020015f205f9054906101000a900460ff1660028111156114a05761149f61230b565b5b146114e0576040517f08c379a00000000000000000000000000000000000000000000000000000000081526004016114d790612e10565b60405180910390fd5b5f60035f8681526020019081526020015f206040518060a00160405290815f8201805461150c90612615565b80601f016020809104026020016040519081016040528092919081815260200182805461153890612615565b80156115835780601f1061155a57610100808354040283529160200191611583565b820191905f5260205f20905b81548152906001019060200180831161156657829003601f168201915b50505050508152602001600182015481526020016002820154815260200160038201548152602001600482015f9054906101000a900460ff1615151515815250509050806040015142101561160d576040517f08c379a000000000000000000000000000000000000000000000000000000000815260040161160490612e9e565b60405180910390fd5b80606001514210611653576040517f08c379a000000000000000000000000000000000000000000000000000000000815260040161164a90612f2c565b60405180910390fd5b60045f8681526020019081526020015f205f3373ffffffffffffffffffffffffffffffffffffffff1673ffffffffffffffffffffffffffffffffffffffff1681526020019081526020015f205f9054906101000a900460ff16156116ec576040517f08c379a00000000000000000000000000000000000000000000000000000000081526004016116e390612f94565b60405180910390fd5b5f60015f8781526020019081526020015f205f8681526020019081526020015f205f015403611750576040517f08c379a000000000000000000000000000000000000000000000000000000000815260040161174790612ffc565b60405180910390fd5b6001805f8781526020019081526020015f205f8681526020019081526020015f206002015f8282546117829190613047565b92505081905550600160045f8781526020019081526020015f205f3373ffffffffffffffffffffffffffffffffffffffff1673ffffffffffffffffffffffffffffffffffffffff1681526020019081526020015f205f6101000a81548160ff021916908315150217905550847fd91ecafccf238642dccd41161308b3eebe62a12bc5819daf5164780c221ec95b853360405161181f92919061307a565b60405180910390a25050505050565b611836611cd2565b5f60035f8481526020019081526020015f206004015f9054906101000a900460ff16611897576040517f08c379a000000000000000000000000000000000000000000000000000000000815260040161188e906128bd565b60405180910390fd5b60035f8481526020019081526020015f2060055f8581526020019081526020015f205f9054906101000a900460ff16816040518060a00160405290815f820180546118e190612615565b80601f016020809104026020016040519081016040528092919081815260200182805461190d90612615565b80156119585780601f1061192f57610100808354040283529160200191611958565b820191905f5260205f20905b81548152906001019060200180831161193b57829003601f168201915b50505050508152602001600182015481526020016002820154815260200160038201548152602001600482015f9054906101000a900460ff161515151581525050915091509150915091565b5f5f9054906101000a900473ffffffffffffffffffffffffffffffffffffffff1673ffffffffffffffffffffffffffffffffffffffff163373ffffffffffffffffffffffffffffffffffffffff1614611a32576040517f08c379a0000000000000000000000000000000000000000000000000000000008152600401611a299061275f565b60405180910390fd5b60035f8481526020019081526020015f206004015f9054906101000a900460ff1615611a93576040517f08c379a0000000000000000000000000000000000000000000000000000000008152600401611a8a906130eb565b60405180910390fd5b818111611ad5576040517f08c379a0000000000000000000000000000000000000000000000000000000008152600401611acc90613179565b60405180910390fd5b428211611b17576040517f08c379a0000000000000000000000000000000000000000000000000000000008152600401611b0e906131e1565b60405180910390fd5b6040518060a0016040528086868080601f0160208091040260200160405190810160405280939291908181526020018383808284375f81840152601f19601f8201169050808301925050505050505081526020018481526020018381526020018281526020016001151581525060035f8581526020019081526020015f205f820151815f019081611ba89190612c8d565b506020820151816001015560408201518160020155606082015181600301556080820151816004015f6101000a81548160ff021916908315150217905550905050600683908060018154018082558091505060019003905f5260205f20015f90919091909150555f60055f8581526020019081526020015f205f6101000a81548160ff02191690836002811115611c4257611c4161230b565b5b0217905550827f52be7c4e77b4de76b7607d621492061fe13b58597e72dfb5e51ab8f6187ed1418686604051611c799291906131ff565b60405180910390a25050505050565b6002602052815f5260405f208181548110611ca1575f80fd5b905f5260205f20015f91509150505481565b60405180606001604052805f8152602001606081526020015f81525090565b6040518060a00160405280606081526020015f81526020015f81526020015f81526020015f151581525090565b5f5ffd5b5f5ffd5b5f819050919050565b611d1981611d07565b8114611d23575f5ffd5b50565b5f81359050611d3481611d10565b92915050565b5f60208284031215611d4f57611d4e611cff565b5b5f611d5c84828501611d26565b91505092915050565b611d6e81611d07565b82525050565b5f602082019050611d875f830184611d65565b92915050565b5f81519050919050565b5f82825260208201905092915050565b5f819050602082019050919050565b611dbf81611d07565b82525050565b5f81519050919050565b5f82825260208201905092915050565b8281835e5f83830152505050565b5f601f19601f8301169050919050565b5f611e0782611dc5565b611e118185611dcf565b9350611e21818560208601611ddf565b611e2a81611ded565b840191505092915050565b5f606083015f830151611e4a5f860182611db6565b5060208301518482036020860152611e628282611dfd565b9150506040830151611e776040860182611db6565b508091505092915050565b5f611e8d8383611e35565b905092915050565b5f602082019050919050565b5f611eab82611d8d565b611eb58185611d97565b935083602082028501611ec785611da7565b805f5b85811015611f025784840389528151611ee38582611e82565b9450611eee83611e95565b925060208a01995050600181019050611eca565b50829750879550505050505092915050565b5f6020820190508181035f830152611f2c8184611ea1565b905092915050565b5f606083015f830151611f495f860182611db6565b5060208301518482036020860152611f618282611dfd565b9150506040830151611f766040860182611db6565b508091505092915050565b5f6020820190508181035f830152611f998184611f34565b905092915050565b5f73ffffffffffffffffffffffffffffffffffffffff82169050919050565b5f611fca82611fa1565b9050919050565b611fda81611fc0565b8114611fe4575f5ffd5b50565b5f81359050611ff581611fd1565b92915050565b5f5f6040838503121561201157612010611cff565b5b5f61201e85828601611d26565b925050602061202f85828601611fe7565b9150509250929050565b5f8115159050919050565b61204d81612039565b82525050565b5f6020820190506120665f830184612044565b92915050565b5f82825260208201905092915050565b5f61208682611dc5565b612090818561206c565b93506120a0818560208601611ddf565b6120a981611ded565b840191505092915050565b5f60a0820190508181035f8301526120cc818861207c565b90506120db6020830187611d65565b6120e86040830186611d65565b6120f56060830185611d65565b6121026080830184612044565b9695505050505050565b5f5f6040838503121561212257612121611cff565b5b5f61212f85828601611d26565b925050602061214085828601611d26565b9150509250929050565b5f60608201905061215d5f830186611d65565b818103602083015261216f818561207c565b905061217e6040830184611d65565b949350505050565b5f81519050919050565b5f82825260208201905092915050565b5f819050602082019050919050565b6121b881612039565b82525050565b5f60a083015f8301518482035f8601526121d88282611dfd565b91505060208301516121ed6020860182611db6565b5060408301516122006040860182611db6565b5060608301516122136060860182611db6565b50608083015161222660808601826121af565b508091505092915050565b5f61223c83836121be565b905092915050565b5f602082019050919050565b5f61225a82612186565b6122648185612190565b935083602082028501612276856121a0565b805f5b858110156122b157848403895281516122928582612231565b945061229d83612244565b925060208a01995050600181019050612279565b50829750879550505050505092915050565b5f6020820190508181035f8301526122db8184612250565b905092915050565b6122ec81611fc0565b82525050565b5f6020820190506123055f8301846122e3565b92915050565b7f4e487b71000000000000000000000000000000000000000000000000000000005f52602160045260245ffd5b600381106123495761234861230b565b5b50565b5f81905061235982612338565b919050565b5f6123688261234c565b9050919050565b6123788161235e565b82525050565b5f6020820190506123915f83018461236f565b92915050565b5f5ffd5b5f5ffd5b5f5ffd5b5f5f83601f8401126123b8576123b7612397565b5b8235905067ffffffffffffffff8111156123d5576123d461239b565b5b6020830191508360018202830111156123f1576123f061239f565b5b9250929050565b5f5f5f5f606085870312156124105761240f611cff565b5b5f61241d87828801611d26565b945050602061242e87828801611d26565b935050604085013567ffffffffffffffff81111561244f5761244e611d03565b5b61245b878288016123a3565b925092505092959194509250565b5f60a083015f8301518482035f8601526124838282611dfd565b91505060208301516124986020860182611db6565b5060408301516124ab6040860182611db6565b5060608301516124be6060860182611db6565b5060808301516124d160808601826121af565b508091505092915050565b5f6040820190508181035f8301526124f48185612469565b9050612503602083018461236f565b9392505050565b5f5f5f5f5f6080868803121561252357612522611cff565b5b5f86013567ffffffffffffffff8111156125405761253f611d03565b5b61254c888289016123a3565b9550955050602061255f88828901611d26565b935050604061257088828901611d26565b925050606061258188828901611d26565b9150509295509295909350565b7f4e487b71000000000000000000000000000000000000000000000000000000005f52604160045260245ffd5b7f4e487b71000000000000000000000000000000000000000000000000000000005f52603260045260245ffd5b7f4e487b71000000000000000000000000000000000000000000000000000000005f52602260045260245ffd5b5f600282049050600182168061262c57607f821691505b60208210810361263f5761263e6125e8565b5b50919050565b7f456c656374696f6e206973206e6f7420656e64656400000000000000000000005f82015250565b5f61267960158361206c565b915061268482612645565b602082019050919050565b5f6020820190508181035f8301526126a68161266d565b9050919050565b7f4e6f2063616e6469646174657320696e207468697320656c656374696f6e00005f82015250565b5f6126e1601e8361206c565b91506126ec826126ad565b602082019050919050565b5f6020820190508181035f83015261270e816126d5565b9050919050565b7f596f7520617265206e6f7420746865206f776e657200000000000000000000005f82015250565b5f61274960158361206c565b915061275482612715565b602082019050919050565b5f6020820190508181035f8301526127768161273d565b9050919050565b7f456c656374696f6e20616c726561647920656e646564000000000000000000005f82015250565b5f6127b160168361206c565b91506127bc8261277d565b602082019050919050565b5f6020820190508181035f8301526127de816127a5565b9050919050565b7f456c656374696f6e206973206e6f74206f6e676f696e6720746f206265206d615f8201527f6e75616c6c7920656e6465640000000000000000000000000000000000000000602082015250565b5f61283f602c8361206c565b915061284a826127e5565b604082019050919050565b5f6020820190508181035f83015261286c81612833565b9050919050565b7f456c656374696f6e20646f6573206e6f742065786973740000000000000000005f82015250565b5f6128a760178361206c565b91506128b282612873565b602082019050919050565b5f6020820190508181035f8301526128d48161289b565b9050919050565b7f456c656374696f6e20616c72656164792073746172746564206f7220656e64655f8201527f6400000000000000000000000000000000000000000000000000000000000000602082015250565b5f61293560218361206c565b9150612940826128db565b604082019050919050565b5f6020820190508181035f83015261296281612929565b9050919050565b7f4e6f2063616e64696461746573206164646564000000000000000000000000005f82015250565b5f61299d60138361206c565b91506129a882612969565b602082019050919050565b5f6020820190508181035f8301526129ca81612991565b9050919050565b7f43616e6469646174652077697468207468697320494420616c726561647920655f8201527f7869737473000000000000000000000000000000000000000000000000000000602082015250565b5f612a2b60258361206c565b9150612a36826129d1565b604082019050919050565b5f6020820190508181035f830152612a5881612a1f565b9050919050565b7f43616e6e6f74206164642063616e6469646174657320616674657220656c65635f8201527f74696f6e20686173207374617274656400000000000000000000000000000000602082015250565b5f612ab960308361206c565b9150612ac482612a5f565b604082019050919050565b5f6020820190508181035f830152612ae681612aad565b9050919050565b5f819050815f5260205f209050919050565b5f6020601f8301049050919050565b5f82821b905092915050565b5f60088302612b497fffffffffffffffffffffffffffffffffffffffffffffffffffffffffffffffff82612b0e565b612b538683612b0e565b95508019841693508086168417925050509392505050565b5f819050919050565b5f612b8e612b89612b8484611d07565b612b6b565b611d07565b9050919050565b5f819050919050565b612ba783612b74565b612bbb612bb382612b95565b848454612b1a565b825550505050565b5f5f905090565b612bd2612bc3565b612bdd818484612b9e565b505050565b5b81811015612c0057612bf55f82612bca565b600181019050612be3565b5050565b601f821115612c4557612c1681612aed565b612c1f84612aff565b81016020851015612c2e578190505b612c42612c3a85612aff565b830182612be2565b50505b505050565b5f82821c905092915050565b5f612c655f1984600802612c4a565b1980831691505092915050565b5f612c7d8383612c56565b9150826002028217905092915050565b612c9682611dc5565b67ffffffffffffffff811115612caf57612cae61258e565b5b612cb98254612615565b612cc4828285612c04565b5f60209050601f831160018114612cf5575f8415612ce3578287015190505b612ced8582612c72565b865550612d54565b601f198416612d0386612aed565b5f5b82811015612d2a57848901518255600182019150602085019450602081019050612d05565b86831015612d475784890151612d43601f891682612c56565b8355505b6001600288020188555050505b505050505050565b828183375f83830152505050565b5f612d75838561206c565b9350612d82838584612d5c565b612d8b83611ded565b840190509392505050565b5f604082019050612da95f830186611d65565b8181036020830152612dbc818486612d6a565b9050949350505050565b7f456c656374696f6e206973206e6f74206f6e676f696e670000000000000000005f82015250565b5f612dfa60178361206c565b9150612e0582612dc6565b602082019050919050565b5f6020820190508181035f830152612e2781612dee565b9050919050565b7f566f74696e6720686173206e6f7420737461727465642079657420666f7220745f8201527f68697320656c656374696f6e2e00000000000000000000000000000000000000602082015250565b5f612e88602d8361206c565b9150612e9382612e2e565b604082019050919050565b5f6020820190508181035f830152612eb581612e7c565b9050919050565b7f566f74696e672068617320656e64656420666f72207468697320656c656374695f8201527f6f6e2e0000000000000000000000000000000000000000000000000000000000602082015250565b5f612f1660238361206c565b9150612f2182612ebc565b604082019050919050565b5f6020820190508181035f830152612f4381612f0a565b9050919050565b7f596f7520616c726561647920766f7465640000000000000000000000000000005f82015250565b5f612f7e60118361206c565b9150612f8982612f4a565b602082019050919050565b5f6020820190508181035f830152612fab81612f72565b9050919050565b7f43616e64696461746520646f6573206e6f7420657869737400000000000000005f82015250565b5f612fe660188361206c565b9150612ff182612fb2565b602082019050919050565b5f6020820190508181035f83015261301381612fda565b9050919050565b7f4e487b71000000000000000000000000000000000000000000000000000000005f52601160045260245ffd5b5f61305182611d07565b915061305c83611d07565b92508282019050808211156130745761307361301a565b5b92915050565b5f60408201905061308d5f830185611d65565b61309a60208301846122e3565b9392505050565b7f456c656374696f6e20616c7265616479206578697374730000000000000000005f82015250565b5f6130d560178361206c565b91506130e0826130a1565b602082019050919050565b5f6020820190508181035f830152613102816130c9565b9050919050565b7f456e642074696d65206d7573742062652061667465722073746172742074696d5f8201527f6500000000000000000000000000000000000000000000000000000000000000602082015250565b5f61316360218361206c565b915061316e82613109565b604082019050919050565b5f6020820190508181035f83015261319081613157565b9050919050565b7f53746172742074696d65206d75737420626520696e20746865206675747572655f82015250565b5f6131cb60208361206c565b91506131d682613197565b602082019050919050565b5f6020820190508181035f8301526131f8816131bf565b9050919050565b5f6020820190508181035f830152613218818486612d6a565b9050939250505056fea2646970667358221220de2fe6e31abd3f2652dda76316240e37b65dedf302254efc10e315ba2467436e64736f6c634300081e0033",
					"opcodes": "PUSH1 0x80 PUSH1 0x40 MSTORE CALLVALUE DUP1 ISZERO PUSH1 0xE JUMPI PUSH0 PUSH0 REVERT JUMPDEST POP CALLER PUSH0 PUSH0 PUSH2 0x100 EXP DUP2 SLOAD DUP2 PUSH20 0xFFFFFFFFFFFFFFFFFFFFFFFFFFFFFFFFFFFFFFFF MUL NOT AND SWAP1 DUP4 PUSH20 0xFFFFFFFFFFFFFFFFFFFFFFFFFFFFFFFFFFFFFFFF AND MUL OR SWAP1 SSTORE POP PUSH2 0x3257 DUP1 PUSH2 0x5B PUSH0 CODECOPY PUSH0 RETURN INVALID PUSH1 0x80 PUSH1 0x40 MSTORE CALLVALUE DUP1 ISZERO PUSH2 0xF JUMPI PUSH0 PUSH0 REVERT JUMPDEST POP PUSH1 0x4 CALLDATASIZE LT PUSH2 0xFE JUMPI PUSH0 CALLDATALOAD PUSH1 0xE0 SHR DUP1 PUSH4 0x7FD5F268 GT PUSH2 0x95 JUMPI DUP1 PUSH4 0xB384ABEF GT PUSH2 0x64 JUMPI DUP1 PUSH4 0xB384ABEF EQ PUSH2 0x2E8 JUMPI DUP1 PUSH4 0xC6958B12 EQ PUSH2 0x304 JUMPI DUP1 PUSH4 0xE3CD91FA EQ PUSH2 0x335 JUMPI DUP1 PUSH4 0xF497D15F EQ PUSH2 0x351 JUMPI PUSH2 0xFE JUMP JUMPDEST DUP1 PUSH4 0x7FD5F268 EQ PUSH2 0x260 JUMPI DUP1 PUSH4 0x8DA5CB5B EQ PUSH2 0x27E JUMPI DUP1 PUSH4 0x941B00AC EQ PUSH2 0x29C JUMPI DUP1 PUSH4 0xA958F1AA EQ PUSH2 0x2CC JUMPI PUSH2 0xFE JUMP JUMPDEST DUP1 PUSH4 0x51CE4E24 GT PUSH2 0xD1 JUMPI DUP1 PUSH4 0x51CE4E24 EQ PUSH2 0x1C2 JUMPI DUP1 PUSH4 0x5E6FEF01 EQ PUSH2 0x1DE JUMPI DUP1 PUSH4 0x6D32DC4B EQ PUSH2 0x212 JUMPI DUP1 PUSH4 0x7DE14242 EQ PUSH2 0x22E JUMPI PUSH2 0xFE JUMP JUMPDEST DUP1 PUSH4 0x2330A61 EQ PUSH2 0x102 JUMPI DUP1 PUSH4 0x3E39A7A5 EQ PUSH2 0x132 JUMPI DUP1 PUSH4 0x4129B2C9 EQ PUSH2 0x162 JUMPI DUP1 PUSH4 0x43859632 EQ PUSH2 0x192 JUMPI JUMPDEST PUSH0 PUSH0 REVERT JUMPDEST PUSH2 0x11C PUSH1 0x4 DUP1 CALLDATASIZE SUB DUP2 ADD SWAP1 PUSH2 0x117 SWAP2 SWAP1 PUSH2 0x1D3A JUMP JUMPDEST PUSH2 0x381 JUMP JUMPDEST PUSH1 0x40 MLOAD PUSH2 0x129 SWAP2 SWAP1 PUSH2 0x1D74 JUMP JUMPDEST PUSH1 0x40 MLOAD DUP1 SWAP2 SUB SWAP1 RETURN JUMPDEST PUSH2 0x14C PUSH1 0x4 DUP1 CALLDATASIZE SUB DUP2 ADD SWAP1 PUSH2 0x147 SWAP2 SWAP1 PUSH2 0x1D3A JUMP JUMPDEST PUSH2 0x3A1 JUMP JUMPDEST PUSH1 0x40 MLOAD PUSH2 0x159 SWAP2 SWAP1 PUSH2 0x1F14 JUMP JUMPDEST PUSH1 0x40 MLOAD DUP1 SWAP2 SUB SWAP1 RETURN JUMPDEST PUSH2 0x17C PUSH1 0x4 DUP1 CALLDATASIZE SUB DUP2 ADD SWAP1 PUSH2 0x177 SWAP2 SWAP1 PUSH2 0x1D3A JUMP JUMPDEST PUSH2 0x588 JUMP JUMPDEST PUSH1 0x40 MLOAD PUSH2 0x189 SWAP2 SWAP1 PUSH2 0x1F81 JUMP JUMPDEST PUSH1 0x40 MLOAD DUP1 SWAP2 SUB SWAP1 RETURN JUMPDEST PUSH2 0x1AC PUSH1 0x4 DUP1 CALLDATASIZE SUB DUP2 ADD SWAP1 PUSH2 0x1A7 SWAP2 SWAP1 PUSH2 0x1FFB JUMP JUMPDEST PUSH2 0x8D9 JUMP JUMPDEST PUSH1 0x40 MLOAD PUSH2 0x1B9 SWAP2 SWAP1 PUSH2 0x2053 JUMP JUMPDEST PUSH1 0x40 MLOAD DUP1 SWAP2 SUB SWAP1 RETURN JUMPDEST PUSH2 0x1DC PUSH1 0x4 DUP1 CALLDATASIZE SUB DUP2 ADD SWAP1 PUSH2 0x1D7 SWAP2 SWAP1 PUSH2 0x1D3A JUMP JUMPDEST PUSH2 0x903 JUMP JUMPDEST STOP JUMPDEST PUSH2 0x1F8 PUSH1 0x4 DUP1 CALLDATASIZE SUB DUP2 ADD SWAP1 PUSH2 0x1F3 SWAP2 SWAP1 PUSH2 0x1D3A JUMP JUMPDEST PUSH2 0xB01 JUMP JUMPDEST PUSH1 0x40 MLOAD PUSH2 0x209 SWAP6 SWAP5 SWAP4 SWAP3 SWAP2 SWAP1 PUSH2 0x20B4 JUMP JUMPDEST PUSH1 0x40 MLOAD DUP1 SWAP2 SUB SWAP1 RETURN JUMPDEST PUSH2 0x22C PUSH1 0x4 DUP1 CALLDATASIZE SUB DUP2 ADD SWAP1 PUSH2 0x227 SWAP2 SWAP1 PUSH2 0x1D3A JUMP JUMPDEST PUSH2 0xBC5 JUMP JUMPDEST STOP JUMPDEST PUSH2 0x248 PUSH1 0x4 DUP1 CALLDATASIZE SUB DUP2 ADD SWAP1 PUSH2 0x243 SWAP2 SWAP1 PUSH2 0x210C JUMP JUMPDEST PUSH2 0xDFA JUMP JUMPDEST PUSH1 0x40 MLOAD PUSH2 0x257 SWAP4 SWAP3 SWAP2 SWAP1 PUSH2 0x214A JUMP JUMPDEST PUSH1 0x40 MLOAD DUP1 SWAP2 SUB SWAP1 RETURN JUMPDEST PUSH2 0x268 PUSH2 0xEB1 JUMP JUMPDEST PUSH1 0x40 MLOAD PUSH2 0x275 SWAP2 SWAP1 PUSH2 0x22C3 JUMP JUMPDEST PUSH1 0x40 MLOAD DUP1 SWAP2 SUB SWAP1 RETURN JUMPDEST PUSH2 0x286 PUSH2 0x1053 JUMP JUMPDEST PUSH1 0x40 MLOAD PUSH2 0x293 SWAP2 SWAP1 PUSH2 0x22F2 JUMP JUMPDEST PUSH1 0x40 MLOAD DUP1 SWAP2 SUB SWAP1 RETURN JUMPDEST PUSH2 0x2B6 PUSH1 0x4 DUP1 CALLDATASIZE SUB DUP2 ADD SWAP1 PUSH2 0x2B1 SWAP2 SWAP1 PUSH2 0x1D3A JUMP JUMPDEST PUSH2 0x1077 JUMP JUMPDEST PUSH1 0x40 MLOAD PUSH2 0x2C3 SWAP2 SWAP1 PUSH2 0x237E JUMP JUMPDEST PUSH1 0x40 MLOAD DUP1 SWAP2 SUB SWAP1 RETURN JUMPDEST PUSH2 0x2E6 PUSH1 0x4 DUP1 CALLDATASIZE SUB DUP2 ADD SWAP1 PUSH2 0x2E1 SWAP2 SWAP1 PUSH2 0x23F8 JUMP JUMPDEST PUSH2 0x1094 JUMP JUMPDEST STOP JUMPDEST PUSH2 0x302 PUSH1 0x4 DUP1 CALLDATASIZE SUB DUP2 ADD SWAP1 PUSH2 0x2FD SWAP2 SWAP1 PUSH2 0x210C JUMP JUMPDEST PUSH2 0x1389 JUMP JUMPDEST STOP JUMPDEST PUSH2 0x31E PUSH1 0x4 DUP1 CALLDATASIZE SUB DUP2 ADD SWAP1 PUSH2 0x319 SWAP2 SWAP1 PUSH2 0x1D3A JUMP JUMPDEST PUSH2 0x182E JUMP JUMPDEST PUSH1 0x40 MLOAD PUSH2 0x32C SWAP3 SWAP2 SWAP1 PUSH2 0x24DC JUMP JUMPDEST PUSH1 0x40 MLOAD DUP1 SWAP2 SUB SWAP1 RETURN JUMPDEST PUSH2 0x34F PUSH1 0x4 DUP1 CALLDATASIZE SUB DUP2 ADD SWAP1 PUSH2 0x34A SWAP2 SWAP1 PUSH2 0x250A JUMP JUMPDEST PUSH2 0x19A4 JUMP JUMPDEST STOP JUMPDEST PUSH2 0x36B PUSH1 0x4 DUP1 CALLDATASIZE SUB DUP2 ADD SWAP1 PUSH2 0x366 SWAP2 SWAP1 PUSH2 0x210C JUMP JUMPDEST PUSH2 0x1C88 JUMP JUMPDEST PUSH1 0x40 MLOAD PUSH2 0x378 SWAP2 SWAP1 PUSH2 0x1D74 JUMP JUMPDEST PUSH1 0x40 MLOAD DUP1 SWAP2 SUB SWAP1 RETURN JUMPDEST PUSH1 0x6 DUP2 DUP2 SLOAD DUP2 LT PUSH2 0x390 JUMPI PUSH0 DUP1 REVERT JUMPDEST SWAP1 PUSH0 MSTORE PUSH1 0x20 PUSH0 KECCAK256 ADD PUSH0 SWAP2 POP SWAP1 POP SLOAD DUP2 JUMP JUMPDEST PUSH1 0x60 PUSH0 PUSH1 0x2 PUSH0 DUP5 DUP2 MSTORE PUSH1 0x20 ADD SWAP1 DUP2 MSTORE PUSH1 0x20 ADD PUSH0 KECCAK256 DUP1 SLOAD DUP1 PUSH1 0x20 MUL PUSH1 0x20 ADD PUSH1 0x40 MLOAD SWAP1 DUP2 ADD PUSH1 0x40 MSTORE DUP1 SWAP3 SWAP2 SWAP1 DUP2 DUP2 MSTORE PUSH1 0x20 ADD DUP3 DUP1 SLOAD DUP1 ISZERO PUSH2 0x3FD JUMPI PUSH1 0x20 MUL DUP3 ADD SWAP2 SWAP1 PUSH0 MSTORE PUSH1 0x20 PUSH0 KECCAK256 SWAP1 JUMPDEST DUP2 SLOAD DUP2 MSTORE PUSH1 0x20 ADD SWAP1 PUSH1 0x1 ADD SWAP1 DUP1 DUP4 GT PUSH2 0x3E9 JUMPI JUMPDEST POP POP POP POP POP SWAP1 POP PUSH0 DUP2 MLOAD PUSH8 0xFFFFFFFFFFFFFFFF DUP2 GT ISZERO PUSH2 0x420 JUMPI PUSH2 0x41F PUSH2 0x258E JUMP JUMPDEST JUMPDEST PUSH1 0x40 MLOAD SWAP1 DUP1 DUP3 MSTORE DUP1 PUSH1 0x20 MUL PUSH1 0x20 ADD DUP3 ADD PUSH1 0x40 MSTORE DUP1 ISZERO PUSH2 0x459 JUMPI DUP2 PUSH1 0x20 ADD JUMPDEST PUSH2 0x446 PUSH2 0x1CB3 JUMP JUMPDEST DUP2 MSTORE PUSH1 0x20 ADD SWAP1 PUSH1 0x1 SWAP1 SUB SWAP1 DUP2 PUSH2 0x43E JUMPI SWAP1 POP JUMPDEST POP SWAP1 POP PUSH0 PUSH0 SWAP1 POP JUMPDEST DUP3 MLOAD DUP2 LT ISZERO PUSH2 0x57D JUMPI PUSH1 0x1 PUSH0 DUP7 DUP2 MSTORE PUSH1 0x20 ADD SWAP1 DUP2 MSTORE PUSH1 0x20 ADD PUSH0 KECCAK256 PUSH0 DUP5 DUP4 DUP2 MLOAD DUP2 LT PUSH2 0x48F JUMPI PUSH2 0x48E PUSH2 0x25BB JUMP JUMPDEST JUMPDEST PUSH1 0x20 MUL PUSH1 0x20 ADD ADD MLOAD DUP2 MSTORE PUSH1 0x20 ADD SWAP1 DUP2 MSTORE PUSH1 0x20 ADD PUSH0 KECCAK256 PUSH1 0x40 MLOAD DUP1 PUSH1 0x60 ADD PUSH1 0x40 MSTORE SWAP1 DUP2 PUSH0 DUP3 ADD SLOAD DUP2 MSTORE PUSH1 0x20 ADD PUSH1 0x1 DUP3 ADD DUP1 SLOAD PUSH2 0x4C8 SWAP1 PUSH2 0x2615 JUMP JUMPDEST DUP1 PUSH1 0x1F ADD PUSH1 0x20 DUP1 SWAP2 DIV MUL PUSH1 0x20 ADD PUSH1 0x40 MLOAD SWAP1 DUP2 ADD PUSH1 0x40 MSTORE DUP1 SWAP3 SWAP2 SWAP1 DUP2 DUP2 MSTORE PUSH1 0x20 ADD DUP3 DUP1 SLOAD PUSH2 0x4F4 SWAP1 PUSH2 0x2615 JUMP JUMPDEST DUP1 ISZERO PUSH2 0x53F JUMPI DUP1 PUSH1 0x1F LT PUSH2 0x516 JUMPI PUSH2 0x100 DUP1 DUP4 SLOAD DIV MUL DUP4 MSTORE SWAP2 PUSH1 0x20 ADD SWAP2 PUSH2 0x53F JUMP JUMPDEST DUP3 ADD SWAP2 SWAP1 PUSH0 MSTORE PUSH1 0x20 PUSH0 KECCAK256 SWAP1 JUMPDEST DUP2 SLOAD DUP2 MSTORE SWAP1 PUSH1 0x1 ADD SWAP1 PUSH1 0x20 ADD DUP1 DUP4 GT PUSH2 0x522 JUMPI DUP3 SWAP1 SUB PUSH1 0x1F AND DUP3 ADD SWAP2 JUMPDEST POP POP POP POP POP DUP2 MSTORE PUSH1 0x20 ADD PUSH1 0x2 DUP3 ADD SLOAD DUP2 MSTORE POP POP DUP3 DUP3 DUP2 MLOAD DUP2 LT PUSH2 0x565 JUMPI PUSH2 0x564 PUSH2 0x25BB JUMP JUMPDEST JUMPDEST PUSH1 0x20 MUL PUSH1 0x20 ADD ADD DUP2 SWAP1 MSTORE POP DUP1 DUP1 PUSH1 0x1 ADD SWAP2 POP POP PUSH2 0x461 JUMP JUMPDEST POP DUP1 SWAP3 POP POP POP SWAP2 SWAP1 POP JUMP JUMPDEST PUSH2 0x590 PUSH2 0x1CB3 JUMP JUMPDEST PUSH1 0x2 DUP1 DUP2 GT ISZERO PUSH2 0x5A3 JUMPI PUSH2 0x5A2 PUSH2 0x230B JUMP JUMPDEST JUMPDEST PUSH1 0x5 PUSH0 DUP5 DUP2 MSTORE PUSH1 0x20 ADD SWAP1 DUP2 MSTORE PUSH1 0x20 ADD PUSH0 KECCAK256 PUSH0 SWAP1 SLOAD SWAP1 PUSH2 0x100 EXP SWAP1 DIV PUSH1 0xFF AND PUSH1 0x2 DUP2 GT ISZERO PUSH2 0x5D3 JUMPI PUSH2 0x5D2 PUSH2 0x230B JUMP JUMPDEST JUMPDEST EQ PUSH2 0x613 JUMPI PUSH1 0x40 MLOAD PUSH32 0x8C379A000000000000000000000000000000000000000000000000000000000 DUP2 MSTORE PUSH1 0x4 ADD PUSH2 0x60A SWAP1 PUSH2 0x268F JUMP JUMPDEST PUSH1 0x40 MLOAD DUP1 SWAP2 SUB SWAP1 REVERT JUMPDEST PUSH0 PUSH1 0x2 PUSH0 DUP5 DUP2 MSTORE PUSH1 0x20 ADD SWAP1 DUP2 MSTORE PUSH1 0x20 ADD PUSH0 KECCAK256 DUP1 SLOAD DUP1 PUSH1 0x20 MUL PUSH1 0x20 ADD PUSH1 0x40 MLOAD SWAP1 DUP2 ADD PUSH1 0x40 MSTORE DUP1 SWAP3 SWAP2 SWAP1 DUP2 DUP2 MSTORE PUSH1 0x20 ADD DUP3 DUP1 SLOAD DUP1 ISZERO PUSH2 0x66D JUMPI PUSH1 0x20 MUL DUP3 ADD SWAP2 SWAP1 PUSH0 MSTORE PUSH1 0x20 PUSH0 KECCAK256 SWAP1 JUMPDEST DUP2 SLOAD DUP2 MSTORE PUSH1 0x20 ADD SWAP1 PUSH1 0x1 ADD SWAP1 DUP1 DUP4 GT PUSH2 0x659 JUMPI JUMPDEST POP POP POP POP POP SWAP1 POP PUSH0 DUP2 MLOAD GT PUSH2 0x6B7 JUMPI PUSH1 0x40 MLOAD PUSH32 0x8C379A000000000000000000000000000000000000000000000000000000000 DUP2 MSTORE PUSH1 0x4 ADD PUSH2 0x6AE SWAP1 PUSH2 0x26F7 JUMP JUMPDEST PUSH1 0x40 MLOAD DUP1 SWAP2 SUB SWAP1 REVERT JUMPDEST PUSH2 0x6BF PUSH2 0x1CB3 JUMP JUMPDEST PUSH0 DUP3 MLOAD GT ISZERO PUSH2 0x7B3 JUMPI PUSH1 0x1 PUSH0 DUP6 DUP2 MSTORE PUSH1 0x20 ADD SWAP1 DUP2 MSTORE PUSH1 0x20 ADD PUSH0 KECCAK256 PUSH0 DUP4 PUSH0 DUP2 MLOAD DUP2 LT PUSH2 0x6ED JUMPI PUSH2 0x6EC PUSH2 0x25BB JUMP JUMPDEST JUMPDEST PUSH1 0x20 MUL PUSH1 0x20 ADD ADD MLOAD DUP2 MSTORE PUSH1 0x20 ADD SWAP1 DUP2 MSTORE PUSH1 0x20 ADD PUSH0 KECCAK256 PUSH1 0x40 MLOAD DUP1 PUSH1 0x60 ADD PUSH1 0x40 MSTORE SWAP1 DUP2 PUSH0 DUP3 ADD SLOAD DUP2 MSTORE PUSH1 0x20 ADD PUSH1 0x1 DUP3 ADD DUP1 SLOAD PUSH2 0x726 SWAP1 PUSH2 0x2615 JUMP JUMPDEST DUP1 PUSH1 0x1F ADD PUSH1 0x20 DUP1 SWAP2 DIV MUL PUSH1 0x20 ADD PUSH1 0x40 MLOAD SWAP1 DUP2 ADD PUSH1 0x40 MSTORE DUP1 SWAP3 SWAP2 SWAP1 DUP2 DUP2 MSTORE PUSH1 0x20 ADD DUP3 DUP1 SLOAD PUSH2 0x752 SWAP1 PUSH2 0x2615 JUMP JUMPDEST DUP1 ISZERO PUSH2 0x79D JUMPI DUP1 PUSH1 0x1F LT PUSH2 0x774 JUMPI PUSH2 0x100 DUP1 DUP4 SLOAD DIV MUL DUP4 MSTORE SWAP2 PUSH1 0x20 ADD SWAP2 PUSH2 0x79D JUMP JUMPDEST DUP3 ADD SWAP2 SWAP1 PUSH0 MSTORE PUSH1 0x20 PUSH0 KECCAK256 SWAP1 JUMPDEST DUP2 SLOAD DUP2 MSTORE SWAP1 PUSH1 0x1 ADD SWAP1 PUSH1 0x20 ADD DUP1 DUP4 GT PUSH2 0x780 JUMPI DUP3 SWAP1 SUB PUSH1 0x1F AND DUP3 ADD SWAP2 JUMPDEST POP POP POP POP POP DUP2 MSTORE PUSH1 0x20 ADD PUSH1 0x2 DUP3 ADD SLOAD DUP2 MSTORE POP POP SWAP1 POP JUMPDEST PUSH0 PUSH0 SWAP1 POP JUMPDEST DUP3 MLOAD DUP2 LT ISZERO PUSH2 0x8CE JUMPI PUSH0 PUSH1 0x1 PUSH0 DUP8 DUP2 MSTORE PUSH1 0x20 ADD SWAP1 DUP2 MSTORE PUSH1 0x20 ADD PUSH0 KECCAK256 PUSH0 DUP6 DUP5 DUP2 MLOAD DUP2 LT PUSH2 0x7E7 JUMPI PUSH2 0x7E6 PUSH2 0x25BB JUMP JUMPDEST JUMPDEST PUSH1 0x20 MUL PUSH1 0x20 ADD ADD MLOAD DUP2 MSTORE PUSH1 0x20 ADD SWAP1 DUP2 MSTORE PUSH1 0x20 ADD PUSH0 KECCAK256 PUSH1 0x40 MLOAD DUP1 PUSH1 0x60 ADD PUSH1 0x40 MSTORE SWAP1 DUP2 PUSH0 DUP3 ADD SLOAD DUP2 MSTORE PUSH1 0x20 ADD PUSH1 0x1 DUP3 ADD DUP1 SLOAD PUSH2 0x820 SWAP1 PUSH2 0x2615 JUMP JUMPDEST DUP1 PUSH1 0x1F ADD PUSH1 0x20 DUP1 SWAP2 DIV MUL PUSH1 0x20 ADD PUSH1 0x40 MLOAD SWAP1 DUP2 ADD PUSH1 0x40 MSTORE DUP1 SWAP3 SWAP2 SWAP1 DUP2 DUP2 MSTORE PUSH1 0x20 ADD DUP3 DUP1 SLOAD PUSH2 0x84C SWAP1 PUSH2 0x2615 JUMP JUMPDEST DUP1 ISZERO PUSH2 0x897 JUMPI DUP1 PUSH1 0x1F LT PUSH2 0x86E JUMPI PUSH2 0x100 DUP1 DUP4 SLOAD DIV MUL DUP4 MSTORE SWAP2 PUSH1 0x20 ADD SWAP2 PUSH2 0x897 JUMP JUMPDEST DUP3 ADD SWAP2 SWAP1 PUSH0 MSTORE PUSH1 0x20 PUSH0 KECCAK256 SWAP1 JUMPDEST DUP2 SLOAD DUP2 MSTORE SWAP1 PUSH1 0x1 ADD SWAP1 PUSH1 0x20 ADD DUP1 DUP4 GT PUSH2 0x87A JUMPI DUP3 SWAP1 SUB PUSH1 0x1F AND DUP3 ADD SWAP2 JUMPDEST POP POP POP POP POP DUP2 MSTORE PUSH1 0x20 ADD PUSH1 0x2 DUP3 ADD SLOAD DUP2 MSTORE POP POP SWAP1 POP DUP3 PUSH1 0x40 ADD MLOAD DUP2 PUSH1 0x40 ADD MLOAD GT ISZERO PUSH2 0x8C0 JUMPI DUP1 SWAP3 POP JUMPDEST POP DUP1 DUP1 PUSH1 0x1 ADD SWAP2 POP POP PUSH2 0x7B8 JUMP JUMPDEST POP DUP1 SWAP3 POP POP POP SWAP2 SWAP1 POP JUMP JUMPDEST PUSH1 0x4 PUSH1 0x20 MSTORE DUP2 PUSH0 MSTORE PUSH1 0x40 PUSH0 KECCAK256 PUSH1 0x20 MSTORE DUP1 PUSH0 MSTORE PUSH1 0x40 PUSH0 KECCAK256 PUSH0 SWAP2 POP SWAP2 POP SWAP1 SLOAD SWAP1 PUSH2 0x100 EXP SWAP1 DIV PUSH1 0xFF AND DUP2 JUMP JUMPDEST PUSH0 PUSH0 SWAP1 SLOAD SWAP1 PUSH2 0x100 EXP SWAP1 DIV PUSH20 0xFFFFFFFFFFFFFFFFFFFFFFFFFFFFFFFFFFFFFFFF AND PUSH20 0xFFFFFFFFFFFFFFFFFFFFFFFFFFFFFFFFFFFFFFFF AND CALLER PUSH20 0xFFFFFFFFFFFFFFFFFFFFFFFFFFFFFFFFFFFFFFFF AND EQ PUSH2 0x991 JUMPI PUSH1 0x40 MLOAD PUSH32 0x8C379A000000000000000000000000000000000000000000000000000000000 DUP2 MSTORE PUSH1 0x4 ADD PUSH2 0x988 SWAP1 PUSH2 0x275F JUMP JUMPDEST PUSH1 0x40 MLOAD DUP1 SWAP2 SUB SWAP1 REVERT JUMPDEST PUSH1 0x2 DUP1 DUP2 GT ISZERO PUSH2 0x9A4 JUMPI PUSH2 0x9A3 PUSH2 0x230B JUMP JUMPDEST JUMPDEST PUSH1 0x5 PUSH0 DUP4 DUP2 MSTORE PUSH1 0x20 ADD SWAP1 DUP2 MSTORE PUSH1 0x20 ADD PUSH0 KECCAK256 PUSH0 SWAP1 SLOAD SWAP1 PUSH2 0x100 EXP SWAP1 DIV PUSH1 0xFF AND PUSH1 0x2 DUP2 GT ISZERO PUSH2 0x9D4 JUMPI PUSH2 0x9D3 PUSH2 0x230B JUMP JUMPDEST JUMPDEST SUB PUSH2 0xA14 JUMPI PUSH1 0x40 MLOAD PUSH32 0x8C379A000000000000000000000000000000000000000000000000000000000 DUP2 MSTORE PUSH1 0x4 ADD PUSH2 0xA0B SWAP1 PUSH2 0x27C7 JUMP JUMPDEST PUSH1 0x40 MLOAD DUP1 SWAP2 SUB SWAP1 REVERT JUMPDEST PUSH1 0x1 PUSH1 0x2 DUP2 GT ISZERO PUSH2 0xA28 JUMPI PUSH2 0xA27 PUSH2 0x230B JUMP JUMPDEST JUMPDEST PUSH1 0x5 PUSH0 DUP4 DUP2 MSTORE PUSH1 0x20 ADD SWAP1 DUP2 MSTORE PUSH1 0x20 ADD PUSH0 KECCAK256 PUSH0 SWAP1 SLOAD SWAP1 PUSH2 0x100 EXP SWAP1 DIV PUSH1 0xFF AND PUSH1 0x2 DUP2 GT ISZERO PUSH2 0xA58 JUMPI PUSH2 0xA57 PUSH2 0x230B JUMP JUMPDEST JUMPDEST EQ PUSH2 0xA98 JUMPI PUSH1 0x40 MLOAD PUSH32 0x8C379A000000000000000000000000000000000000000000000000000000000 DUP2 MSTORE PUSH1 0x4 ADD PUSH2 0xA8F SWAP1 PUSH2 0x2855 JUMP JUMPDEST PUSH1 0x40 MLOAD DUP1 SWAP2 SUB SWAP1 REVERT JUMPDEST PUSH1 0x2 PUSH1 0x5 PUSH0 DUP4 DUP2 MSTORE PUSH1 0x20 ADD SWAP1 DUP2 MSTORE PUSH1 0x20 ADD PUSH0 KECCAK256 PUSH0 PUSH2 0x100 EXP DUP2 SLOAD DUP2 PUSH1 0xFF MUL NOT AND SWAP1 DUP4 PUSH1 0x2 DUP2 GT ISZERO PUSH2 0xACC JUMPI PUSH2 0xACB PUSH2 0x230B JUMP JUMPDEST JUMPDEST MUL OR SWAP1 SSTORE POP DUP1 PUSH32 0x562CD572B2BA3B666CD989FC4CA98419EC81E75F04528DF9D9D76FDB7807EE71 PUSH1 0x40 MLOAD PUSH1 0x40 MLOAD DUP1 SWAP2 SUB SWAP1 LOG2 POP JUMP JUMPDEST PUSH1 0x3 PUSH1 0x20 MSTORE DUP1 PUSH0 MSTORE PUSH1 0x40 PUSH0 KECCAK256 PUSH0 SWAP2 POP SWAP1 POP DUP1 PUSH0 ADD DUP1 SLOAD PUSH2 0xB20 SWAP1 PUSH2 0x2615 JUMP JUMPDEST DUP1 PUSH1 0x1F ADD PUSH1 0x20 DUP1 SWAP2 DIV MUL PUSH1 0x20 ADD PUSH1 0x40 MLOAD SWAP1 DUP2 ADD PUSH1 0x40 MSTORE DUP1 SWAP3 SWAP2 SWAP1 DUP2 DUP2 MSTORE PUSH1 0x20 ADD DUP3 DUP1 SLOAD PUSH2 0xB4C SWAP1 PUSH2 0x2615 JUMP JUMPDEST DUP1 ISZERO PUSH2 0xB97 JUMPI DUP1 PUSH1 0x1F LT PUSH2 0xB6E JUMPI PUSH2 0x100 DUP1 DUP4 SLOAD DIV MUL DUP4 MSTORE SWAP2 PUSH1 0x20 ADD SWAP2 PUSH2 0xB97 JUMP JUMPDEST DUP3 ADD SWAP2 SWAP1 PUSH0 MSTORE PUSH1 0x20 PUSH0 KECCAK256 SWAP1 JUMPDEST DUP2 SLOAD DUP2 MSTORE SWAP1 PUSH1 0x1 ADD SWAP1 PUSH1 0x20 ADD DUP1 DUP4 GT PUSH2 0xB7A JUMPI DUP3 SWAP1 SUB PUSH1 0x1F AND DUP3 ADD SWAP2 JUMPDEST POP POP POP POP POP SWAP1 DUP1 PUSH1 0x1 ADD SLOAD SWAP1 DUP1 PUSH1 0x2 ADD SLOAD SWAP1 DUP1 PUSH1 0x3 ADD SLOAD SWAP1 DUP1 PUSH1 0x4 ADD PUSH0 SWAP1 SLOAD SWAP1 PUSH2 0x100 EXP SWAP1 DIV PUSH1 0xFF AND SWAP1 POP DUP6 JUMP JUMPDEST PUSH0 PUSH0 SWAP1 SLOAD SWAP1 PUSH2 0x100 EXP SWAP1 DIV PUSH20 0xFFFFFFFFFFFFFFFFFFFFFFFFFFFFFFFFFFFFFFFF AND PUSH20 0xFFFFFFFFFFFFFFFFFFFFFFFFFFFFFFFFFFFFFFFF AND CALLER PUSH20 0xFFFFFFFFFFFFFFFFFFFFFFFFFFFFFFFFFFFFFFFF AND EQ PUSH2 0xC53 JUMPI PUSH1 0x40 MLOAD PUSH32 0x8C379A000000000000000000000000000000000000000000000000000000000 DUP2 MSTORE PUSH1 0x4 ADD PUSH2 0xC4A SWAP1 PUSH2 0x275F JUMP JUMPDEST PUSH1 0x40 MLOAD DUP1 SWAP2 SUB SWAP1 REVERT JUMPDEST PUSH0 PUSH1 0x3 PUSH0 DUP4 DUP2 MSTORE PUSH1 0x20 ADD SWAP1 DUP2 MSTORE PUSH1 0x20 ADD PUSH0 KECCAK256 SWAP1 POP DUP1 PUSH1 0x4 ADD PUSH0 SWAP1 SLOAD SWAP1 PUSH2 0x100 EXP SWAP1 DIV PUSH1 0xFF AND PUSH2 0xCB7 JUMPI PUSH1 0x40 MLOAD PUSH32 0x8C379A000000000000000000000000000000000000000000000000000000000 DUP2 MSTORE PUSH1 0x4 ADD PUSH2 0xCAE SWAP1 PUSH2 0x28BD JUMP JUMPDEST PUSH1 0x40 MLOAD DUP1 SWAP2 SUB SWAP1 REVERT JUMPDEST PUSH0 PUSH1 0x2 DUP2 GT ISZERO PUSH2 0xCCA JUMPI PUSH2 0xCC9 PUSH2 0x230B JUMP JUMPDEST JUMPDEST PUSH1 0x5 PUSH0 DUP5 DUP2 MSTORE PUSH1 0x20 ADD SWAP1 DUP2 MSTORE PUSH1 0x20 ADD PUSH0 KECCAK256 PUSH0 SWAP1 SLOAD SWAP1 PUSH2 0x100 EXP SWAP1 DIV PUSH1 0xFF AND PUSH1 0x2 DUP2 GT ISZERO PUSH2 0xCFA JUMPI PUSH2 0xCF9 PUSH2 0x230B JUMP JUMPDEST JUMPDEST EQ PUSH2 0xD3A JUMPI PUSH1 0x40 MLOAD PUSH32 0x8C379A000000000000000000000000000000000000000000000000000000000 DUP2 MSTORE PUSH1 0x4 ADD PUSH2 0xD31 SWAP1 PUSH2 0x294B JUMP JUMPDEST PUSH1 0x40 MLOAD DUP1 SWAP2 SUB SWAP1 REVERT JUMPDEST PUSH0 PUSH1 0x2 PUSH0 DUP5 DUP2 MSTORE PUSH1 0x20 ADD SWAP1 DUP2 MSTORE PUSH1 0x20 ADD PUSH0 KECCAK256 DUP1 SLOAD SWAP1 POP GT PUSH2 0xD90 JUMPI PUSH1 0x40 MLOAD PUSH32 0x8C379A000000000000000000000000000000000000000000000000000000000 DUP2 MSTORE PUSH1 0x4 ADD PUSH2 0xD87 SWAP1 PUSH2 0x29B3 JUMP JUMPDEST PUSH1 0x40 MLOAD DUP1 SWAP2 SUB SWAP1 REVERT JUMPDEST PUSH1 0x1 PUSH1 0x5 PUSH0 DUP5 DUP2 MSTORE PUSH1 0x20 ADD SWAP1 DUP2 MSTORE PUSH1 0x20 ADD PUSH0 KECCAK256 PUSH0 PUSH2 0x100 EXP DUP2 SLOAD DUP2 PUSH1 0xFF MUL NOT AND SWAP1 DUP4 PUSH1 0x2 DUP2 GT ISZERO PUSH2 0xDC4 JUMPI PUSH2 0xDC3 PUSH2 0x230B JUMP JUMPDEST JUMPDEST MUL OR SWAP1 SSTORE POP DUP2 PUSH32 0x159EEE87222A0489C529F2153C26AD65D718F2CC33EBAA8D399D1DD5B39FACAA PUSH1 0x40 MLOAD PUSH1 0x40 MLOAD DUP1 SWAP2 SUB SWAP1 LOG2 POP POP JUMP JUMPDEST PUSH1 0x1 PUSH1 0x20 MSTORE DUP2 PUSH0 MSTORE PUSH1 0x40 PUSH0 KECCAK256 PUSH1 0x20 MSTORE DUP1 PUSH0 MSTORE PUSH1 0x40 PUSH0 KECCAK256 PUSH0 SWAP2 POP SWAP2 POP POP DUP1 PUSH0 ADD SLOAD SWAP1 DUP1 PUSH1 0x1 ADD DUP1 SLOAD PUSH2 0xE2A SWAP1 PUSH2 0x2615 JUMP JUMPDEST DUP1 PUSH1 0x1F ADD PUSH1 0x20 DUP1 SWAP2 DIV MUL PUSH1 0x20 ADD PUSH1 0x40 MLOAD SWAP1 DUP2 ADD PUSH1 0x40 MSTORE DUP1 SWAP3 SWAP2 SWAP1 DUP2 DUP2 MSTORE PUSH1 0x20 ADD DUP3 DUP1 SLOAD PUSH2 0xE56 SWAP1 PUSH2 0x2615 JUMP JUMPDEST DUP1 ISZERO PUSH2 0xEA1 JUMPI DUP1 PUSH1 0x1F LT PUSH2 0xE78 JUMPI PUSH2 0x100 DUP1 DUP4 SLOAD DIV MUL DUP4 MSTORE SWAP2 PUSH1 0x20 ADD SWAP2 PUSH2 0xEA1 JUMP JUMPDEST DUP3 ADD SWAP2 SWAP1 PUSH0 MSTORE PUSH1 0x20 PUSH0 KECCAK256 SWAP1 JUMPDEST DUP2 SLOAD DUP2 MSTORE SWAP1 PUSH1 0x1 ADD SWAP1 PUSH1 0x20 ADD DUP1 DUP4 GT PUSH2 0xE84 JUMPI DUP3 SWAP1 SUB PUSH1 0x1F AND DUP3 ADD SWAP2 JUMPDEST POP POP POP POP POP SWAP1 DUP1 PUSH1 0x2 ADD SLOAD SWAP1 POP DUP4 JUMP JUMPDEST PUSH1 0x60 PUSH0 PUSH1 0x6 DUP1 SLOAD SWAP1 POP PUSH8 0xFFFFFFFFFFFFFFFF DUP2 GT ISZERO PUSH2 0xED3 JUMPI PUSH2 0xED2 PUSH2 0x258E JUMP JUMPDEST JUMPDEST PUSH1 0x40 MLOAD SWAP1 DUP1 DUP3 MSTORE DUP1 PUSH1 0x20 MUL PUSH1 0x20 ADD DUP3 ADD PUSH1 0x40 MSTORE DUP1 ISZERO PUSH2 0xF0C JUMPI DUP2 PUSH1 0x20 ADD JUMPDEST PUSH2 0xEF9 PUSH2 0x1CD2 JUMP JUMPDEST DUP2 MSTORE PUSH1 0x20 ADD SWAP1 PUSH1 0x1 SWAP1 SUB SWAP1 DUP2 PUSH2 0xEF1 JUMPI SWAP1 POP JUMPDEST POP SWAP1 POP PUSH0 PUSH0 SWAP1 POP JUMPDEST PUSH1 0x6 DUP1 SLOAD SWAP1 POP DUP2 LT ISZERO PUSH2 0x104B JUMPI PUSH1 0x3 PUSH0 PUSH1 0x6 DUP4 DUP2 SLOAD DUP2 LT PUSH2 0xF38 JUMPI PUSH2 0xF37 PUSH2 0x25BB JUMP JUMPDEST JUMPDEST SWAP1 PUSH0 MSTORE PUSH1 0x20 PUSH0 KECCAK256 ADD SLOAD DUP2 MSTORE PUSH1 0x20 ADD SWAP1 DUP2 MSTORE PUSH1 0x20 ADD PUSH0 KECCAK256 PUSH1 0x40 MLOAD DUP1 PUSH1 0xA0 ADD PUSH1 0x40 MSTORE SWAP1 DUP2 PUSH0 DUP3 ADD DUP1 SLOAD PUSH2 0xF68 SWAP1 PUSH2 0x2615 JUMP JUMPDEST DUP1 PUSH1 0x1F ADD PUSH1 0x20 DUP1 SWAP2 DIV MUL PUSH1 0x20 ADD PUSH1 0x40 MLOAD SWAP1 DUP2 ADD PUSH1 0x40 MSTORE DUP1 SWAP3 SWAP2 SWAP1 DUP2 DUP2 MSTORE PUSH1 0x20 ADD DUP3 DUP1 SLOAD PUSH2 0xF94 SWAP1 PUSH2 0x2615 JUMP JUMPDEST DUP1 ISZERO PUSH2 0xFDF JUMPI DUP1 PUSH1 0x1F LT PUSH2 0xFB6 JUMPI PUSH2 0x100 DUP1 DUP4 SLOAD DIV MUL DUP4 MSTORE SWAP2 PUSH1 0x20 ADD SWAP2 PUSH2 0xFDF JUMP JUMPDEST DUP3 ADD SWAP2 SWAP1 PUSH0 MSTORE PUSH1 0x20 PUSH0 KECCAK256 SWAP1 JUMPDEST DUP2 SLOAD DUP2 MSTORE SWAP1 PUSH1 0x1 ADD SWAP1 PUSH1 0x20 ADD DUP1 DUP4 GT PUSH2 0xFC2 JUMPI DUP3 SWAP1 SUB PUSH1 0x1F AND DUP3 ADD SWAP2 JUMPDEST POP POP POP POP POP DUP2 MSTORE PUSH1 0x20 ADD PUSH1 0x1 DUP3 ADD SLOAD DUP2 MSTORE PUSH1 0x20 ADD PUSH1 0x2 DUP3 ADD SLOAD DUP2 MSTORE PUSH1 0x20 ADD PUSH1 0x3 DUP3 ADD SLOAD DUP2 MSTORE PUSH1 0x20 ADD PUSH1 0x4 DUP3 ADD PUSH0 SWAP1 SLOAD SWAP1 PUSH2 0x100 EXP SWAP1 DIV PUSH1 0xFF AND ISZERO ISZERO ISZERO ISZERO DUP2 MSTORE POP POP DUP3 DUP3 DUP2 MLOAD DUP2 LT PUSH2 0x1033 JUMPI PUSH2 0x1032 PUSH2 0x25BB JUMP JUMPDEST JUMPDEST PUSH1 0x20 MUL PUSH1 0x20 ADD ADD DUP2 SWAP1 MSTORE POP DUP1 DUP1 PUSH1 0x1 ADD SWAP2 POP POP PUSH2 0xF14 JUMP JUMPDEST POP DUP1 SWAP2 POP POP SWAP1 JUMP JUMPDEST PUSH0 PUSH0 SWAP1 SLOAD SWAP1 PUSH2 0x100 EXP SWAP1 DIV PUSH20 0xFFFFFFFFFFFFFFFFFFFFFFFFFFFFFFFFFFFFFFFF AND DUP2 JUMP JUMPDEST PUSH1 0x5 PUSH1 0x20 MSTORE DUP1 PUSH0 MSTORE PUSH1 0x40 PUSH0 KECCAK256 PUSH0 SWAP2 POP SLOAD SWAP1 PUSH2 0x100 EXP SWAP1 DIV PUSH1 0xFF AND DUP2 JUMP JUMPDEST PUSH0 PUSH0 SWAP1 SLOAD SWAP1 PUSH2 0x100 EXP SWAP1 DIV PUSH20 0xFFFFFFFFFFFFFFFFFFFFFFFFFFFFFFFFFFFFFFFF AND PUSH20 0xFFFFFFFFFFFFFFFFFFFFFFFFFFFFFFFFFFFFFFFF AND CALLER PUSH20 0xFFFFFFFFFFFFFFFFFFFFFFFFFFFFFFFFFFFFFFFF AND EQ PUSH2 0x1122 JUMPI PUSH1 0x40 MLOAD PUSH32 0x8C379A000000000000000000000000000000000000000000000000000000000 DUP2 MSTORE PUSH1 0x4 ADD PUSH2 0x1119 SWAP1 PUSH2 0x275F JUMP JUMPDEST PUSH1 0x40 MLOAD DUP1 SWAP2 SUB SWAP1 REVERT JUMPDEST PUSH1 0x3 PUSH0 DUP6 DUP2 MSTORE PUSH1 0x20 ADD SWAP1 DUP2 MSTORE PUSH1 0x20 ADD PUSH0 KECCAK256 PUSH1 0x4 ADD PUSH0 SWAP1 SLOAD SWAP1 PUSH2 0x100 EXP SWAP1 DIV PUSH1 0xFF AND PUSH2 0x1182 JUMPI PUSH1 0x40 MLOAD PUSH32 0x8C379A000000000000000000000000000000000000000000000000000000000 DUP2 MSTORE PUSH1 0x4 ADD PUSH2 0x1179 SWAP1 PUSH2 0x28BD JUMP JUMPDEST PUSH1 0x40 MLOAD DUP1 SWAP2 SUB SWAP1 REVERT JUMPDEST PUSH0 PUSH1 0x1 PUSH0 DUP7 DUP2 MSTORE PUSH1 0x20 ADD SWAP1 DUP2 MSTORE PUSH1 0x20 ADD PUSH0 KECCAK256 PUSH0 DUP6 DUP2 MSTORE PUSH1 0x20 ADD SWAP1 DUP2 MSTORE PUSH1 0x20 ADD PUSH0 KECCAK256 PUSH0 ADD SLOAD EQ PUSH2 0x11E6 JUMPI PUSH1 0x40 MLOAD PUSH32 0x8C379A000000000000000000000000000000000000000000000000000000000 DUP2 MSTORE PUSH1 0x4 ADD PUSH2 0x11DD SWAP1 PUSH2 0x2A41 JUMP JUMPDEST PUSH1 0x40 MLOAD DUP1 SWAP2 SUB SWAP1 REVERT JUMPDEST PUSH0 PUSH1 0x2 DUP2 GT ISZERO PUSH2 0x11F9 JUMPI PUSH2 0x11F8 PUSH2 0x230B JUMP JUMPDEST JUMPDEST PUSH1 0x5 PUSH0 DUP7 DUP2 MSTORE PUSH1 0x20 ADD SWAP1 DUP2 MSTORE PUSH1 0x20 ADD PUSH0 KECCAK256 PUSH0 SWAP1 SLOAD SWAP1 PUSH2 0x100 EXP SWAP1 DIV PUSH1 0xFF AND PUSH1 0x2 DUP2 GT ISZERO PUSH2 0x1229 JUMPI PUSH2 0x1228 PUSH2 0x230B JUMP JUMPDEST JUMPDEST EQ PUSH2 0x1269 JUMPI PUSH1 0x40 MLOAD PUSH32 0x8C379A000000000000000000000000000000000000000000000000000000000 DUP2 MSTORE PUSH1 0x4 ADD PUSH2 0x1260 SWAP1 PUSH2 0x2ACF JUMP JUMPDEST PUSH1 0x40 MLOAD DUP1 SWAP2 SUB SWAP1 REVERT JUMPDEST PUSH1 0x40 MLOAD DUP1 PUSH1 0x60 ADD PUSH1 0x40 MSTORE DUP1 DUP5 DUP2 MSTORE PUSH1 0x20 ADD DUP4 DUP4 DUP1 DUP1 PUSH1 0x1F ADD PUSH1 0x20 DUP1 SWAP2 DIV MUL PUSH1 0x20 ADD PUSH1 0x40 MLOAD SWAP1 DUP2 ADD PUSH1 0x40 MSTORE DUP1 SWAP4 SWAP3 SWAP2 SWAP1 DUP2 DUP2 MSTORE PUSH1 0x20 ADD DUP4 DUP4 DUP1 DUP3 DUP5 CALLDATACOPY PUSH0 DUP2 DUP5 ADD MSTORE PUSH1 0x1F NOT PUSH1 0x1F DUP3 ADD AND SWAP1 POP DUP1 DUP4 ADD SWAP3 POP POP POP POP POP POP POP DUP2 MSTORE PUSH1 0x20 ADD PUSH0 DUP2 MSTORE POP PUSH1 0x1 PUSH0 DUP7 DUP2 MSTORE PUSH1 0x20 ADD SWAP1 DUP2 MSTORE PUSH1 0x20 ADD PUSH0 KECCAK256 PUSH0 DUP6 DUP2 MSTORE PUSH1 0x20 ADD SWAP1 DUP2 MSTORE PUSH1 0x20 ADD PUSH0 KECCAK256 PUSH0 DUP3 ADD MLOAD DUP2 PUSH0 ADD SSTORE PUSH1 0x20 DUP3 ADD MLOAD DUP2 PUSH1 0x1 ADD SWAP1 DUP2 PUSH2 0x1304 SWAP2 SWAP1 PUSH2 0x2C8D JUMP JUMPDEST POP PUSH1 0x40 DUP3 ADD MLOAD DUP2 PUSH1 0x2 ADD SSTORE SWAP1 POP POP PUSH1 0x2 PUSH0 DUP6 DUP2 MSTORE PUSH1 0x20 ADD SWAP1 DUP2 MSTORE PUSH1 0x20 ADD PUSH0 KECCAK256 DUP4 SWAP1 DUP1 PUSH1 0x1 DUP2 SLOAD ADD DUP1 DUP3 SSTORE DUP1 SWAP2 POP POP PUSH1 0x1 SWAP1 SUB SWAP1 PUSH0 MSTORE PUSH1 0x20 PUSH0 KECCAK256 ADD PUSH0 SWAP1 SWAP2 SWAP1 SWAP2 SWAP1 SWAP2 POP SSTORE DUP4 PUSH32 0xED8911B3DF733B7D5F75724158E54478EA12E30F49C9D31B5261879F5B76586F DUP5 DUP5 DUP5 PUSH1 0x40 MLOAD PUSH2 0x137B SWAP4 SWAP3 SWAP2 SWAP1 PUSH2 0x2D96 JUMP JUMPDEST PUSH1 0x40 MLOAD DUP1 SWAP2 SUB SWAP1 LOG2 POP POP POP POP JUMP JUMPDEST DUP2 PUSH1 0x1 PUSH1 0x2 DUP2 GT ISZERO PUSH2 0x139E JUMPI PUSH2 0x139D PUSH2 0x230B JUMP JUMPDEST JUMPDEST PUSH1 0x5 PUSH0 DUP4 DUP2 MSTORE PUSH1 0x20 ADD SWAP1 DUP2 MSTORE PUSH1 0x20 ADD PUSH0 KECCAK256 PUSH0 SWAP1 SLOAD SWAP1 PUSH2 0x100 EXP SWAP1 DIV PUSH1 0xFF AND PUSH1 0x2 DUP2 GT ISZERO PUSH2 0x13CE JUMPI PUSH2 0x13CD PUSH2 0x230B JUMP JUMPDEST JUMPDEST EQ DUP1 ISZERO PUSH2 0x13EF JUMPI POP PUSH1 0x3 PUSH0 DUP3 DUP2 MSTORE PUSH1 0x20 ADD SWAP1 DUP2 MSTORE PUSH1 0x20 ADD PUSH0 KECCAK256 PUSH1 0x3 ADD SLOAD TIMESTAMP LT ISZERO JUMPDEST ISZERO PUSH2 0x145B JUMPI PUSH1 0x2 PUSH1 0x5 PUSH0 DUP4 DUP2 MSTORE PUSH1 0x20 ADD SWAP1 DUP2 MSTORE PUSH1 0x20 ADD PUSH0 KECCAK256 PUSH0 PUSH2 0x100 EXP DUP2 SLOAD DUP2 PUSH1 0xFF MUL NOT AND SWAP1 DUP4 PUSH1 0x2 DUP2 GT ISZERO PUSH2 0x1428 JUMPI PUSH2 0x1427 PUSH2 0x230B JUMP JUMPDEST JUMPDEST MUL OR SWAP1 SSTORE POP DUP1 PUSH32 0x562CD572B2BA3B666CD989FC4CA98419EC81E75F04528DF9D9D76FDB7807EE71 PUSH1 0x40 MLOAD PUSH1 0x40 MLOAD DUP1 SWAP2 SUB SWAP1 LOG2 JUMPDEST DUP3 PUSH1 0x1 PUSH1 0x2 DUP2 GT ISZERO PUSH2 0x1470 JUMPI PUSH2 0x146F PUSH2 0x230B JUMP JUMPDEST JUMPDEST PUSH1 0x5 PUSH0 DUP4 DUP2 MSTORE PUSH1 0x20 ADD SWAP1 DUP2 MSTORE PUSH1 0x20 ADD PUSH0 KECCAK256 PUSH0 SWAP1 SLOAD SWAP1 PUSH2 0x100 EXP SWAP1 DIV PUSH1 0xFF AND PUSH1 0x2 DUP2 GT ISZERO PUSH2 0x14A0 JUMPI PUSH2 0x149F PUSH2 0x230B JUMP JUMPDEST JUMPDEST EQ PUSH2 0x14E0 JUMPI PUSH1 0x40 MLOAD PUSH32 0x8C379A000000000000000000000000000000000000000000000000000000000 DUP2 MSTORE PUSH1 0x4 ADD PUSH2 0x14D7 SWAP1 PUSH2 0x2E10 JUMP JUMPDEST PUSH1 0x40 MLOAD DUP1 SWAP2 SUB SWAP1 REVERT JUMPDEST PUSH0 PUSH1 0x3 PUSH0 DUP7 DUP2 MSTORE PUSH1 0x20 ADD SWAP1 DUP2 MSTORE PUSH1 0x20 ADD PUSH0 KECCAK256 PUSH1 0x40 MLOAD DUP1 PUSH1 0xA0 ADD PUSH1 0x40 MSTORE SWAP1 DUP2 PUSH0 DUP3 ADD DUP1 SLOAD PUSH2 0x150C SWAP1 PUSH2 0x2615 JUMP JUMPDEST DUP1 PUSH1 0x1F ADD PUSH1 0x20 DUP1 SWAP2 DIV MUL PUSH1 0x20 ADD PUSH1 0x40 MLOAD SWAP1 DUP2 ADD PUSH1 0x40 MSTORE DUP1 SWAP3 SWAP2 SWAP1 DUP2 DUP2 MSTORE PUSH1 0x20 ADD DUP3 DUP1 SLOAD PUSH2 0x1538 SWAP1 PUSH2 0x2615 JUMP JUMPDEST DUP1 ISZERO PUSH2 0x1583 JUMPI DUP1 PUSH1 0x1F LT PUSH2 0x155A JUMPI PUSH2 0x100 DUP1 DUP4 SLOAD DIV MUL DUP4 MSTORE SWAP2 PUSH1 0x20 ADD SWAP2 PUSH2 0x1583 JUMP JUMPDEST DUP3 ADD SWAP2 SWAP1 PUSH0 MSTORE PUSH1 0x20 PUSH0 KECCAK256 SWAP1 JUMPDEST DUP2 SLOAD DUP2 MSTORE SWAP1 PUSH1 0x1 ADD SWAP1 PUSH1 0x20 ADD DUP1 DUP4 GT PUSH2 0x1566 JUMPI DUP3 SWAP1 SUB PUSH1 0x1F AND DUP3 ADD SWAP2 JUMPDEST POP POP POP POP POP DUP2 MSTORE PUSH1 0x20 ADD PUSH1 0x1 DUP3 ADD SLOAD DUP2 MSTORE PUSH1 0x20 ADD PUSH1 0x2 DUP3 ADD SLOAD DUP2 MSTORE PUSH1 0x20 ADD PUSH1 0x3 DUP3 ADD SLOAD DUP2 MSTORE PUSH1 0x20 ADD PUSH1 0x4 DUP3 ADD PUSH0 SWAP1 SLOAD SWAP1 PUSH2 0x100 EXP SWAP1 DIV PUSH1 0xFF AND ISZERO ISZERO ISZERO ISZERO DUP2 MSTORE POP POP SWAP1 POP DUP1 PUSH1 0x40 ADD MLOAD TIMESTAMP LT ISZERO PUSH2 0x160D JUMPI PUSH1 0x40 MLOAD PUSH32 0x8C379A000000000000000000000000000000000000000000000000000000000 DUP2 MSTORE PUSH1 0x4 ADD PUSH2 0x1604 SWAP1 PUSH2 0x2E9E JUMP JUMPDEST PUSH1 0x40 MLOAD DUP1 SWAP2 SUB SWAP1 REVERT JUMPDEST DUP1 PUSH1 0x60 ADD MLOAD TIMESTAMP LT PUSH2 0x1653 JUMPI PUSH1 0x40 MLOAD PUSH32 0x8C379A000000000000000000000000000000000000000000000000000000000 DUP2 MSTORE PUSH1 0x4 ADD PUSH2 0x164A SWAP1 PUSH2 0x2F2C JUMP JUMPDEST PUSH1 0x40 MLOAD DUP1 SWAP2 SUB SWAP1 REVERT JUMPDEST PUSH1 0x4 PUSH0 DUP7 DUP2 MSTORE PUSH1 0x20 ADD SWAP1 DUP2 MSTORE PUSH1 0x20 ADD PUSH0 KECCAK256 PUSH0 CALLER PUSH20 0xFFFFFFFFFFFFFFFFFFFFFFFFFFFFFFFFFFFFFFFF AND PUSH20 0xFFFFFFFFFFFFFFFFFFFFFFFFFFFFFFFFFFFFFFFF AND DUP2 MSTORE PUSH1 0x20 ADD SWAP1 DUP2 MSTORE PUSH1 0x20 ADD PUSH0 KECCAK256 PUSH0 SWAP1 SLOAD SWAP1 PUSH2 0x100 EXP SWAP1 DIV PUSH1 0xFF AND ISZERO PUSH2 0x16EC JUMPI PUSH1 0x40 MLOAD PUSH32 0x8C379A000000000000000000000000000000000000000000000000000000000 DUP2 MSTORE PUSH1 0x4 ADD PUSH2 0x16E3 SWAP1 PUSH2 0x2F94 JUMP JUMPDEST PUSH1 0x40 MLOAD DUP1 SWAP2 SUB SWAP1 REVERT JUMPDEST PUSH0 PUSH1 0x1 PUSH0 DUP8 DUP2 MSTORE PUSH1 0x20 ADD SWAP1 DUP2 MSTORE PUSH1 0x20 ADD PUSH0 KECCAK256 PUSH0 DUP7 DUP2 MSTORE PUSH1 0x20 ADD SWAP1 DUP2 MSTORE PUSH1 0x20 ADD PUSH0 KECCAK256 PUSH0 ADD SLOAD SUB PUSH2 0x1750 JUMPI PUSH1 0x40 MLOAD PUSH32 0x8C379A000000000000000000000000000000000000000000000000000000000 DUP2 MSTORE PUSH1 0x4 ADD PUSH2 0x1747 SWAP1 PUSH2 0x2FFC JUMP JUMPDEST PUSH1 0x40 MLOAD DUP1 SWAP2 SUB SWAP1 REVERT JUMPDEST PUSH1 0x1 DUP1 PUSH0 DUP8 DUP2 MSTORE PUSH1 0x20 ADD SWAP1 DUP2 MSTORE PUSH1 0x20 ADD PUSH0 KECCAK256 PUSH0 DUP7 DUP2 MSTORE PUSH1 0x20 ADD SWAP1 DUP2 MSTORE PUSH1 0x20 ADD PUSH0 KECCAK256 PUSH1 0x2 ADD PUSH0 DUP3 DUP3 SLOAD PUSH2 0x1782 SWAP2 SWAP1 PUSH2 0x3047 JUMP JUMPDEST SWAP3 POP POP DUP2 SWAP1 SSTORE POP PUSH1 0x1 PUSH1 0x4 PUSH0 DUP8 DUP2 MSTORE PUSH1 0x20 ADD SWAP1 DUP2 MSTORE PUSH1 0x20 ADD PUSH0 KECCAK256 PUSH0 CALLER PUSH20 0xFFFFFFFFFFFFFFFFFFFFFFFFFFFFFFFFFFFFFFFF AND PUSH20 0xFFFFFFFFFFFFFFFFFFFFFFFFFFFFFFFFFFFFFFFF AND DUP2 MSTORE PUSH1 0x20 ADD SWAP1 DUP2 MSTORE PUSH1 0x20 ADD PUSH0 KECCAK256 PUSH0 PUSH2 0x100 EXP DUP2 SLOAD DUP2 PUSH1 0xFF MUL NOT AND SWAP1 DUP4 ISZERO ISZERO MUL OR SWAP1 SSTORE POP DUP5 PUSH32 0xD91ECAFCCF238642DCCD41161308B3EEBE62A12BC5819DAF5164780C221EC95B DUP6 CALLER PUSH1 0x40 MLOAD PUSH2 0x181F SWAP3 SWAP2 SWAP1 PUSH2 0x307A JUMP JUMPDEST PUSH1 0x40 MLOAD DUP1 SWAP2 SUB SWAP1 LOG2 POP POP POP POP POP JUMP JUMPDEST PUSH2 0x1836 PUSH2 0x1CD2 JUMP JUMPDEST PUSH0 PUSH1 0x3 PUSH0 DUP5 DUP2 MSTORE PUSH1 0x20 ADD SWAP1 DUP2 MSTORE PUSH1 0x20 ADD PUSH0 KECCAK256 PUSH1 0x4 ADD PUSH0 SWAP1 SLOAD SWAP1 PUSH2 0x100 EXP SWAP1 DIV PUSH1 0xFF AND PUSH2 0x1897 JUMPI PUSH1 0x40 MLOAD PUSH32 0x8C379A000000000000000000000000000000000000000000000000000000000 DUP2 MSTORE PUSH1 0x4 ADD PUSH2 0x188E SWAP1 PUSH2 0x28BD JUMP JUMPDEST PUSH1 0x40 MLOAD DUP1 SWAP2 SUB SWAP1 REVERT JUMPDEST PUSH1 0x3 PUSH0 DUP5 DUP2 MSTORE PUSH1 0x20 ADD SWAP1 DUP2 MSTORE PUSH1 0x20 ADD PUSH0 KECCAK256 PUSH1 0x5 PUSH0 DUP6 DUP2 MSTORE PUSH1 0x20 ADD SWAP1 DUP2 MSTORE PUSH1 0x20 ADD PUSH0 KECCAK256 PUSH0 SWAP1 SLOAD SWAP1 PUSH2 0x100 EXP SWAP1 DIV PUSH1 0xFF AND DUP2 PUSH1 0x40 MLOAD DUP1 PUSH1 0xA0 ADD PUSH1 0x40 MSTORE SWAP1 DUP2 PUSH0 DUP3 ADD DUP1 SLOAD PUSH2 0x18E1 SWAP1 PUSH2 0x2615 JUMP JUMPDEST DUP1 PUSH1 0x1F ADD PUSH1 0x20 DUP1 SWAP2 DIV MUL PUSH1 0x20 ADD PUSH1 0x40 MLOAD SWAP1 DUP2 ADD PUSH1 0x40 MSTORE DUP1 SWAP3 SWAP2 SWAP1 DUP2 DUP2 MSTORE PUSH1 0x20 ADD DUP3 DUP1 SLOAD PUSH2 0x190D SWAP1 PUSH2 0x2615 JUMP JUMPDEST DUP1 ISZERO PUSH2 0x1958 JUMPI DUP1 PUSH1 0x1F LT PUSH2 0x192F JUMPI PUSH2 0x100 DUP1 DUP4 SLOAD DIV MUL DUP4 MSTORE SWAP2 PUSH1 0x20 ADD SWAP2 PUSH2 0x1958 JUMP JUMPDEST DUP3 ADD SWAP2 SWAP1 PUSH0 MSTORE PUSH1 0x20 PUSH0 KECCAK256 SWAP1 JUMPDEST DUP2 SLOAD DUP2 MSTORE SWAP1 PUSH1 0x1 ADD SWAP1 PUSH1 0x20 ADD DUP1 DUP4 GT PUSH2 0x193B JUMPI DUP3 SWAP1 SUB PUSH1 0x1F AND DUP3 ADD SWAP2 JUMPDEST POP POP POP POP POP DUP2 MSTORE PUSH1 0x20 ADD PUSH1 0x1 DUP3 ADD SLOAD DUP2 MSTORE PUSH1 0x20 ADD PUSH1 0x2 DUP3 ADD SLOAD DUP2 MSTORE PUSH1 0x20 ADD PUSH1 0x3 DUP3 ADD SLOAD DUP2 MSTORE PUSH1 0x20 ADD PUSH1 0x4 DUP3 ADD PUSH0 SWAP1 SLOAD SWAP1 PUSH2 0x100 EXP SWAP1 DIV PUSH1 0xFF AND ISZERO ISZERO ISZERO ISZERO DUP2 MSTORE POP POP SWAP2 POP SWAP2 POP SWAP2 POP SWAP2 POP SWAP2 JUMP JUMPDEST PUSH0 PUSH0 SWAP1 SLOAD SWAP1 PUSH2 0x100 EXP SWAP1 DIV PUSH20 0xFFFFFFFFFFFFFFFFFFFFFFFFFFFFFFFFFFFFFFFF AND PUSH20 0xFFFFFFFFFFFFFFFFFFFFFFFFFFFFFFFFFFFFFFFF AND CALLER PUSH20 0xFFFFFFFFFFFFFFFFFFFFFFFFFFFFFFFFFFFFFFFF AND EQ PUSH2 0x1A32 JUMPI PUSH1 0x40 MLOAD PUSH32 0x8C379A000000000000000000000000000000000000000000000000000000000 DUP2 MSTORE PUSH1 0x4 ADD PUSH2 0x1A29 SWAP1 PUSH2 0x275F JUMP JUMPDEST PUSH1 0x40 MLOAD DUP1 SWAP2 SUB SWAP1 REVERT JUMPDEST PUSH1 0x3 PUSH0 DUP5 DUP2 MSTORE PUSH1 0x20 ADD SWAP1 DUP2 MSTORE PUSH1 0x20 ADD PUSH0 KECCAK256 PUSH1 0x4 ADD PUSH0 SWAP1 SLOAD SWAP1 PUSH2 0x100 EXP SWAP1 DIV PUSH1 0xFF AND ISZERO PUSH2 0x1A93 JUMPI PUSH1 0x40 MLOAD PUSH32 0x8C379A000000000000000000000000000000000000000000000000000000000 DUP2 MSTORE PUSH1 0x4 ADD PUSH2 0x1A8A SWAP1 PUSH2 0x30EB JUMP JUMPDEST PUSH1 0x40 MLOAD DUP1 SWAP2 SUB SWAP1 REVERT JUMPDEST DUP2 DUP2 GT PUSH2 0x1AD5 JUMPI PUSH1 0x40 MLOAD PUSH32 0x8C379A000000000000000000000000000000000000000000000000000000000 DUP2 MSTORE PUSH1 0x4 ADD PUSH2 0x1ACC SWAP1 PUSH2 0x3179 JUMP JUMPDEST PUSH1 0x40 MLOAD DUP1 SWAP2 SUB SWAP1 REVERT JUMPDEST TIMESTAMP DUP3 GT PUSH2 0x1B17 JUMPI PUSH1 0x40 MLOAD PUSH32 0x8C379A000000000000000000000000000000000000000000000000000000000 DUP2 MSTORE PUSH1 0x4 ADD PUSH2 0x1B0E SWAP1 PUSH2 0x31E1 JUMP JUMPDEST PUSH1 0x40 MLOAD DUP1 SWAP2 SUB SWAP1 REVERT JUMPDEST PUSH1 0x40 MLOAD DUP1 PUSH1 0xA0 ADD PUSH1 0x40 MSTORE DUP1 DUP7 DUP7 DUP1 DUP1 PUSH1 0x1F ADD PUSH1 0x20 DUP1 SWAP2 DIV MUL PUSH1 0x20 ADD PUSH1 0x40 MLOAD SWAP1 DUP2 ADD PUSH1 0x40 MSTORE DUP1 SWAP4 SWAP3 SWAP2 SWAP1 DUP2 DUP2 MSTORE PUSH1 0x20 ADD DUP4 DUP4 DUP1 DUP3 DUP5 CALLDATACOPY PUSH0 DUP2 DUP5 ADD MSTORE PUSH1 0x1F NOT PUSH1 0x1F DUP3 ADD AND SWAP1 POP DUP1 DUP4 ADD SWAP3 POP POP POP POP POP POP POP DUP2 MSTORE PUSH1 0x20 ADD DUP5 DUP2 MSTORE PUSH1 0x20 ADD DUP4 DUP2 MSTORE PUSH1 0x20 ADD DUP3 DUP2 MSTORE PUSH1 0x20 ADD PUSH1 0x1 ISZERO ISZERO DUP2 MSTORE POP PUSH1 0x3 PUSH0 DUP6 DUP2 MSTORE PUSH1 0x20 ADD SWAP1 DUP2 MSTORE PUSH1 0x20 ADD PUSH0 KECCAK256 PUSH0 DUP3 ADD MLOAD DUP2 PUSH0 ADD SWAP1 DUP2 PUSH2 0x1BA8 SWAP2 SWAP1 PUSH2 0x2C8D JUMP JUMPDEST POP PUSH1 0x20 DUP3 ADD MLOAD DUP2 PUSH1 0x1 ADD SSTORE PUSH1 0x40 DUP3 ADD MLOAD DUP2 PUSH1 0x2 ADD SSTORE PUSH1 0x60 DUP3 ADD MLOAD DUP2 PUSH1 0x3 ADD SSTORE PUSH1 0x80 DUP3 ADD MLOAD DUP2 PUSH1 0x4 ADD PUSH0 PUSH2 0x100 EXP DUP2 SLOAD DUP2 PUSH1 0xFF MUL NOT AND SWAP1 DUP4 ISZERO ISZERO MUL OR SWAP1 SSTORE POP SWAP1 POP POP PUSH1 0x6 DUP4 SWAP1 DUP1 PUSH1 0x1 DUP2 SLOAD ADD DUP1 DUP3 SSTORE DUP1 SWAP2 POP POP PUSH1 0x1 SWAP1 SUB SWAP1 PUSH0 MSTORE PUSH1 0x20 PUSH0 KECCAK256 ADD PUSH0 SWAP1 SWAP2 SWAP1 SWAP2 SWAP1 SWAP2 POP SSTORE PUSH0 PUSH1 0x5 PUSH0 DUP6 DUP2 MSTORE PUSH1 0x20 ADD SWAP1 DUP2 MSTORE PUSH1 0x20 ADD PUSH0 KECCAK256 PUSH0 PUSH2 0x100 EXP DUP2 SLOAD DUP2 PUSH1 0xFF MUL NOT AND SWAP1 DUP4 PUSH1 0x2 DUP2 GT ISZERO PUSH2 0x1C42 JUMPI PUSH2 0x1C41 PUSH2 0x230B JUMP JUMPDEST JUMPDEST MUL OR SWAP1 SSTORE POP DUP3 PUSH32 0x52BE7C4E77B4DE76B7607D621492061FE13B58597E72DFB5E51AB8F6187ED141 DUP7 DUP7 PUSH1 0x40 MLOAD PUSH2 0x1C79 SWAP3 SWAP2 SWAP1 PUSH2 0x31FF JUMP JUMPDEST PUSH1 0x40 MLOAD DUP1 SWAP2 SUB SWAP1 LOG2 POP POP POP POP POP JUMP JUMPDEST PUSH1 0x2 PUSH1 0x20 MSTORE DUP2 PUSH0 MSTORE PUSH1 0x40 PUSH0 KECCAK256 DUP2 DUP2 SLOAD DUP2 LT PUSH2 0x1CA1 JUMPI PUSH0 DUP1 REVERT JUMPDEST SWAP1 PUSH0 MSTORE PUSH1 0x20 PUSH0 KECCAK256 ADD PUSH0 SWAP2 POP SWAP2 POP POP SLOAD DUP2 JUMP JUMPDEST PUSH1 0x40 MLOAD DUP1 PUSH1 0x60 ADD PUSH1 0x40 MSTORE DUP1 PUSH0 DUP2 MSTORE PUSH1 0x20 ADD PUSH1 0x60 DUP2 MSTORE PUSH1 0x20 ADD PUSH0 DUP2 MSTORE POP SWAP1 JUMP JUMPDEST PUSH1 0x40 MLOAD DUP1 PUSH1 0xA0 ADD PUSH1 0x40 MSTORE DUP1 PUSH1 0x60 DUP2 MSTORE PUSH1 0x20 ADD PUSH0 DUP2 MSTORE PUSH1 0x20 ADD PUSH0 DUP2 MSTORE PUSH1 0x20 ADD PUSH0 DUP2 MSTORE PUSH1 0x20 ADD PUSH0 ISZERO ISZERO DUP2 MSTORE POP SWAP1 JUMP JUMPDEST PUSH0 PUSH0 REVERT JUMPDEST PUSH0 PUSH0 REVERT JUMPDEST PUSH0 DUP2 SWAP1 POP SWAP2 SWAP1 POP JUMP JUMPDEST PUSH2 0x1D19 DUP2 PUSH2 0x1D07 JUMP JUMPDEST DUP2 EQ PUSH2 0x1D23 JUMPI PUSH0 PUSH0 REVERT JUMPDEST POP JUMP JUMPDEST PUSH0 DUP2 CALLDATALOAD SWAP1 POP PUSH2 0x1D34 DUP2 PUSH2 0x1D10 JUMP JUMPDEST SWAP3 SWAP2 POP POP JUMP JUMPDEST PUSH0 PUSH1 0x20 DUP3 DUP5 SUB SLT ISZERO PUSH2 0x1D4F JUMPI PUSH2 0x1D4E PUSH2 0x1CFF JUMP JUMPDEST JUMPDEST PUSH0 PUSH2 0x1D5C DUP5 DUP3 DUP6 ADD PUSH2 0x1D26 JUMP JUMPDEST SWAP2 POP POP SWAP3 SWAP2 POP POP JUMP JUMPDEST PUSH2 0x1D6E DUP2 PUSH2 0x1D07 JUMP JUMPDEST DUP3 MSTORE POP POP JUMP JUMPDEST PUSH0 PUSH1 0x20 DUP3 ADD SWAP1 POP PUSH2 0x1D87 PUSH0 DUP4 ADD DUP5 PUSH2 0x1D65 JUMP JUMPDEST SWAP3 SWAP2 POP POP JUMP JUMPDEST PUSH0 DUP2 MLOAD SWAP1 POP SWAP2 SWAP1 POP JUMP JUMPDEST PUSH0 DUP3 DUP3 MSTORE PUSH1 0x20 DUP3 ADD SWAP1 POP SWAP3 SWAP2 POP POP JUMP JUMPDEST PUSH0 DUP2 SWAP1 POP PUSH1 0x20 DUP3 ADD SWAP1 POP SWAP2 SWAP1 POP JUMP JUMPDEST PUSH2 0x1DBF DUP2 PUSH2 0x1D07 JUMP JUMPDEST DUP3 MSTORE POP POP JUMP JUMPDEST PUSH0 DUP2 MLOAD SWAP1 POP SWAP2 SWAP1 POP JUMP JUMPDEST PUSH0 DUP3 DUP3 MSTORE PUSH1 0x20 DUP3 ADD SWAP1 POP SWAP3 SWAP2 POP POP JUMP JUMPDEST DUP3 DUP2 DUP4 MCOPY PUSH0 DUP4 DUP4 ADD MSTORE POP POP POP JUMP JUMPDEST PUSH0 PUSH1 0x1F NOT PUSH1 0x1F DUP4 ADD AND SWAP1 POP SWAP2 SWAP1 POP JUMP JUMPDEST PUSH0 PUSH2 0x1E07 DUP3 PUSH2 0x1DC5 JUMP JUMPDEST PUSH2 0x1E11 DUP2 DUP6 PUSH2 0x1DCF JUMP JUMPDEST SWAP4 POP PUSH2 0x1E21 DUP2 DUP6 PUSH1 0x20 DUP7 ADD PUSH2 0x1DDF JUMP JUMPDEST PUSH2 0x1E2A DUP2 PUSH2 0x1DED JUMP JUMPDEST DUP5 ADD SWAP2 POP POP SWAP3 SWAP2 POP POP JUMP JUMPDEST PUSH0 PUSH1 0x60 DUP4 ADD PUSH0 DUP4 ADD MLOAD PUSH2 0x1E4A PUSH0 DUP7 ADD DUP3 PUSH2 0x1DB6 JUMP JUMPDEST POP PUSH1 0x20 DUP4 ADD MLOAD DUP5 DUP3 SUB PUSH1 0x20 DUP7 ADD MSTORE PUSH2 0x1E62 DUP3 DUP3 PUSH2 0x1DFD JUMP JUMPDEST SWAP2 POP POP PUSH1 0x40 DUP4 ADD MLOAD PUSH2 0x1E77 PUSH1 0x40 DUP7 ADD DUP3 PUSH2 0x1DB6 JUMP JUMPDEST POP DUP1 SWAP2 POP POP SWAP3 SWAP2 POP POP JUMP JUMPDEST PUSH0 PUSH2 0x1E8D DUP4 DUP4 PUSH2 0x1E35 JUMP JUMPDEST SWAP1 POP SWAP3 SWAP2 POP POP JUMP JUMPDEST PUSH0 PUSH1 0x20 DUP3 ADD SWAP1 POP SWAP2 SWAP1 POP JUMP JUMPDEST PUSH0 PUSH2 0x1EAB DUP3 PUSH2 0x1D8D JUMP JUMPDEST PUSH2 0x1EB5 DUP2 DUP6 PUSH2 0x1D97 JUMP JUMPDEST SWAP4 POP DUP4 PUSH1 0x20 DUP3 MUL DUP6 ADD PUSH2 0x1EC7 DUP6 PUSH2 0x1DA7 JUMP JUMPDEST DUP1 PUSH0 JUMPDEST DUP6 DUP2 LT ISZERO PUSH2 0x1F02 JUMPI DUP5 DUP5 SUB DUP10 MSTORE DUP2 MLOAD PUSH2 0x1EE3 DUP6 DUP3 PUSH2 0x1E82 JUMP JUMPDEST SWAP5 POP PUSH2 0x1EEE DUP4 PUSH2 0x1E95 JUMP JUMPDEST SWAP3 POP PUSH1 0x20 DUP11 ADD SWAP10 POP POP PUSH1 0x1 DUP2 ADD SWAP1 POP PUSH2 0x1ECA JUMP JUMPDEST POP DUP3 SWAP8 POP DUP8 SWAP6 POP POP POP POP POP POP SWAP3 SWAP2 POP POP JUMP JUMPDEST PUSH0 PUSH1 0x20 DUP3 ADD SWAP1 POP DUP2 DUP2 SUB PUSH0 DUP4 ADD MSTORE PUSH2 0x1F2C DUP2 DUP5 PUSH2 0x1EA1 JUMP JUMPDEST SWAP1 POP SWAP3 SWAP2 POP POP JUMP JUMPDEST PUSH0 PUSH1 0x60 DUP4 ADD PUSH0 DUP4 ADD MLOAD PUSH2 0x1F49 PUSH0 DUP7 ADD DUP3 PUSH2 0x1DB6 JUMP JUMPDEST POP PUSH1 0x20 DUP4 ADD MLOAD DUP5 DUP3 SUB PUSH1 0x20 DUP7 ADD MSTORE PUSH2 0x1F61 DUP3 DUP3 PUSH2 0x1DFD JUMP JUMPDEST SWAP2 POP POP PUSH1 0x40 DUP4 ADD MLOAD PUSH2 0x1F76 PUSH1 0x40 DUP7 ADD DUP3 PUSH2 0x1DB6 JUMP JUMPDEST POP DUP1 SWAP2 POP POP SWAP3 SWAP2 POP POP JUMP JUMPDEST PUSH0 PUSH1 0x20 DUP3 ADD SWAP1 POP DUP2 DUP2 SUB PUSH0 DUP4 ADD MSTORE PUSH2 0x1F99 DUP2 DUP5 PUSH2 0x1F34 JUMP JUMPDEST SWAP1 POP SWAP3 SWAP2 POP POP JUMP JUMPDEST PUSH0 PUSH20 0xFFFFFFFFFFFFFFFFFFFFFFFFFFFFFFFFFFFFFFFF DUP3 AND SWAP1 POP SWAP2 SWAP1 POP JUMP JUMPDEST PUSH0 PUSH2 0x1FCA DUP3 PUSH2 0x1FA1 JUMP JUMPDEST SWAP1 POP SWAP2 SWAP1 POP JUMP JUMPDEST PUSH2 0x1FDA DUP2 PUSH2 0x1FC0 JUMP JUMPDEST DUP2 EQ PUSH2 0x1FE4 JUMPI PUSH0 PUSH0 REVERT JUMPDEST POP JUMP JUMPDEST PUSH0 DUP2 CALLDATALOAD SWAP1 POP PUSH2 0x1FF5 DUP2 PUSH2 0x1FD1 JUMP JUMPDEST SWAP3 SWAP2 POP POP JUMP JUMPDEST PUSH0 PUSH0 PUSH1 0x40 DUP4 DUP6 SUB SLT ISZERO PUSH2 0x2011 JUMPI PUSH2 0x2010 PUSH2 0x1CFF JUMP JUMPDEST JUMPDEST PUSH0 PUSH2 0x201E DUP6 DUP3 DUP7 ADD PUSH2 0x1D26 JUMP JUMPDEST SWAP3 POP POP PUSH1 0x20 PUSH2 0x202F DUP6 DUP3 DUP7 ADD PUSH2 0x1FE7 JUMP JUMPDEST SWAP2 POP POP SWAP3 POP SWAP3 SWAP1 POP JUMP JUMPDEST PUSH0 DUP2 ISZERO ISZERO SWAP1 POP SWAP2 SWAP1 POP JUMP JUMPDEST PUSH2 0x204D DUP2 PUSH2 0x2039 JUMP JUMPDEST DUP3 MSTORE POP POP JUMP JUMPDEST PUSH0 PUSH1 0x20 DUP3 ADD SWAP1 POP PUSH2 0x2066 PUSH0 DUP4 ADD DUP5 PUSH2 0x2044 JUMP JUMPDEST SWAP3 SWAP2 POP POP JUMP JUMPDEST PUSH0 DUP3 DUP3 MSTORE PUSH1 0x20 DUP3 ADD SWAP1 POP SWAP3 SWAP2 POP POP JUMP JUMPDEST PUSH0 PUSH2 0x2086 DUP3 PUSH2 0x1DC5 JUMP JUMPDEST PUSH2 0x2090 DUP2 DUP6 PUSH2 0x206C JUMP JUMPDEST SWAP4 POP PUSH2 0x20A0 DUP2 DUP6 PUSH1 0x20 DUP7 ADD PUSH2 0x1DDF JUMP JUMPDEST PUSH2 0x20A9 DUP2 PUSH2 0x1DED JUMP JUMPDEST DUP5 ADD SWAP2 POP POP SWAP3 SWAP2 POP POP JUMP JUMPDEST PUSH0 PUSH1 0xA0 DUP3 ADD SWAP1 POP DUP2 DUP2 SUB PUSH0 DUP4 ADD MSTORE PUSH2 0x20CC DUP2 DUP9 PUSH2 0x207C JUMP JUMPDEST SWAP1 POP PUSH2 0x20DB PUSH1 0x20 DUP4 ADD DUP8 PUSH2 0x1D65 JUMP JUMPDEST PUSH2 0x20E8 PUSH1 0x40 DUP4 ADD DUP7 PUSH2 0x1D65 JUMP JUMPDEST PUSH2 0x20F5 PUSH1 0x60 DUP4 ADD DUP6 PUSH2 0x1D65 JUMP JUMPDEST PUSH2 0x2102 PUSH1 0x80 DUP4 ADD DUP5 PUSH2 0x2044 JUMP JUMPDEST SWAP7 SWAP6 POP POP POP POP POP POP JUMP JUMPDEST PUSH0 PUSH0 PUSH1 0x40 DUP4 DUP6 SUB SLT ISZERO PUSH2 0x2122 JUMPI PUSH2 0x2121 PUSH2 0x1CFF JUMP JUMPDEST JUMPDEST PUSH0 PUSH2 0x212F DUP6 DUP3 DUP7 ADD PUSH2 0x1D26 JUMP JUMPDEST SWAP3 POP POP PUSH1 0x20 PUSH2 0x2140 DUP6 DUP3 DUP7 ADD PUSH2 0x1D26 JUMP JUMPDEST SWAP2 POP POP SWAP3 POP SWAP3 SWAP1 POP JUMP JUMPDEST PUSH0 PUSH1 0x60 DUP3 ADD SWAP1 POP PUSH2 0x215D PUSH0 DUP4 ADD DUP7 PUSH2 0x1D65 JUMP JUMPDEST DUP2 DUP2 SUB PUSH1 0x20 DUP4 ADD MSTORE PUSH2 0x216F DUP2 DUP6 PUSH2 0x207C JUMP JUMPDEST SWAP1 POP PUSH2 0x217E PUSH1 0x40 DUP4 ADD DUP5 PUSH2 0x1D65 JUMP JUMPDEST SWAP5 SWAP4 POP POP POP POP JUMP JUMPDEST PUSH0 DUP2 MLOAD SWAP1 POP SWAP2 SWAP1 POP JUMP JUMPDEST PUSH0 DUP3 DUP3 MSTORE PUSH1 0x20 DUP3 ADD SWAP1 POP SWAP3 SWAP2 POP POP JUMP JUMPDEST PUSH0 DUP2 SWAP1 POP PUSH1 0x20 DUP3 ADD SWAP1 POP SWAP2 SWAP1 POP JUMP JUMPDEST PUSH2 0x21B8 DUP2 PUSH2 0x2039 JUMP JUMPDEST DUP3 MSTORE POP POP JUMP JUMPDEST PUSH0 PUSH1 0xA0 DUP4 ADD PUSH0 DUP4 ADD MLOAD DUP5 DUP3 SUB PUSH0 DUP7 ADD MSTORE PUSH2 0x21D8 DUP3 DUP3 PUSH2 0x1DFD JUMP JUMPDEST SWAP2 POP POP PUSH1 0x20 DUP4 ADD MLOAD PUSH2 0x21ED PUSH1 0x20 DUP7 ADD DUP3 PUSH2 0x1DB6 JUMP JUMPDEST POP PUSH1 0x40 DUP4 ADD MLOAD PUSH2 0x2200 PUSH1 0x40 DUP7 ADD DUP3 PUSH2 0x1DB6 JUMP JUMPDEST POP PUSH1 0x60 DUP4 ADD MLOAD PUSH2 0x2213 PUSH1 0x60 DUP7 ADD DUP3 PUSH2 0x1DB6 JUMP JUMPDEST POP PUSH1 0x80 DUP4 ADD MLOAD PUSH2 0x2226 PUSH1 0x80 DUP7 ADD DUP3 PUSH2 0x21AF JUMP JUMPDEST POP DUP1 SWAP2 POP POP SWAP3 SWAP2 POP POP JUMP JUMPDEST PUSH0 PUSH2 0x223C DUP4 DUP4 PUSH2 0x21BE JUMP JUMPDEST SWAP1 POP SWAP3 SWAP2 POP POP JUMP JUMPDEST PUSH0 PUSH1 0x20 DUP3 ADD SWAP1 POP SWAP2 SWAP1 POP JUMP JUMPDEST PUSH0 PUSH2 0x225A DUP3 PUSH2 0x2186 JUMP JUMPDEST PUSH2 0x2264 DUP2 DUP6 PUSH2 0x2190 JUMP JUMPDEST SWAP4 POP DUP4 PUSH1 0x20 DUP3 MUL DUP6 ADD PUSH2 0x2276 DUP6 PUSH2 0x21A0 JUMP JUMPDEST DUP1 PUSH0 JUMPDEST DUP6 DUP2 LT ISZERO PUSH2 0x22B1 JUMPI DUP5 DUP5 SUB DUP10 MSTORE DUP2 MLOAD PUSH2 0x2292 DUP6 DUP3 PUSH2 0x2231 JUMP JUMPDEST SWAP5 POP PUSH2 0x229D DUP4 PUSH2 0x2244 JUMP JUMPDEST SWAP3 POP PUSH1 0x20 DUP11 ADD SWAP10 POP POP PUSH1 0x1 DUP2 ADD SWAP1 POP PUSH2 0x2279 JUMP JUMPDEST POP DUP3 SWAP8 POP DUP8 SWAP6 POP POP POP POP POP POP SWAP3 SWAP2 POP POP JUMP JUMPDEST PUSH0 PUSH1 0x20 DUP3 ADD SWAP1 POP DUP2 DUP2 SUB PUSH0 DUP4 ADD MSTORE PUSH2 0x22DB DUP2 DUP5 PUSH2 0x2250 JUMP JUMPDEST SWAP1 POP SWAP3 SWAP2 POP POP JUMP JUMPDEST PUSH2 0x22EC DUP2 PUSH2 0x1FC0 JUMP JUMPDEST DUP3 MSTORE POP POP JUMP JUMPDEST PUSH0 PUSH1 0x20 DUP3 ADD SWAP1 POP PUSH2 0x2305 PUSH0 DUP4 ADD DUP5 PUSH2 0x22E3 JUMP JUMPDEST SWAP3 SWAP2 POP POP JUMP JUMPDEST PUSH32 0x4E487B7100000000000000000000000000000000000000000000000000000000 PUSH0 MSTORE PUSH1 0x21 PUSH1 0x4 MSTORE PUSH1 0x24 PUSH0 REVERT JUMPDEST PUSH1 0x3 DUP2 LT PUSH2 0x2349 JUMPI PUSH2 0x2348 PUSH2 0x230B JUMP JUMPDEST JUMPDEST POP JUMP JUMPDEST PUSH0 DUP2 SWAP1 POP PUSH2 0x2359 DUP3 PUSH2 0x2338 JUMP JUMPDEST SWAP2 SWAP1 POP JUMP JUMPDEST PUSH0 PUSH2 0x2368 DUP3 PUSH2 0x234C JUMP JUMPDEST SWAP1 POP SWAP2 SWAP1 POP JUMP JUMPDEST PUSH2 0x2378 DUP2 PUSH2 0x235E JUMP JUMPDEST DUP3 MSTORE POP POP JUMP JUMPDEST PUSH0 PUSH1 0x20 DUP3 ADD SWAP1 POP PUSH2 0x2391 PUSH0 DUP4 ADD DUP5 PUSH2 0x236F JUMP JUMPDEST SWAP3 SWAP2 POP POP JUMP JUMPDEST PUSH0 PUSH0 REVERT JUMPDEST PUSH0 PUSH0 REVERT JUMPDEST PUSH0 PUSH0 REVERT JUMPDEST PUSH0 PUSH0 DUP4 PUSH1 0x1F DUP5 ADD SLT PUSH2 0x23B8 JUMPI PUSH2 0x23B7 PUSH2 0x2397 JUMP JUMPDEST JUMPDEST DUP3 CALLDATALOAD SWAP1 POP PUSH8 0xFFFFFFFFFFFFFFFF DUP2 GT ISZERO PUSH2 0x23D5 JUMPI PUSH2 0x23D4 PUSH2 0x239B JUMP JUMPDEST JUMPDEST PUSH1 0x20 DUP4 ADD SWAP2 POP DUP4 PUSH1 0x1 DUP3 MUL DUP4 ADD GT ISZERO PUSH2 0x23F1 JUMPI PUSH2 0x23F0 PUSH2 0x239F JUMP JUMPDEST JUMPDEST SWAP3 POP SWAP3 SWAP1 POP JUMP JUMPDEST PUSH0 PUSH0 PUSH0 PUSH0 PUSH1 0x60 DUP6 DUP8 SUB SLT ISZERO PUSH2 0x2410 JUMPI PUSH2 0x240F PUSH2 0x1CFF JUMP JUMPDEST JUMPDEST PUSH0 PUSH2 0x241D DUP8 DUP3 DUP9 ADD PUSH2 0x1D26 JUMP JUMPDEST SWAP5 POP POP PUSH1 0x20 PUSH2 0x242E DUP8 DUP3 DUP9 ADD PUSH2 0x1D26 JUMP JUMPDEST SWAP4 POP POP PUSH1 0x40 DUP6 ADD CALLDATALOAD PUSH8 0xFFFFFFFFFFFFFFFF DUP2 GT ISZERO PUSH2 0x244F JUMPI PUSH2 0x244E PUSH2 0x1D03 JUMP JUMPDEST JUMPDEST PUSH2 0x245B DUP8 DUP3 DUP9 ADD PUSH2 0x23A3 JUMP JUMPDEST SWAP3 POP SWAP3 POP POP SWAP3 SWAP6 SWAP2 SWAP5 POP SWAP3 POP JUMP JUMPDEST PUSH0 PUSH1 0xA0 DUP4 ADD PUSH0 DUP4 ADD MLOAD DUP5 DUP3 SUB PUSH0 DUP7 ADD MSTORE PUSH2 0x2483 DUP3 DUP3 PUSH2 0x1DFD JUMP JUMPDEST SWAP2 POP POP PUSH1 0x20 DUP4 ADD MLOAD PUSH2 0x2498 PUSH1 0x20 DUP7 ADD DUP3 PUSH2 0x1DB6 JUMP JUMPDEST POP PUSH1 0x40 DUP4 ADD MLOAD PUSH2 0x24AB PUSH1 0x40 DUP7 ADD DUP3 PUSH2 0x1DB6 JUMP JUMPDEST POP PUSH1 0x60 DUP4 ADD MLOAD PUSH2 0x24BE PUSH1 0x60 DUP7 ADD DUP3 PUSH2 0x1DB6 JUMP JUMPDEST POP PUSH1 0x80 DUP4 ADD MLOAD PUSH2 0x24D1 PUSH1 0x80 DUP7 ADD DUP3 PUSH2 0x21AF JUMP JUMPDEST POP DUP1 SWAP2 POP POP SWAP3 SWAP2 POP POP JUMP JUMPDEST PUSH0 PUSH1 0x40 DUP3 ADD SWAP1 POP DUP2 DUP2 SUB PUSH0 DUP4 ADD MSTORE PUSH2 0x24F4 DUP2 DUP6 PUSH2 0x2469 JUMP JUMPDEST SWAP1 POP PUSH2 0x2503 PUSH1 0x20 DUP4 ADD DUP5 PUSH2 0x236F JUMP JUMPDEST SWAP4 SWAP3 POP POP POP JUMP JUMPDEST PUSH0 PUSH0 PUSH0 PUSH0 PUSH0 PUSH1 0x80 DUP7 DUP9 SUB SLT ISZERO PUSH2 0x2523 JUMPI PUSH2 0x2522 PUSH2 0x1CFF JUMP JUMPDEST JUMPDEST PUSH0 DUP7 ADD CALLDATALOAD PUSH8 0xFFFFFFFFFFFFFFFF DUP2 GT ISZERO PUSH2 0x2540 JUMPI PUSH2 0x253F PUSH2 0x1D03 JUMP JUMPDEST JUMPDEST PUSH2 0x254C DUP9 DUP3 DUP10 ADD PUSH2 0x23A3 JUMP JUMPDEST SWAP6 POP SWAP6 POP POP PUSH1 0x20 PUSH2 0x255F DUP9 DUP3 DUP10 ADD PUSH2 0x1D26 JUMP JUMPDEST SWAP4 POP POP PUSH1 0x40 PUSH2 0x2570 DUP9 DUP3 DUP10 ADD PUSH2 0x1D26 JUMP JUMPDEST SWAP3 POP POP PUSH1 0x60 PUSH2 0x2581 DUP9 DUP3 DUP10 ADD PUSH2 0x1D26 JUMP JUMPDEST SWAP2 POP POP SWAP3 SWAP6 POP SWAP3 SWAP6 SWAP1 SWAP4 POP JUMP JUMPDEST PUSH32 0x4E487B7100000000000000000000000000000000000000000000000000000000 PUSH0 MSTORE PUSH1 0x41 PUSH1 0x4 MSTORE PUSH1 0x24 PUSH0 REVERT JUMPDEST PUSH32 0x4E487B7100000000000000000000000000000000000000000000000000000000 PUSH0 MSTORE PUSH1 0x32 PUSH1 0x4 MSTORE PUSH1 0x24 PUSH0 REVERT JUMPDEST PUSH32 0x4E487B7100000000000000000000000000000000000000000000000000000000 PUSH0 MSTORE PUSH1 0x22 PUSH1 0x4 MSTORE PUSH1 0x24 PUSH0 REVERT JUMPDEST PUSH0 PUSH1 0x2 DUP3 DIV SWAP1 POP PUSH1 0x1 DUP3 AND DUP1 PUSH2 0x262C JUMPI PUSH1 0x7F DUP3 AND SWAP2 POP JUMPDEST PUSH1 0x20 DUP3 LT DUP2 SUB PUSH2 0x263F JUMPI PUSH2 0x263E PUSH2 0x25E8 JUMP JUMPDEST JUMPDEST POP SWAP2 SWAP1 POP JUMP JUMPDEST PUSH32 0x456C656374696F6E206973206E6F7420656E6465640000000000000000000000 PUSH0 DUP3 ADD MSTORE POP JUMP JUMPDEST PUSH0 PUSH2 0x2679 PUSH1 0x15 DUP4 PUSH2 0x206C JUMP JUMPDEST SWAP2 POP PUSH2 0x2684 DUP3 PUSH2 0x2645 JUMP JUMPDEST PUSH1 0x20 DUP3 ADD SWAP1 POP SWAP2 SWAP1 POP JUMP JUMPDEST PUSH0 PUSH1 0x20 DUP3 ADD SWAP1 POP DUP2 DUP2 SUB PUSH0 DUP4 ADD MSTORE PUSH2 0x26A6 DUP2 PUSH2 0x266D JUMP JUMPDEST SWAP1 POP SWAP2 SWAP1 POP JUMP JUMPDEST PUSH32 0x4E6F2063616E6469646174657320696E207468697320656C656374696F6E0000 PUSH0 DUP3 ADD MSTORE POP JUMP JUMPDEST PUSH0 PUSH2 0x26E1 PUSH1 0x1E DUP4 PUSH2 0x206C JUMP JUMPDEST SWAP2 POP PUSH2 0x26EC DUP3 PUSH2 0x26AD JUMP JUMPDEST PUSH1 0x20 DUP3 ADD SWAP1 POP SWAP2 SWAP1 POP JUMP JUMPDEST PUSH0 PUSH1 0x20 DUP3 ADD SWAP1 POP DUP2 DUP2 SUB PUSH0 DUP4 ADD MSTORE PUSH2 0x270E DUP2 PUSH2 0x26D5 JUMP JUMPDEST SWAP1 POP SWAP2 SWAP1 POP JUMP JUMPDEST PUSH32 0x596F7520617265206E6F7420746865206F776E65720000000000000000000000 PUSH0 DUP3 ADD MSTORE POP JUMP JUMPDEST PUSH0 PUSH2 0x2749 PUSH1 0x15 DUP4 PUSH2 0x206C JUMP JUMPDEST SWAP2 POP PUSH2 0x2754 DUP3 PUSH2 0x2715 JUMP JUMPDEST PUSH1 0x20 DUP3 ADD SWAP1 POP SWAP2 SWAP1 POP JUMP JUMPDEST PUSH0 PUSH1 0x20 DUP3 ADD SWAP1 POP DUP2 DUP2 SUB PUSH0 DUP4 ADD MSTORE PUSH2 0x2776 DUP2 PUSH2 0x273D JUMP JUMPDEST SWAP1 POP SWAP2 SWAP1 POP JUMP JUMPDEST PUSH32 0x456C656374696F6E20616C726561647920656E64656400000000000000000000 PUSH0 DUP3 ADD MSTORE POP JUMP JUMPDEST PUSH0 PUSH2 0x27B1 PUSH1 0x16 DUP4 PUSH2 0x206C JUMP JUMPDEST SWAP2 POP PUSH2 0x27BC DUP3 PUSH2 0x277D JUMP JUMPDEST PUSH1 0x20 DUP3 ADD SWAP1 POP SWAP2 SWAP1 POP JUMP JUMPDEST PUSH0 PUSH1 0x20 DUP3 ADD SWAP1 POP DUP2 DUP2 SUB PUSH0 DUP4 ADD MSTORE PUSH2 0x27DE DUP2 PUSH2 0x27A5 JUMP JUMPDEST SWAP1 POP SWAP2 SWAP1 POP JUMP JUMPDEST PUSH32 0x456C656374696F6E206973206E6F74206F6E676F696E6720746F206265206D61 PUSH0 DUP3 ADD MSTORE PUSH32 0x6E75616C6C7920656E6465640000000000000000000000000000000000000000 PUSH1 0x20 DUP3 ADD MSTORE POP JUMP JUMPDEST PUSH0 PUSH2 0x283F PUSH1 0x2C DUP4 PUSH2 0x206C JUMP JUMPDEST SWAP2 POP PUSH2 0x284A DUP3 PUSH2 0x27E5 JUMP JUMPDEST PUSH1 0x40 DUP3 ADD SWAP1 POP SWAP2 SWAP1 POP JUMP JUMPDEST PUSH0 PUSH1 0x20 DUP3 ADD SWAP1 POP DUP2 DUP2 SUB PUSH0 DUP4 ADD MSTORE PUSH2 0x286C DUP2 PUSH2 0x2833 JUMP JUMPDEST SWAP1 POP SWAP2 SWAP1 POP JUMP JUMPDEST PUSH32 0x456C656374696F6E20646F6573206E6F74206578697374000000000000000000 PUSH0 DUP3 ADD MSTORE POP JUMP JUMPDEST PUSH0 PUSH2 0x28A7 PUSH1 0x17 DUP4 PUSH2 0x206C JUMP JUMPDEST SWAP2 POP PUSH2 0x28B2 DUP3 PUSH2 0x2873 JUMP JUMPDEST PUSH1 0x20 DUP3 ADD SWAP1 POP SWAP2 SWAP1 POP JUMP JUMPDEST PUSH0 PUSH1 0x20 DUP3 ADD SWAP1 POP DUP2 DUP2 SUB PUSH0 DUP4 ADD MSTORE PUSH2 0x28D4 DUP2 PUSH2 0x289B JUMP JUMPDEST SWAP1 POP SWAP2 SWAP1 POP JUMP JUMPDEST PUSH32 0x456C656374696F6E20616C72656164792073746172746564206F7220656E6465 PUSH0 DUP3 ADD MSTORE PUSH32 0x6400000000000000000000000000000000000000000000000000000000000000 PUSH1 0x20 DUP3 ADD MSTORE POP JUMP JUMPDEST PUSH0 PUSH2 0x2935 PUSH1 0x21 DUP4 PUSH2 0x206C JUMP JUMPDEST SWAP2 POP PUSH2 0x2940 DUP3 PUSH2 0x28DB JUMP JUMPDEST PUSH1 0x40 DUP3 ADD SWAP1 POP SWAP2 SWAP1 POP JUMP JUMPDEST PUSH0 PUSH1 0x20 DUP3 ADD SWAP1 POP DUP2 DUP2 SUB PUSH0 DUP4 ADD MSTORE PUSH2 0x2962 DUP2 PUSH2 0x2929 JUMP JUMPDEST SWAP1 POP SWAP2 SWAP1 POP JUMP JUMPDEST PUSH32 0x4E6F2063616E6469646174657320616464656400000000000000000000000000 PUSH0 DUP3 ADD MSTORE POP JUMP JUMPDEST PUSH0 PUSH2 0x299D PUSH1 0x13 DUP4 PUSH2 0x206C JUMP JUMPDEST SWAP2 POP PUSH2 0x29A8 DUP3 PUSH2 0x2969 JUMP JUMPDEST PUSH1 0x20 DUP3 ADD SWAP1 POP SWAP2 SWAP1 POP JUMP JUMPDEST PUSH0 PUSH1 0x20 DUP3 ADD SWAP1 POP DUP2 DUP2 SUB PUSH0 DUP4 ADD MSTORE PUSH2 0x29CA DUP2 PUSH2 0x2991 JUMP JUMPDEST SWAP1 POP SWAP2 SWAP1 POP JUMP JUMPDEST PUSH32 0x43616E6469646174652077697468207468697320494420616C72656164792065 PUSH0 DUP3 ADD MSTORE PUSH32 0x7869737473000000000000000000000000000000000000000000000000000000 PUSH1 0x20 DUP3 ADD MSTORE POP JUMP JUMPDEST PUSH0 PUSH2 0x2A2B PUSH1 0x25 DUP4 PUSH2 0x206C JUMP JUMPDEST SWAP2 POP PUSH2 0x2A36 DUP3 PUSH2 0x29D1 JUMP JUMPDEST PUSH1 0x40 DUP3 ADD SWAP1 POP SWAP2 SWAP1 POP JUMP JUMPDEST PUSH0 PUSH1 0x20 DUP3 ADD SWAP1 POP DUP2 DUP2 SUB PUSH0 DUP4 ADD MSTORE PUSH2 0x2A58 DUP2 PUSH2 0x2A1F JUMP JUMPDEST SWAP1 POP SWAP2 SWAP1 POP JUMP JUMPDEST PUSH32 0x43616E6E6F74206164642063616E6469646174657320616674657220656C6563 PUSH0 DUP3 ADD MSTORE PUSH32 0x74696F6E20686173207374617274656400000000000000000000000000000000 PUSH1 0x20 DUP3 ADD MSTORE POP JUMP JUMPDEST PUSH0 PUSH2 0x2AB9 PUSH1 0x30 DUP4 PUSH2 0x206C JUMP JUMPDEST SWAP2 POP PUSH2 0x2AC4 DUP3 PUSH2 0x2A5F JUMP JUMPDEST PUSH1 0x40 DUP3 ADD SWAP1 POP SWAP2 SWAP1 POP JUMP JUMPDEST PUSH0 PUSH1 0x20 DUP3 ADD SWAP1 POP DUP2 DUP2 SUB PUSH0 DUP4 ADD MSTORE PUSH2 0x2AE6 DUP2 PUSH2 0x2AAD JUMP JUMPDEST SWAP1 POP SWAP2 SWAP1 POP JUMP JUMPDEST PUSH0 DUP2 SWAP1 POP DUP2 PUSH0 MSTORE PUSH1 0x20 PUSH0 KECCAK256 SWAP1 POP SWAP2 SWAP1 POP JUMP JUMPDEST PUSH0 PUSH1 0x20 PUSH1 0x1F DUP4 ADD DIV SWAP1 POP SWAP2 SWAP1 POP JUMP JUMPDEST PUSH0 DUP3 DUP3 SHL SWAP1 POP SWAP3 SWAP2 POP POP JUMP JUMPDEST PUSH0 PUSH1 0x8 DUP4 MUL PUSH2 0x2B49 PUSH32 0xFFFFFFFFFFFFFFFFFFFFFFFFFFFFFFFFFFFFFFFFFFFFFFFFFFFFFFFFFFFFFFFF DUP3 PUSH2 0x2B0E JUMP JUMPDEST PUSH2 0x2B53 DUP7 DUP4 PUSH2 0x2B0E JUMP JUMPDEST SWAP6 POP DUP1 NOT DUP5 AND SWAP4 POP DUP1 DUP7 AND DUP5 OR SWAP3 POP POP POP SWAP4 SWAP3 POP POP POP JUMP JUMPDEST PUSH0 DUP2 SWAP1 POP SWAP2 SWAP1 POP JUMP JUMPDEST PUSH0 PUSH2 0x2B8E PUSH2 0x2B89 PUSH2 0x2B84 DUP5 PUSH2 0x1D07 JUMP JUMPDEST PUSH2 0x2B6B JUMP JUMPDEST PUSH2 0x1D07 JUMP JUMPDEST SWAP1 POP SWAP2 SWAP1 POP JUMP JUMPDEST PUSH0 DUP2 SWAP1 POP SWAP2 SWAP1 POP JUMP JUMPDEST PUSH2 0x2BA7 DUP4 PUSH2 0x2B74 JUMP JUMPDEST PUSH2 0x2BBB PUSH2 0x2BB3 DUP3 PUSH2 0x2B95 JUMP JUMPDEST DUP5 DUP5 SLOAD PUSH2 0x2B1A JUMP JUMPDEST DUP3 SSTORE POP POP POP POP JUMP JUMPDEST PUSH0 PUSH0 SWAP1 POP SWAP1 JUMP JUMPDEST PUSH2 0x2BD2 PUSH2 0x2BC3 JUMP JUMPDEST PUSH2 0x2BDD DUP2 DUP5 DUP5 PUSH2 0x2B9E JUMP JUMPDEST POP POP POP JUMP JUMPDEST JUMPDEST DUP2 DUP2 LT ISZERO PUSH2 0x2C00 JUMPI PUSH2 0x2BF5 PUSH0 DUP3 PUSH2 0x2BCA JUMP JUMPDEST PUSH1 0x1 DUP2 ADD SWAP1 POP PUSH2 0x2BE3 JUMP JUMPDEST POP POP JUMP JUMPDEST PUSH1 0x1F DUP3 GT ISZERO PUSH2 0x2C45 JUMPI PUSH2 0x2C16 DUP2 PUSH2 0x2AED JUMP JUMPDEST PUSH2 0x2C1F DUP5 PUSH2 0x2AFF JUMP JUMPDEST DUP2 ADD PUSH1 0x20 DUP6 LT ISZERO PUSH2 0x2C2E JUMPI DUP2 SWAP1 POP JUMPDEST PUSH2 0x2C42 PUSH2 0x2C3A DUP6 PUSH2 0x2AFF JUMP JUMPDEST DUP4 ADD DUP3 PUSH2 0x2BE2 JUMP JUMPDEST POP POP JUMPDEST POP POP POP JUMP JUMPDEST PUSH0 DUP3 DUP3 SHR SWAP1 POP SWAP3 SWAP2 POP POP JUMP JUMPDEST PUSH0 PUSH2 0x2C65 PUSH0 NOT DUP5 PUSH1 0x8 MUL PUSH2 0x2C4A JUMP JUMPDEST NOT DUP1 DUP4 AND SWAP2 POP POP SWAP3 SWAP2 POP POP JUMP JUMPDEST PUSH0 PUSH2 0x2C7D DUP4 DUP4 PUSH2 0x2C56 JUMP JUMPDEST SWAP2 POP DUP3 PUSH1 0x2 MUL DUP3 OR SWAP1 POP SWAP3 SWAP2 POP POP JUMP JUMPDEST PUSH2 0x2C96 DUP3 PUSH2 0x1DC5 JUMP JUMPDEST PUSH8 0xFFFFFFFFFFFFFFFF DUP2 GT ISZERO PUSH2 0x2CAF JUMPI PUSH2 0x2CAE PUSH2 0x258E JUMP JUMPDEST JUMPDEST PUSH2 0x2CB9 DUP3 SLOAD PUSH2 0x2615 JUMP JUMPDEST PUSH2 0x2CC4 DUP3 DUP3 DUP6 PUSH2 0x2C04 JUMP JUMPDEST PUSH0 PUSH1 0x20 SWAP1 POP PUSH1 0x1F DUP4 GT PUSH1 0x1 DUP2 EQ PUSH2 0x2CF5 JUMPI PUSH0 DUP5 ISZERO PUSH2 0x2CE3 JUMPI DUP3 DUP8 ADD MLOAD SWAP1 POP JUMPDEST PUSH2 0x2CED DUP6 DUP3 PUSH2 0x2C72 JUMP JUMPDEST DUP7 SSTORE POP PUSH2 0x2D54 JUMP JUMPDEST PUSH1 0x1F NOT DUP5 AND PUSH2 0x2D03 DUP7 PUSH2 0x2AED JUMP JUMPDEST PUSH0 JUMPDEST DUP3 DUP2 LT ISZERO PUSH2 0x2D2A JUMPI DUP5 DUP10 ADD MLOAD DUP3 SSTORE PUSH1 0x1 DUP3 ADD SWAP2 POP PUSH1 0x20 DUP6 ADD SWAP5 POP PUSH1 0x20 DUP2 ADD SWAP1 POP PUSH2 0x2D05 JUMP JUMPDEST DUP7 DUP4 LT ISZERO PUSH2 0x2D47 JUMPI DUP5 DUP10 ADD MLOAD PUSH2 0x2D43 PUSH1 0x1F DUP10 AND DUP3 PUSH2 0x2C56 JUMP JUMPDEST DUP4 SSTORE POP JUMPDEST PUSH1 0x1 PUSH1 0x2 DUP9 MUL ADD DUP9 SSTORE POP POP POP JUMPDEST POP POP POP POP POP POP JUMP JUMPDEST DUP3 DUP2 DUP4 CALLDATACOPY PUSH0 DUP4 DUP4 ADD MSTORE POP POP POP JUMP JUMPDEST PUSH0 PUSH2 0x2D75 DUP4 DUP6 PUSH2 0x206C JUMP JUMPDEST SWAP4 POP PUSH2 0x2D82 DUP4 DUP6 DUP5 PUSH2 0x2D5C JUMP JUMPDEST PUSH2 0x2D8B DUP4 PUSH2 0x1DED JUMP JUMPDEST DUP5 ADD SWAP1 POP SWAP4 SWAP3 POP POP POP JUMP JUMPDEST PUSH0 PUSH1 0x40 DUP3 ADD SWAP1 POP PUSH2 0x2DA9 PUSH0 DUP4 ADD DUP7 PUSH2 0x1D65 JUMP JUMPDEST DUP2 DUP2 SUB PUSH1 0x20 DUP4 ADD MSTORE PUSH2 0x2DBC DUP2 DUP5 DUP7 PUSH2 0x2D6A JUMP JUMPDEST SWAP1 POP SWAP5 SWAP4 POP POP POP POP JUMP JUMPDEST PUSH32 0x456C656374696F6E206973206E6F74206F6E676F696E67000000000000000000 PUSH0 DUP3 ADD MSTORE POP JUMP JUMPDEST PUSH0 PUSH2 0x2DFA PUSH1 0x17 DUP4 PUSH2 0x206C JUMP JUMPDEST SWAP2 POP PUSH2 0x2E05 DUP3 PUSH2 0x2DC6 JUMP JUMPDEST PUSH1 0x20 DUP3 ADD SWAP1 POP SWAP2 SWAP1 POP JUMP JUMPDEST PUSH0 PUSH1 0x20 DUP3 ADD SWAP1 POP DUP2 DUP2 SUB PUSH0 DUP4 ADD MSTORE PUSH2 0x2E27 DUP2 PUSH2 0x2DEE JUMP JUMPDEST SWAP1 POP SWAP2 SWAP1 POP JUMP JUMPDEST PUSH32 0x566F74696E6720686173206E6F7420737461727465642079657420666F722074 PUSH0 DUP3 ADD MSTORE PUSH32 0x68697320656C656374696F6E2E00000000000000000000000000000000000000 PUSH1 0x20 DUP3 ADD MSTORE POP JUMP JUMPDEST PUSH0 PUSH2 0x2E88 PUSH1 0x2D DUP4 PUSH2 0x206C JUMP JUMPDEST SWAP2 POP PUSH2 0x2E93 DUP3 PUSH2 0x2E2E JUMP JUMPDEST PUSH1 0x40 DUP3 ADD SWAP1 POP SWAP2 SWAP1 POP JUMP JUMPDEST PUSH0 PUSH1 0x20 DUP3 ADD SWAP1 POP DUP2 DUP2 SUB PUSH0 DUP4 ADD MSTORE PUSH2 0x2EB5 DUP2 PUSH2 0x2E7C JUMP JUMPDEST SWAP1 POP SWAP2 SWAP1 POP JUMP JUMPDEST PUSH32 0x566F74696E672068617320656E64656420666F72207468697320656C65637469 PUSH0 DUP3 ADD MSTORE PUSH32 0x6F6E2E0000000000000000000000000000000000000000000000000000000000 PUSH1 0x20 DUP3 ADD MSTORE POP JUMP JUMPDEST PUSH0 PUSH2 0x2F16 PUSH1 0x23 DUP4 PUSH2 0x206C JUMP JUMPDEST SWAP2 POP PUSH2 0x2F21 DUP3 PUSH2 0x2EBC JUMP JUMPDEST PUSH1 0x40 DUP3 ADD SWAP1 POP SWAP2 SWAP1 POP JUMP JUMPDEST PUSH0 PUSH1 0x20 DUP3 ADD SWAP1 POP DUP2 DUP2 SUB PUSH0 DUP4 ADD MSTORE PUSH2 0x2F43 DUP2 PUSH2 0x2F0A JUMP JUMPDEST SWAP1 POP SWAP2 SWAP1 POP JUMP JUMPDEST PUSH32 0x596F7520616C726561647920766F746564000000000000000000000000000000 PUSH0 DUP3 ADD MSTORE POP JUMP JUMPDEST PUSH0 PUSH2 0x2F7E PUSH1 0x11 DUP4 PUSH2 0x206C JUMP JUMPDEST SWAP2 POP PUSH2 0x2F89 DUP3 PUSH2 0x2F4A JUMP JUMPDEST PUSH1 0x20 DUP3 ADD SWAP1 POP SWAP2 SWAP1 POP JUMP JUMPDEST PUSH0 PUSH1 0x20 DUP3 ADD SWAP1 POP DUP2 DUP2 SUB PUSH0 DUP4 ADD MSTORE PUSH2 0x2FAB DUP2 PUSH2 0x2F72 JUMP JUMPDEST SWAP1 POP SWAP2 SWAP1 POP JUMP JUMPDEST PUSH32 0x43616E64696461746520646F6573206E6F742065786973740000000000000000 PUSH0 DUP3 ADD MSTORE POP JUMP JUMPDEST PUSH0 PUSH2 0x2FE6 PUSH1 0x18 DUP4 PUSH2 0x206C JUMP JUMPDEST SWAP2 POP PUSH2 0x2FF1 DUP3 PUSH2 0x2FB2 JUMP JUMPDEST PUSH1 0x20 DUP3 ADD SWAP1 POP SWAP2 SWAP1 POP JUMP JUMPDEST PUSH0 PUSH1 0x20 DUP3 ADD SWAP1 POP DUP2 DUP2 SUB PUSH0 DUP4 ADD MSTORE PUSH2 0x3013 DUP2 PUSH2 0x2FDA JUMP JUMPDEST SWAP1 POP SWAP2 SWAP1 POP JUMP JUMPDEST PUSH32 0x4E487B7100000000000000000000000000000000000000000000000000000000 PUSH0 MSTORE PUSH1 0x11 PUSH1 0x4 MSTORE PUSH1 0x24 PUSH0 REVERT JUMPDEST PUSH0 PUSH2 0x3051 DUP3 PUSH2 0x1D07 JUMP JUMPDEST SWAP2 POP PUSH2 0x305C DUP4 PUSH2 0x1D07 JUMP JUMPDEST SWAP3 POP DUP3 DUP3 ADD SWAP1 POP DUP1 DUP3 GT ISZERO PUSH2 0x3074 JUMPI PUSH2 0x3073 PUSH2 0x301A JUMP JUMPDEST JUMPDEST SWAP3 SWAP2 POP POP JUMP JUMPDEST PUSH0 PUSH1 0x40 DUP3 ADD SWAP1 POP PUSH2 0x308D PUSH0 DUP4 ADD DUP6 PUSH2 0x1D65 JUMP JUMPDEST PUSH2 0x309A PUSH1 0x20 DUP4 ADD DUP5 PUSH2 0x22E3 JUMP JUMPDEST SWAP4 SWAP3 POP POP POP JUMP JUMPDEST PUSH32 0x456C656374696F6E20616C726561647920657869737473000000000000000000 PUSH0 DUP3 ADD MSTORE POP JUMP JUMPDEST PUSH0 PUSH2 0x30D5 PUSH1 0x17 DUP4 PUSH2 0x206C JUMP JUMPDEST SWAP2 POP PUSH2 0x30E0 DUP3 PUSH2 0x30A1 JUMP JUMPDEST PUSH1 0x20 DUP3 ADD SWAP1 POP SWAP2 SWAP1 POP JUMP JUMPDEST PUSH0 PUSH1 0x20 DUP3 ADD SWAP1 POP DUP2 DUP2 SUB PUSH0 DUP4 ADD MSTORE PUSH2 0x3102 DUP2 PUSH2 0x30C9 JUMP JUMPDEST SWAP1 POP SWAP2 SWAP1 POP JUMP JUMPDEST PUSH32 0x456E642074696D65206D7573742062652061667465722073746172742074696D PUSH0 DUP3 ADD MSTORE PUSH32 0x6500000000000000000000000000000000000000000000000000000000000000 PUSH1 0x20 DUP3 ADD MSTORE POP JUMP JUMPDEST PUSH0 PUSH2 0x3163 PUSH1 0x21 DUP4 PUSH2 0x206C JUMP JUMPDEST SWAP2 POP PUSH2 0x316E DUP3 PUSH2 0x3109 JUMP JUMPDEST PUSH1 0x40 DUP3 ADD SWAP1 POP SWAP2 SWAP1 POP JUMP JUMPDEST PUSH0 PUSH1 0x20 DUP3 ADD SWAP1 POP DUP2 DUP2 SUB PUSH0 DUP4 ADD MSTORE PUSH2 0x3190 DUP2 PUSH2 0x3157 JUMP JUMPDEST SWAP1 POP SWAP2 SWAP1 POP JUMP JUMPDEST PUSH32 0x53746172742074696D65206D75737420626520696E2074686520667574757265 PUSH0 DUP3 ADD MSTORE POP JUMP JUMPDEST PUSH0 PUSH2 0x31CB PUSH1 0x20 DUP4 PUSH2 0x206C JUMP JUMPDEST SWAP2 POP PUSH2 0x31D6 DUP3 PUSH2 0x3197 JUMP JUMPDEST PUSH1 0x20 DUP3 ADD SWAP1 POP SWAP2 SWAP1 POP JUMP JUMPDEST PUSH0 PUSH1 0x20 DUP3 ADD SWAP1 POP DUP2 DUP2 SUB PUSH0 DUP4 ADD MSTORE PUSH2 0x31F8 DUP2 PUSH2 0x31BF JUMP JUMPDEST SWAP1 POP SWAP2 SWAP1 POP JUMP JUMPDEST PUSH0 PUSH1 0x20 DUP3 ADD SWAP1 POP DUP2 DUP2 SUB PUSH0 DUP4 ADD MSTORE PUSH2 0x3218 DUP2 DUP5 DUP7 PUSH2 0x2D6A JUMP JUMPDEST SWAP1 POP SWAP4 SWAP3 POP POP POP JUMP INVALID LOG2 PUSH5 0x6970667358 0x22 SLT KECCAK256 0xDE 0x2F DUPN 0xE3 BYTE 0xBD EXTCODEHASH 0x26 MSTORE 0xDD 0xA7 PUSH4 0x16240E37 0xB6 TSTORE 0xED RETURN MUL 0x25 0x4E 0xFC LT CALLF 0x15BA 0x24 PUSH8 0x436E64736F6C6343 STOP ADDMOD 0x1E STOP CALLER "
				},
				"gasEstimates": {
					"creation": {
						"codeDepositCost": "2577400",
						"executionCost": "27048",
						"totalCost": "2604448"
					},
					"external": {
						"addCandidate(uint256,uint256,string)": "infinite",
						"candidateIds(uint256,uint256)": "infinite",
						"candidates(uint256,uint256)": "infinite",
						"createElection(string,uint256,uint256,uint256)": "infinite",
						"electionIds(uint256)": "infinite",
						"electionStatus(uint256)": "2940",
						"elections(uint256)": "infinite",
						"getAllElections()": "infinite",
						"getCandidates(uint256)": "infinite",
						"getElectionById(uint256)": "infinite",
						"getWinner(uint256)": "infinite",
						"hasVoted(uint256,address)": "3160",
						"manuallyEndElection(uint256)": "32681",
						"owner()": "2552",
						"startElection(uint256)": "34890",
						"vote(uint256,uint256)": "infinite"
					}
				},
				"methodIdentifiers": {
					"addCandidate(uint256,uint256,string)": "a958f1aa",
					"candidateIds(uint256,uint256)": "f497d15f",
					"candidates(uint256,uint256)": "7de14242",
					"createElection(string,uint256,uint256,uint256)": "e3cd91fa",
					"electionIds(uint256)": "02330a61",
					"electionStatus(uint256)": "941b00ac",
					"elections(uint256)": "5e6fef01",
					"getAllElections()": "7fd5f268",
					"getCandidates(uint256)": "3e39a7a5",
					"getElectionById(uint256)": "c6958b12",
					"getWinner(uint256)": "4129b2c9",
					"hasVoted(uint256,address)": "43859632",
					"manuallyEndElection(uint256)": "51ce4e24",
					"owner()": "8da5cb5b",
					"startElection(uint256)": "6d32dc4b",
					"vote(uint256,uint256)": "b384abef"
				}
			},
			"storageLayout": {
				"storage": [
					{
						"astId": 25,
						"contract": "Voting/Voting.sol:Voting",
						"label": "owner",
						"offset": 0,
						"slot": "0",
						"type": "t_address"
					},
					{
						"astId": 32,
						"contract": "Voting/Voting.sol:Voting",
						"label": "candidates",
						"offset": 0,
						"slot": "1",
						"type": "t_mapping(t_uint256,t_mapping(t_uint256,t_struct(VoteDetails)12_storage))"
					},
					{
						"astId": 37,
						"contract": "Voting/Voting.sol:Voting",
						"label": "candidateIds",
						"offset": 0,
						"slot": "2",
						"type": "t_mapping(t_uint256,t_array(t_uint256)dyn_storage)"
					},
					{
						"astId": 42,
						"contract": "Voting/Voting.sol:Voting",
						"label": "elections",
						"offset": 0,
						"slot": "3",
						"type": "t_mapping(t_uint256,t_struct(Election)23_storage)"
					},
					{
						"astId": 48,
						"contract": "Voting/Voting.sol:Voting",
						"label": "hasVoted",
						"offset": 0,
						"slot": "4",
						"type": "t_mapping(t_uint256,t_mapping(t_address,t_bool))"
					},
					{
						"astId": 53,
						"contract": "Voting/Voting.sol:Voting",
						"label": "electionStatus",
						"offset": 0,
						"slot": "5",
						"type": "t_mapping(t_uint256,t_enum(Status)5)"
					},
					{
						"astId": 56,
						"contract": "Voting/Voting.sol:Voting",
						"label": "electionIds",
						"offset": 0,
						"slot": "6",
						"type": "t_array(t_uint256)dyn_storage"
					}
				],
				"types": {
					"t_address": {
						"encoding": "inplace",
						"label": "address",
						"numberOfBytes": "20"
					},
					"t_array(t_uint256)dyn_storage": {
						"base": "t_uint256",
						"encoding": "dynamic_array",
						"label": "uint256[]",
						"numberOfBytes": "32"
					},
					"t_bool": {
						"encoding": "inplace",
						"label": "bool",
						"numberOfBytes": "1"
					},
					"t_enum(Status)5": {
						"encoding": "inplace",
						"label": "enum Voting.Status",
						"numberOfBytes": "1"
					},
					"t_mapping(t_address,t_bool)": {
						"encoding": "mapping",
						"key": "t_address",
						"label": "mapping(address => bool)",
						"numberOfBytes": "32",
						"value": "t_bool"
					},
					"t_mapping(t_uint256,t_array(t_uint256)dyn_storage)": {
						"encoding": "mapping",
						"key": "t_uint256",
						"label": "mapping(uint256 => uint256[])",
						"numberOfBytes": "32",
						"value": "t_array(t_uint256)dyn_storage"
					},
					"t_mapping(t_uint256,t_enum(Status)5)": {
						"encoding": "mapping",
						"key": "t_uint256",
						"label": "mapping(uint256 => enum Voting.Status)",
						"numberOfBytes": "32",
						"value": "t_enum(Status)5"
					},
					"t_mapping(t_uint256,t_mapping(t_address,t_bool))": {
						"encoding": "mapping",
						"key": "t_uint256",
						"label": "mapping(uint256 => mapping(address => bool))",
						"numberOfBytes": "32",
						"value": "t_mapping(t_address,t_bool)"
					},
					"t_mapping(t_uint256,t_mapping(t_uint256,t_struct(VoteDetails)12_storage))": {
						"encoding": "mapping",
						"key": "t_uint256",
						"label": "mapping(uint256 => mapping(uint256 => struct Voting.VoteDetails))",
						"numberOfBytes": "32",
						"value": "t_mapping(t_uint256,t_struct(VoteDetails)12_storage)"
					},
					"t_mapping(t_uint256,t_struct(Election)23_storage)": {
						"encoding": "mapping",
						"key": "t_uint256",
						"label": "mapping(uint256 => struct Voting.Election)",
						"numberOfBytes": "32",
						"value": "t_struct(Election)23_storage"
					},
					"t_mapping(t_uint256,t_struct(VoteDetails)12_storage)": {
						"encoding": "mapping",
						"key": "t_uint256",
						"label": "mapping(uint256 => struct Voting.VoteDetails)",
						"numberOfBytes": "32",
						"value": "t_struct(VoteDetails)12_storage"
					},
					"t_string_storage": {
						"encoding": "bytes",
						"label": "string",
						"numberOfBytes": "32"
					},
					"t_struct(Election)23_storage": {
						"encoding": "inplace",
						"label": "struct Voting.Election",
						"members": [
							{
								"astId": 14,
								"contract": "Voting/Voting.sol:Voting",
								"label": "name",
								"offset": 0,
								"slot": "0",
								"type": "t_string_storage"
							},
							{
								"astId": 16,
								"contract": "Voting/Voting.sol:Voting",
								"label": "id",
								"offset": 0,
								"slot": "1",
								"type": "t_uint256"
							},
							{
								"astId": 18,
								"contract": "Voting/Voting.sol:Voting",
								"label": "startTime",
								"offset": 0,
								"slot": "2",
								"type": "t_uint256"
							},
							{
								"astId": 20,
								"contract": "Voting/Voting.sol:Voting",
								"label": "endTime",
								"offset": 0,
								"slot": "3",
								"type": "t_uint256"
							},
							{
								"astId": 22,
								"contract": "Voting/Voting.sol:Voting",
								"label": "exists",
								"offset": 0,
								"slot": "4",
								"type": "t_bool"
							}
						],
						"numberOfBytes": "160"
					},
					"t_struct(VoteDetails)12_storage": {
						"encoding": "inplace",
						"label": "struct Voting.VoteDetails",
						"members": [
							{
								"astId": 7,
								"contract": "Voting/Voting.sol:Voting",
								"label": "candidateId",
								"offset": 0,
								"slot": "0",
								"type": "t_uint256"
							},
							{
								"astId": 9,
								"contract": "Voting/Voting.sol:Voting",
								"label": "name",
								"offset": 0,
								"slot": "1",
								"type": "t_string_storage"
							},
							{
								"astId": 11,
								"contract": "Voting/Voting.sol:Voting",
								"label": "voteCount",
								"offset": 0,
								"slot": "2",
								"type": "t_uint256"
							}
						],
						"numberOfBytes": "96"
					},
					"t_uint256": {
						"encoding": "inplace",
						"label": "uint256",
						"numberOfBytes": "32"
					}
				}
			},
			"userdoc": {
				"kind": "user",
				"methods": {},
				"version": 1
			}
		}
	}
}