{
	"Voting/Voting.sol": {
		"Voting": {
			"abi": [
				{
					"inputs": [],
					"stateMutability": "nonpayable",
					"type": "constructor"
				},
				{
					"inputs": [
						{
							"internalType": "uint256",
							"name": "_id",
							"type": "uint256"
						},
						{
							"internalType": "string",
							"name": "_name",
							"type": "string"
						}
					],
					"name": "AddCandidate",
					"outputs": [],
					"stateMutability": "nonpayable",
					"type": "function"
				},
				{
					"inputs": [
						{
							"internalType": "address",
							"name": "",
							"type": "address"
						}
					],
					"name": "candidates",
					"outputs": [
						{
							"internalType": "uint256",
							"name": "id",
							"type": "uint256"
						},
						{
							"internalType": "string",
							"name": "name",
							"type": "string"
						},
						{
							"internalType": "uint256",
							"name": "voteCount",
							"type": "uint256"
						}
					],
					"stateMutability": "view",
					"type": "function"
				},
				{
					"inputs": [],
					"name": "owner",
					"outputs": [
						{
							"internalType": "address",
							"name": "",
							"type": "address"
						}
					],
					"stateMutability": "view",
					"type": "function"
				}
			],
			"devdoc": {
				"kind": "dev",
				"methods": {},
				"version": 1
			},
			"evm": {
				"assembly": "    /* \"Voting/Voting.sol\":58:451  contract Voting {... */\n  mstore(0x40, 0x80)\n    /* \"Voting/Voting.sol\":263:312  constructor() {... */\n  callvalue\n  dup1\n  iszero\n  tag_1\n  jumpi\n  revert(0x00, 0x00)\ntag_1:\n  pop\n    /* \"Voting/Voting.sol\":295:305  msg.sender */\n  caller\n    /* \"Voting/Voting.sol\":287:292  owner */\n  0x00\n  0x00\n    /* \"Voting/Voting.sol\":287:305  owner = msg.sender */\n  0x0100\n  exp\n  dup2\n  sload\n  dup2\n  0xffffffffffffffffffffffffffffffffffffffff\n  mul\n  not\n  and\n  swap1\n  dup4\n  0xffffffffffffffffffffffffffffffffffffffff\n  and\n  mul\n  or\n  swap1\n  sstore\n  pop\n    /* \"Voting/Voting.sol\":58:451  contract Voting {... */\n  dataSize(sub_0)\n  dup1\n  dataOffset(sub_0)\n  0x00\n  codecopy\n  0x00\n  return\nstop\n\nsub_0: assembly {\n        /* \"Voting/Voting.sol\":58:451  contract Voting {... */\n      mstore(0x40, 0x80)\n      callvalue\n      dup1\n      iszero\n      tag_1\n      jumpi\n      revert(0x00, 0x00)\n    tag_1:\n      pop\n      jumpi(tag_2, lt(calldatasize, 0x04))\n      shr(0xe0, calldataload(0x00))\n      dup1\n      0x0a63c583\n      eq\n      tag_3\n      jumpi\n      dup1\n      0x8ab66a90\n      eq\n      tag_4\n      jumpi\n      dup1\n      0x8da5cb5b\n      eq\n      tag_5\n      jumpi\n    tag_2:\n      revert(0x00, 0x00)\n        /* \"Voting/Voting.sol\":318:449  function AddCandidate(uint256 _id, string memory _name) public {... */\n    tag_3:\n      tag_6\n      0x04\n      dup1\n      calldatasize\n      sub\n      dup2\n      add\n      swap1\n      tag_7\n      swap2\n      swap1\n      tag_8\n      jump\t// in\n    tag_7:\n      tag_9\n      jump\t// in\n    tag_6:\n      stop\n        /* \"Voting/Voting.sol\":207:256  mapping(address => VoteDetails) public candidates */\n    tag_4:\n      tag_10\n      0x04\n      dup1\n      calldatasize\n      sub\n      dup2\n      add\n      swap1\n      tag_11\n      swap2\n      swap1\n      tag_12\n      jump\t// in\n    tag_11:\n      tag_13\n      jump\t// in\n    tag_10:\n      mload(0x40)\n      tag_14\n      swap4\n      swap3\n      swap2\n      swap1\n      tag_15\n      jump\t// in\n    tag_14:\n      mload(0x40)\n      dup1\n      swap2\n      sub\n      swap1\n      return\n        /* \"Voting/Voting.sol\":180:200  address public owner */\n    tag_5:\n      tag_16\n      tag_17\n      jump\t// in\n    tag_16:\n      mload(0x40)\n      tag_18\n      swap2\n      swap1\n      tag_19\n      jump\t// in\n    tag_18:\n      mload(0x40)\n      dup1\n      swap2\n      sub\n      swap1\n      return\n        /* \"Voting/Voting.sol\":318:449  function AddCandidate(uint256 _id, string memory _name) public {... */\n    tag_9:\n        /* \"Voting/Voting.sol\":416:442  VoteDetails(_id, _name, 0) */\n      mload(0x40)\n      dup1\n      0x60\n      add\n      0x40\n      mstore\n      dup1\n        /* \"Voting/Voting.sol\":428:431  _id */\n      dup4\n        /* \"Voting/Voting.sol\":416:442  VoteDetails(_id, _name, 0) */\n      dup2\n      mstore\n      0x20\n      add\n        /* \"Voting/Voting.sol\":433:438  _name */\n      dup3\n        /* \"Voting/Voting.sol\":416:442  VoteDetails(_id, _name, 0) */\n      dup2\n      mstore\n      0x20\n      add\n        /* \"Voting/Voting.sol\":440:441  0 */\n      0x00\n        /* \"Voting/Voting.sol\":416:442  VoteDetails(_id, _name, 0) */\n      dup2\n      mstore\n      pop\n        /* \"Voting/Voting.sol\":391:401  candidates */\n      0x01\n        /* \"Voting/Voting.sol\":391:413  candidates[msg.sender] */\n      0x00\n        /* \"Voting/Voting.sol\":402:412  msg.sender */\n      caller\n        /* \"Voting/Voting.sol\":391:413  candidates[msg.sender] */\n      0xffffffffffffffffffffffffffffffffffffffff\n      and\n      0xffffffffffffffffffffffffffffffffffffffff\n      and\n      dup2\n      mstore\n      0x20\n      add\n      swap1\n      dup2\n      mstore\n      0x20\n      add\n      0x00\n      keccak256\n        /* \"Voting/Voting.sol\":391:442  candidates[msg.sender] = VoteDetails(_id, _name, 0) */\n      0x00\n      dup3\n      add\n      mload\n      dup2\n      0x00\n      add\n      sstore\n      0x20\n      dup3\n      add\n      mload\n      dup2\n      0x01\n      add\n      swap1\n      dup2\n      tag_21\n      swap2\n      swap1\n      tag_22\n      jump\t// in\n    tag_21:\n      pop\n      0x40\n      dup3\n      add\n      mload\n      dup2\n      0x02\n      add\n      sstore\n      swap1\n      pop\n      pop\n        /* \"Voting/Voting.sol\":318:449  function AddCandidate(uint256 _id, string memory _name) public {... */\n      pop\n      pop\n      jump\t// out\n        /* \"Voting/Voting.sol\":207:256  mapping(address => VoteDetails) public candidates */\n    tag_13:\n      mstore(0x20, 0x01)\n      dup1\n      0x00\n      mstore\n      keccak256(0x00, 0x40)\n      0x00\n      swap2\n      pop\n      swap1\n      pop\n      dup1\n      0x00\n      add\n      sload\n      swap1\n      dup1\n      0x01\n      add\n      dup1\n      sload\n      tag_23\n      swap1\n      tag_24\n      jump\t// in\n    tag_23:\n      dup1\n      0x1f\n      add\n      0x20\n      dup1\n      swap2\n      div\n      mul\n      0x20\n      add\n      mload(0x40)\n      swap1\n      dup2\n      add\n      0x40\n      mstore\n      dup1\n      swap3\n      swap2\n      swap1\n      dup2\n      dup2\n      mstore\n      0x20\n      add\n      dup3\n      dup1\n      sload\n      tag_25\n      swap1\n      tag_24\n      jump\t// in\n    tag_25:\n      dup1\n      iszero\n      tag_26\n      jumpi\n      dup1\n      0x1f\n      lt\n      tag_27\n      jumpi\n      0x0100\n      dup1\n      dup4\n      sload\n      div\n      mul\n      dup4\n      mstore\n      swap2\n      0x20\n      add\n      swap2\n      jump(tag_26)\n    tag_27:\n      dup3\n      add\n      swap2\n      swap1\n      0x00\n      mstore\n      keccak256(0x00, 0x20)\n      swap1\n    tag_28:\n      dup2\n      sload\n      dup2\n      mstore\n      swap1\n      0x01\n      add\n      swap1\n      0x20\n      add\n      dup1\n      dup4\n      gt\n      tag_28\n      jumpi\n      dup3\n      swap1\n      sub\n      0x1f\n      and\n      dup3\n      add\n      swap2\n    tag_26:\n      pop\n      pop\n      pop\n      pop\n      pop\n      swap1\n      dup1\n      0x02\n      add\n      sload\n      swap1\n      pop\n      dup4\n      jump\t// out\n        /* \"Voting/Voting.sol\":180:200  address public owner */\n    tag_17:\n      0x00\n      0x00\n      swap1\n      sload\n      swap1\n      0x0100\n      exp\n      swap1\n      div\n      0xffffffffffffffffffffffffffffffffffffffff\n      and\n      dup2\n      jump\t// out\n        /* \"#utility.yul\":7:82   */\n    tag_29:\n        /* \"#utility.yul\":40:46   */\n      0x00\n        /* \"#utility.yul\":73:75   */\n      0x40\n        /* \"#utility.yul\":67:76   */\n      mload\n        /* \"#utility.yul\":57:76   */\n      swap1\n      pop\n        /* \"#utility.yul\":7:82   */\n      swap1\n      jump\t// out\n        /* \"#utility.yul\":88:205   */\n    tag_30:\n        /* \"#utility.yul\":197:198   */\n      0x00\n        /* \"#utility.yul\":194:195   */\n      0x00\n        /* \"#utility.yul\":187:199   */\n      revert\n        /* \"#utility.yul\":211:328   */\n    tag_31:\n        /* \"#utility.yul\":320:321   */\n      0x00\n        /* \"#utility.yul\":317:318   */\n      0x00\n        /* \"#utility.yul\":310:322   */\n      revert\n        /* \"#utility.yul\":334:411   */\n    tag_32:\n        /* \"#utility.yul\":371:378   */\n      0x00\n        /* \"#utility.yul\":400:405   */\n      dup2\n        /* \"#utility.yul\":389:405   */\n      swap1\n      pop\n        /* \"#utility.yul\":334:411   */\n      swap2\n      swap1\n      pop\n      jump\t// out\n        /* \"#utility.yul\":417:539   */\n    tag_33:\n        /* \"#utility.yul\":490:514   */\n      tag_77\n        /* \"#utility.yul\":508:513   */\n      dup2\n        /* \"#utility.yul\":490:514   */\n      tag_32\n      jump\t// in\n    tag_77:\n        /* \"#utility.yul\":483:488   */\n      dup2\n        /* \"#utility.yul\":480:515   */\n      eq\n        /* \"#utility.yul\":470:533   */\n      tag_78\n      jumpi\n        /* \"#utility.yul\":529:530   */\n      0x00\n        /* \"#utility.yul\":526:527   */\n      0x00\n        /* \"#utility.yul\":519:531   */\n      revert\n        /* \"#utility.yul\":470:533   */\n    tag_78:\n        /* \"#utility.yul\":417:539   */\n      pop\n      jump\t// out\n        /* \"#utility.yul\":545:684   */\n    tag_34:\n        /* \"#utility.yul\":591:596   */\n      0x00\n        /* \"#utility.yul\":629:635   */\n      dup2\n        /* \"#utility.yul\":616:636   */\n      calldataload\n        /* \"#utility.yul\":607:636   */\n      swap1\n      pop\n        /* \"#utility.yul\":645:678   */\n      tag_80\n        /* \"#utility.yul\":672:677   */\n      dup2\n        /* \"#utility.yul\":645:678   */\n      tag_33\n      jump\t// in\n    tag_80:\n        /* \"#utility.yul\":545:684   */\n      swap3\n      swap2\n      pop\n      pop\n      jump\t// out\n        /* \"#utility.yul\":690:807   */\n    tag_35:\n        /* \"#utility.yul\":799:800   */\n      0x00\n        /* \"#utility.yul\":796:797   */\n      0x00\n        /* \"#utility.yul\":789:801   */\n      revert\n        /* \"#utility.yul\":813:930   */\n    tag_36:\n        /* \"#utility.yul\":922:923   */\n      0x00\n        /* \"#utility.yul\":919:920   */\n      0x00\n        /* \"#utility.yul\":912:924   */\n      revert\n        /* \"#utility.yul\":936:1038   */\n    tag_37:\n        /* \"#utility.yul\":977:983   */\n      0x00\n        /* \"#utility.yul\":1028:1030   */\n      0x1f\n        /* \"#utility.yul\":1024:1031   */\n      not\n        /* \"#utility.yul\":1019:1021   */\n      0x1f\n        /* \"#utility.yul\":1012:1017   */\n      dup4\n        /* \"#utility.yul\":1008:1022   */\n      add\n        /* \"#utility.yul\":1004:1032   */\n      and\n        /* \"#utility.yul\":994:1032   */\n      swap1\n      pop\n        /* \"#utility.yul\":936:1038   */\n      swap2\n      swap1\n      pop\n      jump\t// out\n        /* \"#utility.yul\":1044:1224   */\n    tag_38:\n        /* \"#utility.yul\":1092:1169   */\n      0x4e487b7100000000000000000000000000000000000000000000000000000000\n        /* \"#utility.yul\":1089:1090   */\n      0x00\n        /* \"#utility.yul\":1082:1170   */\n      mstore\n        /* \"#utility.yul\":1189:1193   */\n      0x41\n        /* \"#utility.yul\":1186:1187   */\n      0x04\n        /* \"#utility.yul\":1179:1194   */\n      mstore\n        /* \"#utility.yul\":1213:1217   */\n      0x24\n        /* \"#utility.yul\":1210:1211   */\n      0x00\n        /* \"#utility.yul\":1203:1218   */\n      revert\n        /* \"#utility.yul\":1230:1511   */\n    tag_39:\n        /* \"#utility.yul\":1313:1340   */\n      tag_86\n        /* \"#utility.yul\":1335:1339   */\n      dup3\n        /* \"#utility.yul\":1313:1340   */\n      tag_37\n      jump\t// in\n    tag_86:\n        /* \"#utility.yul\":1305:1311   */\n      dup2\n        /* \"#utility.yul\":1301:1341   */\n      add\n        /* \"#utility.yul\":1443:1449   */\n      dup2\n        /* \"#utility.yul\":1431:1441   */\n      dup2\n        /* \"#utility.yul\":1428:1450   */\n      lt\n        /* \"#utility.yul\":1407:1425   */\n      0xffffffffffffffff\n        /* \"#utility.yul\":1395:1405   */\n      dup3\n        /* \"#utility.yul\":1392:1426   */\n      gt\n        /* \"#utility.yul\":1389:1451   */\n      or\n        /* \"#utility.yul\":1386:1474   */\n      iszero\n      tag_87\n      jumpi\n        /* \"#utility.yul\":1454:1472   */\n      tag_88\n      tag_38\n      jump\t// in\n    tag_88:\n        /* \"#utility.yul\":1386:1474   */\n    tag_87:\n        /* \"#utility.yul\":1494:1504   */\n      dup1\n        /* \"#utility.yul\":1490:1492   */\n      0x40\n        /* \"#utility.yul\":1483:1505   */\n      mstore\n        /* \"#utility.yul\":1273:1511   */\n      pop\n        /* \"#utility.yul\":1230:1511   */\n      pop\n      pop\n      jump\t// out\n        /* \"#utility.yul\":1517:1646   */\n    tag_40:\n        /* \"#utility.yul\":1551:1557   */\n      0x00\n        /* \"#utility.yul\":1578:1598   */\n      tag_90\n      tag_29\n      jump\t// in\n    tag_90:\n        /* \"#utility.yul\":1568:1598   */\n      swap1\n      pop\n        /* \"#utility.yul\":1607:1640   */\n      tag_91\n        /* \"#utility.yul\":1635:1639   */\n      dup3\n        /* \"#utility.yul\":1627:1633   */\n      dup3\n        /* \"#utility.yul\":1607:1640   */\n      tag_39\n      jump\t// in\n    tag_91:\n        /* \"#utility.yul\":1517:1646   */\n      swap2\n      swap1\n      pop\n      jump\t// out\n        /* \"#utility.yul\":1652:1960   */\n    tag_41:\n        /* \"#utility.yul\":1714:1718   */\n      0x00\n        /* \"#utility.yul\":1804:1822   */\n      0xffffffffffffffff\n        /* \"#utility.yul\":1796:1802   */\n      dup3\n        /* \"#utility.yul\":1793:1823   */\n      gt\n        /* \"#utility.yul\":1790:1846   */\n      iszero\n      tag_93\n      jumpi\n        /* \"#utility.yul\":1826:1844   */\n      tag_94\n      tag_38\n      jump\t// in\n    tag_94:\n        /* \"#utility.yul\":1790:1846   */\n    tag_93:\n        /* \"#utility.yul\":1864:1893   */\n      tag_95\n        /* \"#utility.yul\":1886:1892   */\n      dup3\n        /* \"#utility.yul\":1864:1893   */\n      tag_37\n      jump\t// in\n    tag_95:\n        /* \"#utility.yul\":1856:1893   */\n      swap1\n      pop\n        /* \"#utility.yul\":1948:1952   */\n      0x20\n        /* \"#utility.yul\":1942:1946   */\n      dup2\n        /* \"#utility.yul\":1938:1953   */\n      add\n        /* \"#utility.yul\":1930:1953   */\n      swap1\n      pop\n        /* \"#utility.yul\":1652:1960   */\n      swap2\n      swap1\n      pop\n      jump\t// out\n        /* \"#utility.yul\":1966:2114   */\n    tag_42:\n        /* \"#utility.yul\":2064:2070   */\n      dup3\n        /* \"#utility.yul\":2059:2062   */\n      dup2\n        /* \"#utility.yul\":2054:2057   */\n      dup4\n        /* \"#utility.yul\":2041:2071   */\n      calldatacopy\n        /* \"#utility.yul\":2105:2106   */\n      0x00\n        /* \"#utility.yul\":2096:2102   */\n      dup4\n        /* \"#utility.yul\":2091:2094   */\n      dup4\n        /* \"#utility.yul\":2087:2103   */\n      add\n        /* \"#utility.yul\":2080:2107   */\n      mstore\n        /* \"#utility.yul\":1966:2114   */\n      pop\n      pop\n      pop\n      jump\t// out\n        /* \"#utility.yul\":2120:2545   */\n    tag_43:\n        /* \"#utility.yul\":2198:2203   */\n      0x00\n        /* \"#utility.yul\":2223:2289   */\n      tag_98\n        /* \"#utility.yul\":2239:2288   */\n      tag_99\n        /* \"#utility.yul\":2281:2287   */\n      dup5\n        /* \"#utility.yul\":2239:2288   */\n      tag_41\n      jump\t// in\n    tag_99:\n        /* \"#utility.yul\":2223:2289   */\n      tag_40\n      jump\t// in\n    tag_98:\n        /* \"#utility.yul\":2214:2289   */\n      swap1\n      pop\n        /* \"#utility.yul\":2312:2318   */\n      dup3\n        /* \"#utility.yul\":2305:2310   */\n      dup2\n        /* \"#utility.yul\":2298:2319   */\n      mstore\n        /* \"#utility.yul\":2350:2354   */\n      0x20\n        /* \"#utility.yul\":2343:2348   */\n      dup2\n        /* \"#utility.yul\":2339:2355   */\n      add\n        /* \"#utility.yul\":2388:2391   */\n      dup5\n        /* \"#utility.yul\":2379:2385   */\n      dup5\n        /* \"#utility.yul\":2374:2377   */\n      dup5\n        /* \"#utility.yul\":2370:2386   */\n      add\n        /* \"#utility.yul\":2367:2392   */\n      gt\n        /* \"#utility.yul\":2364:2476   */\n      iszero\n      tag_100\n      jumpi\n        /* \"#utility.yul\":2395:2474   */\n      tag_101\n      tag_36\n      jump\t// in\n    tag_101:\n        /* \"#utility.yul\":2364:2476   */\n    tag_100:\n        /* \"#utility.yul\":2485:2539   */\n      tag_102\n        /* \"#utility.yul\":2532:2538   */\n      dup5\n        /* \"#utility.yul\":2527:2530   */\n      dup3\n        /* \"#utility.yul\":2522:2525   */\n      dup6\n        /* \"#utility.yul\":2485:2539   */\n      tag_42\n      jump\t// in\n    tag_102:\n        /* \"#utility.yul\":2204:2545   */\n      pop\n        /* \"#utility.yul\":2120:2545   */\n      swap4\n      swap3\n      pop\n      pop\n      pop\n      jump\t// out\n        /* \"#utility.yul\":2565:2905   */\n    tag_44:\n        /* \"#utility.yul\":2621:2626   */\n      0x00\n        /* \"#utility.yul\":2670:2673   */\n      dup3\n        /* \"#utility.yul\":2663:2667   */\n      0x1f\n        /* \"#utility.yul\":2655:2661   */\n      dup4\n        /* \"#utility.yul\":2651:2668   */\n      add\n        /* \"#utility.yul\":2647:2674   */\n      slt\n        /* \"#utility.yul\":2637:2759   */\n      tag_104\n      jumpi\n        /* \"#utility.yul\":2678:2757   */\n      tag_105\n      tag_35\n      jump\t// in\n    tag_105:\n        /* \"#utility.yul\":2637:2759   */\n    tag_104:\n        /* \"#utility.yul\":2795:2801   */\n      dup2\n        /* \"#utility.yul\":2782:2802   */\n      calldataload\n        /* \"#utility.yul\":2820:2899   */\n      tag_106\n        /* \"#utility.yul\":2895:2898   */\n      dup5\n        /* \"#utility.yul\":2887:2893   */\n      dup3\n        /* \"#utility.yul\":2880:2884   */\n      0x20\n        /* \"#utility.yul\":2872:2878   */\n      dup7\n        /* \"#utility.yul\":2868:2885   */\n      add\n        /* \"#utility.yul\":2820:2899   */\n      tag_43\n      jump\t// in\n    tag_106:\n        /* \"#utility.yul\":2811:2899   */\n      swap2\n      pop\n        /* \"#utility.yul\":2627:2905   */\n      pop\n        /* \"#utility.yul\":2565:2905   */\n      swap3\n      swap2\n      pop\n      pop\n      jump\t// out\n        /* \"#utility.yul\":2911:3565   */\n    tag_8:\n        /* \"#utility.yul\":2989:2995   */\n      0x00\n        /* \"#utility.yul\":2997:3003   */\n      0x00\n        /* \"#utility.yul\":3046:3048   */\n      0x40\n        /* \"#utility.yul\":3034:3043   */\n      dup4\n        /* \"#utility.yul\":3025:3032   */\n      dup6\n        /* \"#utility.yul\":3021:3044   */\n      sub\n        /* \"#utility.yul\":3017:3049   */\n      slt\n        /* \"#utility.yul\":3014:3133   */\n      iszero\n      tag_108\n      jumpi\n        /* \"#utility.yul\":3052:3131   */\n      tag_109\n      tag_30\n      jump\t// in\n    tag_109:\n        /* \"#utility.yul\":3014:3133   */\n    tag_108:\n        /* \"#utility.yul\":3172:3173   */\n      0x00\n        /* \"#utility.yul\":3197:3250   */\n      tag_110\n        /* \"#utility.yul\":3242:3249   */\n      dup6\n        /* \"#utility.yul\":3233:3239   */\n      dup3\n        /* \"#utility.yul\":3222:3231   */\n      dup7\n        /* \"#utility.yul\":3218:3240   */\n      add\n        /* \"#utility.yul\":3197:3250   */\n      tag_34\n      jump\t// in\n    tag_110:\n        /* \"#utility.yul\":3187:3250   */\n      swap3\n      pop\n        /* \"#utility.yul\":3143:3260   */\n      pop\n        /* \"#utility.yul\":3327:3329   */\n      0x20\n        /* \"#utility.yul\":3316:3325   */\n      dup4\n        /* \"#utility.yul\":3312:3330   */\n      add\n        /* \"#utility.yul\":3299:3331   */\n      calldataload\n        /* \"#utility.yul\":3358:3376   */\n      0xffffffffffffffff\n        /* \"#utility.yul\":3350:3356   */\n      dup2\n        /* \"#utility.yul\":3347:3377   */\n      gt\n        /* \"#utility.yul\":3344:3461   */\n      iszero\n      tag_111\n      jumpi\n        /* \"#utility.yul\":3380:3459   */\n      tag_112\n      tag_31\n      jump\t// in\n    tag_112:\n        /* \"#utility.yul\":3344:3461   */\n    tag_111:\n        /* \"#utility.yul\":3485:3548   */\n      tag_113\n        /* \"#utility.yul\":3540:3547   */\n      dup6\n        /* \"#utility.yul\":3531:3537   */\n      dup3\n        /* \"#utility.yul\":3520:3529   */\n      dup7\n        /* \"#utility.yul\":3516:3538   */\n      add\n        /* \"#utility.yul\":3485:3548   */\n      tag_44\n      jump\t// in\n    tag_113:\n        /* \"#utility.yul\":3475:3548   */\n      swap2\n      pop\n        /* \"#utility.yul\":3270:3558   */\n      pop\n        /* \"#utility.yul\":2911:3565   */\n      swap3\n      pop\n      swap3\n      swap1\n      pop\n      jump\t// out\n        /* \"#utility.yul\":3571:3697   */\n    tag_45:\n        /* \"#utility.yul\":3608:3615   */\n      0x00\n        /* \"#utility.yul\":3648:3690   */\n      0xffffffffffffffffffffffffffffffffffffffff\n        /* \"#utility.yul\":3641:3646   */\n      dup3\n        /* \"#utility.yul\":3637:3691   */\n      and\n        /* \"#utility.yul\":3626:3691   */\n      swap1\n      pop\n        /* \"#utility.yul\":3571:3697   */\n      swap2\n      swap1\n      pop\n      jump\t// out\n        /* \"#utility.yul\":3703:3799   */\n    tag_46:\n        /* \"#utility.yul\":3740:3747   */\n      0x00\n        /* \"#utility.yul\":3769:3793   */\n      tag_116\n        /* \"#utility.yul\":3787:3792   */\n      dup3\n        /* \"#utility.yul\":3769:3793   */\n      tag_45\n      jump\t// in\n    tag_116:\n        /* \"#utility.yul\":3758:3793   */\n      swap1\n      pop\n        /* \"#utility.yul\":3703:3799   */\n      swap2\n      swap1\n      pop\n      jump\t// out\n        /* \"#utility.yul\":3805:3927   */\n    tag_47:\n        /* \"#utility.yul\":3878:3902   */\n      tag_118\n        /* \"#utility.yul\":3896:3901   */\n      dup2\n        /* \"#utility.yul\":3878:3902   */\n      tag_46\n      jump\t// in\n    tag_118:\n        /* \"#utility.yul\":3871:3876   */\n      dup2\n        /* \"#utility.yul\":3868:3903   */\n      eq\n        /* \"#utility.yul\":3858:3921   */\n      tag_119\n      jumpi\n        /* \"#utility.yul\":3917:3918   */\n      0x00\n        /* \"#utility.yul\":3914:3915   */\n      0x00\n        /* \"#utility.yul\":3907:3919   */\n      revert\n        /* \"#utility.yul\":3858:3921   */\n    tag_119:\n        /* \"#utility.yul\":3805:3927   */\n      pop\n      jump\t// out\n        /* \"#utility.yul\":3933:4072   */\n    tag_48:\n        /* \"#utility.yul\":3979:3984   */\n      0x00\n        /* \"#utility.yul\":4017:4023   */\n      dup2\n        /* \"#utility.yul\":4004:4024   */\n      calldataload\n        /* \"#utility.yul\":3995:4024   */\n      swap1\n      pop\n        /* \"#utility.yul\":4033:4066   */\n      tag_121\n        /* \"#utility.yul\":4060:4065   */\n      dup2\n        /* \"#utility.yul\":4033:4066   */\n      tag_47\n      jump\t// in\n    tag_121:\n        /* \"#utility.yul\":3933:4072   */\n      swap3\n      swap2\n      pop\n      pop\n      jump\t// out\n        /* \"#utility.yul\":4078:4407   */\n    tag_12:\n        /* \"#utility.yul\":4137:4143   */\n      0x00\n        /* \"#utility.yul\":4186:4188   */\n      0x20\n        /* \"#utility.yul\":4174:4183   */\n      dup3\n        /* \"#utility.yul\":4165:4172   */\n      dup5\n        /* \"#utility.yul\":4161:4184   */\n      sub\n        /* \"#utility.yul\":4157:4189   */\n      slt\n        /* \"#utility.yul\":4154:4273   */\n      iszero\n      tag_123\n      jumpi\n        /* \"#utility.yul\":4192:4271   */\n      tag_124\n      tag_30\n      jump\t// in\n    tag_124:\n        /* \"#utility.yul\":4154:4273   */\n    tag_123:\n        /* \"#utility.yul\":4312:4313   */\n      0x00\n        /* \"#utility.yul\":4337:4390   */\n      tag_125\n        /* \"#utility.yul\":4382:4389   */\n      dup5\n        /* \"#utility.yul\":4373:4379   */\n      dup3\n        /* \"#utility.yul\":4362:4371   */\n      dup6\n        /* \"#utility.yul\":4358:4380   */\n      add\n        /* \"#utility.yul\":4337:4390   */\n      tag_48\n      jump\t// in\n    tag_125:\n        /* \"#utility.yul\":4327:4390   */\n      swap2\n      pop\n        /* \"#utility.yul\":4283:4400   */\n      pop\n        /* \"#utility.yul\":4078:4407   */\n      swap3\n      swap2\n      pop\n      pop\n      jump\t// out\n        /* \"#utility.yul\":4413:4531   */\n    tag_49:\n        /* \"#utility.yul\":4500:4524   */\n      tag_127\n        /* \"#utility.yul\":4518:4523   */\n      dup2\n        /* \"#utility.yul\":4500:4524   */\n      tag_32\n      jump\t// in\n    tag_127:\n        /* \"#utility.yul\":4495:4498   */\n      dup3\n        /* \"#utility.yul\":4488:4525   */\n      mstore\n        /* \"#utility.yul\":4413:4531   */\n      pop\n      pop\n      jump\t// out\n        /* \"#utility.yul\":4537:4636   */\n    tag_50:\n        /* \"#utility.yul\":4589:4595   */\n      0x00\n        /* \"#utility.yul\":4623:4628   */\n      dup2\n        /* \"#utility.yul\":4617:4629   */\n      mload\n        /* \"#utility.yul\":4607:4629   */\n      swap1\n      pop\n        /* \"#utility.yul\":4537:4636   */\n      swap2\n      swap1\n      pop\n      jump\t// out\n        /* \"#utility.yul\":4642:4811   */\n    tag_51:\n        /* \"#utility.yul\":4726:4737   */\n      0x00\n        /* \"#utility.yul\":4760:4766   */\n      dup3\n        /* \"#utility.yul\":4755:4758   */\n      dup3\n        /* \"#utility.yul\":4748:4767   */\n      mstore\n        /* \"#utility.yul\":4800:4804   */\n      0x20\n        /* \"#utility.yul\":4795:4798   */\n      dup3\n        /* \"#utility.yul\":4791:4805   */\n      add\n        /* \"#utility.yul\":4776:4805   */\n      swap1\n      pop\n        /* \"#utility.yul\":4642:4811   */\n      swap3\n      swap2\n      pop\n      pop\n      jump\t// out\n        /* \"#utility.yul\":4817:4956   */\n    tag_52:\n        /* \"#utility.yul\":4906:4912   */\n      dup3\n        /* \"#utility.yul\":4901:4904   */\n      dup2\n        /* \"#utility.yul\":4896:4899   */\n      dup4\n        /* \"#utility.yul\":4890:4913   */\n      mcopy\n        /* \"#utility.yul\":4947:4948   */\n      0x00\n        /* \"#utility.yul\":4938:4944   */\n      dup4\n        /* \"#utility.yul\":4933:4936   */\n      dup4\n        /* \"#utility.yul\":4929:4945   */\n      add\n        /* \"#utility.yul\":4922:4949   */\n      mstore\n        /* \"#utility.yul\":4817:4956   */\n      pop\n      pop\n      pop\n      jump\t// out\n        /* \"#utility.yul\":4962:5339   */\n    tag_53:\n        /* \"#utility.yul\":5050:5053   */\n      0x00\n        /* \"#utility.yul\":5078:5117   */\n      tag_132\n        /* \"#utility.yul\":5111:5116   */\n      dup3\n        /* \"#utility.yul\":5078:5117   */\n      tag_50\n      jump\t// in\n    tag_132:\n        /* \"#utility.yul\":5133:5204   */\n      tag_133\n        /* \"#utility.yul\":5197:5203   */\n      dup2\n        /* \"#utility.yul\":5192:5195   */\n      dup6\n        /* \"#utility.yul\":5133:5204   */\n      tag_51\n      jump\t// in\n    tag_133:\n        /* \"#utility.yul\":5126:5204   */\n      swap4\n      pop\n        /* \"#utility.yul\":5213:5278   */\n      tag_134\n        /* \"#utility.yul\":5271:5277   */\n      dup2\n        /* \"#utility.yul\":5266:5269   */\n      dup6\n        /* \"#utility.yul\":5259:5263   */\n      0x20\n        /* \"#utility.yul\":5252:5257   */\n      dup7\n        /* \"#utility.yul\":5248:5264   */\n      add\n        /* \"#utility.yul\":5213:5278   */\n      tag_52\n      jump\t// in\n    tag_134:\n        /* \"#utility.yul\":5303:5332   */\n      tag_135\n        /* \"#utility.yul\":5325:5331   */\n      dup2\n        /* \"#utility.yul\":5303:5332   */\n      tag_37\n      jump\t// in\n    tag_135:\n        /* \"#utility.yul\":5298:5301   */\n      dup5\n        /* \"#utility.yul\":5294:5333   */\n      add\n        /* \"#utility.yul\":5287:5333   */\n      swap2\n      pop\n        /* \"#utility.yul\":5054:5339   */\n      pop\n        /* \"#utility.yul\":4962:5339   */\n      swap3\n      swap2\n      pop\n      pop\n      jump\t// out\n        /* \"#utility.yul\":5345:5878   */\n    tag_15:\n        /* \"#utility.yul\":5514:5518   */\n      0x00\n        /* \"#utility.yul\":5552:5554   */\n      0x60\n        /* \"#utility.yul\":5541:5550   */\n      dup3\n        /* \"#utility.yul\":5537:5555   */\n      add\n        /* \"#utility.yul\":5529:5555   */\n      swap1\n      pop\n        /* \"#utility.yul\":5565:5636   */\n      tag_137\n        /* \"#utility.yul\":5633:5634   */\n      0x00\n        /* \"#utility.yul\":5622:5631   */\n      dup4\n        /* \"#utility.yul\":5618:5635   */\n      add\n        /* \"#utility.yul\":5609:5615   */\n      dup7\n        /* \"#utility.yul\":5565:5636   */\n      tag_49\n      jump\t// in\n    tag_137:\n        /* \"#utility.yul\":5683:5692   */\n      dup2\n        /* \"#utility.yul\":5677:5681   */\n      dup2\n        /* \"#utility.yul\":5673:5693   */\n      sub\n        /* \"#utility.yul\":5668:5670   */\n      0x20\n        /* \"#utility.yul\":5657:5666   */\n      dup4\n        /* \"#utility.yul\":5653:5671   */\n      add\n        /* \"#utility.yul\":5646:5694   */\n      mstore\n        /* \"#utility.yul\":5711:5789   */\n      tag_138\n        /* \"#utility.yul\":5784:5788   */\n      dup2\n        /* \"#utility.yul\":5775:5781   */\n      dup6\n        /* \"#utility.yul\":5711:5789   */\n      tag_53\n      jump\t// in\n    tag_138:\n        /* \"#utility.yul\":5703:5789   */\n      swap1\n      pop\n        /* \"#utility.yul\":5799:5871   */\n      tag_139\n        /* \"#utility.yul\":5867:5869   */\n      0x40\n        /* \"#utility.yul\":5856:5865   */\n      dup4\n        /* \"#utility.yul\":5852:5870   */\n      add\n        /* \"#utility.yul\":5843:5849   */\n      dup5\n        /* \"#utility.yul\":5799:5871   */\n      tag_49\n      jump\t// in\n    tag_139:\n        /* \"#utility.yul\":5345:5878   */\n      swap5\n      swap4\n      pop\n      pop\n      pop\n      pop\n      jump\t// out\n        /* \"#utility.yul\":5884:6002   */\n    tag_54:\n        /* \"#utility.yul\":5971:5995   */\n      tag_141\n        /* \"#utility.yul\":5989:5994   */\n      dup2\n        /* \"#utility.yul\":5971:5995   */\n      tag_46\n      jump\t// in\n    tag_141:\n        /* \"#utility.yul\":5966:5969   */\n      dup3\n        /* \"#utility.yul\":5959:5996   */\n      mstore\n        /* \"#utility.yul\":5884:6002   */\n      pop\n      pop\n      jump\t// out\n        /* \"#utility.yul\":6008:6230   */\n    tag_19:\n        /* \"#utility.yul\":6101:6105   */\n      0x00\n        /* \"#utility.yul\":6139:6141   */\n      0x20\n        /* \"#utility.yul\":6128:6137   */\n      dup3\n        /* \"#utility.yul\":6124:6142   */\n      add\n        /* \"#utility.yul\":6116:6142   */\n      swap1\n      pop\n        /* \"#utility.yul\":6152:6223   */\n      tag_143\n        /* \"#utility.yul\":6220:6221   */\n      0x00\n        /* \"#utility.yul\":6209:6218   */\n      dup4\n        /* \"#utility.yul\":6205:6222   */\n      add\n        /* \"#utility.yul\":6196:6202   */\n      dup5\n        /* \"#utility.yul\":6152:6223   */\n      tag_54\n      jump\t// in\n    tag_143:\n        /* \"#utility.yul\":6008:6230   */\n      swap3\n      swap2\n      pop\n      pop\n      jump\t// out\n        /* \"#utility.yul\":6236:6416   */\n    tag_55:\n        /* \"#utility.yul\":6284:6361   */\n      0x4e487b7100000000000000000000000000000000000000000000000000000000\n        /* \"#utility.yul\":6281:6282   */\n      0x00\n        /* \"#utility.yul\":6274:6362   */\n      mstore\n        /* \"#utility.yul\":6381:6385   */\n      0x22\n        /* \"#utility.yul\":6378:6379   */\n      0x04\n        /* \"#utility.yul\":6371:6386   */\n      mstore\n        /* \"#utility.yul\":6405:6409   */\n      0x24\n        /* \"#utility.yul\":6402:6403   */\n      0x00\n        /* \"#utility.yul\":6395:6410   */\n      revert\n        /* \"#utility.yul\":6422:6742   */\n    tag_24:\n        /* \"#utility.yul\":6466:6472   */\n      0x00\n        /* \"#utility.yul\":6503:6504   */\n      0x02\n        /* \"#utility.yul\":6497:6501   */\n      dup3\n        /* \"#utility.yul\":6493:6505   */\n      div\n        /* \"#utility.yul\":6483:6505   */\n      swap1\n      pop\n        /* \"#utility.yul\":6550:6551   */\n      0x01\n        /* \"#utility.yul\":6544:6548   */\n      dup3\n        /* \"#utility.yul\":6540:6552   */\n      and\n        /* \"#utility.yul\":6571:6589   */\n      dup1\n        /* \"#utility.yul\":6561:6642   */\n      tag_146\n      jumpi\n        /* \"#utility.yul\":6627:6631   */\n      0x7f\n        /* \"#utility.yul\":6619:6625   */\n      dup3\n        /* \"#utility.yul\":6615:6632   */\n      and\n        /* \"#utility.yul\":6605:6632   */\n      swap2\n      pop\n        /* \"#utility.yul\":6561:6642   */\n    tag_146:\n        /* \"#utility.yul\":6689:6691   */\n      0x20\n        /* \"#utility.yul\":6681:6687   */\n      dup3\n        /* \"#utility.yul\":6678:6692   */\n      lt\n        /* \"#utility.yul\":6658:6676   */\n      dup2\n        /* \"#utility.yul\":6655:6693   */\n      sub\n        /* \"#utility.yul\":6652:6736   */\n      tag_147\n      jumpi\n        /* \"#utility.yul\":6708:6726   */\n      tag_148\n      tag_55\n      jump\t// in\n    tag_148:\n        /* \"#utility.yul\":6652:6736   */\n    tag_147:\n        /* \"#utility.yul\":6473:6742   */\n      pop\n        /* \"#utility.yul\":6422:6742   */\n      swap2\n      swap1\n      pop\n      jump\t// out\n        /* \"#utility.yul\":6748:6889   */\n    tag_56:\n        /* \"#utility.yul\":6797:6801   */\n      0x00\n        /* \"#utility.yul\":6820:6823   */\n      dup2\n        /* \"#utility.yul\":6812:6823   */\n      swap1\n      pop\n        /* \"#utility.yul\":6843:6846   */\n      dup2\n        /* \"#utility.yul\":6840:6841   */\n      0x00\n        /* \"#utility.yul\":6833:6847   */\n      mstore\n        /* \"#utility.yul\":6877:6881   */\n      0x20\n        /* \"#utility.yul\":6874:6875   */\n      0x00\n        /* \"#utility.yul\":6864:6882   */\n      keccak256\n        /* \"#utility.yul\":6856:6882   */\n      swap1\n      pop\n        /* \"#utility.yul\":6748:6889   */\n      swap2\n      swap1\n      pop\n      jump\t// out\n        /* \"#utility.yul\":6895:6988   */\n    tag_57:\n        /* \"#utility.yul\":6932:6938   */\n      0x00\n        /* \"#utility.yul\":6979:6981   */\n      0x20\n        /* \"#utility.yul\":6974:6976   */\n      0x1f\n        /* \"#utility.yul\":6967:6972   */\n      dup4\n        /* \"#utility.yul\":6963:6977   */\n      add\n        /* \"#utility.yul\":6959:6982   */\n      div\n        /* \"#utility.yul\":6949:6982   */\n      swap1\n      pop\n        /* \"#utility.yul\":6895:6988   */\n      swap2\n      swap1\n      pop\n      jump\t// out\n        /* \"#utility.yul\":6994:7101   */\n    tag_58:\n        /* \"#utility.yul\":7038:7046   */\n      0x00\n        /* \"#utility.yul\":7088:7093   */\n      dup3\n        /* \"#utility.yul\":7082:7086   */\n      dup3\n        /* \"#utility.yul\":7078:7094   */\n      shl\n        /* \"#utility.yul\":7057:7094   */\n      swap1\n      pop\n        /* \"#utility.yul\":6994:7101   */\n      swap3\n      swap2\n      pop\n      pop\n      jump\t// out\n        /* \"#utility.yul\":7107:7500   */\n    tag_59:\n        /* \"#utility.yul\":7176:7182   */\n      0x00\n        /* \"#utility.yul\":7226:7227   */\n      0x08\n        /* \"#utility.yul\":7214:7224   */\n      dup4\n        /* \"#utility.yul\":7210:7228   */\n      mul\n        /* \"#utility.yul\":7249:7346   */\n      tag_153\n        /* \"#utility.yul\":7279:7345   */\n      0xffffffffffffffffffffffffffffffffffffffffffffffffffffffffffffffff\n        /* \"#utility.yul\":7268:7277   */\n      dup3\n        /* \"#utility.yul\":7249:7346   */\n      tag_58\n      jump\t// in\n    tag_153:\n        /* \"#utility.yul\":7367:7406   */\n      tag_154\n        /* \"#utility.yul\":7397:7405   */\n      dup7\n        /* \"#utility.yul\":7386:7395   */\n      dup4\n        /* \"#utility.yul\":7367:7406   */\n      tag_58\n      jump\t// in\n    tag_154:\n        /* \"#utility.yul\":7355:7406   */\n      swap6\n      pop\n        /* \"#utility.yul\":7439:7443   */\n      dup1\n        /* \"#utility.yul\":7435:7444   */\n      not\n        /* \"#utility.yul\":7428:7433   */\n      dup5\n        /* \"#utility.yul\":7424:7445   */\n      and\n        /* \"#utility.yul\":7415:7445   */\n      swap4\n      pop\n        /* \"#utility.yul\":7488:7492   */\n      dup1\n        /* \"#utility.yul\":7478:7486   */\n      dup7\n        /* \"#utility.yul\":7474:7493   */\n      and\n        /* \"#utility.yul\":7467:7472   */\n      dup5\n        /* \"#utility.yul\":7464:7494   */\n      or\n        /* \"#utility.yul\":7454:7494   */\n      swap3\n      pop\n        /* \"#utility.yul\":7183:7500   */\n      pop\n      pop\n        /* \"#utility.yul\":7107:7500   */\n      swap4\n      swap3\n      pop\n      pop\n      pop\n      jump\t// out\n        /* \"#utility.yul\":7506:7566   */\n    tag_60:\n        /* \"#utility.yul\":7534:7537   */\n      0x00\n        /* \"#utility.yul\":7555:7560   */\n      dup2\n        /* \"#utility.yul\":7548:7560   */\n      swap1\n      pop\n        /* \"#utility.yul\":7506:7566   */\n      swap2\n      swap1\n      pop\n      jump\t// out\n        /* \"#utility.yul\":7572:7714   */\n    tag_61:\n        /* \"#utility.yul\":7622:7631   */\n      0x00\n        /* \"#utility.yul\":7655:7708   */\n      tag_157\n        /* \"#utility.yul\":7673:7707   */\n      tag_158\n        /* \"#utility.yul\":7682:7706   */\n      tag_159\n        /* \"#utility.yul\":7700:7705   */\n      dup5\n        /* \"#utility.yul\":7682:7706   */\n      tag_32\n      jump\t// in\n    tag_159:\n        /* \"#utility.yul\":7673:7707   */\n      tag_60\n      jump\t// in\n    tag_158:\n        /* \"#utility.yul\":7655:7708   */\n      tag_32\n      jump\t// in\n    tag_157:\n        /* \"#utility.yul\":7642:7708   */\n      swap1\n      pop\n        /* \"#utility.yul\":7572:7714   */\n      swap2\n      swap1\n      pop\n      jump\t// out\n        /* \"#utility.yul\":7720:7795   */\n    tag_62:\n        /* \"#utility.yul\":7763:7766   */\n      0x00\n        /* \"#utility.yul\":7784:7789   */\n      dup2\n        /* \"#utility.yul\":7777:7789   */\n      swap1\n      pop\n        /* \"#utility.yul\":7720:7795   */\n      swap2\n      swap1\n      pop\n      jump\t// out\n        /* \"#utility.yul\":7801:8070   */\n    tag_63:\n        /* \"#utility.yul\":7911:7950   */\n      tag_162\n        /* \"#utility.yul\":7942:7949   */\n      dup4\n        /* \"#utility.yul\":7911:7950   */\n      tag_61\n      jump\t// in\n    tag_162:\n        /* \"#utility.yul\":7972:8063   */\n      tag_163\n        /* \"#utility.yul\":8021:8062   */\n      tag_164\n        /* \"#utility.yul\":8045:8061   */\n      dup3\n        /* \"#utility.yul\":8021:8062   */\n      tag_62\n      jump\t// in\n    tag_164:\n        /* \"#utility.yul\":8013:8019   */\n      dup5\n        /* \"#utility.yul\":8006:8010   */\n      dup5\n        /* \"#utility.yul\":8000:8011   */\n      sload\n        /* \"#utility.yul\":7972:8063   */\n      tag_59\n      jump\t// in\n    tag_163:\n        /* \"#utility.yul\":7966:7970   */\n      dup3\n        /* \"#utility.yul\":7959:8064   */\n      sstore\n        /* \"#utility.yul\":7877:8070   */\n      pop\n        /* \"#utility.yul\":7801:8070   */\n      pop\n      pop\n      pop\n      jump\t// out\n        /* \"#utility.yul\":8076:8149   */\n    tag_64:\n        /* \"#utility.yul\":8121:8124   */\n      0x00\n        /* \"#utility.yul\":8142:8143   */\n      0x00\n        /* \"#utility.yul\":8135:8143   */\n      swap1\n      pop\n        /* \"#utility.yul\":8076:8149   */\n      swap1\n      jump\t// out\n        /* \"#utility.yul\":8155:8344   */\n    tag_65:\n        /* \"#utility.yul\":8232:8264   */\n      tag_167\n      tag_64\n      jump\t// in\n    tag_167:\n        /* \"#utility.yul\":8273:8338   */\n      tag_168\n        /* \"#utility.yul\":8331:8337   */\n      dup2\n        /* \"#utility.yul\":8323:8329   */\n      dup5\n        /* \"#utility.yul\":8317:8321   */\n      dup5\n        /* \"#utility.yul\":8273:8338   */\n      tag_63\n      jump\t// in\n    tag_168:\n        /* \"#utility.yul\":8208:8344   */\n      pop\n        /* \"#utility.yul\":8155:8344   */\n      pop\n      pop\n      jump\t// out\n        /* \"#utility.yul\":8350:8536   */\n    tag_66:\n        /* \"#utility.yul\":8410:8530   */\n    tag_170:\n        /* \"#utility.yul\":8427:8430   */\n      dup2\n        /* \"#utility.yul\":8420:8425   */\n      dup2\n        /* \"#utility.yul\":8417:8431   */\n      lt\n        /* \"#utility.yul\":8410:8530   */\n      iszero\n      tag_172\n      jumpi\n        /* \"#utility.yul\":8481:8520   */\n      tag_173\n        /* \"#utility.yul\":8518:8519   */\n      0x00\n        /* \"#utility.yul\":8511:8516   */\n      dup3\n        /* \"#utility.yul\":8481:8520   */\n      tag_65\n      jump\t// in\n    tag_173:\n        /* \"#utility.yul\":8454:8455   */\n      0x01\n        /* \"#utility.yul\":8447:8452   */\n      dup2\n        /* \"#utility.yul\":8443:8456   */\n      add\n        /* \"#utility.yul\":8434:8456   */\n      swap1\n      pop\n        /* \"#utility.yul\":8410:8530   */\n      jump(tag_170)\n    tag_172:\n        /* \"#utility.yul\":8350:8536   */\n      pop\n      pop\n      jump\t// out\n        /* \"#utility.yul\":8542:9085   */\n    tag_67:\n        /* \"#utility.yul\":8643:8645   */\n      0x1f\n        /* \"#utility.yul\":8638:8641   */\n      dup3\n        /* \"#utility.yul\":8635:8646   */\n      gt\n        /* \"#utility.yul\":8632:9078   */\n      iszero\n      tag_175\n      jumpi\n        /* \"#utility.yul\":8677:8715   */\n      tag_176\n        /* \"#utility.yul\":8709:8714   */\n      dup2\n        /* \"#utility.yul\":8677:8715   */\n      tag_56\n      jump\t// in\n    tag_176:\n        /* \"#utility.yul\":8761:8790   */\n      tag_177\n        /* \"#utility.yul\":8779:8789   */\n      dup5\n        /* \"#utility.yul\":8761:8790   */\n      tag_57\n      jump\t// in\n    tag_177:\n        /* \"#utility.yul\":8751:8759   */\n      dup2\n        /* \"#utility.yul\":8747:8791   */\n      add\n        /* \"#utility.yul\":8944:8946   */\n      0x20\n        /* \"#utility.yul\":8932:8942   */\n      dup6\n        /* \"#utility.yul\":8929:8947   */\n      lt\n        /* \"#utility.yul\":8926:8975   */\n      iszero\n      tag_178\n      jumpi\n        /* \"#utility.yul\":8965:8973   */\n      dup2\n        /* \"#utility.yul\":8950:8973   */\n      swap1\n      pop\n        /* \"#utility.yul\":8926:8975   */\n    tag_178:\n        /* \"#utility.yul\":8988:9068   */\n      tag_179\n        /* \"#utility.yul\":9044:9066   */\n      tag_180\n        /* \"#utility.yul\":9062:9065   */\n      dup6\n        /* \"#utility.yul\":9044:9066   */\n      tag_57\n      jump\t// in\n    tag_180:\n        /* \"#utility.yul\":9034:9042   */\n      dup4\n        /* \"#utility.yul\":9030:9067   */\n      add\n        /* \"#utility.yul\":9017:9028   */\n      dup3\n        /* \"#utility.yul\":8988:9068   */\n      tag_66\n      jump\t// in\n    tag_179:\n        /* \"#utility.yul\":8647:9078   */\n      pop\n      pop\n        /* \"#utility.yul\":8632:9078   */\n    tag_175:\n        /* \"#utility.yul\":8542:9085   */\n      pop\n      pop\n      pop\n      jump\t// out\n        /* \"#utility.yul\":9091:9208   */\n    tag_68:\n        /* \"#utility.yul\":9145:9153   */\n      0x00\n        /* \"#utility.yul\":9195:9200   */\n      dup3\n        /* \"#utility.yul\":9189:9193   */\n      dup3\n        /* \"#utility.yul\":9185:9201   */\n      shr\n        /* \"#utility.yul\":9164:9201   */\n      swap1\n      pop\n        /* \"#utility.yul\":9091:9208   */\n      swap3\n      swap2\n      pop\n      pop\n      jump\t// out\n        /* \"#utility.yul\":9214:9383   */\n    tag_69:\n        /* \"#utility.yul\":9258:9264   */\n      0x00\n        /* \"#utility.yul\":9291:9342   */\n      tag_183\n        /* \"#utility.yul\":9339:9340   */\n      0x00\n        /* \"#utility.yul\":9335:9341   */\n      not\n        /* \"#utility.yul\":9327:9332   */\n      dup5\n        /* \"#utility.yul\":9324:9325   */\n      0x08\n        /* \"#utility.yul\":9320:9333   */\n      mul\n        /* \"#utility.yul\":9291:9342   */\n      tag_68\n      jump\t// in\n    tag_183:\n        /* \"#utility.yul\":9287:9343   */\n      not\n        /* \"#utility.yul\":9372:9376   */\n      dup1\n        /* \"#utility.yul\":9366:9370   */\n      dup4\n        /* \"#utility.yul\":9362:9377   */\n      and\n        /* \"#utility.yul\":9352:9377   */\n      swap2\n      pop\n        /* \"#utility.yul\":9265:9383   */\n      pop\n        /* \"#utility.yul\":9214:9383   */\n      swap3\n      swap2\n      pop\n      pop\n      jump\t// out\n        /* \"#utility.yul\":9388:9683   */\n    tag_70:\n        /* \"#utility.yul\":9464:9468   */\n      0x00\n        /* \"#utility.yul\":9610:9639   */\n      tag_185\n        /* \"#utility.yul\":9635:9638   */\n      dup4\n        /* \"#utility.yul\":9629:9633   */\n      dup4\n        /* \"#utility.yul\":9610:9639   */\n      tag_69\n      jump\t// in\n    tag_185:\n        /* \"#utility.yul\":9602:9639   */\n      swap2\n      pop\n        /* \"#utility.yul\":9672:9675   */\n      dup3\n        /* \"#utility.yul\":9669:9670   */\n      0x02\n        /* \"#utility.yul\":9665:9676   */\n      mul\n        /* \"#utility.yul\":9659:9663   */\n      dup3\n        /* \"#utility.yul\":9656:9677   */\n      or\n        /* \"#utility.yul\":9648:9677   */\n      swap1\n      pop\n        /* \"#utility.yul\":9388:9683   */\n      swap3\n      swap2\n      pop\n      pop\n      jump\t// out\n        /* \"#utility.yul\":9688:11083   */\n    tag_22:\n        /* \"#utility.yul\":9805:9842   */\n      tag_187\n        /* \"#utility.yul\":9838:9841   */\n      dup3\n        /* \"#utility.yul\":9805:9842   */\n      tag_50\n      jump\t// in\n    tag_187:\n        /* \"#utility.yul\":9907:9925   */\n      0xffffffffffffffff\n        /* \"#utility.yul\":9899:9905   */\n      dup2\n        /* \"#utility.yul\":9896:9926   */\n      gt\n        /* \"#utility.yul\":9893:9949   */\n      iszero\n      tag_188\n      jumpi\n        /* \"#utility.yul\":9929:9947   */\n      tag_189\n      tag_38\n      jump\t// in\n    tag_189:\n        /* \"#utility.yul\":9893:9949   */\n    tag_188:\n        /* \"#utility.yul\":9973:10011   */\n      tag_190\n        /* \"#utility.yul\":10005:10009   */\n      dup3\n        /* \"#utility.yul\":9999:10010   */\n      sload\n        /* \"#utility.yul\":9973:10011   */\n      tag_24\n      jump\t// in\n    tag_190:\n        /* \"#utility.yul\":10058:10125   */\n      tag_191\n        /* \"#utility.yul\":10118:10124   */\n      dup3\n        /* \"#utility.yul\":10110:10116   */\n      dup3\n        /* \"#utility.yul\":10104:10108   */\n      dup6\n        /* \"#utility.yul\":10058:10125   */\n      tag_67\n      jump\t// in\n    tag_191:\n        /* \"#utility.yul\":10152:10153   */\n      0x00\n        /* \"#utility.yul\":10176:10180   */\n      0x20\n        /* \"#utility.yul\":10163:10180   */\n      swap1\n      pop\n        /* \"#utility.yul\":10208:10210   */\n      0x1f\n        /* \"#utility.yul\":10200:10206   */\n      dup4\n        /* \"#utility.yul\":10197:10211   */\n      gt\n        /* \"#utility.yul\":10225:10226   */\n      0x01\n        /* \"#utility.yul\":10220:10838   */\n      dup2\n      eq\n      tag_193\n      jumpi\n        /* \"#utility.yul\":10882:10883   */\n      0x00\n        /* \"#utility.yul\":10899:10905   */\n      dup5\n        /* \"#utility.yul\":10896:10973   */\n      iszero\n      tag_194\n      jumpi\n        /* \"#utility.yul\":10948:10957   */\n      dup3\n        /* \"#utility.yul\":10943:10946   */\n      dup8\n        /* \"#utility.yul\":10939:10958   */\n      add\n        /* \"#utility.yul\":10933:10959   */\n      mload\n        /* \"#utility.yul\":10924:10959   */\n      swap1\n      pop\n        /* \"#utility.yul\":10896:10973   */\n    tag_194:\n        /* \"#utility.yul\":10999:11066   */\n      tag_195\n        /* \"#utility.yul\":11059:11065   */\n      dup6\n        /* \"#utility.yul\":11052:11057   */\n      dup3\n        /* \"#utility.yul\":10999:11066   */\n      tag_70\n      jump\t// in\n    tag_195:\n        /* \"#utility.yul\":10993:10997   */\n      dup7\n        /* \"#utility.yul\":10986:11067   */\n      sstore\n        /* \"#utility.yul\":10855:11077   */\n      pop\n        /* \"#utility.yul\":10190:11077   */\n      jump(tag_192)\n        /* \"#utility.yul\":10220:10838   */\n    tag_193:\n        /* \"#utility.yul\":10272:10276   */\n      0x1f\n        /* \"#utility.yul\":10268:10277   */\n      not\n        /* \"#utility.yul\":10260:10266   */\n      dup5\n        /* \"#utility.yul\":10256:10278   */\n      and\n        /* \"#utility.yul\":10306:10343   */\n      tag_196\n        /* \"#utility.yul\":10338:10342   */\n      dup7\n        /* \"#utility.yul\":10306:10343   */\n      tag_56\n      jump\t// in\n    tag_196:\n        /* \"#utility.yul\":10365:10366   */\n      0x00\n        /* \"#utility.yul\":10379:10587   */\n    tag_197:\n        /* \"#utility.yul\":10393:10400   */\n      dup3\n        /* \"#utility.yul\":10390:10391   */\n      dup2\n        /* \"#utility.yul\":10387:10401   */\n      lt\n        /* \"#utility.yul\":10379:10587   */\n      iszero\n      tag_199\n      jumpi\n        /* \"#utility.yul\":10472:10481   */\n      dup5\n        /* \"#utility.yul\":10467:10470   */\n      dup10\n        /* \"#utility.yul\":10463:10482   */\n      add\n        /* \"#utility.yul\":10457:10483   */\n      mload\n        /* \"#utility.yul\":10449:10455   */\n      dup3\n        /* \"#utility.yul\":10442:10484   */\n      sstore\n        /* \"#utility.yul\":10523:10524   */\n      0x01\n        /* \"#utility.yul\":10515:10521   */\n      dup3\n        /* \"#utility.yul\":10511:10525   */\n      add\n        /* \"#utility.yul\":10501:10525   */\n      swap2\n      pop\n        /* \"#utility.yul\":10570:10572   */\n      0x20\n        /* \"#utility.yul\":10559:10568   */\n      dup6\n        /* \"#utility.yul\":10555:10573   */\n      add\n        /* \"#utility.yul\":10542:10573   */\n      swap5\n      pop\n        /* \"#utility.yul\":10416:10420   */\n      0x20\n        /* \"#utility.yul\":10413:10414   */\n      dup2\n        /* \"#utility.yul\":10409:10421   */\n      add\n        /* \"#utility.yul\":10404:10421   */\n      swap1\n      pop\n        /* \"#utility.yul\":10379:10587   */\n      jump(tag_197)\n    tag_199:\n        /* \"#utility.yul\":10615:10621   */\n      dup7\n        /* \"#utility.yul\":10606:10613   */\n      dup4\n        /* \"#utility.yul\":10603:10622   */\n      lt\n        /* \"#utility.yul\":10600:10779   */\n      iszero\n      tag_200\n      jumpi\n        /* \"#utility.yul\":10673:10682   */\n      dup5\n        /* \"#utility.yul\":10668:10671   */\n      dup10\n        /* \"#utility.yul\":10664:10683   */\n      add\n        /* \"#utility.yul\":10658:10684   */\n      mload\n        /* \"#utility.yul\":10716:10764   */\n      tag_201\n        /* \"#utility.yul\":10758:10762   */\n      0x1f\n        /* \"#utility.yul\":10750:10756   */\n      dup10\n        /* \"#utility.yul\":10746:10763   */\n      and\n        /* \"#utility.yul\":10735:10744   */\n      dup3\n        /* \"#utility.yul\":10716:10764   */\n      tag_69\n      jump\t// in\n    tag_201:\n        /* \"#utility.yul\":10708:10714   */\n      dup4\n        /* \"#utility.yul\":10701:10765   */\n      sstore\n        /* \"#utility.yul\":10623:10779   */\n      pop\n        /* \"#utility.yul\":10600:10779   */\n    tag_200:\n        /* \"#utility.yul\":10825:10826   */\n      0x01\n        /* \"#utility.yul\":10821:10822   */\n      0x02\n        /* \"#utility.yul\":10813:10819   */\n      dup9\n        /* \"#utility.yul\":10809:10823   */\n      mul\n        /* \"#utility.yul\":10805:10827   */\n      add\n        /* \"#utility.yul\":10799:10803   */\n      dup9\n        /* \"#utility.yul\":10792:10828   */\n      sstore\n        /* \"#utility.yul\":10227:10838   */\n      pop\n      pop\n      pop\n        /* \"#utility.yul\":10190:11077   */\n    tag_192:\n      pop\n        /* \"#utility.yul\":9780:11083   */\n      pop\n      pop\n      pop\n        /* \"#utility.yul\":9688:11083   */\n      pop\n      pop\n      jump\t// out\n\n    auxdata: 0xa264697066735822122076febe07ce70107aed055425beb48de051a2b948bbcf7bfbf08917d60ca2cf4864736f6c634300081e0033\n}\n",
				"bytecode": {
					"linkReferences": {},
					"object": "6080604052348015600e575f5ffd5b50335f5f6101000a81548173ffffffffffffffffffffffffffffffffffffffff021916908373ffffffffffffffffffffffffffffffffffffffff16021790555061083a8061005b5f395ff3fe608060405234801561000f575f5ffd5b506004361061003f575f3560e01c80630a63c583146100435780638ab66a901461005f5780638da5cb5b14610091575b5f5ffd5b61005d60048036038101906100589190610386565b6100af565b005b6100796004803603810190610074919061043a565b610136565b604051610088939291906104d4565b60405180910390f35b6100996101e2565b6040516100a6919061051f565b60405180910390f35b60405180606001604052808381526020018281526020015f81525060015f3373ffffffffffffffffffffffffffffffffffffffff1673ffffffffffffffffffffffffffffffffffffffff1681526020019081526020015f205f820151815f015560208201518160010190816101249190610735565b50604082015181600201559050505050565b6001602052805f5260405f205f91509050805f01549080600101805461015b90610565565b80601f016020809104026020016040519081016040528092919081815260200182805461018790610565565b80156101d25780601f106101a9576101008083540402835291602001916101d2565b820191905f5260205f20905b8154815290600101906020018083116101b557829003601f168201915b5050505050908060020154905083565b5f5f9054906101000a900473ffffffffffffffffffffffffffffffffffffffff1681565b5f604051905090565b5f5ffd5b5f5ffd5b5f819050919050565b61022981610217565b8114610233575f5ffd5b50565b5f8135905061024481610220565b92915050565b5f5ffd5b5f5ffd5b5f601f19601f8301169050919050565b7f4e487b71000000000000000000000000000000000000000000000000000000005f52604160045260245ffd5b61029882610252565b810181811067ffffffffffffffff821117156102b7576102b6610262565b5b80604052505050565b5f6102c9610206565b90506102d5828261028f565b919050565b5f67ffffffffffffffff8211156102f4576102f3610262565b5b6102fd82610252565b9050602081019050919050565b828183375f83830152505050565b5f61032a610325846102da565b6102c0565b9050828152602081018484840111156103465761034561024e565b5b61035184828561030a565b509392505050565b5f82601f83011261036d5761036c61024a565b5b813561037d848260208601610318565b91505092915050565b5f5f6040838503121561039c5761039b61020f565b5b5f6103a985828601610236565b925050602083013567ffffffffffffffff8111156103ca576103c9610213565b5b6103d685828601610359565b9150509250929050565b5f73ffffffffffffffffffffffffffffffffffffffff82169050919050565b5f610409826103e0565b9050919050565b610419816103ff565b8114610423575f5ffd5b50565b5f8135905061043481610410565b92915050565b5f6020828403121561044f5761044e61020f565b5b5f61045c84828501610426565b91505092915050565b61046e81610217565b82525050565b5f81519050919050565b5f82825260208201905092915050565b8281835e5f83830152505050565b5f6104a682610474565b6104b0818561047e565b93506104c081856020860161048e565b6104c981610252565b840191505092915050565b5f6060820190506104e75f830186610465565b81810360208301526104f9818561049c565b90506105086040830184610465565b949350505050565b610519816103ff565b82525050565b5f6020820190506105325f830184610510565b92915050565b7f4e487b71000000000000000000000000000000000000000000000000000000005f52602260045260245ffd5b5f600282049050600182168061057c57607f821691505b60208210810361058f5761058e610538565b5b50919050565b5f819050815f5260205f209050919050565b5f6020601f8301049050919050565b5f82821b905092915050565b5f600883026105f17fffffffffffffffffffffffffffffffffffffffffffffffffffffffffffffffff826105b6565b6105fb86836105b6565b95508019841693508086168417925050509392505050565b5f819050919050565b5f61063661063161062c84610217565b610613565b610217565b9050919050565b5f819050919050565b61064f8361061c565b61066361065b8261063d565b8484546105c2565b825550505050565b5f5f905090565b61067a61066b565b610685818484610646565b505050565b5b818110156106a85761069d5f82610672565b60018101905061068b565b5050565b601f8211156106ed576106be81610595565b6106c7846105a7565b810160208510156106d6578190505b6106ea6106e2856105a7565b83018261068a565b50505b505050565b5f82821c905092915050565b5f61070d5f19846008026106f2565b1980831691505092915050565b5f61072583836106fe565b9150826002028217905092915050565b61073e82610474565b67ffffffffffffffff81111561075757610756610262565b5b6107618254610565565b61076c8282856106ac565b5f60209050601f83116001811461079d575f841561078b578287015190505b610795858261071a565b8655506107fc565b601f1984166107ab86610595565b5f5b828110156107d2578489015182556001820191506020850194506020810190506107ad565b868310156107ef57848901516107eb601f8916826106fe565b8355505b6001600288020188555050505b50505050505056fea264697066735822122076febe07ce70107aed055425beb48de051a2b948bbcf7bfbf08917d60ca2cf4864736f6c634300081e0033",
					"opcodes": "PUSH1 0x80 PUSH1 0x40 MSTORE CALLVALUE DUP1 ISZERO PUSH1 0xE JUMPI PUSH0 PUSH0 REVERT JUMPDEST POP CALLER PUSH0 PUSH0 PUSH2 0x100 EXP DUP2 SLOAD DUP2 PUSH20 0xFFFFFFFFFFFFFFFFFFFFFFFFFFFFFFFFFFFFFFFF MUL NOT AND SWAP1 DUP4 PUSH20 0xFFFFFFFFFFFFFFFFFFFFFFFFFFFFFFFFFFFFFFFF AND MUL OR SWAP1 SSTORE POP PUSH2 0x83A DUP1 PUSH2 0x5B PUSH0 CODECOPY PUSH0 RETURN INVALID PUSH1 0x80 PUSH1 0x40 MSTORE CALLVALUE DUP1 ISZERO PUSH2 0xF JUMPI PUSH0 PUSH0 REVERT JUMPDEST POP PUSH1 0x4 CALLDATASIZE LT PUSH2 0x3F JUMPI PUSH0 CALLDATALOAD PUSH1 0xE0 SHR DUP1 PUSH4 0xA63C583 EQ PUSH2 0x43 JUMPI DUP1 PUSH4 0x8AB66A90 EQ PUSH2 0x5F JUMPI DUP1 PUSH4 0x8DA5CB5B EQ PUSH2 0x91 JUMPI JUMPDEST PUSH0 PUSH0 REVERT JUMPDEST PUSH2 0x5D PUSH1 0x4 DUP1 CALLDATASIZE SUB DUP2 ADD SWAP1 PUSH2 0x58 SWAP2 SWAP1 PUSH2 0x386 JUMP JUMPDEST PUSH2 0xAF JUMP JUMPDEST STOP JUMPDEST PUSH2 0x79 PUSH1 0x4 DUP1 CALLDATASIZE SUB DUP2 ADD SWAP1 PUSH2 0x74 SWAP2 SWAP1 PUSH2 0x43A JUMP JUMPDEST PUSH2 0x136 JUMP JUMPDEST PUSH1 0x40 MLOAD PUSH2 0x88 SWAP4 SWAP3 SWAP2 SWAP1 PUSH2 0x4D4 JUMP JUMPDEST PUSH1 0x40 MLOAD DUP1 SWAP2 SUB SWAP1 RETURN JUMPDEST PUSH2 0x99 PUSH2 0x1E2 JUMP JUMPDEST PUSH1 0x40 MLOAD PUSH2 0xA6 SWAP2 SWAP1 PUSH2 0x51F JUMP JUMPDEST PUSH1 0x40 MLOAD DUP1 SWAP2 SUB SWAP1 RETURN JUMPDEST PUSH1 0x40 MLOAD DUP1 PUSH1 0x60 ADD PUSH1 0x40 MSTORE DUP1 DUP4 DUP2 MSTORE PUSH1 0x20 ADD DUP3 DUP2 MSTORE PUSH1 0x20 ADD PUSH0 DUP2 MSTORE POP PUSH1 0x1 PUSH0 CALLER PUSH20 0xFFFFFFFFFFFFFFFFFFFFFFFFFFFFFFFFFFFFFFFF AND PUSH20 0xFFFFFFFFFFFFFFFFFFFFFFFFFFFFFFFFFFFFFFFF AND DUP2 MSTORE PUSH1 0x20 ADD SWAP1 DUP2 MSTORE PUSH1 0x20 ADD PUSH0 KECCAK256 PUSH0 DUP3 ADD MLOAD DUP2 PUSH0 ADD SSTORE PUSH1 0x20 DUP3 ADD MLOAD DUP2 PUSH1 0x1 ADD SWAP1 DUP2 PUSH2 0x124 SWAP2 SWAP1 PUSH2 0x735 JUMP JUMPDEST POP PUSH1 0x40 DUP3 ADD MLOAD DUP2 PUSH1 0x2 ADD SSTORE SWAP1 POP POP POP POP JUMP JUMPDEST PUSH1 0x1 PUSH1 0x20 MSTORE DUP1 PUSH0 MSTORE PUSH1 0x40 PUSH0 KECCAK256 PUSH0 SWAP2 POP SWAP1 POP DUP1 PUSH0 ADD SLOAD SWAP1 DUP1 PUSH1 0x1 ADD DUP1 SLOAD PUSH2 0x15B SWAP1 PUSH2 0x565 JUMP JUMPDEST DUP1 PUSH1 0x1F ADD PUSH1 0x20 DUP1 SWAP2 DIV MUL PUSH1 0x20 ADD PUSH1 0x40 MLOAD SWAP1 DUP2 ADD PUSH1 0x40 MSTORE DUP1 SWAP3 SWAP2 SWAP1 DUP2 DUP2 MSTORE PUSH1 0x20 ADD DUP3 DUP1 SLOAD PUSH2 0x187 SWAP1 PUSH2 0x565 JUMP JUMPDEST DUP1 ISZERO PUSH2 0x1D2 JUMPI DUP1 PUSH1 0x1F LT PUSH2 0x1A9 JUMPI PUSH2 0x100 DUP1 DUP4 SLOAD DIV MUL DUP4 MSTORE SWAP2 PUSH1 0x20 ADD SWAP2 PUSH2 0x1D2 JUMP JUMPDEST DUP3 ADD SWAP2 SWAP1 PUSH0 MSTORE PUSH1 0x20 PUSH0 KECCAK256 SWAP1 JUMPDEST DUP2 SLOAD DUP2 MSTORE SWAP1 PUSH1 0x1 ADD SWAP1 PUSH1 0x20 ADD DUP1 DUP4 GT PUSH2 0x1B5 JUMPI DUP3 SWAP1 SUB PUSH1 0x1F AND DUP3 ADD SWAP2 JUMPDEST POP POP POP POP POP SWAP1 DUP1 PUSH1 0x2 ADD SLOAD SWAP1 POP DUP4 JUMP JUMPDEST PUSH0 PUSH0 SWAP1 SLOAD SWAP1 PUSH2 0x100 EXP SWAP1 DIV PUSH20 0xFFFFFFFFFFFFFFFFFFFFFFFFFFFFFFFFFFFFFFFF AND DUP2 JUMP JUMPDEST PUSH0 PUSH1 0x40 MLOAD SWAP1 POP SWAP1 JUMP JUMPDEST PUSH0 PUSH0 REVERT JUMPDEST PUSH0 PUSH0 REVERT JUMPDEST PUSH0 DUP2 SWAP1 POP SWAP2 SWAP1 POP JUMP JUMPDEST PUSH2 0x229 DUP2 PUSH2 0x217 JUMP JUMPDEST DUP2 EQ PUSH2 0x233 JUMPI PUSH0 PUSH0 REVERT JUMPDEST POP JUMP JUMPDEST PUSH0 DUP2 CALLDATALOAD SWAP1 POP PUSH2 0x244 DUP2 PUSH2 0x220 JUMP JUMPDEST SWAP3 SWAP2 POP POP JUMP JUMPDEST PUSH0 PUSH0 REVERT JUMPDEST PUSH0 PUSH0 REVERT JUMPDEST PUSH0 PUSH1 0x1F NOT PUSH1 0x1F DUP4 ADD AND SWAP1 POP SWAP2 SWAP1 POP JUMP JUMPDEST PUSH32 0x4E487B7100000000000000000000000000000000000000000000000000000000 PUSH0 MSTORE PUSH1 0x41 PUSH1 0x4 MSTORE PUSH1 0x24 PUSH0 REVERT JUMPDEST PUSH2 0x298 DUP3 PUSH2 0x252 JUMP JUMPDEST DUP2 ADD DUP2 DUP2 LT PUSH8 0xFFFFFFFFFFFFFFFF DUP3 GT OR ISZERO PUSH2 0x2B7 JUMPI PUSH2 0x2B6 PUSH2 0x262 JUMP JUMPDEST JUMPDEST DUP1 PUSH1 0x40 MSTORE POP POP POP JUMP JUMPDEST PUSH0 PUSH2 0x2C9 PUSH2 0x206 JUMP JUMPDEST SWAP1 POP PUSH2 0x2D5 DUP3 DUP3 PUSH2 0x28F JUMP JUMPDEST SWAP2 SWAP1 POP JUMP JUMPDEST PUSH0 PUSH8 0xFFFFFFFFFFFFFFFF DUP3 GT ISZERO PUSH2 0x2F4 JUMPI PUSH2 0x2F3 PUSH2 0x262 JUMP JUMPDEST JUMPDEST PUSH2 0x2FD DUP3 PUSH2 0x252 JUMP JUMPDEST SWAP1 POP PUSH1 0x20 DUP2 ADD SWAP1 POP SWAP2 SWAP1 POP JUMP JUMPDEST DUP3 DUP2 DUP4 CALLDATACOPY PUSH0 DUP4 DUP4 ADD MSTORE POP POP POP JUMP JUMPDEST PUSH0 PUSH2 0x32A PUSH2 0x325 DUP5 PUSH2 0x2DA JUMP JUMPDEST PUSH2 0x2C0 JUMP JUMPDEST SWAP1 POP DUP3 DUP2 MSTORE PUSH1 0x20 DUP2 ADD DUP5 DUP5 DUP5 ADD GT ISZERO PUSH2 0x346 JUMPI PUSH2 0x345 PUSH2 0x24E JUMP JUMPDEST JUMPDEST PUSH2 0x351 DUP5 DUP3 DUP6 PUSH2 0x30A JUMP JUMPDEST POP SWAP4 SWAP3 POP POP POP JUMP JUMPDEST PUSH0 DUP3 PUSH1 0x1F DUP4 ADD SLT PUSH2 0x36D JUMPI PUSH2 0x36C PUSH2 0x24A JUMP JUMPDEST JUMPDEST DUP2 CALLDATALOAD PUSH2 0x37D DUP5 DUP3 PUSH1 0x20 DUP7 ADD PUSH2 0x318 JUMP JUMPDEST SWAP2 POP POP SWAP3 SWAP2 POP POP JUMP JUMPDEST PUSH0 PUSH0 PUSH1 0x40 DUP4 DUP6 SUB SLT ISZERO PUSH2 0x39C JUMPI PUSH2 0x39B PUSH2 0x20F JUMP JUMPDEST JUMPDEST PUSH0 PUSH2 0x3A9 DUP6 DUP3 DUP7 ADD PUSH2 0x236 JUMP JUMPDEST SWAP3 POP POP PUSH1 0x20 DUP4 ADD CALLDATALOAD PUSH8 0xFFFFFFFFFFFFFFFF DUP2 GT ISZERO PUSH2 0x3CA JUMPI PUSH2 0x3C9 PUSH2 0x213 JUMP JUMPDEST JUMPDEST PUSH2 0x3D6 DUP6 DUP3 DUP7 ADD PUSH2 0x359 JUMP JUMPDEST SWAP2 POP POP SWAP3 POP SWAP3 SWAP1 POP JUMP JUMPDEST PUSH0 PUSH20 0xFFFFFFFFFFFFFFFFFFFFFFFFFFFFFFFFFFFFFFFF DUP3 AND SWAP1 POP SWAP2 SWAP1 POP JUMP JUMPDEST PUSH0 PUSH2 0x409 DUP3 PUSH2 0x3E0 JUMP JUMPDEST SWAP1 POP SWAP2 SWAP1 POP JUMP JUMPDEST PUSH2 0x419 DUP2 PUSH2 0x3FF JUMP JUMPDEST DUP2 EQ PUSH2 0x423 JUMPI PUSH0 PUSH0 REVERT JUMPDEST POP JUMP JUMPDEST PUSH0 DUP2 CALLDATALOAD SWAP1 POP PUSH2 0x434 DUP2 PUSH2 0x410 JUMP JUMPDEST SWAP3 SWAP2 POP POP JUMP JUMPDEST PUSH0 PUSH1 0x20 DUP3 DUP5 SUB SLT ISZERO PUSH2 0x44F JUMPI PUSH2 0x44E PUSH2 0x20F JUMP JUMPDEST JUMPDEST PUSH0 PUSH2 0x45C DUP5 DUP3 DUP6 ADD PUSH2 0x426 JUMP JUMPDEST SWAP2 POP POP SWAP3 SWAP2 POP POP JUMP JUMPDEST PUSH2 0x46E DUP2 PUSH2 0x217 JUMP JUMPDEST DUP3 MSTORE POP POP JUMP JUMPDEST PUSH0 DUP2 MLOAD SWAP1 POP SWAP2 SWAP1 POP JUMP JUMPDEST PUSH0 DUP3 DUP3 MSTORE PUSH1 0x20 DUP3 ADD SWAP1 POP SWAP3 SWAP2 POP POP JUMP JUMPDEST DUP3 DUP2 DUP4 MCOPY PUSH0 DUP4 DUP4 ADD MSTORE POP POP POP JUMP JUMPDEST PUSH0 PUSH2 0x4A6 DUP3 PUSH2 0x474 JUMP JUMPDEST PUSH2 0x4B0 DUP2 DUP6 PUSH2 0x47E JUMP JUMPDEST SWAP4 POP PUSH2 0x4C0 DUP2 DUP6 PUSH1 0x20 DUP7 ADD PUSH2 0x48E JUMP JUMPDEST PUSH2 0x4C9 DUP2 PUSH2 0x252 JUMP JUMPDEST DUP5 ADD SWAP2 POP POP SWAP3 SWAP2 POP POP JUMP JUMPDEST PUSH0 PUSH1 0x60 DUP3 ADD SWAP1 POP PUSH2 0x4E7 PUSH0 DUP4 ADD DUP7 PUSH2 0x465 JUMP JUMPDEST DUP2 DUP2 SUB PUSH1 0x20 DUP4 ADD MSTORE PUSH2 0x4F9 DUP2 DUP6 PUSH2 0x49C JUMP JUMPDEST SWAP1 POP PUSH2 0x508 PUSH1 0x40 DUP4 ADD DUP5 PUSH2 0x465 JUMP JUMPDEST SWAP5 SWAP4 POP POP POP POP JUMP JUMPDEST PUSH2 0x519 DUP2 PUSH2 0x3FF JUMP JUMPDEST DUP3 MSTORE POP POP JUMP JUMPDEST PUSH0 PUSH1 0x20 DUP3 ADD SWAP1 POP PUSH2 0x532 PUSH0 DUP4 ADD DUP5 PUSH2 0x510 JUMP JUMPDEST SWAP3 SWAP2 POP POP JUMP JUMPDEST PUSH32 0x4E487B7100000000000000000000000000000000000000000000000000000000 PUSH0 MSTORE PUSH1 0x22 PUSH1 0x4 MSTORE PUSH1 0x24 PUSH0 REVERT JUMPDEST PUSH0 PUSH1 0x2 DUP3 DIV SWAP1 POP PUSH1 0x1 DUP3 AND DUP1 PUSH2 0x57C JUMPI PUSH1 0x7F DUP3 AND SWAP2 POP JUMPDEST PUSH1 0x20 DUP3 LT DUP2 SUB PUSH2 0x58F JUMPI PUSH2 0x58E PUSH2 0x538 JUMP JUMPDEST JUMPDEST POP SWAP2 SWAP1 POP JUMP JUMPDEST PUSH0 DUP2 SWAP1 POP DUP2 PUSH0 MSTORE PUSH1 0x20 PUSH0 KECCAK256 SWAP1 POP SWAP2 SWAP1 POP JUMP JUMPDEST PUSH0 PUSH1 0x20 PUSH1 0x1F DUP4 ADD DIV SWAP1 POP SWAP2 SWAP1 POP JUMP JUMPDEST PUSH0 DUP3 DUP3 SHL SWAP1 POP SWAP3 SWAP2 POP POP JUMP JUMPDEST PUSH0 PUSH1 0x8 DUP4 MUL PUSH2 0x5F1 PUSH32 0xFFFFFFFFFFFFFFFFFFFFFFFFFFFFFFFFFFFFFFFFFFFFFFFFFFFFFFFFFFFFFFFF DUP3 PUSH2 0x5B6 JUMP JUMPDEST PUSH2 0x5FB DUP7 DUP4 PUSH2 0x5B6 JUMP JUMPDEST SWAP6 POP DUP1 NOT DUP5 AND SWAP4 POP DUP1 DUP7 AND DUP5 OR SWAP3 POP POP POP SWAP4 SWAP3 POP POP POP JUMP JUMPDEST PUSH0 DUP2 SWAP1 POP SWAP2 SWAP1 POP JUMP JUMPDEST PUSH0 PUSH2 0x636 PUSH2 0x631 PUSH2 0x62C DUP5 PUSH2 0x217 JUMP JUMPDEST PUSH2 0x613 JUMP JUMPDEST PUSH2 0x217 JUMP JUMPDEST SWAP1 POP SWAP2 SWAP1 POP JUMP JUMPDEST PUSH0 DUP2 SWAP1 POP SWAP2 SWAP1 POP JUMP JUMPDEST PUSH2 0x64F DUP4 PUSH2 0x61C JUMP JUMPDEST PUSH2 0x663 PUSH2 0x65B DUP3 PUSH2 0x63D JUMP JUMPDEST DUP5 DUP5 SLOAD PUSH2 0x5C2 JUMP JUMPDEST DUP3 SSTORE POP POP POP POP JUMP JUMPDEST PUSH0 PUSH0 SWAP1 POP SWAP1 JUMP JUMPDEST PUSH2 0x67A PUSH2 0x66B JUMP JUMPDEST PUSH2 0x685 DUP2 DUP5 DUP5 PUSH2 0x646 JUMP JUMPDEST POP POP POP JUMP JUMPDEST JUMPDEST DUP2 DUP2 LT ISZERO PUSH2 0x6A8 JUMPI PUSH2 0x69D PUSH0 DUP3 PUSH2 0x672 JUMP JUMPDEST PUSH1 0x1 DUP2 ADD SWAP1 POP PUSH2 0x68B JUMP JUMPDEST POP POP JUMP JUMPDEST PUSH1 0x1F DUP3 GT ISZERO PUSH2 0x6ED JUMPI PUSH2 0x6BE DUP2 PUSH2 0x595 JUMP JUMPDEST PUSH2 0x6C7 DUP5 PUSH2 0x5A7 JUMP JUMPDEST DUP2 ADD PUSH1 0x20 DUP6 LT ISZERO PUSH2 0x6D6 JUMPI DUP2 SWAP1 POP JUMPDEST PUSH2 0x6EA PUSH2 0x6E2 DUP6 PUSH2 0x5A7 JUMP JUMPDEST DUP4 ADD DUP3 PUSH2 0x68A JUMP JUMPDEST POP POP JUMPDEST POP POP POP JUMP JUMPDEST PUSH0 DUP3 DUP3 SHR SWAP1 POP SWAP3 SWAP2 POP POP JUMP JUMPDEST PUSH0 PUSH2 0x70D PUSH0 NOT DUP5 PUSH1 0x8 MUL PUSH2 0x6F2 JUMP JUMPDEST NOT DUP1 DUP4 AND SWAP2 POP POP SWAP3 SWAP2 POP POP JUMP JUMPDEST PUSH0 PUSH2 0x725 DUP4 DUP4 PUSH2 0x6FE JUMP JUMPDEST SWAP2 POP DUP3 PUSH1 0x2 MUL DUP3 OR SWAP1 POP SWAP3 SWAP2 POP POP JUMP JUMPDEST PUSH2 0x73E DUP3 PUSH2 0x474 JUMP JUMPDEST PUSH8 0xFFFFFFFFFFFFFFFF DUP2 GT ISZERO PUSH2 0x757 JUMPI PUSH2 0x756 PUSH2 0x262 JUMP JUMPDEST JUMPDEST PUSH2 0x761 DUP3 SLOAD PUSH2 0x565 JUMP JUMPDEST PUSH2 0x76C DUP3 DUP3 DUP6 PUSH2 0x6AC JUMP JUMPDEST PUSH0 PUSH1 0x20 SWAP1 POP PUSH1 0x1F DUP4 GT PUSH1 0x1 DUP2 EQ PUSH2 0x79D JUMPI PUSH0 DUP5 ISZERO PUSH2 0x78B JUMPI DUP3 DUP8 ADD MLOAD SWAP1 POP JUMPDEST PUSH2 0x795 DUP6 DUP3 PUSH2 0x71A JUMP JUMPDEST DUP7 SSTORE POP PUSH2 0x7FC JUMP JUMPDEST PUSH1 0x1F NOT DUP5 AND PUSH2 0x7AB DUP7 PUSH2 0x595 JUMP JUMPDEST PUSH0 JUMPDEST DUP3 DUP2 LT ISZERO PUSH2 0x7D2 JUMPI DUP5 DUP10 ADD MLOAD DUP3 SSTORE PUSH1 0x1 DUP3 ADD SWAP2 POP PUSH1 0x20 DUP6 ADD SWAP5 POP PUSH1 0x20 DUP2 ADD SWAP1 POP PUSH2 0x7AD JUMP JUMPDEST DUP7 DUP4 LT ISZERO PUSH2 0x7EF JUMPI DUP5 DUP10 ADD MLOAD PUSH2 0x7EB PUSH1 0x1F DUP10 AND DUP3 PUSH2 0x6FE JUMP JUMPDEST DUP4 SSTORE POP JUMPDEST PUSH1 0x1 PUSH1 0x2 DUP9 MUL ADD DUP9 SSTORE POP POP POP JUMPDEST POP POP POP POP POP POP JUMP INVALID LOG2 PUSH5 0x6970667358 0x22 SLT KECCAK256 PUSH23 0xFEBE07CE70107AED055425BEB48DE051A2B948BBCF7BFB CREATE DUP10 OR 0xD6 0xC LOG2 0xCF BASEFEE PUSH5 0x736F6C6343 STOP ADDMOD 0x1E STOP CALLER "
				},
				"gasEstimates": {
					"creation": {
						"codeDepositCost": "421200",
						"executionCost": "24717",
						"totalCost": "445917"
					},
					"external": {
						"AddCandidate(uint256,string)": "infinite",
						"candidates(address)": "infinite",
						"owner()": "2529"
					}
				},
				"methodIdentifiers": {
					"AddCandidate(uint256,string)": "0a63c583",
					"candidates(address)": "8ab66a90",
					"owner()": "8da5cb5b"
				}
			},
			"storageLayout": {
				"storage": [
					{
						"astId": 10,
						"contract": "Voting/Voting.sol:Voting",
						"label": "owner",
						"offset": 0,
						"slot": "0",
						"type": "t_address"
					},
					{
						"astId": 15,
						"contract": "Voting/Voting.sol:Voting",
						"label": "candidates",
						"offset": 0,
						"slot": "1",
						"type": "t_mapping(t_address,t_struct(VoteDetails)8_storage)"
					}
				],
				"types": {
					"t_address": {
						"encoding": "inplace",
						"label": "address",
						"numberOfBytes": "20"
					},
					"t_mapping(t_address,t_struct(VoteDetails)8_storage)": {
						"encoding": "mapping",
						"key": "t_address",
						"label": "mapping(address => struct Voting.VoteDetails)",
						"numberOfBytes": "32",
						"value": "t_struct(VoteDetails)8_storage"
					},
					"t_string_storage": {
						"encoding": "bytes",
						"label": "string",
						"numberOfBytes": "32"
					},
					"t_struct(VoteDetails)8_storage": {
						"encoding": "inplace",
						"label": "struct Voting.VoteDetails",
						"members": [
							{
								"astId": 3,
								"contract": "Voting/Voting.sol:Voting",
								"label": "id",
								"offset": 0,
								"slot": "0",
								"type": "t_uint256"
							},
							{
								"astId": 5,
								"contract": "Voting/Voting.sol:Voting",
								"label": "name",
								"offset": 0,
								"slot": "1",
								"type": "t_string_storage"
							},
							{
								"astId": 7,
								"contract": "Voting/Voting.sol:Voting",
								"label": "voteCount",
								"offset": 0,
								"slot": "2",
								"type": "t_uint256"
							}
						],
						"numberOfBytes": "96"
					},
					"t_uint256": {
						"encoding": "inplace",
						"label": "uint256",
						"numberOfBytes": "32"
					}
				}
			},
			"userdoc": {
				"kind": "user",
				"methods": {},
				"version": 1
			}
		}
	}
}