{
	"Dapp/ShopJR.sol": {
		"ShopJR": {
			"abi": [
				{
					"inputs": [],
					"stateMutability": "nonpayable",
					"type": "constructor"
				},
				{
					"anonymous": false,
					"inputs": [
						{
							"indexed": false,
							"internalType": "string",
							"name": "name",
							"type": "string"
						},
						{
							"indexed": false,
							"internalType": "uint256",
							"name": "price",
							"type": "uint256"
						},
						{
							"indexed": false,
							"internalType": "uint256",
							"name": "quantity",
							"type": "uint256"
						}
					],
					"name": "List",
					"type": "event"
				},
				{
					"anonymous": false,
					"inputs": [
						{
							"indexed": false,
							"internalType": "address",
							"name": "buyer",
							"type": "address"
						},
						{
							"indexed": false,
							"internalType": "uint256",
							"name": "orderId",
							"type": "uint256"
						},
						{
							"indexed": false,
							"internalType": "uint256",
							"name": "productId",
							"type": "uint256"
						}
					],
					"name": "Purchase",
					"type": "event"
				},
				{
					"inputs": [
						{
							"internalType": "uint256",
							"name": "id",
							"type": "uint256"
						}
					],
					"name": "buy",
					"outputs": [],
					"stateMutability": "payable",
					"type": "function"
				},
				{
					"inputs": [],
					"name": "getAllProduct",
					"outputs": [
						{
							"components": [
								{
									"internalType": "uint256",
									"name": "id",
									"type": "uint256"
								},
								{
									"internalType": "string",
									"name": "name",
									"type": "string"
								},
								{
									"internalType": "string",
									"name": "category",
									"type": "string"
								},
								{
									"internalType": "string",
									"name": "description",
									"type": "string"
								},
								{
									"internalType": "string",
									"name": "image",
									"type": "string"
								},
								{
									"internalType": "uint256",
									"name": "price",
									"type": "uint256"
								},
								{
									"internalType": "uint256",
									"name": "review",
									"type": "uint256"
								},
								{
									"internalType": "uint256",
									"name": "stock",
									"type": "uint256"
								}
							],
							"internalType": "struct ShopJR.Product[]",
							"name": "",
							"type": "tuple[]"
						}
					],
					"stateMutability": "view",
					"type": "function"
				},
				{
					"inputs": [],
					"name": "getMyOrders",
					"outputs": [
						{
							"components": [
								{
									"components": [
										{
											"internalType": "uint256",
											"name": "id",
											"type": "uint256"
										},
										{
											"internalType": "string",
											"name": "name",
											"type": "string"
										},
										{
											"internalType": "string",
											"name": "category",
											"type": "string"
										},
										{
											"internalType": "string",
											"name": "description",
											"type": "string"
										},
										{
											"internalType": "string",
											"name": "image",
											"type": "string"
										},
										{
											"internalType": "uint256",
											"name": "price",
											"type": "uint256"
										},
										{
											"internalType": "uint256",
											"name": "review",
											"type": "uint256"
										},
										{
											"internalType": "uint256",
											"name": "stock",
											"type": "uint256"
										}
									],
									"internalType": "struct ShopJR.Product",
									"name": "product",
									"type": "tuple"
								},
								{
									"internalType": "uint256",
									"name": "orderTime",
									"type": "uint256"
								}
							],
							"internalType": "struct ShopJR.Order[]",
							"name": "",
							"type": "tuple[]"
						}
					],
					"stateMutability": "view",
					"type": "function"
				},
				{
					"inputs": [
						{
							"internalType": "uint256",
							"name": "id",
							"type": "uint256"
						}
					],
					"name": "getProduct",
					"outputs": [
						{
							"components": [
								{
									"internalType": "uint256",
									"name": "id",
									"type": "uint256"
								},
								{
									"internalType": "string",
									"name": "name",
									"type": "string"
								},
								{
									"internalType": "string",
									"name": "category",
									"type": "string"
								},
								{
									"internalType": "string",
									"name": "description",
									"type": "string"
								},
								{
									"internalType": "string",
									"name": "image",
									"type": "string"
								},
								{
									"internalType": "uint256",
									"name": "price",
									"type": "uint256"
								},
								{
									"internalType": "uint256",
									"name": "review",
									"type": "uint256"
								},
								{
									"internalType": "uint256",
									"name": "stock",
									"type": "uint256"
								}
							],
							"internalType": "struct ShopJR.Product",
							"name": "",
							"type": "tuple"
						}
					],
					"stateMutability": "view",
					"type": "function"
				},
				{
					"inputs": [
						{
							"internalType": "uint256",
							"name": "_id",
							"type": "uint256"
						},
						{
							"internalType": "string",
							"name": "_name",
							"type": "string"
						},
						{
							"internalType": "string",
							"name": "_category",
							"type": "string"
						},
						{
							"internalType": "string",
							"name": "_description",
							"type": "string"
						},
						{
							"internalType": "string",
							"name": "_image",
							"type": "string"
						},
						{
							"internalType": "uint256",
							"name": "_price",
							"type": "uint256"
						},
						{
							"internalType": "uint256",
							"name": "_review",
							"type": "uint256"
						},
						{
							"internalType": "uint256",
							"name": "_stock",
							"type": "uint256"
						}
					],
					"name": "list",
					"outputs": [],
					"stateMutability": "nonpayable",
					"type": "function"
				},
				{
					"inputs": [],
					"name": "owner",
					"outputs": [
						{
							"internalType": "address",
							"name": "",
							"type": "address"
						}
					],
					"stateMutability": "view",
					"type": "function"
				},
				{
					"inputs": [
						{
							"internalType": "uint256",
							"name": "id",
							"type": "uint256"
						},
						{
							"internalType": "uint256",
							"name": "newStock",
							"type": "uint256"
						}
					],
					"name": "updateStock",
					"outputs": [],
					"stateMutability": "nonpayable",
					"type": "function"
				},
				{
					"inputs": [],
					"name": "withdraw",
					"outputs": [],
					"stateMutability": "nonpayable",
					"type": "function"
				}
			],
			"devdoc": {
				"kind": "dev",
				"methods": {},
				"version": 1
			},
			"evm": {
				"assembly": "    /* \"Dapp/ShopJR.sol\":57:3097  contract ShopJR {... */\n  mstore(0x40, 0x80)\n    /* \"Dapp/ShopJR.sol\":735:784  constructor() {... */\n  callvalue\n  dup1\n  iszero\n  tag_1\n  jumpi\n  revert(0x00, 0x00)\ntag_1:\n  pop\n    /* \"Dapp/ShopJR.sol\":767:777  msg.sender */\n  caller\n    /* \"Dapp/ShopJR.sol\":759:764  owner */\n  0x00\n  0x00\n    /* \"Dapp/ShopJR.sol\":759:777  owner = msg.sender */\n  0x0100\n  exp\n  dup2\n  sload\n  dup2\n  0xffffffffffffffffffffffffffffffffffffffff\n  mul\n  not\n  and\n  swap1\n  dup4\n  0xffffffffffffffffffffffffffffffffffffffff\n  and\n  mul\n  or\n  swap1\n  sstore\n  pop\n    /* \"Dapp/ShopJR.sol\":57:3097  contract ShopJR {... */\n  dataSize(sub_0)\n  dup1\n  dataOffset(sub_0)\n  0x00\n  codecopy\n  0x00\n  return\nstop\n\nsub_0: assembly {\n        /* \"Dapp/ShopJR.sol\":57:3097  contract ShopJR {... */\n      mstore(0x40, 0x80)\n      jumpi(tag_1, lt(calldatasize, 0x04))\n      shr(0xe0, calldataload(0x00))\n      dup1\n      0xb9db15b4\n      gt\n      tag_10\n      jumpi\n      dup1\n      0xb9db15b4\n      eq\n      tag_6\n      jumpi\n      dup1\n      0xbab5933a\n      eq\n      tag_7\n      jumpi\n      dup1\n      0xd055a75f\n      eq\n      tag_8\n      jumpi\n      dup1\n      0xd96a094a\n      eq\n      tag_9\n      jumpi\n      jump(tag_1)\n    tag_10:\n      dup1\n      0x3ccfd60b\n      eq\n      tag_2\n      jumpi\n      dup1\n      0x5143366f\n      eq\n      tag_3\n      jumpi\n      dup1\n      0x8da5cb5b\n      eq\n      tag_4\n      jumpi\n      dup1\n      0x9dfc3dd1\n      eq\n      tag_5\n      jumpi\n    tag_1:\n      revert(0x00, 0x00)\n        /* \"Dapp/ShopJR.sol\":2952:3095  function withdraw() public onlyOwner {... */\n    tag_2:\n      callvalue\n      dup1\n      iszero\n      tag_11\n      jumpi\n      revert(0x00, 0x00)\n    tag_11:\n      pop\n      tag_12\n      tag_13\n      jump\t// in\n    tag_12:\n      stop\n        /* \"Dapp/ShopJR.sol\":898:1567  function list(... */\n    tag_3:\n      callvalue\n      dup1\n      iszero\n      tag_14\n      jumpi\n      revert(0x00, 0x00)\n    tag_14:\n      pop\n      tag_15\n      0x04\n      dup1\n      calldatasize\n      sub\n      dup2\n      add\n      swap1\n      tag_16\n      swap2\n      swap1\n      tag_17\n      jump\t// in\n    tag_16:\n      tag_18\n      jump\t// in\n    tag_15:\n      stop\n        /* \"Dapp/ShopJR.sol\":79:99  address public owner */\n    tag_4:\n      callvalue\n      dup1\n      iszero\n      tag_19\n      jumpi\n      revert(0x00, 0x00)\n    tag_19:\n      pop\n      tag_20\n      tag_21\n      jump\t// in\n    tag_20:\n      mload(0x40)\n      tag_22\n      swap2\n      swap1\n      tag_23\n      jump\t// in\n    tag_22:\n      mload(0x40)\n      dup1\n      swap2\n      sub\n      swap1\n      return\n        /* \"Dapp/ShopJR.sol\":1982:2097  function updateStock(uint256 id, uint256 newStock) public onlyOwner {... */\n    tag_5:\n      callvalue\n      dup1\n      iszero\n      tag_24\n      jumpi\n      revert(0x00, 0x00)\n    tag_24:\n      pop\n      tag_25\n      0x04\n      dup1\n      calldatasize\n      sub\n      dup2\n      add\n      swap1\n      tag_26\n      swap2\n      swap1\n      tag_27\n      jump\t// in\n    tag_26:\n      tag_28\n      jump\t// in\n    tag_25:\n      stop\n        /* \"Dapp/ShopJR.sol\":1573:1678  function getProduct(uint256 id) public view returns (Product memory) {... */\n    tag_6:\n      callvalue\n      dup1\n      iszero\n      tag_29\n      jumpi\n      revert(0x00, 0x00)\n    tag_29:\n      pop\n      tag_30\n      0x04\n      dup1\n      calldatasize\n      sub\n      dup2\n      add\n      swap1\n      tag_31\n      swap2\n      swap1\n      tag_32\n      jump\t// in\n    tag_31:\n      tag_33\n      jump\t// in\n    tag_30:\n      mload(0x40)\n      tag_34\n      swap2\n      swap1\n      tag_35\n      jump\t// in\n    tag_34:\n      mload(0x40)\n      dup1\n      swap2\n      sub\n      swap1\n      return\n        /* \"Dapp/ShopJR.sol\":2103:2394  function getMyOrders() public view returns (Order[] memory) {... */\n    tag_7:\n      callvalue\n      dup1\n      iszero\n      tag_36\n      jumpi\n      revert(0x00, 0x00)\n    tag_36:\n      pop\n      tag_37\n      tag_38\n      jump\t// in\n    tag_37:\n      mload(0x40)\n      tag_39\n      swap2\n      swap1\n      tag_40\n      jump\t// in\n    tag_39:\n      mload(0x40)\n      dup1\n      swap2\n      sub\n      swap1\n      return\n        /* \"Dapp/ShopJR.sol\":1684:1976  function getAllProduct() public view returns (Product[] memory) {... */\n    tag_8:\n      callvalue\n      dup1\n      iszero\n      tag_41\n      jumpi\n      revert(0x00, 0x00)\n    tag_41:\n      pop\n      tag_42\n      tag_43\n      jump\t// in\n    tag_42:\n      mload(0x40)\n      tag_44\n      swap2\n      swap1\n      tag_45\n      jump\t// in\n    tag_44:\n      mload(0x40)\n      dup1\n      swap2\n      sub\n      swap1\n      return\n        /* \"Dapp/ShopJR.sol\":2400:2946  function buy(uint256 id) public payable {... */\n    tag_9:\n      tag_46\n      0x04\n      dup1\n      calldatasize\n      sub\n      dup2\n      add\n      swap1\n      tag_47\n      swap2\n      swap1\n      tag_32\n      jump\t// in\n    tag_47:\n      tag_48\n      jump\t// in\n    tag_46:\n      stop\n        /* \"Dapp/ShopJR.sol\":2952:3095  function withdraw() public onlyOwner {... */\n    tag_13:\n        /* \"Dapp/ShopJR.sol\":838:848  msg.sender */\n      caller\n        /* \"Dapp/ShopJR.sol\":829:848  owner == msg.sender */\n      0xffffffffffffffffffffffffffffffffffffffff\n      and\n        /* \"Dapp/ShopJR.sol\":829:834  owner */\n      0x00\n      0x00\n      swap1\n      sload\n      swap1\n      0x0100\n      exp\n      swap1\n      div\n      0xffffffffffffffffffffffffffffffffffffffff\n      and\n        /* \"Dapp/ShopJR.sol\":829:848  owner == msg.sender */\n      0xffffffffffffffffffffffffffffffffffffffff\n      and\n      eq\n        /* \"Dapp/ShopJR.sol\":821:874  require(owner == msg.sender, \"You are not the owenr\") */\n      tag_50\n      jumpi\n      mload(0x40)\n      0x08c379a000000000000000000000000000000000000000000000000000000000\n      dup2\n      mstore\n      0x04\n      add\n      tag_51\n      swap1\n      tag_52\n      jump\t// in\n    tag_51:\n      mload(0x40)\n      dup1\n      swap2\n      sub\n      swap1\n      revert\n    tag_50:\n        /* \"Dapp/ShopJR.sol\":3000:3012  bool success */\n      0x00\n        /* \"Dapp/ShopJR.sol\":3018:3023  owner */\n      0x00\n      0x00\n      swap1\n      sload\n      swap1\n      0x0100\n      exp\n      swap1\n      div\n      0xffffffffffffffffffffffffffffffffffffffff\n      and\n        /* \"Dapp/ShopJR.sol\":3018:3028  owner.call */\n      0xffffffffffffffffffffffffffffffffffffffff\n      and\n        /* \"Dapp/ShopJR.sol\":3036:3057  address(this).balance */\n      selfbalance\n        /* \"Dapp/ShopJR.sol\":3018:3062  owner.call{value: address(this).balance}(\"\") */\n      mload(0x40)\n      tag_54\n      swap1\n      tag_55\n      jump\t// in\n    tag_54:\n      0x00\n      mload(0x40)\n      dup1\n      dup4\n      sub\n      dup2\n      dup6\n      dup8\n      gas\n      call\n      swap3\n      pop\n      pop\n      pop\n      returndatasize\n      dup1\n      0x00\n      dup2\n      eq\n      tag_58\n      jumpi\n      mload(0x40)\n      swap2\n      pop\n      and(add(returndatasize, 0x3f), not(0x1f))\n      dup3\n      add\n      0x40\n      mstore\n      returndatasize\n      dup3\n      mstore\n      returndatasize\n      0x00\n      0x20\n      dup5\n      add\n      returndatacopy\n      jump(tag_57)\n    tag_58:\n      0x60\n      swap2\n      pop\n    tag_57:\n      pop\n        /* \"Dapp/ShopJR.sol\":2999:3062  (bool success, ) = owner.call{value: address(this).balance}(\"\") */\n      pop\n      swap1\n      pop\n        /* \"Dapp/ShopJR.sol\":3080:3087  success */\n      dup1\n        /* \"Dapp/ShopJR.sol\":3072:3088  require(success) */\n      tag_59\n      jumpi\n      revert(0x00, 0x00)\n    tag_59:\n        /* \"Dapp/ShopJR.sol\":2989:3095  {... */\n      pop\n        /* \"Dapp/ShopJR.sol\":2952:3095  function withdraw() public onlyOwner {... */\n      jump\t// out\n        /* \"Dapp/ShopJR.sol\":898:1567  function list(... */\n    tag_18:\n        /* \"Dapp/ShopJR.sol\":838:848  msg.sender */\n      caller\n        /* \"Dapp/ShopJR.sol\":829:848  owner == msg.sender */\n      0xffffffffffffffffffffffffffffffffffffffff\n      and\n        /* \"Dapp/ShopJR.sol\":829:834  owner */\n      0x00\n      0x00\n      swap1\n      sload\n      swap1\n      0x0100\n      exp\n      swap1\n      div\n      0xffffffffffffffffffffffffffffffffffffffff\n      and\n        /* \"Dapp/ShopJR.sol\":829:848  owner == msg.sender */\n      0xffffffffffffffffffffffffffffffffffffffff\n      and\n      eq\n        /* \"Dapp/ShopJR.sol\":821:874  require(owner == msg.sender, \"You are not the owenr\") */\n      tag_61\n      jumpi\n      mload(0x40)\n      0x08c379a000000000000000000000000000000000000000000000000000000000\n      dup2\n      mstore\n      0x04\n      add\n      tag_62\n      swap1\n      tag_52\n      jump\t// in\n    tag_62:\n      mload(0x40)\n      dup1\n      swap2\n      sub\n      swap1\n      revert\n    tag_61:\n        /* \"Dapp/ShopJR.sol\":1173:1195  Product memory product */\n      0x00\n        /* \"Dapp/ShopJR.sol\":1198:1381  Product(... */\n      mload(0x40)\n      dup1\n      0x0100\n      add\n      0x40\n      mstore\n      dup1\n        /* \"Dapp/ShopJR.sol\":1219:1222  _id */\n      dup14\n        /* \"Dapp/ShopJR.sol\":1198:1381  Product(... */\n      dup2\n      mstore\n      0x20\n      add\n        /* \"Dapp/ShopJR.sol\":1236:1241  _name */\n      dup13\n      dup13\n        /* \"Dapp/ShopJR.sol\":1198:1381  Product(... */\n      dup1\n      dup1\n      0x1f\n      add\n      0x20\n      dup1\n      swap2\n      div\n      mul\n      0x20\n      add\n      mload(0x40)\n      swap1\n      dup2\n      add\n      0x40\n      mstore\n      dup1\n      swap4\n      swap3\n      swap2\n      swap1\n      dup2\n      dup2\n      mstore\n      0x20\n      add\n      dup4\n      dup4\n      dup1\n      dup3\n      dup5\n      calldatacopy\n      0x00\n      dup2\n      dup5\n      add\n      mstore\n      not(0x1f)\n      0x1f\n      dup3\n      add\n      and\n      swap1\n      pop\n      dup1\n      dup4\n      add\n      swap3\n      pop\n      pop\n      pop\n      pop\n      pop\n      pop\n      pop\n      dup2\n      mstore\n      0x20\n      add\n        /* \"Dapp/ShopJR.sol\":1255:1264  _category */\n      dup11\n      dup11\n        /* \"Dapp/ShopJR.sol\":1198:1381  Product(... */\n      dup1\n      dup1\n      0x1f\n      add\n      0x20\n      dup1\n      swap2\n      div\n      mul\n      0x20\n      add\n      mload(0x40)\n      swap1\n      dup2\n      add\n      0x40\n      mstore\n      dup1\n      swap4\n      swap3\n      swap2\n      swap1\n      dup2\n      dup2\n      mstore\n      0x20\n      add\n      dup4\n      dup4\n      dup1\n      dup3\n      dup5\n      calldatacopy\n      0x00\n      dup2\n      dup5\n      add\n      mstore\n      not(0x1f)\n      0x1f\n      dup3\n      add\n      and\n      swap1\n      pop\n      dup1\n      dup4\n      add\n      swap3\n      pop\n      pop\n      pop\n      pop\n      pop\n      pop\n      pop\n      dup2\n      mstore\n      0x20\n      add\n        /* \"Dapp/ShopJR.sol\":1278:1290  _description */\n      dup9\n      dup9\n        /* \"Dapp/ShopJR.sol\":1198:1381  Product(... */\n      dup1\n      dup1\n      0x1f\n      add\n      0x20\n      dup1\n      swap2\n      div\n      mul\n      0x20\n      add\n      mload(0x40)\n      swap1\n      dup2\n      add\n      0x40\n      mstore\n      dup1\n      swap4\n      swap3\n      swap2\n      swap1\n      dup2\n      dup2\n      mstore\n      0x20\n      add\n      dup4\n      dup4\n      dup1\n      dup3\n      dup5\n      calldatacopy\n      0x00\n      dup2\n      dup5\n      add\n      mstore\n      not(0x1f)\n      0x1f\n      dup3\n      add\n      and\n      swap1\n      pop\n      dup1\n      dup4\n      add\n      swap3\n      pop\n      pop\n      pop\n      pop\n      pop\n      pop\n      pop\n      dup2\n      mstore\n      0x20\n      add\n        /* \"Dapp/ShopJR.sol\":1304:1310  _image */\n      dup7\n        /* \"Dapp/ShopJR.sol\":1198:1381  Product(... */\n      dup2\n      mstore\n      0x20\n      add\n        /* \"Dapp/ShopJR.sol\":1324:1330  _price */\n      dup6\n        /* \"Dapp/ShopJR.sol\":1198:1381  Product(... */\n      dup2\n      mstore\n      0x20\n      add\n        /* \"Dapp/ShopJR.sol\":1344:1351  _review */\n      dup5\n        /* \"Dapp/ShopJR.sol\":1198:1381  Product(... */\n      dup2\n      mstore\n      0x20\n      add\n        /* \"Dapp/ShopJR.sol\":1365:1371  _stock */\n      dup4\n        /* \"Dapp/ShopJR.sol\":1198:1381  Product(... */\n      dup2\n      mstore\n      pop\n        /* \"Dapp/ShopJR.sol\":1173:1381  Product memory product = Product(... */\n      swap1\n      pop\n        /* \"Dapp/ShopJR.sol\":1420:1423  _id */\n      dup12\n        /* \"Dapp/ShopJR.sol\":1400:1408  products */\n      0x02\n        /* \"Dapp/ShopJR.sol\":1400:1413  products[_id] */\n      0x00\n        /* \"Dapp/ShopJR.sol\":1409:1412  _id */\n      dup15\n        /* \"Dapp/ShopJR.sol\":1400:1413  products[_id] */\n      dup2\n      mstore\n      0x20\n      add\n      swap1\n      dup2\n      mstore\n      0x20\n      add\n      0x00\n      keccak256\n        /* \"Dapp/ShopJR.sol\":1400:1416  products[_id].id */\n      0x00\n      add\n      sload\n        /* \"Dapp/ShopJR.sol\":1400:1423  products[_id].id != _id */\n      sub\n        /* \"Dapp/ShopJR.sol\":1392:1453  require(products[_id].id != _id, \"Product is already Exist.\") */\n      tag_64\n      jumpi\n      mload(0x40)\n      0x08c379a000000000000000000000000000000000000000000000000000000000\n      dup2\n      mstore\n      0x04\n      add\n      tag_65\n      swap1\n      tag_66\n      jump\t// in\n    tag_65:\n      mload(0x40)\n      dup1\n      swap2\n      sub\n      swap1\n      revert\n    tag_64:\n        /* \"Dapp/ShopJR.sol\":1480:1487  product */\n      dup1\n        /* \"Dapp/ShopJR.sol\":1464:1472  products */\n      0x02\n        /* \"Dapp/ShopJR.sol\":1464:1477  products[_id] */\n      0x00\n        /* \"Dapp/ShopJR.sol\":1473:1476  _id */\n      dup15\n        /* \"Dapp/ShopJR.sol\":1464:1477  products[_id] */\n      dup2\n      mstore\n      0x20\n      add\n      swap1\n      dup2\n      mstore\n      0x20\n      add\n      0x00\n      keccak256\n        /* \"Dapp/ShopJR.sol\":1464:1487  products[_id] = product */\n      0x00\n      dup3\n      add\n      mload\n      dup2\n      0x00\n      add\n      sstore\n      0x20\n      dup3\n      add\n      mload\n      dup2\n      0x01\n      add\n      swap1\n      dup2\n      tag_67\n      swap2\n      swap1\n      tag_68\n      jump\t// in\n    tag_67:\n      pop\n      0x40\n      dup3\n      add\n      mload\n      dup2\n      0x02\n      add\n      swap1\n      dup2\n      tag_69\n      swap2\n      swap1\n      tag_68\n      jump\t// in\n    tag_69:\n      pop\n      0x60\n      dup3\n      add\n      mload\n      dup2\n      0x03\n      add\n      swap1\n      dup2\n      tag_70\n      swap2\n      swap1\n      tag_68\n      jump\t// in\n    tag_70:\n      pop\n      0x80\n      dup3\n      add\n      mload\n      dup2\n      0x04\n      add\n      swap1\n      dup2\n      tag_71\n      swap2\n      swap1\n      tag_68\n      jump\t// in\n    tag_71:\n      pop\n      0xa0\n      dup3\n      add\n      mload\n      dup2\n      0x05\n      add\n      sstore\n      0xc0\n      dup3\n      add\n      mload\n      dup2\n      0x06\n      add\n      sstore\n      0xe0\n      dup3\n      add\n      mload\n      dup2\n      0x07\n      add\n      sstore\n      swap1\n      pop\n      pop\n        /* \"Dapp/ShopJR.sol\":1497:1507  productIds */\n      0x01\n        /* \"Dapp/ShopJR.sol\":1513:1516  _id */\n      dup13\n        /* \"Dapp/ShopJR.sol\":1497:1517  productIds.push(_id) */\n      swap1\n      dup1\n      0x01\n      dup2\n      sload\n      add\n      dup1\n      dup3\n      sstore\n      dup1\n      swap2\n      pop\n      pop\n      0x01\n      swap1\n      sub\n      swap1\n      0x00\n      mstore\n      keccak256(0x00, 0x20)\n      add\n      0x00\n      swap1\n      swap2\n      swap1\n      swap2\n      swap1\n      swap2\n      pop\n      sstore\n        /* \"Dapp/ShopJR.sol\":1533:1560  List(_name, _price, _stock) */\n      0xfdbe2a012c10ec01592653978eaa09b5ca60b143a0e617505b2ebcbd911ec5b8\n        /* \"Dapp/ShopJR.sol\":1538:1543  _name */\n      dup12\n      dup12\n        /* \"Dapp/ShopJR.sol\":1545:1551  _price */\n      dup7\n        /* \"Dapp/ShopJR.sol\":1553:1559  _stock */\n      dup6\n        /* \"Dapp/ShopJR.sol\":1533:1560  List(_name, _price, _stock) */\n      mload(0x40)\n      tag_73\n      swap5\n      swap4\n      swap3\n      swap2\n      swap1\n      tag_74\n      jump\t// in\n    tag_73:\n      mload(0x40)\n      dup1\n      swap2\n      sub\n      swap1\n      log1\n        /* \"Dapp/ShopJR.sol\":1163:1567  {... */\n      pop\n        /* \"Dapp/ShopJR.sol\":898:1567  function list(... */\n      pop\n      pop\n      pop\n      pop\n      pop\n      pop\n      pop\n      pop\n      pop\n      pop\n      pop\n      jump\t// out\n        /* \"Dapp/ShopJR.sol\":79:99  address public owner */\n    tag_21:\n      0x00\n      0x00\n      swap1\n      sload\n      swap1\n      0x0100\n      exp\n      swap1\n      div\n      0xffffffffffffffffffffffffffffffffffffffff\n      and\n      dup2\n      jump\t// out\n        /* \"Dapp/ShopJR.sol\":1982:2097  function updateStock(uint256 id, uint256 newStock) public onlyOwner {... */\n    tag_28:\n        /* \"Dapp/ShopJR.sol\":838:848  msg.sender */\n      caller\n        /* \"Dapp/ShopJR.sol\":829:848  owner == msg.sender */\n      0xffffffffffffffffffffffffffffffffffffffff\n      and\n        /* \"Dapp/ShopJR.sol\":829:834  owner */\n      0x00\n      0x00\n      swap1\n      sload\n      swap1\n      0x0100\n      exp\n      swap1\n      div\n      0xffffffffffffffffffffffffffffffffffffffff\n      and\n        /* \"Dapp/ShopJR.sol\":829:848  owner == msg.sender */\n      0xffffffffffffffffffffffffffffffffffffffff\n      and\n      eq\n        /* \"Dapp/ShopJR.sol\":821:874  require(owner == msg.sender, \"You are not the owenr\") */\n      tag_76\n      jumpi\n      mload(0x40)\n      0x08c379a000000000000000000000000000000000000000000000000000000000\n      dup2\n      mstore\n      0x04\n      add\n      tag_77\n      swap1\n      tag_52\n      jump\t// in\n    tag_77:\n      mload(0x40)\n      dup1\n      swap2\n      sub\n      swap1\n      revert\n    tag_76:\n        /* \"Dapp/ShopJR.sol\":2082:2090  newStock */\n      dup1\n        /* \"Dapp/ShopJR.sol\":2060:2068  products */\n      0x02\n        /* \"Dapp/ShopJR.sol\":2060:2072  products[id] */\n      0x00\n        /* \"Dapp/ShopJR.sol\":2069:2071  id */\n      dup5\n        /* \"Dapp/ShopJR.sol\":2060:2072  products[id] */\n      dup2\n      mstore\n      0x20\n      add\n      swap1\n      dup2\n      mstore\n      0x20\n      add\n      0x00\n      keccak256\n        /* \"Dapp/ShopJR.sol\":2060:2078  products[id].stock */\n      0x07\n      add\n      0x00\n        /* \"Dapp/ShopJR.sol\":2060:2090  products[id].stock += newStock */\n      dup3\n      dup3\n      sload\n      tag_79\n      swap2\n      swap1\n      tag_80\n      jump\t// in\n    tag_79:\n      swap3\n      pop\n      pop\n      dup2\n      swap1\n      sstore\n      pop\n        /* \"Dapp/ShopJR.sol\":1982:2097  function updateStock(uint256 id, uint256 newStock) public onlyOwner {... */\n      pop\n      pop\n      jump\t// out\n        /* \"Dapp/ShopJR.sol\":1573:1678  function getProduct(uint256 id) public view returns (Product memory) {... */\n    tag_33:\n        /* \"Dapp/ShopJR.sol\":1626:1640  Product memory */\n      tag_81\n      tag_82\n      jump\t// in\n    tag_81:\n        /* \"Dapp/ShopJR.sol\":1659:1667  products */\n      0x02\n        /* \"Dapp/ShopJR.sol\":1659:1671  products[id] */\n      0x00\n        /* \"Dapp/ShopJR.sol\":1668:1670  id */\n      dup4\n        /* \"Dapp/ShopJR.sol\":1659:1671  products[id] */\n      dup2\n      mstore\n      0x20\n      add\n      swap1\n      dup2\n      mstore\n      0x20\n      add\n      0x00\n      keccak256\n        /* \"Dapp/ShopJR.sol\":1652:1671  return products[id] */\n      mload(0x40)\n      dup1\n      0x0100\n      add\n      0x40\n      mstore\n      swap1\n      dup2\n      0x00\n      dup3\n      add\n      sload\n      dup2\n      mstore\n      0x20\n      add\n      0x01\n      dup3\n      add\n      dup1\n      sload\n      tag_84\n      swap1\n      tag_85\n      jump\t// in\n    tag_84:\n      dup1\n      0x1f\n      add\n      0x20\n      dup1\n      swap2\n      div\n      mul\n      0x20\n      add\n      mload(0x40)\n      swap1\n      dup2\n      add\n      0x40\n      mstore\n      dup1\n      swap3\n      swap2\n      swap1\n      dup2\n      dup2\n      mstore\n      0x20\n      add\n      dup3\n      dup1\n      sload\n      tag_86\n      swap1\n      tag_85\n      jump\t// in\n    tag_86:\n      dup1\n      iszero\n      tag_87\n      jumpi\n      dup1\n      0x1f\n      lt\n      tag_88\n      jumpi\n      0x0100\n      dup1\n      dup4\n      sload\n      div\n      mul\n      dup4\n      mstore\n      swap2\n      0x20\n      add\n      swap2\n      jump(tag_87)\n    tag_88:\n      dup3\n      add\n      swap2\n      swap1\n      0x00\n      mstore\n      keccak256(0x00, 0x20)\n      swap1\n    tag_89:\n      dup2\n      sload\n      dup2\n      mstore\n      swap1\n      0x01\n      add\n      swap1\n      0x20\n      add\n      dup1\n      dup4\n      gt\n      tag_89\n      jumpi\n      dup3\n      swap1\n      sub\n      0x1f\n      and\n      dup3\n      add\n      swap2\n    tag_87:\n      pop\n      pop\n      pop\n      pop\n      pop\n      dup2\n      mstore\n      0x20\n      add\n      0x02\n      dup3\n      add\n      dup1\n      sload\n      tag_90\n      swap1\n      tag_85\n      jump\t// in\n    tag_90:\n      dup1\n      0x1f\n      add\n      0x20\n      dup1\n      swap2\n      div\n      mul\n      0x20\n      add\n      mload(0x40)\n      swap1\n      dup2\n      add\n      0x40\n      mstore\n      dup1\n      swap3\n      swap2\n      swap1\n      dup2\n      dup2\n      mstore\n      0x20\n      add\n      dup3\n      dup1\n      sload\n      tag_91\n      swap1\n      tag_85\n      jump\t// in\n    tag_91:\n      dup1\n      iszero\n      tag_92\n      jumpi\n      dup1\n      0x1f\n      lt\n      tag_93\n      jumpi\n      0x0100\n      dup1\n      dup4\n      sload\n      div\n      mul\n      dup4\n      mstore\n      swap2\n      0x20\n      add\n      swap2\n      jump(tag_92)\n    tag_93:\n      dup3\n      add\n      swap2\n      swap1\n      0x00\n      mstore\n      keccak256(0x00, 0x20)\n      swap1\n    tag_94:\n      dup2\n      sload\n      dup2\n      mstore\n      swap1\n      0x01\n      add\n      swap1\n      0x20\n      add\n      dup1\n      dup4\n      gt\n      tag_94\n      jumpi\n      dup3\n      swap1\n      sub\n      0x1f\n      and\n      dup3\n      add\n      swap2\n    tag_92:\n      pop\n      pop\n      pop\n      pop\n      pop\n      dup2\n      mstore\n      0x20\n      add\n      0x03\n      dup3\n      add\n      dup1\n      sload\n      tag_95\n      swap1\n      tag_85\n      jump\t// in\n    tag_95:\n      dup1\n      0x1f\n      add\n      0x20\n      dup1\n      swap2\n      div\n      mul\n      0x20\n      add\n      mload(0x40)\n      swap1\n      dup2\n      add\n      0x40\n      mstore\n      dup1\n      swap3\n      swap2\n      swap1\n      dup2\n      dup2\n      mstore\n      0x20\n      add\n      dup3\n      dup1\n      sload\n      tag_96\n      swap1\n      tag_85\n      jump\t// in\n    tag_96:\n      dup1\n      iszero\n      tag_97\n      jumpi\n      dup1\n      0x1f\n      lt\n      tag_98\n      jumpi\n      0x0100\n      dup1\n      dup4\n      sload\n      div\n      mul\n      dup4\n      mstore\n      swap2\n      0x20\n      add\n      swap2\n      jump(tag_97)\n    tag_98:\n      dup3\n      add\n      swap2\n      swap1\n      0x00\n      mstore\n      keccak256(0x00, 0x20)\n      swap1\n    tag_99:\n      dup2\n      sload\n      dup2\n      mstore\n      swap1\n      0x01\n      add\n      swap1\n      0x20\n      add\n      dup1\n      dup4\n      gt\n      tag_99\n      jumpi\n      dup3\n      swap1\n      sub\n      0x1f\n      and\n      dup3\n      add\n      swap2\n    tag_97:\n      pop\n      pop\n      pop\n      pop\n      pop\n      dup2\n      mstore\n      0x20\n      add\n      0x04\n      dup3\n      add\n      dup1\n      sload\n      tag_100\n      swap1\n      tag_85\n      jump\t// in\n    tag_100:\n      dup1\n      0x1f\n      add\n      0x20\n      dup1\n      swap2\n      div\n      mul\n      0x20\n      add\n      mload(0x40)\n      swap1\n      dup2\n      add\n      0x40\n      mstore\n      dup1\n      swap3\n      swap2\n      swap1\n      dup2\n      dup2\n      mstore\n      0x20\n      add\n      dup3\n      dup1\n      sload\n      tag_101\n      swap1\n      tag_85\n      jump\t// in\n    tag_101:\n      dup1\n      iszero\n      tag_102\n      jumpi\n      dup1\n      0x1f\n      lt\n      tag_103\n      jumpi\n      0x0100\n      dup1\n      dup4\n      sload\n      div\n      mul\n      dup4\n      mstore\n      swap2\n      0x20\n      add\n      swap2\n      jump(tag_102)\n    tag_103:\n      dup3\n      add\n      swap2\n      swap1\n      0x00\n      mstore\n      keccak256(0x00, 0x20)\n      swap1\n    tag_104:\n      dup2\n      sload\n      dup2\n      mstore\n      swap1\n      0x01\n      add\n      swap1\n      0x20\n      add\n      dup1\n      dup4\n      gt\n      tag_104\n      jumpi\n      dup3\n      swap1\n      sub\n      0x1f\n      and\n      dup3\n      add\n      swap2\n    tag_102:\n      pop\n      pop\n      pop\n      pop\n      pop\n      dup2\n      mstore\n      0x20\n      add\n      0x05\n      dup3\n      add\n      sload\n      dup2\n      mstore\n      0x20\n      add\n      0x06\n      dup3\n      add\n      sload\n      dup2\n      mstore\n      0x20\n      add\n      0x07\n      dup3\n      add\n      sload\n      dup2\n      mstore\n      pop\n      pop\n      swap1\n      pop\n        /* \"Dapp/ShopJR.sol\":1573:1678  function getProduct(uint256 id) public view returns (Product memory) {... */\n      swap2\n      swap1\n      pop\n      jump\t// out\n        /* \"Dapp/ShopJR.sol\":2103:2394  function getMyOrders() public view returns (Order[] memory) {... */\n    tag_38:\n        /* \"Dapp/ShopJR.sol\":2147:2161  Order[] memory */\n      0x60\n        /* \"Dapp/ShopJR.sol\":2173:2186  uint256 count */\n      0x00\n        /* \"Dapp/ShopJR.sol\":2189:2199  orderCount */\n      0x04\n        /* \"Dapp/ShopJR.sol\":2189:2211  orderCount[msg.sender] */\n      0x00\n        /* \"Dapp/ShopJR.sol\":2200:2210  msg.sender */\n      caller\n        /* \"Dapp/ShopJR.sol\":2189:2211  orderCount[msg.sender] */\n      0xffffffffffffffffffffffffffffffffffffffff\n      and\n      0xffffffffffffffffffffffffffffffffffffffff\n      and\n      dup2\n      mstore\n      0x20\n      add\n      swap1\n      dup2\n      mstore\n      0x20\n      add\n      0x00\n      keccak256\n      sload\n        /* \"Dapp/ShopJR.sol\":2173:2211  uint256 count = orderCount[msg.sender] */\n      swap1\n      pop\n        /* \"Dapp/ShopJR.sol\":2221:2241  Order[] memory order */\n      0x00\n        /* \"Dapp/ShopJR.sol\":2256:2261  count */\n      dup2\n        /* \"Dapp/ShopJR.sol\":2244:2262  new Order[](count) */\n      0xffffffffffffffff\n      dup2\n      gt\n      iszero\n      tag_106\n      jumpi\n      tag_107\n      tag_108\n      jump\t// in\n    tag_107:\n    tag_106:\n      mload(0x40)\n      swap1\n      dup1\n      dup3\n      mstore\n      dup1\n      0x20\n      mul\n      0x20\n      add\n      dup3\n      add\n      0x40\n      mstore\n      dup1\n      iszero\n      tag_109\n      jumpi\n      dup2\n      0x20\n      add\n    tag_110:\n      tag_111\n      tag_112\n      jump\t// in\n    tag_111:\n      dup2\n      mstore\n      0x20\n      add\n      swap1\n      0x01\n      swap1\n      sub\n      swap1\n      dup2\n      tag_110\n      jumpi\n      swap1\n      pop\n    tag_109:\n      pop\n        /* \"Dapp/ShopJR.sol\":2221:2262  Order[] memory order = new Order[](count) */\n      swap1\n      pop\n        /* \"Dapp/ShopJR.sol\":2277:2286  uint256 i */\n      0x00\n        /* \"Dapp/ShopJR.sol\":2289:2290  0 */\n      0x00\n        /* \"Dapp/ShopJR.sol\":2277:2290  uint256 i = 0 */\n      swap1\n      pop\n        /* \"Dapp/ShopJR.sol\":2272:2365  for (uint256 i = 0; i < count; i++) {... */\n    tag_113:\n        /* \"Dapp/ShopJR.sol\":2296:2301  count */\n      dup3\n        /* \"Dapp/ShopJR.sol\":2292:2293  i */\n      dup2\n        /* \"Dapp/ShopJR.sol\":2292:2301  i < count */\n      lt\n        /* \"Dapp/ShopJR.sol\":2272:2365  for (uint256 i = 0; i < count; i++) {... */\n      iszero\n      tag_114\n      jumpi\n        /* \"Dapp/ShopJR.sol\":2333:2339  orders */\n      0x03\n        /* \"Dapp/ShopJR.sol\":2333:2351  orders[msg.sender] */\n      0x00\n        /* \"Dapp/ShopJR.sol\":2340:2350  msg.sender */\n      caller\n        /* \"Dapp/ShopJR.sol\":2333:2351  orders[msg.sender] */\n      0xffffffffffffffffffffffffffffffffffffffff\n      and\n      0xffffffffffffffffffffffffffffffffffffffff\n      and\n      dup2\n      mstore\n      0x20\n      add\n      swap1\n      dup2\n      mstore\n      0x20\n      add\n      0x00\n      keccak256\n        /* \"Dapp/ShopJR.sol\":2333:2354  orders[msg.sender][i] */\n      0x00\n        /* \"Dapp/ShopJR.sol\":2352:2353  i */\n      dup3\n        /* \"Dapp/ShopJR.sol\":2333:2354  orders[msg.sender][i] */\n      dup2\n      mstore\n      0x20\n      add\n      swap1\n      dup2\n      mstore\n      0x20\n      add\n      0x00\n      keccak256\n        /* \"Dapp/ShopJR.sol\":2322:2354  order[i] = orders[msg.sender][i] */\n      mload(0x40)\n      dup1\n      0x40\n      add\n      0x40\n      mstore\n      swap1\n      dup2\n      0x00\n      dup3\n      add\n      mload(0x40)\n      dup1\n      0x0100\n      add\n      0x40\n      mstore\n      swap1\n      dup2\n      0x00\n      dup3\n      add\n      sload\n      dup2\n      mstore\n      0x20\n      add\n      0x01\n      dup3\n      add\n      dup1\n      sload\n      tag_116\n      swap1\n      tag_85\n      jump\t// in\n    tag_116:\n      dup1\n      0x1f\n      add\n      0x20\n      dup1\n      swap2\n      div\n      mul\n      0x20\n      add\n      mload(0x40)\n      swap1\n      dup2\n      add\n      0x40\n      mstore\n      dup1\n      swap3\n      swap2\n      swap1\n      dup2\n      dup2\n      mstore\n      0x20\n      add\n      dup3\n      dup1\n      sload\n      tag_117\n      swap1\n      tag_85\n      jump\t// in\n    tag_117:\n      dup1\n      iszero\n      tag_118\n      jumpi\n      dup1\n      0x1f\n      lt\n      tag_119\n      jumpi\n      0x0100\n      dup1\n      dup4\n      sload\n      div\n      mul\n      dup4\n      mstore\n      swap2\n      0x20\n      add\n      swap2\n      jump(tag_118)\n    tag_119:\n      dup3\n      add\n      swap2\n      swap1\n      0x00\n      mstore\n      keccak256(0x00, 0x20)\n      swap1\n    tag_120:\n      dup2\n      sload\n      dup2\n      mstore\n      swap1\n      0x01\n      add\n      swap1\n      0x20\n      add\n      dup1\n      dup4\n      gt\n      tag_120\n      jumpi\n      dup3\n      swap1\n      sub\n      0x1f\n      and\n      dup3\n      add\n      swap2\n    tag_118:\n      pop\n      pop\n      pop\n      pop\n      pop\n      dup2\n      mstore\n      0x20\n      add\n      0x02\n      dup3\n      add\n      dup1\n      sload\n      tag_121\n      swap1\n      tag_85\n      jump\t// in\n    tag_121:\n      dup1\n      0x1f\n      add\n      0x20\n      dup1\n      swap2\n      div\n      mul\n      0x20\n      add\n      mload(0x40)\n      swap1\n      dup2\n      add\n      0x40\n      mstore\n      dup1\n      swap3\n      swap2\n      swap1\n      dup2\n      dup2\n      mstore\n      0x20\n      add\n      dup3\n      dup1\n      sload\n      tag_122\n      swap1\n      tag_85\n      jump\t// in\n    tag_122:\n      dup1\n      iszero\n      tag_123\n      jumpi\n      dup1\n      0x1f\n      lt\n      tag_124\n      jumpi\n      0x0100\n      dup1\n      dup4\n      sload\n      div\n      mul\n      dup4\n      mstore\n      swap2\n      0x20\n      add\n      swap2\n      jump(tag_123)\n    tag_124:\n      dup3\n      add\n      swap2\n      swap1\n      0x00\n      mstore\n      keccak256(0x00, 0x20)\n      swap1\n    tag_125:\n      dup2\n      sload\n      dup2\n      mstore\n      swap1\n      0x01\n      add\n      swap1\n      0x20\n      add\n      dup1\n      dup4\n      gt\n      tag_125\n      jumpi\n      dup3\n      swap1\n      sub\n      0x1f\n      and\n      dup3\n      add\n      swap2\n    tag_123:\n      pop\n      pop\n      pop\n      pop\n      pop\n      dup2\n      mstore\n      0x20\n      add\n      0x03\n      dup3\n      add\n      dup1\n      sload\n      tag_126\n      swap1\n      tag_85\n      jump\t// in\n    tag_126:\n      dup1\n      0x1f\n      add\n      0x20\n      dup1\n      swap2\n      div\n      mul\n      0x20\n      add\n      mload(0x40)\n      swap1\n      dup2\n      add\n      0x40\n      mstore\n      dup1\n      swap3\n      swap2\n      swap1\n      dup2\n      dup2\n      mstore\n      0x20\n      add\n      dup3\n      dup1\n      sload\n      tag_127\n      swap1\n      tag_85\n      jump\t// in\n    tag_127:\n      dup1\n      iszero\n      tag_128\n      jumpi\n      dup1\n      0x1f\n      lt\n      tag_129\n      jumpi\n      0x0100\n      dup1\n      dup4\n      sload\n      div\n      mul\n      dup4\n      mstore\n      swap2\n      0x20\n      add\n      swap2\n      jump(tag_128)\n    tag_129:\n      dup3\n      add\n      swap2\n      swap1\n      0x00\n      mstore\n      keccak256(0x00, 0x20)\n      swap1\n    tag_130:\n      dup2\n      sload\n      dup2\n      mstore\n      swap1\n      0x01\n      add\n      swap1\n      0x20\n      add\n      dup1\n      dup4\n      gt\n      tag_130\n      jumpi\n      dup3\n      swap1\n      sub\n      0x1f\n      and\n      dup3\n      add\n      swap2\n    tag_128:\n      pop\n      pop\n      pop\n      pop\n      pop\n      dup2\n      mstore\n      0x20\n      add\n      0x04\n      dup3\n      add\n      dup1\n      sload\n      tag_131\n      swap1\n      tag_85\n      jump\t// in\n    tag_131:\n      dup1\n      0x1f\n      add\n      0x20\n      dup1\n      swap2\n      div\n      mul\n      0x20\n      add\n      mload(0x40)\n      swap1\n      dup2\n      add\n      0x40\n      mstore\n      dup1\n      swap3\n      swap2\n      swap1\n      dup2\n      dup2\n      mstore\n      0x20\n      add\n      dup3\n      dup1\n      sload\n      tag_132\n      swap1\n      tag_85\n      jump\t// in\n    tag_132:\n      dup1\n      iszero\n      tag_133\n      jumpi\n      dup1\n      0x1f\n      lt\n      tag_134\n      jumpi\n      0x0100\n      dup1\n      dup4\n      sload\n      div\n      mul\n      dup4\n      mstore\n      swap2\n      0x20\n      add\n      swap2\n      jump(tag_133)\n    tag_134:\n      dup3\n      add\n      swap2\n      swap1\n      0x00\n      mstore\n      keccak256(0x00, 0x20)\n      swap1\n    tag_135:\n      dup2\n      sload\n      dup2\n      mstore\n      swap1\n      0x01\n      add\n      swap1\n      0x20\n      add\n      dup1\n      dup4\n      gt\n      tag_135\n      jumpi\n      dup3\n      swap1\n      sub\n      0x1f\n      and\n      dup3\n      add\n      swap2\n    tag_133:\n      pop\n      pop\n      pop\n      pop\n      pop\n      dup2\n      mstore\n      0x20\n      add\n      0x05\n      dup3\n      add\n      sload\n      dup2\n      mstore\n      0x20\n      add\n      0x06\n      dup3\n      add\n      sload\n      dup2\n      mstore\n      0x20\n      add\n      0x07\n      dup3\n      add\n      sload\n      dup2\n      mstore\n      pop\n      pop\n      dup2\n      mstore\n      0x20\n      add\n      0x08\n      dup3\n      add\n      sload\n      dup2\n      mstore\n      pop\n      pop\n        /* \"Dapp/ShopJR.sol\":2322:2327  order */\n      dup3\n        /* \"Dapp/ShopJR.sol\":2328:2329  i */\n      dup3\n        /* \"Dapp/ShopJR.sol\":2322:2330  order[i] */\n      dup2\n      mload\n      dup2\n      lt\n      tag_136\n      jumpi\n      tag_137\n      tag_138\n      jump\t// in\n    tag_137:\n    tag_136:\n      0x20\n      mul\n      0x20\n      add\n      add\n        /* \"Dapp/ShopJR.sol\":2322:2354  order[i] = orders[msg.sender][i] */\n      dup2\n      swap1\n      mstore\n      pop\n        /* \"Dapp/ShopJR.sol\":2303:2306  i++ */\n      dup1\n      dup1\n      0x01\n      add\n      swap2\n      pop\n      pop\n        /* \"Dapp/ShopJR.sol\":2272:2365  for (uint256 i = 0; i < count; i++) {... */\n      jump(tag_113)\n    tag_114:\n      pop\n        /* \"Dapp/ShopJR.sol\":2382:2387  order */\n      dup1\n        /* \"Dapp/ShopJR.sol\":2375:2387  return order */\n      swap3\n      pop\n      pop\n      pop\n        /* \"Dapp/ShopJR.sol\":2103:2394  function getMyOrders() public view returns (Order[] memory) {... */\n      swap1\n      jump\t// out\n        /* \"Dapp/ShopJR.sol\":1684:1976  function getAllProduct() public view returns (Product[] memory) {... */\n    tag_43:\n        /* \"Dapp/ShopJR.sol\":1730:1746  Product[] memory */\n      0x60\n        /* \"Dapp/ShopJR.sol\":1758:1785  Product[] memory allProduct */\n      0x00\n        /* \"Dapp/ShopJR.sol\":1802:1812  productIds */\n      0x01\n        /* \"Dapp/ShopJR.sol\":1802:1819  productIds.length */\n      dup1\n      sload\n      swap1\n      pop\n        /* \"Dapp/ShopJR.sol\":1788:1820  new Product[](productIds.length) */\n      0xffffffffffffffff\n      dup2\n      gt\n      iszero\n      tag_140\n      jumpi\n      tag_141\n      tag_108\n      jump\t// in\n    tag_141:\n    tag_140:\n      mload(0x40)\n      swap1\n      dup1\n      dup3\n      mstore\n      dup1\n      0x20\n      mul\n      0x20\n      add\n      dup3\n      add\n      0x40\n      mstore\n      dup1\n      iszero\n      tag_142\n      jumpi\n      dup2\n      0x20\n      add\n    tag_143:\n      tag_144\n      tag_82\n      jump\t// in\n    tag_144:\n      dup2\n      mstore\n      0x20\n      add\n      swap1\n      0x01\n      swap1\n      sub\n      swap1\n      dup2\n      tag_143\n      jumpi\n      swap1\n      pop\n    tag_142:\n      pop\n        /* \"Dapp/ShopJR.sol\":1758:1820  Product[] memory allProduct = new Product[](productIds.length) */\n      swap1\n      pop\n        /* \"Dapp/ShopJR.sol\":1835:1844  uint256 i */\n      0x00\n        /* \"Dapp/ShopJR.sol\":1847:1848  0 */\n      0x00\n        /* \"Dapp/ShopJR.sol\":1835:1848  uint256 i = 0 */\n      swap1\n      pop\n        /* \"Dapp/ShopJR.sol\":1830:1942  for (uint256 i = 0; i < productIds.length; i++) {... */\n    tag_145:\n        /* \"Dapp/ShopJR.sol\":1854:1864  productIds */\n      0x01\n        /* \"Dapp/ShopJR.sol\":1854:1871  productIds.length */\n      dup1\n      sload\n      swap1\n      pop\n        /* \"Dapp/ShopJR.sol\":1850:1851  i */\n      dup2\n        /* \"Dapp/ShopJR.sol\":1850:1871  i < productIds.length */\n      lt\n        /* \"Dapp/ShopJR.sol\":1830:1942  for (uint256 i = 0; i < productIds.length; i++) {... */\n      iszero\n      tag_146\n      jumpi\n        /* \"Dapp/ShopJR.sol\":1908:1916  products */\n      0x02\n        /* \"Dapp/ShopJR.sol\":1908:1931  products[productIds[i]] */\n      0x00\n        /* \"Dapp/ShopJR.sol\":1917:1927  productIds */\n      0x01\n        /* \"Dapp/ShopJR.sol\":1928:1929  i */\n      dup4\n        /* \"Dapp/ShopJR.sol\":1917:1930  productIds[i] */\n      dup2\n      sload\n      dup2\n      lt\n      tag_148\n      jumpi\n      tag_149\n      tag_138\n      jump\t// in\n    tag_149:\n    tag_148:\n      swap1\n      0x00\n      mstore\n      keccak256(0x00, 0x20)\n      add\n      sload\n        /* \"Dapp/ShopJR.sol\":1908:1931  products[productIds[i]] */\n      dup2\n      mstore\n      0x20\n      add\n      swap1\n      dup2\n      mstore\n      0x20\n      add\n      0x00\n      keccak256\n        /* \"Dapp/ShopJR.sol\":1892:1931  allProduct[i] = products[productIds[i]] */\n      mload(0x40)\n      dup1\n      0x0100\n      add\n      0x40\n      mstore\n      swap1\n      dup2\n      0x00\n      dup3\n      add\n      sload\n      dup2\n      mstore\n      0x20\n      add\n      0x01\n      dup3\n      add\n      dup1\n      sload\n      tag_151\n      swap1\n      tag_85\n      jump\t// in\n    tag_151:\n      dup1\n      0x1f\n      add\n      0x20\n      dup1\n      swap2\n      div\n      mul\n      0x20\n      add\n      mload(0x40)\n      swap1\n      dup2\n      add\n      0x40\n      mstore\n      dup1\n      swap3\n      swap2\n      swap1\n      dup2\n      dup2\n      mstore\n      0x20\n      add\n      dup3\n      dup1\n      sload\n      tag_152\n      swap1\n      tag_85\n      jump\t// in\n    tag_152:\n      dup1\n      iszero\n      tag_153\n      jumpi\n      dup1\n      0x1f\n      lt\n      tag_154\n      jumpi\n      0x0100\n      dup1\n      dup4\n      sload\n      div\n      mul\n      dup4\n      mstore\n      swap2\n      0x20\n      add\n      swap2\n      jump(tag_153)\n    tag_154:\n      dup3\n      add\n      swap2\n      swap1\n      0x00\n      mstore\n      keccak256(0x00, 0x20)\n      swap1\n    tag_155:\n      dup2\n      sload\n      dup2\n      mstore\n      swap1\n      0x01\n      add\n      swap1\n      0x20\n      add\n      dup1\n      dup4\n      gt\n      tag_155\n      jumpi\n      dup3\n      swap1\n      sub\n      0x1f\n      and\n      dup3\n      add\n      swap2\n    tag_153:\n      pop\n      pop\n      pop\n      pop\n      pop\n      dup2\n      mstore\n      0x20\n      add\n      0x02\n      dup3\n      add\n      dup1\n      sload\n      tag_156\n      swap1\n      tag_85\n      jump\t// in\n    tag_156:\n      dup1\n      0x1f\n      add\n      0x20\n      dup1\n      swap2\n      div\n      mul\n      0x20\n      add\n      mload(0x40)\n      swap1\n      dup2\n      add\n      0x40\n      mstore\n      dup1\n      swap3\n      swap2\n      swap1\n      dup2\n      dup2\n      mstore\n      0x20\n      add\n      dup3\n      dup1\n      sload\n      tag_157\n      swap1\n      tag_85\n      jump\t// in\n    tag_157:\n      dup1\n      iszero\n      tag_158\n      jumpi\n      dup1\n      0x1f\n      lt\n      tag_159\n      jumpi\n      0x0100\n      dup1\n      dup4\n      sload\n      div\n      mul\n      dup4\n      mstore\n      swap2\n      0x20\n      add\n      swap2\n      jump(tag_158)\n    tag_159:\n      dup3\n      add\n      swap2\n      swap1\n      0x00\n      mstore\n      keccak256(0x00, 0x20)\n      swap1\n    tag_160:\n      dup2\n      sload\n      dup2\n      mstore\n      swap1\n      0x01\n      add\n      swap1\n      0x20\n      add\n      dup1\n      dup4\n      gt\n      tag_160\n      jumpi\n      dup3\n      swap1\n      sub\n      0x1f\n      and\n      dup3\n      add\n      swap2\n    tag_158:\n      pop\n      pop\n      pop\n      pop\n      pop\n      dup2\n      mstore\n      0x20\n      add\n      0x03\n      dup3\n      add\n      dup1\n      sload\n      tag_161\n      swap1\n      tag_85\n      jump\t// in\n    tag_161:\n      dup1\n      0x1f\n      add\n      0x20\n      dup1\n      swap2\n      div\n      mul\n      0x20\n      add\n      mload(0x40)\n      swap1\n      dup2\n      add\n      0x40\n      mstore\n      dup1\n      swap3\n      swap2\n      swap1\n      dup2\n      dup2\n      mstore\n      0x20\n      add\n      dup3\n      dup1\n      sload\n      tag_162\n      swap1\n      tag_85\n      jump\t// in\n    tag_162:\n      dup1\n      iszero\n      tag_163\n      jumpi\n      dup1\n      0x1f\n      lt\n      tag_164\n      jumpi\n      0x0100\n      dup1\n      dup4\n      sload\n      div\n      mul\n      dup4\n      mstore\n      swap2\n      0x20\n      add\n      swap2\n      jump(tag_163)\n    tag_164:\n      dup3\n      add\n      swap2\n      swap1\n      0x00\n      mstore\n      keccak256(0x00, 0x20)\n      swap1\n    tag_165:\n      dup2\n      sload\n      dup2\n      mstore\n      swap1\n      0x01\n      add\n      swap1\n      0x20\n      add\n      dup1\n      dup4\n      gt\n      tag_165\n      jumpi\n      dup3\n      swap1\n      sub\n      0x1f\n      and\n      dup3\n      add\n      swap2\n    tag_163:\n      pop\n      pop\n      pop\n      pop\n      pop\n      dup2\n      mstore\n      0x20\n      add\n      0x04\n      dup3\n      add\n      dup1\n      sload\n      tag_166\n      swap1\n      tag_85\n      jump\t// in\n    tag_166:\n      dup1\n      0x1f\n      add\n      0x20\n      dup1\n      swap2\n      div\n      mul\n      0x20\n      add\n      mload(0x40)\n      swap1\n      dup2\n      add\n      0x40\n      mstore\n      dup1\n      swap3\n      swap2\n      swap1\n      dup2\n      dup2\n      mstore\n      0x20\n      add\n      dup3\n      dup1\n      sload\n      tag_167\n      swap1\n      tag_85\n      jump\t// in\n    tag_167:\n      dup1\n      iszero\n      tag_168\n      jumpi\n      dup1\n      0x1f\n      lt\n      tag_169\n      jumpi\n      0x0100\n      dup1\n      dup4\n      sload\n      div\n      mul\n      dup4\n      mstore\n      swap2\n      0x20\n      add\n      swap2\n      jump(tag_168)\n    tag_169:\n      dup3\n      add\n      swap2\n      swap1\n      0x00\n      mstore\n      keccak256(0x00, 0x20)\n      swap1\n    tag_170:\n      dup2\n      sload\n      dup2\n      mstore\n      swap1\n      0x01\n      add\n      swap1\n      0x20\n      add\n      dup1\n      dup4\n      gt\n      tag_170\n      jumpi\n      dup3\n      swap1\n      sub\n      0x1f\n      and\n      dup3\n      add\n      swap2\n    tag_168:\n      pop\n      pop\n      pop\n      pop\n      pop\n      dup2\n      mstore\n      0x20\n      add\n      0x05\n      dup3\n      add\n      sload\n      dup2\n      mstore\n      0x20\n      add\n      0x06\n      dup3\n      add\n      sload\n      dup2\n      mstore\n      0x20\n      add\n      0x07\n      dup3\n      add\n      sload\n      dup2\n      mstore\n      pop\n      pop\n        /* \"Dapp/ShopJR.sol\":1892:1902  allProduct */\n      dup3\n        /* \"Dapp/ShopJR.sol\":1903:1904  i */\n      dup3\n        /* \"Dapp/ShopJR.sol\":1892:1905  allProduct[i] */\n      dup2\n      mload\n      dup2\n      lt\n      tag_171\n      jumpi\n      tag_172\n      tag_138\n      jump\t// in\n    tag_172:\n    tag_171:\n      0x20\n      mul\n      0x20\n      add\n      add\n        /* \"Dapp/ShopJR.sol\":1892:1931  allProduct[i] = products[productIds[i]] */\n      dup2\n      swap1\n      mstore\n      pop\n        /* \"Dapp/ShopJR.sol\":1873:1876  i++ */\n      dup1\n      dup1\n      0x01\n      add\n      swap2\n      pop\n      pop\n        /* \"Dapp/ShopJR.sol\":1830:1942  for (uint256 i = 0; i < productIds.length; i++) {... */\n      jump(tag_145)\n    tag_146:\n      pop\n        /* \"Dapp/ShopJR.sol\":1959:1969  allProduct */\n      dup1\n        /* \"Dapp/ShopJR.sol\":1952:1969  return allProduct */\n      swap2\n      pop\n      pop\n        /* \"Dapp/ShopJR.sol\":1684:1976  function getAllProduct() public view returns (Product[] memory) {... */\n      swap1\n      jump\t// out\n        /* \"Dapp/ShopJR.sol\":2400:2946  function buy(uint256 id) public payable {... */\n    tag_48:\n        /* \"Dapp/ShopJR.sol\":2450:2472  Product memory product */\n      0x00\n        /* \"Dapp/ShopJR.sol\":2475:2483  products */\n      0x02\n        /* \"Dapp/ShopJR.sol\":2475:2487  products[id] */\n      0x00\n        /* \"Dapp/ShopJR.sol\":2484:2486  id */\n      dup4\n        /* \"Dapp/ShopJR.sol\":2475:2487  products[id] */\n      dup2\n      mstore\n      0x20\n      add\n      swap1\n      dup2\n      mstore\n      0x20\n      add\n      0x00\n      keccak256\n        /* \"Dapp/ShopJR.sol\":2450:2487  Product memory product = products[id] */\n      mload(0x40)\n      dup1\n      0x0100\n      add\n      0x40\n      mstore\n      swap1\n      dup2\n      0x00\n      dup3\n      add\n      sload\n      dup2\n      mstore\n      0x20\n      add\n      0x01\n      dup3\n      add\n      dup1\n      sload\n      tag_174\n      swap1\n      tag_85\n      jump\t// in\n    tag_174:\n      dup1\n      0x1f\n      add\n      0x20\n      dup1\n      swap2\n      div\n      mul\n      0x20\n      add\n      mload(0x40)\n      swap1\n      dup2\n      add\n      0x40\n      mstore\n      dup1\n      swap3\n      swap2\n      swap1\n      dup2\n      dup2\n      mstore\n      0x20\n      add\n      dup3\n      dup1\n      sload\n      tag_175\n      swap1\n      tag_85\n      jump\t// in\n    tag_175:\n      dup1\n      iszero\n      tag_176\n      jumpi\n      dup1\n      0x1f\n      lt\n      tag_177\n      jumpi\n      0x0100\n      dup1\n      dup4\n      sload\n      div\n      mul\n      dup4\n      mstore\n      swap2\n      0x20\n      add\n      swap2\n      jump(tag_176)\n    tag_177:\n      dup3\n      add\n      swap2\n      swap1\n      0x00\n      mstore\n      keccak256(0x00, 0x20)\n      swap1\n    tag_178:\n      dup2\n      sload\n      dup2\n      mstore\n      swap1\n      0x01\n      add\n      swap1\n      0x20\n      add\n      dup1\n      dup4\n      gt\n      tag_178\n      jumpi\n      dup3\n      swap1\n      sub\n      0x1f\n      and\n      dup3\n      add\n      swap2\n    tag_176:\n      pop\n      pop\n      pop\n      pop\n      pop\n      dup2\n      mstore\n      0x20\n      add\n      0x02\n      dup3\n      add\n      dup1\n      sload\n      tag_179\n      swap1\n      tag_85\n      jump\t// in\n    tag_179:\n      dup1\n      0x1f\n      add\n      0x20\n      dup1\n      swap2\n      div\n      mul\n      0x20\n      add\n      mload(0x40)\n      swap1\n      dup2\n      add\n      0x40\n      mstore\n      dup1\n      swap3\n      swap2\n      swap1\n      dup2\n      dup2\n      mstore\n      0x20\n      add\n      dup3\n      dup1\n      sload\n      tag_180\n      swap1\n      tag_85\n      jump\t// in\n    tag_180:\n      dup1\n      iszero\n      tag_181\n      jumpi\n      dup1\n      0x1f\n      lt\n      tag_182\n      jumpi\n      0x0100\n      dup1\n      dup4\n      sload\n      div\n      mul\n      dup4\n      mstore\n      swap2\n      0x20\n      add\n      swap2\n      jump(tag_181)\n    tag_182:\n      dup3\n      add\n      swap2\n      swap1\n      0x00\n      mstore\n      keccak256(0x00, 0x20)\n      swap1\n    tag_183:\n      dup2\n      sload\n      dup2\n      mstore\n      swap1\n      0x01\n      add\n      swap1\n      0x20\n      add\n      dup1\n      dup4\n      gt\n      tag_183\n      jumpi\n      dup3\n      swap1\n      sub\n      0x1f\n      and\n      dup3\n      add\n      swap2\n    tag_181:\n      pop\n      pop\n      pop\n      pop\n      pop\n      dup2\n      mstore\n      0x20\n      add\n      0x03\n      dup3\n      add\n      dup1\n      sload\n      tag_184\n      swap1\n      tag_85\n      jump\t// in\n    tag_184:\n      dup1\n      0x1f\n      add\n      0x20\n      dup1\n      swap2\n      div\n      mul\n      0x20\n      add\n      mload(0x40)\n      swap1\n      dup2\n      add\n      0x40\n      mstore\n      dup1\n      swap3\n      swap2\n      swap1\n      dup2\n      dup2\n      mstore\n      0x20\n      add\n      dup3\n      dup1\n      sload\n      tag_185\n      swap1\n      tag_85\n      jump\t// in\n    tag_185:\n      dup1\n      iszero\n      tag_186\n      jumpi\n      dup1\n      0x1f\n      lt\n      tag_187\n      jumpi\n      0x0100\n      dup1\n      dup4\n      sload\n      div\n      mul\n      dup4\n      mstore\n      swap2\n      0x20\n      add\n      swap2\n      jump(tag_186)\n    tag_187:\n      dup3\n      add\n      swap2\n      swap1\n      0x00\n      mstore\n      keccak256(0x00, 0x20)\n      swap1\n    tag_188:\n      dup2\n      sload\n      dup2\n      mstore\n      swap1\n      0x01\n      add\n      swap1\n      0x20\n      add\n      dup1\n      dup4\n      gt\n      tag_188\n      jumpi\n      dup3\n      swap1\n      sub\n      0x1f\n      and\n      dup3\n      add\n      swap2\n    tag_186:\n      pop\n      pop\n      pop\n      pop\n      pop\n      dup2\n      mstore\n      0x20\n      add\n      0x04\n      dup3\n      add\n      dup1\n      sload\n      tag_189\n      swap1\n      tag_85\n      jump\t// in\n    tag_189:\n      dup1\n      0x1f\n      add\n      0x20\n      dup1\n      swap2\n      div\n      mul\n      0x20\n      add\n      mload(0x40)\n      swap1\n      dup2\n      add\n      0x40\n      mstore\n      dup1\n      swap3\n      swap2\n      swap1\n      dup2\n      dup2\n      mstore\n      0x20\n      add\n      dup3\n      dup1\n      sload\n      tag_190\n      swap1\n      tag_85\n      jump\t// in\n    tag_190:\n      dup1\n      iszero\n      tag_191\n      jumpi\n      dup1\n      0x1f\n      lt\n      tag_192\n      jumpi\n      0x0100\n      dup1\n      dup4\n      sload\n      div\n      mul\n      dup4\n      mstore\n      swap2\n      0x20\n      add\n      swap2\n      jump(tag_191)\n    tag_192:\n      dup3\n      add\n      swap2\n      swap1\n      0x00\n      mstore\n      keccak256(0x00, 0x20)\n      swap1\n    tag_193:\n      dup2\n      sload\n      dup2\n      mstore\n      swap1\n      0x01\n      add\n      swap1\n      0x20\n      add\n      dup1\n      dup4\n      gt\n      tag_193\n      jumpi\n      dup3\n      swap1\n      sub\n      0x1f\n      and\n      dup3\n      add\n      swap2\n    tag_191:\n      pop\n      pop\n      pop\n      pop\n      pop\n      dup2\n      mstore\n      0x20\n      add\n      0x05\n      dup3\n      add\n      sload\n      dup2\n      mstore\n      0x20\n      add\n      0x06\n      dup3\n      add\n      sload\n      dup2\n      mstore\n      0x20\n      add\n      0x07\n      dup3\n      add\n      sload\n      dup2\n      mstore\n      pop\n      pop\n      swap1\n      pop\n        /* \"Dapp/ShopJR.sol\":2532:2539  product */\n      dup1\n        /* \"Dapp/ShopJR.sol\":2532:2545  product.price */\n      0xa0\n      add\n      mload\n        /* \"Dapp/ShopJR.sol\":2519:2528  msg.value */\n      callvalue\n        /* \"Dapp/ShopJR.sol\":2519:2545  msg.value >= product.price */\n      lt\n      iszero\n        /* \"Dapp/ShopJR.sol\":2498:2604  require(... */\n      tag_194\n      jumpi\n      mload(0x40)\n      0x08c379a000000000000000000000000000000000000000000000000000000000\n      dup2\n      mstore\n      0x04\n      add\n      tag_195\n      swap1\n      tag_196\n      jump\t// in\n    tag_195:\n      mload(0x40)\n      dup1\n      swap2\n      sub\n      swap1\n      revert\n    tag_194:\n        /* \"Dapp/ShopJR.sol\":2639:2640  0 */\n      0x00\n        /* \"Dapp/ShopJR.sol\":2623:2630  product */\n      dup2\n        /* \"Dapp/ShopJR.sol\":2623:2636  product.stock */\n      0xe0\n      add\n      mload\n        /* \"Dapp/ShopJR.sol\":2623:2640  product.stock > 0 */\n      gt\n        /* \"Dapp/ShopJR.sol\":2615:2681  require(product.stock > 0, \"Sorry, this product is not available\") */\n      tag_197\n      jumpi\n      mload(0x40)\n      0x08c379a000000000000000000000000000000000000000000000000000000000\n      dup2\n      mstore\n      0x04\n      add\n      tag_198\n      swap1\n      tag_199\n      jump\t// in\n    tag_198:\n      mload(0x40)\n      dup1\n      swap2\n      sub\n      swap1\n      revert\n    tag_197:\n        /* \"Dapp/ShopJR.sol\":2692:2710  Order memory order */\n      0x00\n        /* \"Dapp/ShopJR.sol\":2713:2744  Order(product, block.timestamp) */\n      mload(0x40)\n      dup1\n      0x40\n      add\n      0x40\n      mstore\n      dup1\n        /* \"Dapp/ShopJR.sol\":2719:2726  product */\n      dup4\n        /* \"Dapp/ShopJR.sol\":2713:2744  Order(product, block.timestamp) */\n      dup2\n      mstore\n      0x20\n      add\n        /* \"Dapp/ShopJR.sol\":2728:2743  block.timestamp */\n      timestamp\n        /* \"Dapp/ShopJR.sol\":2713:2744  Order(product, block.timestamp) */\n      dup2\n      mstore\n      pop\n        /* \"Dapp/ShopJR.sol\":2692:2744  Order memory order = Order(product, block.timestamp) */\n      swap1\n      pop\n        /* \"Dapp/ShopJR.sol\":2754:2764  orderCount */\n      0x04\n        /* \"Dapp/ShopJR.sol\":2754:2776  orderCount[msg.sender] */\n      0x00\n        /* \"Dapp/ShopJR.sol\":2765:2775  msg.sender */\n      caller\n        /* \"Dapp/ShopJR.sol\":2754:2776  orderCount[msg.sender] */\n      0xffffffffffffffffffffffffffffffffffffffff\n      and\n      0xffffffffffffffffffffffffffffffffffffffff\n      and\n      dup2\n      mstore\n      0x20\n      add\n      swap1\n      dup2\n      mstore\n      0x20\n      add\n      0x00\n      keccak256\n      0x00\n        /* \"Dapp/ShopJR.sol\":2754:2778  orderCount[msg.sender]++ */\n      dup2\n      sload\n      dup1\n      swap3\n      swap2\n      swap1\n      tag_200\n      swap1\n      tag_201\n      jump\t// in\n    tag_200:\n      swap2\n      swap1\n      pop\n      sstore\n      pop\n        /* \"Dapp/ShopJR.sol\":2834:2839  order */\n      dup1\n        /* \"Dapp/ShopJR.sol\":2789:2795  orders */\n      0x03\n        /* \"Dapp/ShopJR.sol\":2789:2807  orders[msg.sender] */\n      0x00\n        /* \"Dapp/ShopJR.sol\":2796:2806  msg.sender */\n      caller\n        /* \"Dapp/ShopJR.sol\":2789:2807  orders[msg.sender] */\n      0xffffffffffffffffffffffffffffffffffffffff\n      and\n      0xffffffffffffffffffffffffffffffffffffffff\n      and\n      dup2\n      mstore\n      0x20\n      add\n      swap1\n      dup2\n      mstore\n      0x20\n      add\n      0x00\n      keccak256\n        /* \"Dapp/ShopJR.sol\":2789:2831  orders[msg.sender][orderCount[msg.sender]] */\n      0x00\n        /* \"Dapp/ShopJR.sol\":2808:2818  orderCount */\n      0x04\n        /* \"Dapp/ShopJR.sol\":2808:2830  orderCount[msg.sender] */\n      0x00\n        /* \"Dapp/ShopJR.sol\":2819:2829  msg.sender */\n      caller\n        /* \"Dapp/ShopJR.sol\":2808:2830  orderCount[msg.sender] */\n      0xffffffffffffffffffffffffffffffffffffffff\n      and\n      0xffffffffffffffffffffffffffffffffffffffff\n      and\n      dup2\n      mstore\n      0x20\n      add\n      swap1\n      dup2\n      mstore\n      0x20\n      add\n      0x00\n      keccak256\n      sload\n        /* \"Dapp/ShopJR.sol\":2789:2831  orders[msg.sender][orderCount[msg.sender]] */\n      dup2\n      mstore\n      0x20\n      add\n      swap1\n      dup2\n      mstore\n      0x20\n      add\n      0x00\n      keccak256\n        /* \"Dapp/ShopJR.sol\":2789:2839  orders[msg.sender][orderCount[msg.sender]] = order */\n      0x00\n      dup3\n      add\n      mload\n      dup2\n      0x00\n      add\n      0x00\n      dup3\n      add\n      mload\n      dup2\n      0x00\n      add\n      sstore\n      0x20\n      dup3\n      add\n      mload\n      dup2\n      0x01\n      add\n      swap1\n      dup2\n      tag_202\n      swap2\n      swap1\n      tag_68\n      jump\t// in\n    tag_202:\n      pop\n      0x40\n      dup3\n      add\n      mload\n      dup2\n      0x02\n      add\n      swap1\n      dup2\n      tag_203\n      swap2\n      swap1\n      tag_68\n      jump\t// in\n    tag_203:\n      pop\n      0x60\n      dup3\n      add\n      mload\n      dup2\n      0x03\n      add\n      swap1\n      dup2\n      tag_204\n      swap2\n      swap1\n      tag_68\n      jump\t// in\n    tag_204:\n      pop\n      0x80\n      dup3\n      add\n      mload\n      dup2\n      0x04\n      add\n      swap1\n      dup2\n      tag_205\n      swap2\n      swap1\n      tag_68\n      jump\t// in\n    tag_205:\n      pop\n      0xa0\n      dup3\n      add\n      mload\n      dup2\n      0x05\n      add\n      sstore\n      0xc0\n      dup3\n      add\n      mload\n      dup2\n      0x06\n      add\n      sstore\n      0xe0\n      dup3\n      add\n      mload\n      dup2\n      0x07\n      add\n      sstore\n      pop\n      pop\n      0x20\n      dup3\n      add\n      mload\n      dup2\n      0x08\n      add\n      sstore\n      swap1\n      pop\n      pop\n        /* \"Dapp/ShopJR.sol\":2886:2887  1 */\n      0x01\n        /* \"Dapp/ShopJR.sol\":2870:2877  product */\n      dup3\n        /* \"Dapp/ShopJR.sol\":2870:2883  product.stock */\n      0xe0\n      add\n      mload\n        /* \"Dapp/ShopJR.sol\":2870:2887  product.stock - 1 */\n      tag_206\n      swap2\n      swap1\n      tag_207\n      jump\t// in\n    tag_206:\n        /* \"Dapp/ShopJR.sol\":2849:2857  products */\n      0x02\n        /* \"Dapp/ShopJR.sol\":2849:2861  products[id] */\n      0x00\n        /* \"Dapp/ShopJR.sol\":2858:2860  id */\n      dup6\n        /* \"Dapp/ShopJR.sol\":2849:2861  products[id] */\n      dup2\n      mstore\n      0x20\n      add\n      swap1\n      dup2\n      mstore\n      0x20\n      add\n      0x00\n      keccak256\n        /* \"Dapp/ShopJR.sol\":2849:2867  products[id].stock */\n      0x07\n      add\n        /* \"Dapp/ShopJR.sol\":2849:2887  products[id].stock = product.stock - 1 */\n      dup2\n      swap1\n      sstore\n      pop\n        /* \"Dapp/ShopJR.sol\":2903:2939  Purchase(msg.sender, id, product.id) */\n      0x12cb4648cf3058b17ceeb33e579f8b0bc269fe0843f3900b8e24b6c54871703c\n        /* \"Dapp/ShopJR.sol\":2912:2922  msg.sender */\n      caller\n        /* \"Dapp/ShopJR.sol\":2924:2926  id */\n      dup5\n        /* \"Dapp/ShopJR.sol\":2928:2935  product */\n      dup5\n        /* \"Dapp/ShopJR.sol\":2928:2938  product.id */\n      0x00\n      add\n      mload\n        /* \"Dapp/ShopJR.sol\":2903:2939  Purchase(msg.sender, id, product.id) */\n      mload(0x40)\n      tag_208\n      swap4\n      swap3\n      swap2\n      swap1\n      tag_209\n      jump\t// in\n    tag_208:\n      mload(0x40)\n      dup1\n      swap2\n      sub\n      swap1\n      log1\n        /* \"Dapp/ShopJR.sol\":2440:2946  {... */\n      pop\n      pop\n        /* \"Dapp/ShopJR.sol\":2400:2946  function buy(uint256 id) public payable {... */\n      pop\n      jump\t// out\n    tag_82:\n      mload(0x40)\n      dup1\n      0x0100\n      add\n      0x40\n      mstore\n      dup1\n      0x00\n      dup2\n      mstore\n      0x20\n      add\n      0x60\n      dup2\n      mstore\n      0x20\n      add\n      0x60\n      dup2\n      mstore\n      0x20\n      add\n      0x60\n      dup2\n      mstore\n      0x20\n      add\n      0x60\n      dup2\n      mstore\n      0x20\n      add\n      0x00\n      dup2\n      mstore\n      0x20\n      add\n      0x00\n      dup2\n      mstore\n      0x20\n      add\n      0x00\n      dup2\n      mstore\n      pop\n      swap1\n      jump\t// out\n    tag_112:\n      mload(0x40)\n      dup1\n      0x40\n      add\n      0x40\n      mstore\n      dup1\n      tag_210\n      tag_82\n      jump\t// in\n    tag_210:\n      dup2\n      mstore\n      0x20\n      add\n      0x00\n      dup2\n      mstore\n      pop\n      swap1\n      jump\t// out\n        /* \"#utility.yul\":7:82   */\n    tag_211:\n        /* \"#utility.yul\":40:46   */\n      0x00\n        /* \"#utility.yul\":73:75   */\n      0x40\n        /* \"#utility.yul\":67:76   */\n      mload\n        /* \"#utility.yul\":57:76   */\n      swap1\n      pop\n        /* \"#utility.yul\":7:82   */\n      swap1\n      jump\t// out\n        /* \"#utility.yul\":88:205   */\n    tag_212:\n        /* \"#utility.yul\":197:198   */\n      0x00\n        /* \"#utility.yul\":194:195   */\n      0x00\n        /* \"#utility.yul\":187:199   */\n      revert\n        /* \"#utility.yul\":211:328   */\n    tag_213:\n        /* \"#utility.yul\":320:321   */\n      0x00\n        /* \"#utility.yul\":317:318   */\n      0x00\n        /* \"#utility.yul\":310:322   */\n      revert\n        /* \"#utility.yul\":334:411   */\n    tag_214:\n        /* \"#utility.yul\":371:378   */\n      0x00\n        /* \"#utility.yul\":400:405   */\n      dup2\n        /* \"#utility.yul\":389:405   */\n      swap1\n      pop\n        /* \"#utility.yul\":334:411   */\n      swap2\n      swap1\n      pop\n      jump\t// out\n        /* \"#utility.yul\":417:539   */\n    tag_215:\n        /* \"#utility.yul\":490:514   */\n      tag_289\n        /* \"#utility.yul\":508:513   */\n      dup2\n        /* \"#utility.yul\":490:514   */\n      tag_214\n      jump\t// in\n    tag_289:\n        /* \"#utility.yul\":483:488   */\n      dup2\n        /* \"#utility.yul\":480:515   */\n      eq\n        /* \"#utility.yul\":470:533   */\n      tag_290\n      jumpi\n        /* \"#utility.yul\":529:530   */\n      0x00\n        /* \"#utility.yul\":526:527   */\n      0x00\n        /* \"#utility.yul\":519:531   */\n      revert\n        /* \"#utility.yul\":470:533   */\n    tag_290:\n        /* \"#utility.yul\":417:539   */\n      pop\n      jump\t// out\n        /* \"#utility.yul\":545:684   */\n    tag_216:\n        /* \"#utility.yul\":591:596   */\n      0x00\n        /* \"#utility.yul\":629:635   */\n      dup2\n        /* \"#utility.yul\":616:636   */\n      calldataload\n        /* \"#utility.yul\":607:636   */\n      swap1\n      pop\n        /* \"#utility.yul\":645:678   */\n      tag_292\n        /* \"#utility.yul\":672:677   */\n      dup2\n        /* \"#utility.yul\":645:678   */\n      tag_215\n      jump\t// in\n    tag_292:\n        /* \"#utility.yul\":545:684   */\n      swap3\n      swap2\n      pop\n      pop\n      jump\t// out\n        /* \"#utility.yul\":690:807   */\n    tag_217:\n        /* \"#utility.yul\":799:800   */\n      0x00\n        /* \"#utility.yul\":796:797   */\n      0x00\n        /* \"#utility.yul\":789:801   */\n      revert\n        /* \"#utility.yul\":813:930   */\n    tag_218:\n        /* \"#utility.yul\":922:923   */\n      0x00\n        /* \"#utility.yul\":919:920   */\n      0x00\n        /* \"#utility.yul\":912:924   */\n      revert\n        /* \"#utility.yul\":936:1053   */\n    tag_219:\n        /* \"#utility.yul\":1045:1046   */\n      0x00\n        /* \"#utility.yul\":1042:1043   */\n      0x00\n        /* \"#utility.yul\":1035:1047   */\n      revert\n        /* \"#utility.yul\":1073:1626   */\n    tag_220:\n        /* \"#utility.yul\":1131:1139   */\n      0x00\n        /* \"#utility.yul\":1141:1147   */\n      0x00\n        /* \"#utility.yul\":1191:1194   */\n      dup4\n        /* \"#utility.yul\":1184:1188   */\n      0x1f\n        /* \"#utility.yul\":1176:1182   */\n      dup5\n        /* \"#utility.yul\":1172:1189   */\n      add\n        /* \"#utility.yul\":1168:1195   */\n      slt\n        /* \"#utility.yul\":1158:1280   */\n      tag_297\n      jumpi\n        /* \"#utility.yul\":1199:1278   */\n      tag_298\n      tag_217\n      jump\t// in\n    tag_298:\n        /* \"#utility.yul\":1158:1280   */\n    tag_297:\n        /* \"#utility.yul\":1312:1318   */\n      dup3\n        /* \"#utility.yul\":1299:1319   */\n      calldataload\n        /* \"#utility.yul\":1289:1319   */\n      swap1\n      pop\n        /* \"#utility.yul\":1342:1360   */\n      0xffffffffffffffff\n        /* \"#utility.yul\":1334:1340   */\n      dup2\n        /* \"#utility.yul\":1331:1361   */\n      gt\n        /* \"#utility.yul\":1328:1445   */\n      iszero\n      tag_299\n      jumpi\n        /* \"#utility.yul\":1364:1443   */\n      tag_300\n      tag_218\n      jump\t// in\n    tag_300:\n        /* \"#utility.yul\":1328:1445   */\n    tag_299:\n        /* \"#utility.yul\":1478:1482   */\n      0x20\n        /* \"#utility.yul\":1470:1476   */\n      dup4\n        /* \"#utility.yul\":1466:1483   */\n      add\n        /* \"#utility.yul\":1454:1483   */\n      swap2\n      pop\n        /* \"#utility.yul\":1532:1535   */\n      dup4\n        /* \"#utility.yul\":1524:1528   */\n      0x01\n        /* \"#utility.yul\":1516:1522   */\n      dup3\n        /* \"#utility.yul\":1512:1529   */\n      mul\n        /* \"#utility.yul\":1502:1510   */\n      dup4\n        /* \"#utility.yul\":1498:1530   */\n      add\n        /* \"#utility.yul\":1495:1536   */\n      gt\n        /* \"#utility.yul\":1492:1620   */\n      iszero\n      tag_301\n      jumpi\n        /* \"#utility.yul\":1539:1618   */\n      tag_302\n      tag_219\n      jump\t// in\n    tag_302:\n        /* \"#utility.yul\":1492:1620   */\n    tag_301:\n        /* \"#utility.yul\":1073:1626   */\n      swap3\n      pop\n      swap3\n      swap1\n      pop\n      jump\t// out\n        /* \"#utility.yul\":1632:1749   */\n    tag_221:\n        /* \"#utility.yul\":1741:1742   */\n      0x00\n        /* \"#utility.yul\":1738:1739   */\n      0x00\n        /* \"#utility.yul\":1731:1743   */\n      revert\n        /* \"#utility.yul\":1755:1857   */\n    tag_222:\n        /* \"#utility.yul\":1796:1802   */\n      0x00\n        /* \"#utility.yul\":1847:1849   */\n      0x1f\n        /* \"#utility.yul\":1843:1850   */\n      not\n        /* \"#utility.yul\":1838:1840   */\n      0x1f\n        /* \"#utility.yul\":1831:1836   */\n      dup4\n        /* \"#utility.yul\":1827:1841   */\n      add\n        /* \"#utility.yul\":1823:1851   */\n      and\n        /* \"#utility.yul\":1813:1851   */\n      swap1\n      pop\n        /* \"#utility.yul\":1755:1857   */\n      swap2\n      swap1\n      pop\n      jump\t// out\n        /* \"#utility.yul\":1863:2043   */\n    tag_108:\n        /* \"#utility.yul\":1911:1988   */\n      0x4e487b7100000000000000000000000000000000000000000000000000000000\n        /* \"#utility.yul\":1908:1909   */\n      0x00\n        /* \"#utility.yul\":1901:1989   */\n      mstore\n        /* \"#utility.yul\":2008:2012   */\n      0x41\n        /* \"#utility.yul\":2005:2006   */\n      0x04\n        /* \"#utility.yul\":1998:2013   */\n      mstore\n        /* \"#utility.yul\":2032:2036   */\n      0x24\n        /* \"#utility.yul\":2029:2030   */\n      0x00\n        /* \"#utility.yul\":2022:2037   */\n      revert\n        /* \"#utility.yul\":2049:2330   */\n    tag_223:\n        /* \"#utility.yul\":2132:2159   */\n      tag_307\n        /* \"#utility.yul\":2154:2158   */\n      dup3\n        /* \"#utility.yul\":2132:2159   */\n      tag_222\n      jump\t// in\n    tag_307:\n        /* \"#utility.yul\":2124:2130   */\n      dup2\n        /* \"#utility.yul\":2120:2160   */\n      add\n        /* \"#utility.yul\":2262:2268   */\n      dup2\n        /* \"#utility.yul\":2250:2260   */\n      dup2\n        /* \"#utility.yul\":2247:2269   */\n      lt\n        /* \"#utility.yul\":2226:2244   */\n      0xffffffffffffffff\n        /* \"#utility.yul\":2214:2224   */\n      dup3\n        /* \"#utility.yul\":2211:2245   */\n      gt\n        /* \"#utility.yul\":2208:2270   */\n      or\n        /* \"#utility.yul\":2205:2293   */\n      iszero\n      tag_308\n      jumpi\n        /* \"#utility.yul\":2273:2291   */\n      tag_309\n      tag_108\n      jump\t// in\n    tag_309:\n        /* \"#utility.yul\":2205:2293   */\n    tag_308:\n        /* \"#utility.yul\":2313:2323   */\n      dup1\n        /* \"#utility.yul\":2309:2311   */\n      0x40\n        /* \"#utility.yul\":2302:2324   */\n      mstore\n        /* \"#utility.yul\":2092:2330   */\n      pop\n        /* \"#utility.yul\":2049:2330   */\n      pop\n      pop\n      jump\t// out\n        /* \"#utility.yul\":2336:2465   */\n    tag_224:\n        /* \"#utility.yul\":2370:2376   */\n      0x00\n        /* \"#utility.yul\":2397:2417   */\n      tag_311\n      tag_211\n      jump\t// in\n    tag_311:\n        /* \"#utility.yul\":2387:2417   */\n      swap1\n      pop\n        /* \"#utility.yul\":2426:2459   */\n      tag_312\n        /* \"#utility.yul\":2454:2458   */\n      dup3\n        /* \"#utility.yul\":2446:2452   */\n      dup3\n        /* \"#utility.yul\":2426:2459   */\n      tag_223\n      jump\t// in\n    tag_312:\n        /* \"#utility.yul\":2336:2465   */\n      swap2\n      swap1\n      pop\n      jump\t// out\n        /* \"#utility.yul\":2471:2779   */\n    tag_225:\n        /* \"#utility.yul\":2533:2537   */\n      0x00\n        /* \"#utility.yul\":2623:2641   */\n      0xffffffffffffffff\n        /* \"#utility.yul\":2615:2621   */\n      dup3\n        /* \"#utility.yul\":2612:2642   */\n      gt\n        /* \"#utility.yul\":2609:2665   */\n      iszero\n      tag_314\n      jumpi\n        /* \"#utility.yul\":2645:2663   */\n      tag_315\n      tag_108\n      jump\t// in\n    tag_315:\n        /* \"#utility.yul\":2609:2665   */\n    tag_314:\n        /* \"#utility.yul\":2683:2712   */\n      tag_316\n        /* \"#utility.yul\":2705:2711   */\n      dup3\n        /* \"#utility.yul\":2683:2712   */\n      tag_222\n      jump\t// in\n    tag_316:\n        /* \"#utility.yul\":2675:2712   */\n      swap1\n      pop\n        /* \"#utility.yul\":2767:2771   */\n      0x20\n        /* \"#utility.yul\":2761:2765   */\n      dup2\n        /* \"#utility.yul\":2757:2772   */\n      add\n        /* \"#utility.yul\":2749:2772   */\n      swap1\n      pop\n        /* \"#utility.yul\":2471:2779   */\n      swap2\n      swap1\n      pop\n      jump\t// out\n        /* \"#utility.yul\":2785:2933   */\n    tag_226:\n        /* \"#utility.yul\":2883:2889   */\n      dup3\n        /* \"#utility.yul\":2878:2881   */\n      dup2\n        /* \"#utility.yul\":2873:2876   */\n      dup4\n        /* \"#utility.yul\":2860:2890   */\n      calldatacopy\n        /* \"#utility.yul\":2924:2925   */\n      0x00\n        /* \"#utility.yul\":2915:2921   */\n      dup4\n        /* \"#utility.yul\":2910:2913   */\n      dup4\n        /* \"#utility.yul\":2906:2922   */\n      add\n        /* \"#utility.yul\":2899:2926   */\n      mstore\n        /* \"#utility.yul\":2785:2933   */\n      pop\n      pop\n      pop\n      jump\t// out\n        /* \"#utility.yul\":2939:3364   */\n    tag_227:\n        /* \"#utility.yul\":3017:3022   */\n      0x00\n        /* \"#utility.yul\":3042:3108   */\n      tag_319\n        /* \"#utility.yul\":3058:3107   */\n      tag_320\n        /* \"#utility.yul\":3100:3106   */\n      dup5\n        /* \"#utility.yul\":3058:3107   */\n      tag_225\n      jump\t// in\n    tag_320:\n        /* \"#utility.yul\":3042:3108   */\n      tag_224\n      jump\t// in\n    tag_319:\n        /* \"#utility.yul\":3033:3108   */\n      swap1\n      pop\n        /* \"#utility.yul\":3131:3137   */\n      dup3\n        /* \"#utility.yul\":3124:3129   */\n      dup2\n        /* \"#utility.yul\":3117:3138   */\n      mstore\n        /* \"#utility.yul\":3169:3173   */\n      0x20\n        /* \"#utility.yul\":3162:3167   */\n      dup2\n        /* \"#utility.yul\":3158:3174   */\n      add\n        /* \"#utility.yul\":3207:3210   */\n      dup5\n        /* \"#utility.yul\":3198:3204   */\n      dup5\n        /* \"#utility.yul\":3193:3196   */\n      dup5\n        /* \"#utility.yul\":3189:3205   */\n      add\n        /* \"#utility.yul\":3186:3211   */\n      gt\n        /* \"#utility.yul\":3183:3295   */\n      iszero\n      tag_321\n      jumpi\n        /* \"#utility.yul\":3214:3293   */\n      tag_322\n      tag_221\n      jump\t// in\n    tag_322:\n        /* \"#utility.yul\":3183:3295   */\n    tag_321:\n        /* \"#utility.yul\":3304:3358   */\n      tag_323\n        /* \"#utility.yul\":3351:3357   */\n      dup5\n        /* \"#utility.yul\":3346:3349   */\n      dup3\n        /* \"#utility.yul\":3341:3344   */\n      dup6\n        /* \"#utility.yul\":3304:3358   */\n      tag_226\n      jump\t// in\n    tag_323:\n        /* \"#utility.yul\":3023:3364   */\n      pop\n        /* \"#utility.yul\":2939:3364   */\n      swap4\n      swap3\n      pop\n      pop\n      pop\n      jump\t// out\n        /* \"#utility.yul\":3384:3724   */\n    tag_228:\n        /* \"#utility.yul\":3440:3445   */\n      0x00\n        /* \"#utility.yul\":3489:3492   */\n      dup3\n        /* \"#utility.yul\":3482:3486   */\n      0x1f\n        /* \"#utility.yul\":3474:3480   */\n      dup4\n        /* \"#utility.yul\":3470:3487   */\n      add\n        /* \"#utility.yul\":3466:3493   */\n      slt\n        /* \"#utility.yul\":3456:3578   */\n      tag_325\n      jumpi\n        /* \"#utility.yul\":3497:3576   */\n      tag_326\n      tag_217\n      jump\t// in\n    tag_326:\n        /* \"#utility.yul\":3456:3578   */\n    tag_325:\n        /* \"#utility.yul\":3614:3620   */\n      dup2\n        /* \"#utility.yul\":3601:3621   */\n      calldataload\n        /* \"#utility.yul\":3639:3718   */\n      tag_327\n        /* \"#utility.yul\":3714:3717   */\n      dup5\n        /* \"#utility.yul\":3706:3712   */\n      dup3\n        /* \"#utility.yul\":3699:3703   */\n      0x20\n        /* \"#utility.yul\":3691:3697   */\n      dup7\n        /* \"#utility.yul\":3687:3704   */\n      add\n        /* \"#utility.yul\":3639:3718   */\n      tag_227\n      jump\t// in\n    tag_327:\n        /* \"#utility.yul\":3630:3718   */\n      swap2\n      pop\n        /* \"#utility.yul\":3446:3724   */\n      pop\n        /* \"#utility.yul\":3384:3724   */\n      swap3\n      swap2\n      pop\n      pop\n      jump\t// out\n        /* \"#utility.yul\":3730:5861   */\n    tag_17:\n        /* \"#utility.yul\":3898:3904   */\n      0x00\n        /* \"#utility.yul\":3906:3912   */\n      0x00\n        /* \"#utility.yul\":3914:3920   */\n      0x00\n        /* \"#utility.yul\":3922:3928   */\n      0x00\n        /* \"#utility.yul\":3930:3936   */\n      0x00\n        /* \"#utility.yul\":3938:3944   */\n      0x00\n        /* \"#utility.yul\":3946:3952   */\n      0x00\n        /* \"#utility.yul\":3954:3960   */\n      0x00\n        /* \"#utility.yul\":3962:3968   */\n      0x00\n        /* \"#utility.yul\":3970:3976   */\n      0x00\n        /* \"#utility.yul\":3978:3985   */\n      0x00\n        /* \"#utility.yul\":4028:4031   */\n      0x0100\n        /* \"#utility.yul\":4016:4025   */\n      dup13\n        /* \"#utility.yul\":4007:4014   */\n      dup15\n        /* \"#utility.yul\":4003:4026   */\n      sub\n        /* \"#utility.yul\":3999:4032   */\n      slt\n        /* \"#utility.yul\":3996:4116   */\n      iszero\n      tag_329\n      jumpi\n        /* \"#utility.yul\":4035:4114   */\n      tag_330\n      tag_212\n      jump\t// in\n    tag_330:\n        /* \"#utility.yul\":3996:4116   */\n    tag_329:\n        /* \"#utility.yul\":4155:4156   */\n      0x00\n        /* \"#utility.yul\":4180:4233   */\n      tag_331\n        /* \"#utility.yul\":4225:4232   */\n      dup15\n        /* \"#utility.yul\":4216:4222   */\n      dup3\n        /* \"#utility.yul\":4205:4214   */\n      dup16\n        /* \"#utility.yul\":4201:4223   */\n      add\n        /* \"#utility.yul\":4180:4233   */\n      tag_216\n      jump\t// in\n    tag_331:\n        /* \"#utility.yul\":4170:4233   */\n      swap12\n      pop\n        /* \"#utility.yul\":4126:4243   */\n      pop\n        /* \"#utility.yul\":4310:4312   */\n      0x20\n        /* \"#utility.yul\":4299:4308   */\n      dup13\n        /* \"#utility.yul\":4295:4313   */\n      add\n        /* \"#utility.yul\":4282:4314   */\n      calldataload\n        /* \"#utility.yul\":4341:4359   */\n      0xffffffffffffffff\n        /* \"#utility.yul\":4333:4339   */\n      dup2\n        /* \"#utility.yul\":4330:4360   */\n      gt\n        /* \"#utility.yul\":4327:4444   */\n      iszero\n      tag_332\n      jumpi\n        /* \"#utility.yul\":4363:4442   */\n      tag_333\n      tag_213\n      jump\t// in\n    tag_333:\n        /* \"#utility.yul\":4327:4444   */\n    tag_332:\n        /* \"#utility.yul\":4476:4541   */\n      tag_334\n        /* \"#utility.yul\":4533:4540   */\n      dup15\n        /* \"#utility.yul\":4524:4530   */\n      dup3\n        /* \"#utility.yul\":4513:4522   */\n      dup16\n        /* \"#utility.yul\":4509:4531   */\n      add\n        /* \"#utility.yul\":4476:4541   */\n      tag_220\n      jump\t// in\n    tag_334:\n        /* \"#utility.yul\":4458:4541   */\n      swap11\n      pop\n      swap11\n      pop\n        /* \"#utility.yul\":4253:4551   */\n      pop\n        /* \"#utility.yul\":4618:4620   */\n      0x40\n        /* \"#utility.yul\":4607:4616   */\n      dup13\n        /* \"#utility.yul\":4603:4621   */\n      add\n        /* \"#utility.yul\":4590:4622   */\n      calldataload\n        /* \"#utility.yul\":4649:4667   */\n      0xffffffffffffffff\n        /* \"#utility.yul\":4641:4647   */\n      dup2\n        /* \"#utility.yul\":4638:4668   */\n      gt\n        /* \"#utility.yul\":4635:4752   */\n      iszero\n      tag_335\n      jumpi\n        /* \"#utility.yul\":4671:4750   */\n      tag_336\n      tag_213\n      jump\t// in\n    tag_336:\n        /* \"#utility.yul\":4635:4752   */\n    tag_335:\n        /* \"#utility.yul\":4784:4849   */\n      tag_337\n        /* \"#utility.yul\":4841:4848   */\n      dup15\n        /* \"#utility.yul\":4832:4838   */\n      dup3\n        /* \"#utility.yul\":4821:4830   */\n      dup16\n        /* \"#utility.yul\":4817:4839   */\n      add\n        /* \"#utility.yul\":4784:4849   */\n      tag_220\n      jump\t// in\n    tag_337:\n        /* \"#utility.yul\":4766:4849   */\n      swap9\n      pop\n      swap9\n      pop\n        /* \"#utility.yul\":4561:4859   */\n      pop\n        /* \"#utility.yul\":4926:4928   */\n      0x60\n        /* \"#utility.yul\":4915:4924   */\n      dup13\n        /* \"#utility.yul\":4911:4929   */\n      add\n        /* \"#utility.yul\":4898:4930   */\n      calldataload\n        /* \"#utility.yul\":4957:4975   */\n      0xffffffffffffffff\n        /* \"#utility.yul\":4949:4955   */\n      dup2\n        /* \"#utility.yul\":4946:4976   */\n      gt\n        /* \"#utility.yul\":4943:5060   */\n      iszero\n      tag_338\n      jumpi\n        /* \"#utility.yul\":4979:5058   */\n      tag_339\n      tag_213\n      jump\t// in\n    tag_339:\n        /* \"#utility.yul\":4943:5060   */\n    tag_338:\n        /* \"#utility.yul\":5092:5157   */\n      tag_340\n        /* \"#utility.yul\":5149:5156   */\n      dup15\n        /* \"#utility.yul\":5140:5146   */\n      dup3\n        /* \"#utility.yul\":5129:5138   */\n      dup16\n        /* \"#utility.yul\":5125:5147   */\n      add\n        /* \"#utility.yul\":5092:5157   */\n      tag_220\n      jump\t// in\n    tag_340:\n        /* \"#utility.yul\":5074:5157   */\n      swap7\n      pop\n      swap7\n      pop\n        /* \"#utility.yul\":4869:5167   */\n      pop\n        /* \"#utility.yul\":5234:5237   */\n      0x80\n        /* \"#utility.yul\":5223:5232   */\n      dup13\n        /* \"#utility.yul\":5219:5238   */\n      add\n        /* \"#utility.yul\":5206:5239   */\n      calldataload\n        /* \"#utility.yul\":5266:5284   */\n      0xffffffffffffffff\n        /* \"#utility.yul\":5258:5264   */\n      dup2\n        /* \"#utility.yul\":5255:5285   */\n      gt\n        /* \"#utility.yul\":5252:5369   */\n      iszero\n      tag_341\n      jumpi\n        /* \"#utility.yul\":5288:5367   */\n      tag_342\n      tag_213\n      jump\t// in\n    tag_342:\n        /* \"#utility.yul\":5252:5369   */\n    tag_341:\n        /* \"#utility.yul\":5393:5456   */\n      tag_343\n        /* \"#utility.yul\":5448:5455   */\n      dup15\n        /* \"#utility.yul\":5439:5445   */\n      dup3\n        /* \"#utility.yul\":5428:5437   */\n      dup16\n        /* \"#utility.yul\":5424:5446   */\n      add\n        /* \"#utility.yul\":5393:5456   */\n      tag_228\n      jump\t// in\n    tag_343:\n        /* \"#utility.yul\":5383:5456   */\n      swap5\n      pop\n        /* \"#utility.yul\":5177:5466   */\n      pop\n        /* \"#utility.yul\":5505:5508   */\n      0xa0\n        /* \"#utility.yul\":5532:5585   */\n      tag_344\n        /* \"#utility.yul\":5577:5584   */\n      dup15\n        /* \"#utility.yul\":5568:5574   */\n      dup3\n        /* \"#utility.yul\":5557:5566   */\n      dup16\n        /* \"#utility.yul\":5553:5575   */\n      add\n        /* \"#utility.yul\":5532:5585   */\n      tag_216\n      jump\t// in\n    tag_344:\n        /* \"#utility.yul\":5522:5585   */\n      swap4\n      pop\n        /* \"#utility.yul\":5476:5595   */\n      pop\n        /* \"#utility.yul\":5634:5637   */\n      0xc0\n        /* \"#utility.yul\":5661:5714   */\n      tag_345\n        /* \"#utility.yul\":5706:5713   */\n      dup15\n        /* \"#utility.yul\":5697:5703   */\n      dup3\n        /* \"#utility.yul\":5686:5695   */\n      dup16\n        /* \"#utility.yul\":5682:5704   */\n      add\n        /* \"#utility.yul\":5661:5714   */\n      tag_216\n      jump\t// in\n    tag_345:\n        /* \"#utility.yul\":5651:5714   */\n      swap3\n      pop\n        /* \"#utility.yul\":5605:5724   */\n      pop\n        /* \"#utility.yul\":5763:5766   */\n      0xe0\n        /* \"#utility.yul\":5791:5844   */\n      tag_346\n        /* \"#utility.yul\":5836:5843   */\n      dup15\n        /* \"#utility.yul\":5827:5833   */\n      dup3\n        /* \"#utility.yul\":5816:5825   */\n      dup16\n        /* \"#utility.yul\":5812:5834   */\n      add\n        /* \"#utility.yul\":5791:5844   */\n      tag_216\n      jump\t// in\n    tag_346:\n        /* \"#utility.yul\":5780:5844   */\n      swap2\n      pop\n        /* \"#utility.yul\":5734:5854   */\n      pop\n        /* \"#utility.yul\":3730:5861   */\n      swap3\n      swap6\n      swap9\n      swap12\n      pop\n      swap3\n      swap6\n      swap9\n      swap12\n      swap1\n      swap4\n      swap7\n      swap10\n      pop\n      jump\t// out\n        /* \"#utility.yul\":5867:5993   */\n    tag_229:\n        /* \"#utility.yul\":5904:5911   */\n      0x00\n        /* \"#utility.yul\":5944:5986   */\n      0xffffffffffffffffffffffffffffffffffffffff\n        /* \"#utility.yul\":5937:5942   */\n      dup3\n        /* \"#utility.yul\":5933:5987   */\n      and\n        /* \"#utility.yul\":5922:5987   */\n      swap1\n      pop\n        /* \"#utility.yul\":5867:5993   */\n      swap2\n      swap1\n      pop\n      jump\t// out\n        /* \"#utility.yul\":5999:6095   */\n    tag_230:\n        /* \"#utility.yul\":6036:6043   */\n      0x00\n        /* \"#utility.yul\":6065:6089   */\n      tag_349\n        /* \"#utility.yul\":6083:6088   */\n      dup3\n        /* \"#utility.yul\":6065:6089   */\n      tag_229\n      jump\t// in\n    tag_349:\n        /* \"#utility.yul\":6054:6089   */\n      swap1\n      pop\n        /* \"#utility.yul\":5999:6095   */\n      swap2\n      swap1\n      pop\n      jump\t// out\n        /* \"#utility.yul\":6101:6219   */\n    tag_231:\n        /* \"#utility.yul\":6188:6212   */\n      tag_351\n        /* \"#utility.yul\":6206:6211   */\n      dup2\n        /* \"#utility.yul\":6188:6212   */\n      tag_230\n      jump\t// in\n    tag_351:\n        /* \"#utility.yul\":6183:6186   */\n      dup3\n        /* \"#utility.yul\":6176:6213   */\n      mstore\n        /* \"#utility.yul\":6101:6219   */\n      pop\n      pop\n      jump\t// out\n        /* \"#utility.yul\":6225:6447   */\n    tag_23:\n        /* \"#utility.yul\":6318:6322   */\n      0x00\n        /* \"#utility.yul\":6356:6358   */\n      0x20\n        /* \"#utility.yul\":6345:6354   */\n      dup3\n        /* \"#utility.yul\":6341:6359   */\n      add\n        /* \"#utility.yul\":6333:6359   */\n      swap1\n      pop\n        /* \"#utility.yul\":6369:6440   */\n      tag_353\n        /* \"#utility.yul\":6437:6438   */\n      0x00\n        /* \"#utility.yul\":6426:6435   */\n      dup4\n        /* \"#utility.yul\":6422:6439   */\n      add\n        /* \"#utility.yul\":6413:6419   */\n      dup5\n        /* \"#utility.yul\":6369:6440   */\n      tag_231\n      jump\t// in\n    tag_353:\n        /* \"#utility.yul\":6225:6447   */\n      swap3\n      swap2\n      pop\n      pop\n      jump\t// out\n        /* \"#utility.yul\":6453:6927   */\n    tag_27:\n        /* \"#utility.yul\":6521:6527   */\n      0x00\n        /* \"#utility.yul\":6529:6535   */\n      0x00\n        /* \"#utility.yul\":6578:6580   */\n      0x40\n        /* \"#utility.yul\":6566:6575   */\n      dup4\n        /* \"#utility.yul\":6557:6564   */\n      dup6\n        /* \"#utility.yul\":6553:6576   */\n      sub\n        /* \"#utility.yul\":6549:6581   */\n      slt\n        /* \"#utility.yul\":6546:6665   */\n      iszero\n      tag_355\n      jumpi\n        /* \"#utility.yul\":6584:6663   */\n      tag_356\n      tag_212\n      jump\t// in\n    tag_356:\n        /* \"#utility.yul\":6546:6665   */\n    tag_355:\n        /* \"#utility.yul\":6704:6705   */\n      0x00\n        /* \"#utility.yul\":6729:6782   */\n      tag_357\n        /* \"#utility.yul\":6774:6781   */\n      dup6\n        /* \"#utility.yul\":6765:6771   */\n      dup3\n        /* \"#utility.yul\":6754:6763   */\n      dup7\n        /* \"#utility.yul\":6750:6772   */\n      add\n        /* \"#utility.yul\":6729:6782   */\n      tag_216\n      jump\t// in\n    tag_357:\n        /* \"#utility.yul\":6719:6782   */\n      swap3\n      pop\n        /* \"#utility.yul\":6675:6792   */\n      pop\n        /* \"#utility.yul\":6831:6833   */\n      0x20\n        /* \"#utility.yul\":6857:6910   */\n      tag_358\n        /* \"#utility.yul\":6902:6909   */\n      dup6\n        /* \"#utility.yul\":6893:6899   */\n      dup3\n        /* \"#utility.yul\":6882:6891   */\n      dup7\n        /* \"#utility.yul\":6878:6900   */\n      add\n        /* \"#utility.yul\":6857:6910   */\n      tag_216\n      jump\t// in\n    tag_358:\n        /* \"#utility.yul\":6847:6910   */\n      swap2\n      pop\n        /* \"#utility.yul\":6802:6920   */\n      pop\n        /* \"#utility.yul\":6453:6927   */\n      swap3\n      pop\n      swap3\n      swap1\n      pop\n      jump\t// out\n        /* \"#utility.yul\":6933:7262   */\n    tag_32:\n        /* \"#utility.yul\":6992:6998   */\n      0x00\n        /* \"#utility.yul\":7041:7043   */\n      0x20\n        /* \"#utility.yul\":7029:7038   */\n      dup3\n        /* \"#utility.yul\":7020:7027   */\n      dup5\n        /* \"#utility.yul\":7016:7039   */\n      sub\n        /* \"#utility.yul\":7012:7044   */\n      slt\n        /* \"#utility.yul\":7009:7128   */\n      iszero\n      tag_360\n      jumpi\n        /* \"#utility.yul\":7047:7126   */\n      tag_361\n      tag_212\n      jump\t// in\n    tag_361:\n        /* \"#utility.yul\":7009:7128   */\n    tag_360:\n        /* \"#utility.yul\":7167:7168   */\n      0x00\n        /* \"#utility.yul\":7192:7245   */\n      tag_362\n        /* \"#utility.yul\":7237:7244   */\n      dup5\n        /* \"#utility.yul\":7228:7234   */\n      dup3\n        /* \"#utility.yul\":7217:7226   */\n      dup6\n        /* \"#utility.yul\":7213:7235   */\n      add\n        /* \"#utility.yul\":7192:7245   */\n      tag_216\n      jump\t// in\n    tag_362:\n        /* \"#utility.yul\":7182:7245   */\n      swap2\n      pop\n        /* \"#utility.yul\":7138:7255   */\n      pop\n        /* \"#utility.yul\":6933:7262   */\n      swap3\n      swap2\n      pop\n      pop\n      jump\t// out\n        /* \"#utility.yul\":7268:7376   */\n    tag_232:\n        /* \"#utility.yul\":7345:7369   */\n      tag_364\n        /* \"#utility.yul\":7363:7368   */\n      dup2\n        /* \"#utility.yul\":7345:7369   */\n      tag_214\n      jump\t// in\n    tag_364:\n        /* \"#utility.yul\":7340:7343   */\n      dup3\n        /* \"#utility.yul\":7333:7370   */\n      mstore\n        /* \"#utility.yul\":7268:7376   */\n      pop\n      pop\n      jump\t// out\n        /* \"#utility.yul\":7382:7481   */\n    tag_233:\n        /* \"#utility.yul\":7434:7440   */\n      0x00\n        /* \"#utility.yul\":7468:7473   */\n      dup2\n        /* \"#utility.yul\":7462:7474   */\n      mload\n        /* \"#utility.yul\":7452:7474   */\n      swap1\n      pop\n        /* \"#utility.yul\":7382:7481   */\n      swap2\n      swap1\n      pop\n      jump\t// out\n        /* \"#utility.yul\":7487:7646   */\n    tag_234:\n        /* \"#utility.yul\":7561:7572   */\n      0x00\n        /* \"#utility.yul\":7595:7601   */\n      dup3\n        /* \"#utility.yul\":7590:7593   */\n      dup3\n        /* \"#utility.yul\":7583:7602   */\n      mstore\n        /* \"#utility.yul\":7635:7639   */\n      0x20\n        /* \"#utility.yul\":7630:7633   */\n      dup3\n        /* \"#utility.yul\":7626:7640   */\n      add\n        /* \"#utility.yul\":7611:7640   */\n      swap1\n      pop\n        /* \"#utility.yul\":7487:7646   */\n      swap3\n      swap2\n      pop\n      pop\n      jump\t// out\n        /* \"#utility.yul\":7652:7791   */\n    tag_235:\n        /* \"#utility.yul\":7741:7747   */\n      dup3\n        /* \"#utility.yul\":7736:7739   */\n      dup2\n        /* \"#utility.yul\":7731:7734   */\n      dup4\n        /* \"#utility.yul\":7725:7748   */\n      mcopy\n        /* \"#utility.yul\":7782:7783   */\n      0x00\n        /* \"#utility.yul\":7773:7779   */\n      dup4\n        /* \"#utility.yul\":7768:7771   */\n      dup4\n        /* \"#utility.yul\":7764:7780   */\n      add\n        /* \"#utility.yul\":7757:7784   */\n      mstore\n        /* \"#utility.yul\":7652:7791   */\n      pop\n      pop\n      pop\n      jump\t// out\n        /* \"#utility.yul\":7797:8154   */\n    tag_236:\n        /* \"#utility.yul\":7875:7878   */\n      0x00\n        /* \"#utility.yul\":7903:7942   */\n      tag_369\n        /* \"#utility.yul\":7936:7941   */\n      dup3\n        /* \"#utility.yul\":7903:7942   */\n      tag_233\n      jump\t// in\n    tag_369:\n        /* \"#utility.yul\":7958:8019   */\n      tag_370\n        /* \"#utility.yul\":8012:8018   */\n      dup2\n        /* \"#utility.yul\":8007:8010   */\n      dup6\n        /* \"#utility.yul\":7958:8019   */\n      tag_234\n      jump\t// in\n    tag_370:\n        /* \"#utility.yul\":7951:8019   */\n      swap4\n      pop\n        /* \"#utility.yul\":8028:8093   */\n      tag_371\n        /* \"#utility.yul\":8086:8092   */\n      dup2\n        /* \"#utility.yul\":8081:8084   */\n      dup6\n        /* \"#utility.yul\":8074:8078   */\n      0x20\n        /* \"#utility.yul\":8067:8072   */\n      dup7\n        /* \"#utility.yul\":8063:8079   */\n      add\n        /* \"#utility.yul\":8028:8093   */\n      tag_235\n      jump\t// in\n    tag_371:\n        /* \"#utility.yul\":8118:8147   */\n      tag_372\n        /* \"#utility.yul\":8140:8146   */\n      dup2\n        /* \"#utility.yul\":8118:8147   */\n      tag_222\n      jump\t// in\n    tag_372:\n        /* \"#utility.yul\":8113:8116   */\n      dup5\n        /* \"#utility.yul\":8109:8148   */\n      add\n        /* \"#utility.yul\":8102:8148   */\n      swap2\n      pop\n        /* \"#utility.yul\":7879:8154   */\n      pop\n        /* \"#utility.yul\":7797:8154   */\n      swap3\n      swap2\n      pop\n      pop\n      jump\t// out\n        /* \"#utility.yul\":8214:10089   */\n    tag_237:\n        /* \"#utility.yul\":8329:8332   */\n      0x00\n        /* \"#utility.yul\":8365:8371   */\n      0x0100\n        /* \"#utility.yul\":8360:8363   */\n      dup4\n        /* \"#utility.yul\":8356:8372   */\n      add\n        /* \"#utility.yul\":8452:8456   */\n      0x00\n        /* \"#utility.yul\":8445:8450   */\n      dup4\n        /* \"#utility.yul\":8441:8457   */\n      add\n        /* \"#utility.yul\":8435:8458   */\n      mload\n        /* \"#utility.yul\":8471:8534   */\n      tag_374\n        /* \"#utility.yul\":8528:8532   */\n      0x00\n        /* \"#utility.yul\":8523:8526   */\n      dup7\n        /* \"#utility.yul\":8519:8533   */\n      add\n        /* \"#utility.yul\":8505:8517   */\n      dup3\n        /* \"#utility.yul\":8471:8534   */\n      tag_232\n      jump\t// in\n    tag_374:\n        /* \"#utility.yul\":8382:8544   */\n      pop\n        /* \"#utility.yul\":8626:8630   */\n      0x20\n        /* \"#utility.yul\":8619:8624   */\n      dup4\n        /* \"#utility.yul\":8615:8631   */\n      add\n        /* \"#utility.yul\":8609:8632   */\n      mload\n        /* \"#utility.yul\":8679:8682   */\n      dup5\n        /* \"#utility.yul\":8673:8677   */\n      dup3\n        /* \"#utility.yul\":8669:8683   */\n      sub\n        /* \"#utility.yul\":8662:8666   */\n      0x20\n        /* \"#utility.yul\":8657:8660   */\n      dup7\n        /* \"#utility.yul\":8653:8667   */\n      add\n        /* \"#utility.yul\":8646:8684   */\n      mstore\n        /* \"#utility.yul\":8705:8778   */\n      tag_375\n        /* \"#utility.yul\":8773:8777   */\n      dup3\n        /* \"#utility.yul\":8759:8771   */\n      dup3\n        /* \"#utility.yul\":8705:8778   */\n      tag_236\n      jump\t// in\n    tag_375:\n        /* \"#utility.yul\":8697:8778   */\n      swap2\n      pop\n        /* \"#utility.yul\":8554:8789   */\n      pop\n        /* \"#utility.yul\":8875:8879   */\n      0x40\n        /* \"#utility.yul\":8868:8873   */\n      dup4\n        /* \"#utility.yul\":8864:8880   */\n      add\n        /* \"#utility.yul\":8858:8881   */\n      mload\n        /* \"#utility.yul\":8928:8931   */\n      dup5\n        /* \"#utility.yul\":8922:8926   */\n      dup3\n        /* \"#utility.yul\":8918:8932   */\n      sub\n        /* \"#utility.yul\":8911:8915   */\n      0x40\n        /* \"#utility.yul\":8906:8909   */\n      dup7\n        /* \"#utility.yul\":8902:8916   */\n      add\n        /* \"#utility.yul\":8895:8933   */\n      mstore\n        /* \"#utility.yul\":8954:9027   */\n      tag_376\n        /* \"#utility.yul\":9022:9026   */\n      dup3\n        /* \"#utility.yul\":9008:9020   */\n      dup3\n        /* \"#utility.yul\":8954:9027   */\n      tag_236\n      jump\t// in\n    tag_376:\n        /* \"#utility.yul\":8946:9027   */\n      swap2\n      pop\n        /* \"#utility.yul\":8799:9038   */\n      pop\n        /* \"#utility.yul\":9127:9131   */\n      0x60\n        /* \"#utility.yul\":9120:9125   */\n      dup4\n        /* \"#utility.yul\":9116:9132   */\n      add\n        /* \"#utility.yul\":9110:9133   */\n      mload\n        /* \"#utility.yul\":9180:9183   */\n      dup5\n        /* \"#utility.yul\":9174:9178   */\n      dup3\n        /* \"#utility.yul\":9170:9184   */\n      sub\n        /* \"#utility.yul\":9163:9167   */\n      0x60\n        /* \"#utility.yul\":9158:9161   */\n      dup7\n        /* \"#utility.yul\":9154:9168   */\n      add\n        /* \"#utility.yul\":9147:9185   */\n      mstore\n        /* \"#utility.yul\":9206:9279   */\n      tag_377\n        /* \"#utility.yul\":9274:9278   */\n      dup3\n        /* \"#utility.yul\":9260:9272   */\n      dup3\n        /* \"#utility.yul\":9206:9279   */\n      tag_236\n      jump\t// in\n    tag_377:\n        /* \"#utility.yul\":9198:9279   */\n      swap2\n      pop\n        /* \"#utility.yul\":9048:9290   */\n      pop\n        /* \"#utility.yul\":9373:9377   */\n      0x80\n        /* \"#utility.yul\":9366:9371   */\n      dup4\n        /* \"#utility.yul\":9362:9378   */\n      add\n        /* \"#utility.yul\":9356:9379   */\n      mload\n        /* \"#utility.yul\":9426:9429   */\n      dup5\n        /* \"#utility.yul\":9420:9424   */\n      dup3\n        /* \"#utility.yul\":9416:9430   */\n      sub\n        /* \"#utility.yul\":9409:9413   */\n      0x80\n        /* \"#utility.yul\":9404:9407   */\n      dup7\n        /* \"#utility.yul\":9400:9414   */\n      add\n        /* \"#utility.yul\":9393:9431   */\n      mstore\n        /* \"#utility.yul\":9452:9525   */\n      tag_378\n        /* \"#utility.yul\":9520:9524   */\n      dup3\n        /* \"#utility.yul\":9506:9518   */\n      dup3\n        /* \"#utility.yul\":9452:9525   */\n      tag_236\n      jump\t// in\n    tag_378:\n        /* \"#utility.yul\":9444:9525   */\n      swap2\n      pop\n        /* \"#utility.yul\":9300:9536   */\n      pop\n        /* \"#utility.yul\":9619:9623   */\n      0xa0\n        /* \"#utility.yul\":9612:9617   */\n      dup4\n        /* \"#utility.yul\":9608:9624   */\n      add\n        /* \"#utility.yul\":9602:9625   */\n      mload\n        /* \"#utility.yul\":9638:9701   */\n      tag_379\n        /* \"#utility.yul\":9695:9699   */\n      0xa0\n        /* \"#utility.yul\":9690:9693   */\n      dup7\n        /* \"#utility.yul\":9686:9700   */\n      add\n        /* \"#utility.yul\":9672:9684   */\n      dup3\n        /* \"#utility.yul\":9638:9701   */\n      tag_232\n      jump\t// in\n    tag_379:\n        /* \"#utility.yul\":9546:9711   */\n      pop\n        /* \"#utility.yul\":9795:9799   */\n      0xc0\n        /* \"#utility.yul\":9788:9793   */\n      dup4\n        /* \"#utility.yul\":9784:9800   */\n      add\n        /* \"#utility.yul\":9778:9801   */\n      mload\n        /* \"#utility.yul\":9814:9877   */\n      tag_380\n        /* \"#utility.yul\":9871:9875   */\n      0xc0\n        /* \"#utility.yul\":9866:9869   */\n      dup7\n        /* \"#utility.yul\":9862:9876   */\n      add\n        /* \"#utility.yul\":9848:9860   */\n      dup3\n        /* \"#utility.yul\":9814:9877   */\n      tag_232\n      jump\t// in\n    tag_380:\n        /* \"#utility.yul\":9721:9887   */\n      pop\n        /* \"#utility.yul\":9970:9974   */\n      0xe0\n        /* \"#utility.yul\":9963:9968   */\n      dup4\n        /* \"#utility.yul\":9959:9975   */\n      add\n        /* \"#utility.yul\":9953:9976   */\n      mload\n        /* \"#utility.yul\":9989:10052   */\n      tag_381\n        /* \"#utility.yul\":10046:10050   */\n      0xe0\n        /* \"#utility.yul\":10041:10044   */\n      dup7\n        /* \"#utility.yul\":10037:10051   */\n      add\n        /* \"#utility.yul\":10023:10035   */\n      dup3\n        /* \"#utility.yul\":9989:10052   */\n      tag_232\n      jump\t// in\n    tag_381:\n        /* \"#utility.yul\":9897:10062   */\n      pop\n        /* \"#utility.yul\":10079:10083   */\n      dup1\n        /* \"#utility.yul\":10072:10083   */\n      swap2\n      pop\n        /* \"#utility.yul\":8334:10089   */\n      pop\n        /* \"#utility.yul\":8214:10089   */\n      swap3\n      swap2\n      pop\n      pop\n      jump\t// out\n        /* \"#utility.yul\":10095:10460   */\n    tag_35:\n        /* \"#utility.yul\":10234:10238   */\n      0x00\n        /* \"#utility.yul\":10272:10274   */\n      0x20\n        /* \"#utility.yul\":10261:10270   */\n      dup3\n        /* \"#utility.yul\":10257:10275   */\n      add\n        /* \"#utility.yul\":10249:10275   */\n      swap1\n      pop\n        /* \"#utility.yul\":10321:10330   */\n      dup2\n        /* \"#utility.yul\":10315:10319   */\n      dup2\n        /* \"#utility.yul\":10311:10331   */\n      sub\n        /* \"#utility.yul\":10307:10308   */\n      0x00\n        /* \"#utility.yul\":10296:10305   */\n      dup4\n        /* \"#utility.yul\":10292:10309   */\n      add\n        /* \"#utility.yul\":10285:10332   */\n      mstore\n        /* \"#utility.yul\":10349:10453   */\n      tag_383\n        /* \"#utility.yul\":10448:10452   */\n      dup2\n        /* \"#utility.yul\":10439:10445   */\n      dup5\n        /* \"#utility.yul\":10349:10453   */\n      tag_237\n      jump\t// in\n    tag_383:\n        /* \"#utility.yul\":10341:10453   */\n      swap1\n      pop\n        /* \"#utility.yul\":10095:10460   */\n      swap3\n      swap2\n      pop\n      pop\n      jump\t// out\n        /* \"#utility.yul\":10466:10601   */\n    tag_238:\n        /* \"#utility.yul\":10554:10560   */\n      0x00\n        /* \"#utility.yul\":10588:10593   */\n      dup2\n        /* \"#utility.yul\":10582:10594   */\n      mload\n        /* \"#utility.yul\":10572:10594   */\n      swap1\n      pop\n        /* \"#utility.yul\":10466:10601   */\n      swap2\n      swap1\n      pop\n      jump\t// out\n        /* \"#utility.yul\":10607:10812   */\n    tag_239:\n        /* \"#utility.yul\":10727:10738   */\n      0x00\n        /* \"#utility.yul\":10761:10767   */\n      dup3\n        /* \"#utility.yul\":10756:10759   */\n      dup3\n        /* \"#utility.yul\":10749:10768   */\n      mstore\n        /* \"#utility.yul\":10801:10805   */\n      0x20\n        /* \"#utility.yul\":10796:10799   */\n      dup3\n        /* \"#utility.yul\":10792:10806   */\n      add\n        /* \"#utility.yul\":10777:10806   */\n      swap1\n      pop\n        /* \"#utility.yul\":10607:10812   */\n      swap3\n      swap2\n      pop\n      pop\n      jump\t// out\n        /* \"#utility.yul\":10818:10971   */\n    tag_240:\n        /* \"#utility.yul\":10906:10910   */\n      0x00\n        /* \"#utility.yul\":10929:10932   */\n      dup2\n        /* \"#utility.yul\":10921:10932   */\n      swap1\n      pop\n        /* \"#utility.yul\":10959:10963   */\n      0x20\n        /* \"#utility.yul\":10954:10957   */\n      dup3\n        /* \"#utility.yul\":10950:10964   */\n      add\n        /* \"#utility.yul\":10942:10964   */\n      swap1\n      pop\n        /* \"#utility.yul\":10818:10971   */\n      swap2\n      swap1\n      pop\n      jump\t// out\n        /* \"#utility.yul\":11031:12896   */\n    tag_241:\n        /* \"#utility.yul\":11136:11139   */\n      0x00\n        /* \"#utility.yul\":11172:11178   */\n      0x0100\n        /* \"#utility.yul\":11167:11170   */\n      dup4\n        /* \"#utility.yul\":11163:11179   */\n      add\n        /* \"#utility.yul\":11259:11263   */\n      0x00\n        /* \"#utility.yul\":11252:11257   */\n      dup4\n        /* \"#utility.yul\":11248:11264   */\n      add\n        /* \"#utility.yul\":11242:11265   */\n      mload\n        /* \"#utility.yul\":11278:11341   */\n      tag_388\n        /* \"#utility.yul\":11335:11339   */\n      0x00\n        /* \"#utility.yul\":11330:11333   */\n      dup7\n        /* \"#utility.yul\":11326:11340   */\n      add\n        /* \"#utility.yul\":11312:11324   */\n      dup3\n        /* \"#utility.yul\":11278:11341   */\n      tag_232\n      jump\t// in\n    tag_388:\n        /* \"#utility.yul\":11189:11351   */\n      pop\n        /* \"#utility.yul\":11433:11437   */\n      0x20\n        /* \"#utility.yul\":11426:11431   */\n      dup4\n        /* \"#utility.yul\":11422:11438   */\n      add\n        /* \"#utility.yul\":11416:11439   */\n      mload\n        /* \"#utility.yul\":11486:11489   */\n      dup5\n        /* \"#utility.yul\":11480:11484   */\n      dup3\n        /* \"#utility.yul\":11476:11490   */\n      sub\n        /* \"#utility.yul\":11469:11473   */\n      0x20\n        /* \"#utility.yul\":11464:11467   */\n      dup7\n        /* \"#utility.yul\":11460:11474   */\n      add\n        /* \"#utility.yul\":11453:11491   */\n      mstore\n        /* \"#utility.yul\":11512:11585   */\n      tag_389\n        /* \"#utility.yul\":11580:11584   */\n      dup3\n        /* \"#utility.yul\":11566:11578   */\n      dup3\n        /* \"#utility.yul\":11512:11585   */\n      tag_236\n      jump\t// in\n    tag_389:\n        /* \"#utility.yul\":11504:11585   */\n      swap2\n      pop\n        /* \"#utility.yul\":11361:11596   */\n      pop\n        /* \"#utility.yul\":11682:11686   */\n      0x40\n        /* \"#utility.yul\":11675:11680   */\n      dup4\n        /* \"#utility.yul\":11671:11687   */\n      add\n        /* \"#utility.yul\":11665:11688   */\n      mload\n        /* \"#utility.yul\":11735:11738   */\n      dup5\n        /* \"#utility.yul\":11729:11733   */\n      dup3\n        /* \"#utility.yul\":11725:11739   */\n      sub\n        /* \"#utility.yul\":11718:11722   */\n      0x40\n        /* \"#utility.yul\":11713:11716   */\n      dup7\n        /* \"#utility.yul\":11709:11723   */\n      add\n        /* \"#utility.yul\":11702:11740   */\n      mstore\n        /* \"#utility.yul\":11761:11834   */\n      tag_390\n        /* \"#utility.yul\":11829:11833   */\n      dup3\n        /* \"#utility.yul\":11815:11827   */\n      dup3\n        /* \"#utility.yul\":11761:11834   */\n      tag_236\n      jump\t// in\n    tag_390:\n        /* \"#utility.yul\":11753:11834   */\n      swap2\n      pop\n        /* \"#utility.yul\":11606:11845   */\n      pop\n        /* \"#utility.yul\":11934:11938   */\n      0x60\n        /* \"#utility.yul\":11927:11932   */\n      dup4\n        /* \"#utility.yul\":11923:11939   */\n      add\n        /* \"#utility.yul\":11917:11940   */\n      mload\n        /* \"#utility.yul\":11987:11990   */\n      dup5\n        /* \"#utility.yul\":11981:11985   */\n      dup3\n        /* \"#utility.yul\":11977:11991   */\n      sub\n        /* \"#utility.yul\":11970:11974   */\n      0x60\n        /* \"#utility.yul\":11965:11968   */\n      dup7\n        /* \"#utility.yul\":11961:11975   */\n      add\n        /* \"#utility.yul\":11954:11992   */\n      mstore\n        /* \"#utility.yul\":12013:12086   */\n      tag_391\n        /* \"#utility.yul\":12081:12085   */\n      dup3\n        /* \"#utility.yul\":12067:12079   */\n      dup3\n        /* \"#utility.yul\":12013:12086   */\n      tag_236\n      jump\t// in\n    tag_391:\n        /* \"#utility.yul\":12005:12086   */\n      swap2\n      pop\n        /* \"#utility.yul\":11855:12097   */\n      pop\n        /* \"#utility.yul\":12180:12184   */\n      0x80\n        /* \"#utility.yul\":12173:12178   */\n      dup4\n        /* \"#utility.yul\":12169:12185   */\n      add\n        /* \"#utility.yul\":12163:12186   */\n      mload\n        /* \"#utility.yul\":12233:12236   */\n      dup5\n        /* \"#utility.yul\":12227:12231   */\n      dup3\n        /* \"#utility.yul\":12223:12237   */\n      sub\n        /* \"#utility.yul\":12216:12220   */\n      0x80\n        /* \"#utility.yul\":12211:12214   */\n      dup7\n        /* \"#utility.yul\":12207:12221   */\n      add\n        /* \"#utility.yul\":12200:12238   */\n      mstore\n        /* \"#utility.yul\":12259:12332   */\n      tag_392\n        /* \"#utility.yul\":12327:12331   */\n      dup3\n        /* \"#utility.yul\":12313:12325   */\n      dup3\n        /* \"#utility.yul\":12259:12332   */\n      tag_236\n      jump\t// in\n    tag_392:\n        /* \"#utility.yul\":12251:12332   */\n      swap2\n      pop\n        /* \"#utility.yul\":12107:12343   */\n      pop\n        /* \"#utility.yul\":12426:12430   */\n      0xa0\n        /* \"#utility.yul\":12419:12424   */\n      dup4\n        /* \"#utility.yul\":12415:12431   */\n      add\n        /* \"#utility.yul\":12409:12432   */\n      mload\n        /* \"#utility.yul\":12445:12508   */\n      tag_393\n        /* \"#utility.yul\":12502:12506   */\n      0xa0\n        /* \"#utility.yul\":12497:12500   */\n      dup7\n        /* \"#utility.yul\":12493:12507   */\n      add\n        /* \"#utility.yul\":12479:12491   */\n      dup3\n        /* \"#utility.yul\":12445:12508   */\n      tag_232\n      jump\t// in\n    tag_393:\n        /* \"#utility.yul\":12353:12518   */\n      pop\n        /* \"#utility.yul\":12602:12606   */\n      0xc0\n        /* \"#utility.yul\":12595:12600   */\n      dup4\n        /* \"#utility.yul\":12591:12607   */\n      add\n        /* \"#utility.yul\":12585:12608   */\n      mload\n        /* \"#utility.yul\":12621:12684   */\n      tag_394\n        /* \"#utility.yul\":12678:12682   */\n      0xc0\n        /* \"#utility.yul\":12673:12676   */\n      dup7\n        /* \"#utility.yul\":12669:12683   */\n      add\n        /* \"#utility.yul\":12655:12667   */\n      dup3\n        /* \"#utility.yul\":12621:12684   */\n      tag_232\n      jump\t// in\n    tag_394:\n        /* \"#utility.yul\":12528:12694   */\n      pop\n        /* \"#utility.yul\":12777:12781   */\n      0xe0\n        /* \"#utility.yul\":12770:12775   */\n      dup4\n        /* \"#utility.yul\":12766:12782   */\n      add\n        /* \"#utility.yul\":12760:12783   */\n      mload\n        /* \"#utility.yul\":12796:12859   */\n      tag_395\n        /* \"#utility.yul\":12853:12857   */\n      0xe0\n        /* \"#utility.yul\":12848:12851   */\n      dup7\n        /* \"#utility.yul\":12844:12858   */\n      add\n        /* \"#utility.yul\":12830:12842   */\n      dup3\n        /* \"#utility.yul\":12796:12859   */\n      tag_232\n      jump\t// in\n    tag_395:\n        /* \"#utility.yul\":12704:12869   */\n      pop\n        /* \"#utility.yul\":12886:12890   */\n      dup1\n        /* \"#utility.yul\":12879:12890   */\n      swap2\n      pop\n        /* \"#utility.yul\":11141:12896   */\n      pop\n        /* \"#utility.yul\":11031:12896   */\n      swap3\n      swap2\n      pop\n      pop\n      jump\t// out\n        /* \"#utility.yul\":12952:13574   */\n    tag_242:\n        /* \"#utility.yul\":13053:13056   */\n      0x00\n        /* \"#utility.yul\":13089:13093   */\n      0x40\n        /* \"#utility.yul\":13084:13087   */\n      dup4\n        /* \"#utility.yul\":13080:13094   */\n      add\n        /* \"#utility.yul\":13179:13183   */\n      0x00\n        /* \"#utility.yul\":13172:13177   */\n      dup4\n        /* \"#utility.yul\":13168:13184   */\n      add\n        /* \"#utility.yul\":13162:13185   */\n      mload\n        /* \"#utility.yul\":13232:13235   */\n      dup5\n        /* \"#utility.yul\":13226:13230   */\n      dup3\n        /* \"#utility.yul\":13222:13236   */\n      sub\n        /* \"#utility.yul\":13215:13219   */\n      0x00\n        /* \"#utility.yul\":13210:13213   */\n      dup7\n        /* \"#utility.yul\":13206:13220   */\n      add\n        /* \"#utility.yul\":13199:13237   */\n      mstore\n        /* \"#utility.yul\":13258:13357   */\n      tag_397\n        /* \"#utility.yul\":13352:13356   */\n      dup3\n        /* \"#utility.yul\":13338:13350   */\n      dup3\n        /* \"#utility.yul\":13258:13357   */\n      tag_241\n      jump\t// in\n    tag_397:\n        /* \"#utility.yul\":13250:13357   */\n      swap2\n      pop\n        /* \"#utility.yul\":13104:13368   */\n      pop\n        /* \"#utility.yul\":13455:13459   */\n      0x20\n        /* \"#utility.yul\":13448:13453   */\n      dup4\n        /* \"#utility.yul\":13444:13460   */\n      add\n        /* \"#utility.yul\":13438:13461   */\n      mload\n        /* \"#utility.yul\":13474:13537   */\n      tag_398\n        /* \"#utility.yul\":13531:13535   */\n      0x20\n        /* \"#utility.yul\":13526:13529   */\n      dup7\n        /* \"#utility.yul\":13522:13536   */\n      add\n        /* \"#utility.yul\":13508:13520   */\n      dup3\n        /* \"#utility.yul\":13474:13537   */\n      tag_232\n      jump\t// in\n    tag_398:\n        /* \"#utility.yul\":13378:13547   */\n      pop\n        /* \"#utility.yul\":13564:13568   */\n      dup1\n        /* \"#utility.yul\":13557:13568   */\n      swap2\n      pop\n        /* \"#utility.yul\":13058:13574   */\n      pop\n        /* \"#utility.yul\":12952:13574   */\n      swap3\n      swap2\n      pop\n      pop\n      jump\t// out\n        /* \"#utility.yul\":13580:13820   */\n    tag_243:\n        /* \"#utility.yul\":13691:13701   */\n      0x00\n        /* \"#utility.yul\":13726:13814   */\n      tag_400\n        /* \"#utility.yul\":13810:13813   */\n      dup4\n        /* \"#utility.yul\":13802:13808   */\n      dup4\n        /* \"#utility.yul\":13726:13814   */\n      tag_242\n      jump\t// in\n    tag_400:\n        /* \"#utility.yul\":13712:13814   */\n      swap1\n      pop\n        /* \"#utility.yul\":13580:13820   */\n      swap3\n      swap2\n      pop\n      pop\n      jump\t// out\n        /* \"#utility.yul\":13826:13960   */\n    tag_244:\n        /* \"#utility.yul\":13917:13921   */\n      0x00\n        /* \"#utility.yul\":13949:13953   */\n      0x20\n        /* \"#utility.yul\":13944:13947   */\n      dup3\n        /* \"#utility.yul\":13940:13954   */\n      add\n        /* \"#utility.yul\":13932:13954   */\n      swap1\n      pop\n        /* \"#utility.yul\":13826:13960   */\n      swap2\n      swap1\n      pop\n      jump\t// out\n        /* \"#utility.yul\":14020:15099   */\n    tag_245:\n        /* \"#utility.yul\":14181:14184   */\n      0x00\n        /* \"#utility.yul\":14210:14285   */\n      tag_403\n        /* \"#utility.yul\":14279:14284   */\n      dup3\n        /* \"#utility.yul\":14210:14285   */\n      tag_238\n      jump\t// in\n    tag_403:\n        /* \"#utility.yul\":14301:14408   */\n      tag_404\n        /* \"#utility.yul\":14401:14407   */\n      dup2\n        /* \"#utility.yul\":14396:14399   */\n      dup6\n        /* \"#utility.yul\":14301:14408   */\n      tag_239\n      jump\t// in\n    tag_404:\n        /* \"#utility.yul\":14294:14408   */\n      swap4\n      pop\n        /* \"#utility.yul\":14434:14437   */\n      dup4\n        /* \"#utility.yul\":14479:14483   */\n      0x20\n        /* \"#utility.yul\":14471:14477   */\n      dup3\n        /* \"#utility.yul\":14467:14484   */\n      mul\n        /* \"#utility.yul\":14462:14465   */\n      dup6\n        /* \"#utility.yul\":14458:14485   */\n      add\n        /* \"#utility.yul\":14509:14586   */\n      tag_405\n        /* \"#utility.yul\":14580:14585   */\n      dup6\n        /* \"#utility.yul\":14509:14586   */\n      tag_240\n      jump\t// in\n    tag_405:\n        /* \"#utility.yul\":14609:14616   */\n      dup1\n        /* \"#utility.yul\":14640:14641   */\n      0x00\n        /* \"#utility.yul\":14625:15054   */\n    tag_406:\n        /* \"#utility.yul\":14650:14656   */\n      dup6\n        /* \"#utility.yul\":14647:14648   */\n      dup2\n        /* \"#utility.yul\":14644:14657   */\n      lt\n        /* \"#utility.yul\":14625:15054   */\n      iszero\n      tag_408\n      jumpi\n        /* \"#utility.yul\":14721:14730   */\n      dup5\n        /* \"#utility.yul\":14715:14719   */\n      dup5\n        /* \"#utility.yul\":14711:14731   */\n      sub\n        /* \"#utility.yul\":14706:14709   */\n      dup10\n        /* \"#utility.yul\":14699:14732   */\n      mstore\n        /* \"#utility.yul\":14772:14778   */\n      dup2\n        /* \"#utility.yul\":14766:14779   */\n      mload\n        /* \"#utility.yul\":14800:14906   */\n      tag_409\n        /* \"#utility.yul\":14901:14905   */\n      dup6\n        /* \"#utility.yul\":14886:14899   */\n      dup3\n        /* \"#utility.yul\":14800:14906   */\n      tag_243\n      jump\t// in\n    tag_409:\n        /* \"#utility.yul\":14792:14906   */\n      swap5\n      pop\n        /* \"#utility.yul\":14929:15010   */\n      tag_410\n        /* \"#utility.yul\":15003:15009   */\n      dup4\n        /* \"#utility.yul\":14929:15010   */\n      tag_244\n      jump\t// in\n    tag_410:\n        /* \"#utility.yul\":14919:15010   */\n      swap3\n      pop\n        /* \"#utility.yul\":15039:15043   */\n      0x20\n        /* \"#utility.yul\":15034:15037   */\n      dup11\n        /* \"#utility.yul\":15030:15044   */\n      add\n        /* \"#utility.yul\":15023:15044   */\n      swap10\n      pop\n        /* \"#utility.yul\":14685:15054   */\n      pop\n        /* \"#utility.yul\":14672:14673   */\n      0x01\n        /* \"#utility.yul\":14669:14670   */\n      dup2\n        /* \"#utility.yul\":14665:14674   */\n      add\n        /* \"#utility.yul\":14660:14674   */\n      swap1\n      pop\n        /* \"#utility.yul\":14625:15054   */\n      jump(tag_406)\n    tag_408:\n        /* \"#utility.yul\":14629:14643   */\n      pop\n        /* \"#utility.yul\":15070:15074   */\n      dup3\n        /* \"#utility.yul\":15063:15074   */\n      swap8\n      pop\n        /* \"#utility.yul\":15090:15093   */\n      dup8\n        /* \"#utility.yul\":15083:15093   */\n      swap6\n      pop\n        /* \"#utility.yul\":14186:15099   */\n      pop\n      pop\n      pop\n      pop\n      pop\n        /* \"#utility.yul\":14020:15099   */\n      swap3\n      swap2\n      pop\n      pop\n      jump\t// out\n        /* \"#utility.yul\":15105:15562   */\n    tag_40:\n        /* \"#utility.yul\":15290:15294   */\n      0x00\n        /* \"#utility.yul\":15328:15330   */\n      0x20\n        /* \"#utility.yul\":15317:15326   */\n      dup3\n        /* \"#utility.yul\":15313:15331   */\n      add\n        /* \"#utility.yul\":15305:15331   */\n      swap1\n      pop\n        /* \"#utility.yul\":15377:15386   */\n      dup2\n        /* \"#utility.yul\":15371:15375   */\n      dup2\n        /* \"#utility.yul\":15367:15387   */\n      sub\n        /* \"#utility.yul\":15363:15364   */\n      0x00\n        /* \"#utility.yul\":15352:15361   */\n      dup4\n        /* \"#utility.yul\":15348:15365   */\n      add\n        /* \"#utility.yul\":15341:15388   */\n      mstore\n        /* \"#utility.yul\":15405:15555   */\n      tag_412\n        /* \"#utility.yul\":15550:15554   */\n      dup2\n        /* \"#utility.yul\":15541:15547   */\n      dup5\n        /* \"#utility.yul\":15405:15555   */\n      tag_245\n      jump\t// in\n    tag_412:\n        /* \"#utility.yul\":15397:15555   */\n      swap1\n      pop\n        /* \"#utility.yul\":15105:15562   */\n      swap3\n      swap2\n      pop\n      pop\n      jump\t// out\n        /* \"#utility.yul\":15568:15705   */\n    tag_246:\n        /* \"#utility.yul\":15658:15664   */\n      0x00\n        /* \"#utility.yul\":15692:15697   */\n      dup2\n        /* \"#utility.yul\":15686:15698   */\n      mload\n        /* \"#utility.yul\":15676:15698   */\n      swap1\n      pop\n        /* \"#utility.yul\":15568:15705   */\n      swap2\n      swap1\n      pop\n      jump\t// out\n        /* \"#utility.yul\":15711:15918   */\n    tag_247:\n        /* \"#utility.yul\":15833:15844   */\n      0x00\n        /* \"#utility.yul\":15867:15873   */\n      dup3\n        /* \"#utility.yul\":15862:15865   */\n      dup3\n        /* \"#utility.yul\":15855:15874   */\n      mstore\n        /* \"#utility.yul\":15907:15911   */\n      0x20\n        /* \"#utility.yul\":15902:15905   */\n      dup3\n        /* \"#utility.yul\":15898:15912   */\n      add\n        /* \"#utility.yul\":15883:15912   */\n      swap1\n      pop\n        /* \"#utility.yul\":15711:15918   */\n      swap3\n      swap2\n      pop\n      pop\n      jump\t// out\n        /* \"#utility.yul\":15924:16079   */\n    tag_248:\n        /* \"#utility.yul\":16014:16018   */\n      0x00\n        /* \"#utility.yul\":16037:16040   */\n      dup2\n        /* \"#utility.yul\":16029:16040   */\n      swap1\n      pop\n        /* \"#utility.yul\":16067:16071   */\n      0x20\n        /* \"#utility.yul\":16062:16065   */\n      dup3\n        /* \"#utility.yul\":16058:16072   */\n      add\n        /* \"#utility.yul\":16050:16072   */\n      swap1\n      pop\n        /* \"#utility.yul\":15924:16079   */\n      swap2\n      swap1\n      pop\n      jump\t// out\n        /* \"#utility.yul\":16085:16333   */\n    tag_249:\n        /* \"#utility.yul\":16200:16210   */\n      0x00\n        /* \"#utility.yul\":16235:16327   */\n      tag_417\n        /* \"#utility.yul\":16323:16326   */\n      dup4\n        /* \"#utility.yul\":16315:16321   */\n      dup4\n        /* \"#utility.yul\":16235:16327   */\n      tag_241\n      jump\t// in\n    tag_417:\n        /* \"#utility.yul\":16221:16327   */\n      swap1\n      pop\n        /* \"#utility.yul\":16085:16333   */\n      swap3\n      swap2\n      pop\n      pop\n      jump\t// out\n        /* \"#utility.yul\":16339:16475   */\n    tag_250:\n        /* \"#utility.yul\":16432:16436   */\n      0x00\n        /* \"#utility.yul\":16464:16468   */\n      0x20\n        /* \"#utility.yul\":16459:16462   */\n      dup3\n        /* \"#utility.yul\":16455:16469   */\n      add\n        /* \"#utility.yul\":16447:16469   */\n      swap1\n      pop\n        /* \"#utility.yul\":16339:16475   */\n      swap2\n      swap1\n      pop\n      jump\t// out\n        /* \"#utility.yul\":16539:17634   */\n    tag_251:\n        /* \"#utility.yul\":16704:16707   */\n      0x00\n        /* \"#utility.yul\":16733:16810   */\n      tag_420\n        /* \"#utility.yul\":16804:16809   */\n      dup3\n        /* \"#utility.yul\":16733:16810   */\n      tag_246\n      jump\t// in\n    tag_420:\n        /* \"#utility.yul\":16826:16935   */\n      tag_421\n        /* \"#utility.yul\":16928:16934   */\n      dup2\n        /* \"#utility.yul\":16923:16926   */\n      dup6\n        /* \"#utility.yul\":16826:16935   */\n      tag_247\n      jump\t// in\n    tag_421:\n        /* \"#utility.yul\":16819:16935   */\n      swap4\n      pop\n        /* \"#utility.yul\":16961:16964   */\n      dup4\n        /* \"#utility.yul\":17006:17010   */\n      0x20\n        /* \"#utility.yul\":16998:17004   */\n      dup3\n        /* \"#utility.yul\":16994:17011   */\n      mul\n        /* \"#utility.yul\":16989:16992   */\n      dup6\n        /* \"#utility.yul\":16985:17012   */\n      add\n        /* \"#utility.yul\":17036:17115   */\n      tag_422\n        /* \"#utility.yul\":17109:17114   */\n      dup6\n        /* \"#utility.yul\":17036:17115   */\n      tag_248\n      jump\t// in\n    tag_422:\n        /* \"#utility.yul\":17138:17145   */\n      dup1\n        /* \"#utility.yul\":17169:17170   */\n      0x00\n        /* \"#utility.yul\":17154:17589   */\n    tag_423:\n        /* \"#utility.yul\":17179:17185   */\n      dup6\n        /* \"#utility.yul\":17176:17177   */\n      dup2\n        /* \"#utility.yul\":17173:17186   */\n      lt\n        /* \"#utility.yul\":17154:17589   */\n      iszero\n      tag_425\n      jumpi\n        /* \"#utility.yul\":17250:17259   */\n      dup5\n        /* \"#utility.yul\":17244:17248   */\n      dup5\n        /* \"#utility.yul\":17240:17260   */\n      sub\n        /* \"#utility.yul\":17235:17238   */\n      dup10\n        /* \"#utility.yul\":17228:17261   */\n      mstore\n        /* \"#utility.yul\":17301:17307   */\n      dup2\n        /* \"#utility.yul\":17295:17308   */\n      mload\n        /* \"#utility.yul\":17329:17439   */\n      tag_426\n        /* \"#utility.yul\":17434:17438   */\n      dup6\n        /* \"#utility.yul\":17419:17432   */\n      dup3\n        /* \"#utility.yul\":17329:17439   */\n      tag_249\n      jump\t// in\n    tag_426:\n        /* \"#utility.yul\":17321:17439   */\n      swap5\n      pop\n        /* \"#utility.yul\":17462:17545   */\n      tag_427\n        /* \"#utility.yul\":17538:17544   */\n      dup4\n        /* \"#utility.yul\":17462:17545   */\n      tag_250\n      jump\t// in\n    tag_427:\n        /* \"#utility.yul\":17452:17545   */\n      swap3\n      pop\n        /* \"#utility.yul\":17574:17578   */\n      0x20\n        /* \"#utility.yul\":17569:17572   */\n      dup11\n        /* \"#utility.yul\":17565:17579   */\n      add\n        /* \"#utility.yul\":17558:17579   */\n      swap10\n      pop\n        /* \"#utility.yul\":17214:17589   */\n      pop\n        /* \"#utility.yul\":17201:17202   */\n      0x01\n        /* \"#utility.yul\":17198:17199   */\n      dup2\n        /* \"#utility.yul\":17194:17203   */\n      add\n        /* \"#utility.yul\":17189:17203   */\n      swap1\n      pop\n        /* \"#utility.yul\":17154:17589   */\n      jump(tag_423)\n    tag_425:\n        /* \"#utility.yul\":17158:17172   */\n      pop\n        /* \"#utility.yul\":17605:17609   */\n      dup3\n        /* \"#utility.yul\":17598:17609   */\n      swap8\n      pop\n        /* \"#utility.yul\":17625:17628   */\n      dup8\n        /* \"#utility.yul\":17618:17628   */\n      swap6\n      pop\n        /* \"#utility.yul\":16709:17634   */\n      pop\n      pop\n      pop\n      pop\n      pop\n        /* \"#utility.yul\":16539:17634   */\n      swap3\n      swap2\n      pop\n      pop\n      jump\t// out\n        /* \"#utility.yul\":17640:18105   */\n    tag_45:\n        /* \"#utility.yul\":17829:17833   */\n      0x00\n        /* \"#utility.yul\":17867:17869   */\n      0x20\n        /* \"#utility.yul\":17856:17865   */\n      dup3\n        /* \"#utility.yul\":17852:17870   */\n      add\n        /* \"#utility.yul\":17844:17870   */\n      swap1\n      pop\n        /* \"#utility.yul\":17916:17925   */\n      dup2\n        /* \"#utility.yul\":17910:17914   */\n      dup2\n        /* \"#utility.yul\":17906:17926   */\n      sub\n        /* \"#utility.yul\":17902:17903   */\n      0x00\n        /* \"#utility.yul\":17891:17900   */\n      dup4\n        /* \"#utility.yul\":17887:17904   */\n      add\n        /* \"#utility.yul\":17880:17927   */\n      mstore\n        /* \"#utility.yul\":17944:18098   */\n      tag_429\n        /* \"#utility.yul\":18093:18097   */\n      dup2\n        /* \"#utility.yul\":18084:18090   */\n      dup5\n        /* \"#utility.yul\":17944:18098   */\n      tag_251\n      jump\t// in\n    tag_429:\n        /* \"#utility.yul\":17936:18098   */\n      swap1\n      pop\n        /* \"#utility.yul\":17640:18105   */\n      swap3\n      swap2\n      pop\n      pop\n      jump\t// out\n        /* \"#utility.yul\":18111:18280   */\n    tag_252:\n        /* \"#utility.yul\":18195:18206   */\n      0x00\n        /* \"#utility.yul\":18229:18235   */\n      dup3\n        /* \"#utility.yul\":18224:18227   */\n      dup3\n        /* \"#utility.yul\":18217:18236   */\n      mstore\n        /* \"#utility.yul\":18269:18273   */\n      0x20\n        /* \"#utility.yul\":18264:18267   */\n      dup3\n        /* \"#utility.yul\":18260:18274   */\n      add\n        /* \"#utility.yul\":18245:18274   */\n      swap1\n      pop\n        /* \"#utility.yul\":18111:18280   */\n      swap3\n      swap2\n      pop\n      pop\n      jump\t// out\n        /* \"#utility.yul\":18286:18457   */\n    tag_253:\n        /* \"#utility.yul\":18426:18449   */\n      0x596f7520617265206e6f7420746865206f77656e720000000000000000000000\n        /* \"#utility.yul\":18422:18423   */\n      0x00\n        /* \"#utility.yul\":18414:18420   */\n      dup3\n        /* \"#utility.yul\":18410:18424   */\n      add\n        /* \"#utility.yul\":18403:18450   */\n      mstore\n        /* \"#utility.yul\":18286:18457   */\n      pop\n      jump\t// out\n        /* \"#utility.yul\":18463:18829   */\n    tag_254:\n        /* \"#utility.yul\":18605:18608   */\n      0x00\n        /* \"#utility.yul\":18626:18693   */\n      tag_433\n        /* \"#utility.yul\":18690:18692   */\n      0x15\n        /* \"#utility.yul\":18685:18688   */\n      dup4\n        /* \"#utility.yul\":18626:18693   */\n      tag_252\n      jump\t// in\n    tag_433:\n        /* \"#utility.yul\":18619:18693   */\n      swap2\n      pop\n        /* \"#utility.yul\":18702:18795   */\n      tag_434\n        /* \"#utility.yul\":18791:18794   */\n      dup3\n        /* \"#utility.yul\":18702:18795   */\n      tag_253\n      jump\t// in\n    tag_434:\n        /* \"#utility.yul\":18820:18822   */\n      0x20\n        /* \"#utility.yul\":18815:18818   */\n      dup3\n        /* \"#utility.yul\":18811:18823   */\n      add\n        /* \"#utility.yul\":18804:18823   */\n      swap1\n      pop\n        /* \"#utility.yul\":18463:18829   */\n      swap2\n      swap1\n      pop\n      jump\t// out\n        /* \"#utility.yul\":18835:19254   */\n    tag_52:\n        /* \"#utility.yul\":19001:19005   */\n      0x00\n        /* \"#utility.yul\":19039:19041   */\n      0x20\n        /* \"#utility.yul\":19028:19037   */\n      dup3\n        /* \"#utility.yul\":19024:19042   */\n      add\n        /* \"#utility.yul\":19016:19042   */\n      swap1\n      pop\n        /* \"#utility.yul\":19088:19097   */\n      dup2\n        /* \"#utility.yul\":19082:19086   */\n      dup2\n        /* \"#utility.yul\":19078:19098   */\n      sub\n        /* \"#utility.yul\":19074:19075   */\n      0x00\n        /* \"#utility.yul\":19063:19072   */\n      dup4\n        /* \"#utility.yul\":19059:19076   */\n      add\n        /* \"#utility.yul\":19052:19099   */\n      mstore\n        /* \"#utility.yul\":19116:19247   */\n      tag_436\n        /* \"#utility.yul\":19242:19246   */\n      dup2\n        /* \"#utility.yul\":19116:19247   */\n      tag_254\n      jump\t// in\n    tag_436:\n        /* \"#utility.yul\":19108:19247   */\n      swap1\n      pop\n        /* \"#utility.yul\":18835:19254   */\n      swap2\n      swap1\n      pop\n      jump\t// out\n        /* \"#utility.yul\":19260:19407   */\n    tag_255:\n        /* \"#utility.yul\":19361:19372   */\n      0x00\n        /* \"#utility.yul\":19398:19401   */\n      dup2\n        /* \"#utility.yul\":19383:19401   */\n      swap1\n      pop\n        /* \"#utility.yul\":19260:19407   */\n      swap3\n      swap2\n      pop\n      pop\n      jump\t// out\n        /* \"#utility.yul\":19413:19527   */\n    tag_256:\n      pop\n      jump\t// out\n        /* \"#utility.yul\":19533:19931   */\n    tag_257:\n        /* \"#utility.yul\":19692:19695   */\n      0x00\n        /* \"#utility.yul\":19713:19796   */\n      tag_440\n        /* \"#utility.yul\":19794:19795   */\n      0x00\n        /* \"#utility.yul\":19789:19792   */\n      dup4\n        /* \"#utility.yul\":19713:19796   */\n      tag_255\n      jump\t// in\n    tag_440:\n        /* \"#utility.yul\":19706:19796   */\n      swap2\n      pop\n        /* \"#utility.yul\":19805:19898   */\n      tag_441\n        /* \"#utility.yul\":19894:19897   */\n      dup3\n        /* \"#utility.yul\":19805:19898   */\n      tag_256\n      jump\t// in\n    tag_441:\n        /* \"#utility.yul\":19923:19924   */\n      0x00\n        /* \"#utility.yul\":19918:19921   */\n      dup3\n        /* \"#utility.yul\":19914:19925   */\n      add\n        /* \"#utility.yul\":19907:19925   */\n      swap1\n      pop\n        /* \"#utility.yul\":19533:19931   */\n      swap2\n      swap1\n      pop\n      jump\t// out\n        /* \"#utility.yul\":19937:20316   */\n    tag_55:\n        /* \"#utility.yul\":20121:20124   */\n      0x00\n        /* \"#utility.yul\":20143:20290   */\n      tag_443\n        /* \"#utility.yul\":20286:20289   */\n      dup3\n        /* \"#utility.yul\":20143:20290   */\n      tag_257\n      jump\t// in\n    tag_443:\n        /* \"#utility.yul\":20136:20290   */\n      swap2\n      pop\n        /* \"#utility.yul\":20307:20310   */\n      dup2\n        /* \"#utility.yul\":20300:20310   */\n      swap1\n      pop\n        /* \"#utility.yul\":19937:20316   */\n      swap2\n      swap1\n      pop\n      jump\t// out\n        /* \"#utility.yul\":20322:20497   */\n    tag_258:\n        /* \"#utility.yul\":20462:20489   */\n      0x50726f6475637420697320616c72656164792045786973742e00000000000000\n        /* \"#utility.yul\":20458:20459   */\n      0x00\n        /* \"#utility.yul\":20450:20456   */\n      dup3\n        /* \"#utility.yul\":20446:20460   */\n      add\n        /* \"#utility.yul\":20439:20490   */\n      mstore\n        /* \"#utility.yul\":20322:20497   */\n      pop\n      jump\t// out\n        /* \"#utility.yul\":20503:20869   */\n    tag_259:\n        /* \"#utility.yul\":20645:20648   */\n      0x00\n        /* \"#utility.yul\":20666:20733   */\n      tag_446\n        /* \"#utility.yul\":20730:20732   */\n      0x19\n        /* \"#utility.yul\":20725:20728   */\n      dup4\n        /* \"#utility.yul\":20666:20733   */\n      tag_252\n      jump\t// in\n    tag_446:\n        /* \"#utility.yul\":20659:20733   */\n      swap2\n      pop\n        /* \"#utility.yul\":20742:20835   */\n      tag_447\n        /* \"#utility.yul\":20831:20834   */\n      dup3\n        /* \"#utility.yul\":20742:20835   */\n      tag_258\n      jump\t// in\n    tag_447:\n        /* \"#utility.yul\":20860:20862   */\n      0x20\n        /* \"#utility.yul\":20855:20858   */\n      dup3\n        /* \"#utility.yul\":20851:20863   */\n      add\n        /* \"#utility.yul\":20844:20863   */\n      swap1\n      pop\n        /* \"#utility.yul\":20503:20869   */\n      swap2\n      swap1\n      pop\n      jump\t// out\n        /* \"#utility.yul\":20875:21294   */\n    tag_66:\n        /* \"#utility.yul\":21041:21045   */\n      0x00\n        /* \"#utility.yul\":21079:21081   */\n      0x20\n        /* \"#utility.yul\":21068:21077   */\n      dup3\n        /* \"#utility.yul\":21064:21082   */\n      add\n        /* \"#utility.yul\":21056:21082   */\n      swap1\n      pop\n        /* \"#utility.yul\":21128:21137   */\n      dup2\n        /* \"#utility.yul\":21122:21126   */\n      dup2\n        /* \"#utility.yul\":21118:21138   */\n      sub\n        /* \"#utility.yul\":21114:21115   */\n      0x00\n        /* \"#utility.yul\":21103:21112   */\n      dup4\n        /* \"#utility.yul\":21099:21116   */\n      add\n        /* \"#utility.yul\":21092:21139   */\n      mstore\n        /* \"#utility.yul\":21156:21287   */\n      tag_449\n        /* \"#utility.yul\":21282:21286   */\n      dup2\n        /* \"#utility.yul\":21156:21287   */\n      tag_259\n      jump\t// in\n    tag_449:\n        /* \"#utility.yul\":21148:21287   */\n      swap1\n      pop\n        /* \"#utility.yul\":20875:21294   */\n      swap2\n      swap1\n      pop\n      jump\t// out\n        /* \"#utility.yul\":21300:21480   */\n    tag_260:\n        /* \"#utility.yul\":21348:21425   */\n      0x4e487b7100000000000000000000000000000000000000000000000000000000\n        /* \"#utility.yul\":21345:21346   */\n      0x00\n        /* \"#utility.yul\":21338:21426   */\n      mstore\n        /* \"#utility.yul\":21445:21449   */\n      0x22\n        /* \"#utility.yul\":21442:21443   */\n      0x04\n        /* \"#utility.yul\":21435:21450   */\n      mstore\n        /* \"#utility.yul\":21469:21473   */\n      0x24\n        /* \"#utility.yul\":21466:21467   */\n      0x00\n        /* \"#utility.yul\":21459:21474   */\n      revert\n        /* \"#utility.yul\":21486:21806   */\n    tag_85:\n        /* \"#utility.yul\":21530:21536   */\n      0x00\n        /* \"#utility.yul\":21567:21568   */\n      0x02\n        /* \"#utility.yul\":21561:21565   */\n      dup3\n        /* \"#utility.yul\":21557:21569   */\n      div\n        /* \"#utility.yul\":21547:21569   */\n      swap1\n      pop\n        /* \"#utility.yul\":21614:21615   */\n      0x01\n        /* \"#utility.yul\":21608:21612   */\n      dup3\n        /* \"#utility.yul\":21604:21616   */\n      and\n        /* \"#utility.yul\":21635:21653   */\n      dup1\n        /* \"#utility.yul\":21625:21706   */\n      tag_452\n      jumpi\n        /* \"#utility.yul\":21691:21695   */\n      0x7f\n        /* \"#utility.yul\":21683:21689   */\n      dup3\n        /* \"#utility.yul\":21679:21696   */\n      and\n        /* \"#utility.yul\":21669:21696   */\n      swap2\n      pop\n        /* \"#utility.yul\":21625:21706   */\n    tag_452:\n        /* \"#utility.yul\":21753:21755   */\n      0x20\n        /* \"#utility.yul\":21745:21751   */\n      dup3\n        /* \"#utility.yul\":21742:21756   */\n      lt\n        /* \"#utility.yul\":21722:21740   */\n      dup2\n        /* \"#utility.yul\":21719:21757   */\n      sub\n        /* \"#utility.yul\":21716:21800   */\n      tag_453\n      jumpi\n        /* \"#utility.yul\":21772:21790   */\n      tag_454\n      tag_260\n      jump\t// in\n    tag_454:\n        /* \"#utility.yul\":21716:21800   */\n    tag_453:\n        /* \"#utility.yul\":21537:21806   */\n      pop\n        /* \"#utility.yul\":21486:21806   */\n      swap2\n      swap1\n      pop\n      jump\t// out\n        /* \"#utility.yul\":21812:21953   */\n    tag_261:\n        /* \"#utility.yul\":21861:21865   */\n      0x00\n        /* \"#utility.yul\":21884:21887   */\n      dup2\n        /* \"#utility.yul\":21876:21887   */\n      swap1\n      pop\n        /* \"#utility.yul\":21907:21910   */\n      dup2\n        /* \"#utility.yul\":21904:21905   */\n      0x00\n        /* \"#utility.yul\":21897:21911   */\n      mstore\n        /* \"#utility.yul\":21941:21945   */\n      0x20\n        /* \"#utility.yul\":21938:21939   */\n      0x00\n        /* \"#utility.yul\":21928:21946   */\n      keccak256\n        /* \"#utility.yul\":21920:21946   */\n      swap1\n      pop\n        /* \"#utility.yul\":21812:21953   */\n      swap2\n      swap1\n      pop\n      jump\t// out\n        /* \"#utility.yul\":21959:22052   */\n    tag_262:\n        /* \"#utility.yul\":21996:22002   */\n      0x00\n        /* \"#utility.yul\":22043:22045   */\n      0x20\n        /* \"#utility.yul\":22038:22040   */\n      0x1f\n        /* \"#utility.yul\":22031:22036   */\n      dup4\n        /* \"#utility.yul\":22027:22041   */\n      add\n        /* \"#utility.yul\":22023:22046   */\n      div\n        /* \"#utility.yul\":22013:22046   */\n      swap1\n      pop\n        /* \"#utility.yul\":21959:22052   */\n      swap2\n      swap1\n      pop\n      jump\t// out\n        /* \"#utility.yul\":22058:22165   */\n    tag_263:\n        /* \"#utility.yul\":22102:22110   */\n      0x00\n        /* \"#utility.yul\":22152:22157   */\n      dup3\n        /* \"#utility.yul\":22146:22150   */\n      dup3\n        /* \"#utility.yul\":22142:22158   */\n      shl\n        /* \"#utility.yul\":22121:22158   */\n      swap1\n      pop\n        /* \"#utility.yul\":22058:22165   */\n      swap3\n      swap2\n      pop\n      pop\n      jump\t// out\n        /* \"#utility.yul\":22171:22564   */\n    tag_264:\n        /* \"#utility.yul\":22240:22246   */\n      0x00\n        /* \"#utility.yul\":22290:22291   */\n      0x08\n        /* \"#utility.yul\":22278:22288   */\n      dup4\n        /* \"#utility.yul\":22274:22292   */\n      mul\n        /* \"#utility.yul\":22313:22410   */\n      tag_459\n        /* \"#utility.yul\":22343:22409   */\n      0xffffffffffffffffffffffffffffffffffffffffffffffffffffffffffffffff\n        /* \"#utility.yul\":22332:22341   */\n      dup3\n        /* \"#utility.yul\":22313:22410   */\n      tag_263\n      jump\t// in\n    tag_459:\n        /* \"#utility.yul\":22431:22470   */\n      tag_460\n        /* \"#utility.yul\":22461:22469   */\n      dup7\n        /* \"#utility.yul\":22450:22459   */\n      dup4\n        /* \"#utility.yul\":22431:22470   */\n      tag_263\n      jump\t// in\n    tag_460:\n        /* \"#utility.yul\":22419:22470   */\n      swap6\n      pop\n        /* \"#utility.yul\":22503:22507   */\n      dup1\n        /* \"#utility.yul\":22499:22508   */\n      not\n        /* \"#utility.yul\":22492:22497   */\n      dup5\n        /* \"#utility.yul\":22488:22509   */\n      and\n        /* \"#utility.yul\":22479:22509   */\n      swap4\n      pop\n        /* \"#utility.yul\":22552:22556   */\n      dup1\n        /* \"#utility.yul\":22542:22550   */\n      dup7\n        /* \"#utility.yul\":22538:22557   */\n      and\n        /* \"#utility.yul\":22531:22536   */\n      dup5\n        /* \"#utility.yul\":22528:22558   */\n      or\n        /* \"#utility.yul\":22518:22558   */\n      swap3\n      pop\n        /* \"#utility.yul\":22247:22564   */\n      pop\n      pop\n        /* \"#utility.yul\":22171:22564   */\n      swap4\n      swap3\n      pop\n      pop\n      pop\n      jump\t// out\n        /* \"#utility.yul\":22570:22630   */\n    tag_265:\n        /* \"#utility.yul\":22598:22601   */\n      0x00\n        /* \"#utility.yul\":22619:22624   */\n      dup2\n        /* \"#utility.yul\":22612:22624   */\n      swap1\n      pop\n        /* \"#utility.yul\":22570:22630   */\n      swap2\n      swap1\n      pop\n      jump\t// out\n        /* \"#utility.yul\":22636:22778   */\n    tag_266:\n        /* \"#utility.yul\":22686:22695   */\n      0x00\n        /* \"#utility.yul\":22719:22772   */\n      tag_463\n        /* \"#utility.yul\":22737:22771   */\n      tag_464\n        /* \"#utility.yul\":22746:22770   */\n      tag_465\n        /* \"#utility.yul\":22764:22769   */\n      dup5\n        /* \"#utility.yul\":22746:22770   */\n      tag_214\n      jump\t// in\n    tag_465:\n        /* \"#utility.yul\":22737:22771   */\n      tag_265\n      jump\t// in\n    tag_464:\n        /* \"#utility.yul\":22719:22772   */\n      tag_214\n      jump\t// in\n    tag_463:\n        /* \"#utility.yul\":22706:22772   */\n      swap1\n      pop\n        /* \"#utility.yul\":22636:22778   */\n      swap2\n      swap1\n      pop\n      jump\t// out\n        /* \"#utility.yul\":22784:22859   */\n    tag_267:\n        /* \"#utility.yul\":22827:22830   */\n      0x00\n        /* \"#utility.yul\":22848:22853   */\n      dup2\n        /* \"#utility.yul\":22841:22853   */\n      swap1\n      pop\n        /* \"#utility.yul\":22784:22859   */\n      swap2\n      swap1\n      pop\n      jump\t// out\n        /* \"#utility.yul\":22865:23134   */\n    tag_268:\n        /* \"#utility.yul\":22975:23014   */\n      tag_468\n        /* \"#utility.yul\":23006:23013   */\n      dup4\n        /* \"#utility.yul\":22975:23014   */\n      tag_266\n      jump\t// in\n    tag_468:\n        /* \"#utility.yul\":23036:23127   */\n      tag_469\n        /* \"#utility.yul\":23085:23126   */\n      tag_470\n        /* \"#utility.yul\":23109:23125   */\n      dup3\n        /* \"#utility.yul\":23085:23126   */\n      tag_267\n      jump\t// in\n    tag_470:\n        /* \"#utility.yul\":23077:23083   */\n      dup5\n        /* \"#utility.yul\":23070:23074   */\n      dup5\n        /* \"#utility.yul\":23064:23075   */\n      sload\n        /* \"#utility.yul\":23036:23127   */\n      tag_264\n      jump\t// in\n    tag_469:\n        /* \"#utility.yul\":23030:23034   */\n      dup3\n        /* \"#utility.yul\":23023:23128   */\n      sstore\n        /* \"#utility.yul\":22941:23134   */\n      pop\n        /* \"#utility.yul\":22865:23134   */\n      pop\n      pop\n      pop\n      jump\t// out\n        /* \"#utility.yul\":23140:23213   */\n    tag_269:\n        /* \"#utility.yul\":23185:23188   */\n      0x00\n        /* \"#utility.yul\":23206:23207   */\n      0x00\n        /* \"#utility.yul\":23199:23207   */\n      swap1\n      pop\n        /* \"#utility.yul\":23140:23213   */\n      swap1\n      jump\t// out\n        /* \"#utility.yul\":23219:23408   */\n    tag_270:\n        /* \"#utility.yul\":23296:23328   */\n      tag_473\n      tag_269\n      jump\t// in\n    tag_473:\n        /* \"#utility.yul\":23337:23402   */\n      tag_474\n        /* \"#utility.yul\":23395:23401   */\n      dup2\n        /* \"#utility.yul\":23387:23393   */\n      dup5\n        /* \"#utility.yul\":23381:23385   */\n      dup5\n        /* \"#utility.yul\":23337:23402   */\n      tag_268\n      jump\t// in\n    tag_474:\n        /* \"#utility.yul\":23272:23408   */\n      pop\n        /* \"#utility.yul\":23219:23408   */\n      pop\n      pop\n      jump\t// out\n        /* \"#utility.yul\":23414:23600   */\n    tag_271:\n        /* \"#utility.yul\":23474:23594   */\n    tag_476:\n        /* \"#utility.yul\":23491:23494   */\n      dup2\n        /* \"#utility.yul\":23484:23489   */\n      dup2\n        /* \"#utility.yul\":23481:23495   */\n      lt\n        /* \"#utility.yul\":23474:23594   */\n      iszero\n      tag_478\n      jumpi\n        /* \"#utility.yul\":23545:23584   */\n      tag_479\n        /* \"#utility.yul\":23582:23583   */\n      0x00\n        /* \"#utility.yul\":23575:23580   */\n      dup3\n        /* \"#utility.yul\":23545:23584   */\n      tag_270\n      jump\t// in\n    tag_479:\n        /* \"#utility.yul\":23518:23519   */\n      0x01\n        /* \"#utility.yul\":23511:23516   */\n      dup2\n        /* \"#utility.yul\":23507:23520   */\n      add\n        /* \"#utility.yul\":23498:23520   */\n      swap1\n      pop\n        /* \"#utility.yul\":23474:23594   */\n      jump(tag_476)\n    tag_478:\n        /* \"#utility.yul\":23414:23600   */\n      pop\n      pop\n      jump\t// out\n        /* \"#utility.yul\":23606:24149   */\n    tag_272:\n        /* \"#utility.yul\":23707:23709   */\n      0x1f\n        /* \"#utility.yul\":23702:23705   */\n      dup3\n        /* \"#utility.yul\":23699:23710   */\n      gt\n        /* \"#utility.yul\":23696:24142   */\n      iszero\n      tag_481\n      jumpi\n        /* \"#utility.yul\":23741:23779   */\n      tag_482\n        /* \"#utility.yul\":23773:23778   */\n      dup2\n        /* \"#utility.yul\":23741:23779   */\n      tag_261\n      jump\t// in\n    tag_482:\n        /* \"#utility.yul\":23825:23854   */\n      tag_483\n        /* \"#utility.yul\":23843:23853   */\n      dup5\n        /* \"#utility.yul\":23825:23854   */\n      tag_262\n      jump\t// in\n    tag_483:\n        /* \"#utility.yul\":23815:23823   */\n      dup2\n        /* \"#utility.yul\":23811:23855   */\n      add\n        /* \"#utility.yul\":24008:24010   */\n      0x20\n        /* \"#utility.yul\":23996:24006   */\n      dup6\n        /* \"#utility.yul\":23993:24011   */\n      lt\n        /* \"#utility.yul\":23990:24039   */\n      iszero\n      tag_484\n      jumpi\n        /* \"#utility.yul\":24029:24037   */\n      dup2\n        /* \"#utility.yul\":24014:24037   */\n      swap1\n      pop\n        /* \"#utility.yul\":23990:24039   */\n    tag_484:\n        /* \"#utility.yul\":24052:24132   */\n      tag_485\n        /* \"#utility.yul\":24108:24130   */\n      tag_486\n        /* \"#utility.yul\":24126:24129   */\n      dup6\n        /* \"#utility.yul\":24108:24130   */\n      tag_262\n      jump\t// in\n    tag_486:\n        /* \"#utility.yul\":24098:24106   */\n      dup4\n        /* \"#utility.yul\":24094:24131   */\n      add\n        /* \"#utility.yul\":24081:24092   */\n      dup3\n        /* \"#utility.yul\":24052:24132   */\n      tag_271\n      jump\t// in\n    tag_485:\n        /* \"#utility.yul\":23711:24142   */\n      pop\n      pop\n        /* \"#utility.yul\":23696:24142   */\n    tag_481:\n        /* \"#utility.yul\":23606:24149   */\n      pop\n      pop\n      pop\n      jump\t// out\n        /* \"#utility.yul\":24155:24272   */\n    tag_273:\n        /* \"#utility.yul\":24209:24217   */\n      0x00\n        /* \"#utility.yul\":24259:24264   */\n      dup3\n        /* \"#utility.yul\":24253:24257   */\n      dup3\n        /* \"#utility.yul\":24249:24265   */\n      shr\n        /* \"#utility.yul\":24228:24265   */\n      swap1\n      pop\n        /* \"#utility.yul\":24155:24272   */\n      swap3\n      swap2\n      pop\n      pop\n      jump\t// out\n        /* \"#utility.yul\":24278:24447   */\n    tag_274:\n        /* \"#utility.yul\":24322:24328   */\n      0x00\n        /* \"#utility.yul\":24355:24406   */\n      tag_489\n        /* \"#utility.yul\":24403:24404   */\n      0x00\n        /* \"#utility.yul\":24399:24405   */\n      not\n        /* \"#utility.yul\":24391:24396   */\n      dup5\n        /* \"#utility.yul\":24388:24389   */\n      0x08\n        /* \"#utility.yul\":24384:24397   */\n      mul\n        /* \"#utility.yul\":24355:24406   */\n      tag_273\n      jump\t// in\n    tag_489:\n        /* \"#utility.yul\":24351:24407   */\n      not\n        /* \"#utility.yul\":24436:24440   */\n      dup1\n        /* \"#utility.yul\":24430:24434   */\n      dup4\n        /* \"#utility.yul\":24426:24441   */\n      and\n        /* \"#utility.yul\":24416:24441   */\n      swap2\n      pop\n        /* \"#utility.yul\":24329:24447   */\n      pop\n        /* \"#utility.yul\":24278:24447   */\n      swap3\n      swap2\n      pop\n      pop\n      jump\t// out\n        /* \"#utility.yul\":24452:24747   */\n    tag_275:\n        /* \"#utility.yul\":24528:24532   */\n      0x00\n        /* \"#utility.yul\":24674:24703   */\n      tag_491\n        /* \"#utility.yul\":24699:24702   */\n      dup4\n        /* \"#utility.yul\":24693:24697   */\n      dup4\n        /* \"#utility.yul\":24674:24703   */\n      tag_274\n      jump\t// in\n    tag_491:\n        /* \"#utility.yul\":24666:24703   */\n      swap2\n      pop\n        /* \"#utility.yul\":24736:24739   */\n      dup3\n        /* \"#utility.yul\":24733:24734   */\n      0x02\n        /* \"#utility.yul\":24729:24740   */\n      mul\n        /* \"#utility.yul\":24723:24727   */\n      dup3\n        /* \"#utility.yul\":24720:24741   */\n      or\n        /* \"#utility.yul\":24712:24741   */\n      swap1\n      pop\n        /* \"#utility.yul\":24452:24747   */\n      swap3\n      swap2\n      pop\n      pop\n      jump\t// out\n        /* \"#utility.yul\":24752:26147   */\n    tag_68:\n        /* \"#utility.yul\":24869:24906   */\n      tag_493\n        /* \"#utility.yul\":24902:24905   */\n      dup3\n        /* \"#utility.yul\":24869:24906   */\n      tag_233\n      jump\t// in\n    tag_493:\n        /* \"#utility.yul\":24971:24989   */\n      0xffffffffffffffff\n        /* \"#utility.yul\":24963:24969   */\n      dup2\n        /* \"#utility.yul\":24960:24990   */\n      gt\n        /* \"#utility.yul\":24957:25013   */\n      iszero\n      tag_494\n      jumpi\n        /* \"#utility.yul\":24993:25011   */\n      tag_495\n      tag_108\n      jump\t// in\n    tag_495:\n        /* \"#utility.yul\":24957:25013   */\n    tag_494:\n        /* \"#utility.yul\":25037:25075   */\n      tag_496\n        /* \"#utility.yul\":25069:25073   */\n      dup3\n        /* \"#utility.yul\":25063:25074   */\n      sload\n        /* \"#utility.yul\":25037:25075   */\n      tag_85\n      jump\t// in\n    tag_496:\n        /* \"#utility.yul\":25122:25189   */\n      tag_497\n        /* \"#utility.yul\":25182:25188   */\n      dup3\n        /* \"#utility.yul\":25174:25180   */\n      dup3\n        /* \"#utility.yul\":25168:25172   */\n      dup6\n        /* \"#utility.yul\":25122:25189   */\n      tag_272\n      jump\t// in\n    tag_497:\n        /* \"#utility.yul\":25216:25217   */\n      0x00\n        /* \"#utility.yul\":25240:25244   */\n      0x20\n        /* \"#utility.yul\":25227:25244   */\n      swap1\n      pop\n        /* \"#utility.yul\":25272:25274   */\n      0x1f\n        /* \"#utility.yul\":25264:25270   */\n      dup4\n        /* \"#utility.yul\":25261:25275   */\n      gt\n        /* \"#utility.yul\":25289:25290   */\n      0x01\n        /* \"#utility.yul\":25284:25902   */\n      dup2\n      eq\n      tag_499\n      jumpi\n        /* \"#utility.yul\":25946:25947   */\n      0x00\n        /* \"#utility.yul\":25963:25969   */\n      dup5\n        /* \"#utility.yul\":25960:26037   */\n      iszero\n      tag_500\n      jumpi\n        /* \"#utility.yul\":26012:26021   */\n      dup3\n        /* \"#utility.yul\":26007:26010   */\n      dup8\n        /* \"#utility.yul\":26003:26022   */\n      add\n        /* \"#utility.yul\":25997:26023   */\n      mload\n        /* \"#utility.yul\":25988:26023   */\n      swap1\n      pop\n        /* \"#utility.yul\":25960:26037   */\n    tag_500:\n        /* \"#utility.yul\":26063:26130   */\n      tag_501\n        /* \"#utility.yul\":26123:26129   */\n      dup6\n        /* \"#utility.yul\":26116:26121   */\n      dup3\n        /* \"#utility.yul\":26063:26130   */\n      tag_275\n      jump\t// in\n    tag_501:\n        /* \"#utility.yul\":26057:26061   */\n      dup7\n        /* \"#utility.yul\":26050:26131   */\n      sstore\n        /* \"#utility.yul\":25919:26141   */\n      pop\n        /* \"#utility.yul\":25254:26141   */\n      jump(tag_498)\n        /* \"#utility.yul\":25284:25902   */\n    tag_499:\n        /* \"#utility.yul\":25336:25340   */\n      0x1f\n        /* \"#utility.yul\":25332:25341   */\n      not\n        /* \"#utility.yul\":25324:25330   */\n      dup5\n        /* \"#utility.yul\":25320:25342   */\n      and\n        /* \"#utility.yul\":25370:25407   */\n      tag_502\n        /* \"#utility.yul\":25402:25406   */\n      dup7\n        /* \"#utility.yul\":25370:25407   */\n      tag_261\n      jump\t// in\n    tag_502:\n        /* \"#utility.yul\":25429:25430   */\n      0x00\n        /* \"#utility.yul\":25443:25651   */\n    tag_503:\n        /* \"#utility.yul\":25457:25464   */\n      dup3\n        /* \"#utility.yul\":25454:25455   */\n      dup2\n        /* \"#utility.yul\":25451:25465   */\n      lt\n        /* \"#utility.yul\":25443:25651   */\n      iszero\n      tag_505\n      jumpi\n        /* \"#utility.yul\":25536:25545   */\n      dup5\n        /* \"#utility.yul\":25531:25534   */\n      dup10\n        /* \"#utility.yul\":25527:25546   */\n      add\n        /* \"#utility.yul\":25521:25547   */\n      mload\n        /* \"#utility.yul\":25513:25519   */\n      dup3\n        /* \"#utility.yul\":25506:25548   */\n      sstore\n        /* \"#utility.yul\":25587:25588   */\n      0x01\n        /* \"#utility.yul\":25579:25585   */\n      dup3\n        /* \"#utility.yul\":25575:25589   */\n      add\n        /* \"#utility.yul\":25565:25589   */\n      swap2\n      pop\n        /* \"#utility.yul\":25634:25636   */\n      0x20\n        /* \"#utility.yul\":25623:25632   */\n      dup6\n        /* \"#utility.yul\":25619:25637   */\n      add\n        /* \"#utility.yul\":25606:25637   */\n      swap5\n      pop\n        /* \"#utility.yul\":25480:25484   */\n      0x20\n        /* \"#utility.yul\":25477:25478   */\n      dup2\n        /* \"#utility.yul\":25473:25485   */\n      add\n        /* \"#utility.yul\":25468:25485   */\n      swap1\n      pop\n        /* \"#utility.yul\":25443:25651   */\n      jump(tag_503)\n    tag_505:\n        /* \"#utility.yul\":25679:25685   */\n      dup7\n        /* \"#utility.yul\":25670:25677   */\n      dup4\n        /* \"#utility.yul\":25667:25686   */\n      lt\n        /* \"#utility.yul\":25664:25843   */\n      iszero\n      tag_506\n      jumpi\n        /* \"#utility.yul\":25737:25746   */\n      dup5\n        /* \"#utility.yul\":25732:25735   */\n      dup10\n        /* \"#utility.yul\":25728:25747   */\n      add\n        /* \"#utility.yul\":25722:25748   */\n      mload\n        /* \"#utility.yul\":25780:25828   */\n      tag_507\n        /* \"#utility.yul\":25822:25826   */\n      0x1f\n        /* \"#utility.yul\":25814:25820   */\n      dup10\n        /* \"#utility.yul\":25810:25827   */\n      and\n        /* \"#utility.yul\":25799:25808   */\n      dup3\n        /* \"#utility.yul\":25780:25828   */\n      tag_274\n      jump\t// in\n    tag_507:\n        /* \"#utility.yul\":25772:25778   */\n      dup4\n        /* \"#utility.yul\":25765:25829   */\n      sstore\n        /* \"#utility.yul\":25687:25843   */\n      pop\n        /* \"#utility.yul\":25664:25843   */\n    tag_506:\n        /* \"#utility.yul\":25889:25890   */\n      0x01\n        /* \"#utility.yul\":25885:25886   */\n      0x02\n        /* \"#utility.yul\":25877:25883   */\n      dup9\n        /* \"#utility.yul\":25873:25887   */\n      mul\n        /* \"#utility.yul\":25869:25891   */\n      add\n        /* \"#utility.yul\":25863:25867   */\n      dup9\n        /* \"#utility.yul\":25856:25892   */\n      sstore\n        /* \"#utility.yul\":25291:25902   */\n      pop\n      pop\n      pop\n        /* \"#utility.yul\":25254:26141   */\n    tag_498:\n      pop\n        /* \"#utility.yul\":24844:26147   */\n      pop\n      pop\n      pop\n        /* \"#utility.yul\":24752:26147   */\n      pop\n      pop\n      jump\t// out\n        /* \"#utility.yul\":26177:26494   */\n    tag_276:\n        /* \"#utility.yul\":26275:26278   */\n      0x00\n        /* \"#utility.yul\":26296:26367   */\n      tag_509\n        /* \"#utility.yul\":26360:26366   */\n      dup4\n        /* \"#utility.yul\":26355:26358   */\n      dup6\n        /* \"#utility.yul\":26296:26367   */\n      tag_252\n      jump\t// in\n    tag_509:\n        /* \"#utility.yul\":26289:26367   */\n      swap4\n      pop\n        /* \"#utility.yul\":26377:26433   */\n      tag_510\n        /* \"#utility.yul\":26426:26432   */\n      dup4\n        /* \"#utility.yul\":26421:26424   */\n      dup6\n        /* \"#utility.yul\":26414:26419   */\n      dup5\n        /* \"#utility.yul\":26377:26433   */\n      tag_226\n      jump\t// in\n    tag_510:\n        /* \"#utility.yul\":26458:26487   */\n      tag_511\n        /* \"#utility.yul\":26480:26486   */\n      dup4\n        /* \"#utility.yul\":26458:26487   */\n      tag_222\n      jump\t// in\n    tag_511:\n        /* \"#utility.yul\":26453:26456   */\n      dup5\n        /* \"#utility.yul\":26449:26488   */\n      add\n        /* \"#utility.yul\":26442:26488   */\n      swap1\n      pop\n        /* \"#utility.yul\":26177:26494   */\n      swap4\n      swap3\n      pop\n      pop\n      pop\n      jump\t// out\n        /* \"#utility.yul\":26500:26618   */\n    tag_277:\n        /* \"#utility.yul\":26587:26611   */\n      tag_513\n        /* \"#utility.yul\":26605:26610   */\n      dup2\n        /* \"#utility.yul\":26587:26611   */\n      tag_214\n      jump\t// in\n    tag_513:\n        /* \"#utility.yul\":26582:26585   */\n      dup3\n        /* \"#utility.yul\":26575:26612   */\n      mstore\n        /* \"#utility.yul\":26500:26618   */\n      pop\n      pop\n      jump\t// out\n        /* \"#utility.yul\":26624:27177   */\n    tag_74:\n        /* \"#utility.yul\":26803:26807   */\n      0x00\n        /* \"#utility.yul\":26841:26843   */\n      0x60\n        /* \"#utility.yul\":26830:26839   */\n      dup3\n        /* \"#utility.yul\":26826:26844   */\n      add\n        /* \"#utility.yul\":26818:26844   */\n      swap1\n      pop\n        /* \"#utility.yul\":26890:26899   */\n      dup2\n        /* \"#utility.yul\":26884:26888   */\n      dup2\n        /* \"#utility.yul\":26880:26900   */\n      sub\n        /* \"#utility.yul\":26876:26877   */\n      0x00\n        /* \"#utility.yul\":26865:26874   */\n      dup4\n        /* \"#utility.yul\":26861:26878   */\n      add\n        /* \"#utility.yul\":26854:26901   */\n      mstore\n        /* \"#utility.yul\":26918:27006   */\n      tag_515\n        /* \"#utility.yul\":27001:27005   */\n      dup2\n        /* \"#utility.yul\":26992:26998   */\n      dup7\n        /* \"#utility.yul\":26984:26990   */\n      dup9\n        /* \"#utility.yul\":26918:27006   */\n      tag_276\n      jump\t// in\n    tag_515:\n        /* \"#utility.yul\":26910:27006   */\n      swap1\n      pop\n        /* \"#utility.yul\":27016:27088   */\n      tag_516\n        /* \"#utility.yul\":27084:27086   */\n      0x20\n        /* \"#utility.yul\":27073:27082   */\n      dup4\n        /* \"#utility.yul\":27069:27087   */\n      add\n        /* \"#utility.yul\":27060:27066   */\n      dup6\n        /* \"#utility.yul\":27016:27088   */\n      tag_277\n      jump\t// in\n    tag_516:\n        /* \"#utility.yul\":27098:27170   */\n      tag_517\n        /* \"#utility.yul\":27166:27168   */\n      0x40\n        /* \"#utility.yul\":27155:27164   */\n      dup4\n        /* \"#utility.yul\":27151:27169   */\n      add\n        /* \"#utility.yul\":27142:27148   */\n      dup5\n        /* \"#utility.yul\":27098:27170   */\n      tag_277\n      jump\t// in\n    tag_517:\n        /* \"#utility.yul\":26624:27177   */\n      swap6\n      swap5\n      pop\n      pop\n      pop\n      pop\n      pop\n      jump\t// out\n        /* \"#utility.yul\":27183:27363   */\n    tag_278:\n        /* \"#utility.yul\":27231:27308   */\n      0x4e487b7100000000000000000000000000000000000000000000000000000000\n        /* \"#utility.yul\":27228:27229   */\n      0x00\n        /* \"#utility.yul\":27221:27309   */\n      mstore\n        /* \"#utility.yul\":27328:27332   */\n      0x11\n        /* \"#utility.yul\":27325:27326   */\n      0x04\n        /* \"#utility.yul\":27318:27333   */\n      mstore\n        /* \"#utility.yul\":27352:27356   */\n      0x24\n        /* \"#utility.yul\":27349:27350   */\n      0x00\n        /* \"#utility.yul\":27342:27357   */\n      revert\n        /* \"#utility.yul\":27369:27560   */\n    tag_80:\n        /* \"#utility.yul\":27409:27412   */\n      0x00\n        /* \"#utility.yul\":27428:27448   */\n      tag_520\n        /* \"#utility.yul\":27446:27447   */\n      dup3\n        /* \"#utility.yul\":27428:27448   */\n      tag_214\n      jump\t// in\n    tag_520:\n        /* \"#utility.yul\":27423:27448   */\n      swap2\n      pop\n        /* \"#utility.yul\":27462:27482   */\n      tag_521\n        /* \"#utility.yul\":27480:27481   */\n      dup4\n        /* \"#utility.yul\":27462:27482   */\n      tag_214\n      jump\t// in\n    tag_521:\n        /* \"#utility.yul\":27457:27482   */\n      swap3\n      pop\n        /* \"#utility.yul\":27505:27506   */\n      dup3\n        /* \"#utility.yul\":27502:27503   */\n      dup3\n        /* \"#utility.yul\":27498:27507   */\n      add\n        /* \"#utility.yul\":27491:27507   */\n      swap1\n      pop\n        /* \"#utility.yul\":27526:27529   */\n      dup1\n        /* \"#utility.yul\":27523:27524   */\n      dup3\n        /* \"#utility.yul\":27520:27530   */\n      gt\n        /* \"#utility.yul\":27517:27553   */\n      iszero\n      tag_522\n      jumpi\n        /* \"#utility.yul\":27533:27551   */\n      tag_523\n      tag_278\n      jump\t// in\n    tag_523:\n        /* \"#utility.yul\":27517:27553   */\n    tag_522:\n        /* \"#utility.yul\":27369:27560   */\n      swap3\n      swap2\n      pop\n      pop\n      jump\t// out\n        /* \"#utility.yul\":27566:27746   */\n    tag_138:\n        /* \"#utility.yul\":27614:27691   */\n      0x4e487b7100000000000000000000000000000000000000000000000000000000\n        /* \"#utility.yul\":27611:27612   */\n      0x00\n        /* \"#utility.yul\":27604:27692   */\n      mstore\n        /* \"#utility.yul\":27711:27715   */\n      0x32\n        /* \"#utility.yul\":27708:27709   */\n      0x04\n        /* \"#utility.yul\":27701:27716   */\n      mstore\n        /* \"#utility.yul\":27735:27739   */\n      0x24\n        /* \"#utility.yul\":27732:27733   */\n      0x00\n        /* \"#utility.yul\":27725:27740   */\n      revert\n        /* \"#utility.yul\":27752:27972   */\n    tag_279:\n        /* \"#utility.yul\":27892:27926   */\n      0x596f7520646f6e277420686176652073756666696369656e742062616c616e63\n        /* \"#utility.yul\":27888:27889   */\n      0x00\n        /* \"#utility.yul\":27880:27886   */\n      dup3\n        /* \"#utility.yul\":27876:27890   */\n      add\n        /* \"#utility.yul\":27869:27927   */\n      mstore\n        /* \"#utility.yul\":27961:27964   */\n      0x6500000000000000000000000000000000000000000000000000000000000000\n        /* \"#utility.yul\":27956:27958   */\n      0x20\n        /* \"#utility.yul\":27948:27954   */\n      dup3\n        /* \"#utility.yul\":27944:27959   */\n      add\n        /* \"#utility.yul\":27937:27965   */\n      mstore\n        /* \"#utility.yul\":27752:27972   */\n      pop\n      jump\t// out\n        /* \"#utility.yul\":27978:28344   */\n    tag_280:\n        /* \"#utility.yul\":28120:28123   */\n      0x00\n        /* \"#utility.yul\":28141:28208   */\n      tag_527\n        /* \"#utility.yul\":28205:28207   */\n      0x21\n        /* \"#utility.yul\":28200:28203   */\n      dup4\n        /* \"#utility.yul\":28141:28208   */\n      tag_252\n      jump\t// in\n    tag_527:\n        /* \"#utility.yul\":28134:28208   */\n      swap2\n      pop\n        /* \"#utility.yul\":28217:28310   */\n      tag_528\n        /* \"#utility.yul\":28306:28309   */\n      dup3\n        /* \"#utility.yul\":28217:28310   */\n      tag_279\n      jump\t// in\n    tag_528:\n        /* \"#utility.yul\":28335:28337   */\n      0x40\n        /* \"#utility.yul\":28330:28333   */\n      dup3\n        /* \"#utility.yul\":28326:28338   */\n      add\n        /* \"#utility.yul\":28319:28338   */\n      swap1\n      pop\n        /* \"#utility.yul\":27978:28344   */\n      swap2\n      swap1\n      pop\n      jump\t// out\n        /* \"#utility.yul\":28350:28769   */\n    tag_196:\n        /* \"#utility.yul\":28516:28520   */\n      0x00\n        /* \"#utility.yul\":28554:28556   */\n      0x20\n        /* \"#utility.yul\":28543:28552   */\n      dup3\n        /* \"#utility.yul\":28539:28557   */\n      add\n        /* \"#utility.yul\":28531:28557   */\n      swap1\n      pop\n        /* \"#utility.yul\":28603:28612   */\n      dup2\n        /* \"#utility.yul\":28597:28601   */\n      dup2\n        /* \"#utility.yul\":28593:28613   */\n      sub\n        /* \"#utility.yul\":28589:28590   */\n      0x00\n        /* \"#utility.yul\":28578:28587   */\n      dup4\n        /* \"#utility.yul\":28574:28591   */\n      add\n        /* \"#utility.yul\":28567:28614   */\n      mstore\n        /* \"#utility.yul\":28631:28762   */\n      tag_530\n        /* \"#utility.yul\":28757:28761   */\n      dup2\n        /* \"#utility.yul\":28631:28762   */\n      tag_280\n      jump\t// in\n    tag_530:\n        /* \"#utility.yul\":28623:28762   */\n      swap1\n      pop\n        /* \"#utility.yul\":28350:28769   */\n      swap2\n      swap1\n      pop\n      jump\t// out\n        /* \"#utility.yul\":28775:28998   */\n    tag_281:\n        /* \"#utility.yul\":28915:28949   */\n      0x536f7272792c20746869732070726f64756374206973206e6f7420617661696c\n        /* \"#utility.yul\":28911:28912   */\n      0x00\n        /* \"#utility.yul\":28903:28909   */\n      dup3\n        /* \"#utility.yul\":28899:28913   */\n      add\n        /* \"#utility.yul\":28892:28950   */\n      mstore\n        /* \"#utility.yul\":28984:28990   */\n      0x61626c6500000000000000000000000000000000000000000000000000000000\n        /* \"#utility.yul\":28979:28981   */\n      0x20\n        /* \"#utility.yul\":28971:28977   */\n      dup3\n        /* \"#utility.yul\":28967:28982   */\n      add\n        /* \"#utility.yul\":28960:28991   */\n      mstore\n        /* \"#utility.yul\":28775:28998   */\n      pop\n      jump\t// out\n        /* \"#utility.yul\":29004:29370   */\n    tag_282:\n        /* \"#utility.yul\":29146:29149   */\n      0x00\n        /* \"#utility.yul\":29167:29234   */\n      tag_533\n        /* \"#utility.yul\":29231:29233   */\n      0x24\n        /* \"#utility.yul\":29226:29229   */\n      dup4\n        /* \"#utility.yul\":29167:29234   */\n      tag_252\n      jump\t// in\n    tag_533:\n        /* \"#utility.yul\":29160:29234   */\n      swap2\n      pop\n        /* \"#utility.yul\":29243:29336   */\n      tag_534\n        /* \"#utility.yul\":29332:29335   */\n      dup3\n        /* \"#utility.yul\":29243:29336   */\n      tag_281\n      jump\t// in\n    tag_534:\n        /* \"#utility.yul\":29361:29363   */\n      0x40\n        /* \"#utility.yul\":29356:29359   */\n      dup3\n        /* \"#utility.yul\":29352:29364   */\n      add\n        /* \"#utility.yul\":29345:29364   */\n      swap1\n      pop\n        /* \"#utility.yul\":29004:29370   */\n      swap2\n      swap1\n      pop\n      jump\t// out\n        /* \"#utility.yul\":29376:29795   */\n    tag_199:\n        /* \"#utility.yul\":29542:29546   */\n      0x00\n        /* \"#utility.yul\":29580:29582   */\n      0x20\n        /* \"#utility.yul\":29569:29578   */\n      dup3\n        /* \"#utility.yul\":29565:29583   */\n      add\n        /* \"#utility.yul\":29557:29583   */\n      swap1\n      pop\n        /* \"#utility.yul\":29629:29638   */\n      dup2\n        /* \"#utility.yul\":29623:29627   */\n      dup2\n        /* \"#utility.yul\":29619:29639   */\n      sub\n        /* \"#utility.yul\":29615:29616   */\n      0x00\n        /* \"#utility.yul\":29604:29613   */\n      dup4\n        /* \"#utility.yul\":29600:29617   */\n      add\n        /* \"#utility.yul\":29593:29640   */\n      mstore\n        /* \"#utility.yul\":29657:29788   */\n      tag_536\n        /* \"#utility.yul\":29783:29787   */\n      dup2\n        /* \"#utility.yul\":29657:29788   */\n      tag_282\n      jump\t// in\n    tag_536:\n        /* \"#utility.yul\":29649:29788   */\n      swap1\n      pop\n        /* \"#utility.yul\":29376:29795   */\n      swap2\n      swap1\n      pop\n      jump\t// out\n        /* \"#utility.yul\":29801:30034   */\n    tag_201:\n        /* \"#utility.yul\":29840:29843   */\n      0x00\n        /* \"#utility.yul\":29863:29887   */\n      tag_538\n        /* \"#utility.yul\":29881:29886   */\n      dup3\n        /* \"#utility.yul\":29863:29887   */\n      tag_214\n      jump\t// in\n    tag_538:\n        /* \"#utility.yul\":29854:29887   */\n      swap2\n      pop\n        /* \"#utility.yul\":29909:29975   */\n      0xffffffffffffffffffffffffffffffffffffffffffffffffffffffffffffffff\n        /* \"#utility.yul\":29902:29907   */\n      dup3\n        /* \"#utility.yul\":29899:29976   */\n      sub\n        /* \"#utility.yul\":29896:29999   */\n      tag_539\n      jumpi\n        /* \"#utility.yul\":29979:29997   */\n      tag_540\n      tag_278\n      jump\t// in\n    tag_540:\n        /* \"#utility.yul\":29896:29999   */\n    tag_539:\n        /* \"#utility.yul\":30026:30027   */\n      0x01\n        /* \"#utility.yul\":30019:30024   */\n      dup3\n        /* \"#utility.yul\":30015:30028   */\n      add\n        /* \"#utility.yul\":30008:30028   */\n      swap1\n      pop\n        /* \"#utility.yul\":29801:30034   */\n      swap2\n      swap1\n      pop\n      jump\t// out\n        /* \"#utility.yul\":30040:30234   */\n    tag_207:\n        /* \"#utility.yul\":30080:30084   */\n      0x00\n        /* \"#utility.yul\":30100:30120   */\n      tag_542\n        /* \"#utility.yul\":30118:30119   */\n      dup3\n        /* \"#utility.yul\":30100:30120   */\n      tag_214\n      jump\t// in\n    tag_542:\n        /* \"#utility.yul\":30095:30120   */\n      swap2\n      pop\n        /* \"#utility.yul\":30134:30154   */\n      tag_543\n        /* \"#utility.yul\":30152:30153   */\n      dup4\n        /* \"#utility.yul\":30134:30154   */\n      tag_214\n      jump\t// in\n    tag_543:\n        /* \"#utility.yul\":30129:30154   */\n      swap3\n      pop\n        /* \"#utility.yul\":30178:30179   */\n      dup3\n        /* \"#utility.yul\":30175:30176   */\n      dup3\n        /* \"#utility.yul\":30171:30180   */\n      sub\n        /* \"#utility.yul\":30163:30180   */\n      swap1\n      pop\n        /* \"#utility.yul\":30202:30203   */\n      dup2\n        /* \"#utility.yul\":30196:30200   */\n      dup2\n        /* \"#utility.yul\":30193:30204   */\n      gt\n        /* \"#utility.yul\":30190:30227   */\n      iszero\n      tag_544\n      jumpi\n        /* \"#utility.yul\":30207:30225   */\n      tag_545\n      tag_278\n      jump\t// in\n    tag_545:\n        /* \"#utility.yul\":30190:30227   */\n    tag_544:\n        /* \"#utility.yul\":30040:30234   */\n      swap3\n      swap2\n      pop\n      pop\n      jump\t// out\n        /* \"#utility.yul\":30240:30682   */\n    tag_209:\n        /* \"#utility.yul\":30389:30393   */\n      0x00\n        /* \"#utility.yul\":30427:30429   */\n      0x60\n        /* \"#utility.yul\":30416:30425   */\n      dup3\n        /* \"#utility.yul\":30412:30430   */\n      add\n        /* \"#utility.yul\":30404:30430   */\n      swap1\n      pop\n        /* \"#utility.yul\":30440:30511   */\n      tag_547\n        /* \"#utility.yul\":30508:30509   */\n      0x00\n        /* \"#utility.yul\":30497:30506   */\n      dup4\n        /* \"#utility.yul\":30493:30510   */\n      add\n        /* \"#utility.yul\":30484:30490   */\n      dup7\n        /* \"#utility.yul\":30440:30511   */\n      tag_231\n      jump\t// in\n    tag_547:\n        /* \"#utility.yul\":30521:30593   */\n      tag_548\n        /* \"#utility.yul\":30589:30591   */\n      0x20\n        /* \"#utility.yul\":30578:30587   */\n      dup4\n        /* \"#utility.yul\":30574:30592   */\n      add\n        /* \"#utility.yul\":30565:30571   */\n      dup6\n        /* \"#utility.yul\":30521:30593   */\n      tag_277\n      jump\t// in\n    tag_548:\n        /* \"#utility.yul\":30603:30675   */\n      tag_549\n        /* \"#utility.yul\":30671:30673   */\n      0x40\n        /* \"#utility.yul\":30660:30669   */\n      dup4\n        /* \"#utility.yul\":30656:30674   */\n      add\n        /* \"#utility.yul\":30647:30653   */\n      dup5\n        /* \"#utility.yul\":30603:30675   */\n      tag_277\n      jump\t// in\n    tag_549:\n        /* \"#utility.yul\":30240:30682   */\n      swap5\n      swap4\n      pop\n      pop\n      pop\n      pop\n      jump\t// out\n\n    auxdata: 0xa264697066735822122075e69b449ebf1560508d46d90551adb556031a2100923d81316cec489fd4c81164736f6c634300081e0033\n}\n",
				"bytecode": {
					"linkReferences": {},
					"object": "6080604052348015600e575f5ffd5b50335f5f6101000a81548173ffffffffffffffffffffffffffffffffffffffff021916908373ffffffffffffffffffffffffffffffffffffffff1602179055506124608061005b5f395ff3fe60806040526004361061007a575f3560e01c8063b9db15b41161004d578063b9db15b41461010e578063bab5933a1461014a578063d055a75f14610174578063d96a094a1461019e5761007a565b80633ccfd60b1461007e5780635143366f146100945780638da5cb5b146100bc5780639dfc3dd1146100e6575b5f5ffd5b348015610089575f5ffd5b506100926101ba565b005b34801561009f575f5ffd5b506100ba60048036038101906100b5919061177b565b6102dc565b005b3480156100c7575f5ffd5b506100d06105c9565b6040516100dd91906118e7565b60405180910390f35b3480156100f1575f5ffd5b5061010c60048036038101906101079190611900565b6105ed565b005b348015610119575f5ffd5b50610134600480360381019061012f919061193e565b6106a9565b6040516101419190611a9a565b60405180910390f35b348015610155575f5ffd5b5061015e61093c565b60405161016b9190611c71565b60405180910390f35b34801561017f575f5ffd5b50610188610cf3565b6040516101959190611d4c565b60405180910390f35b6101b860048036038101906101b3919061193e565b611036565b005b3373ffffffffffffffffffffffffffffffffffffffff165f5f9054906101000a900473ffffffffffffffffffffffffffffffffffffffff1673ffffffffffffffffffffffffffffffffffffffff1614610248576040517f08c379a000000000000000000000000000000000000000000000000000000000815260040161023f90611dc6565b60405180910390fd5b5f5f5f9054906101000a900473ffffffffffffffffffffffffffffffffffffffff1673ffffffffffffffffffffffffffffffffffffffff164760405161028d90611e11565b5f6040518083038185875af1925050503d805f81146102c7576040519150601f19603f3d011682016040523d82523d5f602084013e6102cc565b606091505b50509050806102d9575f5ffd5b50565b3373ffffffffffffffffffffffffffffffffffffffff165f5f9054906101000a900473ffffffffffffffffffffffffffffffffffffffff1673ffffffffffffffffffffffffffffffffffffffff161461036a576040517f08c379a000000000000000000000000000000000000000000000000000000000815260040161036190611dc6565b60405180910390fd5b5f6040518061010001604052808d81526020018c8c8080601f0160208091040260200160405190810160405280939291908181526020018383808284375f81840152601f19601f8201169050808301925050505050505081526020018a8a8080601f0160208091040260200160405190810160405280939291908181526020018383808284375f81840152601f19601f82011690508083019250505050505050815260200188888080601f0160208091040260200160405190810160405280939291908181526020018383808284375f81840152601f19601f8201169050808301925050505050505081526020018681526020018581526020018481526020018381525090508b60025f8e81526020019081526020015f205f0154036104c5576040517f08c379a00000000000000000000000000000000000000000000000000000000081526004016104bc90611e6f565b60405180910390fd5b8060025f8e81526020019081526020015f205f820151815f015560208201518160010190816104f4919061208a565b50604082015181600201908161050a919061208a565b506060820151816003019081610520919061208a565b506080820151816004019081610536919061208a565b5060a0820151816005015560c0820151816006015560e0820151816007015590505060018c908060018154018082558091505060019003905f5260205f20015f90919091909150557ffdbe2a012c10ec01592653978eaa09b5ca60b143a0e617505b2ebcbd911ec5b88b8b86856040516105b39493929190612194565b60405180910390a1505050505050505050505050565b5f5f9054906101000a900473ffffffffffffffffffffffffffffffffffffffff1681565b3373ffffffffffffffffffffffffffffffffffffffff165f5f9054906101000a900473ffffffffffffffffffffffffffffffffffffffff1673ffffffffffffffffffffffffffffffffffffffff161461067b576040517f08c379a000000000000000000000000000000000000000000000000000000000815260040161067290611dc6565b60405180910390fd5b8060025f8481526020019081526020015f206007015f82825461069e91906121ff565b925050819055505050565b6106b161153e565b60025f8381526020019081526020015f20604051806101000160405290815f82015481526020016001820180546106e790611eba565b80601f016020809104026020016040519081016040528092919081815260200182805461071390611eba565b801561075e5780601f106107355761010080835404028352916020019161075e565b820191905f5260205f20905b81548152906001019060200180831161074157829003601f168201915b5050505050815260200160028201805461077790611eba565b80601f01602080910402602001604051908101604052809291908181526020018280546107a390611eba565b80156107ee5780601f106107c5576101008083540402835291602001916107ee565b820191905f5260205f20905b8154815290600101906020018083116107d157829003601f168201915b5050505050815260200160038201805461080790611eba565b80601f016020809104026020016040519081016040528092919081815260200182805461083390611eba565b801561087e5780601f106108555761010080835404028352916020019161087e565b820191905f5260205f20905b81548152906001019060200180831161086157829003601f168201915b5050505050815260200160048201805461089790611eba565b80601f01602080910402602001604051908101604052809291908181526020018280546108c390611eba565b801561090e5780601f106108e55761010080835404028352916020019161090e565b820191905f5260205f20905b8154815290600101906020018083116108f157829003601f168201915b5050505050815260200160058201548152602001600682015481526020016007820154815250509050919050565b60605f60045f3373ffffffffffffffffffffffffffffffffffffffff1673ffffffffffffffffffffffffffffffffffffffff1681526020019081526020015f205490505f8167ffffffffffffffff81111561099a57610999611657565b5b6040519080825280602002602001820160405280156109d357816020015b6109c061157f565b8152602001906001900390816109b85790505b5090505f5f90505b82811015610cea5760035f3373ffffffffffffffffffffffffffffffffffffffff1673ffffffffffffffffffffffffffffffffffffffff1681526020019081526020015f205f8281526020019081526020015f206040518060400160405290815f8201604051806101000160405290815f8201548152602001600182018054610a6390611eba565b80601f0160208091040260200160405190810160405280929190818152602001828054610a8f90611eba565b8015610ada5780601f10610ab157610100808354040283529160200191610ada565b820191905f5260205f20905b815481529060010190602001808311610abd57829003601f168201915b50505050508152602001600282018054610af390611eba565b80601f0160208091040260200160405190810160405280929190818152602001828054610b1f90611eba565b8015610b6a5780601f10610b4157610100808354040283529160200191610b6a565b820191905f5260205f20905b815481529060010190602001808311610b4d57829003601f168201915b50505050508152602001600382018054610b8390611eba565b80601f0160208091040260200160405190810160405280929190818152602001828054610baf90611eba565b8015610bfa5780601f10610bd157610100808354040283529160200191610bfa565b820191905f5260205f20905b815481529060010190602001808311610bdd57829003601f168201915b50505050508152602001600482018054610c1390611eba565b80601f0160208091040260200160405190810160405280929190818152602001828054610c3f90611eba565b8015610c8a5780601f10610c6157610100808354040283529160200191610c8a565b820191905f5260205f20905b815481529060010190602001808311610c6d57829003601f168201915b5050505050815260200160058201548152602001600682015481526020016007820154815250508152602001600882015481525050828281518110610cd257610cd1612232565b5b602002602001018190525080806001019150506109db565b50809250505090565b60605f60018054905067ffffffffffffffff811115610d1557610d14611657565b5b604051908082528060200260200182016040528015610d4e57816020015b610d3b61153e565b815260200190600190039081610d335790505b5090505f5f90505b60018054905081101561102e5760025f60018381548110610d7a57610d79612232565b5b905f5260205f20015481526020019081526020015f20604051806101000160405290815f8201548152602001600182018054610db590611eba565b80601f0160208091040260200160405190810160405280929190818152602001828054610de190611eba565b8015610e2c5780601f10610e0357610100808354040283529160200191610e2c565b820191905f5260205f20905b815481529060010190602001808311610e0f57829003601f168201915b50505050508152602001600282018054610e4590611eba565b80601f0160208091040260200160405190810160405280929190818152602001828054610e7190611eba565b8015610ebc5780601f10610e9357610100808354040283529160200191610ebc565b820191905f5260205f20905b815481529060010190602001808311610e9f57829003601f168201915b50505050508152602001600382018054610ed590611eba565b80601f0160208091040260200160405190810160405280929190818152602001828054610f0190611eba565b8015610f4c5780601f10610f2357610100808354040283529160200191610f4c565b820191905f5260205f20905b815481529060010190602001808311610f2f57829003601f168201915b50505050508152602001600482018054610f6590611eba565b80601f0160208091040260200160405190810160405280929190818152602001828054610f9190611eba565b8015610fdc5780601f10610fb357610100808354040283529160200191610fdc565b820191905f5260205f20905b815481529060010190602001808311610fbf57829003601f168201915b50505050508152602001600582015481526020016006820154815260200160078201548152505082828151811061101657611015612232565b5b60200260200101819052508080600101915050610d56565b508091505090565b5f60025f8381526020019081526020015f20604051806101000160405290815f820154815260200160018201805461106d90611eba565b80601f016020809104026020016040519081016040528092919081815260200182805461109990611eba565b80156110e45780601f106110bb576101008083540402835291602001916110e4565b820191905f5260205f20905b8154815290600101906020018083116110c757829003601f168201915b505050505081526020016002820180546110fd90611eba565b80601f016020809104026020016040519081016040528092919081815260200182805461112990611eba565b80156111745780601f1061114b57610100808354040283529160200191611174565b820191905f5260205f20905b81548152906001019060200180831161115757829003601f168201915b5050505050815260200160038201805461118d90611eba565b80601f01602080910402602001604051908101604052809291908181526020018280546111b990611eba565b80156112045780601f106111db57610100808354040283529160200191611204565b820191905f5260205f20905b8154815290600101906020018083116111e757829003601f168201915b5050505050815260200160048201805461121d90611eba565b80601f016020809104026020016040519081016040528092919081815260200182805461124990611eba565b80156112945780601f1061126b57610100808354040283529160200191611294565b820191905f5260205f20905b81548152906001019060200180831161127757829003601f168201915b50505050508152602001600582015481526020016006820154815260200160078201548152505090508060a00151341015611304576040517f08c379a00000000000000000000000000000000000000000000000000000000081526004016112fb906122cf565b60405180910390fd5b5f8160e001511161134a576040517f08c379a00000000000000000000000000000000000000000000000000000000081526004016113419061235d565b60405180910390fd5b5f604051806040016040528083815260200142815250905060045f3373ffffffffffffffffffffffffffffffffffffffff1673ffffffffffffffffffffffffffffffffffffffff1681526020019081526020015f205f8154809291906113af9061237b565b91905055508060035f3373ffffffffffffffffffffffffffffffffffffffff1673ffffffffffffffffffffffffffffffffffffffff1681526020019081526020015f205f60045f3373ffffffffffffffffffffffffffffffffffffffff1673ffffffffffffffffffffffffffffffffffffffff1681526020019081526020015f205481526020019081526020015f205f820151815f015f820151815f01556020820151816001019081611462919061208a565b506040820151816002019081611478919061208a565b50606082015181600301908161148e919061208a565b5060808201518160040190816114a4919061208a565b5060a0820151816005015560c0820151816006015560e0820151816007015550506020820151816008015590505060018260e001516114e391906123c2565b60025f8581526020019081526020015f20600701819055507f12cb4648cf3058b17ceeb33e579f8b0bc269fe0843f3900b8e24b6c54871703c3384845f0151604051611531939291906123f5565b60405180910390a1505050565b6040518061010001604052805f8152602001606081526020016060815260200160608152602001606081526020015f81526020015f81526020015f81525090565b604051806040016040528061159261153e565b81526020015f81525090565b5f604051905090565b5f5ffd5b5f5ffd5b5f819050919050565b6115c1816115af565b81146115cb575f5ffd5b50565b5f813590506115dc816115b8565b92915050565b5f5ffd5b5f5ffd5b5f5ffd5b5f5f83601f840112611603576116026115e2565b5b8235905067ffffffffffffffff8111156116205761161f6115e6565b5b60208301915083600182028301111561163c5761163b6115ea565b5b9250929050565b5f5ffd5b5f601f19601f8301169050919050565b7f4e487b71000000000000000000000000000000000000000000000000000000005f52604160045260245ffd5b61168d82611647565b810181811067ffffffffffffffff821117156116ac576116ab611657565b5b80604052505050565b5f6116be61159e565b90506116ca8282611684565b919050565b5f67ffffffffffffffff8211156116e9576116e8611657565b5b6116f282611647565b9050602081019050919050565b828183375f83830152505050565b5f61171f61171a846116cf565b6116b5565b90508281526020810184848401111561173b5761173a611643565b5b6117468482856116ff565b509392505050565b5f82601f830112611762576117616115e2565b5b813561177284826020860161170d565b91505092915050565b5f5f5f5f5f5f5f5f5f5f5f6101008c8e03121561179b5761179a6115a7565b5b5f6117a88e828f016115ce565b9b505060208c013567ffffffffffffffff8111156117c9576117c86115ab565b5b6117d58e828f016115ee565b9a509a505060408c013567ffffffffffffffff8111156117f8576117f76115ab565b5b6118048e828f016115ee565b985098505060608c013567ffffffffffffffff811115611827576118266115ab565b5b6118338e828f016115ee565b965096505060808c013567ffffffffffffffff811115611856576118556115ab565b5b6118628e828f0161174e565b94505060a06118738e828f016115ce565b93505060c06118848e828f016115ce565b92505060e06118958e828f016115ce565b9150509295989b509295989b9093969950565b5f73ffffffffffffffffffffffffffffffffffffffff82169050919050565b5f6118d1826118a8565b9050919050565b6118e1816118c7565b82525050565b5f6020820190506118fa5f8301846118d8565b92915050565b5f5f60408385031215611916576119156115a7565b5b5f611923858286016115ce565b9250506020611934858286016115ce565b9150509250929050565b5f60208284031215611953576119526115a7565b5b5f611960848285016115ce565b91505092915050565b611972816115af565b82525050565b5f81519050919050565b5f82825260208201905092915050565b8281835e5f83830152505050565b5f6119aa82611978565b6119b48185611982565b93506119c4818560208601611992565b6119cd81611647565b840191505092915050565b5f61010083015f8301516119ee5f860182611969565b5060208301518482036020860152611a0682826119a0565b91505060408301518482036040860152611a2082826119a0565b91505060608301518482036060860152611a3a82826119a0565b91505060808301518482036080860152611a5482826119a0565b91505060a0830151611a6960a0860182611969565b5060c0830151611a7c60c0860182611969565b5060e0830151611a8f60e0860182611969565b508091505092915050565b5f6020820190508181035f830152611ab281846119d8565b905092915050565b5f81519050919050565b5f82825260208201905092915050565b5f819050602082019050919050565b5f61010083015f830151611af95f860182611969565b5060208301518482036020860152611b1182826119a0565b91505060408301518482036040860152611b2b82826119a0565b91505060608301518482036060860152611b4582826119a0565b91505060808301518482036080860152611b5f82826119a0565b91505060a0830151611b7460a0860182611969565b5060c0830151611b8760c0860182611969565b5060e0830151611b9a60e0860182611969565b508091505092915050565b5f604083015f8301518482035f860152611bbf8282611ae3565b9150506020830151611bd46020860182611969565b508091505092915050565b5f611bea8383611ba5565b905092915050565b5f602082019050919050565b5f611c0882611aba565b611c128185611ac4565b935083602082028501611c2485611ad4565b805f5b85811015611c5f5784840389528151611c408582611bdf565b9450611c4b83611bf2565b925060208a01995050600181019050611c27565b50829750879550505050505092915050565b5f6020820190508181035f830152611c898184611bfe565b905092915050565b5f81519050919050565b5f82825260208201905092915050565b5f819050602082019050919050565b5f611cc58383611ae3565b905092915050565b5f602082019050919050565b5f611ce382611c91565b611ced8185611c9b565b935083602082028501611cff85611cab565b805f5b85811015611d3a5784840389528151611d1b8582611cba565b9450611d2683611ccd565b925060208a01995050600181019050611d02565b50829750879550505050505092915050565b5f6020820190508181035f830152611d648184611cd9565b905092915050565b5f82825260208201905092915050565b7f596f7520617265206e6f7420746865206f77656e7200000000000000000000005f82015250565b5f611db0601583611d6c565b9150611dbb82611d7c565b602082019050919050565b5f6020820190508181035f830152611ddd81611da4565b9050919050565b5f81905092915050565b50565b5f611dfc5f83611de4565b9150611e0782611dee565b5f82019050919050565b5f611e1b82611df1565b9150819050919050565b7f50726f6475637420697320616c72656164792045786973742e000000000000005f82015250565b5f611e59601983611d6c565b9150611e6482611e25565b602082019050919050565b5f6020820190508181035f830152611e8681611e4d565b9050919050565b7f4e487b71000000000000000000000000000000000000000000000000000000005f52602260045260245ffd5b5f6002820490506001821680611ed157607f821691505b602082108103611ee457611ee3611e8d565b5b50919050565b5f819050815f5260205f209050919050565b5f6020601f8301049050919050565b5f82821b905092915050565b5f60088302611f467fffffffffffffffffffffffffffffffffffffffffffffffffffffffffffffffff82611f0b565b611f508683611f0b565b95508019841693508086168417925050509392505050565b5f819050919050565b5f611f8b611f86611f81846115af565b611f68565b6115af565b9050919050565b5f819050919050565b611fa483611f71565b611fb8611fb082611f92565b848454611f17565b825550505050565b5f5f905090565b611fcf611fc0565b611fda818484611f9b565b505050565b5b81811015611ffd57611ff25f82611fc7565b600181019050611fe0565b5050565b601f8211156120425761201381611eea565b61201c84611efc565b8101602085101561202b578190505b61203f61203785611efc565b830182611fdf565b50505b505050565b5f82821c905092915050565b5f6120625f1984600802612047565b1980831691505092915050565b5f61207a8383612053565b9150826002028217905092915050565b61209382611978565b67ffffffffffffffff8111156120ac576120ab611657565b5b6120b68254611eba565b6120c1828285612001565b5f60209050601f8311600181146120f2575f84156120e0578287015190505b6120ea858261206f565b865550612151565b601f19841661210086611eea565b5f5b8281101561212757848901518255600182019150602085019450602081019050612102565b868310156121445784890151612140601f891682612053565b8355505b6001600288020188555050505b505050505050565b5f6121648385611d6c565b93506121718385846116ff565b61217a83611647565b840190509392505050565b61218e816115af565b82525050565b5f6060820190508181035f8301526121ad818688612159565b90506121bc6020830185612185565b6121c96040830184612185565b95945050505050565b7f4e487b71000000000000000000000000000000000000000000000000000000005f52601160045260245ffd5b5f612209826115af565b9150612214836115af565b925082820190508082111561222c5761222b6121d2565b5b92915050565b7f4e487b71000000000000000000000000000000000000000000000000000000005f52603260045260245ffd5b7f596f7520646f6e277420686176652073756666696369656e742062616c616e635f8201527f6500000000000000000000000000000000000000000000000000000000000000602082015250565b5f6122b9602183611d6c565b91506122c48261225f565b604082019050919050565b5f6020820190508181035f8301526122e6816122ad565b9050919050565b7f536f7272792c20746869732070726f64756374206973206e6f7420617661696c5f8201527f61626c6500000000000000000000000000000000000000000000000000000000602082015250565b5f612347602483611d6c565b9150612352826122ed565b604082019050919050565b5f6020820190508181035f8301526123748161233b565b9050919050565b5f612385826115af565b91507fffffffffffffffffffffffffffffffffffffffffffffffffffffffffffffffff82036123b7576123b66121d2565b5b600182019050919050565b5f6123cc826115af565b91506123d7836115af565b92508282039050818111156123ef576123ee6121d2565b5b92915050565b5f6060820190506124085f8301866118d8565b6124156020830185612185565b6124226040830184612185565b94935050505056fea264697066735822122075e69b449ebf1560508d46d90551adb556031a2100923d81316cec489fd4c81164736f6c634300081e0033",
					"opcodes": "PUSH1 0x80 PUSH1 0x40 MSTORE CALLVALUE DUP1 ISZERO PUSH1 0xE JUMPI PUSH0 PUSH0 REVERT JUMPDEST POP CALLER PUSH0 PUSH0 PUSH2 0x100 EXP DUP2 SLOAD DUP2 PUSH20 0xFFFFFFFFFFFFFFFFFFFFFFFFFFFFFFFFFFFFFFFF MUL NOT AND SWAP1 DUP4 PUSH20 0xFFFFFFFFFFFFFFFFFFFFFFFFFFFFFFFFFFFFFFFF AND MUL OR SWAP1 SSTORE POP PUSH2 0x2460 DUP1 PUSH2 0x5B PUSH0 CODECOPY PUSH0 RETURN INVALID PUSH1 0x80 PUSH1 0x40 MSTORE PUSH1 0x4 CALLDATASIZE LT PUSH2 0x7A JUMPI PUSH0 CALLDATALOAD PUSH1 0xE0 SHR DUP1 PUSH4 0xB9DB15B4 GT PUSH2 0x4D JUMPI DUP1 PUSH4 0xB9DB15B4 EQ PUSH2 0x10E JUMPI DUP1 PUSH4 0xBAB5933A EQ PUSH2 0x14A JUMPI DUP1 PUSH4 0xD055A75F EQ PUSH2 0x174 JUMPI DUP1 PUSH4 0xD96A094A EQ PUSH2 0x19E JUMPI PUSH2 0x7A JUMP JUMPDEST DUP1 PUSH4 0x3CCFD60B EQ PUSH2 0x7E JUMPI DUP1 PUSH4 0x5143366F EQ PUSH2 0x94 JUMPI DUP1 PUSH4 0x8DA5CB5B EQ PUSH2 0xBC JUMPI DUP1 PUSH4 0x9DFC3DD1 EQ PUSH2 0xE6 JUMPI JUMPDEST PUSH0 PUSH0 REVERT JUMPDEST CALLVALUE DUP1 ISZERO PUSH2 0x89 JUMPI PUSH0 PUSH0 REVERT JUMPDEST POP PUSH2 0x92 PUSH2 0x1BA JUMP JUMPDEST STOP JUMPDEST CALLVALUE DUP1 ISZERO PUSH2 0x9F JUMPI PUSH0 PUSH0 REVERT JUMPDEST POP PUSH2 0xBA PUSH1 0x4 DUP1 CALLDATASIZE SUB DUP2 ADD SWAP1 PUSH2 0xB5 SWAP2 SWAP1 PUSH2 0x177B JUMP JUMPDEST PUSH2 0x2DC JUMP JUMPDEST STOP JUMPDEST CALLVALUE DUP1 ISZERO PUSH2 0xC7 JUMPI PUSH0 PUSH0 REVERT JUMPDEST POP PUSH2 0xD0 PUSH2 0x5C9 JUMP JUMPDEST PUSH1 0x40 MLOAD PUSH2 0xDD SWAP2 SWAP1 PUSH2 0x18E7 JUMP JUMPDEST PUSH1 0x40 MLOAD DUP1 SWAP2 SUB SWAP1 RETURN JUMPDEST CALLVALUE DUP1 ISZERO PUSH2 0xF1 JUMPI PUSH0 PUSH0 REVERT JUMPDEST POP PUSH2 0x10C PUSH1 0x4 DUP1 CALLDATASIZE SUB DUP2 ADD SWAP1 PUSH2 0x107 SWAP2 SWAP1 PUSH2 0x1900 JUMP JUMPDEST PUSH2 0x5ED JUMP JUMPDEST STOP JUMPDEST CALLVALUE DUP1 ISZERO PUSH2 0x119 JUMPI PUSH0 PUSH0 REVERT JUMPDEST POP PUSH2 0x134 PUSH1 0x4 DUP1 CALLDATASIZE SUB DUP2 ADD SWAP1 PUSH2 0x12F SWAP2 SWAP1 PUSH2 0x193E JUMP JUMPDEST PUSH2 0x6A9 JUMP JUMPDEST PUSH1 0x40 MLOAD PUSH2 0x141 SWAP2 SWAP1 PUSH2 0x1A9A JUMP JUMPDEST PUSH1 0x40 MLOAD DUP1 SWAP2 SUB SWAP1 RETURN JUMPDEST CALLVALUE DUP1 ISZERO PUSH2 0x155 JUMPI PUSH0 PUSH0 REVERT JUMPDEST POP PUSH2 0x15E PUSH2 0x93C JUMP JUMPDEST PUSH1 0x40 MLOAD PUSH2 0x16B SWAP2 SWAP1 PUSH2 0x1C71 JUMP JUMPDEST PUSH1 0x40 MLOAD DUP1 SWAP2 SUB SWAP1 RETURN JUMPDEST CALLVALUE DUP1 ISZERO PUSH2 0x17F JUMPI PUSH0 PUSH0 REVERT JUMPDEST POP PUSH2 0x188 PUSH2 0xCF3 JUMP JUMPDEST PUSH1 0x40 MLOAD PUSH2 0x195 SWAP2 SWAP1 PUSH2 0x1D4C JUMP JUMPDEST PUSH1 0x40 MLOAD DUP1 SWAP2 SUB SWAP1 RETURN JUMPDEST PUSH2 0x1B8 PUSH1 0x4 DUP1 CALLDATASIZE SUB DUP2 ADD SWAP1 PUSH2 0x1B3 SWAP2 SWAP1 PUSH2 0x193E JUMP JUMPDEST PUSH2 0x1036 JUMP JUMPDEST STOP JUMPDEST CALLER PUSH20 0xFFFFFFFFFFFFFFFFFFFFFFFFFFFFFFFFFFFFFFFF AND PUSH0 PUSH0 SWAP1 SLOAD SWAP1 PUSH2 0x100 EXP SWAP1 DIV PUSH20 0xFFFFFFFFFFFFFFFFFFFFFFFFFFFFFFFFFFFFFFFF AND PUSH20 0xFFFFFFFFFFFFFFFFFFFFFFFFFFFFFFFFFFFFFFFF AND EQ PUSH2 0x248 JUMPI PUSH1 0x40 MLOAD PUSH32 0x8C379A000000000000000000000000000000000000000000000000000000000 DUP2 MSTORE PUSH1 0x4 ADD PUSH2 0x23F SWAP1 PUSH2 0x1DC6 JUMP JUMPDEST PUSH1 0x40 MLOAD DUP1 SWAP2 SUB SWAP1 REVERT JUMPDEST PUSH0 PUSH0 PUSH0 SWAP1 SLOAD SWAP1 PUSH2 0x100 EXP SWAP1 DIV PUSH20 0xFFFFFFFFFFFFFFFFFFFFFFFFFFFFFFFFFFFFFFFF AND PUSH20 0xFFFFFFFFFFFFFFFFFFFFFFFFFFFFFFFFFFFFFFFF AND SELFBALANCE PUSH1 0x40 MLOAD PUSH2 0x28D SWAP1 PUSH2 0x1E11 JUMP JUMPDEST PUSH0 PUSH1 0x40 MLOAD DUP1 DUP4 SUB DUP2 DUP6 DUP8 GAS CALL SWAP3 POP POP POP RETURNDATASIZE DUP1 PUSH0 DUP2 EQ PUSH2 0x2C7 JUMPI PUSH1 0x40 MLOAD SWAP2 POP PUSH1 0x1F NOT PUSH1 0x3F RETURNDATASIZE ADD AND DUP3 ADD PUSH1 0x40 MSTORE RETURNDATASIZE DUP3 MSTORE RETURNDATASIZE PUSH0 PUSH1 0x20 DUP5 ADD RETURNDATACOPY PUSH2 0x2CC JUMP JUMPDEST PUSH1 0x60 SWAP2 POP JUMPDEST POP POP SWAP1 POP DUP1 PUSH2 0x2D9 JUMPI PUSH0 PUSH0 REVERT JUMPDEST POP JUMP JUMPDEST CALLER PUSH20 0xFFFFFFFFFFFFFFFFFFFFFFFFFFFFFFFFFFFFFFFF AND PUSH0 PUSH0 SWAP1 SLOAD SWAP1 PUSH2 0x100 EXP SWAP1 DIV PUSH20 0xFFFFFFFFFFFFFFFFFFFFFFFFFFFFFFFFFFFFFFFF AND PUSH20 0xFFFFFFFFFFFFFFFFFFFFFFFFFFFFFFFFFFFFFFFF AND EQ PUSH2 0x36A JUMPI PUSH1 0x40 MLOAD PUSH32 0x8C379A000000000000000000000000000000000000000000000000000000000 DUP2 MSTORE PUSH1 0x4 ADD PUSH2 0x361 SWAP1 PUSH2 0x1DC6 JUMP JUMPDEST PUSH1 0x40 MLOAD DUP1 SWAP2 SUB SWAP1 REVERT JUMPDEST PUSH0 PUSH1 0x40 MLOAD DUP1 PUSH2 0x100 ADD PUSH1 0x40 MSTORE DUP1 DUP14 DUP2 MSTORE PUSH1 0x20 ADD DUP13 DUP13 DUP1 DUP1 PUSH1 0x1F ADD PUSH1 0x20 DUP1 SWAP2 DIV MUL PUSH1 0x20 ADD PUSH1 0x40 MLOAD SWAP1 DUP2 ADD PUSH1 0x40 MSTORE DUP1 SWAP4 SWAP3 SWAP2 SWAP1 DUP2 DUP2 MSTORE PUSH1 0x20 ADD DUP4 DUP4 DUP1 DUP3 DUP5 CALLDATACOPY PUSH0 DUP2 DUP5 ADD MSTORE PUSH1 0x1F NOT PUSH1 0x1F DUP3 ADD AND SWAP1 POP DUP1 DUP4 ADD SWAP3 POP POP POP POP POP POP POP DUP2 MSTORE PUSH1 0x20 ADD DUP11 DUP11 DUP1 DUP1 PUSH1 0x1F ADD PUSH1 0x20 DUP1 SWAP2 DIV MUL PUSH1 0x20 ADD PUSH1 0x40 MLOAD SWAP1 DUP2 ADD PUSH1 0x40 MSTORE DUP1 SWAP4 SWAP3 SWAP2 SWAP1 DUP2 DUP2 MSTORE PUSH1 0x20 ADD DUP4 DUP4 DUP1 DUP3 DUP5 CALLDATACOPY PUSH0 DUP2 DUP5 ADD MSTORE PUSH1 0x1F NOT PUSH1 0x1F DUP3 ADD AND SWAP1 POP DUP1 DUP4 ADD SWAP3 POP POP POP POP POP POP POP DUP2 MSTORE PUSH1 0x20 ADD DUP9 DUP9 DUP1 DUP1 PUSH1 0x1F ADD PUSH1 0x20 DUP1 SWAP2 DIV MUL PUSH1 0x20 ADD PUSH1 0x40 MLOAD SWAP1 DUP2 ADD PUSH1 0x40 MSTORE DUP1 SWAP4 SWAP3 SWAP2 SWAP1 DUP2 DUP2 MSTORE PUSH1 0x20 ADD DUP4 DUP4 DUP1 DUP3 DUP5 CALLDATACOPY PUSH0 DUP2 DUP5 ADD MSTORE PUSH1 0x1F NOT PUSH1 0x1F DUP3 ADD AND SWAP1 POP DUP1 DUP4 ADD SWAP3 POP POP POP POP POP POP POP DUP2 MSTORE PUSH1 0x20 ADD DUP7 DUP2 MSTORE PUSH1 0x20 ADD DUP6 DUP2 MSTORE PUSH1 0x20 ADD DUP5 DUP2 MSTORE PUSH1 0x20 ADD DUP4 DUP2 MSTORE POP SWAP1 POP DUP12 PUSH1 0x2 PUSH0 DUP15 DUP2 MSTORE PUSH1 0x20 ADD SWAP1 DUP2 MSTORE PUSH1 0x20 ADD PUSH0 KECCAK256 PUSH0 ADD SLOAD SUB PUSH2 0x4C5 JUMPI PUSH1 0x40 MLOAD PUSH32 0x8C379A000000000000000000000000000000000000000000000000000000000 DUP2 MSTORE PUSH1 0x4 ADD PUSH2 0x4BC SWAP1 PUSH2 0x1E6F JUMP JUMPDEST PUSH1 0x40 MLOAD DUP1 SWAP2 SUB SWAP1 REVERT JUMPDEST DUP1 PUSH1 0x2 PUSH0 DUP15 DUP2 MSTORE PUSH1 0x20 ADD SWAP1 DUP2 MSTORE PUSH1 0x20 ADD PUSH0 KECCAK256 PUSH0 DUP3 ADD MLOAD DUP2 PUSH0 ADD SSTORE PUSH1 0x20 DUP3 ADD MLOAD DUP2 PUSH1 0x1 ADD SWAP1 DUP2 PUSH2 0x4F4 SWAP2 SWAP1 PUSH2 0x208A JUMP JUMPDEST POP PUSH1 0x40 DUP3 ADD MLOAD DUP2 PUSH1 0x2 ADD SWAP1 DUP2 PUSH2 0x50A SWAP2 SWAP1 PUSH2 0x208A JUMP JUMPDEST POP PUSH1 0x60 DUP3 ADD MLOAD DUP2 PUSH1 0x3 ADD SWAP1 DUP2 PUSH2 0x520 SWAP2 SWAP1 PUSH2 0x208A JUMP JUMPDEST POP PUSH1 0x80 DUP3 ADD MLOAD DUP2 PUSH1 0x4 ADD SWAP1 DUP2 PUSH2 0x536 SWAP2 SWAP1 PUSH2 0x208A JUMP JUMPDEST POP PUSH1 0xA0 DUP3 ADD MLOAD DUP2 PUSH1 0x5 ADD SSTORE PUSH1 0xC0 DUP3 ADD MLOAD DUP2 PUSH1 0x6 ADD SSTORE PUSH1 0xE0 DUP3 ADD MLOAD DUP2 PUSH1 0x7 ADD SSTORE SWAP1 POP POP PUSH1 0x1 DUP13 SWAP1 DUP1 PUSH1 0x1 DUP2 SLOAD ADD DUP1 DUP3 SSTORE DUP1 SWAP2 POP POP PUSH1 0x1 SWAP1 SUB SWAP1 PUSH0 MSTORE PUSH1 0x20 PUSH0 KECCAK256 ADD PUSH0 SWAP1 SWAP2 SWAP1 SWAP2 SWAP1 SWAP2 POP SSTORE PUSH32 0xFDBE2A012C10EC01592653978EAA09B5CA60B143A0E617505B2EBCBD911EC5B8 DUP12 DUP12 DUP7 DUP6 PUSH1 0x40 MLOAD PUSH2 0x5B3 SWAP5 SWAP4 SWAP3 SWAP2 SWAP1 PUSH2 0x2194 JUMP JUMPDEST PUSH1 0x40 MLOAD DUP1 SWAP2 SUB SWAP1 LOG1 POP POP POP POP POP POP POP POP POP POP POP POP JUMP JUMPDEST PUSH0 PUSH0 SWAP1 SLOAD SWAP1 PUSH2 0x100 EXP SWAP1 DIV PUSH20 0xFFFFFFFFFFFFFFFFFFFFFFFFFFFFFFFFFFFFFFFF AND DUP2 JUMP JUMPDEST CALLER PUSH20 0xFFFFFFFFFFFFFFFFFFFFFFFFFFFFFFFFFFFFFFFF AND PUSH0 PUSH0 SWAP1 SLOAD SWAP1 PUSH2 0x100 EXP SWAP1 DIV PUSH20 0xFFFFFFFFFFFFFFFFFFFFFFFFFFFFFFFFFFFFFFFF AND PUSH20 0xFFFFFFFFFFFFFFFFFFFFFFFFFFFFFFFFFFFFFFFF AND EQ PUSH2 0x67B JUMPI PUSH1 0x40 MLOAD PUSH32 0x8C379A000000000000000000000000000000000000000000000000000000000 DUP2 MSTORE PUSH1 0x4 ADD PUSH2 0x672 SWAP1 PUSH2 0x1DC6 JUMP JUMPDEST PUSH1 0x40 MLOAD DUP1 SWAP2 SUB SWAP1 REVERT JUMPDEST DUP1 PUSH1 0x2 PUSH0 DUP5 DUP2 MSTORE PUSH1 0x20 ADD SWAP1 DUP2 MSTORE PUSH1 0x20 ADD PUSH0 KECCAK256 PUSH1 0x7 ADD PUSH0 DUP3 DUP3 SLOAD PUSH2 0x69E SWAP2 SWAP1 PUSH2 0x21FF JUMP JUMPDEST SWAP3 POP POP DUP2 SWAP1 SSTORE POP POP POP JUMP JUMPDEST PUSH2 0x6B1 PUSH2 0x153E JUMP JUMPDEST PUSH1 0x2 PUSH0 DUP4 DUP2 MSTORE PUSH1 0x20 ADD SWAP1 DUP2 MSTORE PUSH1 0x20 ADD PUSH0 KECCAK256 PUSH1 0x40 MLOAD DUP1 PUSH2 0x100 ADD PUSH1 0x40 MSTORE SWAP1 DUP2 PUSH0 DUP3 ADD SLOAD DUP2 MSTORE PUSH1 0x20 ADD PUSH1 0x1 DUP3 ADD DUP1 SLOAD PUSH2 0x6E7 SWAP1 PUSH2 0x1EBA JUMP JUMPDEST DUP1 PUSH1 0x1F ADD PUSH1 0x20 DUP1 SWAP2 DIV MUL PUSH1 0x20 ADD PUSH1 0x40 MLOAD SWAP1 DUP2 ADD PUSH1 0x40 MSTORE DUP1 SWAP3 SWAP2 SWAP1 DUP2 DUP2 MSTORE PUSH1 0x20 ADD DUP3 DUP1 SLOAD PUSH2 0x713 SWAP1 PUSH2 0x1EBA JUMP JUMPDEST DUP1 ISZERO PUSH2 0x75E JUMPI DUP1 PUSH1 0x1F LT PUSH2 0x735 JUMPI PUSH2 0x100 DUP1 DUP4 SLOAD DIV MUL DUP4 MSTORE SWAP2 PUSH1 0x20 ADD SWAP2 PUSH2 0x75E JUMP JUMPDEST DUP3 ADD SWAP2 SWAP1 PUSH0 MSTORE PUSH1 0x20 PUSH0 KECCAK256 SWAP1 JUMPDEST DUP2 SLOAD DUP2 MSTORE SWAP1 PUSH1 0x1 ADD SWAP1 PUSH1 0x20 ADD DUP1 DUP4 GT PUSH2 0x741 JUMPI DUP3 SWAP1 SUB PUSH1 0x1F AND DUP3 ADD SWAP2 JUMPDEST POP POP POP POP POP DUP2 MSTORE PUSH1 0x20 ADD PUSH1 0x2 DUP3 ADD DUP1 SLOAD PUSH2 0x777 SWAP1 PUSH2 0x1EBA JUMP JUMPDEST DUP1 PUSH1 0x1F ADD PUSH1 0x20 DUP1 SWAP2 DIV MUL PUSH1 0x20 ADD PUSH1 0x40 MLOAD SWAP1 DUP2 ADD PUSH1 0x40 MSTORE DUP1 SWAP3 SWAP2 SWAP1 DUP2 DUP2 MSTORE PUSH1 0x20 ADD DUP3 DUP1 SLOAD PUSH2 0x7A3 SWAP1 PUSH2 0x1EBA JUMP JUMPDEST DUP1 ISZERO PUSH2 0x7EE JUMPI DUP1 PUSH1 0x1F LT PUSH2 0x7C5 JUMPI PUSH2 0x100 DUP1 DUP4 SLOAD DIV MUL DUP4 MSTORE SWAP2 PUSH1 0x20 ADD SWAP2 PUSH2 0x7EE JUMP JUMPDEST DUP3 ADD SWAP2 SWAP1 PUSH0 MSTORE PUSH1 0x20 PUSH0 KECCAK256 SWAP1 JUMPDEST DUP2 SLOAD DUP2 MSTORE SWAP1 PUSH1 0x1 ADD SWAP1 PUSH1 0x20 ADD DUP1 DUP4 GT PUSH2 0x7D1 JUMPI DUP3 SWAP1 SUB PUSH1 0x1F AND DUP3 ADD SWAP2 JUMPDEST POP POP POP POP POP DUP2 MSTORE PUSH1 0x20 ADD PUSH1 0x3 DUP3 ADD DUP1 SLOAD PUSH2 0x807 SWAP1 PUSH2 0x1EBA JUMP JUMPDEST DUP1 PUSH1 0x1F ADD PUSH1 0x20 DUP1 SWAP2 DIV MUL PUSH1 0x20 ADD PUSH1 0x40 MLOAD SWAP1 DUP2 ADD PUSH1 0x40 MSTORE DUP1 SWAP3 SWAP2 SWAP1 DUP2 DUP2 MSTORE PUSH1 0x20 ADD DUP3 DUP1 SLOAD PUSH2 0x833 SWAP1 PUSH2 0x1EBA JUMP JUMPDEST DUP1 ISZERO PUSH2 0x87E JUMPI DUP1 PUSH1 0x1F LT PUSH2 0x855 JUMPI PUSH2 0x100 DUP1 DUP4 SLOAD DIV MUL DUP4 MSTORE SWAP2 PUSH1 0x20 ADD SWAP2 PUSH2 0x87E JUMP JUMPDEST DUP3 ADD SWAP2 SWAP1 PUSH0 MSTORE PUSH1 0x20 PUSH0 KECCAK256 SWAP1 JUMPDEST DUP2 SLOAD DUP2 MSTORE SWAP1 PUSH1 0x1 ADD SWAP1 PUSH1 0x20 ADD DUP1 DUP4 GT PUSH2 0x861 JUMPI DUP3 SWAP1 SUB PUSH1 0x1F AND DUP3 ADD SWAP2 JUMPDEST POP POP POP POP POP DUP2 MSTORE PUSH1 0x20 ADD PUSH1 0x4 DUP3 ADD DUP1 SLOAD PUSH2 0x897 SWAP1 PUSH2 0x1EBA JUMP JUMPDEST DUP1 PUSH1 0x1F ADD PUSH1 0x20 DUP1 SWAP2 DIV MUL PUSH1 0x20 ADD PUSH1 0x40 MLOAD SWAP1 DUP2 ADD PUSH1 0x40 MSTORE DUP1 SWAP3 SWAP2 SWAP1 DUP2 DUP2 MSTORE PUSH1 0x20 ADD DUP3 DUP1 SLOAD PUSH2 0x8C3 SWAP1 PUSH2 0x1EBA JUMP JUMPDEST DUP1 ISZERO PUSH2 0x90E JUMPI DUP1 PUSH1 0x1F LT PUSH2 0x8E5 JUMPI PUSH2 0x100 DUP1 DUP4 SLOAD DIV MUL DUP4 MSTORE SWAP2 PUSH1 0x20 ADD SWAP2 PUSH2 0x90E JUMP JUMPDEST DUP3 ADD SWAP2 SWAP1 PUSH0 MSTORE PUSH1 0x20 PUSH0 KECCAK256 SWAP1 JUMPDEST DUP2 SLOAD DUP2 MSTORE SWAP1 PUSH1 0x1 ADD SWAP1 PUSH1 0x20 ADD DUP1 DUP4 GT PUSH2 0x8F1 JUMPI DUP3 SWAP1 SUB PUSH1 0x1F AND DUP3 ADD SWAP2 JUMPDEST POP POP POP POP POP DUP2 MSTORE PUSH1 0x20 ADD PUSH1 0x5 DUP3 ADD SLOAD DUP2 MSTORE PUSH1 0x20 ADD PUSH1 0x6 DUP3 ADD SLOAD DUP2 MSTORE PUSH1 0x20 ADD PUSH1 0x7 DUP3 ADD SLOAD DUP2 MSTORE POP POP SWAP1 POP SWAP2 SWAP1 POP JUMP JUMPDEST PUSH1 0x60 PUSH0 PUSH1 0x4 PUSH0 CALLER PUSH20 0xFFFFFFFFFFFFFFFFFFFFFFFFFFFFFFFFFFFFFFFF AND PUSH20 0xFFFFFFFFFFFFFFFFFFFFFFFFFFFFFFFFFFFFFFFF AND DUP2 MSTORE PUSH1 0x20 ADD SWAP1 DUP2 MSTORE PUSH1 0x20 ADD PUSH0 KECCAK256 SLOAD SWAP1 POP PUSH0 DUP2 PUSH8 0xFFFFFFFFFFFFFFFF DUP2 GT ISZERO PUSH2 0x99A JUMPI PUSH2 0x999 PUSH2 0x1657 JUMP JUMPDEST JUMPDEST PUSH1 0x40 MLOAD SWAP1 DUP1 DUP3 MSTORE DUP1 PUSH1 0x20 MUL PUSH1 0x20 ADD DUP3 ADD PUSH1 0x40 MSTORE DUP1 ISZERO PUSH2 0x9D3 JUMPI DUP2 PUSH1 0x20 ADD JUMPDEST PUSH2 0x9C0 PUSH2 0x157F JUMP JUMPDEST DUP2 MSTORE PUSH1 0x20 ADD SWAP1 PUSH1 0x1 SWAP1 SUB SWAP1 DUP2 PUSH2 0x9B8 JUMPI SWAP1 POP JUMPDEST POP SWAP1 POP PUSH0 PUSH0 SWAP1 POP JUMPDEST DUP3 DUP2 LT ISZERO PUSH2 0xCEA JUMPI PUSH1 0x3 PUSH0 CALLER PUSH20 0xFFFFFFFFFFFFFFFFFFFFFFFFFFFFFFFFFFFFFFFF AND PUSH20 0xFFFFFFFFFFFFFFFFFFFFFFFFFFFFFFFFFFFFFFFF AND DUP2 MSTORE PUSH1 0x20 ADD SWAP1 DUP2 MSTORE PUSH1 0x20 ADD PUSH0 KECCAK256 PUSH0 DUP3 DUP2 MSTORE PUSH1 0x20 ADD SWAP1 DUP2 MSTORE PUSH1 0x20 ADD PUSH0 KECCAK256 PUSH1 0x40 MLOAD DUP1 PUSH1 0x40 ADD PUSH1 0x40 MSTORE SWAP1 DUP2 PUSH0 DUP3 ADD PUSH1 0x40 MLOAD DUP1 PUSH2 0x100 ADD PUSH1 0x40 MSTORE SWAP1 DUP2 PUSH0 DUP3 ADD SLOAD DUP2 MSTORE PUSH1 0x20 ADD PUSH1 0x1 DUP3 ADD DUP1 SLOAD PUSH2 0xA63 SWAP1 PUSH2 0x1EBA JUMP JUMPDEST DUP1 PUSH1 0x1F ADD PUSH1 0x20 DUP1 SWAP2 DIV MUL PUSH1 0x20 ADD PUSH1 0x40 MLOAD SWAP1 DUP2 ADD PUSH1 0x40 MSTORE DUP1 SWAP3 SWAP2 SWAP1 DUP2 DUP2 MSTORE PUSH1 0x20 ADD DUP3 DUP1 SLOAD PUSH2 0xA8F SWAP1 PUSH2 0x1EBA JUMP JUMPDEST DUP1 ISZERO PUSH2 0xADA JUMPI DUP1 PUSH1 0x1F LT PUSH2 0xAB1 JUMPI PUSH2 0x100 DUP1 DUP4 SLOAD DIV MUL DUP4 MSTORE SWAP2 PUSH1 0x20 ADD SWAP2 PUSH2 0xADA JUMP JUMPDEST DUP3 ADD SWAP2 SWAP1 PUSH0 MSTORE PUSH1 0x20 PUSH0 KECCAK256 SWAP1 JUMPDEST DUP2 SLOAD DUP2 MSTORE SWAP1 PUSH1 0x1 ADD SWAP1 PUSH1 0x20 ADD DUP1 DUP4 GT PUSH2 0xABD JUMPI DUP3 SWAP1 SUB PUSH1 0x1F AND DUP3 ADD SWAP2 JUMPDEST POP POP POP POP POP DUP2 MSTORE PUSH1 0x20 ADD PUSH1 0x2 DUP3 ADD DUP1 SLOAD PUSH2 0xAF3 SWAP1 PUSH2 0x1EBA JUMP JUMPDEST DUP1 PUSH1 0x1F ADD PUSH1 0x20 DUP1 SWAP2 DIV MUL PUSH1 0x20 ADD PUSH1 0x40 MLOAD SWAP1 DUP2 ADD PUSH1 0x40 MSTORE DUP1 SWAP3 SWAP2 SWAP1 DUP2 DUP2 MSTORE PUSH1 0x20 ADD DUP3 DUP1 SLOAD PUSH2 0xB1F SWAP1 PUSH2 0x1EBA JUMP JUMPDEST DUP1 ISZERO PUSH2 0xB6A JUMPI DUP1 PUSH1 0x1F LT PUSH2 0xB41 JUMPI PUSH2 0x100 DUP1 DUP4 SLOAD DIV MUL DUP4 MSTORE SWAP2 PUSH1 0x20 ADD SWAP2 PUSH2 0xB6A JUMP JUMPDEST DUP3 ADD SWAP2 SWAP1 PUSH0 MSTORE PUSH1 0x20 PUSH0 KECCAK256 SWAP1 JUMPDEST DUP2 SLOAD DUP2 MSTORE SWAP1 PUSH1 0x1 ADD SWAP1 PUSH1 0x20 ADD DUP1 DUP4 GT PUSH2 0xB4D JUMPI DUP3 SWAP1 SUB PUSH1 0x1F AND DUP3 ADD SWAP2 JUMPDEST POP POP POP POP POP DUP2 MSTORE PUSH1 0x20 ADD PUSH1 0x3 DUP3 ADD DUP1 SLOAD PUSH2 0xB83 SWAP1 PUSH2 0x1EBA JUMP JUMPDEST DUP1 PUSH1 0x1F ADD PUSH1 0x20 DUP1 SWAP2 DIV MUL PUSH1 0x20 ADD PUSH1 0x40 MLOAD SWAP1 DUP2 ADD PUSH1 0x40 MSTORE DUP1 SWAP3 SWAP2 SWAP1 DUP2 DUP2 MSTORE PUSH1 0x20 ADD DUP3 DUP1 SLOAD PUSH2 0xBAF SWAP1 PUSH2 0x1EBA JUMP JUMPDEST DUP1 ISZERO PUSH2 0xBFA JUMPI DUP1 PUSH1 0x1F LT PUSH2 0xBD1 JUMPI PUSH2 0x100 DUP1 DUP4 SLOAD DIV MUL DUP4 MSTORE SWAP2 PUSH1 0x20 ADD SWAP2 PUSH2 0xBFA JUMP JUMPDEST DUP3 ADD SWAP2 SWAP1 PUSH0 MSTORE PUSH1 0x20 PUSH0 KECCAK256 SWAP1 JUMPDEST DUP2 SLOAD DUP2 MSTORE SWAP1 PUSH1 0x1 ADD SWAP1 PUSH1 0x20 ADD DUP1 DUP4 GT PUSH2 0xBDD JUMPI DUP3 SWAP1 SUB PUSH1 0x1F AND DUP3 ADD SWAP2 JUMPDEST POP POP POP POP POP DUP2 MSTORE PUSH1 0x20 ADD PUSH1 0x4 DUP3 ADD DUP1 SLOAD PUSH2 0xC13 SWAP1 PUSH2 0x1EBA JUMP JUMPDEST DUP1 PUSH1 0x1F ADD PUSH1 0x20 DUP1 SWAP2 DIV MUL PUSH1 0x20 ADD PUSH1 0x40 MLOAD SWAP1 DUP2 ADD PUSH1 0x40 MSTORE DUP1 SWAP3 SWAP2 SWAP1 DUP2 DUP2 MSTORE PUSH1 0x20 ADD DUP3 DUP1 SLOAD PUSH2 0xC3F SWAP1 PUSH2 0x1EBA JUMP JUMPDEST DUP1 ISZERO PUSH2 0xC8A JUMPI DUP1 PUSH1 0x1F LT PUSH2 0xC61 JUMPI PUSH2 0x100 DUP1 DUP4 SLOAD DIV MUL DUP4 MSTORE SWAP2 PUSH1 0x20 ADD SWAP2 PUSH2 0xC8A JUMP JUMPDEST DUP3 ADD SWAP2 SWAP1 PUSH0 MSTORE PUSH1 0x20 PUSH0 KECCAK256 SWAP1 JUMPDEST DUP2 SLOAD DUP2 MSTORE SWAP1 PUSH1 0x1 ADD SWAP1 PUSH1 0x20 ADD DUP1 DUP4 GT PUSH2 0xC6D JUMPI DUP3 SWAP1 SUB PUSH1 0x1F AND DUP3 ADD SWAP2 JUMPDEST POP POP POP POP POP DUP2 MSTORE PUSH1 0x20 ADD PUSH1 0x5 DUP3 ADD SLOAD DUP2 MSTORE PUSH1 0x20 ADD PUSH1 0x6 DUP3 ADD SLOAD DUP2 MSTORE PUSH1 0x20 ADD PUSH1 0x7 DUP3 ADD SLOAD DUP2 MSTORE POP POP DUP2 MSTORE PUSH1 0x20 ADD PUSH1 0x8 DUP3 ADD SLOAD DUP2 MSTORE POP POP DUP3 DUP3 DUP2 MLOAD DUP2 LT PUSH2 0xCD2 JUMPI PUSH2 0xCD1 PUSH2 0x2232 JUMP JUMPDEST JUMPDEST PUSH1 0x20 MUL PUSH1 0x20 ADD ADD DUP2 SWAP1 MSTORE POP DUP1 DUP1 PUSH1 0x1 ADD SWAP2 POP POP PUSH2 0x9DB JUMP JUMPDEST POP DUP1 SWAP3 POP POP POP SWAP1 JUMP JUMPDEST PUSH1 0x60 PUSH0 PUSH1 0x1 DUP1 SLOAD SWAP1 POP PUSH8 0xFFFFFFFFFFFFFFFF DUP2 GT ISZERO PUSH2 0xD15 JUMPI PUSH2 0xD14 PUSH2 0x1657 JUMP JUMPDEST JUMPDEST PUSH1 0x40 MLOAD SWAP1 DUP1 DUP3 MSTORE DUP1 PUSH1 0x20 MUL PUSH1 0x20 ADD DUP3 ADD PUSH1 0x40 MSTORE DUP1 ISZERO PUSH2 0xD4E JUMPI DUP2 PUSH1 0x20 ADD JUMPDEST PUSH2 0xD3B PUSH2 0x153E JUMP JUMPDEST DUP2 MSTORE PUSH1 0x20 ADD SWAP1 PUSH1 0x1 SWAP1 SUB SWAP1 DUP2 PUSH2 0xD33 JUMPI SWAP1 POP JUMPDEST POP SWAP1 POP PUSH0 PUSH0 SWAP1 POP JUMPDEST PUSH1 0x1 DUP1 SLOAD SWAP1 POP DUP2 LT ISZERO PUSH2 0x102E JUMPI PUSH1 0x2 PUSH0 PUSH1 0x1 DUP4 DUP2 SLOAD DUP2 LT PUSH2 0xD7A JUMPI PUSH2 0xD79 PUSH2 0x2232 JUMP JUMPDEST JUMPDEST SWAP1 PUSH0 MSTORE PUSH1 0x20 PUSH0 KECCAK256 ADD SLOAD DUP2 MSTORE PUSH1 0x20 ADD SWAP1 DUP2 MSTORE PUSH1 0x20 ADD PUSH0 KECCAK256 PUSH1 0x40 MLOAD DUP1 PUSH2 0x100 ADD PUSH1 0x40 MSTORE SWAP1 DUP2 PUSH0 DUP3 ADD SLOAD DUP2 MSTORE PUSH1 0x20 ADD PUSH1 0x1 DUP3 ADD DUP1 SLOAD PUSH2 0xDB5 SWAP1 PUSH2 0x1EBA JUMP JUMPDEST DUP1 PUSH1 0x1F ADD PUSH1 0x20 DUP1 SWAP2 DIV MUL PUSH1 0x20 ADD PUSH1 0x40 MLOAD SWAP1 DUP2 ADD PUSH1 0x40 MSTORE DUP1 SWAP3 SWAP2 SWAP1 DUP2 DUP2 MSTORE PUSH1 0x20 ADD DUP3 DUP1 SLOAD PUSH2 0xDE1 SWAP1 PUSH2 0x1EBA JUMP JUMPDEST DUP1 ISZERO PUSH2 0xE2C JUMPI DUP1 PUSH1 0x1F LT PUSH2 0xE03 JUMPI PUSH2 0x100 DUP1 DUP4 SLOAD DIV MUL DUP4 MSTORE SWAP2 PUSH1 0x20 ADD SWAP2 PUSH2 0xE2C JUMP JUMPDEST DUP3 ADD SWAP2 SWAP1 PUSH0 MSTORE PUSH1 0x20 PUSH0 KECCAK256 SWAP1 JUMPDEST DUP2 SLOAD DUP2 MSTORE SWAP1 PUSH1 0x1 ADD SWAP1 PUSH1 0x20 ADD DUP1 DUP4 GT PUSH2 0xE0F JUMPI DUP3 SWAP1 SUB PUSH1 0x1F AND DUP3 ADD SWAP2 JUMPDEST POP POP POP POP POP DUP2 MSTORE PUSH1 0x20 ADD PUSH1 0x2 DUP3 ADD DUP1 SLOAD PUSH2 0xE45 SWAP1 PUSH2 0x1EBA JUMP JUMPDEST DUP1 PUSH1 0x1F ADD PUSH1 0x20 DUP1 SWAP2 DIV MUL PUSH1 0x20 ADD PUSH1 0x40 MLOAD SWAP1 DUP2 ADD PUSH1 0x40 MSTORE DUP1 SWAP3 SWAP2 SWAP1 DUP2 DUP2 MSTORE PUSH1 0x20 ADD DUP3 DUP1 SLOAD PUSH2 0xE71 SWAP1 PUSH2 0x1EBA JUMP JUMPDEST DUP1 ISZERO PUSH2 0xEBC JUMPI DUP1 PUSH1 0x1F LT PUSH2 0xE93 JUMPI PUSH2 0x100 DUP1 DUP4 SLOAD DIV MUL DUP4 MSTORE SWAP2 PUSH1 0x20 ADD SWAP2 PUSH2 0xEBC JUMP JUMPDEST DUP3 ADD SWAP2 SWAP1 PUSH0 MSTORE PUSH1 0x20 PUSH0 KECCAK256 SWAP1 JUMPDEST DUP2 SLOAD DUP2 MSTORE SWAP1 PUSH1 0x1 ADD SWAP1 PUSH1 0x20 ADD DUP1 DUP4 GT PUSH2 0xE9F JUMPI DUP3 SWAP1 SUB PUSH1 0x1F AND DUP3 ADD SWAP2 JUMPDEST POP POP POP POP POP DUP2 MSTORE PUSH1 0x20 ADD PUSH1 0x3 DUP3 ADD DUP1 SLOAD PUSH2 0xED5 SWAP1 PUSH2 0x1EBA JUMP JUMPDEST DUP1 PUSH1 0x1F ADD PUSH1 0x20 DUP1 SWAP2 DIV MUL PUSH1 0x20 ADD PUSH1 0x40 MLOAD SWAP1 DUP2 ADD PUSH1 0x40 MSTORE DUP1 SWAP3 SWAP2 SWAP1 DUP2 DUP2 MSTORE PUSH1 0x20 ADD DUP3 DUP1 SLOAD PUSH2 0xF01 SWAP1 PUSH2 0x1EBA JUMP JUMPDEST DUP1 ISZERO PUSH2 0xF4C JUMPI DUP1 PUSH1 0x1F LT PUSH2 0xF23 JUMPI PUSH2 0x100 DUP1 DUP4 SLOAD DIV MUL DUP4 MSTORE SWAP2 PUSH1 0x20 ADD SWAP2 PUSH2 0xF4C JUMP JUMPDEST DUP3 ADD SWAP2 SWAP1 PUSH0 MSTORE PUSH1 0x20 PUSH0 KECCAK256 SWAP1 JUMPDEST DUP2 SLOAD DUP2 MSTORE SWAP1 PUSH1 0x1 ADD SWAP1 PUSH1 0x20 ADD DUP1 DUP4 GT PUSH2 0xF2F JUMPI DUP3 SWAP1 SUB PUSH1 0x1F AND DUP3 ADD SWAP2 JUMPDEST POP POP POP POP POP DUP2 MSTORE PUSH1 0x20 ADD PUSH1 0x4 DUP3 ADD DUP1 SLOAD PUSH2 0xF65 SWAP1 PUSH2 0x1EBA JUMP JUMPDEST DUP1 PUSH1 0x1F ADD PUSH1 0x20 DUP1 SWAP2 DIV MUL PUSH1 0x20 ADD PUSH1 0x40 MLOAD SWAP1 DUP2 ADD PUSH1 0x40 MSTORE DUP1 SWAP3 SWAP2 SWAP1 DUP2 DUP2 MSTORE PUSH1 0x20 ADD DUP3 DUP1 SLOAD PUSH2 0xF91 SWAP1 PUSH2 0x1EBA JUMP JUMPDEST DUP1 ISZERO PUSH2 0xFDC JUMPI DUP1 PUSH1 0x1F LT PUSH2 0xFB3 JUMPI PUSH2 0x100 DUP1 DUP4 SLOAD DIV MUL DUP4 MSTORE SWAP2 PUSH1 0x20 ADD SWAP2 PUSH2 0xFDC JUMP JUMPDEST DUP3 ADD SWAP2 SWAP1 PUSH0 MSTORE PUSH1 0x20 PUSH0 KECCAK256 SWAP1 JUMPDEST DUP2 SLOAD DUP2 MSTORE SWAP1 PUSH1 0x1 ADD SWAP1 PUSH1 0x20 ADD DUP1 DUP4 GT PUSH2 0xFBF JUMPI DUP3 SWAP1 SUB PUSH1 0x1F AND DUP3 ADD SWAP2 JUMPDEST POP POP POP POP POP DUP2 MSTORE PUSH1 0x20 ADD PUSH1 0x5 DUP3 ADD SLOAD DUP2 MSTORE PUSH1 0x20 ADD PUSH1 0x6 DUP3 ADD SLOAD DUP2 MSTORE PUSH1 0x20 ADD PUSH1 0x7 DUP3 ADD SLOAD DUP2 MSTORE POP POP DUP3 DUP3 DUP2 MLOAD DUP2 LT PUSH2 0x1016 JUMPI PUSH2 0x1015 PUSH2 0x2232 JUMP JUMPDEST JUMPDEST PUSH1 0x20 MUL PUSH1 0x20 ADD ADD DUP2 SWAP1 MSTORE POP DUP1 DUP1 PUSH1 0x1 ADD SWAP2 POP POP PUSH2 0xD56 JUMP JUMPDEST POP DUP1 SWAP2 POP POP SWAP1 JUMP JUMPDEST PUSH0 PUSH1 0x2 PUSH0 DUP4 DUP2 MSTORE PUSH1 0x20 ADD SWAP1 DUP2 MSTORE PUSH1 0x20 ADD PUSH0 KECCAK256 PUSH1 0x40 MLOAD DUP1 PUSH2 0x100 ADD PUSH1 0x40 MSTORE SWAP1 DUP2 PUSH0 DUP3 ADD SLOAD DUP2 MSTORE PUSH1 0x20 ADD PUSH1 0x1 DUP3 ADD DUP1 SLOAD PUSH2 0x106D SWAP1 PUSH2 0x1EBA JUMP JUMPDEST DUP1 PUSH1 0x1F ADD PUSH1 0x20 DUP1 SWAP2 DIV MUL PUSH1 0x20 ADD PUSH1 0x40 MLOAD SWAP1 DUP2 ADD PUSH1 0x40 MSTORE DUP1 SWAP3 SWAP2 SWAP1 DUP2 DUP2 MSTORE PUSH1 0x20 ADD DUP3 DUP1 SLOAD PUSH2 0x1099 SWAP1 PUSH2 0x1EBA JUMP JUMPDEST DUP1 ISZERO PUSH2 0x10E4 JUMPI DUP1 PUSH1 0x1F LT PUSH2 0x10BB JUMPI PUSH2 0x100 DUP1 DUP4 SLOAD DIV MUL DUP4 MSTORE SWAP2 PUSH1 0x20 ADD SWAP2 PUSH2 0x10E4 JUMP JUMPDEST DUP3 ADD SWAP2 SWAP1 PUSH0 MSTORE PUSH1 0x20 PUSH0 KECCAK256 SWAP1 JUMPDEST DUP2 SLOAD DUP2 MSTORE SWAP1 PUSH1 0x1 ADD SWAP1 PUSH1 0x20 ADD DUP1 DUP4 GT PUSH2 0x10C7 JUMPI DUP3 SWAP1 SUB PUSH1 0x1F AND DUP3 ADD SWAP2 JUMPDEST POP POP POP POP POP DUP2 MSTORE PUSH1 0x20 ADD PUSH1 0x2 DUP3 ADD DUP1 SLOAD PUSH2 0x10FD SWAP1 PUSH2 0x1EBA JUMP JUMPDEST DUP1 PUSH1 0x1F ADD PUSH1 0x20 DUP1 SWAP2 DIV MUL PUSH1 0x20 ADD PUSH1 0x40 MLOAD SWAP1 DUP2 ADD PUSH1 0x40 MSTORE DUP1 SWAP3 SWAP2 SWAP1 DUP2 DUP2 MSTORE PUSH1 0x20 ADD DUP3 DUP1 SLOAD PUSH2 0x1129 SWAP1 PUSH2 0x1EBA JUMP JUMPDEST DUP1 ISZERO PUSH2 0x1174 JUMPI DUP1 PUSH1 0x1F LT PUSH2 0x114B JUMPI PUSH2 0x100 DUP1 DUP4 SLOAD DIV MUL DUP4 MSTORE SWAP2 PUSH1 0x20 ADD SWAP2 PUSH2 0x1174 JUMP JUMPDEST DUP3 ADD SWAP2 SWAP1 PUSH0 MSTORE PUSH1 0x20 PUSH0 KECCAK256 SWAP1 JUMPDEST DUP2 SLOAD DUP2 MSTORE SWAP1 PUSH1 0x1 ADD SWAP1 PUSH1 0x20 ADD DUP1 DUP4 GT PUSH2 0x1157 JUMPI DUP3 SWAP1 SUB PUSH1 0x1F AND DUP3 ADD SWAP2 JUMPDEST POP POP POP POP POP DUP2 MSTORE PUSH1 0x20 ADD PUSH1 0x3 DUP3 ADD DUP1 SLOAD PUSH2 0x118D SWAP1 PUSH2 0x1EBA JUMP JUMPDEST DUP1 PUSH1 0x1F ADD PUSH1 0x20 DUP1 SWAP2 DIV MUL PUSH1 0x20 ADD PUSH1 0x40 MLOAD SWAP1 DUP2 ADD PUSH1 0x40 MSTORE DUP1 SWAP3 SWAP2 SWAP1 DUP2 DUP2 MSTORE PUSH1 0x20 ADD DUP3 DUP1 SLOAD PUSH2 0x11B9 SWAP1 PUSH2 0x1EBA JUMP JUMPDEST DUP1 ISZERO PUSH2 0x1204 JUMPI DUP1 PUSH1 0x1F LT PUSH2 0x11DB JUMPI PUSH2 0x100 DUP1 DUP4 SLOAD DIV MUL DUP4 MSTORE SWAP2 PUSH1 0x20 ADD SWAP2 PUSH2 0x1204 JUMP JUMPDEST DUP3 ADD SWAP2 SWAP1 PUSH0 MSTORE PUSH1 0x20 PUSH0 KECCAK256 SWAP1 JUMPDEST DUP2 SLOAD DUP2 MSTORE SWAP1 PUSH1 0x1 ADD SWAP1 PUSH1 0x20 ADD DUP1 DUP4 GT PUSH2 0x11E7 JUMPI DUP3 SWAP1 SUB PUSH1 0x1F AND DUP3 ADD SWAP2 JUMPDEST POP POP POP POP POP DUP2 MSTORE PUSH1 0x20 ADD PUSH1 0x4 DUP3 ADD DUP1 SLOAD PUSH2 0x121D SWAP1 PUSH2 0x1EBA JUMP JUMPDEST DUP1 PUSH1 0x1F ADD PUSH1 0x20 DUP1 SWAP2 DIV MUL PUSH1 0x20 ADD PUSH1 0x40 MLOAD SWAP1 DUP2 ADD PUSH1 0x40 MSTORE DUP1 SWAP3 SWAP2 SWAP1 DUP2 DUP2 MSTORE PUSH1 0x20 ADD DUP3 DUP1 SLOAD PUSH2 0x1249 SWAP1 PUSH2 0x1EBA JUMP JUMPDEST DUP1 ISZERO PUSH2 0x1294 JUMPI DUP1 PUSH1 0x1F LT PUSH2 0x126B JUMPI PUSH2 0x100 DUP1 DUP4 SLOAD DIV MUL DUP4 MSTORE SWAP2 PUSH1 0x20 ADD SWAP2 PUSH2 0x1294 JUMP JUMPDEST DUP3 ADD SWAP2 SWAP1 PUSH0 MSTORE PUSH1 0x20 PUSH0 KECCAK256 SWAP1 JUMPDEST DUP2 SLOAD DUP2 MSTORE SWAP1 PUSH1 0x1 ADD SWAP1 PUSH1 0x20 ADD DUP1 DUP4 GT PUSH2 0x1277 JUMPI DUP3 SWAP1 SUB PUSH1 0x1F AND DUP3 ADD SWAP2 JUMPDEST POP POP POP POP POP DUP2 MSTORE PUSH1 0x20 ADD PUSH1 0x5 DUP3 ADD SLOAD DUP2 MSTORE PUSH1 0x20 ADD PUSH1 0x6 DUP3 ADD SLOAD DUP2 MSTORE PUSH1 0x20 ADD PUSH1 0x7 DUP3 ADD SLOAD DUP2 MSTORE POP POP SWAP1 POP DUP1 PUSH1 0xA0 ADD MLOAD CALLVALUE LT ISZERO PUSH2 0x1304 JUMPI PUSH1 0x40 MLOAD PUSH32 0x8C379A000000000000000000000000000000000000000000000000000000000 DUP2 MSTORE PUSH1 0x4 ADD PUSH2 0x12FB SWAP1 PUSH2 0x22CF JUMP JUMPDEST PUSH1 0x40 MLOAD DUP1 SWAP2 SUB SWAP1 REVERT JUMPDEST PUSH0 DUP2 PUSH1 0xE0 ADD MLOAD GT PUSH2 0x134A JUMPI PUSH1 0x40 MLOAD PUSH32 0x8C379A000000000000000000000000000000000000000000000000000000000 DUP2 MSTORE PUSH1 0x4 ADD PUSH2 0x1341 SWAP1 PUSH2 0x235D JUMP JUMPDEST PUSH1 0x40 MLOAD DUP1 SWAP2 SUB SWAP1 REVERT JUMPDEST PUSH0 PUSH1 0x40 MLOAD DUP1 PUSH1 0x40 ADD PUSH1 0x40 MSTORE DUP1 DUP4 DUP2 MSTORE PUSH1 0x20 ADD TIMESTAMP DUP2 MSTORE POP SWAP1 POP PUSH1 0x4 PUSH0 CALLER PUSH20 0xFFFFFFFFFFFFFFFFFFFFFFFFFFFFFFFFFFFFFFFF AND PUSH20 0xFFFFFFFFFFFFFFFFFFFFFFFFFFFFFFFFFFFFFFFF AND DUP2 MSTORE PUSH1 0x20 ADD SWAP1 DUP2 MSTORE PUSH1 0x20 ADD PUSH0 KECCAK256 PUSH0 DUP2 SLOAD DUP1 SWAP3 SWAP2 SWAP1 PUSH2 0x13AF SWAP1 PUSH2 0x237B JUMP JUMPDEST SWAP2 SWAP1 POP SSTORE POP DUP1 PUSH1 0x3 PUSH0 CALLER PUSH20 0xFFFFFFFFFFFFFFFFFFFFFFFFFFFFFFFFFFFFFFFF AND PUSH20 0xFFFFFFFFFFFFFFFFFFFFFFFFFFFFFFFFFFFFFFFF AND DUP2 MSTORE PUSH1 0x20 ADD SWAP1 DUP2 MSTORE PUSH1 0x20 ADD PUSH0 KECCAK256 PUSH0 PUSH1 0x4 PUSH0 CALLER PUSH20 0xFFFFFFFFFFFFFFFFFFFFFFFFFFFFFFFFFFFFFFFF AND PUSH20 0xFFFFFFFFFFFFFFFFFFFFFFFFFFFFFFFFFFFFFFFF AND DUP2 MSTORE PUSH1 0x20 ADD SWAP1 DUP2 MSTORE PUSH1 0x20 ADD PUSH0 KECCAK256 SLOAD DUP2 MSTORE PUSH1 0x20 ADD SWAP1 DUP2 MSTORE PUSH1 0x20 ADD PUSH0 KECCAK256 PUSH0 DUP3 ADD MLOAD DUP2 PUSH0 ADD PUSH0 DUP3 ADD MLOAD DUP2 PUSH0 ADD SSTORE PUSH1 0x20 DUP3 ADD MLOAD DUP2 PUSH1 0x1 ADD SWAP1 DUP2 PUSH2 0x1462 SWAP2 SWAP1 PUSH2 0x208A JUMP JUMPDEST POP PUSH1 0x40 DUP3 ADD MLOAD DUP2 PUSH1 0x2 ADD SWAP1 DUP2 PUSH2 0x1478 SWAP2 SWAP1 PUSH2 0x208A JUMP JUMPDEST POP PUSH1 0x60 DUP3 ADD MLOAD DUP2 PUSH1 0x3 ADD SWAP1 DUP2 PUSH2 0x148E SWAP2 SWAP1 PUSH2 0x208A JUMP JUMPDEST POP PUSH1 0x80 DUP3 ADD MLOAD DUP2 PUSH1 0x4 ADD SWAP1 DUP2 PUSH2 0x14A4 SWAP2 SWAP1 PUSH2 0x208A JUMP JUMPDEST POP PUSH1 0xA0 DUP3 ADD MLOAD DUP2 PUSH1 0x5 ADD SSTORE PUSH1 0xC0 DUP3 ADD MLOAD DUP2 PUSH1 0x6 ADD SSTORE PUSH1 0xE0 DUP3 ADD MLOAD DUP2 PUSH1 0x7 ADD SSTORE POP POP PUSH1 0x20 DUP3 ADD MLOAD DUP2 PUSH1 0x8 ADD SSTORE SWAP1 POP POP PUSH1 0x1 DUP3 PUSH1 0xE0 ADD MLOAD PUSH2 0x14E3 SWAP2 SWAP1 PUSH2 0x23C2 JUMP JUMPDEST PUSH1 0x2 PUSH0 DUP6 DUP2 MSTORE PUSH1 0x20 ADD SWAP1 DUP2 MSTORE PUSH1 0x20 ADD PUSH0 KECCAK256 PUSH1 0x7 ADD DUP2 SWAP1 SSTORE POP PUSH32 0x12CB4648CF3058B17CEEB33E579F8B0BC269FE0843F3900B8E24B6C54871703C CALLER DUP5 DUP5 PUSH0 ADD MLOAD PUSH1 0x40 MLOAD PUSH2 0x1531 SWAP4 SWAP3 SWAP2 SWAP1 PUSH2 0x23F5 JUMP JUMPDEST PUSH1 0x40 MLOAD DUP1 SWAP2 SUB SWAP1 LOG1 POP POP POP JUMP JUMPDEST PUSH1 0x40 MLOAD DUP1 PUSH2 0x100 ADD PUSH1 0x40 MSTORE DUP1 PUSH0 DUP2 MSTORE PUSH1 0x20 ADD PUSH1 0x60 DUP2 MSTORE PUSH1 0x20 ADD PUSH1 0x60 DUP2 MSTORE PUSH1 0x20 ADD PUSH1 0x60 DUP2 MSTORE PUSH1 0x20 ADD PUSH1 0x60 DUP2 MSTORE PUSH1 0x20 ADD PUSH0 DUP2 MSTORE PUSH1 0x20 ADD PUSH0 DUP2 MSTORE PUSH1 0x20 ADD PUSH0 DUP2 MSTORE POP SWAP1 JUMP JUMPDEST PUSH1 0x40 MLOAD DUP1 PUSH1 0x40 ADD PUSH1 0x40 MSTORE DUP1 PUSH2 0x1592 PUSH2 0x153E JUMP JUMPDEST DUP2 MSTORE PUSH1 0x20 ADD PUSH0 DUP2 MSTORE POP SWAP1 JUMP JUMPDEST PUSH0 PUSH1 0x40 MLOAD SWAP1 POP SWAP1 JUMP JUMPDEST PUSH0 PUSH0 REVERT JUMPDEST PUSH0 PUSH0 REVERT JUMPDEST PUSH0 DUP2 SWAP1 POP SWAP2 SWAP1 POP JUMP JUMPDEST PUSH2 0x15C1 DUP2 PUSH2 0x15AF JUMP JUMPDEST DUP2 EQ PUSH2 0x15CB JUMPI PUSH0 PUSH0 REVERT JUMPDEST POP JUMP JUMPDEST PUSH0 DUP2 CALLDATALOAD SWAP1 POP PUSH2 0x15DC DUP2 PUSH2 0x15B8 JUMP JUMPDEST SWAP3 SWAP2 POP POP JUMP JUMPDEST PUSH0 PUSH0 REVERT JUMPDEST PUSH0 PUSH0 REVERT JUMPDEST PUSH0 PUSH0 REVERT JUMPDEST PUSH0 PUSH0 DUP4 PUSH1 0x1F DUP5 ADD SLT PUSH2 0x1603 JUMPI PUSH2 0x1602 PUSH2 0x15E2 JUMP JUMPDEST JUMPDEST DUP3 CALLDATALOAD SWAP1 POP PUSH8 0xFFFFFFFFFFFFFFFF DUP2 GT ISZERO PUSH2 0x1620 JUMPI PUSH2 0x161F PUSH2 0x15E6 JUMP JUMPDEST JUMPDEST PUSH1 0x20 DUP4 ADD SWAP2 POP DUP4 PUSH1 0x1 DUP3 MUL DUP4 ADD GT ISZERO PUSH2 0x163C JUMPI PUSH2 0x163B PUSH2 0x15EA JUMP JUMPDEST JUMPDEST SWAP3 POP SWAP3 SWAP1 POP JUMP JUMPDEST PUSH0 PUSH0 REVERT JUMPDEST PUSH0 PUSH1 0x1F NOT PUSH1 0x1F DUP4 ADD AND SWAP1 POP SWAP2 SWAP1 POP JUMP JUMPDEST PUSH32 0x4E487B7100000000000000000000000000000000000000000000000000000000 PUSH0 MSTORE PUSH1 0x41 PUSH1 0x4 MSTORE PUSH1 0x24 PUSH0 REVERT JUMPDEST PUSH2 0x168D DUP3 PUSH2 0x1647 JUMP JUMPDEST DUP2 ADD DUP2 DUP2 LT PUSH8 0xFFFFFFFFFFFFFFFF DUP3 GT OR ISZERO PUSH2 0x16AC JUMPI PUSH2 0x16AB PUSH2 0x1657 JUMP JUMPDEST JUMPDEST DUP1 PUSH1 0x40 MSTORE POP POP POP JUMP JUMPDEST PUSH0 PUSH2 0x16BE PUSH2 0x159E JUMP JUMPDEST SWAP1 POP PUSH2 0x16CA DUP3 DUP3 PUSH2 0x1684 JUMP JUMPDEST SWAP2 SWAP1 POP JUMP JUMPDEST PUSH0 PUSH8 0xFFFFFFFFFFFFFFFF DUP3 GT ISZERO PUSH2 0x16E9 JUMPI PUSH2 0x16E8 PUSH2 0x1657 JUMP JUMPDEST JUMPDEST PUSH2 0x16F2 DUP3 PUSH2 0x1647 JUMP JUMPDEST SWAP1 POP PUSH1 0x20 DUP2 ADD SWAP1 POP SWAP2 SWAP1 POP JUMP JUMPDEST DUP3 DUP2 DUP4 CALLDATACOPY PUSH0 DUP4 DUP4 ADD MSTORE POP POP POP JUMP JUMPDEST PUSH0 PUSH2 0x171F PUSH2 0x171A DUP5 PUSH2 0x16CF JUMP JUMPDEST PUSH2 0x16B5 JUMP JUMPDEST SWAP1 POP DUP3 DUP2 MSTORE PUSH1 0x20 DUP2 ADD DUP5 DUP5 DUP5 ADD GT ISZERO PUSH2 0x173B JUMPI PUSH2 0x173A PUSH2 0x1643 JUMP JUMPDEST JUMPDEST PUSH2 0x1746 DUP5 DUP3 DUP6 PUSH2 0x16FF JUMP JUMPDEST POP SWAP4 SWAP3 POP POP POP JUMP JUMPDEST PUSH0 DUP3 PUSH1 0x1F DUP4 ADD SLT PUSH2 0x1762 JUMPI PUSH2 0x1761 PUSH2 0x15E2 JUMP JUMPDEST JUMPDEST DUP2 CALLDATALOAD PUSH2 0x1772 DUP5 DUP3 PUSH1 0x20 DUP7 ADD PUSH2 0x170D JUMP JUMPDEST SWAP2 POP POP SWAP3 SWAP2 POP POP JUMP JUMPDEST PUSH0 PUSH0 PUSH0 PUSH0 PUSH0 PUSH0 PUSH0 PUSH0 PUSH0 PUSH0 PUSH0 PUSH2 0x100 DUP13 DUP15 SUB SLT ISZERO PUSH2 0x179B JUMPI PUSH2 0x179A PUSH2 0x15A7 JUMP JUMPDEST JUMPDEST PUSH0 PUSH2 0x17A8 DUP15 DUP3 DUP16 ADD PUSH2 0x15CE JUMP JUMPDEST SWAP12 POP POP PUSH1 0x20 DUP13 ADD CALLDATALOAD PUSH8 0xFFFFFFFFFFFFFFFF DUP2 GT ISZERO PUSH2 0x17C9 JUMPI PUSH2 0x17C8 PUSH2 0x15AB JUMP JUMPDEST JUMPDEST PUSH2 0x17D5 DUP15 DUP3 DUP16 ADD PUSH2 0x15EE JUMP JUMPDEST SWAP11 POP SWAP11 POP POP PUSH1 0x40 DUP13 ADD CALLDATALOAD PUSH8 0xFFFFFFFFFFFFFFFF DUP2 GT ISZERO PUSH2 0x17F8 JUMPI PUSH2 0x17F7 PUSH2 0x15AB JUMP JUMPDEST JUMPDEST PUSH2 0x1804 DUP15 DUP3 DUP16 ADD PUSH2 0x15EE JUMP JUMPDEST SWAP9 POP SWAP9 POP POP PUSH1 0x60 DUP13 ADD CALLDATALOAD PUSH8 0xFFFFFFFFFFFFFFFF DUP2 GT ISZERO PUSH2 0x1827 JUMPI PUSH2 0x1826 PUSH2 0x15AB JUMP JUMPDEST JUMPDEST PUSH2 0x1833 DUP15 DUP3 DUP16 ADD PUSH2 0x15EE JUMP JUMPDEST SWAP7 POP SWAP7 POP POP PUSH1 0x80 DUP13 ADD CALLDATALOAD PUSH8 0xFFFFFFFFFFFFFFFF DUP2 GT ISZERO PUSH2 0x1856 JUMPI PUSH2 0x1855 PUSH2 0x15AB JUMP JUMPDEST JUMPDEST PUSH2 0x1862 DUP15 DUP3 DUP16 ADD PUSH2 0x174E JUMP JUMPDEST SWAP5 POP POP PUSH1 0xA0 PUSH2 0x1873 DUP15 DUP3 DUP16 ADD PUSH2 0x15CE JUMP JUMPDEST SWAP4 POP POP PUSH1 0xC0 PUSH2 0x1884 DUP15 DUP3 DUP16 ADD PUSH2 0x15CE JUMP JUMPDEST SWAP3 POP POP PUSH1 0xE0 PUSH2 0x1895 DUP15 DUP3 DUP16 ADD PUSH2 0x15CE JUMP JUMPDEST SWAP2 POP POP SWAP3 SWAP6 SWAP9 SWAP12 POP SWAP3 SWAP6 SWAP9 SWAP12 SWAP1 SWAP4 SWAP7 SWAP10 POP JUMP JUMPDEST PUSH0 PUSH20 0xFFFFFFFFFFFFFFFFFFFFFFFFFFFFFFFFFFFFFFFF DUP3 AND SWAP1 POP SWAP2 SWAP1 POP JUMP JUMPDEST PUSH0 PUSH2 0x18D1 DUP3 PUSH2 0x18A8 JUMP JUMPDEST SWAP1 POP SWAP2 SWAP1 POP JUMP JUMPDEST PUSH2 0x18E1 DUP2 PUSH2 0x18C7 JUMP JUMPDEST DUP3 MSTORE POP POP JUMP JUMPDEST PUSH0 PUSH1 0x20 DUP3 ADD SWAP1 POP PUSH2 0x18FA PUSH0 DUP4 ADD DUP5 PUSH2 0x18D8 JUMP JUMPDEST SWAP3 SWAP2 POP POP JUMP JUMPDEST PUSH0 PUSH0 PUSH1 0x40 DUP4 DUP6 SUB SLT ISZERO PUSH2 0x1916 JUMPI PUSH2 0x1915 PUSH2 0x15A7 JUMP JUMPDEST JUMPDEST PUSH0 PUSH2 0x1923 DUP6 DUP3 DUP7 ADD PUSH2 0x15CE JUMP JUMPDEST SWAP3 POP POP PUSH1 0x20 PUSH2 0x1934 DUP6 DUP3 DUP7 ADD PUSH2 0x15CE JUMP JUMPDEST SWAP2 POP POP SWAP3 POP SWAP3 SWAP1 POP JUMP JUMPDEST PUSH0 PUSH1 0x20 DUP3 DUP5 SUB SLT ISZERO PUSH2 0x1953 JUMPI PUSH2 0x1952 PUSH2 0x15A7 JUMP JUMPDEST JUMPDEST PUSH0 PUSH2 0x1960 DUP5 DUP3 DUP6 ADD PUSH2 0x15CE JUMP JUMPDEST SWAP2 POP POP SWAP3 SWAP2 POP POP JUMP JUMPDEST PUSH2 0x1972 DUP2 PUSH2 0x15AF JUMP JUMPDEST DUP3 MSTORE POP POP JUMP JUMPDEST PUSH0 DUP2 MLOAD SWAP1 POP SWAP2 SWAP1 POP JUMP JUMPDEST PUSH0 DUP3 DUP3 MSTORE PUSH1 0x20 DUP3 ADD SWAP1 POP SWAP3 SWAP2 POP POP JUMP JUMPDEST DUP3 DUP2 DUP4 MCOPY PUSH0 DUP4 DUP4 ADD MSTORE POP POP POP JUMP JUMPDEST PUSH0 PUSH2 0x19AA DUP3 PUSH2 0x1978 JUMP JUMPDEST PUSH2 0x19B4 DUP2 DUP6 PUSH2 0x1982 JUMP JUMPDEST SWAP4 POP PUSH2 0x19C4 DUP2 DUP6 PUSH1 0x20 DUP7 ADD PUSH2 0x1992 JUMP JUMPDEST PUSH2 0x19CD DUP2 PUSH2 0x1647 JUMP JUMPDEST DUP5 ADD SWAP2 POP POP SWAP3 SWAP2 POP POP JUMP JUMPDEST PUSH0 PUSH2 0x100 DUP4 ADD PUSH0 DUP4 ADD MLOAD PUSH2 0x19EE PUSH0 DUP7 ADD DUP3 PUSH2 0x1969 JUMP JUMPDEST POP PUSH1 0x20 DUP4 ADD MLOAD DUP5 DUP3 SUB PUSH1 0x20 DUP7 ADD MSTORE PUSH2 0x1A06 DUP3 DUP3 PUSH2 0x19A0 JUMP JUMPDEST SWAP2 POP POP PUSH1 0x40 DUP4 ADD MLOAD DUP5 DUP3 SUB PUSH1 0x40 DUP7 ADD MSTORE PUSH2 0x1A20 DUP3 DUP3 PUSH2 0x19A0 JUMP JUMPDEST SWAP2 POP POP PUSH1 0x60 DUP4 ADD MLOAD DUP5 DUP3 SUB PUSH1 0x60 DUP7 ADD MSTORE PUSH2 0x1A3A DUP3 DUP3 PUSH2 0x19A0 JUMP JUMPDEST SWAP2 POP POP PUSH1 0x80 DUP4 ADD MLOAD DUP5 DUP3 SUB PUSH1 0x80 DUP7 ADD MSTORE PUSH2 0x1A54 DUP3 DUP3 PUSH2 0x19A0 JUMP JUMPDEST SWAP2 POP POP PUSH1 0xA0 DUP4 ADD MLOAD PUSH2 0x1A69 PUSH1 0xA0 DUP7 ADD DUP3 PUSH2 0x1969 JUMP JUMPDEST POP PUSH1 0xC0 DUP4 ADD MLOAD PUSH2 0x1A7C PUSH1 0xC0 DUP7 ADD DUP3 PUSH2 0x1969 JUMP JUMPDEST POP PUSH1 0xE0 DUP4 ADD MLOAD PUSH2 0x1A8F PUSH1 0xE0 DUP7 ADD DUP3 PUSH2 0x1969 JUMP JUMPDEST POP DUP1 SWAP2 POP POP SWAP3 SWAP2 POP POP JUMP JUMPDEST PUSH0 PUSH1 0x20 DUP3 ADD SWAP1 POP DUP2 DUP2 SUB PUSH0 DUP4 ADD MSTORE PUSH2 0x1AB2 DUP2 DUP5 PUSH2 0x19D8 JUMP JUMPDEST SWAP1 POP SWAP3 SWAP2 POP POP JUMP JUMPDEST PUSH0 DUP2 MLOAD SWAP1 POP SWAP2 SWAP1 POP JUMP JUMPDEST PUSH0 DUP3 DUP3 MSTORE PUSH1 0x20 DUP3 ADD SWAP1 POP SWAP3 SWAP2 POP POP JUMP JUMPDEST PUSH0 DUP2 SWAP1 POP PUSH1 0x20 DUP3 ADD SWAP1 POP SWAP2 SWAP1 POP JUMP JUMPDEST PUSH0 PUSH2 0x100 DUP4 ADD PUSH0 DUP4 ADD MLOAD PUSH2 0x1AF9 PUSH0 DUP7 ADD DUP3 PUSH2 0x1969 JUMP JUMPDEST POP PUSH1 0x20 DUP4 ADD MLOAD DUP5 DUP3 SUB PUSH1 0x20 DUP7 ADD MSTORE PUSH2 0x1B11 DUP3 DUP3 PUSH2 0x19A0 JUMP JUMPDEST SWAP2 POP POP PUSH1 0x40 DUP4 ADD MLOAD DUP5 DUP3 SUB PUSH1 0x40 DUP7 ADD MSTORE PUSH2 0x1B2B DUP3 DUP3 PUSH2 0x19A0 JUMP JUMPDEST SWAP2 POP POP PUSH1 0x60 DUP4 ADD MLOAD DUP5 DUP3 SUB PUSH1 0x60 DUP7 ADD MSTORE PUSH2 0x1B45 DUP3 DUP3 PUSH2 0x19A0 JUMP JUMPDEST SWAP2 POP POP PUSH1 0x80 DUP4 ADD MLOAD DUP5 DUP3 SUB PUSH1 0x80 DUP7 ADD MSTORE PUSH2 0x1B5F DUP3 DUP3 PUSH2 0x19A0 JUMP JUMPDEST SWAP2 POP POP PUSH1 0xA0 DUP4 ADD MLOAD PUSH2 0x1B74 PUSH1 0xA0 DUP7 ADD DUP3 PUSH2 0x1969 JUMP JUMPDEST POP PUSH1 0xC0 DUP4 ADD MLOAD PUSH2 0x1B87 PUSH1 0xC0 DUP7 ADD DUP3 PUSH2 0x1969 JUMP JUMPDEST POP PUSH1 0xE0 DUP4 ADD MLOAD PUSH2 0x1B9A PUSH1 0xE0 DUP7 ADD DUP3 PUSH2 0x1969 JUMP JUMPDEST POP DUP1 SWAP2 POP POP SWAP3 SWAP2 POP POP JUMP JUMPDEST PUSH0 PUSH1 0x40 DUP4 ADD PUSH0 DUP4 ADD MLOAD DUP5 DUP3 SUB PUSH0 DUP7 ADD MSTORE PUSH2 0x1BBF DUP3 DUP3 PUSH2 0x1AE3 JUMP JUMPDEST SWAP2 POP POP PUSH1 0x20 DUP4 ADD MLOAD PUSH2 0x1BD4 PUSH1 0x20 DUP7 ADD DUP3 PUSH2 0x1969 JUMP JUMPDEST POP DUP1 SWAP2 POP POP SWAP3 SWAP2 POP POP JUMP JUMPDEST PUSH0 PUSH2 0x1BEA DUP4 DUP4 PUSH2 0x1BA5 JUMP JUMPDEST SWAP1 POP SWAP3 SWAP2 POP POP JUMP JUMPDEST PUSH0 PUSH1 0x20 DUP3 ADD SWAP1 POP SWAP2 SWAP1 POP JUMP JUMPDEST PUSH0 PUSH2 0x1C08 DUP3 PUSH2 0x1ABA JUMP JUMPDEST PUSH2 0x1C12 DUP2 DUP6 PUSH2 0x1AC4 JUMP JUMPDEST SWAP4 POP DUP4 PUSH1 0x20 DUP3 MUL DUP6 ADD PUSH2 0x1C24 DUP6 PUSH2 0x1AD4 JUMP JUMPDEST DUP1 PUSH0 JUMPDEST DUP6 DUP2 LT ISZERO PUSH2 0x1C5F JUMPI DUP5 DUP5 SUB DUP10 MSTORE DUP2 MLOAD PUSH2 0x1C40 DUP6 DUP3 PUSH2 0x1BDF JUMP JUMPDEST SWAP5 POP PUSH2 0x1C4B DUP4 PUSH2 0x1BF2 JUMP JUMPDEST SWAP3 POP PUSH1 0x20 DUP11 ADD SWAP10 POP POP PUSH1 0x1 DUP2 ADD SWAP1 POP PUSH2 0x1C27 JUMP JUMPDEST POP DUP3 SWAP8 POP DUP8 SWAP6 POP POP POP POP POP POP SWAP3 SWAP2 POP POP JUMP JUMPDEST PUSH0 PUSH1 0x20 DUP3 ADD SWAP1 POP DUP2 DUP2 SUB PUSH0 DUP4 ADD MSTORE PUSH2 0x1C89 DUP2 DUP5 PUSH2 0x1BFE JUMP JUMPDEST SWAP1 POP SWAP3 SWAP2 POP POP JUMP JUMPDEST PUSH0 DUP2 MLOAD SWAP1 POP SWAP2 SWAP1 POP JUMP JUMPDEST PUSH0 DUP3 DUP3 MSTORE PUSH1 0x20 DUP3 ADD SWAP1 POP SWAP3 SWAP2 POP POP JUMP JUMPDEST PUSH0 DUP2 SWAP1 POP PUSH1 0x20 DUP3 ADD SWAP1 POP SWAP2 SWAP1 POP JUMP JUMPDEST PUSH0 PUSH2 0x1CC5 DUP4 DUP4 PUSH2 0x1AE3 JUMP JUMPDEST SWAP1 POP SWAP3 SWAP2 POP POP JUMP JUMPDEST PUSH0 PUSH1 0x20 DUP3 ADD SWAP1 POP SWAP2 SWAP1 POP JUMP JUMPDEST PUSH0 PUSH2 0x1CE3 DUP3 PUSH2 0x1C91 JUMP JUMPDEST PUSH2 0x1CED DUP2 DUP6 PUSH2 0x1C9B JUMP JUMPDEST SWAP4 POP DUP4 PUSH1 0x20 DUP3 MUL DUP6 ADD PUSH2 0x1CFF DUP6 PUSH2 0x1CAB JUMP JUMPDEST DUP1 PUSH0 JUMPDEST DUP6 DUP2 LT ISZERO PUSH2 0x1D3A JUMPI DUP5 DUP5 SUB DUP10 MSTORE DUP2 MLOAD PUSH2 0x1D1B DUP6 DUP3 PUSH2 0x1CBA JUMP JUMPDEST SWAP5 POP PUSH2 0x1D26 DUP4 PUSH2 0x1CCD JUMP JUMPDEST SWAP3 POP PUSH1 0x20 DUP11 ADD SWAP10 POP POP PUSH1 0x1 DUP2 ADD SWAP1 POP PUSH2 0x1D02 JUMP JUMPDEST POP DUP3 SWAP8 POP DUP8 SWAP6 POP POP POP POP POP POP SWAP3 SWAP2 POP POP JUMP JUMPDEST PUSH0 PUSH1 0x20 DUP3 ADD SWAP1 POP DUP2 DUP2 SUB PUSH0 DUP4 ADD MSTORE PUSH2 0x1D64 DUP2 DUP5 PUSH2 0x1CD9 JUMP JUMPDEST SWAP1 POP SWAP3 SWAP2 POP POP JUMP JUMPDEST PUSH0 DUP3 DUP3 MSTORE PUSH1 0x20 DUP3 ADD SWAP1 POP SWAP3 SWAP2 POP POP JUMP JUMPDEST PUSH32 0x596F7520617265206E6F7420746865206F77656E720000000000000000000000 PUSH0 DUP3 ADD MSTORE POP JUMP JUMPDEST PUSH0 PUSH2 0x1DB0 PUSH1 0x15 DUP4 PUSH2 0x1D6C JUMP JUMPDEST SWAP2 POP PUSH2 0x1DBB DUP3 PUSH2 0x1D7C JUMP JUMPDEST PUSH1 0x20 DUP3 ADD SWAP1 POP SWAP2 SWAP1 POP JUMP JUMPDEST PUSH0 PUSH1 0x20 DUP3 ADD SWAP1 POP DUP2 DUP2 SUB PUSH0 DUP4 ADD MSTORE PUSH2 0x1DDD DUP2 PUSH2 0x1DA4 JUMP JUMPDEST SWAP1 POP SWAP2 SWAP1 POP JUMP JUMPDEST PUSH0 DUP2 SWAP1 POP SWAP3 SWAP2 POP POP JUMP JUMPDEST POP JUMP JUMPDEST PUSH0 PUSH2 0x1DFC PUSH0 DUP4 PUSH2 0x1DE4 JUMP JUMPDEST SWAP2 POP PUSH2 0x1E07 DUP3 PUSH2 0x1DEE JUMP JUMPDEST PUSH0 DUP3 ADD SWAP1 POP SWAP2 SWAP1 POP JUMP JUMPDEST PUSH0 PUSH2 0x1E1B DUP3 PUSH2 0x1DF1 JUMP JUMPDEST SWAP2 POP DUP2 SWAP1 POP SWAP2 SWAP1 POP JUMP JUMPDEST PUSH32 0x50726F6475637420697320616C72656164792045786973742E00000000000000 PUSH0 DUP3 ADD MSTORE POP JUMP JUMPDEST PUSH0 PUSH2 0x1E59 PUSH1 0x19 DUP4 PUSH2 0x1D6C JUMP JUMPDEST SWAP2 POP PUSH2 0x1E64 DUP3 PUSH2 0x1E25 JUMP JUMPDEST PUSH1 0x20 DUP3 ADD SWAP1 POP SWAP2 SWAP1 POP JUMP JUMPDEST PUSH0 PUSH1 0x20 DUP3 ADD SWAP1 POP DUP2 DUP2 SUB PUSH0 DUP4 ADD MSTORE PUSH2 0x1E86 DUP2 PUSH2 0x1E4D JUMP JUMPDEST SWAP1 POP SWAP2 SWAP1 POP JUMP JUMPDEST PUSH32 0x4E487B7100000000000000000000000000000000000000000000000000000000 PUSH0 MSTORE PUSH1 0x22 PUSH1 0x4 MSTORE PUSH1 0x24 PUSH0 REVERT JUMPDEST PUSH0 PUSH1 0x2 DUP3 DIV SWAP1 POP PUSH1 0x1 DUP3 AND DUP1 PUSH2 0x1ED1 JUMPI PUSH1 0x7F DUP3 AND SWAP2 POP JUMPDEST PUSH1 0x20 DUP3 LT DUP2 SUB PUSH2 0x1EE4 JUMPI PUSH2 0x1EE3 PUSH2 0x1E8D JUMP JUMPDEST JUMPDEST POP SWAP2 SWAP1 POP JUMP JUMPDEST PUSH0 DUP2 SWAP1 POP DUP2 PUSH0 MSTORE PUSH1 0x20 PUSH0 KECCAK256 SWAP1 POP SWAP2 SWAP1 POP JUMP JUMPDEST PUSH0 PUSH1 0x20 PUSH1 0x1F DUP4 ADD DIV SWAP1 POP SWAP2 SWAP1 POP JUMP JUMPDEST PUSH0 DUP3 DUP3 SHL SWAP1 POP SWAP3 SWAP2 POP POP JUMP JUMPDEST PUSH0 PUSH1 0x8 DUP4 MUL PUSH2 0x1F46 PUSH32 0xFFFFFFFFFFFFFFFFFFFFFFFFFFFFFFFFFFFFFFFFFFFFFFFFFFFFFFFFFFFFFFFF DUP3 PUSH2 0x1F0B JUMP JUMPDEST PUSH2 0x1F50 DUP7 DUP4 PUSH2 0x1F0B JUMP JUMPDEST SWAP6 POP DUP1 NOT DUP5 AND SWAP4 POP DUP1 DUP7 AND DUP5 OR SWAP3 POP POP POP SWAP4 SWAP3 POP POP POP JUMP JUMPDEST PUSH0 DUP2 SWAP1 POP SWAP2 SWAP1 POP JUMP JUMPDEST PUSH0 PUSH2 0x1F8B PUSH2 0x1F86 PUSH2 0x1F81 DUP5 PUSH2 0x15AF JUMP JUMPDEST PUSH2 0x1F68 JUMP JUMPDEST PUSH2 0x15AF JUMP JUMPDEST SWAP1 POP SWAP2 SWAP1 POP JUMP JUMPDEST PUSH0 DUP2 SWAP1 POP SWAP2 SWAP1 POP JUMP JUMPDEST PUSH2 0x1FA4 DUP4 PUSH2 0x1F71 JUMP JUMPDEST PUSH2 0x1FB8 PUSH2 0x1FB0 DUP3 PUSH2 0x1F92 JUMP JUMPDEST DUP5 DUP5 SLOAD PUSH2 0x1F17 JUMP JUMPDEST DUP3 SSTORE POP POP POP POP JUMP JUMPDEST PUSH0 PUSH0 SWAP1 POP SWAP1 JUMP JUMPDEST PUSH2 0x1FCF PUSH2 0x1FC0 JUMP JUMPDEST PUSH2 0x1FDA DUP2 DUP5 DUP5 PUSH2 0x1F9B JUMP JUMPDEST POP POP POP JUMP JUMPDEST JUMPDEST DUP2 DUP2 LT ISZERO PUSH2 0x1FFD JUMPI PUSH2 0x1FF2 PUSH0 DUP3 PUSH2 0x1FC7 JUMP JUMPDEST PUSH1 0x1 DUP2 ADD SWAP1 POP PUSH2 0x1FE0 JUMP JUMPDEST POP POP JUMP JUMPDEST PUSH1 0x1F DUP3 GT ISZERO PUSH2 0x2042 JUMPI PUSH2 0x2013 DUP2 PUSH2 0x1EEA JUMP JUMPDEST PUSH2 0x201C DUP5 PUSH2 0x1EFC JUMP JUMPDEST DUP2 ADD PUSH1 0x20 DUP6 LT ISZERO PUSH2 0x202B JUMPI DUP2 SWAP1 POP JUMPDEST PUSH2 0x203F PUSH2 0x2037 DUP6 PUSH2 0x1EFC JUMP JUMPDEST DUP4 ADD DUP3 PUSH2 0x1FDF JUMP JUMPDEST POP POP JUMPDEST POP POP POP JUMP JUMPDEST PUSH0 DUP3 DUP3 SHR SWAP1 POP SWAP3 SWAP2 POP POP JUMP JUMPDEST PUSH0 PUSH2 0x2062 PUSH0 NOT DUP5 PUSH1 0x8 MUL PUSH2 0x2047 JUMP JUMPDEST NOT DUP1 DUP4 AND SWAP2 POP POP SWAP3 SWAP2 POP POP JUMP JUMPDEST PUSH0 PUSH2 0x207A DUP4 DUP4 PUSH2 0x2053 JUMP JUMPDEST SWAP2 POP DUP3 PUSH1 0x2 MUL DUP3 OR SWAP1 POP SWAP3 SWAP2 POP POP JUMP JUMPDEST PUSH2 0x2093 DUP3 PUSH2 0x1978 JUMP JUMPDEST PUSH8 0xFFFFFFFFFFFFFFFF DUP2 GT ISZERO PUSH2 0x20AC JUMPI PUSH2 0x20AB PUSH2 0x1657 JUMP JUMPDEST JUMPDEST PUSH2 0x20B6 DUP3 SLOAD PUSH2 0x1EBA JUMP JUMPDEST PUSH2 0x20C1 DUP3 DUP3 DUP6 PUSH2 0x2001 JUMP JUMPDEST PUSH0 PUSH1 0x20 SWAP1 POP PUSH1 0x1F DUP4 GT PUSH1 0x1 DUP2 EQ PUSH2 0x20F2 JUMPI PUSH0 DUP5 ISZERO PUSH2 0x20E0 JUMPI DUP3 DUP8 ADD MLOAD SWAP1 POP JUMPDEST PUSH2 0x20EA DUP6 DUP3 PUSH2 0x206F JUMP JUMPDEST DUP7 SSTORE POP PUSH2 0x2151 JUMP JUMPDEST PUSH1 0x1F NOT DUP5 AND PUSH2 0x2100 DUP7 PUSH2 0x1EEA JUMP JUMPDEST PUSH0 JUMPDEST DUP3 DUP2 LT ISZERO PUSH2 0x2127 JUMPI DUP5 DUP10 ADD MLOAD DUP3 SSTORE PUSH1 0x1 DUP3 ADD SWAP2 POP PUSH1 0x20 DUP6 ADD SWAP5 POP PUSH1 0x20 DUP2 ADD SWAP1 POP PUSH2 0x2102 JUMP JUMPDEST DUP7 DUP4 LT ISZERO PUSH2 0x2144 JUMPI DUP5 DUP10 ADD MLOAD PUSH2 0x2140 PUSH1 0x1F DUP10 AND DUP3 PUSH2 0x2053 JUMP JUMPDEST DUP4 SSTORE POP JUMPDEST PUSH1 0x1 PUSH1 0x2 DUP9 MUL ADD DUP9 SSTORE POP POP POP JUMPDEST POP POP POP POP POP POP JUMP JUMPDEST PUSH0 PUSH2 0x2164 DUP4 DUP6 PUSH2 0x1D6C JUMP JUMPDEST SWAP4 POP PUSH2 0x2171 DUP4 DUP6 DUP5 PUSH2 0x16FF JUMP JUMPDEST PUSH2 0x217A DUP4 PUSH2 0x1647 JUMP JUMPDEST DUP5 ADD SWAP1 POP SWAP4 SWAP3 POP POP POP JUMP JUMPDEST PUSH2 0x218E DUP2 PUSH2 0x15AF JUMP JUMPDEST DUP3 MSTORE POP POP JUMP JUMPDEST PUSH0 PUSH1 0x60 DUP3 ADD SWAP1 POP DUP2 DUP2 SUB PUSH0 DUP4 ADD MSTORE PUSH2 0x21AD DUP2 DUP7 DUP9 PUSH2 0x2159 JUMP JUMPDEST SWAP1 POP PUSH2 0x21BC PUSH1 0x20 DUP4 ADD DUP6 PUSH2 0x2185 JUMP JUMPDEST PUSH2 0x21C9 PUSH1 0x40 DUP4 ADD DUP5 PUSH2 0x2185 JUMP JUMPDEST SWAP6 SWAP5 POP POP POP POP POP JUMP JUMPDEST PUSH32 0x4E487B7100000000000000000000000000000000000000000000000000000000 PUSH0 MSTORE PUSH1 0x11 PUSH1 0x4 MSTORE PUSH1 0x24 PUSH0 REVERT JUMPDEST PUSH0 PUSH2 0x2209 DUP3 PUSH2 0x15AF JUMP JUMPDEST SWAP2 POP PUSH2 0x2214 DUP4 PUSH2 0x15AF JUMP JUMPDEST SWAP3 POP DUP3 DUP3 ADD SWAP1 POP DUP1 DUP3 GT ISZERO PUSH2 0x222C JUMPI PUSH2 0x222B PUSH2 0x21D2 JUMP JUMPDEST JUMPDEST SWAP3 SWAP2 POP POP JUMP JUMPDEST PUSH32 0x4E487B7100000000000000000000000000000000000000000000000000000000 PUSH0 MSTORE PUSH1 0x32 PUSH1 0x4 MSTORE PUSH1 0x24 PUSH0 REVERT JUMPDEST PUSH32 0x596F7520646F6E277420686176652073756666696369656E742062616C616E63 PUSH0 DUP3 ADD MSTORE PUSH32 0x6500000000000000000000000000000000000000000000000000000000000000 PUSH1 0x20 DUP3 ADD MSTORE POP JUMP JUMPDEST PUSH0 PUSH2 0x22B9 PUSH1 0x21 DUP4 PUSH2 0x1D6C JUMP JUMPDEST SWAP2 POP PUSH2 0x22C4 DUP3 PUSH2 0x225F JUMP JUMPDEST PUSH1 0x40 DUP3 ADD SWAP1 POP SWAP2 SWAP1 POP JUMP JUMPDEST PUSH0 PUSH1 0x20 DUP3 ADD SWAP1 POP DUP2 DUP2 SUB PUSH0 DUP4 ADD MSTORE PUSH2 0x22E6 DUP2 PUSH2 0x22AD JUMP JUMPDEST SWAP1 POP SWAP2 SWAP1 POP JUMP JUMPDEST PUSH32 0x536F7272792C20746869732070726F64756374206973206E6F7420617661696C PUSH0 DUP3 ADD MSTORE PUSH32 0x61626C6500000000000000000000000000000000000000000000000000000000 PUSH1 0x20 DUP3 ADD MSTORE POP JUMP JUMPDEST PUSH0 PUSH2 0x2347 PUSH1 0x24 DUP4 PUSH2 0x1D6C JUMP JUMPDEST SWAP2 POP PUSH2 0x2352 DUP3 PUSH2 0x22ED JUMP JUMPDEST PUSH1 0x40 DUP3 ADD SWAP1 POP SWAP2 SWAP1 POP JUMP JUMPDEST PUSH0 PUSH1 0x20 DUP3 ADD SWAP1 POP DUP2 DUP2 SUB PUSH0 DUP4 ADD MSTORE PUSH2 0x2374 DUP2 PUSH2 0x233B JUMP JUMPDEST SWAP1 POP SWAP2 SWAP1 POP JUMP JUMPDEST PUSH0 PUSH2 0x2385 DUP3 PUSH2 0x15AF JUMP JUMPDEST SWAP2 POP PUSH32 0xFFFFFFFFFFFFFFFFFFFFFFFFFFFFFFFFFFFFFFFFFFFFFFFFFFFFFFFFFFFFFFFF DUP3 SUB PUSH2 0x23B7 JUMPI PUSH2 0x23B6 PUSH2 0x21D2 JUMP JUMPDEST JUMPDEST PUSH1 0x1 DUP3 ADD SWAP1 POP SWAP2 SWAP1 POP JUMP JUMPDEST PUSH0 PUSH2 0x23CC DUP3 PUSH2 0x15AF JUMP JUMPDEST SWAP2 POP PUSH2 0x23D7 DUP4 PUSH2 0x15AF JUMP JUMPDEST SWAP3 POP DUP3 DUP3 SUB SWAP1 POP DUP2 DUP2 GT ISZERO PUSH2 0x23EF JUMPI PUSH2 0x23EE PUSH2 0x21D2 JUMP JUMPDEST JUMPDEST SWAP3 SWAP2 POP POP JUMP JUMPDEST PUSH0 PUSH1 0x60 DUP3 ADD SWAP1 POP PUSH2 0x2408 PUSH0 DUP4 ADD DUP7 PUSH2 0x18D8 JUMP JUMPDEST PUSH2 0x2415 PUSH1 0x20 DUP4 ADD DUP6 PUSH2 0x2185 JUMP JUMPDEST PUSH2 0x2422 PUSH1 0x40 DUP4 ADD DUP5 PUSH2 0x2185 JUMP JUMPDEST SWAP5 SWAP4 POP POP POP POP JUMP INVALID LOG2 PUSH5 0x6970667358 0x22 SLT KECCAK256 PUSH22 0xE69B449EBF1560508D46D90551ADB556031A2100923D DUP2 BALANCE PUSH13 0xEC489FD4C81164736F6C634300 ADDMOD 0x1E STOP CALLER "
				},
				"gasEstimates": {
					"creation": {
						"codeDepositCost": "1862400",
						"executionCost": "26224",
						"totalCost": "1888624"
					},
					"external": {
						"buy(uint256)": "infinite",
						"getAllProduct()": "infinite",
						"getMyOrders()": "infinite",
						"getProduct(uint256)": "infinite",
						"list(uint256,string,string,string,string,uint256,uint256,uint256)": "infinite",
						"owner()": "2552",
						"updateStock(uint256,uint256)": "infinite",
						"withdraw()": "infinite"
					}
				},
				"methodIdentifiers": {
					"buy(uint256)": "d96a094a",
					"getAllProduct()": "d055a75f",
					"getMyOrders()": "bab5933a",
					"getProduct(uint256)": "b9db15b4",
					"list(uint256,string,string,string,string,uint256,uint256,uint256)": "5143366f",
					"owner()": "8da5cb5b",
					"updateStock(uint256,uint256)": "9dfc3dd1",
					"withdraw()": "3ccfd60b"
				}
			},
			"storageLayout": {
				"storage": [
					{
						"astId": 3,
						"contract": "Dapp/ShopJR.sol:ShopJR",
						"label": "owner",
						"offset": 0,
						"slot": "0",
						"type": "t_address"
					},
					{
						"astId": 6,
						"contract": "Dapp/ShopJR.sol:ShopJR",
						"label": "productIds",
						"offset": 0,
						"slot": "1",
						"type": "t_array(t_uint256)dyn_storage"
					},
					{
						"astId": 34,
						"contract": "Dapp/ShopJR.sol:ShopJR",
						"label": "products",
						"offset": 0,
						"slot": "2",
						"type": "t_mapping(t_uint256,t_struct(Product)23_storage)"
					},
					{
						"astId": 41,
						"contract": "Dapp/ShopJR.sol:ShopJR",
						"label": "orders",
						"offset": 0,
						"slot": "3",
						"type": "t_mapping(t_address,t_mapping(t_uint256,t_struct(Order)29_storage))"
					},
					{
						"astId": 45,
						"contract": "Dapp/ShopJR.sol:ShopJR",
						"label": "orderCount",
						"offset": 0,
						"slot": "4",
						"type": "t_mapping(t_address,t_uint256)"
					}
				],
				"types": {
					"t_address": {
						"encoding": "inplace",
						"label": "address",
						"numberOfBytes": "20"
					},
					"t_array(t_uint256)dyn_storage": {
						"base": "t_uint256",
						"encoding": "dynamic_array",
						"label": "uint256[]",
						"numberOfBytes": "32"
					},
					"t_mapping(t_address,t_mapping(t_uint256,t_struct(Order)29_storage))": {
						"encoding": "mapping",
						"key": "t_address",
						"label": "mapping(address => mapping(uint256 => struct ShopJR.Order))",
						"numberOfBytes": "32",
						"value": "t_mapping(t_uint256,t_struct(Order)29_storage)"
					},
					"t_mapping(t_address,t_uint256)": {
						"encoding": "mapping",
						"key": "t_address",
						"label": "mapping(address => uint256)",
						"numberOfBytes": "32",
						"value": "t_uint256"
					},
					"t_mapping(t_uint256,t_struct(Order)29_storage)": {
						"encoding": "mapping",
						"key": "t_uint256",
						"label": "mapping(uint256 => struct ShopJR.Order)",
						"numberOfBytes": "32",
						"value": "t_struct(Order)29_storage"
					},
					"t_mapping(t_uint256,t_struct(Product)23_storage)": {
						"encoding": "mapping",
						"key": "t_uint256",
						"label": "mapping(uint256 => struct ShopJR.Product)",
						"numberOfBytes": "32",
						"value": "t_struct(Product)23_storage"
					},
					"t_string_storage": {
						"encoding": "bytes",
						"label": "string",
						"numberOfBytes": "32"
					},
					"t_struct(Order)29_storage": {
						"encoding": "inplace",
						"label": "struct ShopJR.Order",
						"members": [
							{
								"astId": 26,
								"contract": "Dapp/ShopJR.sol:ShopJR",
								"label": "product",
								"offset": 0,
								"slot": "0",
								"type": "t_struct(Product)23_storage"
							},
							{
								"astId": 28,
								"contract": "Dapp/ShopJR.sol:ShopJR",
								"label": "orderTime",
								"offset": 0,
								"slot": "8",
								"type": "t_uint256"
							}
						],
						"numberOfBytes": "288"
					},
					"t_struct(Product)23_storage": {
						"encoding": "inplace",
						"label": "struct ShopJR.Product",
						"members": [
							{
								"astId": 8,
								"contract": "Dapp/ShopJR.sol:ShopJR",
								"label": "id",
								"offset": 0,
								"slot": "0",
								"type": "t_uint256"
							},
							{
								"astId": 10,
								"contract": "Dapp/ShopJR.sol:ShopJR",
								"label": "name",
								"offset": 0,
								"slot": "1",
								"type": "t_string_storage"
							},
							{
								"astId": 12,
								"contract": "Dapp/ShopJR.sol:ShopJR",
								"label": "category",
								"offset": 0,
								"slot": "2",
								"type": "t_string_storage"
							},
							{
								"astId": 14,
								"contract": "Dapp/ShopJR.sol:ShopJR",
								"label": "description",
								"offset": 0,
								"slot": "3",
								"type": "t_string_storage"
							},
							{
								"astId": 16,
								"contract": "Dapp/ShopJR.sol:ShopJR",
								"label": "image",
								"offset": 0,
								"slot": "4",
								"type": "t_string_storage"
							},
							{
								"astId": 18,
								"contract": "Dapp/ShopJR.sol:ShopJR",
								"label": "price",
								"offset": 0,
								"slot": "5",
								"type": "t_uint256"
							},
							{
								"astId": 20,
								"contract": "Dapp/ShopJR.sol:ShopJR",
								"label": "review",
								"offset": 0,
								"slot": "6",
								"type": "t_uint256"
							},
							{
								"astId": 22,
								"contract": "Dapp/ShopJR.sol:ShopJR",
								"label": "stock",
								"offset": 0,
								"slot": "7",
								"type": "t_uint256"
							}
						],
						"numberOfBytes": "256"
					},
					"t_uint256": {
						"encoding": "inplace",
						"label": "uint256",
						"numberOfBytes": "32"
					}
				}
			},
			"userdoc": {
				"kind": "user",
				"methods": {},
				"version": 1
			}
		}
	}
}