{
	"Dapp/CrowdFundJR.sol": {
		"CrowdFundJR": {
			"abi": [
				{
					"anonymous": false,
					"inputs": [
						{
							"indexed": false,
							"internalType": "uint256",
							"name": "id",
							"type": "uint256"
						},
						{
							"indexed": false,
							"internalType": "address",
							"name": "creator",
							"type": "address"
						}
					],
					"name": "CampaignCreated",
					"type": "event"
				},
				{
					"anonymous": false,
					"inputs": [
						{
							"indexed": false,
							"internalType": "uint256",
							"name": "id",
							"type": "uint256"
						}
					],
					"name": "FundsClaimed",
					"type": "event"
				},
				{
					"anonymous": false,
					"inputs": [
						{
							"indexed": false,
							"internalType": "uint256",
							"name": "id",
							"type": "uint256"
						},
						{
							"indexed": false,
							"internalType": "address",
							"name": "contributor",
							"type": "address"
						},
						{
							"indexed": false,
							"internalType": "uint256",
							"name": "amount",
							"type": "uint256"
						}
					],
					"name": "Pledged",
					"type": "event"
				},
				{
					"anonymous": false,
					"inputs": [
						{
							"indexed": false,
							"internalType": "uint256",
							"name": "id",
							"type": "uint256"
						},
						{
							"indexed": false,
							"internalType": "address",
							"name": "contributor",
							"type": "address"
						},
						{
							"indexed": false,
							"internalType": "uint256",
							"name": "amount",
							"type": "uint256"
						}
					],
					"name": "Refunded",
					"type": "event"
				},
				{
					"anonymous": false,
					"inputs": [
						{
							"indexed": false,
							"internalType": "uint256",
							"name": "id",
							"type": "uint256"
						},
						{
							"indexed": false,
							"internalType": "address",
							"name": "contributor",
							"type": "address"
						},
						{
							"indexed": false,
							"internalType": "uint256",
							"name": "amount",
							"type": "uint256"
						}
					],
					"name": "Unpledged",
					"type": "event"
				},
				{
					"inputs": [
						{
							"internalType": "uint256",
							"name": "",
							"type": "uint256"
						}
					],
					"name": "Campaigns",
					"outputs": [
						{
							"internalType": "address",
							"name": "creator",
							"type": "address"
						},
						{
							"internalType": "string",
							"name": "title",
							"type": "string"
						},
						{
							"internalType": "string",
							"name": "description",
							"type": "string"
						},
						{
							"internalType": "uint256",
							"name": "goal",
							"type": "uint256"
						},
						{
							"internalType": "uint256",
							"name": "deadline",
							"type": "uint256"
						},
						{
							"internalType": "uint256",
							"name": "pledged",
							"type": "uint256"
						},
						{
							"internalType": "bool",
							"name": "claimed",
							"type": "bool"
						}
					],
					"stateMutability": "view",
					"type": "function"
				},
				{
					"inputs": [],
					"name": "campaignCount",
					"outputs": [
						{
							"internalType": "uint256",
							"name": "",
							"type": "uint256"
						}
					],
					"stateMutability": "view",
					"type": "function"
				},
				{
					"inputs": [
						{
							"internalType": "uint256",
							"name": "id",
							"type": "uint256"
						}
					],
					"name": "claimFunds",
					"outputs": [],
					"stateMutability": "nonpayable",
					"type": "function"
				},
				{
					"inputs": [
						{
							"internalType": "string",
							"name": "title",
							"type": "string"
						},
						{
							"internalType": "string",
							"name": "description",
							"type": "string"
						},
						{
							"internalType": "uint256",
							"name": "goal",
							"type": "uint256"
						},
						{
							"internalType": "uint256",
							"name": "duration",
							"type": "uint256"
						}
					],
					"name": "createCampaign",
					"outputs": [],
					"stateMutability": "nonpayable",
					"type": "function"
				},
				{
					"inputs": [
						{
							"internalType": "uint256",
							"name": "id",
							"type": "uint256"
						}
					],
					"name": "getCampaign",
					"outputs": [
						{
							"internalType": "address",
							"name": "creator",
							"type": "address"
						},
						{
							"internalType": "string",
							"name": "title",
							"type": "string"
						},
						{
							"internalType": "string",
							"name": "description",
							"type": "string"
						},
						{
							"internalType": "uint256",
							"name": "goal",
							"type": "uint256"
						},
						{
							"internalType": "uint256",
							"name": "deadline",
							"type": "uint256"
						},
						{
							"internalType": "uint256",
							"name": "pledged",
							"type": "uint256"
						},
						{
							"internalType": "bool",
							"name": "claimed",
							"type": "bool"
						}
					],
					"stateMutability": "view",
					"type": "function"
				},
				{
					"inputs": [
						{
							"internalType": "uint256",
							"name": "id",
							"type": "uint256"
						},
						{
							"internalType": "address",
							"name": "contributor",
							"type": "address"
						}
					],
					"name": "getContribution",
					"outputs": [
						{
							"internalType": "uint256",
							"name": "",
							"type": "uint256"
						}
					],
					"stateMutability": "view",
					"type": "function"
				},
				{
					"inputs": [
						{
							"internalType": "uint256",
							"name": "id",
							"type": "uint256"
						}
					],
					"name": "pledge",
					"outputs": [],
					"stateMutability": "payable",
					"type": "function"
				},
				{
					"inputs": [
						{
							"internalType": "uint256",
							"name": "id",
							"type": "uint256"
						}
					],
					"name": "refund",
					"outputs": [],
					"stateMutability": "nonpayable",
					"type": "function"
				},
				{
					"inputs": [
						{
							"internalType": "uint256",
							"name": "id",
							"type": "uint256"
						},
						{
							"internalType": "uint256",
							"name": "amount",
							"type": "uint256"
						}
					],
					"name": "unpledge",
					"outputs": [],
					"stateMutability": "nonpayable",
					"type": "function"
				}
			],
			"devdoc": {
				"kind": "dev",
				"methods": {},
				"version": 1
			},
			"evm": {
				"assembly": "    /* \"Dapp/CrowdFundJR.sol\":57:4541  contract CrowdFundJR {... */\n  mstore(0x40, 0x80)\n  callvalue\n  dup1\n  iszero\n  tag_1\n  jumpi\n  revert(0x00, 0x00)\ntag_1:\n  pop\n  dataSize(sub_0)\n  dup1\n  dataOffset(sub_0)\n  0x00\n  codecopy\n  0x00\n  return\nstop\n\nsub_0: assembly {\n        /* \"Dapp/CrowdFundJR.sol\":57:4541  contract CrowdFundJR {... */\n      mstore(0x40, 0x80)\n      jumpi(tag_1, lt(calldatasize, 0x04))\n      shr(0xe0, calldataload(0x00))\n      dup1\n      0x711853ab\n      gt\n      tag_11\n      jumpi\n      dup1\n      0x711853ab\n      eq\n      tag_6\n      jumpi\n      dup1\n      0x7274e30d\n      eq\n      tag_7\n      jumpi\n      dup1\n      0x7326c9c0\n      eq\n      tag_8\n      jumpi\n      dup1\n      0xa318f269\n      eq\n      tag_9\n      jumpi\n      dup1\n      0xe081dbf9\n      eq\n      tag_10\n      jumpi\n      jump(tag_1)\n    tag_11:\n      dup1\n      0x1b55e338\n      eq\n      tag_2\n      jumpi\n      dup1\n      0x278ecde1\n      eq\n      tag_3\n      jumpi\n      dup1\n      0x4013be10\n      eq\n      tag_4\n      jumpi\n      dup1\n      0x5598f8cc\n      eq\n      tag_5\n      jumpi\n    tag_1:\n      revert(0x00, 0x00)\n        /* \"Dapp/CrowdFundJR.sol\":2804:3255  function claimFunds(uint256 id)... */\n    tag_2:\n      callvalue\n      dup1\n      iszero\n      tag_12\n      jumpi\n      revert(0x00, 0x00)\n    tag_12:\n      pop\n      tag_13\n      0x04\n      dup1\n      calldatasize\n      sub\n      dup2\n      add\n      swap1\n      tag_14\n      swap2\n      swap1\n      tag_15\n      jump\t// in\n    tag_14:\n      tag_16\n      jump\t// in\n    tag_13:\n      stop\n        /* \"Dapp/CrowdFundJR.sol\":3261:3747  function refund(uint256 id) external campaignExist(id) afterDeadline(id) {... */\n    tag_3:\n      callvalue\n      dup1\n      iszero\n      tag_17\n      jumpi\n      revert(0x00, 0x00)\n    tag_17:\n      pop\n      tag_18\n      0x04\n      dup1\n      calldatasize\n      sub\n      dup2\n      add\n      swap1\n      tag_19\n      swap2\n      swap1\n      tag_15\n      jump\t// in\n    tag_19:\n      tag_20\n      jump\t// in\n    tag_18:\n      stop\n        /* \"Dapp/CrowdFundJR.sol\":368:413  mapping(uint256 => Campaign) public Campaigns */\n    tag_4:\n      callvalue\n      dup1\n      iszero\n      tag_21\n      jumpi\n      revert(0x00, 0x00)\n    tag_21:\n      pop\n      tag_22\n      0x04\n      dup1\n      calldatasize\n      sub\n      dup2\n      add\n      swap1\n      tag_23\n      swap2\n      swap1\n      tag_15\n      jump\t// in\n    tag_23:\n      tag_24\n      jump\t// in\n    tag_22:\n      mload(0x40)\n      tag_25\n      swap8\n      swap7\n      swap6\n      swap5\n      swap4\n      swap3\n      swap2\n      swap1\n      tag_26\n      jump\t// in\n    tag_25:\n      mload(0x40)\n      dup1\n      swap2\n      sub\n      swap1\n      return\n        /* \"Dapp/CrowdFundJR.sol\":3967:4539  function getCampaign(uint256 id)... */\n    tag_5:\n      callvalue\n      dup1\n      iszero\n      tag_27\n      jumpi\n      revert(0x00, 0x00)\n    tag_27:\n      pop\n      tag_28\n      0x04\n      dup1\n      calldatasize\n      sub\n      dup2\n      add\n      swap1\n      tag_29\n      swap2\n      swap1\n      tag_15\n      jump\t// in\n    tag_29:\n      tag_30\n      jump\t// in\n    tag_28:\n      mload(0x40)\n      tag_31\n      swap8\n      swap7\n      swap6\n      swap5\n      swap4\n      swap3\n      swap2\n      swap1\n      tag_26\n      jump\t// in\n    tag_31:\n      mload(0x40)\n      dup1\n      swap2\n      sub\n      swap1\n      return\n        /* \"Dapp/CrowdFundJR.sol\":2297:2798  function unpledge(uint256 id, uint256 amount)... */\n    tag_6:\n      callvalue\n      dup1\n      iszero\n      tag_32\n      jumpi\n      revert(0x00, 0x00)\n    tag_32:\n      pop\n      tag_33\n      0x04\n      dup1\n      calldatasize\n      sub\n      dup2\n      add\n      swap1\n      tag_34\n      swap2\n      swap1\n      tag_35\n      jump\t// in\n    tag_34:\n      tag_36\n      jump\t// in\n    tag_33:\n      stop\n        /* \"Dapp/CrowdFundJR.sol\":334:362  uint256 public campaignCount */\n    tag_7:\n      callvalue\n      dup1\n      iszero\n      tag_37\n      jumpi\n      revert(0x00, 0x00)\n    tag_37:\n      pop\n      tag_38\n      tag_39\n      jump\t// in\n    tag_38:\n      mload(0x40)\n      tag_40\n      swap2\n      swap1\n      tag_41\n      jump\t// in\n    tag_40:\n      mload(0x40)\n      dup1\n      swap2\n      sub\n      swap1\n      return\n        /* \"Dapp/CrowdFundJR.sol\":1909:2291  function pledge(uint256 id)... */\n    tag_8:\n      tag_42\n      0x04\n      dup1\n      calldatasize\n      sub\n      dup2\n      add\n      swap1\n      tag_43\n      swap2\n      swap1\n      tag_15\n      jump\t// in\n    tag_43:\n      tag_44\n      jump\t// in\n    tag_42:\n      stop\n        /* \"Dapp/CrowdFundJR.sol\":1298:1903  function createCampaign(... */\n    tag_9:\n      callvalue\n      dup1\n      iszero\n      tag_45\n      jumpi\n      revert(0x00, 0x00)\n    tag_45:\n      pop\n      tag_46\n      0x04\n      dup1\n      calldatasize\n      sub\n      dup2\n      add\n      swap1\n      tag_47\n      swap2\n      swap1\n      tag_48\n      jump\t// in\n    tag_47:\n      tag_49\n      jump\t// in\n    tag_46:\n      stop\n        /* \"Dapp/CrowdFundJR.sol\":3753:3961  function getContribution(uint256 id, address contributor)... */\n    tag_10:\n      callvalue\n      dup1\n      iszero\n      tag_50\n      jumpi\n      revert(0x00, 0x00)\n    tag_50:\n      pop\n      tag_51\n      0x04\n      dup1\n      calldatasize\n      sub\n      dup2\n      add\n      swap1\n      tag_52\n      swap2\n      swap1\n      tag_53\n      jump\t// in\n    tag_52:\n      tag_54\n      jump\t// in\n    tag_51:\n      mload(0x40)\n      tag_55\n      swap2\n      swap1\n      tag_41\n      jump\t// in\n    tag_55:\n      mload(0x40)\n      dup1\n      swap2\n      sub\n      swap1\n      return\n        /* \"Dapp/CrowdFundJR.sol\":2804:3255  function claimFunds(uint256 id)... */\n    tag_16:\n        /* \"Dapp/CrowdFundJR.sol\":2875:2877  id */\n      dup1\n        /* \"Dapp/CrowdFundJR.sol\":778:791  campaignCount */\n      sload(0x00)\n        /* \"Dapp/CrowdFundJR.sol\":773:775  id */\n      dup2\n        /* \"Dapp/CrowdFundJR.sol\":773:791  id < campaignCount */\n      lt\n        /* \"Dapp/CrowdFundJR.sol\":765:819  require(id < campaignCount, \"Campiagn does not exits\") */\n      tag_57\n      jumpi\n      mload(0x40)\n      0x08c379a000000000000000000000000000000000000000000000000000000000\n      dup2\n      mstore\n      0x04\n      add\n      tag_58\n      swap1\n      tag_59\n      jump\t// in\n    tag_58:\n      mload(0x40)\n      dup1\n      swap2\n      sub\n      swap1\n      revert\n    tag_57:\n        /* \"Dapp/CrowdFundJR.sol\":2899:2901  id */\n      dup2\n        /* \"Dapp/CrowdFundJR.sol\":908:917  Campaigns */\n      0x01\n        /* \"Dapp/CrowdFundJR.sol\":908:921  Campaigns[id] */\n      0x00\n        /* \"Dapp/CrowdFundJR.sol\":918:920  id */\n      dup3\n        /* \"Dapp/CrowdFundJR.sol\":908:921  Campaigns[id] */\n      dup2\n      mstore\n      0x20\n      add\n      swap1\n      dup2\n      mstore\n      0x20\n      add\n      0x00\n      keccak256\n        /* \"Dapp/CrowdFundJR.sol\":908:929  Campaigns[id].creator */\n      0x00\n      add\n      0x00\n      swap1\n      sload\n      swap1\n      0x0100\n      exp\n      swap1\n      div\n      0xffffffffffffffffffffffffffffffffffffffff\n      and\n        /* \"Dapp/CrowdFundJR.sol\":894:929  msg.sender == Campaigns[id].creator */\n      0xffffffffffffffffffffffffffffffffffffffff\n      and\n        /* \"Dapp/CrowdFundJR.sol\":894:904  msg.sender */\n      caller\n        /* \"Dapp/CrowdFundJR.sol\":894:929  msg.sender == Campaigns[id].creator */\n      0xffffffffffffffffffffffffffffffffffffffff\n      and\n      eq\n        /* \"Dapp/CrowdFundJR.sol\":886:954  require(msg.sender == Campaigns[id].creator, \"Not Campiagn creator\") */\n      tag_61\n      jumpi\n      mload(0x40)\n      0x08c379a000000000000000000000000000000000000000000000000000000000\n      dup2\n      mstore\n      0x04\n      add\n      tag_62\n      swap1\n      tag_63\n      jump\t// in\n    tag_62:\n      mload(0x40)\n      dup1\n      swap2\n      sub\n      swap1\n      revert\n    tag_61:\n        /* \"Dapp/CrowdFundJR.sol\":2925:2927  id */\n      dup3\n        /* \"Dapp/CrowdFundJR.sol\":1204:1213  Campaigns */\n      0x01\n        /* \"Dapp/CrowdFundJR.sol\":1204:1217  Campaigns[id] */\n      0x00\n        /* \"Dapp/CrowdFundJR.sol\":1214:1216  id */\n      dup3\n        /* \"Dapp/CrowdFundJR.sol\":1204:1217  Campaigns[id] */\n      dup2\n      mstore\n      0x20\n      add\n      swap1\n      dup2\n      mstore\n      0x20\n      add\n      0x00\n      keccak256\n        /* \"Dapp/CrowdFundJR.sol\":1204:1226  Campaigns[id].deadline */\n      0x04\n      add\n      sload\n        /* \"Dapp/CrowdFundJR.sol\":1185:1200  block.timestamp */\n      timestamp\n        /* \"Dapp/CrowdFundJR.sol\":1185:1226  block.timestamp >= Campaigns[id].deadline */\n      lt\n      iszero\n        /* \"Dapp/CrowdFundJR.sol\":1164:1274  require(... */\n      tag_65\n      jumpi\n      mload(0x40)\n      0x08c379a000000000000000000000000000000000000000000000000000000000\n      dup2\n      mstore\n      0x04\n      add\n      tag_66\n      swap1\n      tag_67\n      jump\t// in\n    tag_66:\n      mload(0x40)\n      dup1\n      swap2\n      sub\n      swap1\n      revert\n    tag_65:\n        /* \"Dapp/CrowdFundJR.sol\":2943:2968  Campaign storage campaign */\n      0x00\n        /* \"Dapp/CrowdFundJR.sol\":2971:2980  Campaigns */\n      0x01\n        /* \"Dapp/CrowdFundJR.sol\":2971:2984  Campaigns[id] */\n      0x00\n        /* \"Dapp/CrowdFundJR.sol\":2981:2983  id */\n      dup7\n        /* \"Dapp/CrowdFundJR.sol\":2971:2984  Campaigns[id] */\n      dup2\n      mstore\n      0x20\n      add\n      swap1\n      dup2\n      mstore\n      0x20\n      add\n      0x00\n      keccak256\n        /* \"Dapp/CrowdFundJR.sol\":2943:2984  Campaign storage campaign = Campaigns[id] */\n      swap1\n      pop\n        /* \"Dapp/CrowdFundJR.sol\":3021:3029  campaign */\n      dup1\n        /* \"Dapp/CrowdFundJR.sol\":3021:3034  campaign.goal */\n      0x03\n      add\n      sload\n        /* \"Dapp/CrowdFundJR.sol\":3002:3010  campaign */\n      dup2\n        /* \"Dapp/CrowdFundJR.sol\":3002:3018  campaign.pledged */\n      0x05\n      add\n      sload\n        /* \"Dapp/CrowdFundJR.sol\":3002:3034  campaign.pledged > campaign.goal */\n      gt\n        /* \"Dapp/CrowdFundJR.sol\":2994:3059  require(campaign.pledged > campaign.goal, \"Funding goal not yet\") */\n      tag_69\n      jumpi\n      mload(0x40)\n      0x08c379a000000000000000000000000000000000000000000000000000000000\n      dup2\n      mstore\n      0x04\n      add\n      tag_70\n      swap1\n      tag_71\n      jump\t// in\n    tag_70:\n      mload(0x40)\n      dup1\n      swap2\n      sub\n      swap1\n      revert\n    tag_69:\n        /* \"Dapp/CrowdFundJR.sol\":3078:3086  campaign */\n      dup1\n        /* \"Dapp/CrowdFundJR.sol\":3078:3094  campaign.claimed */\n      0x06\n      add\n      0x00\n      swap1\n      sload\n      swap1\n      0x0100\n      exp\n      swap1\n      div\n      0xff\n      and\n        /* \"Dapp/CrowdFundJR.sol\":3077:3094  !campaign.claimed */\n      iszero\n        /* \"Dapp/CrowdFundJR.sol\":3069:3120  require(!campaign.claimed, \"Funds already claimed\") */\n      tag_72\n      jumpi\n      mload(0x40)\n      0x08c379a000000000000000000000000000000000000000000000000000000000\n      dup2\n      mstore\n      0x04\n      add\n      tag_73\n      swap1\n      tag_74\n      jump\t// in\n    tag_73:\n      mload(0x40)\n      dup1\n      swap2\n      sub\n      swap1\n      revert\n    tag_72:\n        /* \"Dapp/CrowdFundJR.sol\":3150:3154  true */\n      0x01\n        /* \"Dapp/CrowdFundJR.sol\":3131:3139  campaign */\n      dup2\n        /* \"Dapp/CrowdFundJR.sol\":3131:3147  campaign.claimed */\n      0x06\n      add\n      0x00\n        /* \"Dapp/CrowdFundJR.sol\":3131:3154  campaign.claimed = true */\n      0x0100\n      exp\n      dup2\n      sload\n      dup2\n      0xff\n      mul\n      not\n      and\n      swap1\n      dup4\n      iszero\n      iszero\n      mul\n      or\n      swap1\n      sstore\n      pop\n        /* \"Dapp/CrowdFundJR.sol\":3172:3180  campaign */\n      dup1\n        /* \"Dapp/CrowdFundJR.sol\":3172:3188  campaign.creator */\n      0x00\n      add\n      0x00\n      swap1\n      sload\n      swap1\n      0x0100\n      exp\n      swap1\n      div\n      0xffffffffffffffffffffffffffffffffffffffff\n      and\n        /* \"Dapp/CrowdFundJR.sol\":3164:3198  payable(campaign.creator).transfer */\n      0xffffffffffffffffffffffffffffffffffffffff\n      and\n        /* \"Dapp/CrowdFundJR.sol\":3164:3216  payable(campaign.creator).transfer(campaign.pledged) */\n      0x08fc\n        /* \"Dapp/CrowdFundJR.sol\":3199:3207  campaign */\n      dup3\n        /* \"Dapp/CrowdFundJR.sol\":3199:3215  campaign.pledged */\n      0x05\n      add\n      sload\n        /* \"Dapp/CrowdFundJR.sol\":3164:3216  payable(campaign.creator).transfer(campaign.pledged) */\n      swap1\n      dup2\n      iszero\n      mul\n      swap1\n      mload(0x40)\n      0x00\n      mload(0x40)\n      dup1\n      dup4\n      sub\n      dup2\n      dup6\n      dup9\n      dup9\n      call\n      swap4\n      pop\n      pop\n      pop\n      pop\n      iszero\n      dup1\n      iszero\n      tag_76\n      jumpi\n      returndatacopy(0x00, 0x00, returndatasize)\n      revert(0x00, returndatasize)\n    tag_76:\n      pop\n        /* \"Dapp/CrowdFundJR.sol\":3232:3248  FundsClaimed(id) */\n      0xfad629533a8eaded67c8b7f9fc7184a01ce682c999676eb2bacbe99800bd6729\n        /* \"Dapp/CrowdFundJR.sol\":3245:3247  id */\n      dup6\n        /* \"Dapp/CrowdFundJR.sol\":3232:3248  FundsClaimed(id) */\n      mload(0x40)\n      tag_77\n      swap2\n      swap1\n      tag_41\n      jump\t// in\n    tag_77:\n      mload(0x40)\n      dup1\n      swap2\n      sub\n      swap1\n      log1\n        /* \"Dapp/CrowdFundJR.sol\":2933:3255  {... */\n      pop\n        /* \"Dapp/CrowdFundJR.sol\":964:965  _ */\n      pop\n        /* \"Dapp/CrowdFundJR.sol\":829:830  _ */\n      pop\n        /* \"Dapp/CrowdFundJR.sol\":2804:3255  function claimFunds(uint256 id)... */\n      pop\n      pop\n      jump\t// out\n        /* \"Dapp/CrowdFundJR.sol\":3261:3747  function refund(uint256 id) external campaignExist(id) afterDeadline(id) {... */\n    tag_20:\n        /* \"Dapp/CrowdFundJR.sol\":3312:3314  id */\n      dup1\n        /* \"Dapp/CrowdFundJR.sol\":778:791  campaignCount */\n      sload(0x00)\n        /* \"Dapp/CrowdFundJR.sol\":773:775  id */\n      dup2\n        /* \"Dapp/CrowdFundJR.sol\":773:791  id < campaignCount */\n      lt\n        /* \"Dapp/CrowdFundJR.sol\":765:819  require(id < campaignCount, \"Campiagn does not exits\") */\n      tag_79\n      jumpi\n      mload(0x40)\n      0x08c379a000000000000000000000000000000000000000000000000000000000\n      dup2\n      mstore\n      0x04\n      add\n      tag_80\n      swap1\n      tag_59\n      jump\t// in\n    tag_80:\n      mload(0x40)\n      dup1\n      swap2\n      sub\n      swap1\n      revert\n    tag_79:\n        /* \"Dapp/CrowdFundJR.sol\":3330:3332  id */\n      dup2\n        /* \"Dapp/CrowdFundJR.sol\":1204:1213  Campaigns */\n      0x01\n        /* \"Dapp/CrowdFundJR.sol\":1204:1217  Campaigns[id] */\n      0x00\n        /* \"Dapp/CrowdFundJR.sol\":1214:1216  id */\n      dup3\n        /* \"Dapp/CrowdFundJR.sol\":1204:1217  Campaigns[id] */\n      dup2\n      mstore\n      0x20\n      add\n      swap1\n      dup2\n      mstore\n      0x20\n      add\n      0x00\n      keccak256\n        /* \"Dapp/CrowdFundJR.sol\":1204:1226  Campaigns[id].deadline */\n      0x04\n      add\n      sload\n        /* \"Dapp/CrowdFundJR.sol\":1185:1200  block.timestamp */\n      timestamp\n        /* \"Dapp/CrowdFundJR.sol\":1185:1226  block.timestamp >= Campaigns[id].deadline */\n      lt\n      iszero\n        /* \"Dapp/CrowdFundJR.sol\":1164:1274  require(... */\n      tag_82\n      jumpi\n      mload(0x40)\n      0x08c379a000000000000000000000000000000000000000000000000000000000\n      dup2\n      mstore\n      0x04\n      add\n      tag_83\n      swap1\n      tag_67\n      jump\t// in\n    tag_83:\n      mload(0x40)\n      dup1\n      swap2\n      sub\n      swap1\n      revert\n    tag_82:\n        /* \"Dapp/CrowdFundJR.sol\":3344:3369  Campaign storage campaign */\n      0x00\n        /* \"Dapp/CrowdFundJR.sol\":3372:3381  Campaigns */\n      0x01\n        /* \"Dapp/CrowdFundJR.sol\":3372:3385  Campaigns[id] */\n      0x00\n        /* \"Dapp/CrowdFundJR.sol\":3382:3384  id */\n      dup6\n        /* \"Dapp/CrowdFundJR.sol\":3372:3385  Campaigns[id] */\n      dup2\n      mstore\n      0x20\n      add\n      swap1\n      dup2\n      mstore\n      0x20\n      add\n      0x00\n      keccak256\n        /* \"Dapp/CrowdFundJR.sol\":3344:3385  Campaign storage campaign = Campaigns[id] */\n      swap1\n      pop\n        /* \"Dapp/CrowdFundJR.sol\":3422:3430  campaign */\n      dup1\n        /* \"Dapp/CrowdFundJR.sol\":3422:3435  campaign.goal */\n      0x03\n      add\n      sload\n        /* \"Dapp/CrowdFundJR.sol\":3403:3411  campaign */\n      dup2\n        /* \"Dapp/CrowdFundJR.sol\":3403:3419  campaign.pledged */\n      0x05\n      add\n      sload\n        /* \"Dapp/CrowdFundJR.sol\":3403:3435  campaign.pledged < campaign.goal */\n      lt\n        /* \"Dapp/CrowdFundJR.sol\":3395:3460  require(campaign.pledged < campaign.goal, \"Funding goal was met\") */\n      tag_85\n      jumpi\n      mload(0x40)\n      0x08c379a000000000000000000000000000000000000000000000000000000000\n      dup2\n      mstore\n      0x04\n      add\n      tag_86\n      swap1\n      tag_87\n      jump\t// in\n    tag_86:\n      mload(0x40)\n      dup1\n      swap2\n      sub\n      swap1\n      revert\n    tag_85:\n        /* \"Dapp/CrowdFundJR.sol\":3470:3489  uint256 contributed */\n      0x00\n        /* \"Dapp/CrowdFundJR.sol\":3492:3500  campaign */\n      dup2\n        /* \"Dapp/CrowdFundJR.sol\":3492:3514  campaign.contributions */\n      0x07\n      add\n        /* \"Dapp/CrowdFundJR.sol\":3492:3526  campaign.contributions[msg.sender] */\n      0x00\n        /* \"Dapp/CrowdFundJR.sol\":3515:3525  msg.sender */\n      caller\n        /* \"Dapp/CrowdFundJR.sol\":3492:3526  campaign.contributions[msg.sender] */\n      0xffffffffffffffffffffffffffffffffffffffff\n      and\n      0xffffffffffffffffffffffffffffffffffffffff\n      and\n      dup2\n      mstore\n      0x20\n      add\n      swap1\n      dup2\n      mstore\n      0x20\n      add\n      0x00\n      keccak256\n      sload\n        /* \"Dapp/CrowdFundJR.sol\":3470:3526  uint256 contributed = campaign.contributions[msg.sender] */\n      swap1\n      pop\n        /* \"Dapp/CrowdFundJR.sol\":3558:3559  0 */\n      0x00\n        /* \"Dapp/CrowdFundJR.sol\":3544:3555  contributed */\n      dup2\n        /* \"Dapp/CrowdFundJR.sol\":3544:3559  contributed > 0 */\n      gt\n        /* \"Dapp/CrowdFundJR.sol\":3536:3589  require(contributed > 0, \"No contribution to refund\") */\n      tag_88\n      jumpi\n      mload(0x40)\n      0x08c379a000000000000000000000000000000000000000000000000000000000\n      dup2\n      mstore\n      0x04\n      add\n      tag_89\n      swap1\n      tag_90\n      jump\t// in\n    tag_89:\n      mload(0x40)\n      dup1\n      swap2\n      sub\n      swap1\n      revert\n    tag_88:\n        /* \"Dapp/CrowdFundJR.sol\":3636:3637  0 */\n      0x00\n        /* \"Dapp/CrowdFundJR.sol\":3599:3607  campaign */\n      dup3\n        /* \"Dapp/CrowdFundJR.sol\":3599:3621  campaign.contributions */\n      0x07\n      add\n        /* \"Dapp/CrowdFundJR.sol\":3599:3633  campaign.contributions[msg.sender] */\n      0x00\n        /* \"Dapp/CrowdFundJR.sol\":3622:3632  msg.sender */\n      caller\n        /* \"Dapp/CrowdFundJR.sol\":3599:3633  campaign.contributions[msg.sender] */\n      0xffffffffffffffffffffffffffffffffffffffff\n      and\n      0xffffffffffffffffffffffffffffffffffffffff\n      and\n      dup2\n      mstore\n      0x20\n      add\n      swap1\n      dup2\n      mstore\n      0x20\n      add\n      0x00\n      keccak256\n        /* \"Dapp/CrowdFundJR.sol\":3599:3637  campaign.contributions[msg.sender] = 0 */\n      dup2\n      swap1\n      sstore\n      pop\n        /* \"Dapp/CrowdFundJR.sol\":3655:3665  msg.sender */\n      caller\n        /* \"Dapp/CrowdFundJR.sol\":3647:3675  payable(msg.sender).transfer */\n      0xffffffffffffffffffffffffffffffffffffffff\n      and\n        /* \"Dapp/CrowdFundJR.sol\":3647:3688  payable(msg.sender).transfer(contributed) */\n      0x08fc\n        /* \"Dapp/CrowdFundJR.sol\":3676:3687  contributed */\n      dup3\n        /* \"Dapp/CrowdFundJR.sol\":3647:3688  payable(msg.sender).transfer(contributed) */\n      swap1\n      dup2\n      iszero\n      mul\n      swap1\n      mload(0x40)\n      0x00\n      mload(0x40)\n      dup1\n      dup4\n      sub\n      dup2\n      dup6\n      dup9\n      dup9\n      call\n      swap4\n      pop\n      pop\n      pop\n      pop\n      iszero\n      dup1\n      iszero\n      tag_92\n      jumpi\n      returndatacopy(0x00, 0x00, returndatasize)\n      revert(0x00, returndatasize)\n    tag_92:\n      pop\n        /* \"Dapp/CrowdFundJR.sol\":3703:3740  Refunded(id, msg.sender, contributed) */\n      0x7ca5472b7ea78c2c0141c5a12ee6d170cf4ce8ed06be3d22c8252ddfc7a6a2c4\n        /* \"Dapp/CrowdFundJR.sol\":3712:3714  id */\n      dup6\n        /* \"Dapp/CrowdFundJR.sol\":3716:3726  msg.sender */\n      caller\n        /* \"Dapp/CrowdFundJR.sol\":3728:3739  contributed */\n      dup4\n        /* \"Dapp/CrowdFundJR.sol\":3703:3740  Refunded(id, msg.sender, contributed) */\n      mload(0x40)\n      tag_93\n      swap4\n      swap3\n      swap2\n      swap1\n      tag_94\n      jump\t// in\n    tag_93:\n      mload(0x40)\n      dup1\n      swap2\n      sub\n      swap1\n      log1\n        /* \"Dapp/CrowdFundJR.sol\":3334:3747  {... */\n      pop\n      pop\n        /* \"Dapp/CrowdFundJR.sol\":829:830  _ */\n      pop\n        /* \"Dapp/CrowdFundJR.sol\":3261:3747  function refund(uint256 id) external campaignExist(id) afterDeadline(id) {... */\n      pop\n      pop\n      jump\t// out\n        /* \"Dapp/CrowdFundJR.sol\":368:413  mapping(uint256 => Campaign) public Campaigns */\n    tag_24:\n      mstore(0x20, 0x01)\n      dup1\n      0x00\n      mstore\n      keccak256(0x00, 0x40)\n      0x00\n      swap2\n      pop\n      swap1\n      pop\n      dup1\n      0x00\n      add\n      0x00\n      swap1\n      sload\n      swap1\n      0x0100\n      exp\n      swap1\n      div\n      0xffffffffffffffffffffffffffffffffffffffff\n      and\n      swap1\n      dup1\n      0x01\n      add\n      dup1\n      sload\n      tag_95\n      swap1\n      tag_96\n      jump\t// in\n    tag_95:\n      dup1\n      0x1f\n      add\n      0x20\n      dup1\n      swap2\n      div\n      mul\n      0x20\n      add\n      mload(0x40)\n      swap1\n      dup2\n      add\n      0x40\n      mstore\n      dup1\n      swap3\n      swap2\n      swap1\n      dup2\n      dup2\n      mstore\n      0x20\n      add\n      dup3\n      dup1\n      sload\n      tag_97\n      swap1\n      tag_96\n      jump\t// in\n    tag_97:\n      dup1\n      iszero\n      tag_98\n      jumpi\n      dup1\n      0x1f\n      lt\n      tag_99\n      jumpi\n      0x0100\n      dup1\n      dup4\n      sload\n      div\n      mul\n      dup4\n      mstore\n      swap2\n      0x20\n      add\n      swap2\n      jump(tag_98)\n    tag_99:\n      dup3\n      add\n      swap2\n      swap1\n      0x00\n      mstore\n      keccak256(0x00, 0x20)\n      swap1\n    tag_100:\n      dup2\n      sload\n      dup2\n      mstore\n      swap1\n      0x01\n      add\n      swap1\n      0x20\n      add\n      dup1\n      dup4\n      gt\n      tag_100\n      jumpi\n      dup3\n      swap1\n      sub\n      0x1f\n      and\n      dup3\n      add\n      swap2\n    tag_98:\n      pop\n      pop\n      pop\n      pop\n      pop\n      swap1\n      dup1\n      0x02\n      add\n      dup1\n      sload\n      tag_101\n      swap1\n      tag_96\n      jump\t// in\n    tag_101:\n      dup1\n      0x1f\n      add\n      0x20\n      dup1\n      swap2\n      div\n      mul\n      0x20\n      add\n      mload(0x40)\n      swap1\n      dup2\n      add\n      0x40\n      mstore\n      dup1\n      swap3\n      swap2\n      swap1\n      dup2\n      dup2\n      mstore\n      0x20\n      add\n      dup3\n      dup1\n      sload\n      tag_102\n      swap1\n      tag_96\n      jump\t// in\n    tag_102:\n      dup1\n      iszero\n      tag_103\n      jumpi\n      dup1\n      0x1f\n      lt\n      tag_104\n      jumpi\n      0x0100\n      dup1\n      dup4\n      sload\n      div\n      mul\n      dup4\n      mstore\n      swap2\n      0x20\n      add\n      swap2\n      jump(tag_103)\n    tag_104:\n      dup3\n      add\n      swap2\n      swap1\n      0x00\n      mstore\n      keccak256(0x00, 0x20)\n      swap1\n    tag_105:\n      dup2\n      sload\n      dup2\n      mstore\n      swap1\n      0x01\n      add\n      swap1\n      0x20\n      add\n      dup1\n      dup4\n      gt\n      tag_105\n      jumpi\n      dup3\n      swap1\n      sub\n      0x1f\n      and\n      dup3\n      add\n      swap2\n    tag_103:\n      pop\n      pop\n      pop\n      pop\n      pop\n      swap1\n      dup1\n      0x03\n      add\n      sload\n      swap1\n      dup1\n      0x04\n      add\n      sload\n      swap1\n      dup1\n      0x05\n      add\n      sload\n      swap1\n      dup1\n      0x06\n      add\n      0x00\n      swap1\n      sload\n      swap1\n      0x0100\n      exp\n      swap1\n      div\n      0xff\n      and\n      swap1\n      pop\n      dup8\n      jump\t// out\n        /* \"Dapp/CrowdFundJR.sol\":3967:4539  function getCampaign(uint256 id)... */\n    tag_30:\n        /* \"Dapp/CrowdFundJR.sol\":4086:4101  address creator */\n      0x00\n        /* \"Dapp/CrowdFundJR.sol\":4115:4134  string memory title */\n      0x60\n        /* \"Dapp/CrowdFundJR.sol\":4148:4173  string memory description */\n      dup1\n        /* \"Dapp/CrowdFundJR.sol\":4187:4199  uint256 goal */\n      0x00\n        /* \"Dapp/CrowdFundJR.sol\":4213:4229  uint256 deadline */\n      0x00\n        /* \"Dapp/CrowdFundJR.sol\":4243:4258  uint256 pledged */\n      0x00\n        /* \"Dapp/CrowdFundJR.sol\":4272:4284  bool claimed */\n      0x00\n        /* \"Dapp/CrowdFundJR.sol\":4052:4054  id */\n      dup8\n        /* \"Dapp/CrowdFundJR.sol\":778:791  campaignCount */\n      sload(0x00)\n        /* \"Dapp/CrowdFundJR.sol\":773:775  id */\n      dup2\n        /* \"Dapp/CrowdFundJR.sol\":773:791  id < campaignCount */\n      lt\n        /* \"Dapp/CrowdFundJR.sol\":765:819  require(id < campaignCount, \"Campiagn does not exits\") */\n      tag_107\n      jumpi\n      mload(0x40)\n      0x08c379a000000000000000000000000000000000000000000000000000000000\n      dup2\n      mstore\n      0x04\n      add\n      tag_108\n      swap1\n      tag_59\n      jump\t// in\n    tag_108:\n      mload(0x40)\n      dup1\n      swap2\n      sub\n      swap1\n      revert\n    tag_107:\n        /* \"Dapp/CrowdFundJR.sol\":4309:4327  Campaign storage c */\n      0x00\n        /* \"Dapp/CrowdFundJR.sol\":4330:4339  Campaigns */\n      0x01\n        /* \"Dapp/CrowdFundJR.sol\":4330:4343  Campaigns[id] */\n      0x00\n        /* \"Dapp/CrowdFundJR.sol\":4340:4342  id */\n      dup12\n        /* \"Dapp/CrowdFundJR.sol\":4330:4343  Campaigns[id] */\n      dup2\n      mstore\n      0x20\n      add\n      swap1\n      dup2\n      mstore\n      0x20\n      add\n      0x00\n      keccak256\n        /* \"Dapp/CrowdFundJR.sol\":4309:4343  Campaign storage c = Campaigns[id] */\n      swap1\n      pop\n        /* \"Dapp/CrowdFundJR.sol\":4375:4376  c */\n      dup1\n        /* \"Dapp/CrowdFundJR.sol\":4375:4384  c.creator */\n      0x00\n      add\n      0x00\n      swap1\n      sload\n      swap1\n      0x0100\n      exp\n      swap1\n      div\n      0xffffffffffffffffffffffffffffffffffffffff\n      and\n        /* \"Dapp/CrowdFundJR.sol\":4398:4399  c */\n      dup2\n        /* \"Dapp/CrowdFundJR.sol\":4398:4405  c.title */\n      0x01\n      add\n        /* \"Dapp/CrowdFundJR.sol\":4419:4420  c */\n      dup3\n        /* \"Dapp/CrowdFundJR.sol\":4419:4432  c.description */\n      0x02\n      add\n        /* \"Dapp/CrowdFundJR.sol\":4446:4447  c */\n      dup4\n        /* \"Dapp/CrowdFundJR.sol\":4446:4452  c.goal */\n      0x03\n      add\n      sload\n        /* \"Dapp/CrowdFundJR.sol\":4466:4467  c */\n      dup5\n        /* \"Dapp/CrowdFundJR.sol\":4466:4476  c.deadline */\n      0x04\n      add\n      sload\n        /* \"Dapp/CrowdFundJR.sol\":4490:4491  c */\n      dup6\n        /* \"Dapp/CrowdFundJR.sol\":4490:4499  c.pledged */\n      0x05\n      add\n      sload\n        /* \"Dapp/CrowdFundJR.sol\":4513:4514  c */\n      dup7\n        /* \"Dapp/CrowdFundJR.sol\":4513:4522  c.claimed */\n      0x06\n      add\n      0x00\n      swap1\n      sload\n      swap1\n      0x0100\n      exp\n      swap1\n      div\n      0xff\n      and\n        /* \"Dapp/CrowdFundJR.sol\":4354:4532  return (... */\n      dup6\n      dup1\n      sload\n      tag_110\n      swap1\n      tag_96\n      jump\t// in\n    tag_110:\n      dup1\n      0x1f\n      add\n      0x20\n      dup1\n      swap2\n      div\n      mul\n      0x20\n      add\n      mload(0x40)\n      swap1\n      dup2\n      add\n      0x40\n      mstore\n      dup1\n      swap3\n      swap2\n      swap1\n      dup2\n      dup2\n      mstore\n      0x20\n      add\n      dup3\n      dup1\n      sload\n      tag_111\n      swap1\n      tag_96\n      jump\t// in\n    tag_111:\n      dup1\n      iszero\n      tag_112\n      jumpi\n      dup1\n      0x1f\n      lt\n      tag_113\n      jumpi\n      0x0100\n      dup1\n      dup4\n      sload\n      div\n      mul\n      dup4\n      mstore\n      swap2\n      0x20\n      add\n      swap2\n      jump(tag_112)\n    tag_113:\n      dup3\n      add\n      swap2\n      swap1\n      0x00\n      mstore\n      keccak256(0x00, 0x20)\n      swap1\n    tag_114:\n      dup2\n      sload\n      dup2\n      mstore\n      swap1\n      0x01\n      add\n      swap1\n      0x20\n      add\n      dup1\n      dup4\n      gt\n      tag_114\n      jumpi\n      dup3\n      swap1\n      sub\n      0x1f\n      and\n      dup3\n      add\n      swap2\n    tag_112:\n      pop\n      pop\n      pop\n      pop\n      pop\n      swap6\n      pop\n      dup5\n      dup1\n      sload\n      tag_115\n      swap1\n      tag_96\n      jump\t// in\n    tag_115:\n      dup1\n      0x1f\n      add\n      0x20\n      dup1\n      swap2\n      div\n      mul\n      0x20\n      add\n      mload(0x40)\n      swap1\n      dup2\n      add\n      0x40\n      mstore\n      dup1\n      swap3\n      swap2\n      swap1\n      dup2\n      dup2\n      mstore\n      0x20\n      add\n      dup3\n      dup1\n      sload\n      tag_116\n      swap1\n      tag_96\n      jump\t// in\n    tag_116:\n      dup1\n      iszero\n      tag_117\n      jumpi\n      dup1\n      0x1f\n      lt\n      tag_118\n      jumpi\n      0x0100\n      dup1\n      dup4\n      sload\n      div\n      mul\n      dup4\n      mstore\n      swap2\n      0x20\n      add\n      swap2\n      jump(tag_117)\n    tag_118:\n      dup3\n      add\n      swap2\n      swap1\n      0x00\n      mstore\n      keccak256(0x00, 0x20)\n      swap1\n    tag_119:\n      dup2\n      sload\n      dup2\n      mstore\n      swap1\n      0x01\n      add\n      swap1\n      0x20\n      add\n      dup1\n      dup4\n      gt\n      tag_119\n      jumpi\n      dup3\n      swap1\n      sub\n      0x1f\n      and\n      dup3\n      add\n      swap2\n    tag_117:\n      pop\n      pop\n      pop\n      pop\n      pop\n      swap5\n      pop\n      swap9\n      pop\n      swap9\n      pop\n      swap9\n      pop\n      swap9\n      pop\n      swap9\n      pop\n      swap9\n      pop\n      swap9\n      pop\n      pop\n        /* \"Dapp/CrowdFundJR.sol\":3967:4539  function getCampaign(uint256 id)... */\n      pop\n      swap2\n      swap4\n      swap6\n      swap8\n      swap1\n      swap3\n      swap5\n      swap7\n      pop\n      jump\t// out\n        /* \"Dapp/CrowdFundJR.sol\":2297:2798  function unpledge(uint256 id, uint256 amount)... */\n    tag_36:\n        /* \"Dapp/CrowdFundJR.sol\":2382:2384  id */\n      dup2\n        /* \"Dapp/CrowdFundJR.sol\":778:791  campaignCount */\n      sload(0x00)\n        /* \"Dapp/CrowdFundJR.sol\":773:775  id */\n      dup2\n        /* \"Dapp/CrowdFundJR.sol\":773:791  id < campaignCount */\n      lt\n        /* \"Dapp/CrowdFundJR.sol\":765:819  require(id < campaignCount, \"Campiagn does not exits\") */\n      tag_121\n      jumpi\n      mload(0x40)\n      0x08c379a000000000000000000000000000000000000000000000000000000000\n      dup2\n      mstore\n      0x04\n      add\n      tag_122\n      swap1\n      tag_59\n      jump\t// in\n    tag_122:\n      mload(0x40)\n      dup1\n      swap2\n      sub\n      swap1\n      revert\n    tag_121:\n        /* \"Dapp/CrowdFundJR.sol\":2409:2411  id */\n      dup3\n        /* \"Dapp/CrowdFundJR.sol\":1050:1059  Campaigns */\n      0x01\n        /* \"Dapp/CrowdFundJR.sol\":1050:1063  Campaigns[id] */\n      0x00\n        /* \"Dapp/CrowdFundJR.sol\":1060:1062  id */\n      dup3\n        /* \"Dapp/CrowdFundJR.sol\":1050:1063  Campaigns[id] */\n      dup2\n      mstore\n      0x20\n      add\n      swap1\n      dup2\n      mstore\n      0x20\n      add\n      0x00\n      keccak256\n        /* \"Dapp/CrowdFundJR.sol\":1050:1072  Campaigns[id].deadline */\n      0x04\n      add\n      sload\n        /* \"Dapp/CrowdFundJR.sol\":1032:1047  block.timestamp */\n      timestamp\n        /* \"Dapp/CrowdFundJR.sol\":1032:1072  block.timestamp < Campaigns[id].deadline */\n      lt\n        /* \"Dapp/CrowdFundJR.sol\":1024:1095  require(block.timestamp < Campaigns[id].deadline, \"Campaign has ended\") */\n      tag_124\n      jumpi\n      mload(0x40)\n      0x08c379a000000000000000000000000000000000000000000000000000000000\n      dup2\n      mstore\n      0x04\n      add\n      tag_125\n      swap1\n      tag_126\n      jump\t// in\n    tag_125:\n      mload(0x40)\n      dup1\n      swap2\n      sub\n      swap1\n      revert\n    tag_124:\n        /* \"Dapp/CrowdFundJR.sol\":2427:2452  Campaign storage campaign */\n      0x00\n        /* \"Dapp/CrowdFundJR.sol\":2455:2464  Campaigns */\n      0x01\n        /* \"Dapp/CrowdFundJR.sol\":2455:2468  Campaigns[id] */\n      0x00\n        /* \"Dapp/CrowdFundJR.sol\":2465:2467  id */\n      dup7\n        /* \"Dapp/CrowdFundJR.sol\":2455:2468  Campaigns[id] */\n      dup2\n      mstore\n      0x20\n      add\n      swap1\n      dup2\n      mstore\n      0x20\n      add\n      0x00\n      keccak256\n        /* \"Dapp/CrowdFundJR.sol\":2427:2468  Campaign storage campaign = Campaigns[id] */\n      swap1\n      pop\n        /* \"Dapp/CrowdFundJR.sol\":2478:2497  uint256 contributed */\n      0x00\n        /* \"Dapp/CrowdFundJR.sol\":2500:2508  campaign */\n      dup2\n        /* \"Dapp/CrowdFundJR.sol\":2500:2522  campaign.contributions */\n      0x07\n      add\n        /* \"Dapp/CrowdFundJR.sol\":2500:2534  campaign.contributions[msg.sender] */\n      0x00\n        /* \"Dapp/CrowdFundJR.sol\":2523:2533  msg.sender */\n      caller\n        /* \"Dapp/CrowdFundJR.sol\":2500:2534  campaign.contributions[msg.sender] */\n      0xffffffffffffffffffffffffffffffffffffffff\n      and\n      0xffffffffffffffffffffffffffffffffffffffff\n      and\n      dup2\n      mstore\n      0x20\n      add\n      swap1\n      dup2\n      mstore\n      0x20\n      add\n      0x00\n      keccak256\n      sload\n        /* \"Dapp/CrowdFundJR.sol\":2478:2534  uint256 contributed = campaign.contributions[msg.sender] */\n      swap1\n      pop\n        /* \"Dapp/CrowdFundJR.sol\":2561:2562  0 */\n      0x00\n        /* \"Dapp/CrowdFundJR.sol\":2552:2558  amount */\n      dup6\n        /* \"Dapp/CrowdFundJR.sol\":2552:2562  amount > 0 */\n      gt\n        /* \"Dapp/CrowdFundJR.sol\":2552:2587  amount > 0 && contributed >= amount */\n      dup1\n      iszero\n      tag_128\n      jumpi\n      pop\n        /* \"Dapp/CrowdFundJR.sol\":2581:2587  amount */\n      dup5\n        /* \"Dapp/CrowdFundJR.sol\":2566:2577  contributed */\n      dup2\n        /* \"Dapp/CrowdFundJR.sol\":2566:2587  contributed >= amount */\n      lt\n      iszero\n        /* \"Dapp/CrowdFundJR.sol\":2552:2587  amount > 0 && contributed >= amount */\n    tag_128:\n        /* \"Dapp/CrowdFundJR.sol\":2544:2606  require(amount > 0 && contributed >= amount, \"Invalid amount\") */\n      tag_129\n      jumpi\n      mload(0x40)\n      0x08c379a000000000000000000000000000000000000000000000000000000000\n      dup2\n      mstore\n      0x04\n      add\n      tag_130\n      swap1\n      tag_131\n      jump\t// in\n    tag_130:\n      mload(0x40)\n      dup1\n      swap2\n      sub\n      swap1\n      revert\n    tag_129:\n        /* \"Dapp/CrowdFundJR.sol\":2637:2643  amount */\n      dup5\n        /* \"Dapp/CrowdFundJR.sol\":2617:2625  campaign */\n      dup3\n        /* \"Dapp/CrowdFundJR.sol\":2617:2633  campaign.pledged */\n      0x05\n      add\n      0x00\n        /* \"Dapp/CrowdFundJR.sol\":2617:2643  campaign.pledged -= amount */\n      dup3\n      dup3\n      sload\n      tag_132\n      swap2\n      swap1\n      tag_133\n      jump\t// in\n    tag_132:\n      swap3\n      pop\n      pop\n      dup2\n      swap1\n      sstore\n      pop\n        /* \"Dapp/CrowdFundJR.sol\":2691:2697  amount */\n      dup5\n        /* \"Dapp/CrowdFundJR.sol\":2653:2661  campaign */\n      dup3\n        /* \"Dapp/CrowdFundJR.sol\":2653:2675  campaign.contributions */\n      0x07\n      add\n        /* \"Dapp/CrowdFundJR.sol\":2653:2687  campaign.contributions[msg.sender] */\n      0x00\n        /* \"Dapp/CrowdFundJR.sol\":2676:2686  msg.sender */\n      caller\n        /* \"Dapp/CrowdFundJR.sol\":2653:2687  campaign.contributions[msg.sender] */\n      0xffffffffffffffffffffffffffffffffffffffff\n      and\n      0xffffffffffffffffffffffffffffffffffffffff\n      and\n      dup2\n      mstore\n      0x20\n      add\n      swap1\n      dup2\n      mstore\n      0x20\n      add\n      0x00\n      keccak256\n      0x00\n        /* \"Dapp/CrowdFundJR.sol\":2653:2697  campaign.contributions[msg.sender] -= amount */\n      dup3\n      dup3\n      sload\n      tag_134\n      swap2\n      swap1\n      tag_133\n      jump\t// in\n    tag_134:\n      swap3\n      pop\n      pop\n      dup2\n      swap1\n      sstore\n      pop\n        /* \"Dapp/CrowdFundJR.sol\":2715:2725  msg.sender */\n      caller\n        /* \"Dapp/CrowdFundJR.sol\":2707:2735  payable(msg.sender).transfer */\n      0xffffffffffffffffffffffffffffffffffffffff\n      and\n        /* \"Dapp/CrowdFundJR.sol\":2707:2743  payable(msg.sender).transfer(amount) */\n      0x08fc\n        /* \"Dapp/CrowdFundJR.sol\":2736:2742  amount */\n      dup7\n        /* \"Dapp/CrowdFundJR.sol\":2707:2743  payable(msg.sender).transfer(amount) */\n      swap1\n      dup2\n      iszero\n      mul\n      swap1\n      mload(0x40)\n      0x00\n      mload(0x40)\n      dup1\n      dup4\n      sub\n      dup2\n      dup6\n      dup9\n      dup9\n      call\n      swap4\n      pop\n      pop\n      pop\n      pop\n      iszero\n      dup1\n      iszero\n      tag_136\n      jumpi\n      returndatacopy(0x00, 0x00, returndatasize)\n      revert(0x00, returndatasize)\n    tag_136:\n      pop\n        /* \"Dapp/CrowdFundJR.sol\":2758:2791  Unpledged(id, msg.sender, amount) */\n      0xfcd29b1632c6748a9a4bb9b4cd5c6486c3c84a8550dce2368f83fef3969d9685\n        /* \"Dapp/CrowdFundJR.sol\":2768:2770  id */\n      dup7\n        /* \"Dapp/CrowdFundJR.sol\":2772:2782  msg.sender */\n      caller\n        /* \"Dapp/CrowdFundJR.sol\":2784:2790  amount */\n      dup8\n        /* \"Dapp/CrowdFundJR.sol\":2758:2791  Unpledged(id, msg.sender, amount) */\n      mload(0x40)\n      tag_137\n      swap4\n      swap3\n      swap2\n      swap1\n      tag_94\n      jump\t// in\n    tag_137:\n      mload(0x40)\n      dup1\n      swap2\n      sub\n      swap1\n      log1\n        /* \"Dapp/CrowdFundJR.sol\":2417:2798  {... */\n      pop\n      pop\n        /* \"Dapp/CrowdFundJR.sol\":829:830  _ */\n      pop\n        /* \"Dapp/CrowdFundJR.sol\":2297:2798  function unpledge(uint256 id, uint256 amount)... */\n      pop\n      pop\n      pop\n      jump\t// out\n        /* \"Dapp/CrowdFundJR.sol\":334:362  uint256 public campaignCount */\n    tag_39:\n      sload(0x00)\n      dup2\n      jump\t// out\n        /* \"Dapp/CrowdFundJR.sol\":1909:2291  function pledge(uint256 id)... */\n    tag_44:\n        /* \"Dapp/CrowdFundJR.sol\":1992:1994  id */\n      dup1\n        /* \"Dapp/CrowdFundJR.sol\":778:791  campaignCount */\n      sload(0x00)\n        /* \"Dapp/CrowdFundJR.sol\":773:775  id */\n      dup2\n        /* \"Dapp/CrowdFundJR.sol\":773:791  id < campaignCount */\n      lt\n        /* \"Dapp/CrowdFundJR.sol\":765:819  require(id < campaignCount, \"Campiagn does not exits\") */\n      tag_139\n      jumpi\n      mload(0x40)\n      0x08c379a000000000000000000000000000000000000000000000000000000000\n      dup2\n      mstore\n      0x04\n      add\n      tag_140\n      swap1\n      tag_59\n      jump\t// in\n    tag_140:\n      mload(0x40)\n      dup1\n      swap2\n      sub\n      swap1\n      revert\n    tag_139:\n        /* \"Dapp/CrowdFundJR.sol\":2019:2021  id */\n      dup2\n        /* \"Dapp/CrowdFundJR.sol\":1050:1059  Campaigns */\n      0x01\n        /* \"Dapp/CrowdFundJR.sol\":1050:1063  Campaigns[id] */\n      0x00\n        /* \"Dapp/CrowdFundJR.sol\":1060:1062  id */\n      dup3\n        /* \"Dapp/CrowdFundJR.sol\":1050:1063  Campaigns[id] */\n      dup2\n      mstore\n      0x20\n      add\n      swap1\n      dup2\n      mstore\n      0x20\n      add\n      0x00\n      keccak256\n        /* \"Dapp/CrowdFundJR.sol\":1050:1072  Campaigns[id].deadline */\n      0x04\n      add\n      sload\n        /* \"Dapp/CrowdFundJR.sol\":1032:1047  block.timestamp */\n      timestamp\n        /* \"Dapp/CrowdFundJR.sol\":1032:1072  block.timestamp < Campaigns[id].deadline */\n      lt\n        /* \"Dapp/CrowdFundJR.sol\":1024:1095  require(block.timestamp < Campaigns[id].deadline, \"Campaign has ended\") */\n      tag_142\n      jumpi\n      mload(0x40)\n      0x08c379a000000000000000000000000000000000000000000000000000000000\n      dup2\n      mstore\n      0x04\n      add\n      tag_143\n      swap1\n      tag_126\n      jump\t// in\n    tag_143:\n      mload(0x40)\n      dup1\n      swap2\n      sub\n      swap1\n      revert\n    tag_142:\n        /* \"Dapp/CrowdFundJR.sol\":2057:2058  0 */\n      0x00\n        /* \"Dapp/CrowdFundJR.sol\":2045:2054  msg.value */\n      callvalue\n        /* \"Dapp/CrowdFundJR.sol\":2045:2058  msg.value > 0 */\n      gt\n        /* \"Dapp/CrowdFundJR.sol\":2037:2086  require(msg.value > 0, \"Must pledge more than 0\") */\n      tag_145\n      jumpi\n      mload(0x40)\n      0x08c379a000000000000000000000000000000000000000000000000000000000\n      dup2\n      mstore\n      0x04\n      add\n      tag_146\n      swap1\n      tag_147\n      jump\t// in\n    tag_146:\n      mload(0x40)\n      dup1\n      swap2\n      sub\n      swap1\n      revert\n    tag_145:\n        /* \"Dapp/CrowdFundJR.sol\":2097:2122  Campaign storage campaign */\n      0x00\n        /* \"Dapp/CrowdFundJR.sol\":2125:2134  Campaigns */\n      0x01\n        /* \"Dapp/CrowdFundJR.sol\":2125:2138  Campaigns[id] */\n      0x00\n        /* \"Dapp/CrowdFundJR.sol\":2135:2137  id */\n      dup6\n        /* \"Dapp/CrowdFundJR.sol\":2125:2138  Campaigns[id] */\n      dup2\n      mstore\n      0x20\n      add\n      swap1\n      dup2\n      mstore\n      0x20\n      add\n      0x00\n      keccak256\n        /* \"Dapp/CrowdFundJR.sol\":2097:2138  Campaign storage campaign = Campaigns[id] */\n      swap1\n      pop\n        /* \"Dapp/CrowdFundJR.sol\":2168:2177  msg.value */\n      callvalue\n        /* \"Dapp/CrowdFundJR.sol\":2148:2156  campaign */\n      dup2\n        /* \"Dapp/CrowdFundJR.sol\":2148:2164  campaign.pledged */\n      0x05\n      add\n      0x00\n        /* \"Dapp/CrowdFundJR.sol\":2148:2177  campaign.pledged += msg.value */\n      dup3\n      dup3\n      sload\n      tag_148\n      swap2\n      swap1\n      tag_149\n      jump\t// in\n    tag_148:\n      swap3\n      pop\n      pop\n      dup2\n      swap1\n      sstore\n      pop\n        /* \"Dapp/CrowdFundJR.sol\":2225:2234  msg.value */\n      callvalue\n        /* \"Dapp/CrowdFundJR.sol\":2187:2195  campaign */\n      dup2\n        /* \"Dapp/CrowdFundJR.sol\":2187:2209  campaign.contributions */\n      0x07\n      add\n        /* \"Dapp/CrowdFundJR.sol\":2187:2221  campaign.contributions[msg.sender] */\n      0x00\n        /* \"Dapp/CrowdFundJR.sol\":2210:2220  msg.sender */\n      caller\n        /* \"Dapp/CrowdFundJR.sol\":2187:2221  campaign.contributions[msg.sender] */\n      0xffffffffffffffffffffffffffffffffffffffff\n      and\n      0xffffffffffffffffffffffffffffffffffffffff\n      and\n      dup2\n      mstore\n      0x20\n      add\n      swap1\n      dup2\n      mstore\n      0x20\n      add\n      0x00\n      keccak256\n      0x00\n        /* \"Dapp/CrowdFundJR.sol\":2187:2234  campaign.contributions[msg.sender] += msg.value */\n      dup3\n      dup3\n      sload\n      tag_150\n      swap2\n      swap1\n      tag_149\n      jump\t// in\n    tag_150:\n      swap3\n      pop\n      pop\n      dup2\n      swap1\n      sstore\n      pop\n        /* \"Dapp/CrowdFundJR.sol\":2250:2284  Pledged(id, msg.sender, msg.value) */\n      0x2757ac6a40883f4491cc56930ae964df9034e343e660d5179eb01e198336756b\n        /* \"Dapp/CrowdFundJR.sol\":2258:2260  id */\n      dup5\n        /* \"Dapp/CrowdFundJR.sol\":2262:2272  msg.sender */\n      caller\n        /* \"Dapp/CrowdFundJR.sol\":2274:2283  msg.value */\n      callvalue\n        /* \"Dapp/CrowdFundJR.sol\":2250:2284  Pledged(id, msg.sender, msg.value) */\n      mload(0x40)\n      tag_151\n      swap4\n      swap3\n      swap2\n      swap1\n      tag_94\n      jump\t// in\n    tag_151:\n      mload(0x40)\n      dup1\n      swap2\n      sub\n      swap1\n      log1\n        /* \"Dapp/CrowdFundJR.sol\":2027:2291  {... */\n      pop\n        /* \"Dapp/CrowdFundJR.sol\":829:830  _ */\n      pop\n        /* \"Dapp/CrowdFundJR.sol\":1909:2291  function pledge(uint256 id)... */\n      pop\n      pop\n      jump\t// out\n        /* \"Dapp/CrowdFundJR.sol\":1298:1903  function createCampaign(... */\n    tag_49:\n        /* \"Dapp/CrowdFundJR.sol\":1474:1475  0 */\n      0x00\n        /* \"Dapp/CrowdFundJR.sol\":1467:1471  goal */\n      dup3\n        /* \"Dapp/CrowdFundJR.sol\":1467:1475  goal > 0 */\n      gt\n        /* \"Dapp/CrowdFundJR.sol\":1459:1507  require(goal > 0, \"Goal must be greater than 0\") */\n      tag_153\n      jumpi\n      mload(0x40)\n      0x08c379a000000000000000000000000000000000000000000000000000000000\n      dup2\n      mstore\n      0x04\n      add\n      tag_154\n      swap1\n      tag_155\n      jump\t// in\n    tag_154:\n      mload(0x40)\n      dup1\n      swap2\n      sub\n      swap1\n      revert\n    tag_153:\n        /* \"Dapp/CrowdFundJR.sol\":1536:1537  0 */\n      0x00\n        /* \"Dapp/CrowdFundJR.sol\":1525:1533  duration */\n      dup2\n        /* \"Dapp/CrowdFundJR.sol\":1525:1537  duration > 0 */\n      gt\n        /* \"Dapp/CrowdFundJR.sol\":1517:1573  require(duration > 0, \"Duration must be greater than 0\") */\n      tag_156\n      jumpi\n      mload(0x40)\n      0x08c379a000000000000000000000000000000000000000000000000000000000\n      dup2\n      mstore\n      0x04\n      add\n      tag_157\n      swap1\n      tag_158\n      jump\t// in\n    tag_157:\n      mload(0x40)\n      dup1\n      swap2\n      sub\n      swap1\n      revert\n    tag_156:\n        /* \"Dapp/CrowdFundJR.sol\":1584:1605  Campaign storage camp */\n      0x00\n        /* \"Dapp/CrowdFundJR.sol\":1608:1617  Campaigns */\n      0x01\n        /* \"Dapp/CrowdFundJR.sol\":1608:1632  Campaigns[campaignCount] */\n      0x00\n        /* \"Dapp/CrowdFundJR.sol\":1618:1631  campaignCount */\n      sload(0x00)\n        /* \"Dapp/CrowdFundJR.sol\":1608:1632  Campaigns[campaignCount] */\n      dup2\n      mstore\n      0x20\n      add\n      swap1\n      dup2\n      mstore\n      0x20\n      add\n      0x00\n      keccak256\n        /* \"Dapp/CrowdFundJR.sol\":1584:1632  Campaign storage camp = Campaigns[campaignCount] */\n      swap1\n      pop\n        /* \"Dapp/CrowdFundJR.sol\":1657:1667  msg.sender */\n      caller\n        /* \"Dapp/CrowdFundJR.sol\":1642:1646  camp */\n      dup2\n        /* \"Dapp/CrowdFundJR.sol\":1642:1654  camp.creator */\n      0x00\n      add\n      0x00\n        /* \"Dapp/CrowdFundJR.sol\":1642:1667  camp.creator = msg.sender */\n      0x0100\n      exp\n      dup2\n      sload\n      dup2\n      0xffffffffffffffffffffffffffffffffffffffff\n      mul\n      not\n      and\n      swap1\n      dup4\n      0xffffffffffffffffffffffffffffffffffffffff\n      and\n      mul\n      or\n      swap1\n      sstore\n      pop\n        /* \"Dapp/CrowdFundJR.sol\":1690:1695  title */\n      dup5\n        /* \"Dapp/CrowdFundJR.sol\":1677:1681  camp */\n      dup2\n        /* \"Dapp/CrowdFundJR.sol\":1677:1687  camp.title */\n      0x01\n      add\n        /* \"Dapp/CrowdFundJR.sol\":1677:1695  camp.title = title */\n      swap1\n      dup2\n      tag_159\n      swap2\n      swap1\n      tag_160\n      jump\t// in\n    tag_159:\n      pop\n        /* \"Dapp/CrowdFundJR.sol\":1724:1735  description */\n      dup4\n        /* \"Dapp/CrowdFundJR.sol\":1705:1709  camp */\n      dup2\n        /* \"Dapp/CrowdFundJR.sol\":1705:1721  camp.description */\n      0x02\n      add\n        /* \"Dapp/CrowdFundJR.sol\":1705:1735  camp.description = description */\n      swap1\n      dup2\n      tag_161\n      swap2\n      swap1\n      tag_160\n      jump\t// in\n    tag_161:\n      pop\n        /* \"Dapp/CrowdFundJR.sol\":1757:1761  goal */\n      dup3\n        /* \"Dapp/CrowdFundJR.sol\":1745:1749  camp */\n      dup2\n        /* \"Dapp/CrowdFundJR.sol\":1745:1754  camp.goal */\n      0x03\n      add\n        /* \"Dapp/CrowdFundJR.sol\":1745:1761  camp.goal = goal */\n      dup2\n      swap1\n      sstore\n      pop\n        /* \"Dapp/CrowdFundJR.sol\":1805:1813  duration */\n      dup2\n        /* \"Dapp/CrowdFundJR.sol\":1787:1802  block.timestamp */\n      timestamp\n        /* \"Dapp/CrowdFundJR.sol\":1787:1813  block.timestamp + duration */\n      tag_162\n      swap2\n      swap1\n      tag_149\n      jump\t// in\n    tag_162:\n        /* \"Dapp/CrowdFundJR.sol\":1771:1775  camp */\n      dup2\n        /* \"Dapp/CrowdFundJR.sol\":1771:1784  camp.deadline */\n      0x04\n      add\n        /* \"Dapp/CrowdFundJR.sol\":1771:1813  camp.deadline = block.timestamp + duration */\n      dup2\n      swap1\n      sstore\n      pop\n        /* \"Dapp/CrowdFundJR.sol\":1829:1871  CampaignCreated(campaignCount, msg.sender) */\n      0x633109eec20320eded000fc1e2634211aa7e92ba3f5b15faf6dcdafca05094e4\n        /* \"Dapp/CrowdFundJR.sol\":1845:1858  campaignCount */\n      sload(0x00)\n        /* \"Dapp/CrowdFundJR.sol\":1860:1870  msg.sender */\n      caller\n        /* \"Dapp/CrowdFundJR.sol\":1829:1871  CampaignCreated(campaignCount, msg.sender) */\n      mload(0x40)\n      tag_163\n      swap3\n      swap2\n      swap1\n      tag_164\n      jump\t// in\n    tag_163:\n      mload(0x40)\n      dup1\n      swap2\n      sub\n      swap1\n      log1\n        /* \"Dapp/CrowdFundJR.sol\":1881:1894  campaignCount */\n      0x00\n      0x00\n        /* \"Dapp/CrowdFundJR.sol\":1881:1896  campaignCount++ */\n      dup2\n      sload\n      dup1\n      swap3\n      swap2\n      swap1\n      tag_165\n      swap1\n      tag_166\n      jump\t// in\n    tag_165:\n      swap2\n      swap1\n      pop\n      sstore\n      pop\n        /* \"Dapp/CrowdFundJR.sol\":1449:1903  {... */\n      pop\n        /* \"Dapp/CrowdFundJR.sol\":1298:1903  function createCampaign(... */\n      pop\n      pop\n      pop\n      pop\n      jump\t// out\n        /* \"Dapp/CrowdFundJR.sol\":3753:3961  function getContribution(uint256 id, address contributor)... */\n    tag_54:\n        /* \"Dapp/CrowdFundJR.sol\":3884:3891  uint256 */\n      0x00\n        /* \"Dapp/CrowdFundJR.sol\":3863:3865  id */\n      dup3\n        /* \"Dapp/CrowdFundJR.sol\":778:791  campaignCount */\n      sload(0x00)\n        /* \"Dapp/CrowdFundJR.sol\":773:775  id */\n      dup2\n        /* \"Dapp/CrowdFundJR.sol\":773:791  id < campaignCount */\n      lt\n        /* \"Dapp/CrowdFundJR.sol\":765:819  require(id < campaignCount, \"Campiagn does not exits\") */\n      tag_168\n      jumpi\n      mload(0x40)\n      0x08c379a000000000000000000000000000000000000000000000000000000000\n      dup2\n      mstore\n      0x04\n      add\n      tag_169\n      swap1\n      tag_59\n      jump\t// in\n    tag_169:\n      mload(0x40)\n      dup1\n      swap2\n      sub\n      swap1\n      revert\n    tag_168:\n        /* \"Dapp/CrowdFundJR.sol\":3914:3923  Campaigns */\n      0x01\n        /* \"Dapp/CrowdFundJR.sol\":3914:3927  Campaigns[id] */\n      0x00\n        /* \"Dapp/CrowdFundJR.sol\":3924:3926  id */\n      dup6\n        /* \"Dapp/CrowdFundJR.sol\":3914:3927  Campaigns[id] */\n      dup2\n      mstore\n      0x20\n      add\n      swap1\n      dup2\n      mstore\n      0x20\n      add\n      0x00\n      keccak256\n        /* \"Dapp/CrowdFundJR.sol\":3914:3941  Campaigns[id].contributions */\n      0x07\n      add\n        /* \"Dapp/CrowdFundJR.sol\":3914:3954  Campaigns[id].contributions[contributor] */\n      0x00\n        /* \"Dapp/CrowdFundJR.sol\":3942:3953  contributor */\n      dup5\n        /* \"Dapp/CrowdFundJR.sol\":3914:3954  Campaigns[id].contributions[contributor] */\n      0xffffffffffffffffffffffffffffffffffffffff\n      and\n      0xffffffffffffffffffffffffffffffffffffffff\n      and\n      dup2\n      mstore\n      0x20\n      add\n      swap1\n      dup2\n      mstore\n      0x20\n      add\n      0x00\n      keccak256\n      sload\n        /* \"Dapp/CrowdFundJR.sol\":3907:3954  return Campaigns[id].contributions[contributor] */\n      swap2\n      pop\n        /* \"Dapp/CrowdFundJR.sol\":3753:3961  function getContribution(uint256 id, address contributor)... */\n      pop\n      swap3\n      swap2\n      pop\n      pop\n      jump\t// out\n        /* \"#utility.yul\":7:82   */\n    tag_171:\n        /* \"#utility.yul\":40:46   */\n      0x00\n        /* \"#utility.yul\":73:75   */\n      0x40\n        /* \"#utility.yul\":67:76   */\n      mload\n        /* \"#utility.yul\":57:76   */\n      swap1\n      pop\n        /* \"#utility.yul\":7:82   */\n      swap1\n      jump\t// out\n        /* \"#utility.yul\":88:205   */\n    tag_172:\n        /* \"#utility.yul\":197:198   */\n      0x00\n        /* \"#utility.yul\":194:195   */\n      0x00\n        /* \"#utility.yul\":187:199   */\n      revert\n        /* \"#utility.yul\":211:328   */\n    tag_173:\n        /* \"#utility.yul\":320:321   */\n      0x00\n        /* \"#utility.yul\":317:318   */\n      0x00\n        /* \"#utility.yul\":310:322   */\n      revert\n        /* \"#utility.yul\":334:411   */\n    tag_174:\n        /* \"#utility.yul\":371:378   */\n      0x00\n        /* \"#utility.yul\":400:405   */\n      dup2\n        /* \"#utility.yul\":389:405   */\n      swap1\n      pop\n        /* \"#utility.yul\":334:411   */\n      swap2\n      swap1\n      pop\n      jump\t// out\n        /* \"#utility.yul\":417:539   */\n    tag_175:\n        /* \"#utility.yul\":490:514   */\n      tag_246\n        /* \"#utility.yul\":508:513   */\n      dup2\n        /* \"#utility.yul\":490:514   */\n      tag_174\n      jump\t// in\n    tag_246:\n        /* \"#utility.yul\":483:488   */\n      dup2\n        /* \"#utility.yul\":480:515   */\n      eq\n        /* \"#utility.yul\":470:533   */\n      tag_247\n      jumpi\n        /* \"#utility.yul\":529:530   */\n      0x00\n        /* \"#utility.yul\":526:527   */\n      0x00\n        /* \"#utility.yul\":519:531   */\n      revert\n        /* \"#utility.yul\":470:533   */\n    tag_247:\n        /* \"#utility.yul\":417:539   */\n      pop\n      jump\t// out\n        /* \"#utility.yul\":545:684   */\n    tag_176:\n        /* \"#utility.yul\":591:596   */\n      0x00\n        /* \"#utility.yul\":629:635   */\n      dup2\n        /* \"#utility.yul\":616:636   */\n      calldataload\n        /* \"#utility.yul\":607:636   */\n      swap1\n      pop\n        /* \"#utility.yul\":645:678   */\n      tag_249\n        /* \"#utility.yul\":672:677   */\n      dup2\n        /* \"#utility.yul\":645:678   */\n      tag_175\n      jump\t// in\n    tag_249:\n        /* \"#utility.yul\":545:684   */\n      swap3\n      swap2\n      pop\n      pop\n      jump\t// out\n        /* \"#utility.yul\":690:1019   */\n    tag_15:\n        /* \"#utility.yul\":749:755   */\n      0x00\n        /* \"#utility.yul\":798:800   */\n      0x20\n        /* \"#utility.yul\":786:795   */\n      dup3\n        /* \"#utility.yul\":777:784   */\n      dup5\n        /* \"#utility.yul\":773:796   */\n      sub\n        /* \"#utility.yul\":769:801   */\n      slt\n        /* \"#utility.yul\":766:885   */\n      iszero\n      tag_251\n      jumpi\n        /* \"#utility.yul\":804:883   */\n      tag_252\n      tag_172\n      jump\t// in\n    tag_252:\n        /* \"#utility.yul\":766:885   */\n    tag_251:\n        /* \"#utility.yul\":924:925   */\n      0x00\n        /* \"#utility.yul\":949:1002   */\n      tag_253\n        /* \"#utility.yul\":994:1001   */\n      dup5\n        /* \"#utility.yul\":985:991   */\n      dup3\n        /* \"#utility.yul\":974:983   */\n      dup6\n        /* \"#utility.yul\":970:992   */\n      add\n        /* \"#utility.yul\":949:1002   */\n      tag_176\n      jump\t// in\n    tag_253:\n        /* \"#utility.yul\":939:1002   */\n      swap2\n      pop\n        /* \"#utility.yul\":895:1012   */\n      pop\n        /* \"#utility.yul\":690:1019   */\n      swap3\n      swap2\n      pop\n      pop\n      jump\t// out\n        /* \"#utility.yul\":1025:1151   */\n    tag_177:\n        /* \"#utility.yul\":1062:1069   */\n      0x00\n        /* \"#utility.yul\":1102:1144   */\n      0xffffffffffffffffffffffffffffffffffffffff\n        /* \"#utility.yul\":1095:1100   */\n      dup3\n        /* \"#utility.yul\":1091:1145   */\n      and\n        /* \"#utility.yul\":1080:1145   */\n      swap1\n      pop\n        /* \"#utility.yul\":1025:1151   */\n      swap2\n      swap1\n      pop\n      jump\t// out\n        /* \"#utility.yul\":1157:1253   */\n    tag_178:\n        /* \"#utility.yul\":1194:1201   */\n      0x00\n        /* \"#utility.yul\":1223:1247   */\n      tag_256\n        /* \"#utility.yul\":1241:1246   */\n      dup3\n        /* \"#utility.yul\":1223:1247   */\n      tag_177\n      jump\t// in\n    tag_256:\n        /* \"#utility.yul\":1212:1247   */\n      swap1\n      pop\n        /* \"#utility.yul\":1157:1253   */\n      swap2\n      swap1\n      pop\n      jump\t// out\n        /* \"#utility.yul\":1259:1377   */\n    tag_179:\n        /* \"#utility.yul\":1346:1370   */\n      tag_258\n        /* \"#utility.yul\":1364:1369   */\n      dup2\n        /* \"#utility.yul\":1346:1370   */\n      tag_178\n      jump\t// in\n    tag_258:\n        /* \"#utility.yul\":1341:1344   */\n      dup3\n        /* \"#utility.yul\":1334:1371   */\n      mstore\n        /* \"#utility.yul\":1259:1377   */\n      pop\n      pop\n      jump\t// out\n        /* \"#utility.yul\":1383:1482   */\n    tag_180:\n        /* \"#utility.yul\":1435:1441   */\n      0x00\n        /* \"#utility.yul\":1469:1474   */\n      dup2\n        /* \"#utility.yul\":1463:1475   */\n      mload\n        /* \"#utility.yul\":1453:1475   */\n      swap1\n      pop\n        /* \"#utility.yul\":1383:1482   */\n      swap2\n      swap1\n      pop\n      jump\t// out\n        /* \"#utility.yul\":1488:1657   */\n    tag_181:\n        /* \"#utility.yul\":1572:1583   */\n      0x00\n        /* \"#utility.yul\":1606:1612   */\n      dup3\n        /* \"#utility.yul\":1601:1604   */\n      dup3\n        /* \"#utility.yul\":1594:1613   */\n      mstore\n        /* \"#utility.yul\":1646:1650   */\n      0x20\n        /* \"#utility.yul\":1641:1644   */\n      dup3\n        /* \"#utility.yul\":1637:1651   */\n      add\n        /* \"#utility.yul\":1622:1651   */\n      swap1\n      pop\n        /* \"#utility.yul\":1488:1657   */\n      swap3\n      swap2\n      pop\n      pop\n      jump\t// out\n        /* \"#utility.yul\":1663:1802   */\n    tag_182:\n        /* \"#utility.yul\":1752:1758   */\n      dup3\n        /* \"#utility.yul\":1747:1750   */\n      dup2\n        /* \"#utility.yul\":1742:1745   */\n      dup4\n        /* \"#utility.yul\":1736:1759   */\n      mcopy\n        /* \"#utility.yul\":1793:1794   */\n      0x00\n        /* \"#utility.yul\":1784:1790   */\n      dup4\n        /* \"#utility.yul\":1779:1782   */\n      dup4\n        /* \"#utility.yul\":1775:1791   */\n      add\n        /* \"#utility.yul\":1768:1795   */\n      mstore\n        /* \"#utility.yul\":1663:1802   */\n      pop\n      pop\n      pop\n      jump\t// out\n        /* \"#utility.yul\":1808:1910   */\n    tag_183:\n        /* \"#utility.yul\":1849:1855   */\n      0x00\n        /* \"#utility.yul\":1900:1902   */\n      0x1f\n        /* \"#utility.yul\":1896:1903   */\n      not\n        /* \"#utility.yul\":1891:1893   */\n      0x1f\n        /* \"#utility.yul\":1884:1889   */\n      dup4\n        /* \"#utility.yul\":1880:1894   */\n      add\n        /* \"#utility.yul\":1876:1904   */\n      and\n        /* \"#utility.yul\":1866:1904   */\n      swap1\n      pop\n        /* \"#utility.yul\":1808:1910   */\n      swap2\n      swap1\n      pop\n      jump\t// out\n        /* \"#utility.yul\":1916:2293   */\n    tag_184:\n        /* \"#utility.yul\":2004:2007   */\n      0x00\n        /* \"#utility.yul\":2032:2071   */\n      tag_264\n        /* \"#utility.yul\":2065:2070   */\n      dup3\n        /* \"#utility.yul\":2032:2071   */\n      tag_180\n      jump\t// in\n    tag_264:\n        /* \"#utility.yul\":2087:2158   */\n      tag_265\n        /* \"#utility.yul\":2151:2157   */\n      dup2\n        /* \"#utility.yul\":2146:2149   */\n      dup6\n        /* \"#utility.yul\":2087:2158   */\n      tag_181\n      jump\t// in\n    tag_265:\n        /* \"#utility.yul\":2080:2158   */\n      swap4\n      pop\n        /* \"#utility.yul\":2167:2232   */\n      tag_266\n        /* \"#utility.yul\":2225:2231   */\n      dup2\n        /* \"#utility.yul\":2220:2223   */\n      dup6\n        /* \"#utility.yul\":2213:2217   */\n      0x20\n        /* \"#utility.yul\":2206:2211   */\n      dup7\n        /* \"#utility.yul\":2202:2218   */\n      add\n        /* \"#utility.yul\":2167:2232   */\n      tag_182\n      jump\t// in\n    tag_266:\n        /* \"#utility.yul\":2257:2286   */\n      tag_267\n        /* \"#utility.yul\":2279:2285   */\n      dup2\n        /* \"#utility.yul\":2257:2286   */\n      tag_183\n      jump\t// in\n    tag_267:\n        /* \"#utility.yul\":2252:2255   */\n      dup5\n        /* \"#utility.yul\":2248:2287   */\n      add\n        /* \"#utility.yul\":2241:2287   */\n      swap2\n      pop\n        /* \"#utility.yul\":2008:2293   */\n      pop\n        /* \"#utility.yul\":1916:2293   */\n      swap3\n      swap2\n      pop\n      pop\n      jump\t// out\n        /* \"#utility.yul\":2299:2417   */\n    tag_185:\n        /* \"#utility.yul\":2386:2410   */\n      tag_269\n        /* \"#utility.yul\":2404:2409   */\n      dup2\n        /* \"#utility.yul\":2386:2410   */\n      tag_174\n      jump\t// in\n    tag_269:\n        /* \"#utility.yul\":2381:2384   */\n      dup3\n        /* \"#utility.yul\":2374:2411   */\n      mstore\n        /* \"#utility.yul\":2299:2417   */\n      pop\n      pop\n      jump\t// out\n        /* \"#utility.yul\":2423:2513   */\n    tag_186:\n        /* \"#utility.yul\":2457:2464   */\n      0x00\n        /* \"#utility.yul\":2500:2505   */\n      dup2\n        /* \"#utility.yul\":2493:2506   */\n      iszero\n        /* \"#utility.yul\":2486:2507   */\n      iszero\n        /* \"#utility.yul\":2475:2507   */\n      swap1\n      pop\n        /* \"#utility.yul\":2423:2513   */\n      swap2\n      swap1\n      pop\n      jump\t// out\n        /* \"#utility.yul\":2519:2628   */\n    tag_187:\n        /* \"#utility.yul\":2600:2621   */\n      tag_272\n        /* \"#utility.yul\":2615:2620   */\n      dup2\n        /* \"#utility.yul\":2600:2621   */\n      tag_186\n      jump\t// in\n    tag_272:\n        /* \"#utility.yul\":2595:2598   */\n      dup3\n        /* \"#utility.yul\":2588:2622   */\n      mstore\n        /* \"#utility.yul\":2519:2628   */\n      pop\n      pop\n      jump\t// out\n        /* \"#utility.yul\":2634:3690   */\n    tag_26:\n        /* \"#utility.yul\":2929:2933   */\n      0x00\n        /* \"#utility.yul\":2967:2970   */\n      0xe0\n        /* \"#utility.yul\":2956:2965   */\n      dup3\n        /* \"#utility.yul\":2952:2971   */\n      add\n        /* \"#utility.yul\":2944:2971   */\n      swap1\n      pop\n        /* \"#utility.yul\":2981:3052   */\n      tag_274\n        /* \"#utility.yul\":3049:3050   */\n      0x00\n        /* \"#utility.yul\":3038:3047   */\n      dup4\n        /* \"#utility.yul\":3034:3051   */\n      add\n        /* \"#utility.yul\":3025:3031   */\n      dup11\n        /* \"#utility.yul\":2981:3052   */\n      tag_179\n      jump\t// in\n    tag_274:\n        /* \"#utility.yul\":3099:3108   */\n      dup2\n        /* \"#utility.yul\":3093:3097   */\n      dup2\n        /* \"#utility.yul\":3089:3109   */\n      sub\n        /* \"#utility.yul\":3084:3086   */\n      0x20\n        /* \"#utility.yul\":3073:3082   */\n      dup4\n        /* \"#utility.yul\":3069:3087   */\n      add\n        /* \"#utility.yul\":3062:3110   */\n      mstore\n        /* \"#utility.yul\":3127:3205   */\n      tag_275\n        /* \"#utility.yul\":3200:3204   */\n      dup2\n        /* \"#utility.yul\":3191:3197   */\n      dup10\n        /* \"#utility.yul\":3127:3205   */\n      tag_184\n      jump\t// in\n    tag_275:\n        /* \"#utility.yul\":3119:3205   */\n      swap1\n      pop\n        /* \"#utility.yul\":3252:3261   */\n      dup2\n        /* \"#utility.yul\":3246:3250   */\n      dup2\n        /* \"#utility.yul\":3242:3262   */\n      sub\n        /* \"#utility.yul\":3237:3239   */\n      0x40\n        /* \"#utility.yul\":3226:3235   */\n      dup4\n        /* \"#utility.yul\":3222:3240   */\n      add\n        /* \"#utility.yul\":3215:3263   */\n      mstore\n        /* \"#utility.yul\":3280:3358   */\n      tag_276\n        /* \"#utility.yul\":3353:3357   */\n      dup2\n        /* \"#utility.yul\":3344:3350   */\n      dup9\n        /* \"#utility.yul\":3280:3358   */\n      tag_184\n      jump\t// in\n    tag_276:\n        /* \"#utility.yul\":3272:3358   */\n      swap1\n      pop\n        /* \"#utility.yul\":3368:3440   */\n      tag_277\n        /* \"#utility.yul\":3436:3438   */\n      0x60\n        /* \"#utility.yul\":3425:3434   */\n      dup4\n        /* \"#utility.yul\":3421:3439   */\n      add\n        /* \"#utility.yul\":3412:3418   */\n      dup8\n        /* \"#utility.yul\":3368:3440   */\n      tag_185\n      jump\t// in\n    tag_277:\n        /* \"#utility.yul\":3450:3523   */\n      tag_278\n        /* \"#utility.yul\":3518:3521   */\n      0x80\n        /* \"#utility.yul\":3507:3516   */\n      dup4\n        /* \"#utility.yul\":3503:3522   */\n      add\n        /* \"#utility.yul\":3494:3500   */\n      dup7\n        /* \"#utility.yul\":3450:3523   */\n      tag_185\n      jump\t// in\n    tag_278:\n        /* \"#utility.yul\":3533:3606   */\n      tag_279\n        /* \"#utility.yul\":3601:3604   */\n      0xa0\n        /* \"#utility.yul\":3590:3599   */\n      dup4\n        /* \"#utility.yul\":3586:3605   */\n      add\n        /* \"#utility.yul\":3577:3583   */\n      dup6\n        /* \"#utility.yul\":3533:3606   */\n      tag_185\n      jump\t// in\n    tag_279:\n        /* \"#utility.yul\":3616:3683   */\n      tag_280\n        /* \"#utility.yul\":3678:3681   */\n      0xc0\n        /* \"#utility.yul\":3667:3676   */\n      dup4\n        /* \"#utility.yul\":3663:3682   */\n      add\n        /* \"#utility.yul\":3654:3660   */\n      dup5\n        /* \"#utility.yul\":3616:3683   */\n      tag_187\n      jump\t// in\n    tag_280:\n        /* \"#utility.yul\":2634:3690   */\n      swap9\n      swap8\n      pop\n      pop\n      pop\n      pop\n      pop\n      pop\n      pop\n      pop\n      jump\t// out\n        /* \"#utility.yul\":3696:4170   */\n    tag_35:\n        /* \"#utility.yul\":3764:3770   */\n      0x00\n        /* \"#utility.yul\":3772:3778   */\n      0x00\n        /* \"#utility.yul\":3821:3823   */\n      0x40\n        /* \"#utility.yul\":3809:3818   */\n      dup4\n        /* \"#utility.yul\":3800:3807   */\n      dup6\n        /* \"#utility.yul\":3796:3819   */\n      sub\n        /* \"#utility.yul\":3792:3824   */\n      slt\n        /* \"#utility.yul\":3789:3908   */\n      iszero\n      tag_282\n      jumpi\n        /* \"#utility.yul\":3827:3906   */\n      tag_283\n      tag_172\n      jump\t// in\n    tag_283:\n        /* \"#utility.yul\":3789:3908   */\n    tag_282:\n        /* \"#utility.yul\":3947:3948   */\n      0x00\n        /* \"#utility.yul\":3972:4025   */\n      tag_284\n        /* \"#utility.yul\":4017:4024   */\n      dup6\n        /* \"#utility.yul\":4008:4014   */\n      dup3\n        /* \"#utility.yul\":3997:4006   */\n      dup7\n        /* \"#utility.yul\":3993:4015   */\n      add\n        /* \"#utility.yul\":3972:4025   */\n      tag_176\n      jump\t// in\n    tag_284:\n        /* \"#utility.yul\":3962:4025   */\n      swap3\n      pop\n        /* \"#utility.yul\":3918:4035   */\n      pop\n        /* \"#utility.yul\":4074:4076   */\n      0x20\n        /* \"#utility.yul\":4100:4153   */\n      tag_285\n        /* \"#utility.yul\":4145:4152   */\n      dup6\n        /* \"#utility.yul\":4136:4142   */\n      dup3\n        /* \"#utility.yul\":4125:4134   */\n      dup7\n        /* \"#utility.yul\":4121:4143   */\n      add\n        /* \"#utility.yul\":4100:4153   */\n      tag_176\n      jump\t// in\n    tag_285:\n        /* \"#utility.yul\":4090:4153   */\n      swap2\n      pop\n        /* \"#utility.yul\":4045:4163   */\n      pop\n        /* \"#utility.yul\":3696:4170   */\n      swap3\n      pop\n      swap3\n      swap1\n      pop\n      jump\t// out\n        /* \"#utility.yul\":4176:4398   */\n    tag_41:\n        /* \"#utility.yul\":4269:4273   */\n      0x00\n        /* \"#utility.yul\":4307:4309   */\n      0x20\n        /* \"#utility.yul\":4296:4305   */\n      dup3\n        /* \"#utility.yul\":4292:4310   */\n      add\n        /* \"#utility.yul\":4284:4310   */\n      swap1\n      pop\n        /* \"#utility.yul\":4320:4391   */\n      tag_287\n        /* \"#utility.yul\":4388:4389   */\n      0x00\n        /* \"#utility.yul\":4377:4386   */\n      dup4\n        /* \"#utility.yul\":4373:4390   */\n      add\n        /* \"#utility.yul\":4364:4370   */\n      dup5\n        /* \"#utility.yul\":4320:4391   */\n      tag_185\n      jump\t// in\n    tag_287:\n        /* \"#utility.yul\":4176:4398   */\n      swap3\n      swap2\n      pop\n      pop\n      jump\t// out\n        /* \"#utility.yul\":4404:4521   */\n    tag_188:\n        /* \"#utility.yul\":4513:4514   */\n      0x00\n        /* \"#utility.yul\":4510:4511   */\n      0x00\n        /* \"#utility.yul\":4503:4515   */\n      revert\n        /* \"#utility.yul\":4527:4644   */\n    tag_189:\n        /* \"#utility.yul\":4636:4637   */\n      0x00\n        /* \"#utility.yul\":4633:4634   */\n      0x00\n        /* \"#utility.yul\":4626:4638   */\n      revert\n        /* \"#utility.yul\":4650:4830   */\n    tag_190:\n        /* \"#utility.yul\":4698:4775   */\n      0x4e487b7100000000000000000000000000000000000000000000000000000000\n        /* \"#utility.yul\":4695:4696   */\n      0x00\n        /* \"#utility.yul\":4688:4776   */\n      mstore\n        /* \"#utility.yul\":4795:4799   */\n      0x41\n        /* \"#utility.yul\":4792:4793   */\n      0x04\n        /* \"#utility.yul\":4785:4800   */\n      mstore\n        /* \"#utility.yul\":4819:4823   */\n      0x24\n        /* \"#utility.yul\":4816:4817   */\n      0x00\n        /* \"#utility.yul\":4809:4824   */\n      revert\n        /* \"#utility.yul\":4836:5117   */\n    tag_191:\n        /* \"#utility.yul\":4919:4946   */\n      tag_292\n        /* \"#utility.yul\":4941:4945   */\n      dup3\n        /* \"#utility.yul\":4919:4946   */\n      tag_183\n      jump\t// in\n    tag_292:\n        /* \"#utility.yul\":4911:4917   */\n      dup2\n        /* \"#utility.yul\":4907:4947   */\n      add\n        /* \"#utility.yul\":5049:5055   */\n      dup2\n        /* \"#utility.yul\":5037:5047   */\n      dup2\n        /* \"#utility.yul\":5034:5056   */\n      lt\n        /* \"#utility.yul\":5013:5031   */\n      0xffffffffffffffff\n        /* \"#utility.yul\":5001:5011   */\n      dup3\n        /* \"#utility.yul\":4998:5032   */\n      gt\n        /* \"#utility.yul\":4995:5057   */\n      or\n        /* \"#utility.yul\":4992:5080   */\n      iszero\n      tag_293\n      jumpi\n        /* \"#utility.yul\":5060:5078   */\n      tag_294\n      tag_190\n      jump\t// in\n    tag_294:\n        /* \"#utility.yul\":4992:5080   */\n    tag_293:\n        /* \"#utility.yul\":5100:5110   */\n      dup1\n        /* \"#utility.yul\":5096:5098   */\n      0x40\n        /* \"#utility.yul\":5089:5111   */\n      mstore\n        /* \"#utility.yul\":4879:5117   */\n      pop\n        /* \"#utility.yul\":4836:5117   */\n      pop\n      pop\n      jump\t// out\n        /* \"#utility.yul\":5123:5252   */\n    tag_192:\n        /* \"#utility.yul\":5157:5163   */\n      0x00\n        /* \"#utility.yul\":5184:5204   */\n      tag_296\n      tag_171\n      jump\t// in\n    tag_296:\n        /* \"#utility.yul\":5174:5204   */\n      swap1\n      pop\n        /* \"#utility.yul\":5213:5246   */\n      tag_297\n        /* \"#utility.yul\":5241:5245   */\n      dup3\n        /* \"#utility.yul\":5233:5239   */\n      dup3\n        /* \"#utility.yul\":5213:5246   */\n      tag_191\n      jump\t// in\n    tag_297:\n        /* \"#utility.yul\":5123:5252   */\n      swap2\n      swap1\n      pop\n      jump\t// out\n        /* \"#utility.yul\":5258:5566   */\n    tag_193:\n        /* \"#utility.yul\":5320:5324   */\n      0x00\n        /* \"#utility.yul\":5410:5428   */\n      0xffffffffffffffff\n        /* \"#utility.yul\":5402:5408   */\n      dup3\n        /* \"#utility.yul\":5399:5429   */\n      gt\n        /* \"#utility.yul\":5396:5452   */\n      iszero\n      tag_299\n      jumpi\n        /* \"#utility.yul\":5432:5450   */\n      tag_300\n      tag_190\n      jump\t// in\n    tag_300:\n        /* \"#utility.yul\":5396:5452   */\n    tag_299:\n        /* \"#utility.yul\":5470:5499   */\n      tag_301\n        /* \"#utility.yul\":5492:5498   */\n      dup3\n        /* \"#utility.yul\":5470:5499   */\n      tag_183\n      jump\t// in\n    tag_301:\n        /* \"#utility.yul\":5462:5499   */\n      swap1\n      pop\n        /* \"#utility.yul\":5554:5558   */\n      0x20\n        /* \"#utility.yul\":5548:5552   */\n      dup2\n        /* \"#utility.yul\":5544:5559   */\n      add\n        /* \"#utility.yul\":5536:5559   */\n      swap1\n      pop\n        /* \"#utility.yul\":5258:5566   */\n      swap2\n      swap1\n      pop\n      jump\t// out\n        /* \"#utility.yul\":5572:5720   */\n    tag_194:\n        /* \"#utility.yul\":5670:5676   */\n      dup3\n        /* \"#utility.yul\":5665:5668   */\n      dup2\n        /* \"#utility.yul\":5660:5663   */\n      dup4\n        /* \"#utility.yul\":5647:5677   */\n      calldatacopy\n        /* \"#utility.yul\":5711:5712   */\n      0x00\n        /* \"#utility.yul\":5702:5708   */\n      dup4\n        /* \"#utility.yul\":5697:5700   */\n      dup4\n        /* \"#utility.yul\":5693:5709   */\n      add\n        /* \"#utility.yul\":5686:5713   */\n      mstore\n        /* \"#utility.yul\":5572:5720   */\n      pop\n      pop\n      pop\n      jump\t// out\n        /* \"#utility.yul\":5726:6151   */\n    tag_195:\n        /* \"#utility.yul\":5804:5809   */\n      0x00\n        /* \"#utility.yul\":5829:5895   */\n      tag_304\n        /* \"#utility.yul\":5845:5894   */\n      tag_305\n        /* \"#utility.yul\":5887:5893   */\n      dup5\n        /* \"#utility.yul\":5845:5894   */\n      tag_193\n      jump\t// in\n    tag_305:\n        /* \"#utility.yul\":5829:5895   */\n      tag_192\n      jump\t// in\n    tag_304:\n        /* \"#utility.yul\":5820:5895   */\n      swap1\n      pop\n        /* \"#utility.yul\":5918:5924   */\n      dup3\n        /* \"#utility.yul\":5911:5916   */\n      dup2\n        /* \"#utility.yul\":5904:5925   */\n      mstore\n        /* \"#utility.yul\":5956:5960   */\n      0x20\n        /* \"#utility.yul\":5949:5954   */\n      dup2\n        /* \"#utility.yul\":5945:5961   */\n      add\n        /* \"#utility.yul\":5994:5997   */\n      dup5\n        /* \"#utility.yul\":5985:5991   */\n      dup5\n        /* \"#utility.yul\":5980:5983   */\n      dup5\n        /* \"#utility.yul\":5976:5992   */\n      add\n        /* \"#utility.yul\":5973:5998   */\n      gt\n        /* \"#utility.yul\":5970:6082   */\n      iszero\n      tag_306\n      jumpi\n        /* \"#utility.yul\":6001:6080   */\n      tag_307\n      tag_189\n      jump\t// in\n    tag_307:\n        /* \"#utility.yul\":5970:6082   */\n    tag_306:\n        /* \"#utility.yul\":6091:6145   */\n      tag_308\n        /* \"#utility.yul\":6138:6144   */\n      dup5\n        /* \"#utility.yul\":6133:6136   */\n      dup3\n        /* \"#utility.yul\":6128:6131   */\n      dup6\n        /* \"#utility.yul\":6091:6145   */\n      tag_194\n      jump\t// in\n    tag_308:\n        /* \"#utility.yul\":5810:6151   */\n      pop\n        /* \"#utility.yul\":5726:6151   */\n      swap4\n      swap3\n      pop\n      pop\n      pop\n      jump\t// out\n        /* \"#utility.yul\":6171:6511   */\n    tag_196:\n        /* \"#utility.yul\":6227:6232   */\n      0x00\n        /* \"#utility.yul\":6276:6279   */\n      dup3\n        /* \"#utility.yul\":6269:6273   */\n      0x1f\n        /* \"#utility.yul\":6261:6267   */\n      dup4\n        /* \"#utility.yul\":6257:6274   */\n      add\n        /* \"#utility.yul\":6253:6280   */\n      slt\n        /* \"#utility.yul\":6243:6365   */\n      tag_310\n      jumpi\n        /* \"#utility.yul\":6284:6363   */\n      tag_311\n      tag_188\n      jump\t// in\n    tag_311:\n        /* \"#utility.yul\":6243:6365   */\n    tag_310:\n        /* \"#utility.yul\":6401:6407   */\n      dup2\n        /* \"#utility.yul\":6388:6408   */\n      calldataload\n        /* \"#utility.yul\":6426:6505   */\n      tag_312\n        /* \"#utility.yul\":6501:6504   */\n      dup5\n        /* \"#utility.yul\":6493:6499   */\n      dup3\n        /* \"#utility.yul\":6486:6490   */\n      0x20\n        /* \"#utility.yul\":6478:6484   */\n      dup7\n        /* \"#utility.yul\":6474:6491   */\n      add\n        /* \"#utility.yul\":6426:6505   */\n      tag_195\n      jump\t// in\n    tag_312:\n        /* \"#utility.yul\":6417:6505   */\n      swap2\n      pop\n        /* \"#utility.yul\":6233:6511   */\n      pop\n        /* \"#utility.yul\":6171:6511   */\n      swap3\n      swap2\n      pop\n      pop\n      jump\t// out\n        /* \"#utility.yul\":6517:7642   */\n    tag_48:\n        /* \"#utility.yul\":6623:6629   */\n      0x00\n        /* \"#utility.yul\":6631:6637   */\n      0x00\n        /* \"#utility.yul\":6639:6645   */\n      0x00\n        /* \"#utility.yul\":6647:6653   */\n      0x00\n        /* \"#utility.yul\":6696:6699   */\n      0x80\n        /* \"#utility.yul\":6684:6693   */\n      dup6\n        /* \"#utility.yul\":6675:6682   */\n      dup8\n        /* \"#utility.yul\":6671:6694   */\n      sub\n        /* \"#utility.yul\":6667:6700   */\n      slt\n        /* \"#utility.yul\":6664:6784   */\n      iszero\n      tag_314\n      jumpi\n        /* \"#utility.yul\":6703:6782   */\n      tag_315\n      tag_172\n      jump\t// in\n    tag_315:\n        /* \"#utility.yul\":6664:6784   */\n    tag_314:\n        /* \"#utility.yul\":6851:6852   */\n      0x00\n        /* \"#utility.yul\":6840:6849   */\n      dup6\n        /* \"#utility.yul\":6836:6853   */\n      add\n        /* \"#utility.yul\":6823:6854   */\n      calldataload\n        /* \"#utility.yul\":6881:6899   */\n      0xffffffffffffffff\n        /* \"#utility.yul\":6873:6879   */\n      dup2\n        /* \"#utility.yul\":6870:6900   */\n      gt\n        /* \"#utility.yul\":6867:6984   */\n      iszero\n      tag_316\n      jumpi\n        /* \"#utility.yul\":6903:6982   */\n      tag_317\n      tag_173\n      jump\t// in\n    tag_317:\n        /* \"#utility.yul\":6867:6984   */\n    tag_316:\n        /* \"#utility.yul\":7008:7071   */\n      tag_318\n        /* \"#utility.yul\":7063:7070   */\n      dup8\n        /* \"#utility.yul\":7054:7060   */\n      dup3\n        /* \"#utility.yul\":7043:7052   */\n      dup9\n        /* \"#utility.yul\":7039:7061   */\n      add\n        /* \"#utility.yul\":7008:7071   */\n      tag_196\n      jump\t// in\n    tag_318:\n        /* \"#utility.yul\":6998:7071   */\n      swap5\n      pop\n        /* \"#utility.yul\":6794:7081   */\n      pop\n        /* \"#utility.yul\":7148:7150   */\n      0x20\n        /* \"#utility.yul\":7137:7146   */\n      dup6\n        /* \"#utility.yul\":7133:7151   */\n      add\n        /* \"#utility.yul\":7120:7152   */\n      calldataload\n        /* \"#utility.yul\":7179:7197   */\n      0xffffffffffffffff\n        /* \"#utility.yul\":7171:7177   */\n      dup2\n        /* \"#utility.yul\":7168:7198   */\n      gt\n        /* \"#utility.yul\":7165:7282   */\n      iszero\n      tag_319\n      jumpi\n        /* \"#utility.yul\":7201:7280   */\n      tag_320\n      tag_173\n      jump\t// in\n    tag_320:\n        /* \"#utility.yul\":7165:7282   */\n    tag_319:\n        /* \"#utility.yul\":7306:7369   */\n      tag_321\n        /* \"#utility.yul\":7361:7368   */\n      dup8\n        /* \"#utility.yul\":7352:7358   */\n      dup3\n        /* \"#utility.yul\":7341:7350   */\n      dup9\n        /* \"#utility.yul\":7337:7359   */\n      add\n        /* \"#utility.yul\":7306:7369   */\n      tag_196\n      jump\t// in\n    tag_321:\n        /* \"#utility.yul\":7296:7369   */\n      swap4\n      pop\n        /* \"#utility.yul\":7091:7379   */\n      pop\n        /* \"#utility.yul\":7418:7420   */\n      0x40\n        /* \"#utility.yul\":7444:7497   */\n      tag_322\n        /* \"#utility.yul\":7489:7496   */\n      dup8\n        /* \"#utility.yul\":7480:7486   */\n      dup3\n        /* \"#utility.yul\":7469:7478   */\n      dup9\n        /* \"#utility.yul\":7465:7487   */\n      add\n        /* \"#utility.yul\":7444:7497   */\n      tag_176\n      jump\t// in\n    tag_322:\n        /* \"#utility.yul\":7434:7497   */\n      swap3\n      pop\n        /* \"#utility.yul\":7389:7507   */\n      pop\n        /* \"#utility.yul\":7546:7548   */\n      0x60\n        /* \"#utility.yul\":7572:7625   */\n      tag_323\n        /* \"#utility.yul\":7617:7624   */\n      dup8\n        /* \"#utility.yul\":7608:7614   */\n      dup3\n        /* \"#utility.yul\":7597:7606   */\n      dup9\n        /* \"#utility.yul\":7593:7615   */\n      add\n        /* \"#utility.yul\":7572:7625   */\n      tag_176\n      jump\t// in\n    tag_323:\n        /* \"#utility.yul\":7562:7625   */\n      swap2\n      pop\n        /* \"#utility.yul\":7517:7635   */\n      pop\n        /* \"#utility.yul\":6517:7642   */\n      swap3\n      swap6\n      swap2\n      swap5\n      pop\n      swap3\n      pop\n      jump\t// out\n        /* \"#utility.yul\":7648:7770   */\n    tag_197:\n        /* \"#utility.yul\":7721:7745   */\n      tag_325\n        /* \"#utility.yul\":7739:7744   */\n      dup2\n        /* \"#utility.yul\":7721:7745   */\n      tag_178\n      jump\t// in\n    tag_325:\n        /* \"#utility.yul\":7714:7719   */\n      dup2\n        /* \"#utility.yul\":7711:7746   */\n      eq\n        /* \"#utility.yul\":7701:7764   */\n      tag_326\n      jumpi\n        /* \"#utility.yul\":7760:7761   */\n      0x00\n        /* \"#utility.yul\":7757:7758   */\n      0x00\n        /* \"#utility.yul\":7750:7762   */\n      revert\n        /* \"#utility.yul\":7701:7764   */\n    tag_326:\n        /* \"#utility.yul\":7648:7770   */\n      pop\n      jump\t// out\n        /* \"#utility.yul\":7776:7915   */\n    tag_198:\n        /* \"#utility.yul\":7822:7827   */\n      0x00\n        /* \"#utility.yul\":7860:7866   */\n      dup2\n        /* \"#utility.yul\":7847:7867   */\n      calldataload\n        /* \"#utility.yul\":7838:7867   */\n      swap1\n      pop\n        /* \"#utility.yul\":7876:7909   */\n      tag_328\n        /* \"#utility.yul\":7903:7908   */\n      dup2\n        /* \"#utility.yul\":7876:7909   */\n      tag_197\n      jump\t// in\n    tag_328:\n        /* \"#utility.yul\":7776:7915   */\n      swap3\n      swap2\n      pop\n      pop\n      jump\t// out\n        /* \"#utility.yul\":7921:8395   */\n    tag_53:\n        /* \"#utility.yul\":7989:7995   */\n      0x00\n        /* \"#utility.yul\":7997:8003   */\n      0x00\n        /* \"#utility.yul\":8046:8048   */\n      0x40\n        /* \"#utility.yul\":8034:8043   */\n      dup4\n        /* \"#utility.yul\":8025:8032   */\n      dup6\n        /* \"#utility.yul\":8021:8044   */\n      sub\n        /* \"#utility.yul\":8017:8049   */\n      slt\n        /* \"#utility.yul\":8014:8133   */\n      iszero\n      tag_330\n      jumpi\n        /* \"#utility.yul\":8052:8131   */\n      tag_331\n      tag_172\n      jump\t// in\n    tag_331:\n        /* \"#utility.yul\":8014:8133   */\n    tag_330:\n        /* \"#utility.yul\":8172:8173   */\n      0x00\n        /* \"#utility.yul\":8197:8250   */\n      tag_332\n        /* \"#utility.yul\":8242:8249   */\n      dup6\n        /* \"#utility.yul\":8233:8239   */\n      dup3\n        /* \"#utility.yul\":8222:8231   */\n      dup7\n        /* \"#utility.yul\":8218:8240   */\n      add\n        /* \"#utility.yul\":8197:8250   */\n      tag_176\n      jump\t// in\n    tag_332:\n        /* \"#utility.yul\":8187:8250   */\n      swap3\n      pop\n        /* \"#utility.yul\":8143:8260   */\n      pop\n        /* \"#utility.yul\":8299:8301   */\n      0x20\n        /* \"#utility.yul\":8325:8378   */\n      tag_333\n        /* \"#utility.yul\":8370:8377   */\n      dup6\n        /* \"#utility.yul\":8361:8367   */\n      dup3\n        /* \"#utility.yul\":8350:8359   */\n      dup7\n        /* \"#utility.yul\":8346:8368   */\n      add\n        /* \"#utility.yul\":8325:8378   */\n      tag_198\n      jump\t// in\n    tag_333:\n        /* \"#utility.yul\":8315:8378   */\n      swap2\n      pop\n        /* \"#utility.yul\":8270:8388   */\n      pop\n        /* \"#utility.yul\":7921:8395   */\n      swap3\n      pop\n      swap3\n      swap1\n      pop\n      jump\t// out\n        /* \"#utility.yul\":8401:8574   */\n    tag_199:\n        /* \"#utility.yul\":8541:8566   */\n      0x43616d706961676e20646f6573206e6f74206578697473000000000000000000\n        /* \"#utility.yul\":8537:8538   */\n      0x00\n        /* \"#utility.yul\":8529:8535   */\n      dup3\n        /* \"#utility.yul\":8525:8539   */\n      add\n        /* \"#utility.yul\":8518:8567   */\n      mstore\n        /* \"#utility.yul\":8401:8574   */\n      pop\n      jump\t// out\n        /* \"#utility.yul\":8580:8946   */\n    tag_200:\n        /* \"#utility.yul\":8722:8725   */\n      0x00\n        /* \"#utility.yul\":8743:8810   */\n      tag_336\n        /* \"#utility.yul\":8807:8809   */\n      0x17\n        /* \"#utility.yul\":8802:8805   */\n      dup4\n        /* \"#utility.yul\":8743:8810   */\n      tag_181\n      jump\t// in\n    tag_336:\n        /* \"#utility.yul\":8736:8810   */\n      swap2\n      pop\n        /* \"#utility.yul\":8819:8912   */\n      tag_337\n        /* \"#utility.yul\":8908:8911   */\n      dup3\n        /* \"#utility.yul\":8819:8912   */\n      tag_199\n      jump\t// in\n    tag_337:\n        /* \"#utility.yul\":8937:8939   */\n      0x20\n        /* \"#utility.yul\":8932:8935   */\n      dup3\n        /* \"#utility.yul\":8928:8940   */\n      add\n        /* \"#utility.yul\":8921:8940   */\n      swap1\n      pop\n        /* \"#utility.yul\":8580:8946   */\n      swap2\n      swap1\n      pop\n      jump\t// out\n        /* \"#utility.yul\":8952:9371   */\n    tag_59:\n        /* \"#utility.yul\":9118:9122   */\n      0x00\n        /* \"#utility.yul\":9156:9158   */\n      0x20\n        /* \"#utility.yul\":9145:9154   */\n      dup3\n        /* \"#utility.yul\":9141:9159   */\n      add\n        /* \"#utility.yul\":9133:9159   */\n      swap1\n      pop\n        /* \"#utility.yul\":9205:9214   */\n      dup2\n        /* \"#utility.yul\":9199:9203   */\n      dup2\n        /* \"#utility.yul\":9195:9215   */\n      sub\n        /* \"#utility.yul\":9191:9192   */\n      0x00\n        /* \"#utility.yul\":9180:9189   */\n      dup4\n        /* \"#utility.yul\":9176:9193   */\n      add\n        /* \"#utility.yul\":9169:9216   */\n      mstore\n        /* \"#utility.yul\":9233:9364   */\n      tag_339\n        /* \"#utility.yul\":9359:9363   */\n      dup2\n        /* \"#utility.yul\":9233:9364   */\n      tag_200\n      jump\t// in\n    tag_339:\n        /* \"#utility.yul\":9225:9364   */\n      swap1\n      pop\n        /* \"#utility.yul\":8952:9371   */\n      swap2\n      swap1\n      pop\n      jump\t// out\n        /* \"#utility.yul\":9377:9547   */\n    tag_201:\n        /* \"#utility.yul\":9517:9539   */\n      0x4e6f742043616d706961676e2063726561746f72000000000000000000000000\n        /* \"#utility.yul\":9513:9514   */\n      0x00\n        /* \"#utility.yul\":9505:9511   */\n      dup3\n        /* \"#utility.yul\":9501:9515   */\n      add\n        /* \"#utility.yul\":9494:9540   */\n      mstore\n        /* \"#utility.yul\":9377:9547   */\n      pop\n      jump\t// out\n        /* \"#utility.yul\":9553:9919   */\n    tag_202:\n        /* \"#utility.yul\":9695:9698   */\n      0x00\n        /* \"#utility.yul\":9716:9783   */\n      tag_342\n        /* \"#utility.yul\":9780:9782   */\n      0x14\n        /* \"#utility.yul\":9775:9778   */\n      dup4\n        /* \"#utility.yul\":9716:9783   */\n      tag_181\n      jump\t// in\n    tag_342:\n        /* \"#utility.yul\":9709:9783   */\n      swap2\n      pop\n        /* \"#utility.yul\":9792:9885   */\n      tag_343\n        /* \"#utility.yul\":9881:9884   */\n      dup3\n        /* \"#utility.yul\":9792:9885   */\n      tag_201\n      jump\t// in\n    tag_343:\n        /* \"#utility.yul\":9910:9912   */\n      0x20\n        /* \"#utility.yul\":9905:9908   */\n      dup3\n        /* \"#utility.yul\":9901:9913   */\n      add\n        /* \"#utility.yul\":9894:9913   */\n      swap1\n      pop\n        /* \"#utility.yul\":9553:9919   */\n      swap2\n      swap1\n      pop\n      jump\t// out\n        /* \"#utility.yul\":9925:10344   */\n    tag_63:\n        /* \"#utility.yul\":10091:10095   */\n      0x00\n        /* \"#utility.yul\":10129:10131   */\n      0x20\n        /* \"#utility.yul\":10118:10127   */\n      dup3\n        /* \"#utility.yul\":10114:10132   */\n      add\n        /* \"#utility.yul\":10106:10132   */\n      swap1\n      pop\n        /* \"#utility.yul\":10178:10187   */\n      dup2\n        /* \"#utility.yul\":10172:10176   */\n      dup2\n        /* \"#utility.yul\":10168:10188   */\n      sub\n        /* \"#utility.yul\":10164:10165   */\n      0x00\n        /* \"#utility.yul\":10153:10162   */\n      dup4\n        /* \"#utility.yul\":10149:10166   */\n      add\n        /* \"#utility.yul\":10142:10189   */\n      mstore\n        /* \"#utility.yul\":10206:10337   */\n      tag_345\n        /* \"#utility.yul\":10332:10336   */\n      dup2\n        /* \"#utility.yul\":10206:10337   */\n      tag_202\n      jump\t// in\n    tag_345:\n        /* \"#utility.yul\":10198:10337   */\n      swap1\n      pop\n        /* \"#utility.yul\":9925:10344   */\n      swap2\n      swap1\n      pop\n      jump\t// out\n        /* \"#utility.yul\":10350:10522   */\n    tag_203:\n        /* \"#utility.yul\":10490:10514   */\n      0x43616d706169676e73207374696c6c2041637469766500000000000000000000\n        /* \"#utility.yul\":10486:10487   */\n      0x00\n        /* \"#utility.yul\":10478:10484   */\n      dup3\n        /* \"#utility.yul\":10474:10488   */\n      add\n        /* \"#utility.yul\":10467:10515   */\n      mstore\n        /* \"#utility.yul\":10350:10522   */\n      pop\n      jump\t// out\n        /* \"#utility.yul\":10528:10894   */\n    tag_204:\n        /* \"#utility.yul\":10670:10673   */\n      0x00\n        /* \"#utility.yul\":10691:10758   */\n      tag_348\n        /* \"#utility.yul\":10755:10757   */\n      0x16\n        /* \"#utility.yul\":10750:10753   */\n      dup4\n        /* \"#utility.yul\":10691:10758   */\n      tag_181\n      jump\t// in\n    tag_348:\n        /* \"#utility.yul\":10684:10758   */\n      swap2\n      pop\n        /* \"#utility.yul\":10767:10860   */\n      tag_349\n        /* \"#utility.yul\":10856:10859   */\n      dup3\n        /* \"#utility.yul\":10767:10860   */\n      tag_203\n      jump\t// in\n    tag_349:\n        /* \"#utility.yul\":10885:10887   */\n      0x20\n        /* \"#utility.yul\":10880:10883   */\n      dup3\n        /* \"#utility.yul\":10876:10888   */\n      add\n        /* \"#utility.yul\":10869:10888   */\n      swap1\n      pop\n        /* \"#utility.yul\":10528:10894   */\n      swap2\n      swap1\n      pop\n      jump\t// out\n        /* \"#utility.yul\":10900:11319   */\n    tag_67:\n        /* \"#utility.yul\":11066:11070   */\n      0x00\n        /* \"#utility.yul\":11104:11106   */\n      0x20\n        /* \"#utility.yul\":11093:11102   */\n      dup3\n        /* \"#utility.yul\":11089:11107   */\n      add\n        /* \"#utility.yul\":11081:11107   */\n      swap1\n      pop\n        /* \"#utility.yul\":11153:11162   */\n      dup2\n        /* \"#utility.yul\":11147:11151   */\n      dup2\n        /* \"#utility.yul\":11143:11163   */\n      sub\n        /* \"#utility.yul\":11139:11140   */\n      0x00\n        /* \"#utility.yul\":11128:11137   */\n      dup4\n        /* \"#utility.yul\":11124:11141   */\n      add\n        /* \"#utility.yul\":11117:11164   */\n      mstore\n        /* \"#utility.yul\":11181:11312   */\n      tag_351\n        /* \"#utility.yul\":11307:11311   */\n      dup2\n        /* \"#utility.yul\":11181:11312   */\n      tag_204\n      jump\t// in\n    tag_351:\n        /* \"#utility.yul\":11173:11312   */\n      swap1\n      pop\n        /* \"#utility.yul\":10900:11319   */\n      swap2\n      swap1\n      pop\n      jump\t// out\n        /* \"#utility.yul\":11325:11495   */\n    tag_205:\n        /* \"#utility.yul\":11465:11487   */\n      0x46756e64696e6720676f616c206e6f7420796574000000000000000000000000\n        /* \"#utility.yul\":11461:11462   */\n      0x00\n        /* \"#utility.yul\":11453:11459   */\n      dup3\n        /* \"#utility.yul\":11449:11463   */\n      add\n        /* \"#utility.yul\":11442:11488   */\n      mstore\n        /* \"#utility.yul\":11325:11495   */\n      pop\n      jump\t// out\n        /* \"#utility.yul\":11501:11867   */\n    tag_206:\n        /* \"#utility.yul\":11643:11646   */\n      0x00\n        /* \"#utility.yul\":11664:11731   */\n      tag_354\n        /* \"#utility.yul\":11728:11730   */\n      0x14\n        /* \"#utility.yul\":11723:11726   */\n      dup4\n        /* \"#utility.yul\":11664:11731   */\n      tag_181\n      jump\t// in\n    tag_354:\n        /* \"#utility.yul\":11657:11731   */\n      swap2\n      pop\n        /* \"#utility.yul\":11740:11833   */\n      tag_355\n        /* \"#utility.yul\":11829:11832   */\n      dup3\n        /* \"#utility.yul\":11740:11833   */\n      tag_205\n      jump\t// in\n    tag_355:\n        /* \"#utility.yul\":11858:11860   */\n      0x20\n        /* \"#utility.yul\":11853:11856   */\n      dup3\n        /* \"#utility.yul\":11849:11861   */\n      add\n        /* \"#utility.yul\":11842:11861   */\n      swap1\n      pop\n        /* \"#utility.yul\":11501:11867   */\n      swap2\n      swap1\n      pop\n      jump\t// out\n        /* \"#utility.yul\":11873:12292   */\n    tag_71:\n        /* \"#utility.yul\":12039:12043   */\n      0x00\n        /* \"#utility.yul\":12077:12079   */\n      0x20\n        /* \"#utility.yul\":12066:12075   */\n      dup3\n        /* \"#utility.yul\":12062:12080   */\n      add\n        /* \"#utility.yul\":12054:12080   */\n      swap1\n      pop\n        /* \"#utility.yul\":12126:12135   */\n      dup2\n        /* \"#utility.yul\":12120:12124   */\n      dup2\n        /* \"#utility.yul\":12116:12136   */\n      sub\n        /* \"#utility.yul\":12112:12113   */\n      0x00\n        /* \"#utility.yul\":12101:12110   */\n      dup4\n        /* \"#utility.yul\":12097:12114   */\n      add\n        /* \"#utility.yul\":12090:12137   */\n      mstore\n        /* \"#utility.yul\":12154:12285   */\n      tag_357\n        /* \"#utility.yul\":12280:12284   */\n      dup2\n        /* \"#utility.yul\":12154:12285   */\n      tag_206\n      jump\t// in\n    tag_357:\n        /* \"#utility.yul\":12146:12285   */\n      swap1\n      pop\n        /* \"#utility.yul\":11873:12292   */\n      swap2\n      swap1\n      pop\n      jump\t// out\n        /* \"#utility.yul\":12298:12469   */\n    tag_207:\n        /* \"#utility.yul\":12438:12461   */\n      0x46756e647320616c726561647920636c61696d65640000000000000000000000\n        /* \"#utility.yul\":12434:12435   */\n      0x00\n        /* \"#utility.yul\":12426:12432   */\n      dup3\n        /* \"#utility.yul\":12422:12436   */\n      add\n        /* \"#utility.yul\":12415:12462   */\n      mstore\n        /* \"#utility.yul\":12298:12469   */\n      pop\n      jump\t// out\n        /* \"#utility.yul\":12475:12841   */\n    tag_208:\n        /* \"#utility.yul\":12617:12620   */\n      0x00\n        /* \"#utility.yul\":12638:12705   */\n      tag_360\n        /* \"#utility.yul\":12702:12704   */\n      0x15\n        /* \"#utility.yul\":12697:12700   */\n      dup4\n        /* \"#utility.yul\":12638:12705   */\n      tag_181\n      jump\t// in\n    tag_360:\n        /* \"#utility.yul\":12631:12705   */\n      swap2\n      pop\n        /* \"#utility.yul\":12714:12807   */\n      tag_361\n        /* \"#utility.yul\":12803:12806   */\n      dup3\n        /* \"#utility.yul\":12714:12807   */\n      tag_207\n      jump\t// in\n    tag_361:\n        /* \"#utility.yul\":12832:12834   */\n      0x20\n        /* \"#utility.yul\":12827:12830   */\n      dup3\n        /* \"#utility.yul\":12823:12835   */\n      add\n        /* \"#utility.yul\":12816:12835   */\n      swap1\n      pop\n        /* \"#utility.yul\":12475:12841   */\n      swap2\n      swap1\n      pop\n      jump\t// out\n        /* \"#utility.yul\":12847:13266   */\n    tag_74:\n        /* \"#utility.yul\":13013:13017   */\n      0x00\n        /* \"#utility.yul\":13051:13053   */\n      0x20\n        /* \"#utility.yul\":13040:13049   */\n      dup3\n        /* \"#utility.yul\":13036:13054   */\n      add\n        /* \"#utility.yul\":13028:13054   */\n      swap1\n      pop\n        /* \"#utility.yul\":13100:13109   */\n      dup2\n        /* \"#utility.yul\":13094:13098   */\n      dup2\n        /* \"#utility.yul\":13090:13110   */\n      sub\n        /* \"#utility.yul\":13086:13087   */\n      0x00\n        /* \"#utility.yul\":13075:13084   */\n      dup4\n        /* \"#utility.yul\":13071:13088   */\n      add\n        /* \"#utility.yul\":13064:13111   */\n      mstore\n        /* \"#utility.yul\":13128:13259   */\n      tag_363\n        /* \"#utility.yul\":13254:13258   */\n      dup2\n        /* \"#utility.yul\":13128:13259   */\n      tag_208\n      jump\t// in\n    tag_363:\n        /* \"#utility.yul\":13120:13259   */\n      swap1\n      pop\n        /* \"#utility.yul\":12847:13266   */\n      swap2\n      swap1\n      pop\n      jump\t// out\n        /* \"#utility.yul\":13272:13442   */\n    tag_209:\n        /* \"#utility.yul\":13412:13434   */\n      0x46756e64696e6720676f616c20776173206d6574000000000000000000000000\n        /* \"#utility.yul\":13408:13409   */\n      0x00\n        /* \"#utility.yul\":13400:13406   */\n      dup3\n        /* \"#utility.yul\":13396:13410   */\n      add\n        /* \"#utility.yul\":13389:13435   */\n      mstore\n        /* \"#utility.yul\":13272:13442   */\n      pop\n      jump\t// out\n        /* \"#utility.yul\":13448:13814   */\n    tag_210:\n        /* \"#utility.yul\":13590:13593   */\n      0x00\n        /* \"#utility.yul\":13611:13678   */\n      tag_366\n        /* \"#utility.yul\":13675:13677   */\n      0x14\n        /* \"#utility.yul\":13670:13673   */\n      dup4\n        /* \"#utility.yul\":13611:13678   */\n      tag_181\n      jump\t// in\n    tag_366:\n        /* \"#utility.yul\":13604:13678   */\n      swap2\n      pop\n        /* \"#utility.yul\":13687:13780   */\n      tag_367\n        /* \"#utility.yul\":13776:13779   */\n      dup3\n        /* \"#utility.yul\":13687:13780   */\n      tag_209\n      jump\t// in\n    tag_367:\n        /* \"#utility.yul\":13805:13807   */\n      0x20\n        /* \"#utility.yul\":13800:13803   */\n      dup3\n        /* \"#utility.yul\":13796:13808   */\n      add\n        /* \"#utility.yul\":13789:13808   */\n      swap1\n      pop\n        /* \"#utility.yul\":13448:13814   */\n      swap2\n      swap1\n      pop\n      jump\t// out\n        /* \"#utility.yul\":13820:14239   */\n    tag_87:\n        /* \"#utility.yul\":13986:13990   */\n      0x00\n        /* \"#utility.yul\":14024:14026   */\n      0x20\n        /* \"#utility.yul\":14013:14022   */\n      dup3\n        /* \"#utility.yul\":14009:14027   */\n      add\n        /* \"#utility.yul\":14001:14027   */\n      swap1\n      pop\n        /* \"#utility.yul\":14073:14082   */\n      dup2\n        /* \"#utility.yul\":14067:14071   */\n      dup2\n        /* \"#utility.yul\":14063:14083   */\n      sub\n        /* \"#utility.yul\":14059:14060   */\n      0x00\n        /* \"#utility.yul\":14048:14057   */\n      dup4\n        /* \"#utility.yul\":14044:14061   */\n      add\n        /* \"#utility.yul\":14037:14084   */\n      mstore\n        /* \"#utility.yul\":14101:14232   */\n      tag_369\n        /* \"#utility.yul\":14227:14231   */\n      dup2\n        /* \"#utility.yul\":14101:14232   */\n      tag_210\n      jump\t// in\n    tag_369:\n        /* \"#utility.yul\":14093:14232   */\n      swap1\n      pop\n        /* \"#utility.yul\":13820:14239   */\n      swap2\n      swap1\n      pop\n      jump\t// out\n        /* \"#utility.yul\":14245:14420   */\n    tag_211:\n        /* \"#utility.yul\":14385:14412   */\n      0x4e6f20636f6e747269627574696f6e20746f20726566756e6400000000000000\n        /* \"#utility.yul\":14381:14382   */\n      0x00\n        /* \"#utility.yul\":14373:14379   */\n      dup3\n        /* \"#utility.yul\":14369:14383   */\n      add\n        /* \"#utility.yul\":14362:14413   */\n      mstore\n        /* \"#utility.yul\":14245:14420   */\n      pop\n      jump\t// out\n        /* \"#utility.yul\":14426:14792   */\n    tag_212:\n        /* \"#utility.yul\":14568:14571   */\n      0x00\n        /* \"#utility.yul\":14589:14656   */\n      tag_372\n        /* \"#utility.yul\":14653:14655   */\n      0x19\n        /* \"#utility.yul\":14648:14651   */\n      dup4\n        /* \"#utility.yul\":14589:14656   */\n      tag_181\n      jump\t// in\n    tag_372:\n        /* \"#utility.yul\":14582:14656   */\n      swap2\n      pop\n        /* \"#utility.yul\":14665:14758   */\n      tag_373\n        /* \"#utility.yul\":14754:14757   */\n      dup3\n        /* \"#utility.yul\":14665:14758   */\n      tag_211\n      jump\t// in\n    tag_373:\n        /* \"#utility.yul\":14783:14785   */\n      0x20\n        /* \"#utility.yul\":14778:14781   */\n      dup3\n        /* \"#utility.yul\":14774:14786   */\n      add\n        /* \"#utility.yul\":14767:14786   */\n      swap1\n      pop\n        /* \"#utility.yul\":14426:14792   */\n      swap2\n      swap1\n      pop\n      jump\t// out\n        /* \"#utility.yul\":14798:15217   */\n    tag_90:\n        /* \"#utility.yul\":14964:14968   */\n      0x00\n        /* \"#utility.yul\":15002:15004   */\n      0x20\n        /* \"#utility.yul\":14991:15000   */\n      dup3\n        /* \"#utility.yul\":14987:15005   */\n      add\n        /* \"#utility.yul\":14979:15005   */\n      swap1\n      pop\n        /* \"#utility.yul\":15051:15060   */\n      dup2\n        /* \"#utility.yul\":15045:15049   */\n      dup2\n        /* \"#utility.yul\":15041:15061   */\n      sub\n        /* \"#utility.yul\":15037:15038   */\n      0x00\n        /* \"#utility.yul\":15026:15035   */\n      dup4\n        /* \"#utility.yul\":15022:15039   */\n      add\n        /* \"#utility.yul\":15015:15062   */\n      mstore\n        /* \"#utility.yul\":15079:15210   */\n      tag_375\n        /* \"#utility.yul\":15205:15209   */\n      dup2\n        /* \"#utility.yul\":15079:15210   */\n      tag_212\n      jump\t// in\n    tag_375:\n        /* \"#utility.yul\":15071:15210   */\n      swap1\n      pop\n        /* \"#utility.yul\":14798:15217   */\n      swap2\n      swap1\n      pop\n      jump\t// out\n        /* \"#utility.yul\":15223:15665   */\n    tag_94:\n        /* \"#utility.yul\":15372:15376   */\n      0x00\n        /* \"#utility.yul\":15410:15412   */\n      0x60\n        /* \"#utility.yul\":15399:15408   */\n      dup3\n        /* \"#utility.yul\":15395:15413   */\n      add\n        /* \"#utility.yul\":15387:15413   */\n      swap1\n      pop\n        /* \"#utility.yul\":15423:15494   */\n      tag_377\n        /* \"#utility.yul\":15491:15492   */\n      0x00\n        /* \"#utility.yul\":15480:15489   */\n      dup4\n        /* \"#utility.yul\":15476:15493   */\n      add\n        /* \"#utility.yul\":15467:15473   */\n      dup7\n        /* \"#utility.yul\":15423:15494   */\n      tag_185\n      jump\t// in\n    tag_377:\n        /* \"#utility.yul\":15504:15576   */\n      tag_378\n        /* \"#utility.yul\":15572:15574   */\n      0x20\n        /* \"#utility.yul\":15561:15570   */\n      dup4\n        /* \"#utility.yul\":15557:15575   */\n      add\n        /* \"#utility.yul\":15548:15554   */\n      dup6\n        /* \"#utility.yul\":15504:15576   */\n      tag_179\n      jump\t// in\n    tag_378:\n        /* \"#utility.yul\":15586:15658   */\n      tag_379\n        /* \"#utility.yul\":15654:15656   */\n      0x40\n        /* \"#utility.yul\":15643:15652   */\n      dup4\n        /* \"#utility.yul\":15639:15657   */\n      add\n        /* \"#utility.yul\":15630:15636   */\n      dup5\n        /* \"#utility.yul\":15586:15658   */\n      tag_185\n      jump\t// in\n    tag_379:\n        /* \"#utility.yul\":15223:15665   */\n      swap5\n      swap4\n      pop\n      pop\n      pop\n      pop\n      jump\t// out\n        /* \"#utility.yul\":15671:15851   */\n    tag_213:\n        /* \"#utility.yul\":15719:15796   */\n      0x4e487b7100000000000000000000000000000000000000000000000000000000\n        /* \"#utility.yul\":15716:15717   */\n      0x00\n        /* \"#utility.yul\":15709:15797   */\n      mstore\n        /* \"#utility.yul\":15816:15820   */\n      0x22\n        /* \"#utility.yul\":15813:15814   */\n      0x04\n        /* \"#utility.yul\":15806:15821   */\n      mstore\n        /* \"#utility.yul\":15840:15844   */\n      0x24\n        /* \"#utility.yul\":15837:15838   */\n      0x00\n        /* \"#utility.yul\":15830:15845   */\n      revert\n        /* \"#utility.yul\":15857:16177   */\n    tag_96:\n        /* \"#utility.yul\":15901:15907   */\n      0x00\n        /* \"#utility.yul\":15938:15939   */\n      0x02\n        /* \"#utility.yul\":15932:15936   */\n      dup3\n        /* \"#utility.yul\":15928:15940   */\n      div\n        /* \"#utility.yul\":15918:15940   */\n      swap1\n      pop\n        /* \"#utility.yul\":15985:15986   */\n      0x01\n        /* \"#utility.yul\":15979:15983   */\n      dup3\n        /* \"#utility.yul\":15975:15987   */\n      and\n        /* \"#utility.yul\":16006:16024   */\n      dup1\n        /* \"#utility.yul\":15996:16077   */\n      tag_382\n      jumpi\n        /* \"#utility.yul\":16062:16066   */\n      0x7f\n        /* \"#utility.yul\":16054:16060   */\n      dup3\n        /* \"#utility.yul\":16050:16067   */\n      and\n        /* \"#utility.yul\":16040:16067   */\n      swap2\n      pop\n        /* \"#utility.yul\":15996:16077   */\n    tag_382:\n        /* \"#utility.yul\":16124:16126   */\n      0x20\n        /* \"#utility.yul\":16116:16122   */\n      dup3\n        /* \"#utility.yul\":16113:16127   */\n      lt\n        /* \"#utility.yul\":16093:16111   */\n      dup2\n        /* \"#utility.yul\":16090:16128   */\n      sub\n        /* \"#utility.yul\":16087:16171   */\n      tag_383\n      jumpi\n        /* \"#utility.yul\":16143:16161   */\n      tag_384\n      tag_213\n      jump\t// in\n    tag_384:\n        /* \"#utility.yul\":16087:16171   */\n    tag_383:\n        /* \"#utility.yul\":15908:16177   */\n      pop\n        /* \"#utility.yul\":15857:16177   */\n      swap2\n      swap1\n      pop\n      jump\t// out\n        /* \"#utility.yul\":16183:16351   */\n    tag_214:\n        /* \"#utility.yul\":16323:16343   */\n      0x43616d706169676e2068617320656e6465640000000000000000000000000000\n        /* \"#utility.yul\":16319:16320   */\n      0x00\n        /* \"#utility.yul\":16311:16317   */\n      dup3\n        /* \"#utility.yul\":16307:16321   */\n      add\n        /* \"#utility.yul\":16300:16344   */\n      mstore\n        /* \"#utility.yul\":16183:16351   */\n      pop\n      jump\t// out\n        /* \"#utility.yul\":16357:16723   */\n    tag_215:\n        /* \"#utility.yul\":16499:16502   */\n      0x00\n        /* \"#utility.yul\":16520:16587   */\n      tag_387\n        /* \"#utility.yul\":16584:16586   */\n      0x12\n        /* \"#utility.yul\":16579:16582   */\n      dup4\n        /* \"#utility.yul\":16520:16587   */\n      tag_181\n      jump\t// in\n    tag_387:\n        /* \"#utility.yul\":16513:16587   */\n      swap2\n      pop\n        /* \"#utility.yul\":16596:16689   */\n      tag_388\n        /* \"#utility.yul\":16685:16688   */\n      dup3\n        /* \"#utility.yul\":16596:16689   */\n      tag_214\n      jump\t// in\n    tag_388:\n        /* \"#utility.yul\":16714:16716   */\n      0x20\n        /* \"#utility.yul\":16709:16712   */\n      dup3\n        /* \"#utility.yul\":16705:16717   */\n      add\n        /* \"#utility.yul\":16698:16717   */\n      swap1\n      pop\n        /* \"#utility.yul\":16357:16723   */\n      swap2\n      swap1\n      pop\n      jump\t// out\n        /* \"#utility.yul\":16729:17148   */\n    tag_126:\n        /* \"#utility.yul\":16895:16899   */\n      0x00\n        /* \"#utility.yul\":16933:16935   */\n      0x20\n        /* \"#utility.yul\":16922:16931   */\n      dup3\n        /* \"#utility.yul\":16918:16936   */\n      add\n        /* \"#utility.yul\":16910:16936   */\n      swap1\n      pop\n        /* \"#utility.yul\":16982:16991   */\n      dup2\n        /* \"#utility.yul\":16976:16980   */\n      dup2\n        /* \"#utility.yul\":16972:16992   */\n      sub\n        /* \"#utility.yul\":16968:16969   */\n      0x00\n        /* \"#utility.yul\":16957:16966   */\n      dup4\n        /* \"#utility.yul\":16953:16970   */\n      add\n        /* \"#utility.yul\":16946:16993   */\n      mstore\n        /* \"#utility.yul\":17010:17141   */\n      tag_390\n        /* \"#utility.yul\":17136:17140   */\n      dup2\n        /* \"#utility.yul\":17010:17141   */\n      tag_215\n      jump\t// in\n    tag_390:\n        /* \"#utility.yul\":17002:17141   */\n      swap1\n      pop\n        /* \"#utility.yul\":16729:17148   */\n      swap2\n      swap1\n      pop\n      jump\t// out\n        /* \"#utility.yul\":17154:17318   */\n    tag_216:\n        /* \"#utility.yul\":17294:17310   */\n      0x496e76616c696420616d6f756e74000000000000000000000000000000000000\n        /* \"#utility.yul\":17290:17291   */\n      0x00\n        /* \"#utility.yul\":17282:17288   */\n      dup3\n        /* \"#utility.yul\":17278:17292   */\n      add\n        /* \"#utility.yul\":17271:17311   */\n      mstore\n        /* \"#utility.yul\":17154:17318   */\n      pop\n      jump\t// out\n        /* \"#utility.yul\":17324:17690   */\n    tag_217:\n        /* \"#utility.yul\":17466:17469   */\n      0x00\n        /* \"#utility.yul\":17487:17554   */\n      tag_393\n        /* \"#utility.yul\":17551:17553   */\n      0x0e\n        /* \"#utility.yul\":17546:17549   */\n      dup4\n        /* \"#utility.yul\":17487:17554   */\n      tag_181\n      jump\t// in\n    tag_393:\n        /* \"#utility.yul\":17480:17554   */\n      swap2\n      pop\n        /* \"#utility.yul\":17563:17656   */\n      tag_394\n        /* \"#utility.yul\":17652:17655   */\n      dup3\n        /* \"#utility.yul\":17563:17656   */\n      tag_216\n      jump\t// in\n    tag_394:\n        /* \"#utility.yul\":17681:17683   */\n      0x20\n        /* \"#utility.yul\":17676:17679   */\n      dup3\n        /* \"#utility.yul\":17672:17684   */\n      add\n        /* \"#utility.yul\":17665:17684   */\n      swap1\n      pop\n        /* \"#utility.yul\":17324:17690   */\n      swap2\n      swap1\n      pop\n      jump\t// out\n        /* \"#utility.yul\":17696:18115   */\n    tag_131:\n        /* \"#utility.yul\":17862:17866   */\n      0x00\n        /* \"#utility.yul\":17900:17902   */\n      0x20\n        /* \"#utility.yul\":17889:17898   */\n      dup3\n        /* \"#utility.yul\":17885:17903   */\n      add\n        /* \"#utility.yul\":17877:17903   */\n      swap1\n      pop\n        /* \"#utility.yul\":17949:17958   */\n      dup2\n        /* \"#utility.yul\":17943:17947   */\n      dup2\n        /* \"#utility.yul\":17939:17959   */\n      sub\n        /* \"#utility.yul\":17935:17936   */\n      0x00\n        /* \"#utility.yul\":17924:17933   */\n      dup4\n        /* \"#utility.yul\":17920:17937   */\n      add\n        /* \"#utility.yul\":17913:17960   */\n      mstore\n        /* \"#utility.yul\":17977:18108   */\n      tag_396\n        /* \"#utility.yul\":18103:18107   */\n      dup2\n        /* \"#utility.yul\":17977:18108   */\n      tag_217\n      jump\t// in\n    tag_396:\n        /* \"#utility.yul\":17969:18108   */\n      swap1\n      pop\n        /* \"#utility.yul\":17696:18115   */\n      swap2\n      swap1\n      pop\n      jump\t// out\n        /* \"#utility.yul\":18121:18301   */\n    tag_218:\n        /* \"#utility.yul\":18169:18246   */\n      0x4e487b7100000000000000000000000000000000000000000000000000000000\n        /* \"#utility.yul\":18166:18167   */\n      0x00\n        /* \"#utility.yul\":18159:18247   */\n      mstore\n        /* \"#utility.yul\":18266:18270   */\n      0x11\n        /* \"#utility.yul\":18263:18264   */\n      0x04\n        /* \"#utility.yul\":18256:18271   */\n      mstore\n        /* \"#utility.yul\":18290:18294   */\n      0x24\n        /* \"#utility.yul\":18287:18288   */\n      0x00\n        /* \"#utility.yul\":18280:18295   */\n      revert\n        /* \"#utility.yul\":18307:18501   */\n    tag_133:\n        /* \"#utility.yul\":18347:18351   */\n      0x00\n        /* \"#utility.yul\":18367:18387   */\n      tag_399\n        /* \"#utility.yul\":18385:18386   */\n      dup3\n        /* \"#utility.yul\":18367:18387   */\n      tag_174\n      jump\t// in\n    tag_399:\n        /* \"#utility.yul\":18362:18387   */\n      swap2\n      pop\n        /* \"#utility.yul\":18401:18421   */\n      tag_400\n        /* \"#utility.yul\":18419:18420   */\n      dup4\n        /* \"#utility.yul\":18401:18421   */\n      tag_174\n      jump\t// in\n    tag_400:\n        /* \"#utility.yul\":18396:18421   */\n      swap3\n      pop\n        /* \"#utility.yul\":18445:18446   */\n      dup3\n        /* \"#utility.yul\":18442:18443   */\n      dup3\n        /* \"#utility.yul\":18438:18447   */\n      sub\n        /* \"#utility.yul\":18430:18447   */\n      swap1\n      pop\n        /* \"#utility.yul\":18469:18470   */\n      dup2\n        /* \"#utility.yul\":18463:18467   */\n      dup2\n        /* \"#utility.yul\":18460:18471   */\n      gt\n        /* \"#utility.yul\":18457:18494   */\n      iszero\n      tag_401\n      jumpi\n        /* \"#utility.yul\":18474:18492   */\n      tag_402\n      tag_218\n      jump\t// in\n    tag_402:\n        /* \"#utility.yul\":18457:18494   */\n    tag_401:\n        /* \"#utility.yul\":18307:18501   */\n      swap3\n      swap2\n      pop\n      pop\n      jump\t// out\n        /* \"#utility.yul\":18507:18680   */\n    tag_219:\n        /* \"#utility.yul\":18647:18672   */\n      0x4d75737420706c65646765206d6f7265207468616e2030000000000000000000\n        /* \"#utility.yul\":18643:18644   */\n      0x00\n        /* \"#utility.yul\":18635:18641   */\n      dup3\n        /* \"#utility.yul\":18631:18645   */\n      add\n        /* \"#utility.yul\":18624:18673   */\n      mstore\n        /* \"#utility.yul\":18507:18680   */\n      pop\n      jump\t// out\n        /* \"#utility.yul\":18686:19052   */\n    tag_220:\n        /* \"#utility.yul\":18828:18831   */\n      0x00\n        /* \"#utility.yul\":18849:18916   */\n      tag_405\n        /* \"#utility.yul\":18913:18915   */\n      0x17\n        /* \"#utility.yul\":18908:18911   */\n      dup4\n        /* \"#utility.yul\":18849:18916   */\n      tag_181\n      jump\t// in\n    tag_405:\n        /* \"#utility.yul\":18842:18916   */\n      swap2\n      pop\n        /* \"#utility.yul\":18925:19018   */\n      tag_406\n        /* \"#utility.yul\":19014:19017   */\n      dup3\n        /* \"#utility.yul\":18925:19018   */\n      tag_219\n      jump\t// in\n    tag_406:\n        /* \"#utility.yul\":19043:19045   */\n      0x20\n        /* \"#utility.yul\":19038:19041   */\n      dup3\n        /* \"#utility.yul\":19034:19046   */\n      add\n        /* \"#utility.yul\":19027:19046   */\n      swap1\n      pop\n        /* \"#utility.yul\":18686:19052   */\n      swap2\n      swap1\n      pop\n      jump\t// out\n        /* \"#utility.yul\":19058:19477   */\n    tag_147:\n        /* \"#utility.yul\":19224:19228   */\n      0x00\n        /* \"#utility.yul\":19262:19264   */\n      0x20\n        /* \"#utility.yul\":19251:19260   */\n      dup3\n        /* \"#utility.yul\":19247:19265   */\n      add\n        /* \"#utility.yul\":19239:19265   */\n      swap1\n      pop\n        /* \"#utility.yul\":19311:19320   */\n      dup2\n        /* \"#utility.yul\":19305:19309   */\n      dup2\n        /* \"#utility.yul\":19301:19321   */\n      sub\n        /* \"#utility.yul\":19297:19298   */\n      0x00\n        /* \"#utility.yul\":19286:19295   */\n      dup4\n        /* \"#utility.yul\":19282:19299   */\n      add\n        /* \"#utility.yul\":19275:19322   */\n      mstore\n        /* \"#utility.yul\":19339:19470   */\n      tag_408\n        /* \"#utility.yul\":19465:19469   */\n      dup2\n        /* \"#utility.yul\":19339:19470   */\n      tag_220\n      jump\t// in\n    tag_408:\n        /* \"#utility.yul\":19331:19470   */\n      swap1\n      pop\n        /* \"#utility.yul\":19058:19477   */\n      swap2\n      swap1\n      pop\n      jump\t// out\n        /* \"#utility.yul\":19483:19674   */\n    tag_149:\n        /* \"#utility.yul\":19523:19526   */\n      0x00\n        /* \"#utility.yul\":19542:19562   */\n      tag_410\n        /* \"#utility.yul\":19560:19561   */\n      dup3\n        /* \"#utility.yul\":19542:19562   */\n      tag_174\n      jump\t// in\n    tag_410:\n        /* \"#utility.yul\":19537:19562   */\n      swap2\n      pop\n        /* \"#utility.yul\":19576:19596   */\n      tag_411\n        /* \"#utility.yul\":19594:19595   */\n      dup4\n        /* \"#utility.yul\":19576:19596   */\n      tag_174\n      jump\t// in\n    tag_411:\n        /* \"#utility.yul\":19571:19596   */\n      swap3\n      pop\n        /* \"#utility.yul\":19619:19620   */\n      dup3\n        /* \"#utility.yul\":19616:19617   */\n      dup3\n        /* \"#utility.yul\":19612:19621   */\n      add\n        /* \"#utility.yul\":19605:19621   */\n      swap1\n      pop\n        /* \"#utility.yul\":19640:19643   */\n      dup1\n        /* \"#utility.yul\":19637:19638   */\n      dup3\n        /* \"#utility.yul\":19634:19644   */\n      gt\n        /* \"#utility.yul\":19631:19667   */\n      iszero\n      tag_412\n      jumpi\n        /* \"#utility.yul\":19647:19665   */\n      tag_413\n      tag_218\n      jump\t// in\n    tag_413:\n        /* \"#utility.yul\":19631:19667   */\n    tag_412:\n        /* \"#utility.yul\":19483:19674   */\n      swap3\n      swap2\n      pop\n      pop\n      jump\t// out\n        /* \"#utility.yul\":19680:19857   */\n    tag_221:\n        /* \"#utility.yul\":19820:19849   */\n      0x476f616c206d7573742062652067726561746572207468616e20300000000000\n        /* \"#utility.yul\":19816:19817   */\n      0x00\n        /* \"#utility.yul\":19808:19814   */\n      dup3\n        /* \"#utility.yul\":19804:19818   */\n      add\n        /* \"#utility.yul\":19797:19850   */\n      mstore\n        /* \"#utility.yul\":19680:19857   */\n      pop\n      jump\t// out\n        /* \"#utility.yul\":19863:20229   */\n    tag_222:\n        /* \"#utility.yul\":20005:20008   */\n      0x00\n        /* \"#utility.yul\":20026:20093   */\n      tag_416\n        /* \"#utility.yul\":20090:20092   */\n      0x1b\n        /* \"#utility.yul\":20085:20088   */\n      dup4\n        /* \"#utility.yul\":20026:20093   */\n      tag_181\n      jump\t// in\n    tag_416:\n        /* \"#utility.yul\":20019:20093   */\n      swap2\n      pop\n        /* \"#utility.yul\":20102:20195   */\n      tag_417\n        /* \"#utility.yul\":20191:20194   */\n      dup3\n        /* \"#utility.yul\":20102:20195   */\n      tag_221\n      jump\t// in\n    tag_417:\n        /* \"#utility.yul\":20220:20222   */\n      0x20\n        /* \"#utility.yul\":20215:20218   */\n      dup3\n        /* \"#utility.yul\":20211:20223   */\n      add\n        /* \"#utility.yul\":20204:20223   */\n      swap1\n      pop\n        /* \"#utility.yul\":19863:20229   */\n      swap2\n      swap1\n      pop\n      jump\t// out\n        /* \"#utility.yul\":20235:20654   */\n    tag_155:\n        /* \"#utility.yul\":20401:20405   */\n      0x00\n        /* \"#utility.yul\":20439:20441   */\n      0x20\n        /* \"#utility.yul\":20428:20437   */\n      dup3\n        /* \"#utility.yul\":20424:20442   */\n      add\n        /* \"#utility.yul\":20416:20442   */\n      swap1\n      pop\n        /* \"#utility.yul\":20488:20497   */\n      dup2\n        /* \"#utility.yul\":20482:20486   */\n      dup2\n        /* \"#utility.yul\":20478:20498   */\n      sub\n        /* \"#utility.yul\":20474:20475   */\n      0x00\n        /* \"#utility.yul\":20463:20472   */\n      dup4\n        /* \"#utility.yul\":20459:20476   */\n      add\n        /* \"#utility.yul\":20452:20499   */\n      mstore\n        /* \"#utility.yul\":20516:20647   */\n      tag_419\n        /* \"#utility.yul\":20642:20646   */\n      dup2\n        /* \"#utility.yul\":20516:20647   */\n      tag_222\n      jump\t// in\n    tag_419:\n        /* \"#utility.yul\":20508:20647   */\n      swap1\n      pop\n        /* \"#utility.yul\":20235:20654   */\n      swap2\n      swap1\n      pop\n      jump\t// out\n        /* \"#utility.yul\":20660:20841   */\n    tag_223:\n        /* \"#utility.yul\":20800:20833   */\n      0x4475726174696f6e206d7573742062652067726561746572207468616e203000\n        /* \"#utility.yul\":20796:20797   */\n      0x00\n        /* \"#utility.yul\":20788:20794   */\n      dup3\n        /* \"#utility.yul\":20784:20798   */\n      add\n        /* \"#utility.yul\":20777:20834   */\n      mstore\n        /* \"#utility.yul\":20660:20841   */\n      pop\n      jump\t// out\n        /* \"#utility.yul\":20847:21213   */\n    tag_224:\n        /* \"#utility.yul\":20989:20992   */\n      0x00\n        /* \"#utility.yul\":21010:21077   */\n      tag_422\n        /* \"#utility.yul\":21074:21076   */\n      0x1f\n        /* \"#utility.yul\":21069:21072   */\n      dup4\n        /* \"#utility.yul\":21010:21077   */\n      tag_181\n      jump\t// in\n    tag_422:\n        /* \"#utility.yul\":21003:21077   */\n      swap2\n      pop\n        /* \"#utility.yul\":21086:21179   */\n      tag_423\n        /* \"#utility.yul\":21175:21178   */\n      dup3\n        /* \"#utility.yul\":21086:21179   */\n      tag_223\n      jump\t// in\n    tag_423:\n        /* \"#utility.yul\":21204:21206   */\n      0x20\n        /* \"#utility.yul\":21199:21202   */\n      dup3\n        /* \"#utility.yul\":21195:21207   */\n      add\n        /* \"#utility.yul\":21188:21207   */\n      swap1\n      pop\n        /* \"#utility.yul\":20847:21213   */\n      swap2\n      swap1\n      pop\n      jump\t// out\n        /* \"#utility.yul\":21219:21638   */\n    tag_158:\n        /* \"#utility.yul\":21385:21389   */\n      0x00\n        /* \"#utility.yul\":21423:21425   */\n      0x20\n        /* \"#utility.yul\":21412:21421   */\n      dup3\n        /* \"#utility.yul\":21408:21426   */\n      add\n        /* \"#utility.yul\":21400:21426   */\n      swap1\n      pop\n        /* \"#utility.yul\":21472:21481   */\n      dup2\n        /* \"#utility.yul\":21466:21470   */\n      dup2\n        /* \"#utility.yul\":21462:21482   */\n      sub\n        /* \"#utility.yul\":21458:21459   */\n      0x00\n        /* \"#utility.yul\":21447:21456   */\n      dup4\n        /* \"#utility.yul\":21443:21460   */\n      add\n        /* \"#utility.yul\":21436:21483   */\n      mstore\n        /* \"#utility.yul\":21500:21631   */\n      tag_425\n        /* \"#utility.yul\":21626:21630   */\n      dup2\n        /* \"#utility.yul\":21500:21631   */\n      tag_224\n      jump\t// in\n    tag_425:\n        /* \"#utility.yul\":21492:21631   */\n      swap1\n      pop\n        /* \"#utility.yul\":21219:21638   */\n      swap2\n      swap1\n      pop\n      jump\t// out\n        /* \"#utility.yul\":21644:21785   */\n    tag_225:\n        /* \"#utility.yul\":21693:21697   */\n      0x00\n        /* \"#utility.yul\":21716:21719   */\n      dup2\n        /* \"#utility.yul\":21708:21719   */\n      swap1\n      pop\n        /* \"#utility.yul\":21739:21742   */\n      dup2\n        /* \"#utility.yul\":21736:21737   */\n      0x00\n        /* \"#utility.yul\":21729:21743   */\n      mstore\n        /* \"#utility.yul\":21773:21777   */\n      0x20\n        /* \"#utility.yul\":21770:21771   */\n      0x00\n        /* \"#utility.yul\":21760:21778   */\n      keccak256\n        /* \"#utility.yul\":21752:21778   */\n      swap1\n      pop\n        /* \"#utility.yul\":21644:21785   */\n      swap2\n      swap1\n      pop\n      jump\t// out\n        /* \"#utility.yul\":21791:21884   */\n    tag_226:\n        /* \"#utility.yul\":21828:21834   */\n      0x00\n        /* \"#utility.yul\":21875:21877   */\n      0x20\n        /* \"#utility.yul\":21870:21872   */\n      0x1f\n        /* \"#utility.yul\":21863:21868   */\n      dup4\n        /* \"#utility.yul\":21859:21873   */\n      add\n        /* \"#utility.yul\":21855:21878   */\n      div\n        /* \"#utility.yul\":21845:21878   */\n      swap1\n      pop\n        /* \"#utility.yul\":21791:21884   */\n      swap2\n      swap1\n      pop\n      jump\t// out\n        /* \"#utility.yul\":21890:21997   */\n    tag_227:\n        /* \"#utility.yul\":21934:21942   */\n      0x00\n        /* \"#utility.yul\":21984:21989   */\n      dup3\n        /* \"#utility.yul\":21978:21982   */\n      dup3\n        /* \"#utility.yul\":21974:21990   */\n      shl\n        /* \"#utility.yul\":21953:21990   */\n      swap1\n      pop\n        /* \"#utility.yul\":21890:21997   */\n      swap3\n      swap2\n      pop\n      pop\n      jump\t// out\n        /* \"#utility.yul\":22003:22396   */\n    tag_228:\n        /* \"#utility.yul\":22072:22078   */\n      0x00\n        /* \"#utility.yul\":22122:22123   */\n      0x08\n        /* \"#utility.yul\":22110:22120   */\n      dup4\n        /* \"#utility.yul\":22106:22124   */\n      mul\n        /* \"#utility.yul\":22145:22242   */\n      tag_430\n        /* \"#utility.yul\":22175:22241   */\n      0xffffffffffffffffffffffffffffffffffffffffffffffffffffffffffffffff\n        /* \"#utility.yul\":22164:22173   */\n      dup3\n        /* \"#utility.yul\":22145:22242   */\n      tag_227\n      jump\t// in\n    tag_430:\n        /* \"#utility.yul\":22263:22302   */\n      tag_431\n        /* \"#utility.yul\":22293:22301   */\n      dup7\n        /* \"#utility.yul\":22282:22291   */\n      dup4\n        /* \"#utility.yul\":22263:22302   */\n      tag_227\n      jump\t// in\n    tag_431:\n        /* \"#utility.yul\":22251:22302   */\n      swap6\n      pop\n        /* \"#utility.yul\":22335:22339   */\n      dup1\n        /* \"#utility.yul\":22331:22340   */\n      not\n        /* \"#utility.yul\":22324:22329   */\n      dup5\n        /* \"#utility.yul\":22320:22341   */\n      and\n        /* \"#utility.yul\":22311:22341   */\n      swap4\n      pop\n        /* \"#utility.yul\":22384:22388   */\n      dup1\n        /* \"#utility.yul\":22374:22382   */\n      dup7\n        /* \"#utility.yul\":22370:22389   */\n      and\n        /* \"#utility.yul\":22363:22368   */\n      dup5\n        /* \"#utility.yul\":22360:22390   */\n      or\n        /* \"#utility.yul\":22350:22390   */\n      swap3\n      pop\n        /* \"#utility.yul\":22079:22396   */\n      pop\n      pop\n        /* \"#utility.yul\":22003:22396   */\n      swap4\n      swap3\n      pop\n      pop\n      pop\n      jump\t// out\n        /* \"#utility.yul\":22402:22462   */\n    tag_229:\n        /* \"#utility.yul\":22430:22433   */\n      0x00\n        /* \"#utility.yul\":22451:22456   */\n      dup2\n        /* \"#utility.yul\":22444:22456   */\n      swap1\n      pop\n        /* \"#utility.yul\":22402:22462   */\n      swap2\n      swap1\n      pop\n      jump\t// out\n        /* \"#utility.yul\":22468:22610   */\n    tag_230:\n        /* \"#utility.yul\":22518:22527   */\n      0x00\n        /* \"#utility.yul\":22551:22604   */\n      tag_434\n        /* \"#utility.yul\":22569:22603   */\n      tag_435\n        /* \"#utility.yul\":22578:22602   */\n      tag_436\n        /* \"#utility.yul\":22596:22601   */\n      dup5\n        /* \"#utility.yul\":22578:22602   */\n      tag_174\n      jump\t// in\n    tag_436:\n        /* \"#utility.yul\":22569:22603   */\n      tag_229\n      jump\t// in\n    tag_435:\n        /* \"#utility.yul\":22551:22604   */\n      tag_174\n      jump\t// in\n    tag_434:\n        /* \"#utility.yul\":22538:22604   */\n      swap1\n      pop\n        /* \"#utility.yul\":22468:22610   */\n      swap2\n      swap1\n      pop\n      jump\t// out\n        /* \"#utility.yul\":22616:22691   */\n    tag_231:\n        /* \"#utility.yul\":22659:22662   */\n      0x00\n        /* \"#utility.yul\":22680:22685   */\n      dup2\n        /* \"#utility.yul\":22673:22685   */\n      swap1\n      pop\n        /* \"#utility.yul\":22616:22691   */\n      swap2\n      swap1\n      pop\n      jump\t// out\n        /* \"#utility.yul\":22697:22966   */\n    tag_232:\n        /* \"#utility.yul\":22807:22846   */\n      tag_439\n        /* \"#utility.yul\":22838:22845   */\n      dup4\n        /* \"#utility.yul\":22807:22846   */\n      tag_230\n      jump\t// in\n    tag_439:\n        /* \"#utility.yul\":22868:22959   */\n      tag_440\n        /* \"#utility.yul\":22917:22958   */\n      tag_441\n        /* \"#utility.yul\":22941:22957   */\n      dup3\n        /* \"#utility.yul\":22917:22958   */\n      tag_231\n      jump\t// in\n    tag_441:\n        /* \"#utility.yul\":22909:22915   */\n      dup5\n        /* \"#utility.yul\":22902:22906   */\n      dup5\n        /* \"#utility.yul\":22896:22907   */\n      sload\n        /* \"#utility.yul\":22868:22959   */\n      tag_228\n      jump\t// in\n    tag_440:\n        /* \"#utility.yul\":22862:22866   */\n      dup3\n        /* \"#utility.yul\":22855:22960   */\n      sstore\n        /* \"#utility.yul\":22773:22966   */\n      pop\n        /* \"#utility.yul\":22697:22966   */\n      pop\n      pop\n      pop\n      jump\t// out\n        /* \"#utility.yul\":22972:23045   */\n    tag_233:\n        /* \"#utility.yul\":23017:23020   */\n      0x00\n        /* \"#utility.yul\":23038:23039   */\n      0x00\n        /* \"#utility.yul\":23031:23039   */\n      swap1\n      pop\n        /* \"#utility.yul\":22972:23045   */\n      swap1\n      jump\t// out\n        /* \"#utility.yul\":23051:23240   */\n    tag_234:\n        /* \"#utility.yul\":23128:23160   */\n      tag_444\n      tag_233\n      jump\t// in\n    tag_444:\n        /* \"#utility.yul\":23169:23234   */\n      tag_445\n        /* \"#utility.yul\":23227:23233   */\n      dup2\n        /* \"#utility.yul\":23219:23225   */\n      dup5\n        /* \"#utility.yul\":23213:23217   */\n      dup5\n        /* \"#utility.yul\":23169:23234   */\n      tag_232\n      jump\t// in\n    tag_445:\n        /* \"#utility.yul\":23104:23240   */\n      pop\n        /* \"#utility.yul\":23051:23240   */\n      pop\n      pop\n      jump\t// out\n        /* \"#utility.yul\":23246:23432   */\n    tag_235:\n        /* \"#utility.yul\":23306:23426   */\n    tag_447:\n        /* \"#utility.yul\":23323:23326   */\n      dup2\n        /* \"#utility.yul\":23316:23321   */\n      dup2\n        /* \"#utility.yul\":23313:23327   */\n      lt\n        /* \"#utility.yul\":23306:23426   */\n      iszero\n      tag_449\n      jumpi\n        /* \"#utility.yul\":23377:23416   */\n      tag_450\n        /* \"#utility.yul\":23414:23415   */\n      0x00\n        /* \"#utility.yul\":23407:23412   */\n      dup3\n        /* \"#utility.yul\":23377:23416   */\n      tag_234\n      jump\t// in\n    tag_450:\n        /* \"#utility.yul\":23350:23351   */\n      0x01\n        /* \"#utility.yul\":23343:23348   */\n      dup2\n        /* \"#utility.yul\":23339:23352   */\n      add\n        /* \"#utility.yul\":23330:23352   */\n      swap1\n      pop\n        /* \"#utility.yul\":23306:23426   */\n      jump(tag_447)\n    tag_449:\n        /* \"#utility.yul\":23246:23432   */\n      pop\n      pop\n      jump\t// out\n        /* \"#utility.yul\":23438:23981   */\n    tag_236:\n        /* \"#utility.yul\":23539:23541   */\n      0x1f\n        /* \"#utility.yul\":23534:23537   */\n      dup3\n        /* \"#utility.yul\":23531:23542   */\n      gt\n        /* \"#utility.yul\":23528:23974   */\n      iszero\n      tag_452\n      jumpi\n        /* \"#utility.yul\":23573:23611   */\n      tag_453\n        /* \"#utility.yul\":23605:23610   */\n      dup2\n        /* \"#utility.yul\":23573:23611   */\n      tag_225\n      jump\t// in\n    tag_453:\n        /* \"#utility.yul\":23657:23686   */\n      tag_454\n        /* \"#utility.yul\":23675:23685   */\n      dup5\n        /* \"#utility.yul\":23657:23686   */\n      tag_226\n      jump\t// in\n    tag_454:\n        /* \"#utility.yul\":23647:23655   */\n      dup2\n        /* \"#utility.yul\":23643:23687   */\n      add\n        /* \"#utility.yul\":23840:23842   */\n      0x20\n        /* \"#utility.yul\":23828:23838   */\n      dup6\n        /* \"#utility.yul\":23825:23843   */\n      lt\n        /* \"#utility.yul\":23822:23871   */\n      iszero\n      tag_455\n      jumpi\n        /* \"#utility.yul\":23861:23869   */\n      dup2\n        /* \"#utility.yul\":23846:23869   */\n      swap1\n      pop\n        /* \"#utility.yul\":23822:23871   */\n    tag_455:\n        /* \"#utility.yul\":23884:23964   */\n      tag_456\n        /* \"#utility.yul\":23940:23962   */\n      tag_457\n        /* \"#utility.yul\":23958:23961   */\n      dup6\n        /* \"#utility.yul\":23940:23962   */\n      tag_226\n      jump\t// in\n    tag_457:\n        /* \"#utility.yul\":23930:23938   */\n      dup4\n        /* \"#utility.yul\":23926:23963   */\n      add\n        /* \"#utility.yul\":23913:23924   */\n      dup3\n        /* \"#utility.yul\":23884:23964   */\n      tag_235\n      jump\t// in\n    tag_456:\n        /* \"#utility.yul\":23543:23974   */\n      pop\n      pop\n        /* \"#utility.yul\":23528:23974   */\n    tag_452:\n        /* \"#utility.yul\":23438:23981   */\n      pop\n      pop\n      pop\n      jump\t// out\n        /* \"#utility.yul\":23987:24104   */\n    tag_237:\n        /* \"#utility.yul\":24041:24049   */\n      0x00\n        /* \"#utility.yul\":24091:24096   */\n      dup3\n        /* \"#utility.yul\":24085:24089   */\n      dup3\n        /* \"#utility.yul\":24081:24097   */\n      shr\n        /* \"#utility.yul\":24060:24097   */\n      swap1\n      pop\n        /* \"#utility.yul\":23987:24104   */\n      swap3\n      swap2\n      pop\n      pop\n      jump\t// out\n        /* \"#utility.yul\":24110:24279   */\n    tag_238:\n        /* \"#utility.yul\":24154:24160   */\n      0x00\n        /* \"#utility.yul\":24187:24238   */\n      tag_460\n        /* \"#utility.yul\":24235:24236   */\n      0x00\n        /* \"#utility.yul\":24231:24237   */\n      not\n        /* \"#utility.yul\":24223:24228   */\n      dup5\n        /* \"#utility.yul\":24220:24221   */\n      0x08\n        /* \"#utility.yul\":24216:24229   */\n      mul\n        /* \"#utility.yul\":24187:24238   */\n      tag_237\n      jump\t// in\n    tag_460:\n        /* \"#utility.yul\":24183:24239   */\n      not\n        /* \"#utility.yul\":24268:24272   */\n      dup1\n        /* \"#utility.yul\":24262:24266   */\n      dup4\n        /* \"#utility.yul\":24258:24273   */\n      and\n        /* \"#utility.yul\":24248:24273   */\n      swap2\n      pop\n        /* \"#utility.yul\":24161:24279   */\n      pop\n        /* \"#utility.yul\":24110:24279   */\n      swap3\n      swap2\n      pop\n      pop\n      jump\t// out\n        /* \"#utility.yul\":24284:24579   */\n    tag_239:\n        /* \"#utility.yul\":24360:24364   */\n      0x00\n        /* \"#utility.yul\":24506:24535   */\n      tag_462\n        /* \"#utility.yul\":24531:24534   */\n      dup4\n        /* \"#utility.yul\":24525:24529   */\n      dup4\n        /* \"#utility.yul\":24506:24535   */\n      tag_238\n      jump\t// in\n    tag_462:\n        /* \"#utility.yul\":24498:24535   */\n      swap2\n      pop\n        /* \"#utility.yul\":24568:24571   */\n      dup3\n        /* \"#utility.yul\":24565:24566   */\n      0x02\n        /* \"#utility.yul\":24561:24572   */\n      mul\n        /* \"#utility.yul\":24555:24559   */\n      dup3\n        /* \"#utility.yul\":24552:24573   */\n      or\n        /* \"#utility.yul\":24544:24573   */\n      swap1\n      pop\n        /* \"#utility.yul\":24284:24579   */\n      swap3\n      swap2\n      pop\n      pop\n      jump\t// out\n        /* \"#utility.yul\":24584:25979   */\n    tag_160:\n        /* \"#utility.yul\":24701:24738   */\n      tag_464\n        /* \"#utility.yul\":24734:24737   */\n      dup3\n        /* \"#utility.yul\":24701:24738   */\n      tag_180\n      jump\t// in\n    tag_464:\n        /* \"#utility.yul\":24803:24821   */\n      0xffffffffffffffff\n        /* \"#utility.yul\":24795:24801   */\n      dup2\n        /* \"#utility.yul\":24792:24822   */\n      gt\n        /* \"#utility.yul\":24789:24845   */\n      iszero\n      tag_465\n      jumpi\n        /* \"#utility.yul\":24825:24843   */\n      tag_466\n      tag_190\n      jump\t// in\n    tag_466:\n        /* \"#utility.yul\":24789:24845   */\n    tag_465:\n        /* \"#utility.yul\":24869:24907   */\n      tag_467\n        /* \"#utility.yul\":24901:24905   */\n      dup3\n        /* \"#utility.yul\":24895:24906   */\n      sload\n        /* \"#utility.yul\":24869:24907   */\n      tag_96\n      jump\t// in\n    tag_467:\n        /* \"#utility.yul\":24954:25021   */\n      tag_468\n        /* \"#utility.yul\":25014:25020   */\n      dup3\n        /* \"#utility.yul\":25006:25012   */\n      dup3\n        /* \"#utility.yul\":25000:25004   */\n      dup6\n        /* \"#utility.yul\":24954:25021   */\n      tag_236\n      jump\t// in\n    tag_468:\n        /* \"#utility.yul\":25048:25049   */\n      0x00\n        /* \"#utility.yul\":25072:25076   */\n      0x20\n        /* \"#utility.yul\":25059:25076   */\n      swap1\n      pop\n        /* \"#utility.yul\":25104:25106   */\n      0x1f\n        /* \"#utility.yul\":25096:25102   */\n      dup4\n        /* \"#utility.yul\":25093:25107   */\n      gt\n        /* \"#utility.yul\":25121:25122   */\n      0x01\n        /* \"#utility.yul\":25116:25734   */\n      dup2\n      eq\n      tag_470\n      jumpi\n        /* \"#utility.yul\":25778:25779   */\n      0x00\n        /* \"#utility.yul\":25795:25801   */\n      dup5\n        /* \"#utility.yul\":25792:25869   */\n      iszero\n      tag_471\n      jumpi\n        /* \"#utility.yul\":25844:25853   */\n      dup3\n        /* \"#utility.yul\":25839:25842   */\n      dup8\n        /* \"#utility.yul\":25835:25854   */\n      add\n        /* \"#utility.yul\":25829:25855   */\n      mload\n        /* \"#utility.yul\":25820:25855   */\n      swap1\n      pop\n        /* \"#utility.yul\":25792:25869   */\n    tag_471:\n        /* \"#utility.yul\":25895:25962   */\n      tag_472\n        /* \"#utility.yul\":25955:25961   */\n      dup6\n        /* \"#utility.yul\":25948:25953   */\n      dup3\n        /* \"#utility.yul\":25895:25962   */\n      tag_239\n      jump\t// in\n    tag_472:\n        /* \"#utility.yul\":25889:25893   */\n      dup7\n        /* \"#utility.yul\":25882:25963   */\n      sstore\n        /* \"#utility.yul\":25751:25973   */\n      pop\n        /* \"#utility.yul\":25086:25973   */\n      jump(tag_469)\n        /* \"#utility.yul\":25116:25734   */\n    tag_470:\n        /* \"#utility.yul\":25168:25172   */\n      0x1f\n        /* \"#utility.yul\":25164:25173   */\n      not\n        /* \"#utility.yul\":25156:25162   */\n      dup5\n        /* \"#utility.yul\":25152:25174   */\n      and\n        /* \"#utility.yul\":25202:25239   */\n      tag_473\n        /* \"#utility.yul\":25234:25238   */\n      dup7\n        /* \"#utility.yul\":25202:25239   */\n      tag_225\n      jump\t// in\n    tag_473:\n        /* \"#utility.yul\":25261:25262   */\n      0x00\n        /* \"#utility.yul\":25275:25483   */\n    tag_474:\n        /* \"#utility.yul\":25289:25296   */\n      dup3\n        /* \"#utility.yul\":25286:25287   */\n      dup2\n        /* \"#utility.yul\":25283:25297   */\n      lt\n        /* \"#utility.yul\":25275:25483   */\n      iszero\n      tag_476\n      jumpi\n        /* \"#utility.yul\":25368:25377   */\n      dup5\n        /* \"#utility.yul\":25363:25366   */\n      dup10\n        /* \"#utility.yul\":25359:25378   */\n      add\n        /* \"#utility.yul\":25353:25379   */\n      mload\n        /* \"#utility.yul\":25345:25351   */\n      dup3\n        /* \"#utility.yul\":25338:25380   */\n      sstore\n        /* \"#utility.yul\":25419:25420   */\n      0x01\n        /* \"#utility.yul\":25411:25417   */\n      dup3\n        /* \"#utility.yul\":25407:25421   */\n      add\n        /* \"#utility.yul\":25397:25421   */\n      swap2\n      pop\n        /* \"#utility.yul\":25466:25468   */\n      0x20\n        /* \"#utility.yul\":25455:25464   */\n      dup6\n        /* \"#utility.yul\":25451:25469   */\n      add\n        /* \"#utility.yul\":25438:25469   */\n      swap5\n      pop\n        /* \"#utility.yul\":25312:25316   */\n      0x20\n        /* \"#utility.yul\":25309:25310   */\n      dup2\n        /* \"#utility.yul\":25305:25317   */\n      add\n        /* \"#utility.yul\":25300:25317   */\n      swap1\n      pop\n        /* \"#utility.yul\":25275:25483   */\n      jump(tag_474)\n    tag_476:\n        /* \"#utility.yul\":25511:25517   */\n      dup7\n        /* \"#utility.yul\":25502:25509   */\n      dup4\n        /* \"#utility.yul\":25499:25518   */\n      lt\n        /* \"#utility.yul\":25496:25675   */\n      iszero\n      tag_477\n      jumpi\n        /* \"#utility.yul\":25569:25578   */\n      dup5\n        /* \"#utility.yul\":25564:25567   */\n      dup10\n        /* \"#utility.yul\":25560:25579   */\n      add\n        /* \"#utility.yul\":25554:25580   */\n      mload\n        /* \"#utility.yul\":25612:25660   */\n      tag_478\n        /* \"#utility.yul\":25654:25658   */\n      0x1f\n        /* \"#utility.yul\":25646:25652   */\n      dup10\n        /* \"#utility.yul\":25642:25659   */\n      and\n        /* \"#utility.yul\":25631:25640   */\n      dup3\n        /* \"#utility.yul\":25612:25660   */\n      tag_238\n      jump\t// in\n    tag_478:\n        /* \"#utility.yul\":25604:25610   */\n      dup4\n        /* \"#utility.yul\":25597:25661   */\n      sstore\n        /* \"#utility.yul\":25519:25675   */\n      pop\n        /* \"#utility.yul\":25496:25675   */\n    tag_477:\n        /* \"#utility.yul\":25721:25722   */\n      0x01\n        /* \"#utility.yul\":25717:25718   */\n      0x02\n        /* \"#utility.yul\":25709:25715   */\n      dup9\n        /* \"#utility.yul\":25705:25719   */\n      mul\n        /* \"#utility.yul\":25701:25723   */\n      add\n        /* \"#utility.yul\":25695:25699   */\n      dup9\n        /* \"#utility.yul\":25688:25724   */\n      sstore\n        /* \"#utility.yul\":25123:25734   */\n      pop\n      pop\n      pop\n        /* \"#utility.yul\":25086:25973   */\n    tag_469:\n      pop\n        /* \"#utility.yul\":24676:25979   */\n      pop\n      pop\n      pop\n        /* \"#utility.yul\":24584:25979   */\n      pop\n      pop\n      jump\t// out\n        /* \"#utility.yul\":25985:26317   */\n    tag_164:\n        /* \"#utility.yul\":26106:26110   */\n      0x00\n        /* \"#utility.yul\":26144:26146   */\n      0x40\n        /* \"#utility.yul\":26133:26142   */\n      dup3\n        /* \"#utility.yul\":26129:26147   */\n      add\n        /* \"#utility.yul\":26121:26147   */\n      swap1\n      pop\n        /* \"#utility.yul\":26157:26228   */\n      tag_480\n        /* \"#utility.yul\":26225:26226   */\n      0x00\n        /* \"#utility.yul\":26214:26223   */\n      dup4\n        /* \"#utility.yul\":26210:26227   */\n      add\n        /* \"#utility.yul\":26201:26207   */\n      dup6\n        /* \"#utility.yul\":26157:26228   */\n      tag_185\n      jump\t// in\n    tag_480:\n        /* \"#utility.yul\":26238:26310   */\n      tag_481\n        /* \"#utility.yul\":26306:26308   */\n      0x20\n        /* \"#utility.yul\":26295:26304   */\n      dup4\n        /* \"#utility.yul\":26291:26309   */\n      add\n        /* \"#utility.yul\":26282:26288   */\n      dup5\n        /* \"#utility.yul\":26238:26310   */\n      tag_179\n      jump\t// in\n    tag_481:\n        /* \"#utility.yul\":25985:26317   */\n      swap4\n      swap3\n      pop\n      pop\n      pop\n      jump\t// out\n        /* \"#utility.yul\":26323:26556   */\n    tag_166:\n        /* \"#utility.yul\":26362:26365   */\n      0x00\n        /* \"#utility.yul\":26385:26409   */\n      tag_483\n        /* \"#utility.yul\":26403:26408   */\n      dup3\n        /* \"#utility.yul\":26385:26409   */\n      tag_174\n      jump\t// in\n    tag_483:\n        /* \"#utility.yul\":26376:26409   */\n      swap2\n      pop\n        /* \"#utility.yul\":26431:26497   */\n      0xffffffffffffffffffffffffffffffffffffffffffffffffffffffffffffffff\n        /* \"#utility.yul\":26424:26429   */\n      dup3\n        /* \"#utility.yul\":26421:26498   */\n      sub\n        /* \"#utility.yul\":26418:26521   */\n      tag_484\n      jumpi\n        /* \"#utility.yul\":26501:26519   */\n      tag_485\n      tag_218\n      jump\t// in\n    tag_485:\n        /* \"#utility.yul\":26418:26521   */\n    tag_484:\n        /* \"#utility.yul\":26548:26549   */\n      0x01\n        /* \"#utility.yul\":26541:26546   */\n      dup3\n        /* \"#utility.yul\":26537:26550   */\n      add\n        /* \"#utility.yul\":26530:26550   */\n      swap1\n      pop\n        /* \"#utility.yul\":26323:26556   */\n      swap2\n      swap1\n      pop\n      jump\t// out\n\n    auxdata: 0xa26469706673582212203d0dcfdfc6714308fdbd90a2aa9edcdd4eb1394527d335f729ccf3772df4a5f664736f6c634300081e0033\n}\n",
				"bytecode": {
					"linkReferences": {},
					"object": "6080604052348015600e575f5ffd5b50611dc48061001c5f395ff3fe608060405260043610610085575f3560e01c8063711853ab11610058578063711853ab1461015d5780637274e30d146101855780637326c9c0146101af578063a318f269146101cb578063e081dbf9146101f357610085565b80631b55e33814610089578063278ecde1146100b15780634013be10146100d95780635598f8cc1461011b575b5f5ffd5b348015610094575f5ffd5b506100af60048036038101906100aa91906110a7565b61022f565b005b3480156100bc575f5ffd5b506100d760048036038101906100d291906110a7565b6104df565b005b3480156100e4575f5ffd5b506100ff60048036038101906100fa91906110a7565b610728565b60405161011297969594939291906111aa565b60405180910390f35b348015610126575f5ffd5b50610141600480360381019061013c91906110a7565b61089d565b60405161015497969594939291906111aa565b60405180910390f35b348015610168575f5ffd5b50610183600480360381019061017e9190611225565b610a77565b005b348015610190575f5ffd5b50610199610cad565b6040516101a69190611263565b60405180910390f35b6101c960048036038101906101c491906110a7565b610cb2565b005b3480156101d6575f5ffd5b506101f160048036038101906101ec91906113a8565b610e53565b005b3480156101fe575f5ffd5b506102196004803603810190610214919061146e565b610fc5565b6040516102269190611263565b60405180910390f35b805f548110610273576040517f08c379a000000000000000000000000000000000000000000000000000000000815260040161026a906114f6565b60405180910390fd5b8160015f8281526020019081526020015f205f015f9054906101000a900473ffffffffffffffffffffffffffffffffffffffff1673ffffffffffffffffffffffffffffffffffffffff163373ffffffffffffffffffffffffffffffffffffffff1614610314576040517f08c379a000000000000000000000000000000000000000000000000000000000815260040161030b9061155e565b60405180910390fd5b8260015f8281526020019081526020015f206004015442101561036c576040517f08c379a0000000000000000000000000000000000000000000000000000000008152600401610363906115c6565b60405180910390fd5b5f60015f8681526020019081526020015f20905080600301548160050154116103ca576040517f08c379a00000000000000000000000000000000000000000000000000000000081526004016103c19061162e565b60405180910390fd5b806006015f9054906101000a900460ff161561041b576040517f08c379a000000000000000000000000000000000000000000000000000000000815260040161041290611696565b60405180910390fd5b6001816006015f6101000a81548160ff021916908315150217905550805f015f9054906101000a900473ffffffffffffffffffffffffffffffffffffffff1673ffffffffffffffffffffffffffffffffffffffff166108fc826005015490811502906040515f60405180830381858888f193505050501580156104a0573d5f5f3e3d5ffd5b507ffad629533a8eaded67c8b7f9fc7184a01ce682c999676eb2bacbe99800bd6729856040516104d09190611263565b60405180910390a15050505050565b805f548110610523576040517f08c379a000000000000000000000000000000000000000000000000000000000815260040161051a906114f6565b60405180910390fd5b8160015f8281526020019081526020015f206004015442101561057b576040517f08c379a0000000000000000000000000000000000000000000000000000000008152600401610572906115c6565b60405180910390fd5b5f60015f8581526020019081526020015f20905080600301548160050154106105d9576040517f08c379a00000000000000000000000000000000000000000000000000000000081526004016105d0906116fe565b60405180910390fd5b5f816007015f3373ffffffffffffffffffffffffffffffffffffffff1673ffffffffffffffffffffffffffffffffffffffff1681526020019081526020015f205490505f811161065e576040517f08c379a000000000000000000000000000000000000000000000000000000000815260040161065590611766565b60405180910390fd5b5f826007015f3373ffffffffffffffffffffffffffffffffffffffff1673ffffffffffffffffffffffffffffffffffffffff1681526020019081526020015f20819055503373ffffffffffffffffffffffffffffffffffffffff166108fc8290811502906040515f60405180830381858888f193505050501580156106e5573d5f5f3e3d5ffd5b507f7ca5472b7ea78c2c0141c5a12ee6d170cf4ce8ed06be3d22c8252ddfc7a6a2c485338360405161071993929190611784565b60405180910390a15050505050565b6001602052805f5260405f205f91509050805f015f9054906101000a900473ffffffffffffffffffffffffffffffffffffffff169080600101805461076c906117e6565b80601f0160208091040260200160405190810160405280929190818152602001828054610798906117e6565b80156107e35780601f106107ba576101008083540402835291602001916107e3565b820191905f5260205f20905b8154815290600101906020018083116107c657829003601f168201915b5050505050908060020180546107f8906117e6565b80601f0160208091040260200160405190810160405280929190818152602001828054610824906117e6565b801561086f5780601f106108465761010080835404028352916020019161086f565b820191905f5260205f20905b81548152906001019060200180831161085257829003601f168201915b505050505090806003015490806004015490806005015490806006015f9054906101000a900460ff16905087565b5f6060805f5f5f5f875f5481106108e9576040517f08c379a00000000000000000000000000000000000000000000000000000000081526004016108e0906114f6565b60405180910390fd5b5f60015f8b81526020019081526020015f209050805f015f9054906101000a900473ffffffffffffffffffffffffffffffffffffffff168160010182600201836003015484600401548560050154866006015f9054906101000a900460ff16858054610954906117e6565b80601f0160208091040260200160405190810160405280929190818152602001828054610980906117e6565b80156109cb5780601f106109a2576101008083540402835291602001916109cb565b820191905f5260205f20905b8154815290600101906020018083116109ae57829003601f168201915b505050505095508480546109de906117e6565b80601f0160208091040260200160405190810160405280929190818152602001828054610a0a906117e6565b8015610a555780601f10610a2c57610100808354040283529160200191610a55565b820191905f5260205f20905b815481529060010190602001808311610a3857829003601f168201915b5050505050945098509850985098509850985098505050919395979092949650565b815f548110610abb576040517f08c379a0000000000000000000000000000000000000000000000000000000008152600401610ab2906114f6565b60405180910390fd5b8260015f8281526020019081526020015f20600401544210610b12576040517f08c379a0000000000000000000000000000000000000000000000000000000008152600401610b0990611860565b60405180910390fd5b5f60015f8681526020019081526020015f2090505f816007015f3373ffffffffffffffffffffffffffffffffffffffff1673ffffffffffffffffffffffffffffffffffffffff1681526020019081526020015f205490505f85118015610b785750848110155b610bb7576040517f08c379a0000000000000000000000000000000000000000000000000000000008152600401610bae906118c8565b60405180910390fd5b84826005015f828254610bca9190611913565b9250508190555084826007015f3373ffffffffffffffffffffffffffffffffffffffff1673ffffffffffffffffffffffffffffffffffffffff1681526020019081526020015f205f828254610c1f9190611913565b925050819055503373ffffffffffffffffffffffffffffffffffffffff166108fc8690811502906040515f60405180830381858888f19350505050158015610c69573d5f5f3e3d5ffd5b507ffcd29b1632c6748a9a4bb9b4cd5c6486c3c84a8550dce2368f83fef3969d9685863387604051610c9d93929190611784565b60405180910390a1505050505050565b5f5481565b805f548110610cf6576040517f08c379a0000000000000000000000000000000000000000000000000000000008152600401610ced906114f6565b60405180910390fd5b8160015f8281526020019081526020015f20600401544210610d4d576040517f08c379a0000000000000000000000000000000000000000000000000000000008152600401610d4490611860565b60405180910390fd5b5f3411610d8f576040517f08c379a0000000000000000000000000000000000000000000000000000000008152600401610d8690611990565b60405180910390fd5b5f60015f8581526020019081526020015f20905034816005015f828254610db691906119ae565b9250508190555034816007015f3373ffffffffffffffffffffffffffffffffffffffff1673ffffffffffffffffffffffffffffffffffffffff1681526020019081526020015f205f828254610e0b91906119ae565b925050819055507f2757ac6a40883f4491cc56930ae964df9034e343e660d5179eb01e198336756b843334604051610e4593929190611784565b60405180910390a150505050565b5f8211610e95576040517f08c379a0000000000000000000000000000000000000000000000000000000008152600401610e8c90611a2b565b60405180910390fd5b5f8111610ed7576040517f08c379a0000000000000000000000000000000000000000000000000000000008152600401610ece90611a93565b60405180910390fd5b5f60015f5f5481526020019081526020015f20905033815f015f6101000a81548173ffffffffffffffffffffffffffffffffffffffff021916908373ffffffffffffffffffffffffffffffffffffffff16021790555084816001019081610f3e9190611c51565b5083816002019081610f509190611c51565b508281600301819055508142610f6691906119ae565b81600401819055507f633109eec20320eded000fc1e2634211aa7e92ba3f5b15faf6dcdafca05094e45f5433604051610fa0929190611d20565b60405180910390a15f5f815480929190610fb990611d47565b91905055505050505050565b5f825f54811061100a576040517f08c379a0000000000000000000000000000000000000000000000000000000008152600401611001906114f6565b60405180910390fd5b60015f8581526020019081526020015f206007015f8473ffffffffffffffffffffffffffffffffffffffff1673ffffffffffffffffffffffffffffffffffffffff1681526020019081526020015f205491505092915050565b5f604051905090565b5f5ffd5b5f5ffd5b5f819050919050565b61108681611074565b8114611090575f5ffd5b50565b5f813590506110a18161107d565b92915050565b5f602082840312156110bc576110bb61106c565b5b5f6110c984828501611093565b91505092915050565b5f73ffffffffffffffffffffffffffffffffffffffff82169050919050565b5f6110fb826110d2565b9050919050565b61110b816110f1565b82525050565b5f81519050919050565b5f82825260208201905092915050565b8281835e5f83830152505050565b5f601f19601f8301169050919050565b5f61115382611111565b61115d818561111b565b935061116d81856020860161112b565b61117681611139565b840191505092915050565b61118a81611074565b82525050565b5f8115159050919050565b6111a481611190565b82525050565b5f60e0820190506111bd5f83018a611102565b81810360208301526111cf8189611149565b905081810360408301526111e38188611149565b90506111f26060830187611181565b6111ff6080830186611181565b61120c60a0830185611181565b61121960c083018461119b565b98975050505050505050565b5f5f6040838503121561123b5761123a61106c565b5b5f61124885828601611093565b925050602061125985828601611093565b9150509250929050565b5f6020820190506112765f830184611181565b92915050565b5f5ffd5b5f5ffd5b7f4e487b71000000000000000000000000000000000000000000000000000000005f52604160045260245ffd5b6112ba82611139565b810181811067ffffffffffffffff821117156112d9576112d8611284565b5b80604052505050565b5f6112eb611063565b90506112f782826112b1565b919050565b5f67ffffffffffffffff82111561131657611315611284565b5b61131f82611139565b9050602081019050919050565b828183375f83830152505050565b5f61134c611347846112fc565b6112e2565b90508281526020810184848401111561136857611367611280565b5b61137384828561132c565b509392505050565b5f82601f83011261138f5761138e61127c565b5b813561139f84826020860161133a565b91505092915050565b5f5f5f5f608085870312156113c0576113bf61106c565b5b5f85013567ffffffffffffffff8111156113dd576113dc611070565b5b6113e98782880161137b565b945050602085013567ffffffffffffffff81111561140a57611409611070565b5b6114168782880161137b565b935050604061142787828801611093565b925050606061143887828801611093565b91505092959194509250565b61144d816110f1565b8114611457575f5ffd5b50565b5f8135905061146881611444565b92915050565b5f5f604083850312156114845761148361106c565b5b5f61149185828601611093565b92505060206114a28582860161145a565b9150509250929050565b7f43616d706961676e20646f6573206e6f742065786974730000000000000000005f82015250565b5f6114e060178361111b565b91506114eb826114ac565b602082019050919050565b5f6020820190508181035f83015261150d816114d4565b9050919050565b7f4e6f742043616d706961676e2063726561746f720000000000000000000000005f82015250565b5f61154860148361111b565b915061155382611514565b602082019050919050565b5f6020820190508181035f8301526115758161153c565b9050919050565b7f43616d706169676e73207374696c6c20416374697665000000000000000000005f82015250565b5f6115b060168361111b565b91506115bb8261157c565b602082019050919050565b5f6020820190508181035f8301526115dd816115a4565b9050919050565b7f46756e64696e6720676f616c206e6f74207965740000000000000000000000005f82015250565b5f61161860148361111b565b9150611623826115e4565b602082019050919050565b5f6020820190508181035f8301526116458161160c565b9050919050565b7f46756e647320616c726561647920636c61696d656400000000000000000000005f82015250565b5f61168060158361111b565b915061168b8261164c565b602082019050919050565b5f6020820190508181035f8301526116ad81611674565b9050919050565b7f46756e64696e6720676f616c20776173206d65740000000000000000000000005f82015250565b5f6116e860148361111b565b91506116f3826116b4565b602082019050919050565b5f6020820190508181035f830152611715816116dc565b9050919050565b7f4e6f20636f6e747269627574696f6e20746f20726566756e64000000000000005f82015250565b5f61175060198361111b565b915061175b8261171c565b602082019050919050565b5f6020820190508181035f83015261177d81611744565b9050919050565b5f6060820190506117975f830186611181565b6117a46020830185611102565b6117b16040830184611181565b949350505050565b7f4e487b71000000000000000000000000000000000000000000000000000000005f52602260045260245ffd5b5f60028204905060018216806117fd57607f821691505b6020821081036118105761180f6117b9565b5b50919050565b7f43616d706169676e2068617320656e64656400000000000000000000000000005f82015250565b5f61184a60128361111b565b915061185582611816565b602082019050919050565b5f6020820190508181035f8301526118778161183e565b9050919050565b7f496e76616c696420616d6f756e740000000000000000000000000000000000005f82015250565b5f6118b2600e8361111b565b91506118bd8261187e565b602082019050919050565b5f6020820190508181035f8301526118df816118a6565b9050919050565b7f4e487b71000000000000000000000000000000000000000000000000000000005f52601160045260245ffd5b5f61191d82611074565b915061192883611074565b92508282039050818111156119405761193f6118e6565b5b92915050565b7f4d75737420706c65646765206d6f7265207468616e20300000000000000000005f82015250565b5f61197a60178361111b565b915061198582611946565b602082019050919050565b5f6020820190508181035f8301526119a78161196e565b9050919050565b5f6119b882611074565b91506119c383611074565b92508282019050808211156119db576119da6118e6565b5b92915050565b7f476f616c206d7573742062652067726561746572207468616e203000000000005f82015250565b5f611a15601b8361111b565b9150611a20826119e1565b602082019050919050565b5f6020820190508181035f830152611a4281611a09565b9050919050565b7f4475726174696f6e206d7573742062652067726561746572207468616e2030005f82015250565b5f611a7d601f8361111b565b9150611a8882611a49565b602082019050919050565b5f6020820190508181035f830152611aaa81611a71565b9050919050565b5f819050815f5260205f209050919050565b5f6020601f8301049050919050565b5f82821b905092915050565b5f60088302611b0d7fffffffffffffffffffffffffffffffffffffffffffffffffffffffffffffffff82611ad2565b611b178683611ad2565b95508019841693508086168417925050509392505050565b5f819050919050565b5f611b52611b4d611b4884611074565b611b2f565b611074565b9050919050565b5f819050919050565b611b6b83611b38565b611b7f611b7782611b59565b848454611ade565b825550505050565b5f5f905090565b611b96611b87565b611ba1818484611b62565b505050565b5b81811015611bc457611bb95f82611b8e565b600181019050611ba7565b5050565b601f821115611c0957611bda81611ab1565b611be384611ac3565b81016020851015611bf2578190505b611c06611bfe85611ac3565b830182611ba6565b50505b505050565b5f82821c905092915050565b5f611c295f1984600802611c0e565b1980831691505092915050565b5f611c418383611c1a565b9150826002028217905092915050565b611c5a82611111565b67ffffffffffffffff811115611c7357611c72611284565b5b611c7d82546117e6565b611c88828285611bc8565b5f60209050601f831160018114611cb9575f8415611ca7578287015190505b611cb18582611c36565b865550611d18565b601f198416611cc786611ab1565b5f5b82811015611cee57848901518255600182019150602085019450602081019050611cc9565b86831015611d0b5784890151611d07601f891682611c1a565b8355505b6001600288020188555050505b505050505050565b5f604082019050611d335f830185611181565b611d406020830184611102565b9392505050565b5f611d5182611074565b91507fffffffffffffffffffffffffffffffffffffffffffffffffffffffffffffffff8203611d8357611d826118e6565b5b60018201905091905056fea26469706673582212203d0dcfdfc6714308fdbd90a2aa9edcdd4eb1394527d335f729ccf3772df4a5f664736f6c634300081e0033",
					"opcodes": "PUSH1 0x80 PUSH1 0x40 MSTORE CALLVALUE DUP1 ISZERO PUSH1 0xE JUMPI PUSH0 PUSH0 REVERT JUMPDEST POP PUSH2 0x1DC4 DUP1 PUSH2 0x1C PUSH0 CODECOPY PUSH0 RETURN INVALID PUSH1 0x80 PUSH1 0x40 MSTORE PUSH1 0x4 CALLDATASIZE LT PUSH2 0x85 JUMPI PUSH0 CALLDATALOAD PUSH1 0xE0 SHR DUP1 PUSH4 0x711853AB GT PUSH2 0x58 JUMPI DUP1 PUSH4 0x711853AB EQ PUSH2 0x15D JUMPI DUP1 PUSH4 0x7274E30D EQ PUSH2 0x185 JUMPI DUP1 PUSH4 0x7326C9C0 EQ PUSH2 0x1AF JUMPI DUP1 PUSH4 0xA318F269 EQ PUSH2 0x1CB JUMPI DUP1 PUSH4 0xE081DBF9 EQ PUSH2 0x1F3 JUMPI PUSH2 0x85 JUMP JUMPDEST DUP1 PUSH4 0x1B55E338 EQ PUSH2 0x89 JUMPI DUP1 PUSH4 0x278ECDE1 EQ PUSH2 0xB1 JUMPI DUP1 PUSH4 0x4013BE10 EQ PUSH2 0xD9 JUMPI DUP1 PUSH4 0x5598F8CC EQ PUSH2 0x11B JUMPI JUMPDEST PUSH0 PUSH0 REVERT JUMPDEST CALLVALUE DUP1 ISZERO PUSH2 0x94 JUMPI PUSH0 PUSH0 REVERT JUMPDEST POP PUSH2 0xAF PUSH1 0x4 DUP1 CALLDATASIZE SUB DUP2 ADD SWAP1 PUSH2 0xAA SWAP2 SWAP1 PUSH2 0x10A7 JUMP JUMPDEST PUSH2 0x22F JUMP JUMPDEST STOP JUMPDEST CALLVALUE DUP1 ISZERO PUSH2 0xBC JUMPI PUSH0 PUSH0 REVERT JUMPDEST POP PUSH2 0xD7 PUSH1 0x4 DUP1 CALLDATASIZE SUB DUP2 ADD SWAP1 PUSH2 0xD2 SWAP2 SWAP1 PUSH2 0x10A7 JUMP JUMPDEST PUSH2 0x4DF JUMP JUMPDEST STOP JUMPDEST CALLVALUE DUP1 ISZERO PUSH2 0xE4 JUMPI PUSH0 PUSH0 REVERT JUMPDEST POP PUSH2 0xFF PUSH1 0x4 DUP1 CALLDATASIZE SUB DUP2 ADD SWAP1 PUSH2 0xFA SWAP2 SWAP1 PUSH2 0x10A7 JUMP JUMPDEST PUSH2 0x728 JUMP JUMPDEST PUSH1 0x40 MLOAD PUSH2 0x112 SWAP8 SWAP7 SWAP6 SWAP5 SWAP4 SWAP3 SWAP2 SWAP1 PUSH2 0x11AA JUMP JUMPDEST PUSH1 0x40 MLOAD DUP1 SWAP2 SUB SWAP1 RETURN JUMPDEST CALLVALUE DUP1 ISZERO PUSH2 0x126 JUMPI PUSH0 PUSH0 REVERT JUMPDEST POP PUSH2 0x141 PUSH1 0x4 DUP1 CALLDATASIZE SUB DUP2 ADD SWAP1 PUSH2 0x13C SWAP2 SWAP1 PUSH2 0x10A7 JUMP JUMPDEST PUSH2 0x89D JUMP JUMPDEST PUSH1 0x40 MLOAD PUSH2 0x154 SWAP8 SWAP7 SWAP6 SWAP5 SWAP4 SWAP3 SWAP2 SWAP1 PUSH2 0x11AA JUMP JUMPDEST PUSH1 0x40 MLOAD DUP1 SWAP2 SUB SWAP1 RETURN JUMPDEST CALLVALUE DUP1 ISZERO PUSH2 0x168 JUMPI PUSH0 PUSH0 REVERT JUMPDEST POP PUSH2 0x183 PUSH1 0x4 DUP1 CALLDATASIZE SUB DUP2 ADD SWAP1 PUSH2 0x17E SWAP2 SWAP1 PUSH2 0x1225 JUMP JUMPDEST PUSH2 0xA77 JUMP JUMPDEST STOP JUMPDEST CALLVALUE DUP1 ISZERO PUSH2 0x190 JUMPI PUSH0 PUSH0 REVERT JUMPDEST POP PUSH2 0x199 PUSH2 0xCAD JUMP JUMPDEST PUSH1 0x40 MLOAD PUSH2 0x1A6 SWAP2 SWAP1 PUSH2 0x1263 JUMP JUMPDEST PUSH1 0x40 MLOAD DUP1 SWAP2 SUB SWAP1 RETURN JUMPDEST PUSH2 0x1C9 PUSH1 0x4 DUP1 CALLDATASIZE SUB DUP2 ADD SWAP1 PUSH2 0x1C4 SWAP2 SWAP1 PUSH2 0x10A7 JUMP JUMPDEST PUSH2 0xCB2 JUMP JUMPDEST STOP JUMPDEST CALLVALUE DUP1 ISZERO PUSH2 0x1D6 JUMPI PUSH0 PUSH0 REVERT JUMPDEST POP PUSH2 0x1F1 PUSH1 0x4 DUP1 CALLDATASIZE SUB DUP2 ADD SWAP1 PUSH2 0x1EC SWAP2 SWAP1 PUSH2 0x13A8 JUMP JUMPDEST PUSH2 0xE53 JUMP JUMPDEST STOP JUMPDEST CALLVALUE DUP1 ISZERO PUSH2 0x1FE JUMPI PUSH0 PUSH0 REVERT JUMPDEST POP PUSH2 0x219 PUSH1 0x4 DUP1 CALLDATASIZE SUB DUP2 ADD SWAP1 PUSH2 0x214 SWAP2 SWAP1 PUSH2 0x146E JUMP JUMPDEST PUSH2 0xFC5 JUMP JUMPDEST PUSH1 0x40 MLOAD PUSH2 0x226 SWAP2 SWAP1 PUSH2 0x1263 JUMP JUMPDEST PUSH1 0x40 MLOAD DUP1 SWAP2 SUB SWAP1 RETURN JUMPDEST DUP1 PUSH0 SLOAD DUP2 LT PUSH2 0x273 JUMPI PUSH1 0x40 MLOAD PUSH32 0x8C379A000000000000000000000000000000000000000000000000000000000 DUP2 MSTORE PUSH1 0x4 ADD PUSH2 0x26A SWAP1 PUSH2 0x14F6 JUMP JUMPDEST PUSH1 0x40 MLOAD DUP1 SWAP2 SUB SWAP1 REVERT JUMPDEST DUP2 PUSH1 0x1 PUSH0 DUP3 DUP2 MSTORE PUSH1 0x20 ADD SWAP1 DUP2 MSTORE PUSH1 0x20 ADD PUSH0 KECCAK256 PUSH0 ADD PUSH0 SWAP1 SLOAD SWAP1 PUSH2 0x100 EXP SWAP1 DIV PUSH20 0xFFFFFFFFFFFFFFFFFFFFFFFFFFFFFFFFFFFFFFFF AND PUSH20 0xFFFFFFFFFFFFFFFFFFFFFFFFFFFFFFFFFFFFFFFF AND CALLER PUSH20 0xFFFFFFFFFFFFFFFFFFFFFFFFFFFFFFFFFFFFFFFF AND EQ PUSH2 0x314 JUMPI PUSH1 0x40 MLOAD PUSH32 0x8C379A000000000000000000000000000000000000000000000000000000000 DUP2 MSTORE PUSH1 0x4 ADD PUSH2 0x30B SWAP1 PUSH2 0x155E JUMP JUMPDEST PUSH1 0x40 MLOAD DUP1 SWAP2 SUB SWAP1 REVERT JUMPDEST DUP3 PUSH1 0x1 PUSH0 DUP3 DUP2 MSTORE PUSH1 0x20 ADD SWAP1 DUP2 MSTORE PUSH1 0x20 ADD PUSH0 KECCAK256 PUSH1 0x4 ADD SLOAD TIMESTAMP LT ISZERO PUSH2 0x36C JUMPI PUSH1 0x40 MLOAD PUSH32 0x8C379A000000000000000000000000000000000000000000000000000000000 DUP2 MSTORE PUSH1 0x4 ADD PUSH2 0x363 SWAP1 PUSH2 0x15C6 JUMP JUMPDEST PUSH1 0x40 MLOAD DUP1 SWAP2 SUB SWAP1 REVERT JUMPDEST PUSH0 PUSH1 0x1 PUSH0 DUP7 DUP2 MSTORE PUSH1 0x20 ADD SWAP1 DUP2 MSTORE PUSH1 0x20 ADD PUSH0 KECCAK256 SWAP1 POP DUP1 PUSH1 0x3 ADD SLOAD DUP2 PUSH1 0x5 ADD SLOAD GT PUSH2 0x3CA JUMPI PUSH1 0x40 MLOAD PUSH32 0x8C379A000000000000000000000000000000000000000000000000000000000 DUP2 MSTORE PUSH1 0x4 ADD PUSH2 0x3C1 SWAP1 PUSH2 0x162E JUMP JUMPDEST PUSH1 0x40 MLOAD DUP1 SWAP2 SUB SWAP1 REVERT JUMPDEST DUP1 PUSH1 0x6 ADD PUSH0 SWAP1 SLOAD SWAP1 PUSH2 0x100 EXP SWAP1 DIV PUSH1 0xFF AND ISZERO PUSH2 0x41B JUMPI PUSH1 0x40 MLOAD PUSH32 0x8C379A000000000000000000000000000000000000000000000000000000000 DUP2 MSTORE PUSH1 0x4 ADD PUSH2 0x412 SWAP1 PUSH2 0x1696 JUMP JUMPDEST PUSH1 0x40 MLOAD DUP1 SWAP2 SUB SWAP1 REVERT JUMPDEST PUSH1 0x1 DUP2 PUSH1 0x6 ADD PUSH0 PUSH2 0x100 EXP DUP2 SLOAD DUP2 PUSH1 0xFF MUL NOT AND SWAP1 DUP4 ISZERO ISZERO MUL OR SWAP1 SSTORE POP DUP1 PUSH0 ADD PUSH0 SWAP1 SLOAD SWAP1 PUSH2 0x100 EXP SWAP1 DIV PUSH20 0xFFFFFFFFFFFFFFFFFFFFFFFFFFFFFFFFFFFFFFFF AND PUSH20 0xFFFFFFFFFFFFFFFFFFFFFFFFFFFFFFFFFFFFFFFF AND PUSH2 0x8FC DUP3 PUSH1 0x5 ADD SLOAD SWAP1 DUP2 ISZERO MUL SWAP1 PUSH1 0x40 MLOAD PUSH0 PUSH1 0x40 MLOAD DUP1 DUP4 SUB DUP2 DUP6 DUP9 DUP9 CALL SWAP4 POP POP POP POP ISZERO DUP1 ISZERO PUSH2 0x4A0 JUMPI RETURNDATASIZE PUSH0 PUSH0 RETURNDATACOPY RETURNDATASIZE PUSH0 REVERT JUMPDEST POP PUSH32 0xFAD629533A8EADED67C8B7F9FC7184A01CE682C999676EB2BACBE99800BD6729 DUP6 PUSH1 0x40 MLOAD PUSH2 0x4D0 SWAP2 SWAP1 PUSH2 0x1263 JUMP JUMPDEST PUSH1 0x40 MLOAD DUP1 SWAP2 SUB SWAP1 LOG1 POP POP POP POP POP JUMP JUMPDEST DUP1 PUSH0 SLOAD DUP2 LT PUSH2 0x523 JUMPI PUSH1 0x40 MLOAD PUSH32 0x8C379A000000000000000000000000000000000000000000000000000000000 DUP2 MSTORE PUSH1 0x4 ADD PUSH2 0x51A SWAP1 PUSH2 0x14F6 JUMP JUMPDEST PUSH1 0x40 MLOAD DUP1 SWAP2 SUB SWAP1 REVERT JUMPDEST DUP2 PUSH1 0x1 PUSH0 DUP3 DUP2 MSTORE PUSH1 0x20 ADD SWAP1 DUP2 MSTORE PUSH1 0x20 ADD PUSH0 KECCAK256 PUSH1 0x4 ADD SLOAD TIMESTAMP LT ISZERO PUSH2 0x57B JUMPI PUSH1 0x40 MLOAD PUSH32 0x8C379A000000000000000000000000000000000000000000000000000000000 DUP2 MSTORE PUSH1 0x4 ADD PUSH2 0x572 SWAP1 PUSH2 0x15C6 JUMP JUMPDEST PUSH1 0x40 MLOAD DUP1 SWAP2 SUB SWAP1 REVERT JUMPDEST PUSH0 PUSH1 0x1 PUSH0 DUP6 DUP2 MSTORE PUSH1 0x20 ADD SWAP1 DUP2 MSTORE PUSH1 0x20 ADD PUSH0 KECCAK256 SWAP1 POP DUP1 PUSH1 0x3 ADD SLOAD DUP2 PUSH1 0x5 ADD SLOAD LT PUSH2 0x5D9 JUMPI PUSH1 0x40 MLOAD PUSH32 0x8C379A000000000000000000000000000000000000000000000000000000000 DUP2 MSTORE PUSH1 0x4 ADD PUSH2 0x5D0 SWAP1 PUSH2 0x16FE JUMP JUMPDEST PUSH1 0x40 MLOAD DUP1 SWAP2 SUB SWAP1 REVERT JUMPDEST PUSH0 DUP2 PUSH1 0x7 ADD PUSH0 CALLER PUSH20 0xFFFFFFFFFFFFFFFFFFFFFFFFFFFFFFFFFFFFFFFF AND PUSH20 0xFFFFFFFFFFFFFFFFFFFFFFFFFFFFFFFFFFFFFFFF AND DUP2 MSTORE PUSH1 0x20 ADD SWAP1 DUP2 MSTORE PUSH1 0x20 ADD PUSH0 KECCAK256 SLOAD SWAP1 POP PUSH0 DUP2 GT PUSH2 0x65E JUMPI PUSH1 0x40 MLOAD PUSH32 0x8C379A000000000000000000000000000000000000000000000000000000000 DUP2 MSTORE PUSH1 0x4 ADD PUSH2 0x655 SWAP1 PUSH2 0x1766 JUMP JUMPDEST PUSH1 0x40 MLOAD DUP1 SWAP2 SUB SWAP1 REVERT JUMPDEST PUSH0 DUP3 PUSH1 0x7 ADD PUSH0 CALLER PUSH20 0xFFFFFFFFFFFFFFFFFFFFFFFFFFFFFFFFFFFFFFFF AND PUSH20 0xFFFFFFFFFFFFFFFFFFFFFFFFFFFFFFFFFFFFFFFF AND DUP2 MSTORE PUSH1 0x20 ADD SWAP1 DUP2 MSTORE PUSH1 0x20 ADD PUSH0 KECCAK256 DUP2 SWAP1 SSTORE POP CALLER PUSH20 0xFFFFFFFFFFFFFFFFFFFFFFFFFFFFFFFFFFFFFFFF AND PUSH2 0x8FC DUP3 SWAP1 DUP2 ISZERO MUL SWAP1 PUSH1 0x40 MLOAD PUSH0 PUSH1 0x40 MLOAD DUP1 DUP4 SUB DUP2 DUP6 DUP9 DUP9 CALL SWAP4 POP POP POP POP ISZERO DUP1 ISZERO PUSH2 0x6E5 JUMPI RETURNDATASIZE PUSH0 PUSH0 RETURNDATACOPY RETURNDATASIZE PUSH0 REVERT JUMPDEST POP PUSH32 0x7CA5472B7EA78C2C0141C5A12EE6D170CF4CE8ED06BE3D22C8252DDFC7A6A2C4 DUP6 CALLER DUP4 PUSH1 0x40 MLOAD PUSH2 0x719 SWAP4 SWAP3 SWAP2 SWAP1 PUSH2 0x1784 JUMP JUMPDEST PUSH1 0x40 MLOAD DUP1 SWAP2 SUB SWAP1 LOG1 POP POP POP POP POP JUMP JUMPDEST PUSH1 0x1 PUSH1 0x20 MSTORE DUP1 PUSH0 MSTORE PUSH1 0x40 PUSH0 KECCAK256 PUSH0 SWAP2 POP SWAP1 POP DUP1 PUSH0 ADD PUSH0 SWAP1 SLOAD SWAP1 PUSH2 0x100 EXP SWAP1 DIV PUSH20 0xFFFFFFFFFFFFFFFFFFFFFFFFFFFFFFFFFFFFFFFF AND SWAP1 DUP1 PUSH1 0x1 ADD DUP1 SLOAD PUSH2 0x76C SWAP1 PUSH2 0x17E6 JUMP JUMPDEST DUP1 PUSH1 0x1F ADD PUSH1 0x20 DUP1 SWAP2 DIV MUL PUSH1 0x20 ADD PUSH1 0x40 MLOAD SWAP1 DUP2 ADD PUSH1 0x40 MSTORE DUP1 SWAP3 SWAP2 SWAP1 DUP2 DUP2 MSTORE PUSH1 0x20 ADD DUP3 DUP1 SLOAD PUSH2 0x798 SWAP1 PUSH2 0x17E6 JUMP JUMPDEST DUP1 ISZERO PUSH2 0x7E3 JUMPI DUP1 PUSH1 0x1F LT PUSH2 0x7BA JUMPI PUSH2 0x100 DUP1 DUP4 SLOAD DIV MUL DUP4 MSTORE SWAP2 PUSH1 0x20 ADD SWAP2 PUSH2 0x7E3 JUMP JUMPDEST DUP3 ADD SWAP2 SWAP1 PUSH0 MSTORE PUSH1 0x20 PUSH0 KECCAK256 SWAP1 JUMPDEST DUP2 SLOAD DUP2 MSTORE SWAP1 PUSH1 0x1 ADD SWAP1 PUSH1 0x20 ADD DUP1 DUP4 GT PUSH2 0x7C6 JUMPI DUP3 SWAP1 SUB PUSH1 0x1F AND DUP3 ADD SWAP2 JUMPDEST POP POP POP POP POP SWAP1 DUP1 PUSH1 0x2 ADD DUP1 SLOAD PUSH2 0x7F8 SWAP1 PUSH2 0x17E6 JUMP JUMPDEST DUP1 PUSH1 0x1F ADD PUSH1 0x20 DUP1 SWAP2 DIV MUL PUSH1 0x20 ADD PUSH1 0x40 MLOAD SWAP1 DUP2 ADD PUSH1 0x40 MSTORE DUP1 SWAP3 SWAP2 SWAP1 DUP2 DUP2 MSTORE PUSH1 0x20 ADD DUP3 DUP1 SLOAD PUSH2 0x824 SWAP1 PUSH2 0x17E6 JUMP JUMPDEST DUP1 ISZERO PUSH2 0x86F JUMPI DUP1 PUSH1 0x1F LT PUSH2 0x846 JUMPI PUSH2 0x100 DUP1 DUP4 SLOAD DIV MUL DUP4 MSTORE SWAP2 PUSH1 0x20 ADD SWAP2 PUSH2 0x86F JUMP JUMPDEST DUP3 ADD SWAP2 SWAP1 PUSH0 MSTORE PUSH1 0x20 PUSH0 KECCAK256 SWAP1 JUMPDEST DUP2 SLOAD DUP2 MSTORE SWAP1 PUSH1 0x1 ADD SWAP1 PUSH1 0x20 ADD DUP1 DUP4 GT PUSH2 0x852 JUMPI DUP3 SWAP1 SUB PUSH1 0x1F AND DUP3 ADD SWAP2 JUMPDEST POP POP POP POP POP SWAP1 DUP1 PUSH1 0x3 ADD SLOAD SWAP1 DUP1 PUSH1 0x4 ADD SLOAD SWAP1 DUP1 PUSH1 0x5 ADD SLOAD SWAP1 DUP1 PUSH1 0x6 ADD PUSH0 SWAP1 SLOAD SWAP1 PUSH2 0x100 EXP SWAP1 DIV PUSH1 0xFF AND SWAP1 POP DUP8 JUMP JUMPDEST PUSH0 PUSH1 0x60 DUP1 PUSH0 PUSH0 PUSH0 PUSH0 DUP8 PUSH0 SLOAD DUP2 LT PUSH2 0x8E9 JUMPI PUSH1 0x40 MLOAD PUSH32 0x8C379A000000000000000000000000000000000000000000000000000000000 DUP2 MSTORE PUSH1 0x4 ADD PUSH2 0x8E0 SWAP1 PUSH2 0x14F6 JUMP JUMPDEST PUSH1 0x40 MLOAD DUP1 SWAP2 SUB SWAP1 REVERT JUMPDEST PUSH0 PUSH1 0x1 PUSH0 DUP12 DUP2 MSTORE PUSH1 0x20 ADD SWAP1 DUP2 MSTORE PUSH1 0x20 ADD PUSH0 KECCAK256 SWAP1 POP DUP1 PUSH0 ADD PUSH0 SWAP1 SLOAD SWAP1 PUSH2 0x100 EXP SWAP1 DIV PUSH20 0xFFFFFFFFFFFFFFFFFFFFFFFFFFFFFFFFFFFFFFFF AND DUP2 PUSH1 0x1 ADD DUP3 PUSH1 0x2 ADD DUP4 PUSH1 0x3 ADD SLOAD DUP5 PUSH1 0x4 ADD SLOAD DUP6 PUSH1 0x5 ADD SLOAD DUP7 PUSH1 0x6 ADD PUSH0 SWAP1 SLOAD SWAP1 PUSH2 0x100 EXP SWAP1 DIV PUSH1 0xFF AND DUP6 DUP1 SLOAD PUSH2 0x954 SWAP1 PUSH2 0x17E6 JUMP JUMPDEST DUP1 PUSH1 0x1F ADD PUSH1 0x20 DUP1 SWAP2 DIV MUL PUSH1 0x20 ADD PUSH1 0x40 MLOAD SWAP1 DUP2 ADD PUSH1 0x40 MSTORE DUP1 SWAP3 SWAP2 SWAP1 DUP2 DUP2 MSTORE PUSH1 0x20 ADD DUP3 DUP1 SLOAD PUSH2 0x980 SWAP1 PUSH2 0x17E6 JUMP JUMPDEST DUP1 ISZERO PUSH2 0x9CB JUMPI DUP1 PUSH1 0x1F LT PUSH2 0x9A2 JUMPI PUSH2 0x100 DUP1 DUP4 SLOAD DIV MUL DUP4 MSTORE SWAP2 PUSH1 0x20 ADD SWAP2 PUSH2 0x9CB JUMP JUMPDEST DUP3 ADD SWAP2 SWAP1 PUSH0 MSTORE PUSH1 0x20 PUSH0 KECCAK256 SWAP1 JUMPDEST DUP2 SLOAD DUP2 MSTORE SWAP1 PUSH1 0x1 ADD SWAP1 PUSH1 0x20 ADD DUP1 DUP4 GT PUSH2 0x9AE JUMPI DUP3 SWAP1 SUB PUSH1 0x1F AND DUP3 ADD SWAP2 JUMPDEST POP POP POP POP POP SWAP6 POP DUP5 DUP1 SLOAD PUSH2 0x9DE SWAP1 PUSH2 0x17E6 JUMP JUMPDEST DUP1 PUSH1 0x1F ADD PUSH1 0x20 DUP1 SWAP2 DIV MUL PUSH1 0x20 ADD PUSH1 0x40 MLOAD SWAP1 DUP2 ADD PUSH1 0x40 MSTORE DUP1 SWAP3 SWAP2 SWAP1 DUP2 DUP2 MSTORE PUSH1 0x20 ADD DUP3 DUP1 SLOAD PUSH2 0xA0A SWAP1 PUSH2 0x17E6 JUMP JUMPDEST DUP1 ISZERO PUSH2 0xA55 JUMPI DUP1 PUSH1 0x1F LT PUSH2 0xA2C JUMPI PUSH2 0x100 DUP1 DUP4 SLOAD DIV MUL DUP4 MSTORE SWAP2 PUSH1 0x20 ADD SWAP2 PUSH2 0xA55 JUMP JUMPDEST DUP3 ADD SWAP2 SWAP1 PUSH0 MSTORE PUSH1 0x20 PUSH0 KECCAK256 SWAP1 JUMPDEST DUP2 SLOAD DUP2 MSTORE SWAP1 PUSH1 0x1 ADD SWAP1 PUSH1 0x20 ADD DUP1 DUP4 GT PUSH2 0xA38 JUMPI DUP3 SWAP1 SUB PUSH1 0x1F AND DUP3 ADD SWAP2 JUMPDEST POP POP POP POP POP SWAP5 POP SWAP9 POP SWAP9 POP SWAP9 POP SWAP9 POP SWAP9 POP SWAP9 POP SWAP9 POP POP POP SWAP2 SWAP4 SWAP6 SWAP8 SWAP1 SWAP3 SWAP5 SWAP7 POP JUMP JUMPDEST DUP2 PUSH0 SLOAD DUP2 LT PUSH2 0xABB JUMPI PUSH1 0x40 MLOAD PUSH32 0x8C379A000000000000000000000000000000000000000000000000000000000 DUP2 MSTORE PUSH1 0x4 ADD PUSH2 0xAB2 SWAP1 PUSH2 0x14F6 JUMP JUMPDEST PUSH1 0x40 MLOAD DUP1 SWAP2 SUB SWAP1 REVERT JUMPDEST DUP3 PUSH1 0x1 PUSH0 DUP3 DUP2 MSTORE PUSH1 0x20 ADD SWAP1 DUP2 MSTORE PUSH1 0x20 ADD PUSH0 KECCAK256 PUSH1 0x4 ADD SLOAD TIMESTAMP LT PUSH2 0xB12 JUMPI PUSH1 0x40 MLOAD PUSH32 0x8C379A000000000000000000000000000000000000000000000000000000000 DUP2 MSTORE PUSH1 0x4 ADD PUSH2 0xB09 SWAP1 PUSH2 0x1860 JUMP JUMPDEST PUSH1 0x40 MLOAD DUP1 SWAP2 SUB SWAP1 REVERT JUMPDEST PUSH0 PUSH1 0x1 PUSH0 DUP7 DUP2 MSTORE PUSH1 0x20 ADD SWAP1 DUP2 MSTORE PUSH1 0x20 ADD PUSH0 KECCAK256 SWAP1 POP PUSH0 DUP2 PUSH1 0x7 ADD PUSH0 CALLER PUSH20 0xFFFFFFFFFFFFFFFFFFFFFFFFFFFFFFFFFFFFFFFF AND PUSH20 0xFFFFFFFFFFFFFFFFFFFFFFFFFFFFFFFFFFFFFFFF AND DUP2 MSTORE PUSH1 0x20 ADD SWAP1 DUP2 MSTORE PUSH1 0x20 ADD PUSH0 KECCAK256 SLOAD SWAP1 POP PUSH0 DUP6 GT DUP1 ISZERO PUSH2 0xB78 JUMPI POP DUP5 DUP2 LT ISZERO JUMPDEST PUSH2 0xBB7 JUMPI PUSH1 0x40 MLOAD PUSH32 0x8C379A000000000000000000000000000000000000000000000000000000000 DUP2 MSTORE PUSH1 0x4 ADD PUSH2 0xBAE SWAP1 PUSH2 0x18C8 JUMP JUMPDEST PUSH1 0x40 MLOAD DUP1 SWAP2 SUB SWAP1 REVERT JUMPDEST DUP5 DUP3 PUSH1 0x5 ADD PUSH0 DUP3 DUP3 SLOAD PUSH2 0xBCA SWAP2 SWAP1 PUSH2 0x1913 JUMP JUMPDEST SWAP3 POP POP DUP2 SWAP1 SSTORE POP DUP5 DUP3 PUSH1 0x7 ADD PUSH0 CALLER PUSH20 0xFFFFFFFFFFFFFFFFFFFFFFFFFFFFFFFFFFFFFFFF AND PUSH20 0xFFFFFFFFFFFFFFFFFFFFFFFFFFFFFFFFFFFFFFFF AND DUP2 MSTORE PUSH1 0x20 ADD SWAP1 DUP2 MSTORE PUSH1 0x20 ADD PUSH0 KECCAK256 PUSH0 DUP3 DUP3 SLOAD PUSH2 0xC1F SWAP2 SWAP1 PUSH2 0x1913 JUMP JUMPDEST SWAP3 POP POP DUP2 SWAP1 SSTORE POP CALLER PUSH20 0xFFFFFFFFFFFFFFFFFFFFFFFFFFFFFFFFFFFFFFFF AND PUSH2 0x8FC DUP7 SWAP1 DUP2 ISZERO MUL SWAP1 PUSH1 0x40 MLOAD PUSH0 PUSH1 0x40 MLOAD DUP1 DUP4 SUB DUP2 DUP6 DUP9 DUP9 CALL SWAP4 POP POP POP POP ISZERO DUP1 ISZERO PUSH2 0xC69 JUMPI RETURNDATASIZE PUSH0 PUSH0 RETURNDATACOPY RETURNDATASIZE PUSH0 REVERT JUMPDEST POP PUSH32 0xFCD29B1632C6748A9A4BB9B4CD5C6486C3C84A8550DCE2368F83FEF3969D9685 DUP7 CALLER DUP8 PUSH1 0x40 MLOAD PUSH2 0xC9D SWAP4 SWAP3 SWAP2 SWAP1 PUSH2 0x1784 JUMP JUMPDEST PUSH1 0x40 MLOAD DUP1 SWAP2 SUB SWAP1 LOG1 POP POP POP POP POP POP JUMP JUMPDEST PUSH0 SLOAD DUP2 JUMP JUMPDEST DUP1 PUSH0 SLOAD DUP2 LT PUSH2 0xCF6 JUMPI PUSH1 0x40 MLOAD PUSH32 0x8C379A000000000000000000000000000000000000000000000000000000000 DUP2 MSTORE PUSH1 0x4 ADD PUSH2 0xCED SWAP1 PUSH2 0x14F6 JUMP JUMPDEST PUSH1 0x40 MLOAD DUP1 SWAP2 SUB SWAP1 REVERT JUMPDEST DUP2 PUSH1 0x1 PUSH0 DUP3 DUP2 MSTORE PUSH1 0x20 ADD SWAP1 DUP2 MSTORE PUSH1 0x20 ADD PUSH0 KECCAK256 PUSH1 0x4 ADD SLOAD TIMESTAMP LT PUSH2 0xD4D JUMPI PUSH1 0x40 MLOAD PUSH32 0x8C379A000000000000000000000000000000000000000000000000000000000 DUP2 MSTORE PUSH1 0x4 ADD PUSH2 0xD44 SWAP1 PUSH2 0x1860 JUMP JUMPDEST PUSH1 0x40 MLOAD DUP1 SWAP2 SUB SWAP1 REVERT JUMPDEST PUSH0 CALLVALUE GT PUSH2 0xD8F JUMPI PUSH1 0x40 MLOAD PUSH32 0x8C379A000000000000000000000000000000000000000000000000000000000 DUP2 MSTORE PUSH1 0x4 ADD PUSH2 0xD86 SWAP1 PUSH2 0x1990 JUMP JUMPDEST PUSH1 0x40 MLOAD DUP1 SWAP2 SUB SWAP1 REVERT JUMPDEST PUSH0 PUSH1 0x1 PUSH0 DUP6 DUP2 MSTORE PUSH1 0x20 ADD SWAP1 DUP2 MSTORE PUSH1 0x20 ADD PUSH0 KECCAK256 SWAP1 POP CALLVALUE DUP2 PUSH1 0x5 ADD PUSH0 DUP3 DUP3 SLOAD PUSH2 0xDB6 SWAP2 SWAP1 PUSH2 0x19AE JUMP JUMPDEST SWAP3 POP POP DUP2 SWAP1 SSTORE POP CALLVALUE DUP2 PUSH1 0x7 ADD PUSH0 CALLER PUSH20 0xFFFFFFFFFFFFFFFFFFFFFFFFFFFFFFFFFFFFFFFF AND PUSH20 0xFFFFFFFFFFFFFFFFFFFFFFFFFFFFFFFFFFFFFFFF AND DUP2 MSTORE PUSH1 0x20 ADD SWAP1 DUP2 MSTORE PUSH1 0x20 ADD PUSH0 KECCAK256 PUSH0 DUP3 DUP3 SLOAD PUSH2 0xE0B SWAP2 SWAP1 PUSH2 0x19AE JUMP JUMPDEST SWAP3 POP POP DUP2 SWAP1 SSTORE POP PUSH32 0x2757AC6A40883F4491CC56930AE964DF9034E343E660D5179EB01E198336756B DUP5 CALLER CALLVALUE PUSH1 0x40 MLOAD PUSH2 0xE45 SWAP4 SWAP3 SWAP2 SWAP1 PUSH2 0x1784 JUMP JUMPDEST PUSH1 0x40 MLOAD DUP1 SWAP2 SUB SWAP1 LOG1 POP POP POP POP JUMP JUMPDEST PUSH0 DUP3 GT PUSH2 0xE95 JUMPI PUSH1 0x40 MLOAD PUSH32 0x8C379A000000000000000000000000000000000000000000000000000000000 DUP2 MSTORE PUSH1 0x4 ADD PUSH2 0xE8C SWAP1 PUSH2 0x1A2B JUMP JUMPDEST PUSH1 0x40 MLOAD DUP1 SWAP2 SUB SWAP1 REVERT JUMPDEST PUSH0 DUP2 GT PUSH2 0xED7 JUMPI PUSH1 0x40 MLOAD PUSH32 0x8C379A000000000000000000000000000000000000000000000000000000000 DUP2 MSTORE PUSH1 0x4 ADD PUSH2 0xECE SWAP1 PUSH2 0x1A93 JUMP JUMPDEST PUSH1 0x40 MLOAD DUP1 SWAP2 SUB SWAP1 REVERT JUMPDEST PUSH0 PUSH1 0x1 PUSH0 PUSH0 SLOAD DUP2 MSTORE PUSH1 0x20 ADD SWAP1 DUP2 MSTORE PUSH1 0x20 ADD PUSH0 KECCAK256 SWAP1 POP CALLER DUP2 PUSH0 ADD PUSH0 PUSH2 0x100 EXP DUP2 SLOAD DUP2 PUSH20 0xFFFFFFFFFFFFFFFFFFFFFFFFFFFFFFFFFFFFFFFF MUL NOT AND SWAP1 DUP4 PUSH20 0xFFFFFFFFFFFFFFFFFFFFFFFFFFFFFFFFFFFFFFFF AND MUL OR SWAP1 SSTORE POP DUP5 DUP2 PUSH1 0x1 ADD SWAP1 DUP2 PUSH2 0xF3E SWAP2 SWAP1 PUSH2 0x1C51 JUMP JUMPDEST POP DUP4 DUP2 PUSH1 0x2 ADD SWAP1 DUP2 PUSH2 0xF50 SWAP2 SWAP1 PUSH2 0x1C51 JUMP JUMPDEST POP DUP3 DUP2 PUSH1 0x3 ADD DUP2 SWAP1 SSTORE POP DUP2 TIMESTAMP PUSH2 0xF66 SWAP2 SWAP1 PUSH2 0x19AE JUMP JUMPDEST DUP2 PUSH1 0x4 ADD DUP2 SWAP1 SSTORE POP PUSH32 0x633109EEC20320EDED000FC1E2634211AA7E92BA3F5B15FAF6DCDAFCA05094E4 PUSH0 SLOAD CALLER PUSH1 0x40 MLOAD PUSH2 0xFA0 SWAP3 SWAP2 SWAP1 PUSH2 0x1D20 JUMP JUMPDEST PUSH1 0x40 MLOAD DUP1 SWAP2 SUB SWAP1 LOG1 PUSH0 PUSH0 DUP2 SLOAD DUP1 SWAP3 SWAP2 SWAP1 PUSH2 0xFB9 SWAP1 PUSH2 0x1D47 JUMP JUMPDEST SWAP2 SWAP1 POP SSTORE POP POP POP POP POP POP JUMP JUMPDEST PUSH0 DUP3 PUSH0 SLOAD DUP2 LT PUSH2 0x100A JUMPI PUSH1 0x40 MLOAD PUSH32 0x8C379A000000000000000000000000000000000000000000000000000000000 DUP2 MSTORE PUSH1 0x4 ADD PUSH2 0x1001 SWAP1 PUSH2 0x14F6 JUMP JUMPDEST PUSH1 0x40 MLOAD DUP1 SWAP2 SUB SWAP1 REVERT JUMPDEST PUSH1 0x1 PUSH0 DUP6 DUP2 MSTORE PUSH1 0x20 ADD SWAP1 DUP2 MSTORE PUSH1 0x20 ADD PUSH0 KECCAK256 PUSH1 0x7 ADD PUSH0 DUP5 PUSH20 0xFFFFFFFFFFFFFFFFFFFFFFFFFFFFFFFFFFFFFFFF AND PUSH20 0xFFFFFFFFFFFFFFFFFFFFFFFFFFFFFFFFFFFFFFFF AND DUP2 MSTORE PUSH1 0x20 ADD SWAP1 DUP2 MSTORE PUSH1 0x20 ADD PUSH0 KECCAK256 SLOAD SWAP2 POP POP SWAP3 SWAP2 POP POP JUMP JUMPDEST PUSH0 PUSH1 0x40 MLOAD SWAP1 POP SWAP1 JUMP JUMPDEST PUSH0 PUSH0 REVERT JUMPDEST PUSH0 PUSH0 REVERT JUMPDEST PUSH0 DUP2 SWAP1 POP SWAP2 SWAP1 POP JUMP JUMPDEST PUSH2 0x1086 DUP2 PUSH2 0x1074 JUMP JUMPDEST DUP2 EQ PUSH2 0x1090 JUMPI PUSH0 PUSH0 REVERT JUMPDEST POP JUMP JUMPDEST PUSH0 DUP2 CALLDATALOAD SWAP1 POP PUSH2 0x10A1 DUP2 PUSH2 0x107D JUMP JUMPDEST SWAP3 SWAP2 POP POP JUMP JUMPDEST PUSH0 PUSH1 0x20 DUP3 DUP5 SUB SLT ISZERO PUSH2 0x10BC JUMPI PUSH2 0x10BB PUSH2 0x106C JUMP JUMPDEST JUMPDEST PUSH0 PUSH2 0x10C9 DUP5 DUP3 DUP6 ADD PUSH2 0x1093 JUMP JUMPDEST SWAP2 POP POP SWAP3 SWAP2 POP POP JUMP JUMPDEST PUSH0 PUSH20 0xFFFFFFFFFFFFFFFFFFFFFFFFFFFFFFFFFFFFFFFF DUP3 AND SWAP1 POP SWAP2 SWAP1 POP JUMP JUMPDEST PUSH0 PUSH2 0x10FB DUP3 PUSH2 0x10D2 JUMP JUMPDEST SWAP1 POP SWAP2 SWAP1 POP JUMP JUMPDEST PUSH2 0x110B DUP2 PUSH2 0x10F1 JUMP JUMPDEST DUP3 MSTORE POP POP JUMP JUMPDEST PUSH0 DUP2 MLOAD SWAP1 POP SWAP2 SWAP1 POP JUMP JUMPDEST PUSH0 DUP3 DUP3 MSTORE PUSH1 0x20 DUP3 ADD SWAP1 POP SWAP3 SWAP2 POP POP JUMP JUMPDEST DUP3 DUP2 DUP4 MCOPY PUSH0 DUP4 DUP4 ADD MSTORE POP POP POP JUMP JUMPDEST PUSH0 PUSH1 0x1F NOT PUSH1 0x1F DUP4 ADD AND SWAP1 POP SWAP2 SWAP1 POP JUMP JUMPDEST PUSH0 PUSH2 0x1153 DUP3 PUSH2 0x1111 JUMP JUMPDEST PUSH2 0x115D DUP2 DUP6 PUSH2 0x111B JUMP JUMPDEST SWAP4 POP PUSH2 0x116D DUP2 DUP6 PUSH1 0x20 DUP7 ADD PUSH2 0x112B JUMP JUMPDEST PUSH2 0x1176 DUP2 PUSH2 0x1139 JUMP JUMPDEST DUP5 ADD SWAP2 POP POP SWAP3 SWAP2 POP POP JUMP JUMPDEST PUSH2 0x118A DUP2 PUSH2 0x1074 JUMP JUMPDEST DUP3 MSTORE POP POP JUMP JUMPDEST PUSH0 DUP2 ISZERO ISZERO SWAP1 POP SWAP2 SWAP1 POP JUMP JUMPDEST PUSH2 0x11A4 DUP2 PUSH2 0x1190 JUMP JUMPDEST DUP3 MSTORE POP POP JUMP JUMPDEST PUSH0 PUSH1 0xE0 DUP3 ADD SWAP1 POP PUSH2 0x11BD PUSH0 DUP4 ADD DUP11 PUSH2 0x1102 JUMP JUMPDEST DUP2 DUP2 SUB PUSH1 0x20 DUP4 ADD MSTORE PUSH2 0x11CF DUP2 DUP10 PUSH2 0x1149 JUMP JUMPDEST SWAP1 POP DUP2 DUP2 SUB PUSH1 0x40 DUP4 ADD MSTORE PUSH2 0x11E3 DUP2 DUP9 PUSH2 0x1149 JUMP JUMPDEST SWAP1 POP PUSH2 0x11F2 PUSH1 0x60 DUP4 ADD DUP8 PUSH2 0x1181 JUMP JUMPDEST PUSH2 0x11FF PUSH1 0x80 DUP4 ADD DUP7 PUSH2 0x1181 JUMP JUMPDEST PUSH2 0x120C PUSH1 0xA0 DUP4 ADD DUP6 PUSH2 0x1181 JUMP JUMPDEST PUSH2 0x1219 PUSH1 0xC0 DUP4 ADD DUP5 PUSH2 0x119B JUMP JUMPDEST SWAP9 SWAP8 POP POP POP POP POP POP POP POP JUMP JUMPDEST PUSH0 PUSH0 PUSH1 0x40 DUP4 DUP6 SUB SLT ISZERO PUSH2 0x123B JUMPI PUSH2 0x123A PUSH2 0x106C JUMP JUMPDEST JUMPDEST PUSH0 PUSH2 0x1248 DUP6 DUP3 DUP7 ADD PUSH2 0x1093 JUMP JUMPDEST SWAP3 POP POP PUSH1 0x20 PUSH2 0x1259 DUP6 DUP3 DUP7 ADD PUSH2 0x1093 JUMP JUMPDEST SWAP2 POP POP SWAP3 POP SWAP3 SWAP1 POP JUMP JUMPDEST PUSH0 PUSH1 0x20 DUP3 ADD SWAP1 POP PUSH2 0x1276 PUSH0 DUP4 ADD DUP5 PUSH2 0x1181 JUMP JUMPDEST SWAP3 SWAP2 POP POP JUMP JUMPDEST PUSH0 PUSH0 REVERT JUMPDEST PUSH0 PUSH0 REVERT JUMPDEST PUSH32 0x4E487B7100000000000000000000000000000000000000000000000000000000 PUSH0 MSTORE PUSH1 0x41 PUSH1 0x4 MSTORE PUSH1 0x24 PUSH0 REVERT JUMPDEST PUSH2 0x12BA DUP3 PUSH2 0x1139 JUMP JUMPDEST DUP2 ADD DUP2 DUP2 LT PUSH8 0xFFFFFFFFFFFFFFFF DUP3 GT OR ISZERO PUSH2 0x12D9 JUMPI PUSH2 0x12D8 PUSH2 0x1284 JUMP JUMPDEST JUMPDEST DUP1 PUSH1 0x40 MSTORE POP POP POP JUMP JUMPDEST PUSH0 PUSH2 0x12EB PUSH2 0x1063 JUMP JUMPDEST SWAP1 POP PUSH2 0x12F7 DUP3 DUP3 PUSH2 0x12B1 JUMP JUMPDEST SWAP2 SWAP1 POP JUMP JUMPDEST PUSH0 PUSH8 0xFFFFFFFFFFFFFFFF DUP3 GT ISZERO PUSH2 0x1316 JUMPI PUSH2 0x1315 PUSH2 0x1284 JUMP JUMPDEST JUMPDEST PUSH2 0x131F DUP3 PUSH2 0x1139 JUMP JUMPDEST SWAP1 POP PUSH1 0x20 DUP2 ADD SWAP1 POP SWAP2 SWAP1 POP JUMP JUMPDEST DUP3 DUP2 DUP4 CALLDATACOPY PUSH0 DUP4 DUP4 ADD MSTORE POP POP POP JUMP JUMPDEST PUSH0 PUSH2 0x134C PUSH2 0x1347 DUP5 PUSH2 0x12FC JUMP JUMPDEST PUSH2 0x12E2 JUMP JUMPDEST SWAP1 POP DUP3 DUP2 MSTORE PUSH1 0x20 DUP2 ADD DUP5 DUP5 DUP5 ADD GT ISZERO PUSH2 0x1368 JUMPI PUSH2 0x1367 PUSH2 0x1280 JUMP JUMPDEST JUMPDEST PUSH2 0x1373 DUP5 DUP3 DUP6 PUSH2 0x132C JUMP JUMPDEST POP SWAP4 SWAP3 POP POP POP JUMP JUMPDEST PUSH0 DUP3 PUSH1 0x1F DUP4 ADD SLT PUSH2 0x138F JUMPI PUSH2 0x138E PUSH2 0x127C JUMP JUMPDEST JUMPDEST DUP2 CALLDATALOAD PUSH2 0x139F DUP5 DUP3 PUSH1 0x20 DUP7 ADD PUSH2 0x133A JUMP JUMPDEST SWAP2 POP POP SWAP3 SWAP2 POP POP JUMP JUMPDEST PUSH0 PUSH0 PUSH0 PUSH0 PUSH1 0x80 DUP6 DUP8 SUB SLT ISZERO PUSH2 0x13C0 JUMPI PUSH2 0x13BF PUSH2 0x106C JUMP JUMPDEST JUMPDEST PUSH0 DUP6 ADD CALLDATALOAD PUSH8 0xFFFFFFFFFFFFFFFF DUP2 GT ISZERO PUSH2 0x13DD JUMPI PUSH2 0x13DC PUSH2 0x1070 JUMP JUMPDEST JUMPDEST PUSH2 0x13E9 DUP8 DUP3 DUP9 ADD PUSH2 0x137B JUMP JUMPDEST SWAP5 POP POP PUSH1 0x20 DUP6 ADD CALLDATALOAD PUSH8 0xFFFFFFFFFFFFFFFF DUP2 GT ISZERO PUSH2 0x140A JUMPI PUSH2 0x1409 PUSH2 0x1070 JUMP JUMPDEST JUMPDEST PUSH2 0x1416 DUP8 DUP3 DUP9 ADD PUSH2 0x137B JUMP JUMPDEST SWAP4 POP POP PUSH1 0x40 PUSH2 0x1427 DUP8 DUP3 DUP9 ADD PUSH2 0x1093 JUMP JUMPDEST SWAP3 POP POP PUSH1 0x60 PUSH2 0x1438 DUP8 DUP3 DUP9 ADD PUSH2 0x1093 JUMP JUMPDEST SWAP2 POP POP SWAP3 SWAP6 SWAP2 SWAP5 POP SWAP3 POP JUMP JUMPDEST PUSH2 0x144D DUP2 PUSH2 0x10F1 JUMP JUMPDEST DUP2 EQ PUSH2 0x1457 JUMPI PUSH0 PUSH0 REVERT JUMPDEST POP JUMP JUMPDEST PUSH0 DUP2 CALLDATALOAD SWAP1 POP PUSH2 0x1468 DUP2 PUSH2 0x1444 JUMP JUMPDEST SWAP3 SWAP2 POP POP JUMP JUMPDEST PUSH0 PUSH0 PUSH1 0x40 DUP4 DUP6 SUB SLT ISZERO PUSH2 0x1484 JUMPI PUSH2 0x1483 PUSH2 0x106C JUMP JUMPDEST JUMPDEST PUSH0 PUSH2 0x1491 DUP6 DUP3 DUP7 ADD PUSH2 0x1093 JUMP JUMPDEST SWAP3 POP POP PUSH1 0x20 PUSH2 0x14A2 DUP6 DUP3 DUP7 ADD PUSH2 0x145A JUMP JUMPDEST SWAP2 POP POP SWAP3 POP SWAP3 SWAP1 POP JUMP JUMPDEST PUSH32 0x43616D706961676E20646F6573206E6F74206578697473000000000000000000 PUSH0 DUP3 ADD MSTORE POP JUMP JUMPDEST PUSH0 PUSH2 0x14E0 PUSH1 0x17 DUP4 PUSH2 0x111B JUMP JUMPDEST SWAP2 POP PUSH2 0x14EB DUP3 PUSH2 0x14AC JUMP JUMPDEST PUSH1 0x20 DUP3 ADD SWAP1 POP SWAP2 SWAP1 POP JUMP JUMPDEST PUSH0 PUSH1 0x20 DUP3 ADD SWAP1 POP DUP2 DUP2 SUB PUSH0 DUP4 ADD MSTORE PUSH2 0x150D DUP2 PUSH2 0x14D4 JUMP JUMPDEST SWAP1 POP SWAP2 SWAP1 POP JUMP JUMPDEST PUSH32 0x4E6F742043616D706961676E2063726561746F72000000000000000000000000 PUSH0 DUP3 ADD MSTORE POP JUMP JUMPDEST PUSH0 PUSH2 0x1548 PUSH1 0x14 DUP4 PUSH2 0x111B JUMP JUMPDEST SWAP2 POP PUSH2 0x1553 DUP3 PUSH2 0x1514 JUMP JUMPDEST PUSH1 0x20 DUP3 ADD SWAP1 POP SWAP2 SWAP1 POP JUMP JUMPDEST PUSH0 PUSH1 0x20 DUP3 ADD SWAP1 POP DUP2 DUP2 SUB PUSH0 DUP4 ADD MSTORE PUSH2 0x1575 DUP2 PUSH2 0x153C JUMP JUMPDEST SWAP1 POP SWAP2 SWAP1 POP JUMP JUMPDEST PUSH32 0x43616D706169676E73207374696C6C2041637469766500000000000000000000 PUSH0 DUP3 ADD MSTORE POP JUMP JUMPDEST PUSH0 PUSH2 0x15B0 PUSH1 0x16 DUP4 PUSH2 0x111B JUMP JUMPDEST SWAP2 POP PUSH2 0x15BB DUP3 PUSH2 0x157C JUMP JUMPDEST PUSH1 0x20 DUP3 ADD SWAP1 POP SWAP2 SWAP1 POP JUMP JUMPDEST PUSH0 PUSH1 0x20 DUP3 ADD SWAP1 POP DUP2 DUP2 SUB PUSH0 DUP4 ADD MSTORE PUSH2 0x15DD DUP2 PUSH2 0x15A4 JUMP JUMPDEST SWAP1 POP SWAP2 SWAP1 POP JUMP JUMPDEST PUSH32 0x46756E64696E6720676F616C206E6F7420796574000000000000000000000000 PUSH0 DUP3 ADD MSTORE POP JUMP JUMPDEST PUSH0 PUSH2 0x1618 PUSH1 0x14 DUP4 PUSH2 0x111B JUMP JUMPDEST SWAP2 POP PUSH2 0x1623 DUP3 PUSH2 0x15E4 JUMP JUMPDEST PUSH1 0x20 DUP3 ADD SWAP1 POP SWAP2 SWAP1 POP JUMP JUMPDEST PUSH0 PUSH1 0x20 DUP3 ADD SWAP1 POP DUP2 DUP2 SUB PUSH0 DUP4 ADD MSTORE PUSH2 0x1645 DUP2 PUSH2 0x160C JUMP JUMPDEST SWAP1 POP SWAP2 SWAP1 POP JUMP JUMPDEST PUSH32 0x46756E647320616C726561647920636C61696D65640000000000000000000000 PUSH0 DUP3 ADD MSTORE POP JUMP JUMPDEST PUSH0 PUSH2 0x1680 PUSH1 0x15 DUP4 PUSH2 0x111B JUMP JUMPDEST SWAP2 POP PUSH2 0x168B DUP3 PUSH2 0x164C JUMP JUMPDEST PUSH1 0x20 DUP3 ADD SWAP1 POP SWAP2 SWAP1 POP JUMP JUMPDEST PUSH0 PUSH1 0x20 DUP3 ADD SWAP1 POP DUP2 DUP2 SUB PUSH0 DUP4 ADD MSTORE PUSH2 0x16AD DUP2 PUSH2 0x1674 JUMP JUMPDEST SWAP1 POP SWAP2 SWAP1 POP JUMP JUMPDEST PUSH32 0x46756E64696E6720676F616C20776173206D6574000000000000000000000000 PUSH0 DUP3 ADD MSTORE POP JUMP JUMPDEST PUSH0 PUSH2 0x16E8 PUSH1 0x14 DUP4 PUSH2 0x111B JUMP JUMPDEST SWAP2 POP PUSH2 0x16F3 DUP3 PUSH2 0x16B4 JUMP JUMPDEST PUSH1 0x20 DUP3 ADD SWAP1 POP SWAP2 SWAP1 POP JUMP JUMPDEST PUSH0 PUSH1 0x20 DUP3 ADD SWAP1 POP DUP2 DUP2 SUB PUSH0 DUP4 ADD MSTORE PUSH2 0x1715 DUP2 PUSH2 0x16DC JUMP JUMPDEST SWAP1 POP SWAP2 SWAP1 POP JUMP JUMPDEST PUSH32 0x4E6F20636F6E747269627574696F6E20746F20726566756E6400000000000000 PUSH0 DUP3 ADD MSTORE POP JUMP JUMPDEST PUSH0 PUSH2 0x1750 PUSH1 0x19 DUP4 PUSH2 0x111B JUMP JUMPDEST SWAP2 POP PUSH2 0x175B DUP3 PUSH2 0x171C JUMP JUMPDEST PUSH1 0x20 DUP3 ADD SWAP1 POP SWAP2 SWAP1 POP JUMP JUMPDEST PUSH0 PUSH1 0x20 DUP3 ADD SWAP1 POP DUP2 DUP2 SUB PUSH0 DUP4 ADD MSTORE PUSH2 0x177D DUP2 PUSH2 0x1744 JUMP JUMPDEST SWAP1 POP SWAP2 SWAP1 POP JUMP JUMPDEST PUSH0 PUSH1 0x60 DUP3 ADD SWAP1 POP PUSH2 0x1797 PUSH0 DUP4 ADD DUP7 PUSH2 0x1181 JUMP JUMPDEST PUSH2 0x17A4 PUSH1 0x20 DUP4 ADD DUP6 PUSH2 0x1102 JUMP JUMPDEST PUSH2 0x17B1 PUSH1 0x40 DUP4 ADD DUP5 PUSH2 0x1181 JUMP JUMPDEST SWAP5 SWAP4 POP POP POP POP JUMP JUMPDEST PUSH32 0x4E487B7100000000000000000000000000000000000000000000000000000000 PUSH0 MSTORE PUSH1 0x22 PUSH1 0x4 MSTORE PUSH1 0x24 PUSH0 REVERT JUMPDEST PUSH0 PUSH1 0x2 DUP3 DIV SWAP1 POP PUSH1 0x1 DUP3 AND DUP1 PUSH2 0x17FD JUMPI PUSH1 0x7F DUP3 AND SWAP2 POP JUMPDEST PUSH1 0x20 DUP3 LT DUP2 SUB PUSH2 0x1810 JUMPI PUSH2 0x180F PUSH2 0x17B9 JUMP JUMPDEST JUMPDEST POP SWAP2 SWAP1 POP JUMP JUMPDEST PUSH32 0x43616D706169676E2068617320656E6465640000000000000000000000000000 PUSH0 DUP3 ADD MSTORE POP JUMP JUMPDEST PUSH0 PUSH2 0x184A PUSH1 0x12 DUP4 PUSH2 0x111B JUMP JUMPDEST SWAP2 POP PUSH2 0x1855 DUP3 PUSH2 0x1816 JUMP JUMPDEST PUSH1 0x20 DUP3 ADD SWAP1 POP SWAP2 SWAP1 POP JUMP JUMPDEST PUSH0 PUSH1 0x20 DUP3 ADD SWAP1 POP DUP2 DUP2 SUB PUSH0 DUP4 ADD MSTORE PUSH2 0x1877 DUP2 PUSH2 0x183E JUMP JUMPDEST SWAP1 POP SWAP2 SWAP1 POP JUMP JUMPDEST PUSH32 0x496E76616C696420616D6F756E74000000000000000000000000000000000000 PUSH0 DUP3 ADD MSTORE POP JUMP JUMPDEST PUSH0 PUSH2 0x18B2 PUSH1 0xE DUP4 PUSH2 0x111B JUMP JUMPDEST SWAP2 POP PUSH2 0x18BD DUP3 PUSH2 0x187E JUMP JUMPDEST PUSH1 0x20 DUP3 ADD SWAP1 POP SWAP2 SWAP1 POP JUMP JUMPDEST PUSH0 PUSH1 0x20 DUP3 ADD SWAP1 POP DUP2 DUP2 SUB PUSH0 DUP4 ADD MSTORE PUSH2 0x18DF DUP2 PUSH2 0x18A6 JUMP JUMPDEST SWAP1 POP SWAP2 SWAP1 POP JUMP JUMPDEST PUSH32 0x4E487B7100000000000000000000000000000000000000000000000000000000 PUSH0 MSTORE PUSH1 0x11 PUSH1 0x4 MSTORE PUSH1 0x24 PUSH0 REVERT JUMPDEST PUSH0 PUSH2 0x191D DUP3 PUSH2 0x1074 JUMP JUMPDEST SWAP2 POP PUSH2 0x1928 DUP4 PUSH2 0x1074 JUMP JUMPDEST SWAP3 POP DUP3 DUP3 SUB SWAP1 POP DUP2 DUP2 GT ISZERO PUSH2 0x1940 JUMPI PUSH2 0x193F PUSH2 0x18E6 JUMP JUMPDEST JUMPDEST SWAP3 SWAP2 POP POP JUMP JUMPDEST PUSH32 0x4D75737420706C65646765206D6F7265207468616E2030000000000000000000 PUSH0 DUP3 ADD MSTORE POP JUMP JUMPDEST PUSH0 PUSH2 0x197A PUSH1 0x17 DUP4 PUSH2 0x111B JUMP JUMPDEST SWAP2 POP PUSH2 0x1985 DUP3 PUSH2 0x1946 JUMP JUMPDEST PUSH1 0x20 DUP3 ADD SWAP1 POP SWAP2 SWAP1 POP JUMP JUMPDEST PUSH0 PUSH1 0x20 DUP3 ADD SWAP1 POP DUP2 DUP2 SUB PUSH0 DUP4 ADD MSTORE PUSH2 0x19A7 DUP2 PUSH2 0x196E JUMP JUMPDEST SWAP1 POP SWAP2 SWAP1 POP JUMP JUMPDEST PUSH0 PUSH2 0x19B8 DUP3 PUSH2 0x1074 JUMP JUMPDEST SWAP2 POP PUSH2 0x19C3 DUP4 PUSH2 0x1074 JUMP JUMPDEST SWAP3 POP DUP3 DUP3 ADD SWAP1 POP DUP1 DUP3 GT ISZERO PUSH2 0x19DB JUMPI PUSH2 0x19DA PUSH2 0x18E6 JUMP JUMPDEST JUMPDEST SWAP3 SWAP2 POP POP JUMP JUMPDEST PUSH32 0x476F616C206D7573742062652067726561746572207468616E20300000000000 PUSH0 DUP3 ADD MSTORE POP JUMP JUMPDEST PUSH0 PUSH2 0x1A15 PUSH1 0x1B DUP4 PUSH2 0x111B JUMP JUMPDEST SWAP2 POP PUSH2 0x1A20 DUP3 PUSH2 0x19E1 JUMP JUMPDEST PUSH1 0x20 DUP3 ADD SWAP1 POP SWAP2 SWAP1 POP JUMP JUMPDEST PUSH0 PUSH1 0x20 DUP3 ADD SWAP1 POP DUP2 DUP2 SUB PUSH0 DUP4 ADD MSTORE PUSH2 0x1A42 DUP2 PUSH2 0x1A09 JUMP JUMPDEST SWAP1 POP SWAP2 SWAP1 POP JUMP JUMPDEST PUSH32 0x4475726174696F6E206D7573742062652067726561746572207468616E203000 PUSH0 DUP3 ADD MSTORE POP JUMP JUMPDEST PUSH0 PUSH2 0x1A7D PUSH1 0x1F DUP4 PUSH2 0x111B JUMP JUMPDEST SWAP2 POP PUSH2 0x1A88 DUP3 PUSH2 0x1A49 JUMP JUMPDEST PUSH1 0x20 DUP3 ADD SWAP1 POP SWAP2 SWAP1 POP JUMP JUMPDEST PUSH0 PUSH1 0x20 DUP3 ADD SWAP1 POP DUP2 DUP2 SUB PUSH0 DUP4 ADD MSTORE PUSH2 0x1AAA DUP2 PUSH2 0x1A71 JUMP JUMPDEST SWAP1 POP SWAP2 SWAP1 POP JUMP JUMPDEST PUSH0 DUP2 SWAP1 POP DUP2 PUSH0 MSTORE PUSH1 0x20 PUSH0 KECCAK256 SWAP1 POP SWAP2 SWAP1 POP JUMP JUMPDEST PUSH0 PUSH1 0x20 PUSH1 0x1F DUP4 ADD DIV SWAP1 POP SWAP2 SWAP1 POP JUMP JUMPDEST PUSH0 DUP3 DUP3 SHL SWAP1 POP SWAP3 SWAP2 POP POP JUMP JUMPDEST PUSH0 PUSH1 0x8 DUP4 MUL PUSH2 0x1B0D PUSH32 0xFFFFFFFFFFFFFFFFFFFFFFFFFFFFFFFFFFFFFFFFFFFFFFFFFFFFFFFFFFFFFFFF DUP3 PUSH2 0x1AD2 JUMP JUMPDEST PUSH2 0x1B17 DUP7 DUP4 PUSH2 0x1AD2 JUMP JUMPDEST SWAP6 POP DUP1 NOT DUP5 AND SWAP4 POP DUP1 DUP7 AND DUP5 OR SWAP3 POP POP POP SWAP4 SWAP3 POP POP POP JUMP JUMPDEST PUSH0 DUP2 SWAP1 POP SWAP2 SWAP1 POP JUMP JUMPDEST PUSH0 PUSH2 0x1B52 PUSH2 0x1B4D PUSH2 0x1B48 DUP5 PUSH2 0x1074 JUMP JUMPDEST PUSH2 0x1B2F JUMP JUMPDEST PUSH2 0x1074 JUMP JUMPDEST SWAP1 POP SWAP2 SWAP1 POP JUMP JUMPDEST PUSH0 DUP2 SWAP1 POP SWAP2 SWAP1 POP JUMP JUMPDEST PUSH2 0x1B6B DUP4 PUSH2 0x1B38 JUMP JUMPDEST PUSH2 0x1B7F PUSH2 0x1B77 DUP3 PUSH2 0x1B59 JUMP JUMPDEST DUP5 DUP5 SLOAD PUSH2 0x1ADE JUMP JUMPDEST DUP3 SSTORE POP POP POP POP JUMP JUMPDEST PUSH0 PUSH0 SWAP1 POP SWAP1 JUMP JUMPDEST PUSH2 0x1B96 PUSH2 0x1B87 JUMP JUMPDEST PUSH2 0x1BA1 DUP2 DUP5 DUP5 PUSH2 0x1B62 JUMP JUMPDEST POP POP POP JUMP JUMPDEST JUMPDEST DUP2 DUP2 LT ISZERO PUSH2 0x1BC4 JUMPI PUSH2 0x1BB9 PUSH0 DUP3 PUSH2 0x1B8E JUMP JUMPDEST PUSH1 0x1 DUP2 ADD SWAP1 POP PUSH2 0x1BA7 JUMP JUMPDEST POP POP JUMP JUMPDEST PUSH1 0x1F DUP3 GT ISZERO PUSH2 0x1C09 JUMPI PUSH2 0x1BDA DUP2 PUSH2 0x1AB1 JUMP JUMPDEST PUSH2 0x1BE3 DUP5 PUSH2 0x1AC3 JUMP JUMPDEST DUP2 ADD PUSH1 0x20 DUP6 LT ISZERO PUSH2 0x1BF2 JUMPI DUP2 SWAP1 POP JUMPDEST PUSH2 0x1C06 PUSH2 0x1BFE DUP6 PUSH2 0x1AC3 JUMP JUMPDEST DUP4 ADD DUP3 PUSH2 0x1BA6 JUMP JUMPDEST POP POP JUMPDEST POP POP POP JUMP JUMPDEST PUSH0 DUP3 DUP3 SHR SWAP1 POP SWAP3 SWAP2 POP POP JUMP JUMPDEST PUSH0 PUSH2 0x1C29 PUSH0 NOT DUP5 PUSH1 0x8 MUL PUSH2 0x1C0E JUMP JUMPDEST NOT DUP1 DUP4 AND SWAP2 POP POP SWAP3 SWAP2 POP POP JUMP JUMPDEST PUSH0 PUSH2 0x1C41 DUP4 DUP4 PUSH2 0x1C1A JUMP JUMPDEST SWAP2 POP DUP3 PUSH1 0x2 MUL DUP3 OR SWAP1 POP SWAP3 SWAP2 POP POP JUMP JUMPDEST PUSH2 0x1C5A DUP3 PUSH2 0x1111 JUMP JUMPDEST PUSH8 0xFFFFFFFFFFFFFFFF DUP2 GT ISZERO PUSH2 0x1C73 JUMPI PUSH2 0x1C72 PUSH2 0x1284 JUMP JUMPDEST JUMPDEST PUSH2 0x1C7D DUP3 SLOAD PUSH2 0x17E6 JUMP JUMPDEST PUSH2 0x1C88 DUP3 DUP3 DUP6 PUSH2 0x1BC8 JUMP JUMPDEST PUSH0 PUSH1 0x20 SWAP1 POP PUSH1 0x1F DUP4 GT PUSH1 0x1 DUP2 EQ PUSH2 0x1CB9 JUMPI PUSH0 DUP5 ISZERO PUSH2 0x1CA7 JUMPI DUP3 DUP8 ADD MLOAD SWAP1 POP JUMPDEST PUSH2 0x1CB1 DUP6 DUP3 PUSH2 0x1C36 JUMP JUMPDEST DUP7 SSTORE POP PUSH2 0x1D18 JUMP JUMPDEST PUSH1 0x1F NOT DUP5 AND PUSH2 0x1CC7 DUP7 PUSH2 0x1AB1 JUMP JUMPDEST PUSH0 JUMPDEST DUP3 DUP2 LT ISZERO PUSH2 0x1CEE JUMPI DUP5 DUP10 ADD MLOAD DUP3 SSTORE PUSH1 0x1 DUP3 ADD SWAP2 POP PUSH1 0x20 DUP6 ADD SWAP5 POP PUSH1 0x20 DUP2 ADD SWAP1 POP PUSH2 0x1CC9 JUMP JUMPDEST DUP7 DUP4 LT ISZERO PUSH2 0x1D0B JUMPI DUP5 DUP10 ADD MLOAD PUSH2 0x1D07 PUSH1 0x1F DUP10 AND DUP3 PUSH2 0x1C1A JUMP JUMPDEST DUP4 SSTORE POP JUMPDEST PUSH1 0x1 PUSH1 0x2 DUP9 MUL ADD DUP9 SSTORE POP POP POP JUMPDEST POP POP POP POP POP POP JUMP JUMPDEST PUSH0 PUSH1 0x40 DUP3 ADD SWAP1 POP PUSH2 0x1D33 PUSH0 DUP4 ADD DUP6 PUSH2 0x1181 JUMP JUMPDEST PUSH2 0x1D40 PUSH1 0x20 DUP4 ADD DUP5 PUSH2 0x1102 JUMP JUMPDEST SWAP4 SWAP3 POP POP POP JUMP JUMPDEST PUSH0 PUSH2 0x1D51 DUP3 PUSH2 0x1074 JUMP JUMPDEST SWAP2 POP PUSH32 0xFFFFFFFFFFFFFFFFFFFFFFFFFFFFFFFFFFFFFFFFFFFFFFFFFFFFFFFFFFFFFFFF DUP3 SUB PUSH2 0x1D83 JUMPI PUSH2 0x1D82 PUSH2 0x18E6 JUMP JUMPDEST JUMPDEST PUSH1 0x1 DUP3 ADD SWAP1 POP SWAP2 SWAP1 POP JUMP INVALID LOG2 PUSH5 0x6970667358 0x22 SLT KECCAK256 RETURNDATASIZE 0xD 0xCF 0xDF 0xC6 PUSH18 0x4308FDBD90A2AA9EDCDD4EB1394527D335F7 0x29 0xCC RETURN PUSH24 0x2DF4A5F664736F6C634300081E0033000000000000000000 "
				},
				"gasEstimates": {
					"creation": {
						"codeDepositCost": "1524000",
						"executionCost": "1594",
						"totalCost": "1525594"
					},
					"external": {
						"Campaigns(uint256)": "infinite",
						"campaignCount()": "2446",
						"claimFunds(uint256)": "infinite",
						"createCampaign(string,string,uint256,uint256)": "infinite",
						"getCampaign(uint256)": "infinite",
						"getContribution(uint256,address)": "infinite",
						"pledge(uint256)": "infinite",
						"refund(uint256)": "infinite",
						"unpledge(uint256,uint256)": "infinite"
					}
				},
				"methodIdentifiers": {
					"Campaigns(uint256)": "4013be10",
					"campaignCount()": "7274e30d",
					"claimFunds(uint256)": "1b55e338",
					"createCampaign(string,string,uint256,uint256)": "a318f269",
					"getCampaign(uint256)": "5598f8cc",
					"getContribution(uint256,address)": "e081dbf9",
					"pledge(uint256)": "7326c9c0",
					"refund(uint256)": "278ecde1",
					"unpledge(uint256,uint256)": "711853ab"
				}
			},
			"storageLayout": {
				"storage": [
					{
						"astId": 22,
						"contract": "Dapp/CrowdFundJR.sol:CrowdFundJR",
						"label": "campaignCount",
						"offset": 0,
						"slot": "0",
						"type": "t_uint256"
					},
					{
						"astId": 27,
						"contract": "Dapp/CrowdFundJR.sol:CrowdFundJR",
						"label": "Campaigns",
						"offset": 0,
						"slot": "1",
						"type": "t_mapping(t_uint256,t_struct(Campaign)20_storage)"
					}
				],
				"types": {
					"t_address": {
						"encoding": "inplace",
						"label": "address",
						"numberOfBytes": "20"
					},
					"t_bool": {
						"encoding": "inplace",
						"label": "bool",
						"numberOfBytes": "1"
					},
					"t_mapping(t_address,t_uint256)": {
						"encoding": "mapping",
						"key": "t_address",
						"label": "mapping(address => uint256)",
						"numberOfBytes": "32",
						"value": "t_uint256"
					},
					"t_mapping(t_uint256,t_struct(Campaign)20_storage)": {
						"encoding": "mapping",
						"key": "t_uint256",
						"label": "mapping(uint256 => struct CrowdFundJR.Campaign)",
						"numberOfBytes": "32",
						"value": "t_struct(Campaign)20_storage"
					},
					"t_string_storage": {
						"encoding": "bytes",
						"label": "string",
						"numberOfBytes": "32"
					},
					"t_struct(Campaign)20_storage": {
						"encoding": "inplace",
						"label": "struct CrowdFundJR.Campaign",
						"members": [
							{
								"astId": 3,
								"contract": "Dapp/CrowdFundJR.sol:CrowdFundJR",
								"label": "creator",
								"offset": 0,
								"slot": "0",
								"type": "t_address"
							},
							{
								"astId": 5,
								"contract": "Dapp/CrowdFundJR.sol:CrowdFundJR",
								"label": "title",
								"offset": 0,
								"slot": "1",
								"type": "t_string_storage"
							},
							{
								"astId": 7,
								"contract": "Dapp/CrowdFundJR.sol:CrowdFundJR",
								"label": "description",
								"offset": 0,
								"slot": "2",
								"type": "t_string_storage"
							},
							{
								"astId": 9,
								"contract": "Dapp/CrowdFundJR.sol:CrowdFundJR",
								"label": "goal",
								"offset": 0,
								"slot": "3",
								"type": "t_uint256"
							},
							{
								"astId": 11,
								"contract": "Dapp/CrowdFundJR.sol:CrowdFundJR",
								"label": "deadline",
								"offset": 0,
								"slot": "4",
								"type": "t_uint256"
							},
							{
								"astId": 13,
								"contract": "Dapp/CrowdFundJR.sol:CrowdFundJR",
								"label": "pledged",
								"offset": 0,
								"slot": "5",
								"type": "t_uint256"
							},
							{
								"astId": 15,
								"contract": "Dapp/CrowdFundJR.sol:CrowdFundJR",
								"label": "claimed",
								"offset": 0,
								"slot": "6",
								"type": "t_bool"
							},
							{
								"astId": 19,
								"contract": "Dapp/CrowdFundJR.sol:CrowdFundJR",
								"label": "contributions",
								"offset": 0,
								"slot": "7",
								"type": "t_mapping(t_address,t_uint256)"
							}
						],
						"numberOfBytes": "256"
					},
					"t_uint256": {
						"encoding": "inplace",
						"label": "uint256",
						"numberOfBytes": "32"
					}
				}
			},
			"userdoc": {
				"kind": "user",
				"methods": {},
				"version": 1
			}
		}
	}
}