{
	"data": {
		"bytecode": {
			"linkReferences": {
				"Decentralized-Access-Pass-System/PassManagement.sol": {
					"PassManagement": [
						{
							"length": 20,
							"start": 4523
						},
						{
							"length": 20,
							"start": 4836
						},
						{
							"length": 20,
							"start": 7162
						},
						{
							"length": 20,
							"start": 12692
						}
					]
				},
				"Decentralized-Access-Pass-System/PassValidation.sol": {
					"PassValidation": [
						{
							"length": 20,
							"start": 3408
						},
						{
							"length": 20,
							"start": 6658
						},
						{
							"length": 20,
							"start": 9977
						},
						{
							"length": 20,
							"start": 10080
						}
					]
				}
			},
			"object": "608060405234801561000f575f5ffd5b5060405161561c38038061561c83398181016040528101906100319190610338565b33805f73ffffffffffffffffffffffffffffffffffffffff168173ffffffffffffffffffffffffffffffffffffffff16036100a3575f6040517f1e4fbdf700000000000000000000000000000000000000000000000000000000815260040161009a9190610385565b60405180910390fd5b6100b28161021960201b60201c565b50506001600881905550815f73ffffffffffffffffffffffffffffffffffffffff168173ffffffffffffffffffffffffffffffffffffffff1603610122576040517fe6c4247b00000000000000000000000000000000000000000000000000000000815260040160405180910390fd5b815f73ffffffffffffffffffffffffffffffffffffffff168173ffffffffffffffffffffffffffffffffffffffff1603610188576040517fe6c4247b00000000000000000000000000000000000000000000000000000000815260040160405180910390fd5b8360095f6101000a81548173ffffffffffffffffffffffffffffffffffffffff021916908373ffffffffffffffffffffffffffffffffffffffff16021790555082600a5f6101000a81548173ffffffffffffffffffffffffffffffffffffffff021916908373ffffffffffffffffffffffffffffffffffffffff16021790555060016007819055505050505061039e565b5f5f5f9054906101000a900473ffffffffffffffffffffffffffffffffffffffff169050815f5f6101000a81548173ffffffffffffffffffffffffffffffffffffffff021916908373ffffffffffffffffffffffffffffffffffffffff1602179055508173ffffffffffffffffffffffffffffffffffffffff168173ffffffffffffffffffffffffffffffffffffffff167f8be0079c531659141344cd1fd0a4f28419497f9722a3daafe3b4186f6b6457e060405160405180910390a35050565b5f5ffd5b5f73ffffffffffffffffffffffffffffffffffffffff82169050919050565b5f610307826102de565b9050919050565b610317816102fd565b8114610321575f5ffd5b50565b5f815190506103328161030e565b92915050565b5f5f6040838503121561034e5761034d6102da565b5b5f61035b85828601610324565b925050602061036c85828601610324565b9150509250929050565b61037f816102fd565b82525050565b5f6020820190506103985f830184610376565b92915050565b615271806103ab5f395ff3fe608060405234801561000f575f5ffd5b5060043610610156575f3560e01c8063715018a6116100c1578063d6f8a5051161007a578063d6f8a5051461039a578063e0f22e19146103b6578063ec38d5a0146103d2578063f0f4426014610402578063f2fde38b1461041e578063f9f29fab1461043a57610156565b8063715018a6146102ee5780638da5cb5b146102f8578063957a632e14610316578063bc38d48c14610332578063ce07502d14610362578063d4b578021461037e57610156565b806352ef05be1161011357806352ef05be1461021a5780635f29a1541461024a57806361d027b3146102665780636a326ab1146102845780636f9fb98a146102a057806370aa75f3146102be57610156565b806308654d3b1461015a578063177342eb1461018a5780631c40bd91146101a657806324600fc3146101c25780633013ce29146101cc57806338ac497e146101ea575b5f5ffd5b610174600480360381019061016f9190613674565b610456565b60405161018191906136c1565b60405180910390f35b6101a4600480360381019061019f91906136da565b610546565b005b6101c060048036038101906101bb9190613843565b610884565b005b6101ca610b20565b005b6101d4610dd8565b6040516101e19190613903565b60405180910390f35b61020460048036038101906101ff919061391c565b610dfd565b60405161021191906136c1565b60405180910390f35b610234600480360381019061022f91906136da565b610e82565b6040516102419190613af2565b60405180910390f35b610264600480360381019061025f9190613674565b611174565b005b61026e61155e565b60405161027b9190613b21565b60405180910390f35b61029e6004803603810190610299919061391c565b611583565b005b6102a86117ad565b6040516102b591906136c1565b60405180910390f35b6102d860048036038101906102d39190613674565b61184c565b6040516102e59190613b49565b60405180910390f35b6102f66118d0565b005b6103006118e3565b60405161030d9190613b21565b60405180910390f35b610330600480360381019061032b91906136da565b61190a565b005b61034c6004803603810190610347919061391c565b611a71565b6040516103599190613cf6565b60405180910390f35b61037c6004803603810190610377919061391c565b611d4b565b005b61039860048036038101906103939190613d16565b611e51565b005b6103b460048036038101906103af919061391c565b612172565b005b6103d060048036038101906103cb9190613de0565b6122e0565b005b6103ec60048036038101906103e791906136da565b61268a565b6040516103f991906140b9565b60405180910390f35b61041c6004803603810190610417919061391c565b61298f565b005b6104386004803603810190610433919061391c565b612b25565b005b610454600480360381019061044f919061410f565b612ba9565b005b5f828260015f8373ffffffffffffffffffffffffffffffffffffffff1673ffffffffffffffffffffffffffffffffffffffff1681526020019081526020015f205f8281526020019081526020015f2060030160019054906101000a900460ff166104ec576040517fe403ae9900000000000000000000000000000000000000000000000000000000815260040160405180910390fd5b60015f8673ffffffffffffffffffffffffffffffffffffffff1673ffffffffffffffffffffffffffffffffffffffff1681526020019081526020015f205f8581526020019081526020015f20600101549250505092915050565b805f81148061055757506007548110155b1561058e576040517fc93477d000000000000000000000000000000000000000000000000000000000815260040160405180910390fd5b60025f8281526020019081526020015f206008015f9054906101000a900460ff166105e5576040517f0f0c1bc800000000000000000000000000000000000000000000000000000000815260040160405180910390fd5b338260015f8373ffffffffffffffffffffffffffffffffffffffff1673ffffffffffffffffffffffffffffffffffffffff1681526020019081526020015f205f8281526020019081526020015f2060030160019054906101000a900460ff1661067a576040517fe403ae9900000000000000000000000000000000000000000000000000000000815260040160405180910390fd5b610682612f4d565b5f60015f3373ffffffffffffffffffffffffffffffffffffffff1673ffffffffffffffffffffffffffffffffffffffff1681526020019081526020015f205f8681526020019081526020015f2090505f60025f8781526020019081526020015f209050815f015f9054906101000a900460ff161580610705575042826001015411155b610744576040517f08c379a000000000000000000000000000000000000000000000000000000000815260040161073b906141a7565b60405180910390fd5b5f815f01836003015f9054906101000a900460ff16600281111561076b5761076a613b8b565b5b60ff166003811061077f5761077e6141c5565b5b0154905061078c81612f9c565b6001835f015f6101000a81548160ff0219169083151502179055508160030154426107b7919061421f565b8360010181905550863373ffffffffffffffffffffffffffffffffffffffff167fd8b6e32be5e37f4ae08b6ee49eb9806a8366938a4283d948dc4b9b67f4503f30856001015460405161080a91906136c1565b60405180910390a3863373ffffffffffffffffffffffffffffffffffffffff167f03bb1a174937e3dd09a870c604dbb901e99f3984246ef19a28d06025fc7b36b783866003015f9054906101000a900460ff1660405161086b929190614261565b60405180910390a350505061087e61323e565b50505050565b3373ffffffffffffffffffffffffffffffffffffffff166108a36118e3565b73ffffffffffffffffffffffffffffffffffffffff16146108f0576040517f7bfa4b9f00000000000000000000000000000000000000000000000000000000815260040160405180910390fd5b835f81148061090157506007548110155b15610938576040517fc93477d000000000000000000000000000000000000000000000000000000000815260040160405180910390fd5b60025f8281526020019081526020015f206008015f9054906101000a900460ff1661098f576040517f0f0c1bc800000000000000000000000000000000000000000000000000000000815260040160405180910390fd5b5f60025f8781526020019081526020015f20905073__$ab215cf7ef411fae303ffb0020c1215333$__63eef2a3708686866040518463ffffffff1660e01b81526004016109de9392919061431d565b5f6040518083038186803b1580156109f4575f5ffd5b505af4158015610a06573d5f5f3e3d5ffd5b505050505f5f90505b60038160ff161015610aab5760045f8881526020019081526020015f205f8260ff1660ff1681526020019081526020015f2054848260ff1660038110610a5857610a576141c5565b5b60200201511015610a9e576040517f08c379a0000000000000000000000000000000000000000000000000000000008152600401610a959061439c565b60405180910390fd5b8080600101915050610a0f565b5084815f01906003610abe929190613397565b508381600301819055508281600401906003610adb929190613397565b50857f56704063b600b5a2ecc395add93ae829f54b1d03238a602f853cebade75f625c868686604051610b109392919061441a565b60405180910390a2505050505050565b3373ffffffffffffffffffffffffffffffffffffffff16610b3f6118e3565b73ffffffffffffffffffffffffffffffffffffffff1614610b8c576040517f7bfa4b9f00000000000000000000000000000000000000000000000000000000815260040160405180910390fd5b5f60095f9054906101000a900473ffffffffffffffffffffffffffffffffffffffff1673ffffffffffffffffffffffffffffffffffffffff166370a08231306040518263ffffffff1660e01b8152600401610be79190613b21565b602060405180830381865afa158015610c02573d5f5f3e3d5ffd5b505050506040513d601f19601f82011682018060405250810190610c269190614463565b90505f8111610c6a576040517f08c379a0000000000000000000000000000000000000000000000000000000008152600401610c61906144d8565b60405180910390fd5b60095f9054906101000a900473ffffffffffffffffffffffffffffffffffffffff1673ffffffffffffffffffffffffffffffffffffffff1663a9059cbb600a5f9054906101000a900473ffffffffffffffffffffffffffffffffffffffff16836040518363ffffffff1660e01b8152600401610ce79291906144f6565b6020604051808303815f875af1158015610d03573d5f5f3e3d5ffd5b505050506040513d601f19601f82011682018060405250810190610d279190614547565b610d66576040517f08c379a0000000000000000000000000000000000000000000000000000000008152600401610d5d906145bc565b60405180910390fd5b600a5f9054906101000a900473ffffffffffffffffffffffffffffffffffffffff1673ffffffffffffffffffffffffffffffffffffffff167f84511ecc081974f18e7f3e0dcc19db078b55bbd3852ddd0dd85b3aebb7bf94c282604051610dcd91906136c1565b60405180910390a250565b60095f9054906101000a900473ffffffffffffffffffffffffffffffffffffffff1681565b5f73__$147a7b305f2d2b3a6380cb5e79d029ae8b$__63846c343d6001846007546040518463ffffffff1660e01b8152600401610e3c939291906145f0565b602060405180830381865af4158015610e57573d5f5f3e3d5ffd5b505050506040513d601f19601f82011682018060405250810190610e7b9190614463565b9050919050565b610e8a6133d7565b815f811480610e9b57506007548110155b15610ed2576040517fc93477d000000000000000000000000000000000000000000000000000000000815260040160405180910390fd5b5f60025f8581526020019081526020015f209050610eee6133d7565b5f5f90505b60038160ff161015611168576040518060a001604052805f85600a018460ff1660038110610f2457610f236141c5565b5b018054610f3090614652565b905011610fca5773__$147a7b305f2d2b3a6380cb5e79d029ae8b$__6389747e408460ff166002811115610f6757610f66613b8b565b5b6040518263ffffffff1660e01b8152600401610f839190614691565b5f60405180830381865af4158015610f9d573d5f5f3e3d5ffd5b505050506040513d5f823e3d601f19601f82011682018060405250810190610fc5919061474c565b61106c565b84600a018360ff1660038110610fe357610fe26141c5565b5b018054610fef90614652565b80601f016020809104026020016040519081016040528092919081815260200182805461101b90614652565b80156110665780601f1061103d57610100808354040283529160200191611066565b820191905f5260205f20905b81548152906001019060200180831161104957829003601f168201915b50505050505b8152602001845f018360ff1660038110611089576110886141c5565b5b01548152602001846004018360ff16600381106110a9576110a86141c5565b5b0154815260200160045f8981526020019081526020015f205f8460ff1660ff1681526020019081526020015f20548152602001846004018360ff16600381106110f5576110f46141c5565b5b015460045f8a81526020019081526020015f205f8560ff1660ff1681526020019081526020015f20541080156111385750846008015f9054906101000a900460ff165b1515815250828260ff1660038110611153576111526141c5565b5b60200201819052508080600101915050610ef3565b50809350505050919050565b3373ffffffffffffffffffffffffffffffffffffffff166111936118e3565b73ffffffffffffffffffffffffffffffffffffffff16146111e0576040517f7bfa4b9f00000000000000000000000000000000000000000000000000000000815260040160405180910390fd5b805f8114806111f157506007548110155b15611228576040517fc93477d000000000000000000000000000000000000000000000000000000000815260040160405180910390fd5b60025f8281526020019081526020015f206008015f9054906101000a900460ff1661127f576040517f0f0c1bc800000000000000000000000000000000000000000000000000000000815260040160405180910390fd5b828260015f8373ffffffffffffffffffffffffffffffffffffffff1673ffffffffffffffffffffffffffffffffffffffff1681526020019081526020015f205f8281526020019081526020015f2060030160019054906101000a900460ff16611314576040517fe403ae9900000000000000000000000000000000000000000000000000000000815260040160405180910390fd5b5f60015f8773ffffffffffffffffffffffffffffffffffffffff1673ffffffffffffffffffffffffffffffffffffffff1681526020019081526020015f205f8681526020019081526020015f209050805f015f9054906101000a900460ff166113b2576040517f08c379a00000000000000000000000000000000000000000000000000000000081526004016113a9906147dd565b60405180910390fd5b5f815f015f6101000a81548160ff0219169083151502179055505f60035f8873ffffffffffffffffffffffffffffffffffffffff1673ffffffffffffffffffffffffffffffffffffffff1681526020019081526020015f205411156114645760035f8773ffffffffffffffffffffffffffffffffffffffff1673ffffffffffffffffffffffffffffffffffffffff1681526020019081526020015f205f81548092919061145e906147fb565b91905055505b5f60045f8781526020019081526020015f205f836003015f9054906101000a900460ff16600281111561149a57611499613b8b565b5b60ff1660ff1681526020019081526020015f205411156115125760045f8681526020019081526020015f205f826003015f9054906101000a900460ff1660028111156114e9576114e8613b8b565b5b60ff1660ff1681526020019081526020015f205f81548092919061150c906147fb565b91905055505b848673ffffffffffffffffffffffffffffffffffffffff167f02ccf6476fecff0cb345af8fe3d175368aa0c79d1832183a54268fb4c414684860405160405180910390a3505050505050565b600a5f9054906101000a900473ffffffffffffffffffffffffffffffffffffffff1681565b3373ffffffffffffffffffffffffffffffffffffffff166115a26118e3565b73ffffffffffffffffffffffffffffffffffffffff16146115ef576040517f7bfa4b9f00000000000000000000000000000000000000000000000000000000815260040160405180910390fd5b805f73ffffffffffffffffffffffffffffffffffffffff168173ffffffffffffffffffffffffffffffffffffffff1603611655576040517fe6c4247b00000000000000000000000000000000000000000000000000000000815260040160405180910390fd5b73__$ab215cf7ef411fae303ffb0020c1215333$__6316279055836040518263ffffffff1660e01b815260040161168c9190614822565b602060405180830381865af41580156116a7573d5f5f3e3d5ffd5b505050506040513d601f19601f820116820180604052508101906116cb9190614547565b61170a576040517f08c379a000000000000000000000000000000000000000000000000000000000815260040161170190614885565b60405180910390fd5b5f60095f9054906101000a900473ffffffffffffffffffffffffffffffffffffffff1690508260095f6101000a81548173ffffffffffffffffffffffffffffffffffffffff021916908373ffffffffffffffffffffffffffffffffffffffff1602179055507f2bd8c5354233e1142193df7977bd89f7ad57b724087278bad86db1e15fc3033b81846040516117a09291906148a3565b60405180910390a1505050565b5f60095f9054906101000a900473ffffffffffffffffffffffffffffffffffffffff1673ffffffffffffffffffffffffffffffffffffffff166370a08231306040518263ffffffff1660e01b81526004016118089190613b21565b602060405180830381865afa158015611823573d5f5f3e3d5ffd5b505050506040513d601f19601f820116820180604052508101906118479190614463565b905090565b5f73__$147a7b305f2d2b3a6380cb5e79d029ae8b$__637f6dd152600185856040518463ffffffff1660e01b8152600401611889939291906145f0565b602060405180830381865af41580156118a4573d5f5f3e3d5ffd5b505050506040513d601f19601f820116820180604052508101906118c89190614547565b905092915050565b6118d8613248565b6118e15f6132cf565b565b5f5f5f9054906101000a900473ffffffffffffffffffffffffffffffffffffffff16905090565b3373ffffffffffffffffffffffffffffffffffffffff166119296118e3565b73ffffffffffffffffffffffffffffffffffffffff1614611976576040517f7bfa4b9f00000000000000000000000000000000000000000000000000000000815260040160405180910390fd5b805f81148061198757506007548110155b156119be576040517fc93477d000000000000000000000000000000000000000000000000000000000815260040160405180910390fd5b60025f8281526020019081526020015f206008015f9054906101000a900460ff16611a15576040517f0f0c1bc800000000000000000000000000000000000000000000000000000000815260040160405180910390fd5b5f60025f8481526020019081526020015f206008015f6101000a81548160ff021916908315150217905550817f9bec5b77a290657edefc9defa075c60a874e90f7cc9496853ca9962d58a4ffdd60405160405180910390a25050565b6060815f73ffffffffffffffffffffffffffffffffffffffff168173ffffffffffffffffffffffffffffffffffffffff1603611ad9576040517fe6c4247b00000000000000000000000000000000000000000000000000000000815260040160405180910390fd5b5f5f90505f600190505b600754811015611b6b5760015f8673ffffffffffffffffffffffffffffffffffffffff1673ffffffffffffffffffffffffffffffffffffffff1681526020019081526020015f205f8281526020019081526020015f2060030160019054906101000a900460ff1615611b5e578180611b5a906148ca565b9250505b8080600101915050611ae3565b505f8167ffffffffffffffff811115611b8757611b86613719565b5b604051908082528060200260200182016040528015611bc057816020015b611bad613404565b815260200190600190039081611ba55790505b5090505f5f90505f600190505b600754811015611d3e5760015f8873ffffffffffffffffffffffffffffffffffffffff1673ffffffffffffffffffffffffffffffffffffffff1681526020019081526020015f205f8281526020019081526020015f2060030160019054906101000a900460ff1615611d31575f60015f8973ffffffffffffffffffffffffffffffffffffffff1673ffffffffffffffffffffffffffffffffffffffff1681526020019081526020015f205f8381526020019081526020015f2090506040518060c00160405280838152602001826003015f9054906101000a900460ff166002811115611cbc57611cbb613b8b565b5b815260200182600101548152602001825f015f9054906101000a900460ff16151581526020018260030160019054906101000a900460ff16151581526020018260040154815250848481518110611d1657611d156141c5565b5b60200260200101819052508280611d2c906148ca565b935050505b8080600101915050611bcd565b5081945050505050919050565b3373ffffffffffffffffffffffffffffffffffffffff16611d6a6118e3565b73ffffffffffffffffffffffffffffffffffffffff1614611db7576040517f7bfa4b9f00000000000000000000000000000000000000000000000000000000815260040160405180910390fd5b5f60065f8373ffffffffffffffffffffffffffffffffffffffff1673ffffffffffffffffffffffffffffffffffffffff1681526020019081526020015f205f6101000a81548160ff0219169083151502179055508073ffffffffffffffffffffffffffffffffffffffff167f4f07d2d5ae0a35deeec77449a9d22ec841065b2ed63adbedd9157931d74962e860405160405180910390a250565b828260015f8373ffffffffffffffffffffffffffffffffffffffff1673ffffffffffffffffffffffffffffffffffffffff1681526020019081526020015f205f8281526020019081526020015f2060030160019054906101000a900460ff16611ee6576040517fe403ae9900000000000000000000000000000000000000000000000000000000815260040160405180910390fd5b835f811480611ef757506007548110155b15611f2e576040517fc93477d000000000000000000000000000000000000000000000000000000000815260040160405180910390fd5b60025f8281526020019081526020015f206008015f9054906101000a900460ff16611f85576040517f0f0c1bc800000000000000000000000000000000000000000000000000000000815260040160405180910390fd5b3373ffffffffffffffffffffffffffffffffffffffff16611fa46118e3565b73ffffffffffffffffffffffffffffffffffffffff1614611ff1576040517f7bfa4b9f00000000000000000000000000000000000000000000000000000000815260040160405180910390fd5b5f60015f8873ffffffffffffffffffffffffffffffffffffffff1673ffffffffffffffffffffffffffffffffffffffff1681526020019081526020015f205f8781526020019081526020015f209050805f015f9054906101000a900460ff1661208f576040517f08c379a00000000000000000000000000000000000000000000000000000000081526004016120869061495b565b60405180910390fd5b5f851180156120a257506301e133808511155b6120e1576040517f08c379a00000000000000000000000000000000000000000000000000000000081526004016120d8906149c3565b60405180910390fd5b428160010154116120fd5784426120f8919061421f565b61210e565b84816001015461210d919061421f565b5b8160010181905550858773ffffffffffffffffffffffffffffffffffffffff167f0fca2de66fb7407aa1557341c6186809ab70bc90a7a21116fd7d30252240178c836001015460405161216191906136c1565b60405180910390a350505050505050565b3373ffffffffffffffffffffffffffffffffffffffff166121916118e3565b73ffffffffffffffffffffffffffffffffffffffff16146121de576040517f7bfa4b9f00000000000000000000000000000000000000000000000000000000815260040160405180910390fd5b805f73ffffffffffffffffffffffffffffffffffffffff168173ffffffffffffffffffffffffffffffffffffffff1603612244576040517fe6c4247b00000000000000000000000000000000000000000000000000000000815260040160405180910390fd5b600160065f8473ffffffffffffffffffffffffffffffffffffffff1673ffffffffffffffffffffffffffffffffffffffff1681526020019081526020015f205f6101000a81548160ff0219169083151502179055508173ffffffffffffffffffffffffffffffffffffffff167f13292254a2aa989eec9806d76a9bfa7bb98c85295b95d7d57a59f9e18d17a65b60405160405180910390a25050565b3373ffffffffffffffffffffffffffffffffffffffff166122ff6118e3565b73ffffffffffffffffffffffffffffffffffffffff161461234c576040517f7bfa4b9f00000000000000000000000000000000000000000000000000000000815260040160405180910390fd5b73__$ab215cf7ef411fae303ffb0020c1215333$__63eef2a3708787876040518463ffffffff1660e01b81526004016123879392919061431d565b5f6040518083038186803b15801561239d575f5ffd5b505af41580156123af573d5f5f3e3d5ffd5b5050505073__$ab215cf7ef411fae303ffb0020c1215333$__63c934fdfc84846040518363ffffffff1660e01b81526004016123ec929190614a2b565b602060405180830381865af4158015612407573d5f5f3e3d5ffd5b505050506040513d601f19601f8201168201806040525081019061242b9190614547565b61246a576040517f08c379a000000000000000000000000000000000000000000000000000000000815260040161246190614a97565b60405180910390fd5b5f88889050116124af576040517f08c379a00000000000000000000000000000000000000000000000000000000081526004016124a690614aff565b60405180910390fd5b6040518060e0016040528087815260200186815260200185815260200184848080601f0160208091040260200160405190810160405280939291908181526020018383808284375f81840152601f19601f82011690508083019250505050505050815260200160011515815260200189898080601f0160208091040260200160405190810160405280939291908181526020018383808284375f81840152601f19601f8201169050808301925050505050505081526020018261257190614c2d565b81525060025f60075481526020019081526020015f205f820151815f0190600361259c929190613397565b50602082015181600301556040820151816004019060036125be929190613397565b5060608201518160070190816125d49190614dd8565b506080820151816008015f6101000a81548160ff02191690831515021790555060a08201518160090190816126099190614dd8565b5060c082015181600a0190600361262192919061344a565b509050506007547f53d1159a1f8249f59f72036673e4be72c197e94db9ad9576d9588daf47a44d0489898988888860405161266196959493929190614ed3565b60405180910390a260075f81548092919061267b906148ca565b91905055505050505050505050565b612692613496565b815f8114806126a357506007548110155b156126da576040517fc93477d000000000000000000000000000000000000000000000000000000000815260040160405180910390fd5b60025f8481526020019081526020015f206040518060e00160405290815f8201600380602002604051908101604052809291908260038015612731576020028201915b81548152602001906001019080831161271d575b505050505081526020016003820154815260200160048201600380602002604051908101604052809291908260038015612780576020028201915b81548152602001906001019080831161276c575b5050505050815260200160078201805461279990614652565b80601f01602080910402602001604051908101604052809291908181526020018280546127c590614652565b80156128105780601f106127e757610100808354040283529160200191612810565b820191905f5260205f20905b8154815290600101906020018083116127f357829003601f168201915b50505050508152602001600882015f9054906101000a900460ff1615151515815260200160098201805461284390614652565b80601f016020809104026020016040519081016040528092919081815260200182805461286f90614652565b80156128ba5780601f10612891576101008083540402835291602001916128ba565b820191905f5260205f20905b81548152906001019060200180831161289d57829003601f168201915b50505050508152602001600a8201600380602002604051908101604052809291905f905b8282101561297f5783820180546128f490614652565b80601f016020809104026020016040519081016040528092919081815260200182805461292090614652565b801561296b5780601f106129425761010080835404028352916020019161296b565b820191905f5260205f20905b81548152906001019060200180831161294e57829003601f168201915b5050505050815260200190600101906128de565b5050505081525050915050919050565b3373ffffffffffffffffffffffffffffffffffffffff166129ae6118e3565b73ffffffffffffffffffffffffffffffffffffffff16146129fb576040517f7bfa4b9f00000000000000000000000000000000000000000000000000000000815260040160405180910390fd5b805f73ffffffffffffffffffffffffffffffffffffffff168173ffffffffffffffffffffffffffffffffffffffff1603612a61576040517fe6c4247b00000000000000000000000000000000000000000000000000000000815260040160405180910390fd5b5f600a5f9054906101000a900473ffffffffffffffffffffffffffffffffffffffff16905082600a5f6101000a81548173ffffffffffffffffffffffffffffffffffffffff021916908373ffffffffffffffffffffffffffffffffffffffff1602179055508273ffffffffffffffffffffffffffffffffffffffff168173ffffffffffffffffffffffffffffffffffffffff167f4ab5be82436d353e61ca18726e984e561f5c1cc7c6d38b29d2553c790434705a60405160405180910390a3505050565b612b2d613248565b5f73ffffffffffffffffffffffffffffffffffffffff168173ffffffffffffffffffffffffffffffffffffffff1603612b9d575f6040517f1e4fbdf7000000000000000000000000000000000000000000000000000000008152600401612b949190613b21565b60405180910390fd5b612ba6816132cf565b50565b815f811480612bba57506007548110155b15612bf1576040517fc93477d000000000000000000000000000000000000000000000000000000000815260040160405180910390fd5b60025f8281526020019081526020015f206008015f9054906101000a900460ff16612c48576040517f0f0c1bc800000000000000000000000000000000000000000000000000000000815260040160405180910390fd5b8160038160ff1610612c86576040517f99e1731f00000000000000000000000000000000000000000000000000000000815260040160405180910390fd5b612c8e612f4d565b5f60025f8681526020019081526020015f209050806004018460ff1660038110612cbb57612cba6141c5565b5b015460045f8781526020019081526020015f205f8660ff1660ff1681526020019081526020015f205410612d24576040517f08c379a0000000000000000000000000000000000000000000000000000000008152600401612d1b90614f73565b60405180910390fd5b60015f3373ffffffffffffffffffffffffffffffffffffffff1673ffffffffffffffffffffffffffffffffffffffff1681526020019081526020015f205f8681526020019081526020015f2060030160019054906101000a900460ff1615612dc1576040517f08c379a0000000000000000000000000000000000000000000000000000000008152600401612db890614fdb565b60405180910390fd5b5f815f018560ff1660038110612dda57612dd96141c5565b5b01549050612de781612f9c565b73__$147a7b305f2d2b3a6380cb5e79d029ae8b$__63c610290a6001600560036004338c8c8a600301546040518963ffffffff1660e01b8152600401612e3498979695949392919061501d565b5f6040518083038186803b158015612e4a575f5ffd5b505af4158015612e5c573d5f5f3e3d5ffd5b50505050853373ffffffffffffffffffffffffffffffffffffffff167f4f33268bfde27678e64dd9cdbdac8fa282bd69e5bbf0e35fe386af12127ad71c8760ff166002811115612eaf57612eae613b8b565b5b856003015442612ebf919061421f565b85604051612ecf93929190615099565b60405180910390a3853373ffffffffffffffffffffffffffffffffffffffff167f03bb1a174937e3dd09a870c604dbb901e99f3984246ef19a28d06025fc7b36b7838860ff166002811115612f2757612f26613b8b565b5b604051612f35929190614261565b60405180910390a35050612f4761323e565b50505050565b600260085403612f92576040517f08c379a0000000000000000000000000000000000000000000000000000000008152600401612f8990615118565b60405180910390fd5b6002600881905550565b5f60095f9054906101000a900473ffffffffffffffffffffffffffffffffffffffff1673ffffffffffffffffffffffffffffffffffffffff1663dd62ed3e33306040518363ffffffff1660e01b8152600401612ff99291906148a3565b602060405180830381865afa158015613014573d5f5f3e3d5ffd5b505050506040513d601f19601f820116820180604052508101906130389190614463565b90508181101561307d576040517f08c379a000000000000000000000000000000000000000000000000000000000815260040161307490615180565b60405180910390fd5b5f60095f9054906101000a900473ffffffffffffffffffffffffffffffffffffffff1673ffffffffffffffffffffffffffffffffffffffff166370a08231336040518263ffffffff1660e01b81526004016130d89190613b21565b602060405180830381865afa1580156130f3573d5f5f3e3d5ffd5b505050506040513d601f19601f820116820180604052508101906131179190614463565b90508281101561315c576040517f08c379a0000000000000000000000000000000000000000000000000000000008152600401613153906144d8565b60405180910390fd5b60095f9054906101000a900473ffffffffffffffffffffffffffffffffffffffff1673ffffffffffffffffffffffffffffffffffffffff166323b872dd3330866040518463ffffffff1660e01b81526004016131ba9392919061519e565b6020604051808303815f875af11580156131d6573d5f5f3e3d5ffd5b505050506040513d601f19601f820116820180604052508101906131fa9190614547565b613239576040517f08c379a00000000000000000000000000000000000000000000000000000000081526004016132309061521d565b60405180910390fd5b505050565b6001600881905550565b613250613390565b73ffffffffffffffffffffffffffffffffffffffff1661326e6118e3565b73ffffffffffffffffffffffffffffffffffffffff16146132cd57613291613390565b6040517f118cdaa70000000000000000000000000000000000000000000000000000000081526004016132c49190613b21565b60405180910390fd5b565b5f5f5f9054906101000a900473ffffffffffffffffffffffffffffffffffffffff169050815f5f6101000a81548173ffffffffffffffffffffffffffffffffffffffff021916908373ffffffffffffffffffffffffffffffffffffffff1602179055508173ffffffffffffffffffffffffffffffffffffffff168173ffffffffffffffffffffffffffffffffffffffff167f8be0079c531659141344cd1fd0a4f28419497f9722a3daafe3b4186f6b6457e060405160405180910390a35050565b5f33905090565b82600381019282156133c6579160200282015b828111156133c55782518255916020019190600101906133aa565b5b5090506133d391906134e5565b5090565b60405180606001604052806003905b6133ee613500565b8152602001906001900390816133e65790505090565b6040518060c001604052805f81526020015f600281111561342857613427613b8b565b5b81526020015f81526020015f151581526020015f151581526020015f81525090565b8260038101928215613485579160200282015b828111156134845782518290816134749190614dd8565b509160200191906001019061345d565b5b509050613492919061352d565b5090565b6040518060e001604052806134a9613550565b81526020015f81526020016134bc613550565b8152602001606081526020015f15158152602001606081526020016134df613572565b81525090565b5b808211156134fc575f815f9055506001016134e6565b5090565b6040518060a00160405280606081526020015f81526020015f81526020015f81526020015f151581525090565b5b8082111561354c575f81816135439190613599565b5060010161352e565b5090565b6040518060600160405280600390602082028036833780820191505090505090565b60405180606001604052806003905b60608152602001906001900390816135815790505090565b5080546135a590614652565b5f825580601f106135b657506135d3565b601f0160209004905f5260205f20908101906135d291906134e5565b5b50565b5f604051905090565b5f5ffd5b5f5ffd5b5f73ffffffffffffffffffffffffffffffffffffffff82169050919050565b5f613610826135e7565b9050919050565b61362081613606565b811461362a575f5ffd5b50565b5f8135905061363b81613617565b92915050565b5f819050919050565b61365381613641565b811461365d575f5ffd5b50565b5f8135905061366e8161364a565b92915050565b5f5f6040838503121561368a576136896135df565b5b5f6136978582860161362d565b92505060206136a885828601613660565b9150509250929050565b6136bb81613641565b82525050565b5f6020820190506136d45f8301846136b2565b92915050565b5f602082840312156136ef576136ee6135df565b5b5f6136fc84828501613660565b91505092915050565b5f5ffd5b5f601f19601f8301169050919050565b7f4e487b71000000000000000000000000000000000000000000000000000000005f52604160045260245ffd5b61374f82613709565b810181811067ffffffffffffffff8211171561376e5761376d613719565b5b80604052505050565b5f6137806135d6565b905061378c8282613746565b919050565b5f67ffffffffffffffff8211156137ab576137aa613719565b5b602082029050919050565b5f5ffd5b5f6137cc6137c784613791565b613777565b905080602084028301858111156137e6576137e56137b6565b5b835b8181101561380f57806137fb8882613660565b8452602084019350506020810190506137e8565b5050509392505050565b5f82601f83011261382d5761382c613705565b5b600361383a8482856137ba565b91505092915050565b5f5f5f5f610100858703121561385c5761385b6135df565b5b5f61386987828801613660565b945050602061387a87828801613819565b935050608061388b87828801613660565b92505060a061389c87828801613819565b91505092959194509250565b5f819050919050565b5f6138cb6138c66138c1846135e7565b6138a8565b6135e7565b9050919050565b5f6138dc826138b1565b9050919050565b5f6138ed826138d2565b9050919050565b6138fd816138e3565b82525050565b5f6020820190506139165f8301846138f4565b92915050565b5f60208284031215613931576139306135df565b5b5f61393e8482850161362d565b91505092915050565b5f60039050919050565b5f81905092915050565b5f819050919050565b5f81519050919050565b5f82825260208201905092915050565b8281835e5f83830152505050565b5f61399682613964565b6139a0818561396e565b93506139b081856020860161397e565b6139b981613709565b840191505092915050565b6139cd81613641565b82525050565b5f8115159050919050565b6139e7816139d3565b82525050565b5f60a083015f8301518482035f860152613a07828261398c565b9150506020830151613a1c60208601826139c4565b506040830151613a2f60408601826139c4565b506060830151613a4260608601826139c4565b506080830151613a5560808601826139de565b508091505092915050565b5f613a6b83836139ed565b905092915050565b5f602082019050919050565b5f613a8982613947565b613a938185613951565b935083602082028501613aa58561395b565b805f5b85811015613ae05784840389528151613ac18582613a60565b9450613acc83613a73565b925060208a01995050600181019050613aa8565b50829750879550505050505092915050565b5f6020820190508181035f830152613b0a8184613a7f565b905092915050565b613b1b81613606565b82525050565b5f602082019050613b345f830184613b12565b92915050565b613b43816139d3565b82525050565b5f602082019050613b5c5f830184613b3a565b92915050565b5f81519050919050565b5f82825260208201905092915050565b5f819050602082019050919050565b7f4e487b71000000000000000000000000000000000000000000000000000000005f52602160045260245ffd5b60038110613bc957613bc8613b8b565b5b50565b5f819050613bd982613bb8565b919050565b5f613be882613bcc565b9050919050565b613bf881613bde565b82525050565b60c082015f820151613c125f8501826139c4565b506020820151613c256020850182613bef565b506040820151613c3860408501826139c4565b506060820151613c4b60608501826139de565b506080820151613c5e60808501826139de565b5060a0820151613c7160a08501826139c4565b50505050565b5f613c828383613bfe565b60c08301905092915050565b5f602082019050919050565b5f613ca482613b62565b613cae8185613b6c565b9350613cb983613b7c565b805f5b83811015613ce9578151613cd08882613c77565b9750613cdb83613c8e565b925050600181019050613cbc565b5085935050505092915050565b5f6020820190508181035f830152613d0e8184613c9a565b905092915050565b5f5f5f60608486031215613d2d57613d2c6135df565b5b5f613d3a8682870161362d565b9350506020613d4b86828701613660565b9250506040613d5c86828701613660565b9150509250925092565b5f5ffd5b5f5f83601f840112613d7f57613d7e613705565b5b8235905067ffffffffffffffff811115613d9c57613d9b613d66565b5b602083019150836001820283011115613db857613db76137b6565b5b9250929050565b5f81905082602060030282011115613dda57613dd96137b6565b5b92915050565b5f5f5f5f5f5f5f5f610140898b031215613dfd57613dfc6135df565b5b5f89013567ffffffffffffffff811115613e1a57613e196135e3565b5b613e268b828c01613d6a565b98509850506020613e398b828c01613819565b9650506080613e4a8b828c01613660565b95505060a0613e5b8b828c01613819565b94505061010089013567ffffffffffffffff811115613e7d57613e7c6135e3565b5b613e898b828c01613d6a565b935093505061012089013567ffffffffffffffff811115613ead57613eac6135e3565b5b613eb98b828c01613dbf565b9150509295985092959890939650565b5f60039050919050565b5f81905092915050565b5f819050919050565b5f613ef183836139c4565b60208301905092915050565b5f602082019050919050565b613f1281613ec9565b613f1c8184613ed3565b9250613f2782613edd565b805f5b83811015613f57578151613f3e8782613ee6565b9650613f4983613efd565b925050600181019050613f2a565b505050505050565b5f60039050919050565b5f81905092915050565b5f819050919050565b5f613f87838361398c565b905092915050565b5f602082019050919050565b5f613fa582613f5f565b613faf8185613f69565b935083602082028501613fc185613f73565b805f5b85811015613ffc5784840389528151613fdd8582613f7c565b9450613fe883613f8f565b925060208a01995050600181019050613fc4565b50829750879550505050505092915050565b5f61016083015f8301516140245f860182613f09565b50602083015161403760608601826139c4565b50604083015161404a6080860182613f09565b50606083015184820360e0860152614062828261398c565b91505060808301516140786101008601826139de565b5060a0830151848203610120860152614091828261398c565b91505060c08301518482036101408601526140ac8282613f9b565b9150508091505092915050565b5f6020820190508181035f8301526140d1818461400e565b905092915050565b5f60ff82169050919050565b6140ee816140d9565b81146140f8575f5ffd5b50565b5f81359050614109816140e5565b92915050565b5f5f60408385031215614125576141246135df565b5b5f61413285828601613660565b9250506020614143858286016140fb565b9150509250929050565b5f82825260208201905092915050565b7f50617373206973207374696c6c206163746976650000000000000000000000005f82015250565b5f61419160148361414d565b915061419c8261415d565b602082019050919050565b5f6020820190508181035f8301526141be81614185565b9050919050565b7f4e487b71000000000000000000000000000000000000000000000000000000005f52603260045260245ffd5b7f4e487b71000000000000000000000000000000000000000000000000000000005f52601160045260245ffd5b5f61422982613641565b915061423483613641565b925082820190508082111561424c5761424b6141f2565b5b92915050565b61425b81613bde565b82525050565b5f6040820190506142745f8301856136b2565b6142816020830184614252565b9392505050565b5f81905092915050565b61429b81613641565b82525050565b5f6142ac8383614292565b60208301905092915050565b6142c181613ec9565b6142cb8184614288565b92506142d682613edd565b805f5b838110156143065781516142ed87826142a1565b96506142f883613efd565b9250506001810190506142d9565b505050505050565b61431781613641565b82525050565b5f60e0820190506143305f8301866142b8565b61433d606083018561430e565b61434a60808301846142b8565b949350505050565b7f4d6178207061737365732062656c6f772063757272656e7420736f6c640000005f82015250565b5f614386601d8361414d565b915061439182614352565b602082019050919050565b5f6020820190508181035f8301526143b38161437a565b9050919050565b5f81905092915050565b6143cd81613ec9565b6143d781846143ba565b92506143e282613edd565b805f5b838110156144125781516143f98782613ee6565b965061440483613efd565b9250506001810190506143e5565b505050505050565b5f60e08201905061442d5f8301866143c4565b61443a60608301856136b2565b61444760808301846143c4565b949350505050565b5f8151905061445d8161364a565b92915050565b5f60208284031215614478576144776135df565b5b5f6144858482850161444f565b91505092915050565b7f496e73756666696369656e742062616c616e63650000000000000000000000005f82015250565b5f6144c260148361414d565b91506144cd8261448e565b602082019050919050565b5f6020820190508181035f8301526144ef816144b6565b9050919050565b5f6040820190506145095f830185613b12565b61451660208301846136b2565b9392505050565b614526816139d3565b8114614530575f5ffd5b50565b5f815190506145418161451d565b92915050565b5f6020828403121561455c5761455b6135df565b5b5f61456984828501614533565b91505092915050565b7f5472616e73666572206661696c656400000000000000000000000000000000005f82015250565b5f6145a6600f8361414d565b91506145b182614572565b602082019050919050565b5f6020820190508181035f8301526145d38161459a565b9050919050565b8082525050565b6145ea81613606565b82525050565b5f6060820190506146035f8301866145da565b61461060208301856145e1565b61461d604083018461430e565b949350505050565b7f4e487b71000000000000000000000000000000000000000000000000000000005f52602260045260245ffd5b5f600282049050600182168061466957607f821691505b60208210810361467c5761467b614625565b5b50919050565b61468b81613bde565b82525050565b5f6020820190506146a45f830184614682565b92915050565b5f5ffd5b5f67ffffffffffffffff8211156146c8576146c7613719565b5b6146d182613709565b9050602081019050919050565b5f6146f06146eb846146ae565b613777565b90508281526020810184848401111561470c5761470b6146aa565b5b61471784828561397e565b509392505050565b5f82601f83011261473357614732613705565b5b81516147438482602086016146de565b91505092915050565b5f60208284031215614761576147606135df565b5b5f82015167ffffffffffffffff81111561477e5761477d6135e3565b5b61478a8482850161471f565b91505092915050565b7f5061737320616c726561647920646561637469766174656400000000000000005f82015250565b5f6147c760188361414d565b91506147d282614793565b602082019050919050565b5f6020820190508181035f8301526147f4816147bb565b9050919050565b5f61480582613641565b91505f8203614817576148166141f2565b5b600182039050919050565b5f6020820190506148355f8301846145e1565b92915050565b7f4e6f74206120636f6e74726163742061646472657373000000000000000000005f82015250565b5f61486f60168361414d565b915061487a8261483b565b602082019050919050565b5f6020820190508181035f83015261489c81614863565b9050919050565b5f6040820190506148b65f830185613b12565b6148c36020830184613b12565b9392505050565b5f6148d482613641565b91507fffffffffffffffffffffffffffffffffffffffffffffffffffffffffffffffff8203614906576149056141f2565b5b600182019050919050565b7f50617373206973206e6f742061637469766500000000000000000000000000005f82015250565b5f61494560128361414d565b915061495082614911565b602082019050919050565b5f6020820190508181035f83015261497281614939565b9050919050565b7f496e76616c6964206164646974696f6e616c2074696d650000000000000000005f82015250565b5f6149ad60178361414d565b91506149b882614979565b602082019050919050565b5f6020820190508181035f8301526149da816149a1565b9050919050565b5f82825260208201905092915050565b828183375f83830152505050565b5f614a0a83856149e1565b9350614a178385846149f1565b614a2083613709565b840190509392505050565b5f6020820190508181035f830152614a448184866149ff565b90509392505050565b7f496e76616c6964204950465320686173680000000000000000000000000000005f82015250565b5f614a8160118361414d565b9150614a8c82614a4d565b602082019050919050565b5f6020820190508181035f830152614aae81614a75565b9050919050565b7f4576656e74206e616d65207265717569726564000000000000000000000000005f82015250565b5f614ae960138361414d565b9150614af482614ab5565b602082019050919050565b5f6020820190508181035f830152614b1681614add565b9050919050565b5f67ffffffffffffffff821115614b3757614b36613719565b5b602082029050919050565b5f614b54614b4f846146ae565b613777565b905082815260208101848484011115614b7057614b6f6146aa565b5b614b7b8482856149f1565b509392505050565b5f82601f830112614b9757614b96613705565b5b8135614ba7848260208601614b42565b91505092915050565b5f614bc2614bbd84614b1d565b613777565b90508060208402830185811115614bdc57614bdb6137b6565b5b835b81811015614c2357803567ffffffffffffffff811115614c0157614c00613705565b5b808601614c0e8982614b83565b85526020850194505050602081019050614bde565b5050509392505050565b5f614c3a36600384614bb0565b9050919050565b5f819050815f5260205f209050919050565b5f6020601f8301049050919050565b5f82821b905092915050565b5f60088302614c9d7fffffffffffffffffffffffffffffffffffffffffffffffffffffffffffffffff82614c62565b614ca78683614c62565b95508019841693508086168417925050509392505050565b5f614cd9614cd4614ccf84613641565b6138a8565b613641565b9050919050565b5f819050919050565b614cf283614cbf565b614d06614cfe82614ce0565b848454614c6e565b825550505050565b5f5f905090565b614d1d614d0e565b614d28818484614ce9565b505050565b5b81811015614d4b57614d405f82614d15565b600181019050614d2e565b5050565b601f821115614d9057614d6181614c41565b614d6a84614c53565b81016020851015614d79578190505b614d8d614d8585614c53565b830182614d2d565b50505b505050565b5f82821c905092915050565b5f614db05f1984600802614d95565b1980831691505092915050565b5f614dc88383614da1565b9150826002028217905092915050565b614de182613964565b67ffffffffffffffff811115614dfa57614df9613719565b5b614e048254614652565b614e0f828285614d4f565b5f60209050601f831160018114614e40575f8415614e2e578287015190505b614e388582614dbd565b865550614e9f565b601f198416614e4e86614c41565b5f5b82811015614e7557848901518255600182019150602085019450602081019050614e50565b86831015614e925784890151614e8e601f891682614da1565b8355505b6001600288020188555050505b505050505050565b5f614eb2838561414d565b9350614ebf8385846149f1565b614ec883613709565b840190509392505050565b5f610100820190508181035f830152614eed81888a614ea7565b9050614efc60208301876143c4565b614f0960808301866143c4565b81810360e0830152614f1c818486614ea7565b9050979650505050505050565b7f50617373207479706520736f6c64206f757400000000000000000000000000005f82015250565b5f614f5d60128361414d565b9150614f6882614f29565b602082019050919050565b5f6020820190508181035f830152614f8a81614f51565b9050919050565b7f5061737320616c726561647920657869737473000000000000000000000000005f82015250565b5f614fc560138361414d565b9150614fd082614f91565b602082019050919050565b5f6020820190508181035f830152614ff281614fb9565b9050919050565b8082525050565b8082525050565b8082525050565b615017816140d9565b82525050565b5f610100820190506150315f83018b6145da565b61503e602083018a614ff9565b61504b6040830189615000565b6150586060830188615007565b61506560808301876145e1565b61507260a083018661430e565b61507f60c083018561500e565b61508c60e083018461430e565b9998505050505050505050565b5f6060820190506150ac5f830186614252565b6150b960208301856136b2565b6150c660408301846136b2565b949350505050565b7f5265656e7472616e637947756172643a207265656e7472616e742063616c6c005f82015250565b5f615102601f8361414d565b915061510d826150ce565b602082019050919050565b5f6020820190508181035f83015261512f816150f6565b9050919050565b7f496e73756666696369656e7420616c6c6f77616e6365000000000000000000005f82015250565b5f61516a60168361414d565b915061517582615136565b602082019050919050565b5f6020820190508181035f8301526151978161515e565b9050919050565b5f6060820190506151b15f830186613b12565b6151be6020830185613b12565b6151cb60408301846136b2565b949350505050565b7f5061796d656e74207472616e73666572206661696c65640000000000000000005f82015250565b5f61520760178361414d565b9150615212826151d3565b602082019050919050565b5f6020820190508181035f830152615234816151fb565b905091905056fea2646970667358221220b95c7ebc64161e77a6f53087e3d56babfb0834694e43aa05abee11b102cfef9364736f6c634300081c0033",
			"opcodes": "PUSH1 0x80 PUSH1 0x40 MSTORE CALLVALUE DUP1 ISZERO PUSH2 0xF JUMPI PUSH0 PUSH0 REVERT JUMPDEST POP PUSH1 0x40 MLOAD PUSH2 0x561C CODESIZE SUB DUP1 PUSH2 0x561C DUP4 CODECOPY DUP2 DUP2 ADD PUSH1 0x40 MSTORE DUP2 ADD SWAP1 PUSH2 0x31 SWAP2 SWAP1 PUSH2 0x338 JUMP JUMPDEST CALLER DUP1 PUSH0 PUSH20 0xFFFFFFFFFFFFFFFFFFFFFFFFFFFFFFFFFFFFFFFF AND DUP2 PUSH20 0xFFFFFFFFFFFFFFFFFFFFFFFFFFFFFFFFFFFFFFFF AND SUB PUSH2 0xA3 JUMPI PUSH0 PUSH1 0x40 MLOAD PUSH32 0x1E4FBDF700000000000000000000000000000000000000000000000000000000 DUP2 MSTORE PUSH1 0x4 ADD PUSH2 0x9A SWAP2 SWAP1 PUSH2 0x385 JUMP JUMPDEST PUSH1 0x40 MLOAD DUP1 SWAP2 SUB SWAP1 REVERT JUMPDEST PUSH2 0xB2 DUP2 PUSH2 0x219 PUSH1 0x20 SHL PUSH1 0x20 SHR JUMP JUMPDEST POP POP PUSH1 0x1 PUSH1 0x8 DUP2 SWAP1 SSTORE POP DUP2 PUSH0 PUSH20 0xFFFFFFFFFFFFFFFFFFFFFFFFFFFFFFFFFFFFFFFF AND DUP2 PUSH20 0xFFFFFFFFFFFFFFFFFFFFFFFFFFFFFFFFFFFFFFFF AND SUB PUSH2 0x122 JUMPI PUSH1 0x40 MLOAD PUSH32 0xE6C4247B00000000000000000000000000000000000000000000000000000000 DUP2 MSTORE PUSH1 0x4 ADD PUSH1 0x40 MLOAD DUP1 SWAP2 SUB SWAP1 REVERT JUMPDEST DUP2 PUSH0 PUSH20 0xFFFFFFFFFFFFFFFFFFFFFFFFFFFFFFFFFFFFFFFF AND DUP2 PUSH20 0xFFFFFFFFFFFFFFFFFFFFFFFFFFFFFFFFFFFFFFFF AND SUB PUSH2 0x188 JUMPI PUSH1 0x40 MLOAD PUSH32 0xE6C4247B00000000000000000000000000000000000000000000000000000000 DUP2 MSTORE PUSH1 0x4 ADD PUSH1 0x40 MLOAD DUP1 SWAP2 SUB SWAP1 REVERT JUMPDEST DUP4 PUSH1 0x9 PUSH0 PUSH2 0x100 EXP DUP2 SLOAD DUP2 PUSH20 0xFFFFFFFFFFFFFFFFFFFFFFFFFFFFFFFFFFFFFFFF MUL NOT AND SWAP1 DUP4 PUSH20 0xFFFFFFFFFFFFFFFFFFFFFFFFFFFFFFFFFFFFFFFF AND MUL OR SWAP1 SSTORE POP DUP3 PUSH1 0xA PUSH0 PUSH2 0x100 EXP DUP2 SLOAD DUP2 PUSH20 0xFFFFFFFFFFFFFFFFFFFFFFFFFFFFFFFFFFFFFFFF MUL NOT AND SWAP1 DUP4 PUSH20 0xFFFFFFFFFFFFFFFFFFFFFFFFFFFFFFFFFFFFFFFF AND MUL OR SWAP1 SSTORE POP PUSH1 0x1 PUSH1 0x7 DUP2 SWAP1 SSTORE POP POP POP POP POP PUSH2 0x39E JUMP JUMPDEST PUSH0 PUSH0 PUSH0 SWAP1 SLOAD SWAP1 PUSH2 0x100 EXP SWAP1 DIV PUSH20 0xFFFFFFFFFFFFFFFFFFFFFFFFFFFFFFFFFFFFFFFF AND SWAP1 POP DUP2 PUSH0 PUSH0 PUSH2 0x100 EXP DUP2 SLOAD DUP2 PUSH20 0xFFFFFFFFFFFFFFFFFFFFFFFFFFFFFFFFFFFFFFFF MUL NOT AND SWAP1 DUP4 PUSH20 0xFFFFFFFFFFFFFFFFFFFFFFFFFFFFFFFFFFFFFFFF AND MUL OR SWAP1 SSTORE POP DUP2 PUSH20 0xFFFFFFFFFFFFFFFFFFFFFFFFFFFFFFFFFFFFFFFF AND DUP2 PUSH20 0xFFFFFFFFFFFFFFFFFFFFFFFFFFFFFFFFFFFFFFFF AND PUSH32 0x8BE0079C531659141344CD1FD0A4F28419497F9722A3DAAFE3B4186F6B6457E0 PUSH1 0x40 MLOAD PUSH1 0x40 MLOAD DUP1 SWAP2 SUB SWAP1 LOG3 POP POP JUMP JUMPDEST PUSH0 PUSH0 REVERT JUMPDEST PUSH0 PUSH20 0xFFFFFFFFFFFFFFFFFFFFFFFFFFFFFFFFFFFFFFFF DUP3 AND SWAP1 POP SWAP2 SWAP1 POP JUMP JUMPDEST PUSH0 PUSH2 0x307 DUP3 PUSH2 0x2DE JUMP JUMPDEST SWAP1 POP SWAP2 SWAP1 POP JUMP JUMPDEST PUSH2 0x317 DUP2 PUSH2 0x2FD JUMP JUMPDEST DUP2 EQ PUSH2 0x321 JUMPI PUSH0 PUSH0 REVERT JUMPDEST POP JUMP JUMPDEST PUSH0 DUP2 MLOAD SWAP1 POP PUSH2 0x332 DUP2 PUSH2 0x30E JUMP JUMPDEST SWAP3 SWAP2 POP POP JUMP JUMPDEST PUSH0 PUSH0 PUSH1 0x40 DUP4 DUP6 SUB SLT ISZERO PUSH2 0x34E JUMPI PUSH2 0x34D PUSH2 0x2DA JUMP JUMPDEST JUMPDEST PUSH0 PUSH2 0x35B DUP6 DUP3 DUP7 ADD PUSH2 0x324 JUMP JUMPDEST SWAP3 POP POP PUSH1 0x20 PUSH2 0x36C DUP6 DUP3 DUP7 ADD PUSH2 0x324 JUMP JUMPDEST SWAP2 POP POP SWAP3 POP SWAP3 SWAP1 POP JUMP JUMPDEST PUSH2 0x37F DUP2 PUSH2 0x2FD JUMP JUMPDEST DUP3 MSTORE POP POP JUMP JUMPDEST PUSH0 PUSH1 0x20 DUP3 ADD SWAP1 POP PUSH2 0x398 PUSH0 DUP4 ADD DUP5 PUSH2 0x376 JUMP JUMPDEST SWAP3 SWAP2 POP POP JUMP JUMPDEST PUSH2 0x5271 DUP1 PUSH2 0x3AB PUSH0 CODECOPY PUSH0 RETURN INVALID PUSH1 0x80 PUSH1 0x40 MSTORE CALLVALUE DUP1 ISZERO PUSH2 0xF JUMPI PUSH0 PUSH0 REVERT JUMPDEST POP PUSH1 0x4 CALLDATASIZE LT PUSH2 0x156 JUMPI PUSH0 CALLDATALOAD PUSH1 0xE0 SHR DUP1 PUSH4 0x715018A6 GT PUSH2 0xC1 JUMPI DUP1 PUSH4 0xD6F8A505 GT PUSH2 0x7A JUMPI DUP1 PUSH4 0xD6F8A505 EQ PUSH2 0x39A JUMPI DUP1 PUSH4 0xE0F22E19 EQ PUSH2 0x3B6 JUMPI DUP1 PUSH4 0xEC38D5A0 EQ PUSH2 0x3D2 JUMPI DUP1 PUSH4 0xF0F44260 EQ PUSH2 0x402 JUMPI DUP1 PUSH4 0xF2FDE38B EQ PUSH2 0x41E JUMPI DUP1 PUSH4 0xF9F29FAB EQ PUSH2 0x43A JUMPI PUSH2 0x156 JUMP JUMPDEST DUP1 PUSH4 0x715018A6 EQ PUSH2 0x2EE JUMPI DUP1 PUSH4 0x8DA5CB5B EQ PUSH2 0x2F8 JUMPI DUP1 PUSH4 0x957A632E EQ PUSH2 0x316 JUMPI DUP1 PUSH4 0xBC38D48C EQ PUSH2 0x332 JUMPI DUP1 PUSH4 0xCE07502D EQ PUSH2 0x362 JUMPI DUP1 PUSH4 0xD4B57802 EQ PUSH2 0x37E JUMPI PUSH2 0x156 JUMP JUMPDEST DUP1 PUSH4 0x52EF05BE GT PUSH2 0x113 JUMPI DUP1 PUSH4 0x52EF05BE EQ PUSH2 0x21A JUMPI DUP1 PUSH4 0x5F29A154 EQ PUSH2 0x24A JUMPI DUP1 PUSH4 0x61D027B3 EQ PUSH2 0x266 JUMPI DUP1 PUSH4 0x6A326AB1 EQ PUSH2 0x284 JUMPI DUP1 PUSH4 0x6F9FB98A EQ PUSH2 0x2A0 JUMPI DUP1 PUSH4 0x70AA75F3 EQ PUSH2 0x2BE JUMPI PUSH2 0x156 JUMP JUMPDEST DUP1 PUSH4 0x8654D3B EQ PUSH2 0x15A JUMPI DUP1 PUSH4 0x177342EB EQ PUSH2 0x18A JUMPI DUP1 PUSH4 0x1C40BD91 EQ PUSH2 0x1A6 JUMPI DUP1 PUSH4 0x24600FC3 EQ PUSH2 0x1C2 JUMPI DUP1 PUSH4 0x3013CE29 EQ PUSH2 0x1CC JUMPI DUP1 PUSH4 0x38AC497E EQ PUSH2 0x1EA JUMPI JUMPDEST PUSH0 PUSH0 REVERT JUMPDEST PUSH2 0x174 PUSH1 0x4 DUP1 CALLDATASIZE SUB DUP2 ADD SWAP1 PUSH2 0x16F SWAP2 SWAP1 PUSH2 0x3674 JUMP JUMPDEST PUSH2 0x456 JUMP JUMPDEST PUSH1 0x40 MLOAD PUSH2 0x181 SWAP2 SWAP1 PUSH2 0x36C1 JUMP JUMPDEST PUSH1 0x40 MLOAD DUP1 SWAP2 SUB SWAP1 RETURN JUMPDEST PUSH2 0x1A4 PUSH1 0x4 DUP1 CALLDATASIZE SUB DUP2 ADD SWAP1 PUSH2 0x19F SWAP2 SWAP1 PUSH2 0x36DA JUMP JUMPDEST PUSH2 0x546 JUMP JUMPDEST STOP JUMPDEST PUSH2 0x1C0 PUSH1 0x4 DUP1 CALLDATASIZE SUB DUP2 ADD SWAP1 PUSH2 0x1BB SWAP2 SWAP1 PUSH2 0x3843 JUMP JUMPDEST PUSH2 0x884 JUMP JUMPDEST STOP JUMPDEST PUSH2 0x1CA PUSH2 0xB20 JUMP JUMPDEST STOP JUMPDEST PUSH2 0x1D4 PUSH2 0xDD8 JUMP JUMPDEST PUSH1 0x40 MLOAD PUSH2 0x1E1 SWAP2 SWAP1 PUSH2 0x3903 JUMP JUMPDEST PUSH1 0x40 MLOAD DUP1 SWAP2 SUB SWAP1 RETURN JUMPDEST PUSH2 0x204 PUSH1 0x4 DUP1 CALLDATASIZE SUB DUP2 ADD SWAP1 PUSH2 0x1FF SWAP2 SWAP1 PUSH2 0x391C JUMP JUMPDEST PUSH2 0xDFD JUMP JUMPDEST PUSH1 0x40 MLOAD PUSH2 0x211 SWAP2 SWAP1 PUSH2 0x36C1 JUMP JUMPDEST PUSH1 0x40 MLOAD DUP1 SWAP2 SUB SWAP1 RETURN JUMPDEST PUSH2 0x234 PUSH1 0x4 DUP1 CALLDATASIZE SUB DUP2 ADD SWAP1 PUSH2 0x22F SWAP2 SWAP1 PUSH2 0x36DA JUMP JUMPDEST PUSH2 0xE82 JUMP JUMPDEST PUSH1 0x40 MLOAD PUSH2 0x241 SWAP2 SWAP1 PUSH2 0x3AF2 JUMP JUMPDEST PUSH1 0x40 MLOAD DUP1 SWAP2 SUB SWAP1 RETURN JUMPDEST PUSH2 0x264 PUSH1 0x4 DUP1 CALLDATASIZE SUB DUP2 ADD SWAP1 PUSH2 0x25F SWAP2 SWAP1 PUSH2 0x3674 JUMP JUMPDEST PUSH2 0x1174 JUMP JUMPDEST STOP JUMPDEST PUSH2 0x26E PUSH2 0x155E JUMP JUMPDEST PUSH1 0x40 MLOAD PUSH2 0x27B SWAP2 SWAP1 PUSH2 0x3B21 JUMP JUMPDEST PUSH1 0x40 MLOAD DUP1 SWAP2 SUB SWAP1 RETURN JUMPDEST PUSH2 0x29E PUSH1 0x4 DUP1 CALLDATASIZE SUB DUP2 ADD SWAP1 PUSH2 0x299 SWAP2 SWAP1 PUSH2 0x391C JUMP JUMPDEST PUSH2 0x1583 JUMP JUMPDEST STOP JUMPDEST PUSH2 0x2A8 PUSH2 0x17AD JUMP JUMPDEST PUSH1 0x40 MLOAD PUSH2 0x2B5 SWAP2 SWAP1 PUSH2 0x36C1 JUMP JUMPDEST PUSH1 0x40 MLOAD DUP1 SWAP2 SUB SWAP1 RETURN JUMPDEST PUSH2 0x2D8 PUSH1 0x4 DUP1 CALLDATASIZE SUB DUP2 ADD SWAP1 PUSH2 0x2D3 SWAP2 SWAP1 PUSH2 0x3674 JUMP JUMPDEST PUSH2 0x184C JUMP JUMPDEST PUSH1 0x40 MLOAD PUSH2 0x2E5 SWAP2 SWAP1 PUSH2 0x3B49 JUMP JUMPDEST PUSH1 0x40 MLOAD DUP1 SWAP2 SUB SWAP1 RETURN JUMPDEST PUSH2 0x2F6 PUSH2 0x18D0 JUMP JUMPDEST STOP JUMPDEST PUSH2 0x300 PUSH2 0x18E3 JUMP JUMPDEST PUSH1 0x40 MLOAD PUSH2 0x30D SWAP2 SWAP1 PUSH2 0x3B21 JUMP JUMPDEST PUSH1 0x40 MLOAD DUP1 SWAP2 SUB SWAP1 RETURN JUMPDEST PUSH2 0x330 PUSH1 0x4 DUP1 CALLDATASIZE SUB DUP2 ADD SWAP1 PUSH2 0x32B SWAP2 SWAP1 PUSH2 0x36DA JUMP JUMPDEST PUSH2 0x190A JUMP JUMPDEST STOP JUMPDEST PUSH2 0x34C PUSH1 0x4 DUP1 CALLDATASIZE SUB DUP2 ADD SWAP1 PUSH2 0x347 SWAP2 SWAP1 PUSH2 0x391C JUMP JUMPDEST PUSH2 0x1A71 JUMP JUMPDEST PUSH1 0x40 MLOAD PUSH2 0x359 SWAP2 SWAP1 PUSH2 0x3CF6 JUMP JUMPDEST PUSH1 0x40 MLOAD DUP1 SWAP2 SUB SWAP1 RETURN JUMPDEST PUSH2 0x37C PUSH1 0x4 DUP1 CALLDATASIZE SUB DUP2 ADD SWAP1 PUSH2 0x377 SWAP2 SWAP1 PUSH2 0x391C JUMP JUMPDEST PUSH2 0x1D4B JUMP JUMPDEST STOP JUMPDEST PUSH2 0x398 PUSH1 0x4 DUP1 CALLDATASIZE SUB DUP2 ADD SWAP1 PUSH2 0x393 SWAP2 SWAP1 PUSH2 0x3D16 JUMP JUMPDEST PUSH2 0x1E51 JUMP JUMPDEST STOP JUMPDEST PUSH2 0x3B4 PUSH1 0x4 DUP1 CALLDATASIZE SUB DUP2 ADD SWAP1 PUSH2 0x3AF SWAP2 SWAP1 PUSH2 0x391C JUMP JUMPDEST PUSH2 0x2172 JUMP JUMPDEST STOP JUMPDEST PUSH2 0x3D0 PUSH1 0x4 DUP1 CALLDATASIZE SUB DUP2 ADD SWAP1 PUSH2 0x3CB SWAP2 SWAP1 PUSH2 0x3DE0 JUMP JUMPDEST PUSH2 0x22E0 JUMP JUMPDEST STOP JUMPDEST PUSH2 0x3EC PUSH1 0x4 DUP1 CALLDATASIZE SUB DUP2 ADD SWAP1 PUSH2 0x3E7 SWAP2 SWAP1 PUSH2 0x36DA JUMP JUMPDEST PUSH2 0x268A JUMP JUMPDEST PUSH1 0x40 MLOAD PUSH2 0x3F9 SWAP2 SWAP1 PUSH2 0x40B9 JUMP JUMPDEST PUSH1 0x40 MLOAD DUP1 SWAP2 SUB SWAP1 RETURN JUMPDEST PUSH2 0x41C PUSH1 0x4 DUP1 CALLDATASIZE SUB DUP2 ADD SWAP1 PUSH2 0x417 SWAP2 SWAP1 PUSH2 0x391C JUMP JUMPDEST PUSH2 0x298F JUMP JUMPDEST STOP JUMPDEST PUSH2 0x438 PUSH1 0x4 DUP1 CALLDATASIZE SUB DUP2 ADD SWAP1 PUSH2 0x433 SWAP2 SWAP1 PUSH2 0x391C JUMP JUMPDEST PUSH2 0x2B25 JUMP JUMPDEST STOP JUMPDEST PUSH2 0x454 PUSH1 0x4 DUP1 CALLDATASIZE SUB DUP2 ADD SWAP1 PUSH2 0x44F SWAP2 SWAP1 PUSH2 0x410F JUMP JUMPDEST PUSH2 0x2BA9 JUMP JUMPDEST STOP JUMPDEST PUSH0 DUP3 DUP3 PUSH1 0x1 PUSH0 DUP4 PUSH20 0xFFFFFFFFFFFFFFFFFFFFFFFFFFFFFFFFFFFFFFFF AND PUSH20 0xFFFFFFFFFFFFFFFFFFFFFFFFFFFFFFFFFFFFFFFF AND DUP2 MSTORE PUSH1 0x20 ADD SWAP1 DUP2 MSTORE PUSH1 0x20 ADD PUSH0 KECCAK256 PUSH0 DUP3 DUP2 MSTORE PUSH1 0x20 ADD SWAP1 DUP2 MSTORE PUSH1 0x20 ADD PUSH0 KECCAK256 PUSH1 0x3 ADD PUSH1 0x1 SWAP1 SLOAD SWAP1 PUSH2 0x100 EXP SWAP1 DIV PUSH1 0xFF AND PUSH2 0x4EC JUMPI PUSH1 0x40 MLOAD PUSH32 0xE403AE9900000000000000000000000000000000000000000000000000000000 DUP2 MSTORE PUSH1 0x4 ADD PUSH1 0x40 MLOAD DUP1 SWAP2 SUB SWAP1 REVERT JUMPDEST PUSH1 0x1 PUSH0 DUP7 PUSH20 0xFFFFFFFFFFFFFFFFFFFFFFFFFFFFFFFFFFFFFFFF AND PUSH20 0xFFFFFFFFFFFFFFFFFFFFFFFFFFFFFFFFFFFFFFFF AND DUP2 MSTORE PUSH1 0x20 ADD SWAP1 DUP2 MSTORE PUSH1 0x20 ADD PUSH0 KECCAK256 PUSH0 DUP6 DUP2 MSTORE PUSH1 0x20 ADD SWAP1 DUP2 MSTORE PUSH1 0x20 ADD PUSH0 KECCAK256 PUSH1 0x1 ADD SLOAD SWAP3 POP POP POP SWAP3 SWAP2 POP POP JUMP JUMPDEST DUP1 PUSH0 DUP2 EQ DUP1 PUSH2 0x557 JUMPI POP PUSH1 0x7 SLOAD DUP2 LT ISZERO JUMPDEST ISZERO PUSH2 0x58E JUMPI PUSH1 0x40 MLOAD PUSH32 0xC93477D000000000000000000000000000000000000000000000000000000000 DUP2 MSTORE PUSH1 0x4 ADD PUSH1 0x40 MLOAD DUP1 SWAP2 SUB SWAP1 REVERT JUMPDEST PUSH1 0x2 PUSH0 DUP3 DUP2 MSTORE PUSH1 0x20 ADD SWAP1 DUP2 MSTORE PUSH1 0x20 ADD PUSH0 KECCAK256 PUSH1 0x8 ADD PUSH0 SWAP1 SLOAD SWAP1 PUSH2 0x100 EXP SWAP1 DIV PUSH1 0xFF AND PUSH2 0x5E5 JUMPI PUSH1 0x40 MLOAD PUSH32 0xF0C1BC800000000000000000000000000000000000000000000000000000000 DUP2 MSTORE PUSH1 0x4 ADD PUSH1 0x40 MLOAD DUP1 SWAP2 SUB SWAP1 REVERT JUMPDEST CALLER DUP3 PUSH1 0x1 PUSH0 DUP4 PUSH20 0xFFFFFFFFFFFFFFFFFFFFFFFFFFFFFFFFFFFFFFFF AND PUSH20 0xFFFFFFFFFFFFFFFFFFFFFFFFFFFFFFFFFFFFFFFF AND DUP2 MSTORE PUSH1 0x20 ADD SWAP1 DUP2 MSTORE PUSH1 0x20 ADD PUSH0 KECCAK256 PUSH0 DUP3 DUP2 MSTORE PUSH1 0x20 ADD SWAP1 DUP2 MSTORE PUSH1 0x20 ADD PUSH0 KECCAK256 PUSH1 0x3 ADD PUSH1 0x1 SWAP1 SLOAD SWAP1 PUSH2 0x100 EXP SWAP1 DIV PUSH1 0xFF AND PUSH2 0x67A JUMPI PUSH1 0x40 MLOAD PUSH32 0xE403AE9900000000000000000000000000000000000000000000000000000000 DUP2 MSTORE PUSH1 0x4 ADD PUSH1 0x40 MLOAD DUP1 SWAP2 SUB SWAP1 REVERT JUMPDEST PUSH2 0x682 PUSH2 0x2F4D JUMP JUMPDEST PUSH0 PUSH1 0x1 PUSH0 CALLER PUSH20 0xFFFFFFFFFFFFFFFFFFFFFFFFFFFFFFFFFFFFFFFF AND PUSH20 0xFFFFFFFFFFFFFFFFFFFFFFFFFFFFFFFFFFFFFFFF AND DUP2 MSTORE PUSH1 0x20 ADD SWAP1 DUP2 MSTORE PUSH1 0x20 ADD PUSH0 KECCAK256 PUSH0 DUP7 DUP2 MSTORE PUSH1 0x20 ADD SWAP1 DUP2 MSTORE PUSH1 0x20 ADD PUSH0 KECCAK256 SWAP1 POP PUSH0 PUSH1 0x2 PUSH0 DUP8 DUP2 MSTORE PUSH1 0x20 ADD SWAP1 DUP2 MSTORE PUSH1 0x20 ADD PUSH0 KECCAK256 SWAP1 POP DUP2 PUSH0 ADD PUSH0 SWAP1 SLOAD SWAP1 PUSH2 0x100 EXP SWAP1 DIV PUSH1 0xFF AND ISZERO DUP1 PUSH2 0x705 JUMPI POP TIMESTAMP DUP3 PUSH1 0x1 ADD SLOAD GT ISZERO JUMPDEST PUSH2 0x744 JUMPI PUSH1 0x40 MLOAD PUSH32 0x8C379A000000000000000000000000000000000000000000000000000000000 DUP2 MSTORE PUSH1 0x4 ADD PUSH2 0x73B SWAP1 PUSH2 0x41A7 JUMP JUMPDEST PUSH1 0x40 MLOAD DUP1 SWAP2 SUB SWAP1 REVERT JUMPDEST PUSH0 DUP2 PUSH0 ADD DUP4 PUSH1 0x3 ADD PUSH0 SWAP1 SLOAD SWAP1 PUSH2 0x100 EXP SWAP1 DIV PUSH1 0xFF AND PUSH1 0x2 DUP2 GT ISZERO PUSH2 0x76B JUMPI PUSH2 0x76A PUSH2 0x3B8B JUMP JUMPDEST JUMPDEST PUSH1 0xFF AND PUSH1 0x3 DUP2 LT PUSH2 0x77F JUMPI PUSH2 0x77E PUSH2 0x41C5 JUMP JUMPDEST JUMPDEST ADD SLOAD SWAP1 POP PUSH2 0x78C DUP2 PUSH2 0x2F9C JUMP JUMPDEST PUSH1 0x1 DUP4 PUSH0 ADD PUSH0 PUSH2 0x100 EXP DUP2 SLOAD DUP2 PUSH1 0xFF MUL NOT AND SWAP1 DUP4 ISZERO ISZERO MUL OR SWAP1 SSTORE POP DUP2 PUSH1 0x3 ADD SLOAD TIMESTAMP PUSH2 0x7B7 SWAP2 SWAP1 PUSH2 0x421F JUMP JUMPDEST DUP4 PUSH1 0x1 ADD DUP2 SWAP1 SSTORE POP DUP7 CALLER PUSH20 0xFFFFFFFFFFFFFFFFFFFFFFFFFFFFFFFFFFFFFFFF AND PUSH32 0xD8B6E32BE5E37F4AE08B6EE49EB9806A8366938A4283D948DC4B9B67F4503F30 DUP6 PUSH1 0x1 ADD SLOAD PUSH1 0x40 MLOAD PUSH2 0x80A SWAP2 SWAP1 PUSH2 0x36C1 JUMP JUMPDEST PUSH1 0x40 MLOAD DUP1 SWAP2 SUB SWAP1 LOG3 DUP7 CALLER PUSH20 0xFFFFFFFFFFFFFFFFFFFFFFFFFFFFFFFFFFFFFFFF AND PUSH32 0x3BB1A174937E3DD09A870C604DBB901E99F3984246EF19A28D06025FC7B36B7 DUP4 DUP7 PUSH1 0x3 ADD PUSH0 SWAP1 SLOAD SWAP1 PUSH2 0x100 EXP SWAP1 DIV PUSH1 0xFF AND PUSH1 0x40 MLOAD PUSH2 0x86B SWAP3 SWAP2 SWAP1 PUSH2 0x4261 JUMP JUMPDEST PUSH1 0x40 MLOAD DUP1 SWAP2 SUB SWAP1 LOG3 POP POP POP PUSH2 0x87E PUSH2 0x323E JUMP JUMPDEST POP POP POP POP JUMP JUMPDEST CALLER PUSH20 0xFFFFFFFFFFFFFFFFFFFFFFFFFFFFFFFFFFFFFFFF AND PUSH2 0x8A3 PUSH2 0x18E3 JUMP JUMPDEST PUSH20 0xFFFFFFFFFFFFFFFFFFFFFFFFFFFFFFFFFFFFFFFF AND EQ PUSH2 0x8F0 JUMPI PUSH1 0x40 MLOAD PUSH32 0x7BFA4B9F00000000000000000000000000000000000000000000000000000000 DUP2 MSTORE PUSH1 0x4 ADD PUSH1 0x40 MLOAD DUP1 SWAP2 SUB SWAP1 REVERT JUMPDEST DUP4 PUSH0 DUP2 EQ DUP1 PUSH2 0x901 JUMPI POP PUSH1 0x7 SLOAD DUP2 LT ISZERO JUMPDEST ISZERO PUSH2 0x938 JUMPI PUSH1 0x40 MLOAD PUSH32 0xC93477D000000000000000000000000000000000000000000000000000000000 DUP2 MSTORE PUSH1 0x4 ADD PUSH1 0x40 MLOAD DUP1 SWAP2 SUB SWAP1 REVERT JUMPDEST PUSH1 0x2 PUSH0 DUP3 DUP2 MSTORE PUSH1 0x20 ADD SWAP1 DUP2 MSTORE PUSH1 0x20 ADD PUSH0 KECCAK256 PUSH1 0x8 ADD PUSH0 SWAP1 SLOAD SWAP1 PUSH2 0x100 EXP SWAP1 DIV PUSH1 0xFF AND PUSH2 0x98F JUMPI PUSH1 0x40 MLOAD PUSH32 0xF0C1BC800000000000000000000000000000000000000000000000000000000 DUP2 MSTORE PUSH1 0x4 ADD PUSH1 0x40 MLOAD DUP1 SWAP2 SUB SWAP1 REVERT JUMPDEST PUSH0 PUSH1 0x2 PUSH0 DUP8 DUP2 MSTORE PUSH1 0x20 ADD SWAP1 DUP2 MSTORE PUSH1 0x20 ADD PUSH0 KECCAK256 SWAP1 POP PUSH20 0x0 PUSH4 0xEEF2A370 DUP7 DUP7 DUP7 PUSH1 0x40 MLOAD DUP5 PUSH4 0xFFFFFFFF AND PUSH1 0xE0 SHL DUP2 MSTORE PUSH1 0x4 ADD PUSH2 0x9DE SWAP4 SWAP3 SWAP2 SWAP1 PUSH2 0x431D JUMP JUMPDEST PUSH0 PUSH1 0x40 MLOAD DUP1 DUP4 SUB DUP2 DUP7 DUP1 EXTCODESIZE ISZERO DUP1 ISZERO PUSH2 0x9F4 JUMPI PUSH0 PUSH0 REVERT JUMPDEST POP GAS DELEGATECALL ISZERO DUP1 ISZERO PUSH2 0xA06 JUMPI RETURNDATASIZE PUSH0 PUSH0 RETURNDATACOPY RETURNDATASIZE PUSH0 REVERT JUMPDEST POP POP POP POP PUSH0 PUSH0 SWAP1 POP JUMPDEST PUSH1 0x3 DUP2 PUSH1 0xFF AND LT ISZERO PUSH2 0xAAB JUMPI PUSH1 0x4 PUSH0 DUP9 DUP2 MSTORE PUSH1 0x20 ADD SWAP1 DUP2 MSTORE PUSH1 0x20 ADD PUSH0 KECCAK256 PUSH0 DUP3 PUSH1 0xFF AND PUSH1 0xFF AND DUP2 MSTORE PUSH1 0x20 ADD SWAP1 DUP2 MSTORE PUSH1 0x20 ADD PUSH0 KECCAK256 SLOAD DUP5 DUP3 PUSH1 0xFF AND PUSH1 0x3 DUP2 LT PUSH2 0xA58 JUMPI PUSH2 0xA57 PUSH2 0x41C5 JUMP JUMPDEST JUMPDEST PUSH1 0x20 MUL ADD MLOAD LT ISZERO PUSH2 0xA9E JUMPI PUSH1 0x40 MLOAD PUSH32 0x8C379A000000000000000000000000000000000000000000000000000000000 DUP2 MSTORE PUSH1 0x4 ADD PUSH2 0xA95 SWAP1 PUSH2 0x439C JUMP JUMPDEST PUSH1 0x40 MLOAD DUP1 SWAP2 SUB SWAP1 REVERT JUMPDEST DUP1 DUP1 PUSH1 0x1 ADD SWAP2 POP POP PUSH2 0xA0F JUMP JUMPDEST POP DUP5 DUP2 PUSH0 ADD SWAP1 PUSH1 0x3 PUSH2 0xABE SWAP3 SWAP2 SWAP1 PUSH2 0x3397 JUMP JUMPDEST POP DUP4 DUP2 PUSH1 0x3 ADD DUP2 SWAP1 SSTORE POP DUP3 DUP2 PUSH1 0x4 ADD SWAP1 PUSH1 0x3 PUSH2 0xADB SWAP3 SWAP2 SWAP1 PUSH2 0x3397 JUMP JUMPDEST POP DUP6 PUSH32 0x56704063B600B5A2ECC395ADD93AE829F54B1D03238A602F853CEBADE75F625C DUP7 DUP7 DUP7 PUSH1 0x40 MLOAD PUSH2 0xB10 SWAP4 SWAP3 SWAP2 SWAP1 PUSH2 0x441A JUMP JUMPDEST PUSH1 0x40 MLOAD DUP1 SWAP2 SUB SWAP1 LOG2 POP POP POP POP POP POP JUMP JUMPDEST CALLER PUSH20 0xFFFFFFFFFFFFFFFFFFFFFFFFFFFFFFFFFFFFFFFF AND PUSH2 0xB3F PUSH2 0x18E3 JUMP JUMPDEST PUSH20 0xFFFFFFFFFFFFFFFFFFFFFFFFFFFFFFFFFFFFFFFF AND EQ PUSH2 0xB8C JUMPI PUSH1 0x40 MLOAD PUSH32 0x7BFA4B9F00000000000000000000000000000000000000000000000000000000 DUP2 MSTORE PUSH1 0x4 ADD PUSH1 0x40 MLOAD DUP1 SWAP2 SUB SWAP1 REVERT JUMPDEST PUSH0 PUSH1 0x9 PUSH0 SWAP1 SLOAD SWAP1 PUSH2 0x100 EXP SWAP1 DIV PUSH20 0xFFFFFFFFFFFFFFFFFFFFFFFFFFFFFFFFFFFFFFFF AND PUSH20 0xFFFFFFFFFFFFFFFFFFFFFFFFFFFFFFFFFFFFFFFF AND PUSH4 0x70A08231 ADDRESS PUSH1 0x40 MLOAD DUP3 PUSH4 0xFFFFFFFF AND PUSH1 0xE0 SHL DUP2 MSTORE PUSH1 0x4 ADD PUSH2 0xBE7 SWAP2 SWAP1 PUSH2 0x3B21 JUMP JUMPDEST PUSH1 0x20 PUSH1 0x40 MLOAD DUP1 DUP4 SUB DUP2 DUP7 GAS STATICCALL ISZERO DUP1 ISZERO PUSH2 0xC02 JUMPI RETURNDATASIZE PUSH0 PUSH0 RETURNDATACOPY RETURNDATASIZE PUSH0 REVERT JUMPDEST POP POP POP POP PUSH1 0x40 MLOAD RETURNDATASIZE PUSH1 0x1F NOT PUSH1 0x1F DUP3 ADD AND DUP3 ADD DUP1 PUSH1 0x40 MSTORE POP DUP2 ADD SWAP1 PUSH2 0xC26 SWAP2 SWAP1 PUSH2 0x4463 JUMP JUMPDEST SWAP1 POP PUSH0 DUP2 GT PUSH2 0xC6A JUMPI PUSH1 0x40 MLOAD PUSH32 0x8C379A000000000000000000000000000000000000000000000000000000000 DUP2 MSTORE PUSH1 0x4 ADD PUSH2 0xC61 SWAP1 PUSH2 0x44D8 JUMP JUMPDEST PUSH1 0x40 MLOAD DUP1 SWAP2 SUB SWAP1 REVERT JUMPDEST PUSH1 0x9 PUSH0 SWAP1 SLOAD SWAP1 PUSH2 0x100 EXP SWAP1 DIV PUSH20 0xFFFFFFFFFFFFFFFFFFFFFFFFFFFFFFFFFFFFFFFF AND PUSH20 0xFFFFFFFFFFFFFFFFFFFFFFFFFFFFFFFFFFFFFFFF AND PUSH4 0xA9059CBB PUSH1 0xA PUSH0 SWAP1 SLOAD SWAP1 PUSH2 0x100 EXP SWAP1 DIV PUSH20 0xFFFFFFFFFFFFFFFFFFFFFFFFFFFFFFFFFFFFFFFF AND DUP4 PUSH1 0x40 MLOAD DUP4 PUSH4 0xFFFFFFFF AND PUSH1 0xE0 SHL DUP2 MSTORE PUSH1 0x4 ADD PUSH2 0xCE7 SWAP3 SWAP2 SWAP1 PUSH2 0x44F6 JUMP JUMPDEST PUSH1 0x20 PUSH1 0x40 MLOAD DUP1 DUP4 SUB DUP2 PUSH0 DUP8 GAS CALL ISZERO DUP1 ISZERO PUSH2 0xD03 JUMPI RETURNDATASIZE PUSH0 PUSH0 RETURNDATACOPY RETURNDATASIZE PUSH0 REVERT JUMPDEST POP POP POP POP PUSH1 0x40 MLOAD RETURNDATASIZE PUSH1 0x1F NOT PUSH1 0x1F DUP3 ADD AND DUP3 ADD DUP1 PUSH1 0x40 MSTORE POP DUP2 ADD SWAP1 PUSH2 0xD27 SWAP2 SWAP1 PUSH2 0x4547 JUMP JUMPDEST PUSH2 0xD66 JUMPI PUSH1 0x40 MLOAD PUSH32 0x8C379A000000000000000000000000000000000000000000000000000000000 DUP2 MSTORE PUSH1 0x4 ADD PUSH2 0xD5D SWAP1 PUSH2 0x45BC JUMP JUMPDEST PUSH1 0x40 MLOAD DUP1 SWAP2 SUB SWAP1 REVERT JUMPDEST PUSH1 0xA PUSH0 SWAP1 SLOAD SWAP1 PUSH2 0x100 EXP SWAP1 DIV PUSH20 0xFFFFFFFFFFFFFFFFFFFFFFFFFFFFFFFFFFFFFFFF AND PUSH20 0xFFFFFFFFFFFFFFFFFFFFFFFFFFFFFFFFFFFFFFFF AND PUSH32 0x84511ECC081974F18E7F3E0DCC19DB078B55BBD3852DDD0DD85B3AEBB7BF94C2 DUP3 PUSH1 0x40 MLOAD PUSH2 0xDCD SWAP2 SWAP1 PUSH2 0x36C1 JUMP JUMPDEST PUSH1 0x40 MLOAD DUP1 SWAP2 SUB SWAP1 LOG2 POP JUMP JUMPDEST PUSH1 0x9 PUSH0 SWAP1 SLOAD SWAP1 PUSH2 0x100 EXP SWAP1 DIV PUSH20 0xFFFFFFFFFFFFFFFFFFFFFFFFFFFFFFFFFFFFFFFF AND DUP2 JUMP JUMPDEST PUSH0 PUSH20 0x0 PUSH4 0x846C343D PUSH1 0x1 DUP5 PUSH1 0x7 SLOAD PUSH1 0x40 MLOAD DUP5 PUSH4 0xFFFFFFFF AND PUSH1 0xE0 SHL DUP2 MSTORE PUSH1 0x4 ADD PUSH2 0xE3C SWAP4 SWAP3 SWAP2 SWAP1 PUSH2 0x45F0 JUMP JUMPDEST PUSH1 0x20 PUSH1 0x40 MLOAD DUP1 DUP4 SUB DUP2 DUP7 GAS DELEGATECALL ISZERO DUP1 ISZERO PUSH2 0xE57 JUMPI RETURNDATASIZE PUSH0 PUSH0 RETURNDATACOPY RETURNDATASIZE PUSH0 REVERT JUMPDEST POP POP POP POP PUSH1 0x40 MLOAD RETURNDATASIZE PUSH1 0x1F NOT PUSH1 0x1F DUP3 ADD AND DUP3 ADD DUP1 PUSH1 0x40 MSTORE POP DUP2 ADD SWAP1 PUSH2 0xE7B SWAP2 SWAP1 PUSH2 0x4463 JUMP JUMPDEST SWAP1 POP SWAP2 SWAP1 POP JUMP JUMPDEST PUSH2 0xE8A PUSH2 0x33D7 JUMP JUMPDEST DUP2 PUSH0 DUP2 EQ DUP1 PUSH2 0xE9B JUMPI POP PUSH1 0x7 SLOAD DUP2 LT ISZERO JUMPDEST ISZERO PUSH2 0xED2 JUMPI PUSH1 0x40 MLOAD PUSH32 0xC93477D000000000000000000000000000000000000000000000000000000000 DUP2 MSTORE PUSH1 0x4 ADD PUSH1 0x40 MLOAD DUP1 SWAP2 SUB SWAP1 REVERT JUMPDEST PUSH0 PUSH1 0x2 PUSH0 DUP6 DUP2 MSTORE PUSH1 0x20 ADD SWAP1 DUP2 MSTORE PUSH1 0x20 ADD PUSH0 KECCAK256 SWAP1 POP PUSH2 0xEEE PUSH2 0x33D7 JUMP JUMPDEST PUSH0 PUSH0 SWAP1 POP JUMPDEST PUSH1 0x3 DUP2 PUSH1 0xFF AND LT ISZERO PUSH2 0x1168 JUMPI PUSH1 0x40 MLOAD DUP1 PUSH1 0xA0 ADD PUSH1 0x40 MSTORE DUP1 PUSH0 DUP6 PUSH1 0xA ADD DUP5 PUSH1 0xFF AND PUSH1 0x3 DUP2 LT PUSH2 0xF24 JUMPI PUSH2 0xF23 PUSH2 0x41C5 JUMP JUMPDEST JUMPDEST ADD DUP1 SLOAD PUSH2 0xF30 SWAP1 PUSH2 0x4652 JUMP JUMPDEST SWAP1 POP GT PUSH2 0xFCA JUMPI PUSH20 0x0 PUSH4 0x89747E40 DUP5 PUSH1 0xFF AND PUSH1 0x2 DUP2 GT ISZERO PUSH2 0xF67 JUMPI PUSH2 0xF66 PUSH2 0x3B8B JUMP JUMPDEST JUMPDEST PUSH1 0x40 MLOAD DUP3 PUSH4 0xFFFFFFFF AND PUSH1 0xE0 SHL DUP2 MSTORE PUSH1 0x4 ADD PUSH2 0xF83 SWAP2 SWAP1 PUSH2 0x4691 JUMP JUMPDEST PUSH0 PUSH1 0x40 MLOAD DUP1 DUP4 SUB DUP2 DUP7 GAS DELEGATECALL ISZERO DUP1 ISZERO PUSH2 0xF9D JUMPI RETURNDATASIZE PUSH0 PUSH0 RETURNDATACOPY RETURNDATASIZE PUSH0 REVERT JUMPDEST POP POP POP POP PUSH1 0x40 MLOAD RETURNDATASIZE PUSH0 DUP3 RETURNDATACOPY RETURNDATASIZE PUSH1 0x1F NOT PUSH1 0x1F DUP3 ADD AND DUP3 ADD DUP1 PUSH1 0x40 MSTORE POP DUP2 ADD SWAP1 PUSH2 0xFC5 SWAP2 SWAP1 PUSH2 0x474C JUMP JUMPDEST PUSH2 0x106C JUMP JUMPDEST DUP5 PUSH1 0xA ADD DUP4 PUSH1 0xFF AND PUSH1 0x3 DUP2 LT PUSH2 0xFE3 JUMPI PUSH2 0xFE2 PUSH2 0x41C5 JUMP JUMPDEST JUMPDEST ADD DUP1 SLOAD PUSH2 0xFEF SWAP1 PUSH2 0x4652 JUMP JUMPDEST DUP1 PUSH1 0x1F ADD PUSH1 0x20 DUP1 SWAP2 DIV MUL PUSH1 0x20 ADD PUSH1 0x40 MLOAD SWAP1 DUP2 ADD PUSH1 0x40 MSTORE DUP1 SWAP3 SWAP2 SWAP1 DUP2 DUP2 MSTORE PUSH1 0x20 ADD DUP3 DUP1 SLOAD PUSH2 0x101B SWAP1 PUSH2 0x4652 JUMP JUMPDEST DUP1 ISZERO PUSH2 0x1066 JUMPI DUP1 PUSH1 0x1F LT PUSH2 0x103D JUMPI PUSH2 0x100 DUP1 DUP4 SLOAD DIV MUL DUP4 MSTORE SWAP2 PUSH1 0x20 ADD SWAP2 PUSH2 0x1066 JUMP JUMPDEST DUP3 ADD SWAP2 SWAP1 PUSH0 MSTORE PUSH1 0x20 PUSH0 KECCAK256 SWAP1 JUMPDEST DUP2 SLOAD DUP2 MSTORE SWAP1 PUSH1 0x1 ADD SWAP1 PUSH1 0x20 ADD DUP1 DUP4 GT PUSH2 0x1049 JUMPI DUP3 SWAP1 SUB PUSH1 0x1F AND DUP3 ADD SWAP2 JUMPDEST POP POP POP POP POP JUMPDEST DUP2 MSTORE PUSH1 0x20 ADD DUP5 PUSH0 ADD DUP4 PUSH1 0xFF AND PUSH1 0x3 DUP2 LT PUSH2 0x1089 JUMPI PUSH2 0x1088 PUSH2 0x41C5 JUMP JUMPDEST JUMPDEST ADD SLOAD DUP2 MSTORE PUSH1 0x20 ADD DUP5 PUSH1 0x4 ADD DUP4 PUSH1 0xFF AND PUSH1 0x3 DUP2 LT PUSH2 0x10A9 JUMPI PUSH2 0x10A8 PUSH2 0x41C5 JUMP JUMPDEST JUMPDEST ADD SLOAD DUP2 MSTORE PUSH1 0x20 ADD PUSH1 0x4 PUSH0 DUP10 DUP2 MSTORE PUSH1 0x20 ADD SWAP1 DUP2 MSTORE PUSH1 0x20 ADD PUSH0 KECCAK256 PUSH0 DUP5 PUSH1 0xFF AND PUSH1 0xFF AND DUP2 MSTORE PUSH1 0x20 ADD SWAP1 DUP2 MSTORE PUSH1 0x20 ADD PUSH0 KECCAK256 SLOAD DUP2 MSTORE PUSH1 0x20 ADD DUP5 PUSH1 0x4 ADD DUP4 PUSH1 0xFF AND PUSH1 0x3 DUP2 LT PUSH2 0x10F5 JUMPI PUSH2 0x10F4 PUSH2 0x41C5 JUMP JUMPDEST JUMPDEST ADD SLOAD PUSH1 0x4 PUSH0 DUP11 DUP2 MSTORE PUSH1 0x20 ADD SWAP1 DUP2 MSTORE PUSH1 0x20 ADD PUSH0 KECCAK256 PUSH0 DUP6 PUSH1 0xFF AND PUSH1 0xFF AND DUP2 MSTORE PUSH1 0x20 ADD SWAP1 DUP2 MSTORE PUSH1 0x20 ADD PUSH0 KECCAK256 SLOAD LT DUP1 ISZERO PUSH2 0x1138 JUMPI POP DUP5 PUSH1 0x8 ADD PUSH0 SWAP1 SLOAD SWAP1 PUSH2 0x100 EXP SWAP1 DIV PUSH1 0xFF AND JUMPDEST ISZERO ISZERO DUP2 MSTORE POP DUP3 DUP3 PUSH1 0xFF AND PUSH1 0x3 DUP2 LT PUSH2 0x1153 JUMPI PUSH2 0x1152 PUSH2 0x41C5 JUMP JUMPDEST JUMPDEST PUSH1 0x20 MUL ADD DUP2 SWAP1 MSTORE POP DUP1 DUP1 PUSH1 0x1 ADD SWAP2 POP POP PUSH2 0xEF3 JUMP JUMPDEST POP DUP1 SWAP4 POP POP POP POP SWAP2 SWAP1 POP JUMP JUMPDEST CALLER PUSH20 0xFFFFFFFFFFFFFFFFFFFFFFFFFFFFFFFFFFFFFFFF AND PUSH2 0x1193 PUSH2 0x18E3 JUMP JUMPDEST PUSH20 0xFFFFFFFFFFFFFFFFFFFFFFFFFFFFFFFFFFFFFFFF AND EQ PUSH2 0x11E0 JUMPI PUSH1 0x40 MLOAD PUSH32 0x7BFA4B9F00000000000000000000000000000000000000000000000000000000 DUP2 MSTORE PUSH1 0x4 ADD PUSH1 0x40 MLOAD DUP1 SWAP2 SUB SWAP1 REVERT JUMPDEST DUP1 PUSH0 DUP2 EQ DUP1 PUSH2 0x11F1 JUMPI POP PUSH1 0x7 SLOAD DUP2 LT ISZERO JUMPDEST ISZERO PUSH2 0x1228 JUMPI PUSH1 0x40 MLOAD PUSH32 0xC93477D000000000000000000000000000000000000000000000000000000000 DUP2 MSTORE PUSH1 0x4 ADD PUSH1 0x40 MLOAD DUP1 SWAP2 SUB SWAP1 REVERT JUMPDEST PUSH1 0x2 PUSH0 DUP3 DUP2 MSTORE PUSH1 0x20 ADD SWAP1 DUP2 MSTORE PUSH1 0x20 ADD PUSH0 KECCAK256 PUSH1 0x8 ADD PUSH0 SWAP1 SLOAD SWAP1 PUSH2 0x100 EXP SWAP1 DIV PUSH1 0xFF AND PUSH2 0x127F JUMPI PUSH1 0x40 MLOAD PUSH32 0xF0C1BC800000000000000000000000000000000000000000000000000000000 DUP2 MSTORE PUSH1 0x4 ADD PUSH1 0x40 MLOAD DUP1 SWAP2 SUB SWAP1 REVERT JUMPDEST DUP3 DUP3 PUSH1 0x1 PUSH0 DUP4 PUSH20 0xFFFFFFFFFFFFFFFFFFFFFFFFFFFFFFFFFFFFFFFF AND PUSH20 0xFFFFFFFFFFFFFFFFFFFFFFFFFFFFFFFFFFFFFFFF AND DUP2 MSTORE PUSH1 0x20 ADD SWAP1 DUP2 MSTORE PUSH1 0x20 ADD PUSH0 KECCAK256 PUSH0 DUP3 DUP2 MSTORE PUSH1 0x20 ADD SWAP1 DUP2 MSTORE PUSH1 0x20 ADD PUSH0 KECCAK256 PUSH1 0x3 ADD PUSH1 0x1 SWAP1 SLOAD SWAP1 PUSH2 0x100 EXP SWAP1 DIV PUSH1 0xFF AND PUSH2 0x1314 JUMPI PUSH1 0x40 MLOAD PUSH32 0xE403AE9900000000000000000000000000000000000000000000000000000000 DUP2 MSTORE PUSH1 0x4 ADD PUSH1 0x40 MLOAD DUP1 SWAP2 SUB SWAP1 REVERT JUMPDEST PUSH0 PUSH1 0x1 PUSH0 DUP8 PUSH20 0xFFFFFFFFFFFFFFFFFFFFFFFFFFFFFFFFFFFFFFFF AND PUSH20 0xFFFFFFFFFFFFFFFFFFFFFFFFFFFFFFFFFFFFFFFF AND DUP2 MSTORE PUSH1 0x20 ADD SWAP1 DUP2 MSTORE PUSH1 0x20 ADD PUSH0 KECCAK256 PUSH0 DUP7 DUP2 MSTORE PUSH1 0x20 ADD SWAP1 DUP2 MSTORE PUSH1 0x20 ADD PUSH0 KECCAK256 SWAP1 POP DUP1 PUSH0 ADD PUSH0 SWAP1 SLOAD SWAP1 PUSH2 0x100 EXP SWAP1 DIV PUSH1 0xFF AND PUSH2 0x13B2 JUMPI PUSH1 0x40 MLOAD PUSH32 0x8C379A000000000000000000000000000000000000000000000000000000000 DUP2 MSTORE PUSH1 0x4 ADD PUSH2 0x13A9 SWAP1 PUSH2 0x47DD JUMP JUMPDEST PUSH1 0x40 MLOAD DUP1 SWAP2 SUB SWAP1 REVERT JUMPDEST PUSH0 DUP2 PUSH0 ADD PUSH0 PUSH2 0x100 EXP DUP2 SLOAD DUP2 PUSH1 0xFF MUL NOT AND SWAP1 DUP4 ISZERO ISZERO MUL OR SWAP1 SSTORE POP PUSH0 PUSH1 0x3 PUSH0 DUP9 PUSH20 0xFFFFFFFFFFFFFFFFFFFFFFFFFFFFFFFFFFFFFFFF AND PUSH20 0xFFFFFFFFFFFFFFFFFFFFFFFFFFFFFFFFFFFFFFFF AND DUP2 MSTORE PUSH1 0x20 ADD SWAP1 DUP2 MSTORE PUSH1 0x20 ADD PUSH0 KECCAK256 SLOAD GT ISZERO PUSH2 0x1464 JUMPI PUSH1 0x3 PUSH0 DUP8 PUSH20 0xFFFFFFFFFFFFFFFFFFFFFFFFFFFFFFFFFFFFFFFF AND PUSH20 0xFFFFFFFFFFFFFFFFFFFFFFFFFFFFFFFFFFFFFFFF AND DUP2 MSTORE PUSH1 0x20 ADD SWAP1 DUP2 MSTORE PUSH1 0x20 ADD PUSH0 KECCAK256 PUSH0 DUP2 SLOAD DUP1 SWAP3 SWAP2 SWAP1 PUSH2 0x145E SWAP1 PUSH2 0x47FB JUMP JUMPDEST SWAP2 SWAP1 POP SSTORE POP JUMPDEST PUSH0 PUSH1 0x4 PUSH0 DUP8 DUP2 MSTORE PUSH1 0x20 ADD SWAP1 DUP2 MSTORE PUSH1 0x20 ADD PUSH0 KECCAK256 PUSH0 DUP4 PUSH1 0x3 ADD PUSH0 SWAP1 SLOAD SWAP1 PUSH2 0x100 EXP SWAP1 DIV PUSH1 0xFF AND PUSH1 0x2 DUP2 GT ISZERO PUSH2 0x149A JUMPI PUSH2 0x1499 PUSH2 0x3B8B JUMP JUMPDEST JUMPDEST PUSH1 0xFF AND PUSH1 0xFF AND DUP2 MSTORE PUSH1 0x20 ADD SWAP1 DUP2 MSTORE PUSH1 0x20 ADD PUSH0 KECCAK256 SLOAD GT ISZERO PUSH2 0x1512 JUMPI PUSH1 0x4 PUSH0 DUP7 DUP2 MSTORE PUSH1 0x20 ADD SWAP1 DUP2 MSTORE PUSH1 0x20 ADD PUSH0 KECCAK256 PUSH0 DUP3 PUSH1 0x3 ADD PUSH0 SWAP1 SLOAD SWAP1 PUSH2 0x100 EXP SWAP1 DIV PUSH1 0xFF AND PUSH1 0x2 DUP2 GT ISZERO PUSH2 0x14E9 JUMPI PUSH2 0x14E8 PUSH2 0x3B8B JUMP JUMPDEST JUMPDEST PUSH1 0xFF AND PUSH1 0xFF AND DUP2 MSTORE PUSH1 0x20 ADD SWAP1 DUP2 MSTORE PUSH1 0x20 ADD PUSH0 KECCAK256 PUSH0 DUP2 SLOAD DUP1 SWAP3 SWAP2 SWAP1 PUSH2 0x150C SWAP1 PUSH2 0x47FB JUMP JUMPDEST SWAP2 SWAP1 POP SSTORE POP JUMPDEST DUP5 DUP7 PUSH20 0xFFFFFFFFFFFFFFFFFFFFFFFFFFFFFFFFFFFFFFFF AND PUSH32 0x2CCF6476FECFF0CB345AF8FE3D175368AA0C79D1832183A54268FB4C4146848 PUSH1 0x40 MLOAD PUSH1 0x40 MLOAD DUP1 SWAP2 SUB SWAP1 LOG3 POP POP POP POP POP POP JUMP JUMPDEST PUSH1 0xA PUSH0 SWAP1 SLOAD SWAP1 PUSH2 0x100 EXP SWAP1 DIV PUSH20 0xFFFFFFFFFFFFFFFFFFFFFFFFFFFFFFFFFFFFFFFF AND DUP2 JUMP JUMPDEST CALLER PUSH20 0xFFFFFFFFFFFFFFFFFFFFFFFFFFFFFFFFFFFFFFFF AND PUSH2 0x15A2 PUSH2 0x18E3 JUMP JUMPDEST PUSH20 0xFFFFFFFFFFFFFFFFFFFFFFFFFFFFFFFFFFFFFFFF AND EQ PUSH2 0x15EF JUMPI PUSH1 0x40 MLOAD PUSH32 0x7BFA4B9F00000000000000000000000000000000000000000000000000000000 DUP2 MSTORE PUSH1 0x4 ADD PUSH1 0x40 MLOAD DUP1 SWAP2 SUB SWAP1 REVERT JUMPDEST DUP1 PUSH0 PUSH20 0xFFFFFFFFFFFFFFFFFFFFFFFFFFFFFFFFFFFFFFFF AND DUP2 PUSH20 0xFFFFFFFFFFFFFFFFFFFFFFFFFFFFFFFFFFFFFFFF AND SUB PUSH2 0x1655 JUMPI PUSH1 0x40 MLOAD PUSH32 0xE6C4247B00000000000000000000000000000000000000000000000000000000 DUP2 MSTORE PUSH1 0x4 ADD PUSH1 0x40 MLOAD DUP1 SWAP2 SUB SWAP1 REVERT JUMPDEST PUSH20 0x0 PUSH4 0x16279055 DUP4 PUSH1 0x40 MLOAD DUP3 PUSH4 0xFFFFFFFF AND PUSH1 0xE0 SHL DUP2 MSTORE PUSH1 0x4 ADD PUSH2 0x168C SWAP2 SWAP1 PUSH2 0x4822 JUMP JUMPDEST PUSH1 0x20 PUSH1 0x40 MLOAD DUP1 DUP4 SUB DUP2 DUP7 GAS DELEGATECALL ISZERO DUP1 ISZERO PUSH2 0x16A7 JUMPI RETURNDATASIZE PUSH0 PUSH0 RETURNDATACOPY RETURNDATASIZE PUSH0 REVERT JUMPDEST POP POP POP POP PUSH1 0x40 MLOAD RETURNDATASIZE PUSH1 0x1F NOT PUSH1 0x1F DUP3 ADD AND DUP3 ADD DUP1 PUSH1 0x40 MSTORE POP DUP2 ADD SWAP1 PUSH2 0x16CB SWAP2 SWAP1 PUSH2 0x4547 JUMP JUMPDEST PUSH2 0x170A JUMPI PUSH1 0x40 MLOAD PUSH32 0x8C379A000000000000000000000000000000000000000000000000000000000 DUP2 MSTORE PUSH1 0x4 ADD PUSH2 0x1701 SWAP1 PUSH2 0x4885 JUMP JUMPDEST PUSH1 0x40 MLOAD DUP1 SWAP2 SUB SWAP1 REVERT JUMPDEST PUSH0 PUSH1 0x9 PUSH0 SWAP1 SLOAD SWAP1 PUSH2 0x100 EXP SWAP1 DIV PUSH20 0xFFFFFFFFFFFFFFFFFFFFFFFFFFFFFFFFFFFFFFFF AND SWAP1 POP DUP3 PUSH1 0x9 PUSH0 PUSH2 0x100 EXP DUP2 SLOAD DUP2 PUSH20 0xFFFFFFFFFFFFFFFFFFFFFFFFFFFFFFFFFFFFFFFF MUL NOT AND SWAP1 DUP4 PUSH20 0xFFFFFFFFFFFFFFFFFFFFFFFFFFFFFFFFFFFFFFFF AND MUL OR SWAP1 SSTORE POP PUSH32 0x2BD8C5354233E1142193DF7977BD89F7AD57B724087278BAD86DB1E15FC3033B DUP2 DUP5 PUSH1 0x40 MLOAD PUSH2 0x17A0 SWAP3 SWAP2 SWAP1 PUSH2 0x48A3 JUMP JUMPDEST PUSH1 0x40 MLOAD DUP1 SWAP2 SUB SWAP1 LOG1 POP POP POP JUMP JUMPDEST PUSH0 PUSH1 0x9 PUSH0 SWAP1 SLOAD SWAP1 PUSH2 0x100 EXP SWAP1 DIV PUSH20 0xFFFFFFFFFFFFFFFFFFFFFFFFFFFFFFFFFFFFFFFF AND PUSH20 0xFFFFFFFFFFFFFFFFFFFFFFFFFFFFFFFFFFFFFFFF AND PUSH4 0x70A08231 ADDRESS PUSH1 0x40 MLOAD DUP3 PUSH4 0xFFFFFFFF AND PUSH1 0xE0 SHL DUP2 MSTORE PUSH1 0x4 ADD PUSH2 0x1808 SWAP2 SWAP1 PUSH2 0x3B21 JUMP JUMPDEST PUSH1 0x20 PUSH1 0x40 MLOAD DUP1 DUP4 SUB DUP2 DUP7 GAS STATICCALL ISZERO DUP1 ISZERO PUSH2 0x1823 JUMPI RETURNDATASIZE PUSH0 PUSH0 RETURNDATACOPY RETURNDATASIZE PUSH0 REVERT JUMPDEST POP POP POP POP PUSH1 0x40 MLOAD RETURNDATASIZE PUSH1 0x1F NOT PUSH1 0x1F DUP3 ADD AND DUP3 ADD DUP1 PUSH1 0x40 MSTORE POP DUP2 ADD SWAP1 PUSH2 0x1847 SWAP2 SWAP1 PUSH2 0x4463 JUMP JUMPDEST SWAP1 POP SWAP1 JUMP JUMPDEST PUSH0 PUSH20 0x0 PUSH4 0x7F6DD152 PUSH1 0x1 DUP6 DUP6 PUSH1 0x40 MLOAD DUP5 PUSH4 0xFFFFFFFF AND PUSH1 0xE0 SHL DUP2 MSTORE PUSH1 0x4 ADD PUSH2 0x1889 SWAP4 SWAP3 SWAP2 SWAP1 PUSH2 0x45F0 JUMP JUMPDEST PUSH1 0x20 PUSH1 0x40 MLOAD DUP1 DUP4 SUB DUP2 DUP7 GAS DELEGATECALL ISZERO DUP1 ISZERO PUSH2 0x18A4 JUMPI RETURNDATASIZE PUSH0 PUSH0 RETURNDATACOPY RETURNDATASIZE PUSH0 REVERT JUMPDEST POP POP POP POP PUSH1 0x40 MLOAD RETURNDATASIZE PUSH1 0x1F NOT PUSH1 0x1F DUP3 ADD AND DUP3 ADD DUP1 PUSH1 0x40 MSTORE POP DUP2 ADD SWAP1 PUSH2 0x18C8 SWAP2 SWAP1 PUSH2 0x4547 JUMP JUMPDEST SWAP1 POP SWAP3 SWAP2 POP POP JUMP JUMPDEST PUSH2 0x18D8 PUSH2 0x3248 JUMP JUMPDEST PUSH2 0x18E1 PUSH0 PUSH2 0x32CF JUMP JUMPDEST JUMP JUMPDEST PUSH0 PUSH0 PUSH0 SWAP1 SLOAD SWAP1 PUSH2 0x100 EXP SWAP1 DIV PUSH20 0xFFFFFFFFFFFFFFFFFFFFFFFFFFFFFFFFFFFFFFFF AND SWAP1 POP SWAP1 JUMP JUMPDEST CALLER PUSH20 0xFFFFFFFFFFFFFFFFFFFFFFFFFFFFFFFFFFFFFFFF AND PUSH2 0x1929 PUSH2 0x18E3 JUMP JUMPDEST PUSH20 0xFFFFFFFFFFFFFFFFFFFFFFFFFFFFFFFFFFFFFFFF AND EQ PUSH2 0x1976 JUMPI PUSH1 0x40 MLOAD PUSH32 0x7BFA4B9F00000000000000000000000000000000000000000000000000000000 DUP2 MSTORE PUSH1 0x4 ADD PUSH1 0x40 MLOAD DUP1 SWAP2 SUB SWAP1 REVERT JUMPDEST DUP1 PUSH0 DUP2 EQ DUP1 PUSH2 0x1987 JUMPI POP PUSH1 0x7 SLOAD DUP2 LT ISZERO JUMPDEST ISZERO PUSH2 0x19BE JUMPI PUSH1 0x40 MLOAD PUSH32 0xC93477D000000000000000000000000000000000000000000000000000000000 DUP2 MSTORE PUSH1 0x4 ADD PUSH1 0x40 MLOAD DUP1 SWAP2 SUB SWAP1 REVERT JUMPDEST PUSH1 0x2 PUSH0 DUP3 DUP2 MSTORE PUSH1 0x20 ADD SWAP1 DUP2 MSTORE PUSH1 0x20 ADD PUSH0 KECCAK256 PUSH1 0x8 ADD PUSH0 SWAP1 SLOAD SWAP1 PUSH2 0x100 EXP SWAP1 DIV PUSH1 0xFF AND PUSH2 0x1A15 JUMPI PUSH1 0x40 MLOAD PUSH32 0xF0C1BC800000000000000000000000000000000000000000000000000000000 DUP2 MSTORE PUSH1 0x4 ADD PUSH1 0x40 MLOAD DUP1 SWAP2 SUB SWAP1 REVERT JUMPDEST PUSH0 PUSH1 0x2 PUSH0 DUP5 DUP2 MSTORE PUSH1 0x20 ADD SWAP1 DUP2 MSTORE PUSH1 0x20 ADD PUSH0 KECCAK256 PUSH1 0x8 ADD PUSH0 PUSH2 0x100 EXP DUP2 SLOAD DUP2 PUSH1 0xFF MUL NOT AND SWAP1 DUP4 ISZERO ISZERO MUL OR SWAP1 SSTORE POP DUP2 PUSH32 0x9BEC5B77A290657EDEFC9DEFA075C60A874E90F7CC9496853CA9962D58A4FFDD PUSH1 0x40 MLOAD PUSH1 0x40 MLOAD DUP1 SWAP2 SUB SWAP1 LOG2 POP POP JUMP JUMPDEST PUSH1 0x60 DUP2 PUSH0 PUSH20 0xFFFFFFFFFFFFFFFFFFFFFFFFFFFFFFFFFFFFFFFF AND DUP2 PUSH20 0xFFFFFFFFFFFFFFFFFFFFFFFFFFFFFFFFFFFFFFFF AND SUB PUSH2 0x1AD9 JUMPI PUSH1 0x40 MLOAD PUSH32 0xE6C4247B00000000000000000000000000000000000000000000000000000000 DUP2 MSTORE PUSH1 0x4 ADD PUSH1 0x40 MLOAD DUP1 SWAP2 SUB SWAP1 REVERT JUMPDEST PUSH0 PUSH0 SWAP1 POP PUSH0 PUSH1 0x1 SWAP1 POP JUMPDEST PUSH1 0x7 SLOAD DUP2 LT ISZERO PUSH2 0x1B6B JUMPI PUSH1 0x1 PUSH0 DUP7 PUSH20 0xFFFFFFFFFFFFFFFFFFFFFFFFFFFFFFFFFFFFFFFF AND PUSH20 0xFFFFFFFFFFFFFFFFFFFFFFFFFFFFFFFFFFFFFFFF AND DUP2 MSTORE PUSH1 0x20 ADD SWAP1 DUP2 MSTORE PUSH1 0x20 ADD PUSH0 KECCAK256 PUSH0 DUP3 DUP2 MSTORE PUSH1 0x20 ADD SWAP1 DUP2 MSTORE PUSH1 0x20 ADD PUSH0 KECCAK256 PUSH1 0x3 ADD PUSH1 0x1 SWAP1 SLOAD SWAP1 PUSH2 0x100 EXP SWAP1 DIV PUSH1 0xFF AND ISZERO PUSH2 0x1B5E JUMPI DUP2 DUP1 PUSH2 0x1B5A SWAP1 PUSH2 0x48CA JUMP JUMPDEST SWAP3 POP POP JUMPDEST DUP1 DUP1 PUSH1 0x1 ADD SWAP2 POP POP PUSH2 0x1AE3 JUMP JUMPDEST POP PUSH0 DUP2 PUSH8 0xFFFFFFFFFFFFFFFF DUP2 GT ISZERO PUSH2 0x1B87 JUMPI PUSH2 0x1B86 PUSH2 0x3719 JUMP JUMPDEST JUMPDEST PUSH1 0x40 MLOAD SWAP1 DUP1 DUP3 MSTORE DUP1 PUSH1 0x20 MUL PUSH1 0x20 ADD DUP3 ADD PUSH1 0x40 MSTORE DUP1 ISZERO PUSH2 0x1BC0 JUMPI DUP2 PUSH1 0x20 ADD JUMPDEST PUSH2 0x1BAD PUSH2 0x3404 JUMP JUMPDEST DUP2 MSTORE PUSH1 0x20 ADD SWAP1 PUSH1 0x1 SWAP1 SUB SWAP1 DUP2 PUSH2 0x1BA5 JUMPI SWAP1 POP JUMPDEST POP SWAP1 POP PUSH0 PUSH0 SWAP1 POP PUSH0 PUSH1 0x1 SWAP1 POP JUMPDEST PUSH1 0x7 SLOAD DUP2 LT ISZERO PUSH2 0x1D3E JUMPI PUSH1 0x1 PUSH0 DUP9 PUSH20 0xFFFFFFFFFFFFFFFFFFFFFFFFFFFFFFFFFFFFFFFF AND PUSH20 0xFFFFFFFFFFFFFFFFFFFFFFFFFFFFFFFFFFFFFFFF AND DUP2 MSTORE PUSH1 0x20 ADD SWAP1 DUP2 MSTORE PUSH1 0x20 ADD PUSH0 KECCAK256 PUSH0 DUP3 DUP2 MSTORE PUSH1 0x20 ADD SWAP1 DUP2 MSTORE PUSH1 0x20 ADD PUSH0 KECCAK256 PUSH1 0x3 ADD PUSH1 0x1 SWAP1 SLOAD SWAP1 PUSH2 0x100 EXP SWAP1 DIV PUSH1 0xFF AND ISZERO PUSH2 0x1D31 JUMPI PUSH0 PUSH1 0x1 PUSH0 DUP10 PUSH20 0xFFFFFFFFFFFFFFFFFFFFFFFFFFFFFFFFFFFFFFFF AND PUSH20 0xFFFFFFFFFFFFFFFFFFFFFFFFFFFFFFFFFFFFFFFF AND DUP2 MSTORE PUSH1 0x20 ADD SWAP1 DUP2 MSTORE PUSH1 0x20 ADD PUSH0 KECCAK256 PUSH0 DUP4 DUP2 MSTORE PUSH1 0x20 ADD SWAP1 DUP2 MSTORE PUSH1 0x20 ADD PUSH0 KECCAK256 SWAP1 POP PUSH1 0x40 MLOAD DUP1 PUSH1 0xC0 ADD PUSH1 0x40 MSTORE DUP1 DUP4 DUP2 MSTORE PUSH1 0x20 ADD DUP3 PUSH1 0x3 ADD PUSH0 SWAP1 SLOAD SWAP1 PUSH2 0x100 EXP SWAP1 DIV PUSH1 0xFF AND PUSH1 0x2 DUP2 GT ISZERO PUSH2 0x1CBC JUMPI PUSH2 0x1CBB PUSH2 0x3B8B JUMP JUMPDEST JUMPDEST DUP2 MSTORE PUSH1 0x20 ADD DUP3 PUSH1 0x1 ADD SLOAD DUP2 MSTORE PUSH1 0x20 ADD DUP3 PUSH0 ADD PUSH0 SWAP1 SLOAD SWAP1 PUSH2 0x100 EXP SWAP1 DIV PUSH1 0xFF AND ISZERO ISZERO DUP2 MSTORE PUSH1 0x20 ADD DUP3 PUSH1 0x3 ADD PUSH1 0x1 SWAP1 SLOAD SWAP1 PUSH2 0x100 EXP SWAP1 DIV PUSH1 0xFF AND ISZERO ISZERO DUP2 MSTORE PUSH1 0x20 ADD DUP3 PUSH1 0x4 ADD SLOAD DUP2 MSTORE POP DUP5 DUP5 DUP2 MLOAD DUP2 LT PUSH2 0x1D16 JUMPI PUSH2 0x1D15 PUSH2 0x41C5 JUMP JUMPDEST JUMPDEST PUSH1 0x20 MUL PUSH1 0x20 ADD ADD DUP2 SWAP1 MSTORE POP DUP3 DUP1 PUSH2 0x1D2C SWAP1 PUSH2 0x48CA JUMP JUMPDEST SWAP4 POP POP POP JUMPDEST DUP1 DUP1 PUSH1 0x1 ADD SWAP2 POP POP PUSH2 0x1BCD JUMP JUMPDEST POP DUP2 SWAP5 POP POP POP POP POP SWAP2 SWAP1 POP JUMP JUMPDEST CALLER PUSH20 0xFFFFFFFFFFFFFFFFFFFFFFFFFFFFFFFFFFFFFFFF AND PUSH2 0x1D6A PUSH2 0x18E3 JUMP JUMPDEST PUSH20 0xFFFFFFFFFFFFFFFFFFFFFFFFFFFFFFFFFFFFFFFF AND EQ PUSH2 0x1DB7 JUMPI PUSH1 0x40 MLOAD PUSH32 0x7BFA4B9F00000000000000000000000000000000000000000000000000000000 DUP2 MSTORE PUSH1 0x4 ADD PUSH1 0x40 MLOAD DUP1 SWAP2 SUB SWAP1 REVERT JUMPDEST PUSH0 PUSH1 0x6 PUSH0 DUP4 PUSH20 0xFFFFFFFFFFFFFFFFFFFFFFFFFFFFFFFFFFFFFFFF AND PUSH20 0xFFFFFFFFFFFFFFFFFFFFFFFFFFFFFFFFFFFFFFFF AND DUP2 MSTORE PUSH1 0x20 ADD SWAP1 DUP2 MSTORE PUSH1 0x20 ADD PUSH0 KECCAK256 PUSH0 PUSH2 0x100 EXP DUP2 SLOAD DUP2 PUSH1 0xFF MUL NOT AND SWAP1 DUP4 ISZERO ISZERO MUL OR SWAP1 SSTORE POP DUP1 PUSH20 0xFFFFFFFFFFFFFFFFFFFFFFFFFFFFFFFFFFFFFFFF AND PUSH32 0x4F07D2D5AE0A35DEEEC77449A9D22EC841065B2ED63ADBEDD9157931D74962E8 PUSH1 0x40 MLOAD PUSH1 0x40 MLOAD DUP1 SWAP2 SUB SWAP1 LOG2 POP JUMP JUMPDEST DUP3 DUP3 PUSH1 0x1 PUSH0 DUP4 PUSH20 0xFFFFFFFFFFFFFFFFFFFFFFFFFFFFFFFFFFFFFFFF AND PUSH20 0xFFFFFFFFFFFFFFFFFFFFFFFFFFFFFFFFFFFFFFFF AND DUP2 MSTORE PUSH1 0x20 ADD SWAP1 DUP2 MSTORE PUSH1 0x20 ADD PUSH0 KECCAK256 PUSH0 DUP3 DUP2 MSTORE PUSH1 0x20 ADD SWAP1 DUP2 MSTORE PUSH1 0x20 ADD PUSH0 KECCAK256 PUSH1 0x3 ADD PUSH1 0x1 SWAP1 SLOAD SWAP1 PUSH2 0x100 EXP SWAP1 DIV PUSH1 0xFF AND PUSH2 0x1EE6 JUMPI PUSH1 0x40 MLOAD PUSH32 0xE403AE9900000000000000000000000000000000000000000000000000000000 DUP2 MSTORE PUSH1 0x4 ADD PUSH1 0x40 MLOAD DUP1 SWAP2 SUB SWAP1 REVERT JUMPDEST DUP4 PUSH0 DUP2 EQ DUP1 PUSH2 0x1EF7 JUMPI POP PUSH1 0x7 SLOAD DUP2 LT ISZERO JUMPDEST ISZERO PUSH2 0x1F2E JUMPI PUSH1 0x40 MLOAD PUSH32 0xC93477D000000000000000000000000000000000000000000000000000000000 DUP2 MSTORE PUSH1 0x4 ADD PUSH1 0x40 MLOAD DUP1 SWAP2 SUB SWAP1 REVERT JUMPDEST PUSH1 0x2 PUSH0 DUP3 DUP2 MSTORE PUSH1 0x20 ADD SWAP1 DUP2 MSTORE PUSH1 0x20 ADD PUSH0 KECCAK256 PUSH1 0x8 ADD PUSH0 SWAP1 SLOAD SWAP1 PUSH2 0x100 EXP SWAP1 DIV PUSH1 0xFF AND PUSH2 0x1F85 JUMPI PUSH1 0x40 MLOAD PUSH32 0xF0C1BC800000000000000000000000000000000000000000000000000000000 DUP2 MSTORE PUSH1 0x4 ADD PUSH1 0x40 MLOAD DUP1 SWAP2 SUB SWAP1 REVERT JUMPDEST CALLER PUSH20 0xFFFFFFFFFFFFFFFFFFFFFFFFFFFFFFFFFFFFFFFF AND PUSH2 0x1FA4 PUSH2 0x18E3 JUMP JUMPDEST PUSH20 0xFFFFFFFFFFFFFFFFFFFFFFFFFFFFFFFFFFFFFFFF AND EQ PUSH2 0x1FF1 JUMPI PUSH1 0x40 MLOAD PUSH32 0x7BFA4B9F00000000000000000000000000000000000000000000000000000000 DUP2 MSTORE PUSH1 0x4 ADD PUSH1 0x40 MLOAD DUP1 SWAP2 SUB SWAP1 REVERT JUMPDEST PUSH0 PUSH1 0x1 PUSH0 DUP9 PUSH20 0xFFFFFFFFFFFFFFFFFFFFFFFFFFFFFFFFFFFFFFFF AND PUSH20 0xFFFFFFFFFFFFFFFFFFFFFFFFFFFFFFFFFFFFFFFF AND DUP2 MSTORE PUSH1 0x20 ADD SWAP1 DUP2 MSTORE PUSH1 0x20 ADD PUSH0 KECCAK256 PUSH0 DUP8 DUP2 MSTORE PUSH1 0x20 ADD SWAP1 DUP2 MSTORE PUSH1 0x20 ADD PUSH0 KECCAK256 SWAP1 POP DUP1 PUSH0 ADD PUSH0 SWAP1 SLOAD SWAP1 PUSH2 0x100 EXP SWAP1 DIV PUSH1 0xFF AND PUSH2 0x208F JUMPI PUSH1 0x40 MLOAD PUSH32 0x8C379A000000000000000000000000000000000000000000000000000000000 DUP2 MSTORE PUSH1 0x4 ADD PUSH2 0x2086 SWAP1 PUSH2 0x495B JUMP JUMPDEST PUSH1 0x40 MLOAD DUP1 SWAP2 SUB SWAP1 REVERT JUMPDEST PUSH0 DUP6 GT DUP1 ISZERO PUSH2 0x20A2 JUMPI POP PUSH4 0x1E13380 DUP6 GT ISZERO JUMPDEST PUSH2 0x20E1 JUMPI PUSH1 0x40 MLOAD PUSH32 0x8C379A000000000000000000000000000000000000000000000000000000000 DUP2 MSTORE PUSH1 0x4 ADD PUSH2 0x20D8 SWAP1 PUSH2 0x49C3 JUMP JUMPDEST PUSH1 0x40 MLOAD DUP1 SWAP2 SUB SWAP1 REVERT JUMPDEST TIMESTAMP DUP2 PUSH1 0x1 ADD SLOAD GT PUSH2 0x20FD JUMPI DUP5 TIMESTAMP PUSH2 0x20F8 SWAP2 SWAP1 PUSH2 0x421F JUMP JUMPDEST PUSH2 0x210E JUMP JUMPDEST DUP5 DUP2 PUSH1 0x1 ADD SLOAD PUSH2 0x210D SWAP2 SWAP1 PUSH2 0x421F JUMP JUMPDEST JUMPDEST DUP2 PUSH1 0x1 ADD DUP2 SWAP1 SSTORE POP DUP6 DUP8 PUSH20 0xFFFFFFFFFFFFFFFFFFFFFFFFFFFFFFFFFFFFFFFF AND PUSH32 0xFCA2DE66FB7407AA1557341C6186809AB70BC90A7A21116FD7D30252240178C DUP4 PUSH1 0x1 ADD SLOAD PUSH1 0x40 MLOAD PUSH2 0x2161 SWAP2 SWAP1 PUSH2 0x36C1 JUMP JUMPDEST PUSH1 0x40 MLOAD DUP1 SWAP2 SUB SWAP1 LOG3 POP POP POP POP POP POP POP JUMP JUMPDEST CALLER PUSH20 0xFFFFFFFFFFFFFFFFFFFFFFFFFFFFFFFFFFFFFFFF AND PUSH2 0x2191 PUSH2 0x18E3 JUMP JUMPDEST PUSH20 0xFFFFFFFFFFFFFFFFFFFFFFFFFFFFFFFFFFFFFFFF AND EQ PUSH2 0x21DE JUMPI PUSH1 0x40 MLOAD PUSH32 0x7BFA4B9F00000000000000000000000000000000000000000000000000000000 DUP2 MSTORE PUSH1 0x4 ADD PUSH1 0x40 MLOAD DUP1 SWAP2 SUB SWAP1 REVERT JUMPDEST DUP1 PUSH0 PUSH20 0xFFFFFFFFFFFFFFFFFFFFFFFFFFFFFFFFFFFFFFFF AND DUP2 PUSH20 0xFFFFFFFFFFFFFFFFFFFFFFFFFFFFFFFFFFFFFFFF AND SUB PUSH2 0x2244 JUMPI PUSH1 0x40 MLOAD PUSH32 0xE6C4247B00000000000000000000000000000000000000000000000000000000 DUP2 MSTORE PUSH1 0x4 ADD PUSH1 0x40 MLOAD DUP1 SWAP2 SUB SWAP1 REVERT JUMPDEST PUSH1 0x1 PUSH1 0x6 PUSH0 DUP5 PUSH20 0xFFFFFFFFFFFFFFFFFFFFFFFFFFFFFFFFFFFFFFFF AND PUSH20 0xFFFFFFFFFFFFFFFFFFFFFFFFFFFFFFFFFFFFFFFF AND DUP2 MSTORE PUSH1 0x20 ADD SWAP1 DUP2 MSTORE PUSH1 0x20 ADD PUSH0 KECCAK256 PUSH0 PUSH2 0x100 EXP DUP2 SLOAD DUP2 PUSH1 0xFF MUL NOT AND SWAP1 DUP4 ISZERO ISZERO MUL OR SWAP1 SSTORE POP DUP2 PUSH20 0xFFFFFFFFFFFFFFFFFFFFFFFFFFFFFFFFFFFFFFFF AND PUSH32 0x13292254A2AA989EEC9806D76A9BFA7BB98C85295B95D7D57A59F9E18D17A65B PUSH1 0x40 MLOAD PUSH1 0x40 MLOAD DUP1 SWAP2 SUB SWAP1 LOG2 POP POP JUMP JUMPDEST CALLER PUSH20 0xFFFFFFFFFFFFFFFFFFFFFFFFFFFFFFFFFFFFFFFF AND PUSH2 0x22FF PUSH2 0x18E3 JUMP JUMPDEST PUSH20 0xFFFFFFFFFFFFFFFFFFFFFFFFFFFFFFFFFFFFFFFF AND EQ PUSH2 0x234C JUMPI PUSH1 0x40 MLOAD PUSH32 0x7BFA4B9F00000000000000000000000000000000000000000000000000000000 DUP2 MSTORE PUSH1 0x4 ADD PUSH1 0x40 MLOAD DUP1 SWAP2 SUB SWAP1 REVERT JUMPDEST PUSH20 0x0 PUSH4 0xEEF2A370 DUP8 DUP8 DUP8 PUSH1 0x40 MLOAD DUP5 PUSH4 0xFFFFFFFF AND PUSH1 0xE0 SHL DUP2 MSTORE PUSH1 0x4 ADD PUSH2 0x2387 SWAP4 SWAP3 SWAP2 SWAP1 PUSH2 0x431D JUMP JUMPDEST PUSH0 PUSH1 0x40 MLOAD DUP1 DUP4 SUB DUP2 DUP7 DUP1 EXTCODESIZE ISZERO DUP1 ISZERO PUSH2 0x239D JUMPI PUSH0 PUSH0 REVERT JUMPDEST POP GAS DELEGATECALL ISZERO DUP1 ISZERO PUSH2 0x23AF JUMPI RETURNDATASIZE PUSH0 PUSH0 RETURNDATACOPY RETURNDATASIZE PUSH0 REVERT JUMPDEST POP POP POP POP PUSH20 0x0 PUSH4 0xC934FDFC DUP5 DUP5 PUSH1 0x40 MLOAD DUP4 PUSH4 0xFFFFFFFF AND PUSH1 0xE0 SHL DUP2 MSTORE PUSH1 0x4 ADD PUSH2 0x23EC SWAP3 SWAP2 SWAP1 PUSH2 0x4A2B JUMP JUMPDEST PUSH1 0x20 PUSH1 0x40 MLOAD DUP1 DUP4 SUB DUP2 DUP7 GAS DELEGATECALL ISZERO DUP1 ISZERO PUSH2 0x2407 JUMPI RETURNDATASIZE PUSH0 PUSH0 RETURNDATACOPY RETURNDATASIZE PUSH0 REVERT JUMPDEST POP POP POP POP PUSH1 0x40 MLOAD RETURNDATASIZE PUSH1 0x1F NOT PUSH1 0x1F DUP3 ADD AND DUP3 ADD DUP1 PUSH1 0x40 MSTORE POP DUP2 ADD SWAP1 PUSH2 0x242B SWAP2 SWAP1 PUSH2 0x4547 JUMP JUMPDEST PUSH2 0x246A JUMPI PUSH1 0x40 MLOAD PUSH32 0x8C379A000000000000000000000000000000000000000000000000000000000 DUP2 MSTORE PUSH1 0x4 ADD PUSH2 0x2461 SWAP1 PUSH2 0x4A97 JUMP JUMPDEST PUSH1 0x40 MLOAD DUP1 SWAP2 SUB SWAP1 REVERT JUMPDEST PUSH0 DUP9 DUP9 SWAP1 POP GT PUSH2 0x24AF JUMPI PUSH1 0x40 MLOAD PUSH32 0x8C379A000000000000000000000000000000000000000000000000000000000 DUP2 MSTORE PUSH1 0x4 ADD PUSH2 0x24A6 SWAP1 PUSH2 0x4AFF JUMP JUMPDEST PUSH1 0x40 MLOAD DUP1 SWAP2 SUB SWAP1 REVERT JUMPDEST PUSH1 0x40 MLOAD DUP1 PUSH1 0xE0 ADD PUSH1 0x40 MSTORE DUP1 DUP8 DUP2 MSTORE PUSH1 0x20 ADD DUP7 DUP2 MSTORE PUSH1 0x20 ADD DUP6 DUP2 MSTORE PUSH1 0x20 ADD DUP5 DUP5 DUP1 DUP1 PUSH1 0x1F ADD PUSH1 0x20 DUP1 SWAP2 DIV MUL PUSH1 0x20 ADD PUSH1 0x40 MLOAD SWAP1 DUP2 ADD PUSH1 0x40 MSTORE DUP1 SWAP4 SWAP3 SWAP2 SWAP1 DUP2 DUP2 MSTORE PUSH1 0x20 ADD DUP4 DUP4 DUP1 DUP3 DUP5 CALLDATACOPY PUSH0 DUP2 DUP5 ADD MSTORE PUSH1 0x1F NOT PUSH1 0x1F DUP3 ADD AND SWAP1 POP DUP1 DUP4 ADD SWAP3 POP POP POP POP POP POP POP DUP2 MSTORE PUSH1 0x20 ADD PUSH1 0x1 ISZERO ISZERO DUP2 MSTORE PUSH1 0x20 ADD DUP10 DUP10 DUP1 DUP1 PUSH1 0x1F ADD PUSH1 0x20 DUP1 SWAP2 DIV MUL PUSH1 0x20 ADD PUSH1 0x40 MLOAD SWAP1 DUP2 ADD PUSH1 0x40 MSTORE DUP1 SWAP4 SWAP3 SWAP2 SWAP1 DUP2 DUP2 MSTORE PUSH1 0x20 ADD DUP4 DUP4 DUP1 DUP3 DUP5 CALLDATACOPY PUSH0 DUP2 DUP5 ADD MSTORE PUSH1 0x1F NOT PUSH1 0x1F DUP3 ADD AND SWAP1 POP DUP1 DUP4 ADD SWAP3 POP POP POP POP POP POP POP DUP2 MSTORE PUSH1 0x20 ADD DUP3 PUSH2 0x2571 SWAP1 PUSH2 0x4C2D JUMP JUMPDEST DUP2 MSTORE POP PUSH1 0x2 PUSH0 PUSH1 0x7 SLOAD DUP2 MSTORE PUSH1 0x20 ADD SWAP1 DUP2 MSTORE PUSH1 0x20 ADD PUSH0 KECCAK256 PUSH0 DUP3 ADD MLOAD DUP2 PUSH0 ADD SWAP1 PUSH1 0x3 PUSH2 0x259C SWAP3 SWAP2 SWAP1 PUSH2 0x3397 JUMP JUMPDEST POP PUSH1 0x20 DUP3 ADD MLOAD DUP2 PUSH1 0x3 ADD SSTORE PUSH1 0x40 DUP3 ADD MLOAD DUP2 PUSH1 0x4 ADD SWAP1 PUSH1 0x3 PUSH2 0x25BE SWAP3 SWAP2 SWAP1 PUSH2 0x3397 JUMP JUMPDEST POP PUSH1 0x60 DUP3 ADD MLOAD DUP2 PUSH1 0x7 ADD SWAP1 DUP2 PUSH2 0x25D4 SWAP2 SWAP1 PUSH2 0x4DD8 JUMP JUMPDEST POP PUSH1 0x80 DUP3 ADD MLOAD DUP2 PUSH1 0x8 ADD PUSH0 PUSH2 0x100 EXP DUP2 SLOAD DUP2 PUSH1 0xFF MUL NOT AND SWAP1 DUP4 ISZERO ISZERO MUL OR SWAP1 SSTORE POP PUSH1 0xA0 DUP3 ADD MLOAD DUP2 PUSH1 0x9 ADD SWAP1 DUP2 PUSH2 0x2609 SWAP2 SWAP1 PUSH2 0x4DD8 JUMP JUMPDEST POP PUSH1 0xC0 DUP3 ADD MLOAD DUP2 PUSH1 0xA ADD SWAP1 PUSH1 0x3 PUSH2 0x2621 SWAP3 SWAP2 SWAP1 PUSH2 0x344A JUMP JUMPDEST POP SWAP1 POP POP PUSH1 0x7 SLOAD PUSH32 0x53D1159A1F8249F59F72036673E4BE72C197E94DB9AD9576D9588DAF47A44D04 DUP10 DUP10 DUP10 DUP9 DUP9 DUP9 PUSH1 0x40 MLOAD PUSH2 0x2661 SWAP7 SWAP6 SWAP5 SWAP4 SWAP3 SWAP2 SWAP1 PUSH2 0x4ED3 JUMP JUMPDEST PUSH1 0x40 MLOAD DUP1 SWAP2 SUB SWAP1 LOG2 PUSH1 0x7 PUSH0 DUP2 SLOAD DUP1 SWAP3 SWAP2 SWAP1 PUSH2 0x267B SWAP1 PUSH2 0x48CA JUMP JUMPDEST SWAP2 SWAP1 POP SSTORE POP POP POP POP POP POP POP POP POP JUMP JUMPDEST PUSH2 0x2692 PUSH2 0x3496 JUMP JUMPDEST DUP2 PUSH0 DUP2 EQ DUP1 PUSH2 0x26A3 JUMPI POP PUSH1 0x7 SLOAD DUP2 LT ISZERO JUMPDEST ISZERO PUSH2 0x26DA JUMPI PUSH1 0x40 MLOAD PUSH32 0xC93477D000000000000000000000000000000000000000000000000000000000 DUP2 MSTORE PUSH1 0x4 ADD PUSH1 0x40 MLOAD DUP1 SWAP2 SUB SWAP1 REVERT JUMPDEST PUSH1 0x2 PUSH0 DUP5 DUP2 MSTORE PUSH1 0x20 ADD SWAP1 DUP2 MSTORE PUSH1 0x20 ADD PUSH0 KECCAK256 PUSH1 0x40 MLOAD DUP1 PUSH1 0xE0 ADD PUSH1 0x40 MSTORE SWAP1 DUP2 PUSH0 DUP3 ADD PUSH1 0x3 DUP1 PUSH1 0x20 MUL PUSH1 0x40 MLOAD SWAP1 DUP2 ADD PUSH1 0x40 MSTORE DUP1 SWAP3 SWAP2 SWAP1 DUP3 PUSH1 0x3 DUP1 ISZERO PUSH2 0x2731 JUMPI PUSH1 0x20 MUL DUP3 ADD SWAP2 JUMPDEST DUP2 SLOAD DUP2 MSTORE PUSH1 0x20 ADD SWAP1 PUSH1 0x1 ADD SWAP1 DUP1 DUP4 GT PUSH2 0x271D JUMPI JUMPDEST POP POP POP POP POP DUP2 MSTORE PUSH1 0x20 ADD PUSH1 0x3 DUP3 ADD SLOAD DUP2 MSTORE PUSH1 0x20 ADD PUSH1 0x4 DUP3 ADD PUSH1 0x3 DUP1 PUSH1 0x20 MUL PUSH1 0x40 MLOAD SWAP1 DUP2 ADD PUSH1 0x40 MSTORE DUP1 SWAP3 SWAP2 SWAP1 DUP3 PUSH1 0x3 DUP1 ISZERO PUSH2 0x2780 JUMPI PUSH1 0x20 MUL DUP3 ADD SWAP2 JUMPDEST DUP2 SLOAD DUP2 MSTORE PUSH1 0x20 ADD SWAP1 PUSH1 0x1 ADD SWAP1 DUP1 DUP4 GT PUSH2 0x276C JUMPI JUMPDEST POP POP POP POP POP DUP2 MSTORE PUSH1 0x20 ADD PUSH1 0x7 DUP3 ADD DUP1 SLOAD PUSH2 0x2799 SWAP1 PUSH2 0x4652 JUMP JUMPDEST DUP1 PUSH1 0x1F ADD PUSH1 0x20 DUP1 SWAP2 DIV MUL PUSH1 0x20 ADD PUSH1 0x40 MLOAD SWAP1 DUP2 ADD PUSH1 0x40 MSTORE DUP1 SWAP3 SWAP2 SWAP1 DUP2 DUP2 MSTORE PUSH1 0x20 ADD DUP3 DUP1 SLOAD PUSH2 0x27C5 SWAP1 PUSH2 0x4652 JUMP JUMPDEST DUP1 ISZERO PUSH2 0x2810 JUMPI DUP1 PUSH1 0x1F LT PUSH2 0x27E7 JUMPI PUSH2 0x100 DUP1 DUP4 SLOAD DIV MUL DUP4 MSTORE SWAP2 PUSH1 0x20 ADD SWAP2 PUSH2 0x2810 JUMP JUMPDEST DUP3 ADD SWAP2 SWAP1 PUSH0 MSTORE PUSH1 0x20 PUSH0 KECCAK256 SWAP1 JUMPDEST DUP2 SLOAD DUP2 MSTORE SWAP1 PUSH1 0x1 ADD SWAP1 PUSH1 0x20 ADD DUP1 DUP4 GT PUSH2 0x27F3 JUMPI DUP3 SWAP1 SUB PUSH1 0x1F AND DUP3 ADD SWAP2 JUMPDEST POP POP POP POP POP DUP2 MSTORE PUSH1 0x20 ADD PUSH1 0x8 DUP3 ADD PUSH0 SWAP1 SLOAD SWAP1 PUSH2 0x100 EXP SWAP1 DIV PUSH1 0xFF AND ISZERO ISZERO ISZERO ISZERO DUP2 MSTORE PUSH1 0x20 ADD PUSH1 0x9 DUP3 ADD DUP1 SLOAD PUSH2 0x2843 SWAP1 PUSH2 0x4652 JUMP JUMPDEST DUP1 PUSH1 0x1F ADD PUSH1 0x20 DUP1 SWAP2 DIV MUL PUSH1 0x20 ADD PUSH1 0x40 MLOAD SWAP1 DUP2 ADD PUSH1 0x40 MSTORE DUP1 SWAP3 SWAP2 SWAP1 DUP2 DUP2 MSTORE PUSH1 0x20 ADD DUP3 DUP1 SLOAD PUSH2 0x286F SWAP1 PUSH2 0x4652 JUMP JUMPDEST DUP1 ISZERO PUSH2 0x28BA JUMPI DUP1 PUSH1 0x1F LT PUSH2 0x2891 JUMPI PUSH2 0x100 DUP1 DUP4 SLOAD DIV MUL DUP4 MSTORE SWAP2 PUSH1 0x20 ADD SWAP2 PUSH2 0x28BA JUMP JUMPDEST DUP3 ADD SWAP2 SWAP1 PUSH0 MSTORE PUSH1 0x20 PUSH0 KECCAK256 SWAP1 JUMPDEST DUP2 SLOAD DUP2 MSTORE SWAP1 PUSH1 0x1 ADD SWAP1 PUSH1 0x20 ADD DUP1 DUP4 GT PUSH2 0x289D JUMPI DUP3 SWAP1 SUB PUSH1 0x1F AND DUP3 ADD SWAP2 JUMPDEST POP POP POP POP POP DUP2 MSTORE PUSH1 0x20 ADD PUSH1 0xA DUP3 ADD PUSH1 0x3 DUP1 PUSH1 0x20 MUL PUSH1 0x40 MLOAD SWAP1 DUP2 ADD PUSH1 0x40 MSTORE DUP1 SWAP3 SWAP2 SWAP1 PUSH0 SWAP1 JUMPDEST DUP3 DUP3 LT ISZERO PUSH2 0x297F JUMPI DUP4 DUP3 ADD DUP1 SLOAD PUSH2 0x28F4 SWAP1 PUSH2 0x4652 JUMP JUMPDEST DUP1 PUSH1 0x1F ADD PUSH1 0x20 DUP1 SWAP2 DIV MUL PUSH1 0x20 ADD PUSH1 0x40 MLOAD SWAP1 DUP2 ADD PUSH1 0x40 MSTORE DUP1 SWAP3 SWAP2 SWAP1 DUP2 DUP2 MSTORE PUSH1 0x20 ADD DUP3 DUP1 SLOAD PUSH2 0x2920 SWAP1 PUSH2 0x4652 JUMP JUMPDEST DUP1 ISZERO PUSH2 0x296B JUMPI DUP1 PUSH1 0x1F LT PUSH2 0x2942 JUMPI PUSH2 0x100 DUP1 DUP4 SLOAD DIV MUL DUP4 MSTORE SWAP2 PUSH1 0x20 ADD SWAP2 PUSH2 0x296B JUMP JUMPDEST DUP3 ADD SWAP2 SWAP1 PUSH0 MSTORE PUSH1 0x20 PUSH0 KECCAK256 SWAP1 JUMPDEST DUP2 SLOAD DUP2 MSTORE SWAP1 PUSH1 0x1 ADD SWAP1 PUSH1 0x20 ADD DUP1 DUP4 GT PUSH2 0x294E JUMPI DUP3 SWAP1 SUB PUSH1 0x1F AND DUP3 ADD SWAP2 JUMPDEST POP POP POP POP POP DUP2 MSTORE PUSH1 0x20 ADD SWAP1 PUSH1 0x1 ADD SWAP1 PUSH2 0x28DE JUMP JUMPDEST POP POP POP POP DUP2 MSTORE POP POP SWAP2 POP POP SWAP2 SWAP1 POP JUMP JUMPDEST CALLER PUSH20 0xFFFFFFFFFFFFFFFFFFFFFFFFFFFFFFFFFFFFFFFF AND PUSH2 0x29AE PUSH2 0x18E3 JUMP JUMPDEST PUSH20 0xFFFFFFFFFFFFFFFFFFFFFFFFFFFFFFFFFFFFFFFF AND EQ PUSH2 0x29FB JUMPI PUSH1 0x40 MLOAD PUSH32 0x7BFA4B9F00000000000000000000000000000000000000000000000000000000 DUP2 MSTORE PUSH1 0x4 ADD PUSH1 0x40 MLOAD DUP1 SWAP2 SUB SWAP1 REVERT JUMPDEST DUP1 PUSH0 PUSH20 0xFFFFFFFFFFFFFFFFFFFFFFFFFFFFFFFFFFFFFFFF AND DUP2 PUSH20 0xFFFFFFFFFFFFFFFFFFFFFFFFFFFFFFFFFFFFFFFF AND SUB PUSH2 0x2A61 JUMPI PUSH1 0x40 MLOAD PUSH32 0xE6C4247B00000000000000000000000000000000000000000000000000000000 DUP2 MSTORE PUSH1 0x4 ADD PUSH1 0x40 MLOAD DUP1 SWAP2 SUB SWAP1 REVERT JUMPDEST PUSH0 PUSH1 0xA PUSH0 SWAP1 SLOAD SWAP1 PUSH2 0x100 EXP SWAP1 DIV PUSH20 0xFFFFFFFFFFFFFFFFFFFFFFFFFFFFFFFFFFFFFFFF AND SWAP1 POP DUP3 PUSH1 0xA PUSH0 PUSH2 0x100 EXP DUP2 SLOAD DUP2 PUSH20 0xFFFFFFFFFFFFFFFFFFFFFFFFFFFFFFFFFFFFFFFF MUL NOT AND SWAP1 DUP4 PUSH20 0xFFFFFFFFFFFFFFFFFFFFFFFFFFFFFFFFFFFFFFFF AND MUL OR SWAP1 SSTORE POP DUP3 PUSH20 0xFFFFFFFFFFFFFFFFFFFFFFFFFFFFFFFFFFFFFFFF AND DUP2 PUSH20 0xFFFFFFFFFFFFFFFFFFFFFFFFFFFFFFFFFFFFFFFF AND PUSH32 0x4AB5BE82436D353E61CA18726E984E561F5C1CC7C6D38B29D2553C790434705A PUSH1 0x40 MLOAD PUSH1 0x40 MLOAD DUP1 SWAP2 SUB SWAP1 LOG3 POP POP POP JUMP JUMPDEST PUSH2 0x2B2D PUSH2 0x3248 JUMP JUMPDEST PUSH0 PUSH20 0xFFFFFFFFFFFFFFFFFFFFFFFFFFFFFFFFFFFFFFFF AND DUP2 PUSH20 0xFFFFFFFFFFFFFFFFFFFFFFFFFFFFFFFFFFFFFFFF AND SUB PUSH2 0x2B9D JUMPI PUSH0 PUSH1 0x40 MLOAD PUSH32 0x1E4FBDF700000000000000000000000000000000000000000000000000000000 DUP2 MSTORE PUSH1 0x4 ADD PUSH2 0x2B94 SWAP2 SWAP1 PUSH2 0x3B21 JUMP JUMPDEST PUSH1 0x40 MLOAD DUP1 SWAP2 SUB SWAP1 REVERT JUMPDEST PUSH2 0x2BA6 DUP2 PUSH2 0x32CF JUMP JUMPDEST POP JUMP JUMPDEST DUP2 PUSH0 DUP2 EQ DUP1 PUSH2 0x2BBA JUMPI POP PUSH1 0x7 SLOAD DUP2 LT ISZERO JUMPDEST ISZERO PUSH2 0x2BF1 JUMPI PUSH1 0x40 MLOAD PUSH32 0xC93477D000000000000000000000000000000000000000000000000000000000 DUP2 MSTORE PUSH1 0x4 ADD PUSH1 0x40 MLOAD DUP1 SWAP2 SUB SWAP1 REVERT JUMPDEST PUSH1 0x2 PUSH0 DUP3 DUP2 MSTORE PUSH1 0x20 ADD SWAP1 DUP2 MSTORE PUSH1 0x20 ADD PUSH0 KECCAK256 PUSH1 0x8 ADD PUSH0 SWAP1 SLOAD SWAP1 PUSH2 0x100 EXP SWAP1 DIV PUSH1 0xFF AND PUSH2 0x2C48 JUMPI PUSH1 0x40 MLOAD PUSH32 0xF0C1BC800000000000000000000000000000000000000000000000000000000 DUP2 MSTORE PUSH1 0x4 ADD PUSH1 0x40 MLOAD DUP1 SWAP2 SUB SWAP1 REVERT JUMPDEST DUP2 PUSH1 0x3 DUP2 PUSH1 0xFF AND LT PUSH2 0x2C86 JUMPI PUSH1 0x40 MLOAD PUSH32 0x99E1731F00000000000000000000000000000000000000000000000000000000 DUP2 MSTORE PUSH1 0x4 ADD PUSH1 0x40 MLOAD DUP1 SWAP2 SUB SWAP1 REVERT JUMPDEST PUSH2 0x2C8E PUSH2 0x2F4D JUMP JUMPDEST PUSH0 PUSH1 0x2 PUSH0 DUP7 DUP2 MSTORE PUSH1 0x20 ADD SWAP1 DUP2 MSTORE PUSH1 0x20 ADD PUSH0 KECCAK256 SWAP1 POP DUP1 PUSH1 0x4 ADD DUP5 PUSH1 0xFF AND PUSH1 0x3 DUP2 LT PUSH2 0x2CBB JUMPI PUSH2 0x2CBA PUSH2 0x41C5 JUMP JUMPDEST JUMPDEST ADD SLOAD PUSH1 0x4 PUSH0 DUP8 DUP2 MSTORE PUSH1 0x20 ADD SWAP1 DUP2 MSTORE PUSH1 0x20 ADD PUSH0 KECCAK256 PUSH0 DUP7 PUSH1 0xFF AND PUSH1 0xFF AND DUP2 MSTORE PUSH1 0x20 ADD SWAP1 DUP2 MSTORE PUSH1 0x20 ADD PUSH0 KECCAK256 SLOAD LT PUSH2 0x2D24 JUMPI PUSH1 0x40 MLOAD PUSH32 0x8C379A000000000000000000000000000000000000000000000000000000000 DUP2 MSTORE PUSH1 0x4 ADD PUSH2 0x2D1B SWAP1 PUSH2 0x4F73 JUMP JUMPDEST PUSH1 0x40 MLOAD DUP1 SWAP2 SUB SWAP1 REVERT JUMPDEST PUSH1 0x1 PUSH0 CALLER PUSH20 0xFFFFFFFFFFFFFFFFFFFFFFFFFFFFFFFFFFFFFFFF AND PUSH20 0xFFFFFFFFFFFFFFFFFFFFFFFFFFFFFFFFFFFFFFFF AND DUP2 MSTORE PUSH1 0x20 ADD SWAP1 DUP2 MSTORE PUSH1 0x20 ADD PUSH0 KECCAK256 PUSH0 DUP7 DUP2 MSTORE PUSH1 0x20 ADD SWAP1 DUP2 MSTORE PUSH1 0x20 ADD PUSH0 KECCAK256 PUSH1 0x3 ADD PUSH1 0x1 SWAP1 SLOAD SWAP1 PUSH2 0x100 EXP SWAP1 DIV PUSH1 0xFF AND ISZERO PUSH2 0x2DC1 JUMPI PUSH1 0x40 MLOAD PUSH32 0x8C379A000000000000000000000000000000000000000000000000000000000 DUP2 MSTORE PUSH1 0x4 ADD PUSH2 0x2DB8 SWAP1 PUSH2 0x4FDB JUMP JUMPDEST PUSH1 0x40 MLOAD DUP1 SWAP2 SUB SWAP1 REVERT JUMPDEST PUSH0 DUP2 PUSH0 ADD DUP6 PUSH1 0xFF AND PUSH1 0x3 DUP2 LT PUSH2 0x2DDA JUMPI PUSH2 0x2DD9 PUSH2 0x41C5 JUMP JUMPDEST JUMPDEST ADD SLOAD SWAP1 POP PUSH2 0x2DE7 DUP2 PUSH2 0x2F9C JUMP JUMPDEST PUSH20 0x0 PUSH4 0xC610290A PUSH1 0x1 PUSH1 0x5 PUSH1 0x3 PUSH1 0x4 CALLER DUP13 DUP13 DUP11 PUSH1 0x3 ADD SLOAD PUSH1 0x40 MLOAD DUP10 PUSH4 0xFFFFFFFF AND PUSH1 0xE0 SHL DUP2 MSTORE PUSH1 0x4 ADD PUSH2 0x2E34 SWAP9 SWAP8 SWAP7 SWAP6 SWAP5 SWAP4 SWAP3 SWAP2 SWAP1 PUSH2 0x501D JUMP JUMPDEST PUSH0 PUSH1 0x40 MLOAD DUP1 DUP4 SUB DUP2 DUP7 DUP1 EXTCODESIZE ISZERO DUP1 ISZERO PUSH2 0x2E4A JUMPI PUSH0 PUSH0 REVERT JUMPDEST POP GAS DELEGATECALL ISZERO DUP1 ISZERO PUSH2 0x2E5C JUMPI RETURNDATASIZE PUSH0 PUSH0 RETURNDATACOPY RETURNDATASIZE PUSH0 REVERT JUMPDEST POP POP POP POP DUP6 CALLER PUSH20 0xFFFFFFFFFFFFFFFFFFFFFFFFFFFFFFFFFFFFFFFF AND PUSH32 0x4F33268BFDE27678E64DD9CDBDAC8FA282BD69E5BBF0E35FE386AF12127AD71C DUP8 PUSH1 0xFF AND PUSH1 0x2 DUP2 GT ISZERO PUSH2 0x2EAF JUMPI PUSH2 0x2EAE PUSH2 0x3B8B JUMP JUMPDEST JUMPDEST DUP6 PUSH1 0x3 ADD SLOAD TIMESTAMP PUSH2 0x2EBF SWAP2 SWAP1 PUSH2 0x421F JUMP JUMPDEST DUP6 PUSH1 0x40 MLOAD PUSH2 0x2ECF SWAP4 SWAP3 SWAP2 SWAP1 PUSH2 0x5099 JUMP JUMPDEST PUSH1 0x40 MLOAD DUP1 SWAP2 SUB SWAP1 LOG3 DUP6 CALLER PUSH20 0xFFFFFFFFFFFFFFFFFFFFFFFFFFFFFFFFFFFFFFFF AND PUSH32 0x3BB1A174937E3DD09A870C604DBB901E99F3984246EF19A28D06025FC7B36B7 DUP4 DUP9 PUSH1 0xFF AND PUSH1 0x2 DUP2 GT ISZERO PUSH2 0x2F27 JUMPI PUSH2 0x2F26 PUSH2 0x3B8B JUMP JUMPDEST JUMPDEST PUSH1 0x40 MLOAD PUSH2 0x2F35 SWAP3 SWAP2 SWAP1 PUSH2 0x4261 JUMP JUMPDEST PUSH1 0x40 MLOAD DUP1 SWAP2 SUB SWAP1 LOG3 POP POP PUSH2 0x2F47 PUSH2 0x323E JUMP JUMPDEST POP POP POP POP JUMP JUMPDEST PUSH1 0x2 PUSH1 0x8 SLOAD SUB PUSH2 0x2F92 JUMPI PUSH1 0x40 MLOAD PUSH32 0x8C379A000000000000000000000000000000000000000000000000000000000 DUP2 MSTORE PUSH1 0x4 ADD PUSH2 0x2F89 SWAP1 PUSH2 0x5118 JUMP JUMPDEST PUSH1 0x40 MLOAD DUP1 SWAP2 SUB SWAP1 REVERT JUMPDEST PUSH1 0x2 PUSH1 0x8 DUP2 SWAP1 SSTORE POP JUMP JUMPDEST PUSH0 PUSH1 0x9 PUSH0 SWAP1 SLOAD SWAP1 PUSH2 0x100 EXP SWAP1 DIV PUSH20 0xFFFFFFFFFFFFFFFFFFFFFFFFFFFFFFFFFFFFFFFF AND PUSH20 0xFFFFFFFFFFFFFFFFFFFFFFFFFFFFFFFFFFFFFFFF AND PUSH4 0xDD62ED3E CALLER ADDRESS PUSH1 0x40 MLOAD DUP4 PUSH4 0xFFFFFFFF AND PUSH1 0xE0 SHL DUP2 MSTORE PUSH1 0x4 ADD PUSH2 0x2FF9 SWAP3 SWAP2 SWAP1 PUSH2 0x48A3 JUMP JUMPDEST PUSH1 0x20 PUSH1 0x40 MLOAD DUP1 DUP4 SUB DUP2 DUP7 GAS STATICCALL ISZERO DUP1 ISZERO PUSH2 0x3014 JUMPI RETURNDATASIZE PUSH0 PUSH0 RETURNDATACOPY RETURNDATASIZE PUSH0 REVERT JUMPDEST POP POP POP POP PUSH1 0x40 MLOAD RETURNDATASIZE PUSH1 0x1F NOT PUSH1 0x1F DUP3 ADD AND DUP3 ADD DUP1 PUSH1 0x40 MSTORE POP DUP2 ADD SWAP1 PUSH2 0x3038 SWAP2 SWAP1 PUSH2 0x4463 JUMP JUMPDEST SWAP1 POP DUP2 DUP2 LT ISZERO PUSH2 0x307D JUMPI PUSH1 0x40 MLOAD PUSH32 0x8C379A000000000000000000000000000000000000000000000000000000000 DUP2 MSTORE PUSH1 0x4 ADD PUSH2 0x3074 SWAP1 PUSH2 0x5180 JUMP JUMPDEST PUSH1 0x40 MLOAD DUP1 SWAP2 SUB SWAP1 REVERT JUMPDEST PUSH0 PUSH1 0x9 PUSH0 SWAP1 SLOAD SWAP1 PUSH2 0x100 EXP SWAP1 DIV PUSH20 0xFFFFFFFFFFFFFFFFFFFFFFFFFFFFFFFFFFFFFFFF AND PUSH20 0xFFFFFFFFFFFFFFFFFFFFFFFFFFFFFFFFFFFFFFFF AND PUSH4 0x70A08231 CALLER PUSH1 0x40 MLOAD DUP3 PUSH4 0xFFFFFFFF AND PUSH1 0xE0 SHL DUP2 MSTORE PUSH1 0x4 ADD PUSH2 0x30D8 SWAP2 SWAP1 PUSH2 0x3B21 JUMP JUMPDEST PUSH1 0x20 PUSH1 0x40 MLOAD DUP1 DUP4 SUB DUP2 DUP7 GAS STATICCALL ISZERO DUP1 ISZERO PUSH2 0x30F3 JUMPI RETURNDATASIZE PUSH0 PUSH0 RETURNDATACOPY RETURNDATASIZE PUSH0 REVERT JUMPDEST POP POP POP POP PUSH1 0x40 MLOAD RETURNDATASIZE PUSH1 0x1F NOT PUSH1 0x1F DUP3 ADD AND DUP3 ADD DUP1 PUSH1 0x40 MSTORE POP DUP2 ADD SWAP1 PUSH2 0x3117 SWAP2 SWAP1 PUSH2 0x4463 JUMP JUMPDEST SWAP1 POP DUP3 DUP2 LT ISZERO PUSH2 0x315C JUMPI PUSH1 0x40 MLOAD PUSH32 0x8C379A000000000000000000000000000000000000000000000000000000000 DUP2 MSTORE PUSH1 0x4 ADD PUSH2 0x3153 SWAP1 PUSH2 0x44D8 JUMP JUMPDEST PUSH1 0x40 MLOAD DUP1 SWAP2 SUB SWAP1 REVERT JUMPDEST PUSH1 0x9 PUSH0 SWAP1 SLOAD SWAP1 PUSH2 0x100 EXP SWAP1 DIV PUSH20 0xFFFFFFFFFFFFFFFFFFFFFFFFFFFFFFFFFFFFFFFF AND PUSH20 0xFFFFFFFFFFFFFFFFFFFFFFFFFFFFFFFFFFFFFFFF AND PUSH4 0x23B872DD CALLER ADDRESS DUP7 PUSH1 0x40 MLOAD DUP5 PUSH4 0xFFFFFFFF AND PUSH1 0xE0 SHL DUP2 MSTORE PUSH1 0x4 ADD PUSH2 0x31BA SWAP4 SWAP3 SWAP2 SWAP1 PUSH2 0x519E JUMP JUMPDEST PUSH1 0x20 PUSH1 0x40 MLOAD DUP1 DUP4 SUB DUP2 PUSH0 DUP8 GAS CALL ISZERO DUP1 ISZERO PUSH2 0x31D6 JUMPI RETURNDATASIZE PUSH0 PUSH0 RETURNDATACOPY RETURNDATASIZE PUSH0 REVERT JUMPDEST POP POP POP POP PUSH1 0x40 MLOAD RETURNDATASIZE PUSH1 0x1F NOT PUSH1 0x1F DUP3 ADD AND DUP3 ADD DUP1 PUSH1 0x40 MSTORE POP DUP2 ADD SWAP1 PUSH2 0x31FA SWAP2 SWAP1 PUSH2 0x4547 JUMP JUMPDEST PUSH2 0x3239 JUMPI PUSH1 0x40 MLOAD PUSH32 0x8C379A000000000000000000000000000000000000000000000000000000000 DUP2 MSTORE PUSH1 0x4 ADD PUSH2 0x3230 SWAP1 PUSH2 0x521D JUMP JUMPDEST PUSH1 0x40 MLOAD DUP1 SWAP2 SUB SWAP1 REVERT JUMPDEST POP POP POP JUMP JUMPDEST PUSH1 0x1 PUSH1 0x8 DUP2 SWAP1 SSTORE POP JUMP JUMPDEST PUSH2 0x3250 PUSH2 0x3390 JUMP JUMPDEST PUSH20 0xFFFFFFFFFFFFFFFFFFFFFFFFFFFFFFFFFFFFFFFF AND PUSH2 0x326E PUSH2 0x18E3 JUMP JUMPDEST PUSH20 0xFFFFFFFFFFFFFFFFFFFFFFFFFFFFFFFFFFFFFFFF AND EQ PUSH2 0x32CD JUMPI PUSH2 0x3291 PUSH2 0x3390 JUMP JUMPDEST PUSH1 0x40 MLOAD PUSH32 0x118CDAA700000000000000000000000000000000000000000000000000000000 DUP2 MSTORE PUSH1 0x4 ADD PUSH2 0x32C4 SWAP2 SWAP1 PUSH2 0x3B21 JUMP JUMPDEST PUSH1 0x40 MLOAD DUP1 SWAP2 SUB SWAP1 REVERT JUMPDEST JUMP JUMPDEST PUSH0 PUSH0 PUSH0 SWAP1 SLOAD SWAP1 PUSH2 0x100 EXP SWAP1 DIV PUSH20 0xFFFFFFFFFFFFFFFFFFFFFFFFFFFFFFFFFFFFFFFF AND SWAP1 POP DUP2 PUSH0 PUSH0 PUSH2 0x100 EXP DUP2 SLOAD DUP2 PUSH20 0xFFFFFFFFFFFFFFFFFFFFFFFFFFFFFFFFFFFFFFFF MUL NOT AND SWAP1 DUP4 PUSH20 0xFFFFFFFFFFFFFFFFFFFFFFFFFFFFFFFFFFFFFFFF AND MUL OR SWAP1 SSTORE POP DUP2 PUSH20 0xFFFFFFFFFFFFFFFFFFFFFFFFFFFFFFFFFFFFFFFF AND DUP2 PUSH20 0xFFFFFFFFFFFFFFFFFFFFFFFFFFFFFFFFFFFFFFFF AND PUSH32 0x8BE0079C531659141344CD1FD0A4F28419497F9722A3DAAFE3B4186F6B6457E0 PUSH1 0x40 MLOAD PUSH1 0x40 MLOAD DUP1 SWAP2 SUB SWAP1 LOG3 POP POP JUMP JUMPDEST PUSH0 CALLER SWAP1 POP SWAP1 JUMP JUMPDEST DUP3 PUSH1 0x3 DUP2 ADD SWAP3 DUP3 ISZERO PUSH2 0x33C6 JUMPI SWAP2 PUSH1 0x20 MUL DUP3 ADD JUMPDEST DUP3 DUP2 GT ISZERO PUSH2 0x33C5 JUMPI DUP3 MLOAD DUP3 SSTORE SWAP2 PUSH1 0x20 ADD SWAP2 SWAP1 PUSH1 0x1 ADD SWAP1 PUSH2 0x33AA JUMP JUMPDEST JUMPDEST POP SWAP1 POP PUSH2 0x33D3 SWAP2 SWAP1 PUSH2 0x34E5 JUMP JUMPDEST POP SWAP1 JUMP JUMPDEST PUSH1 0x40 MLOAD DUP1 PUSH1 0x60 ADD PUSH1 0x40 MSTORE DUP1 PUSH1 0x3 SWAP1 JUMPDEST PUSH2 0x33EE PUSH2 0x3500 JUMP JUMPDEST DUP2 MSTORE PUSH1 0x20 ADD SWAP1 PUSH1 0x1 SWAP1 SUB SWAP1 DUP2 PUSH2 0x33E6 JUMPI SWAP1 POP POP SWAP1 JUMP JUMPDEST PUSH1 0x40 MLOAD DUP1 PUSH1 0xC0 ADD PUSH1 0x40 MSTORE DUP1 PUSH0 DUP2 MSTORE PUSH1 0x20 ADD PUSH0 PUSH1 0x2 DUP2 GT ISZERO PUSH2 0x3428 JUMPI PUSH2 0x3427 PUSH2 0x3B8B JUMP JUMPDEST JUMPDEST DUP2 MSTORE PUSH1 0x20 ADD PUSH0 DUP2 MSTORE PUSH1 0x20 ADD PUSH0 ISZERO ISZERO DUP2 MSTORE PUSH1 0x20 ADD PUSH0 ISZERO ISZERO DUP2 MSTORE PUSH1 0x20 ADD PUSH0 DUP2 MSTORE POP SWAP1 JUMP JUMPDEST DUP3 PUSH1 0x3 DUP2 ADD SWAP3 DUP3 ISZERO PUSH2 0x3485 JUMPI SWAP2 PUSH1 0x20 MUL DUP3 ADD JUMPDEST DUP3 DUP2 GT ISZERO PUSH2 0x3484 JUMPI DUP3 MLOAD DUP3 SWAP1 DUP2 PUSH2 0x3474 SWAP2 SWAP1 PUSH2 0x4DD8 JUMP JUMPDEST POP SWAP2 PUSH1 0x20 ADD SWAP2 SWAP1 PUSH1 0x1 ADD SWAP1 PUSH2 0x345D JUMP JUMPDEST JUMPDEST POP SWAP1 POP PUSH2 0x3492 SWAP2 SWAP1 PUSH2 0x352D JUMP JUMPDEST POP SWAP1 JUMP JUMPDEST PUSH1 0x40 MLOAD DUP1 PUSH1 0xE0 ADD PUSH1 0x40 MSTORE DUP1 PUSH2 0x34A9 PUSH2 0x3550 JUMP JUMPDEST DUP2 MSTORE PUSH1 0x20 ADD PUSH0 DUP2 MSTORE PUSH1 0x20 ADD PUSH2 0x34BC PUSH2 0x3550 JUMP JUMPDEST DUP2 MSTORE PUSH1 0x20 ADD PUSH1 0x60 DUP2 MSTORE PUSH1 0x20 ADD PUSH0 ISZERO ISZERO DUP2 MSTORE PUSH1 0x20 ADD PUSH1 0x60 DUP2 MSTORE PUSH1 0x20 ADD PUSH2 0x34DF PUSH2 0x3572 JUMP JUMPDEST DUP2 MSTORE POP SWAP1 JUMP JUMPDEST JUMPDEST DUP1 DUP3 GT ISZERO PUSH2 0x34FC JUMPI PUSH0 DUP2 PUSH0 SWAP1 SSTORE POP PUSH1 0x1 ADD PUSH2 0x34E6 JUMP JUMPDEST POP SWAP1 JUMP JUMPDEST PUSH1 0x40 MLOAD DUP1 PUSH1 0xA0 ADD PUSH1 0x40 MSTORE DUP1 PUSH1 0x60 DUP2 MSTORE PUSH1 0x20 ADD PUSH0 DUP2 MSTORE PUSH1 0x20 ADD PUSH0 DUP2 MSTORE PUSH1 0x20 ADD PUSH0 DUP2 MSTORE PUSH1 0x20 ADD PUSH0 ISZERO ISZERO DUP2 MSTORE POP SWAP1 JUMP JUMPDEST JUMPDEST DUP1 DUP3 GT ISZERO PUSH2 0x354C JUMPI PUSH0 DUP2 DUP2 PUSH2 0x3543 SWAP2 SWAP1 PUSH2 0x3599 JUMP JUMPDEST POP PUSH1 0x1 ADD PUSH2 0x352E JUMP JUMPDEST POP SWAP1 JUMP JUMPDEST PUSH1 0x40 MLOAD DUP1 PUSH1 0x60 ADD PUSH1 0x40 MSTORE DUP1 PUSH1 0x3 SWAP1 PUSH1 0x20 DUP3 MUL DUP1 CALLDATASIZE DUP4 CALLDATACOPY DUP1 DUP3 ADD SWAP2 POP POP SWAP1 POP POP SWAP1 JUMP JUMPDEST PUSH1 0x40 MLOAD DUP1 PUSH1 0x60 ADD PUSH1 0x40 MSTORE DUP1 PUSH1 0x3 SWAP1 JUMPDEST PUSH1 0x60 DUP2 MSTORE PUSH1 0x20 ADD SWAP1 PUSH1 0x1 SWAP1 SUB SWAP1 DUP2 PUSH2 0x3581 JUMPI SWAP1 POP POP SWAP1 JUMP JUMPDEST POP DUP1 SLOAD PUSH2 0x35A5 SWAP1 PUSH2 0x4652 JUMP JUMPDEST PUSH0 DUP3 SSTORE DUP1 PUSH1 0x1F LT PUSH2 0x35B6 JUMPI POP PUSH2 0x35D3 JUMP JUMPDEST PUSH1 0x1F ADD PUSH1 0x20 SWAP1 DIV SWAP1 PUSH0 MSTORE PUSH1 0x20 PUSH0 KECCAK256 SWAP1 DUP2 ADD SWAP1 PUSH2 0x35D2 SWAP2 SWAP1 PUSH2 0x34E5 JUMP JUMPDEST JUMPDEST POP JUMP JUMPDEST PUSH0 PUSH1 0x40 MLOAD SWAP1 POP SWAP1 JUMP JUMPDEST PUSH0 PUSH0 REVERT JUMPDEST PUSH0 PUSH0 REVERT JUMPDEST PUSH0 PUSH20 0xFFFFFFFFFFFFFFFFFFFFFFFFFFFFFFFFFFFFFFFF DUP3 AND SWAP1 POP SWAP2 SWAP1 POP JUMP JUMPDEST PUSH0 PUSH2 0x3610 DUP3 PUSH2 0x35E7 JUMP JUMPDEST SWAP1 POP SWAP2 SWAP1 POP JUMP JUMPDEST PUSH2 0x3620 DUP2 PUSH2 0x3606 JUMP JUMPDEST DUP2 EQ PUSH2 0x362A JUMPI PUSH0 PUSH0 REVERT JUMPDEST POP JUMP JUMPDEST PUSH0 DUP2 CALLDATALOAD SWAP1 POP PUSH2 0x363B DUP2 PUSH2 0x3617 JUMP JUMPDEST SWAP3 SWAP2 POP POP JUMP JUMPDEST PUSH0 DUP2 SWAP1 POP SWAP2 SWAP1 POP JUMP JUMPDEST PUSH2 0x3653 DUP2 PUSH2 0x3641 JUMP JUMPDEST DUP2 EQ PUSH2 0x365D JUMPI PUSH0 PUSH0 REVERT JUMPDEST POP JUMP JUMPDEST PUSH0 DUP2 CALLDATALOAD SWAP1 POP PUSH2 0x366E DUP2 PUSH2 0x364A JUMP JUMPDEST SWAP3 SWAP2 POP POP JUMP JUMPDEST PUSH0 PUSH0 PUSH1 0x40 DUP4 DUP6 SUB SLT ISZERO PUSH2 0x368A JUMPI PUSH2 0x3689 PUSH2 0x35DF JUMP JUMPDEST JUMPDEST PUSH0 PUSH2 0x3697 DUP6 DUP3 DUP7 ADD PUSH2 0x362D JUMP JUMPDEST SWAP3 POP POP PUSH1 0x20 PUSH2 0x36A8 DUP6 DUP3 DUP7 ADD PUSH2 0x3660 JUMP JUMPDEST SWAP2 POP POP SWAP3 POP SWAP3 SWAP1 POP JUMP JUMPDEST PUSH2 0x36BB DUP2 PUSH2 0x3641 JUMP JUMPDEST DUP3 MSTORE POP POP JUMP JUMPDEST PUSH0 PUSH1 0x20 DUP3 ADD SWAP1 POP PUSH2 0x36D4 PUSH0 DUP4 ADD DUP5 PUSH2 0x36B2 JUMP JUMPDEST SWAP3 SWAP2 POP POP JUMP JUMPDEST PUSH0 PUSH1 0x20 DUP3 DUP5 SUB SLT ISZERO PUSH2 0x36EF JUMPI PUSH2 0x36EE PUSH2 0x35DF JUMP JUMPDEST JUMPDEST PUSH0 PUSH2 0x36FC DUP5 DUP3 DUP6 ADD PUSH2 0x3660 JUMP JUMPDEST SWAP2 POP POP SWAP3 SWAP2 POP POP JUMP JUMPDEST PUSH0 PUSH0 REVERT JUMPDEST PUSH0 PUSH1 0x1F NOT PUSH1 0x1F DUP4 ADD AND SWAP1 POP SWAP2 SWAP1 POP JUMP JUMPDEST PUSH32 0x4E487B7100000000000000000000000000000000000000000000000000000000 PUSH0 MSTORE PUSH1 0x41 PUSH1 0x4 MSTORE PUSH1 0x24 PUSH0 REVERT JUMPDEST PUSH2 0x374F DUP3 PUSH2 0x3709 JUMP JUMPDEST DUP2 ADD DUP2 DUP2 LT PUSH8 0xFFFFFFFFFFFFFFFF DUP3 GT OR ISZERO PUSH2 0x376E JUMPI PUSH2 0x376D PUSH2 0x3719 JUMP JUMPDEST JUMPDEST DUP1 PUSH1 0x40 MSTORE POP POP POP JUMP JUMPDEST PUSH0 PUSH2 0x3780 PUSH2 0x35D6 JUMP JUMPDEST SWAP1 POP PUSH2 0x378C DUP3 DUP3 PUSH2 0x3746 JUMP JUMPDEST SWAP2 SWAP1 POP JUMP JUMPDEST PUSH0 PUSH8 0xFFFFFFFFFFFFFFFF DUP3 GT ISZERO PUSH2 0x37AB JUMPI PUSH2 0x37AA PUSH2 0x3719 JUMP JUMPDEST JUMPDEST PUSH1 0x20 DUP3 MUL SWAP1 POP SWAP2 SWAP1 POP JUMP JUMPDEST PUSH0 PUSH0 REVERT JUMPDEST PUSH0 PUSH2 0x37CC PUSH2 0x37C7 DUP5 PUSH2 0x3791 JUMP JUMPDEST PUSH2 0x3777 JUMP JUMPDEST SWAP1 POP DUP1 PUSH1 0x20 DUP5 MUL DUP4 ADD DUP6 DUP2 GT ISZERO PUSH2 0x37E6 JUMPI PUSH2 0x37E5 PUSH2 0x37B6 JUMP JUMPDEST JUMPDEST DUP4 JUMPDEST DUP2 DUP2 LT ISZERO PUSH2 0x380F JUMPI DUP1 PUSH2 0x37FB DUP9 DUP3 PUSH2 0x3660 JUMP JUMPDEST DUP5 MSTORE PUSH1 0x20 DUP5 ADD SWAP4 POP POP PUSH1 0x20 DUP2 ADD SWAP1 POP PUSH2 0x37E8 JUMP JUMPDEST POP POP POP SWAP4 SWAP3 POP POP POP JUMP JUMPDEST PUSH0 DUP3 PUSH1 0x1F DUP4 ADD SLT PUSH2 0x382D JUMPI PUSH2 0x382C PUSH2 0x3705 JUMP JUMPDEST JUMPDEST PUSH1 0x3 PUSH2 0x383A DUP5 DUP3 DUP6 PUSH2 0x37BA JUMP JUMPDEST SWAP2 POP POP SWAP3 SWAP2 POP POP JUMP JUMPDEST PUSH0 PUSH0 PUSH0 PUSH0 PUSH2 0x100 DUP6 DUP8 SUB SLT ISZERO PUSH2 0x385C JUMPI PUSH2 0x385B PUSH2 0x35DF JUMP JUMPDEST JUMPDEST PUSH0 PUSH2 0x3869 DUP8 DUP3 DUP9 ADD PUSH2 0x3660 JUMP JUMPDEST SWAP5 POP POP PUSH1 0x20 PUSH2 0x387A DUP8 DUP3 DUP9 ADD PUSH2 0x3819 JUMP JUMPDEST SWAP4 POP POP PUSH1 0x80 PUSH2 0x388B DUP8 DUP3 DUP9 ADD PUSH2 0x3660 JUMP JUMPDEST SWAP3 POP POP PUSH1 0xA0 PUSH2 0x389C DUP8 DUP3 DUP9 ADD PUSH2 0x3819 JUMP JUMPDEST SWAP2 POP POP SWAP3 SWAP6 SWAP2 SWAP5 POP SWAP3 POP JUMP JUMPDEST PUSH0 DUP2 SWAP1 POP SWAP2 SWAP1 POP JUMP JUMPDEST PUSH0 PUSH2 0x38CB PUSH2 0x38C6 PUSH2 0x38C1 DUP5 PUSH2 0x35E7 JUMP JUMPDEST PUSH2 0x38A8 JUMP JUMPDEST PUSH2 0x35E7 JUMP JUMPDEST SWAP1 POP SWAP2 SWAP1 POP JUMP JUMPDEST PUSH0 PUSH2 0x38DC DUP3 PUSH2 0x38B1 JUMP JUMPDEST SWAP1 POP SWAP2 SWAP1 POP JUMP JUMPDEST PUSH0 PUSH2 0x38ED DUP3 PUSH2 0x38D2 JUMP JUMPDEST SWAP1 POP SWAP2 SWAP1 POP JUMP JUMPDEST PUSH2 0x38FD DUP2 PUSH2 0x38E3 JUMP JUMPDEST DUP3 MSTORE POP POP JUMP JUMPDEST PUSH0 PUSH1 0x20 DUP3 ADD SWAP1 POP PUSH2 0x3916 PUSH0 DUP4 ADD DUP5 PUSH2 0x38F4 JUMP JUMPDEST SWAP3 SWAP2 POP POP JUMP JUMPDEST PUSH0 PUSH1 0x20 DUP3 DUP5 SUB SLT ISZERO PUSH2 0x3931 JUMPI PUSH2 0x3930 PUSH2 0x35DF JUMP JUMPDEST JUMPDEST PUSH0 PUSH2 0x393E DUP5 DUP3 DUP6 ADD PUSH2 0x362D JUMP JUMPDEST SWAP2 POP POP SWAP3 SWAP2 POP POP JUMP JUMPDEST PUSH0 PUSH1 0x3 SWAP1 POP SWAP2 SWAP1 POP JUMP JUMPDEST PUSH0 DUP2 SWAP1 POP SWAP3 SWAP2 POP POP JUMP JUMPDEST PUSH0 DUP2 SWAP1 POP SWAP2 SWAP1 POP JUMP JUMPDEST PUSH0 DUP2 MLOAD SWAP1 POP SWAP2 SWAP1 POP JUMP JUMPDEST PUSH0 DUP3 DUP3 MSTORE PUSH1 0x20 DUP3 ADD SWAP1 POP SWAP3 SWAP2 POP POP JUMP JUMPDEST DUP3 DUP2 DUP4 MCOPY PUSH0 DUP4 DUP4 ADD MSTORE POP POP POP JUMP JUMPDEST PUSH0 PUSH2 0x3996 DUP3 PUSH2 0x3964 JUMP JUMPDEST PUSH2 0x39A0 DUP2 DUP6 PUSH2 0x396E JUMP JUMPDEST SWAP4 POP PUSH2 0x39B0 DUP2 DUP6 PUSH1 0x20 DUP7 ADD PUSH2 0x397E JUMP JUMPDEST PUSH2 0x39B9 DUP2 PUSH2 0x3709 JUMP JUMPDEST DUP5 ADD SWAP2 POP POP SWAP3 SWAP2 POP POP JUMP JUMPDEST PUSH2 0x39CD DUP2 PUSH2 0x3641 JUMP JUMPDEST DUP3 MSTORE POP POP JUMP JUMPDEST PUSH0 DUP2 ISZERO ISZERO SWAP1 POP SWAP2 SWAP1 POP JUMP JUMPDEST PUSH2 0x39E7 DUP2 PUSH2 0x39D3 JUMP JUMPDEST DUP3 MSTORE POP POP JUMP JUMPDEST PUSH0 PUSH1 0xA0 DUP4 ADD PUSH0 DUP4 ADD MLOAD DUP5 DUP3 SUB PUSH0 DUP7 ADD MSTORE PUSH2 0x3A07 DUP3 DUP3 PUSH2 0x398C JUMP JUMPDEST SWAP2 POP POP PUSH1 0x20 DUP4 ADD MLOAD PUSH2 0x3A1C PUSH1 0x20 DUP7 ADD DUP3 PUSH2 0x39C4 JUMP JUMPDEST POP PUSH1 0x40 DUP4 ADD MLOAD PUSH2 0x3A2F PUSH1 0x40 DUP7 ADD DUP3 PUSH2 0x39C4 JUMP JUMPDEST POP PUSH1 0x60 DUP4 ADD MLOAD PUSH2 0x3A42 PUSH1 0x60 DUP7 ADD DUP3 PUSH2 0x39C4 JUMP JUMPDEST POP PUSH1 0x80 DUP4 ADD MLOAD PUSH2 0x3A55 PUSH1 0x80 DUP7 ADD DUP3 PUSH2 0x39DE JUMP JUMPDEST POP DUP1 SWAP2 POP POP SWAP3 SWAP2 POP POP JUMP JUMPDEST PUSH0 PUSH2 0x3A6B DUP4 DUP4 PUSH2 0x39ED JUMP JUMPDEST SWAP1 POP SWAP3 SWAP2 POP POP JUMP JUMPDEST PUSH0 PUSH1 0x20 DUP3 ADD SWAP1 POP SWAP2 SWAP1 POP JUMP JUMPDEST PUSH0 PUSH2 0x3A89 DUP3 PUSH2 0x3947 JUMP JUMPDEST PUSH2 0x3A93 DUP2 DUP6 PUSH2 0x3951 JUMP JUMPDEST SWAP4 POP DUP4 PUSH1 0x20 DUP3 MUL DUP6 ADD PUSH2 0x3AA5 DUP6 PUSH2 0x395B JUMP JUMPDEST DUP1 PUSH0 JUMPDEST DUP6 DUP2 LT ISZERO PUSH2 0x3AE0 JUMPI DUP5 DUP5 SUB DUP10 MSTORE DUP2 MLOAD PUSH2 0x3AC1 DUP6 DUP3 PUSH2 0x3A60 JUMP JUMPDEST SWAP5 POP PUSH2 0x3ACC DUP4 PUSH2 0x3A73 JUMP JUMPDEST SWAP3 POP PUSH1 0x20 DUP11 ADD SWAP10 POP POP PUSH1 0x1 DUP2 ADD SWAP1 POP PUSH2 0x3AA8 JUMP JUMPDEST POP DUP3 SWAP8 POP DUP8 SWAP6 POP POP POP POP POP POP SWAP3 SWAP2 POP POP JUMP JUMPDEST PUSH0 PUSH1 0x20 DUP3 ADD SWAP1 POP DUP2 DUP2 SUB PUSH0 DUP4 ADD MSTORE PUSH2 0x3B0A DUP2 DUP5 PUSH2 0x3A7F JUMP JUMPDEST SWAP1 POP SWAP3 SWAP2 POP POP JUMP JUMPDEST PUSH2 0x3B1B DUP2 PUSH2 0x3606 JUMP JUMPDEST DUP3 MSTORE POP POP JUMP JUMPDEST PUSH0 PUSH1 0x20 DUP3 ADD SWAP1 POP PUSH2 0x3B34 PUSH0 DUP4 ADD DUP5 PUSH2 0x3B12 JUMP JUMPDEST SWAP3 SWAP2 POP POP JUMP JUMPDEST PUSH2 0x3B43 DUP2 PUSH2 0x39D3 JUMP JUMPDEST DUP3 MSTORE POP POP JUMP JUMPDEST PUSH0 PUSH1 0x20 DUP3 ADD SWAP1 POP PUSH2 0x3B5C PUSH0 DUP4 ADD DUP5 PUSH2 0x3B3A JUMP JUMPDEST SWAP3 SWAP2 POP POP JUMP JUMPDEST PUSH0 DUP2 MLOAD SWAP1 POP SWAP2 SWAP1 POP JUMP JUMPDEST PUSH0 DUP3 DUP3 MSTORE PUSH1 0x20 DUP3 ADD SWAP1 POP SWAP3 SWAP2 POP POP JUMP JUMPDEST PUSH0 DUP2 SWAP1 POP PUSH1 0x20 DUP3 ADD SWAP1 POP SWAP2 SWAP1 POP JUMP JUMPDEST PUSH32 0x4E487B7100000000000000000000000000000000000000000000000000000000 PUSH0 MSTORE PUSH1 0x21 PUSH1 0x4 MSTORE PUSH1 0x24 PUSH0 REVERT JUMPDEST PUSH1 0x3 DUP2 LT PUSH2 0x3BC9 JUMPI PUSH2 0x3BC8 PUSH2 0x3B8B JUMP JUMPDEST JUMPDEST POP JUMP JUMPDEST PUSH0 DUP2 SWAP1 POP PUSH2 0x3BD9 DUP3 PUSH2 0x3BB8 JUMP JUMPDEST SWAP2 SWAP1 POP JUMP JUMPDEST PUSH0 PUSH2 0x3BE8 DUP3 PUSH2 0x3BCC JUMP JUMPDEST SWAP1 POP SWAP2 SWAP1 POP JUMP JUMPDEST PUSH2 0x3BF8 DUP2 PUSH2 0x3BDE JUMP JUMPDEST DUP3 MSTORE POP POP JUMP JUMPDEST PUSH1 0xC0 DUP3 ADD PUSH0 DUP3 ADD MLOAD PUSH2 0x3C12 PUSH0 DUP6 ADD DUP3 PUSH2 0x39C4 JUMP JUMPDEST POP PUSH1 0x20 DUP3 ADD MLOAD PUSH2 0x3C25 PUSH1 0x20 DUP6 ADD DUP3 PUSH2 0x3BEF JUMP JUMPDEST POP PUSH1 0x40 DUP3 ADD MLOAD PUSH2 0x3C38 PUSH1 0x40 DUP6 ADD DUP3 PUSH2 0x39C4 JUMP JUMPDEST POP PUSH1 0x60 DUP3 ADD MLOAD PUSH2 0x3C4B PUSH1 0x60 DUP6 ADD DUP3 PUSH2 0x39DE JUMP JUMPDEST POP PUSH1 0x80 DUP3 ADD MLOAD PUSH2 0x3C5E PUSH1 0x80 DUP6 ADD DUP3 PUSH2 0x39DE JUMP JUMPDEST POP PUSH1 0xA0 DUP3 ADD MLOAD PUSH2 0x3C71 PUSH1 0xA0 DUP6 ADD DUP3 PUSH2 0x39C4 JUMP JUMPDEST POP POP POP POP JUMP JUMPDEST PUSH0 PUSH2 0x3C82 DUP4 DUP4 PUSH2 0x3BFE JUMP JUMPDEST PUSH1 0xC0 DUP4 ADD SWAP1 POP SWAP3 SWAP2 POP POP JUMP JUMPDEST PUSH0 PUSH1 0x20 DUP3 ADD SWAP1 POP SWAP2 SWAP1 POP JUMP JUMPDEST PUSH0 PUSH2 0x3CA4 DUP3 PUSH2 0x3B62 JUMP JUMPDEST PUSH2 0x3CAE DUP2 DUP6 PUSH2 0x3B6C JUMP JUMPDEST SWAP4 POP PUSH2 0x3CB9 DUP4 PUSH2 0x3B7C JUMP JUMPDEST DUP1 PUSH0 JUMPDEST DUP4 DUP2 LT ISZERO PUSH2 0x3CE9 JUMPI DUP2 MLOAD PUSH2 0x3CD0 DUP9 DUP3 PUSH2 0x3C77 JUMP JUMPDEST SWAP8 POP PUSH2 0x3CDB DUP4 PUSH2 0x3C8E JUMP JUMPDEST SWAP3 POP POP PUSH1 0x1 DUP2 ADD SWAP1 POP PUSH2 0x3CBC JUMP JUMPDEST POP DUP6 SWAP4 POP POP POP POP SWAP3 SWAP2 POP POP JUMP JUMPDEST PUSH0 PUSH1 0x20 DUP3 ADD SWAP1 POP DUP2 DUP2 SUB PUSH0 DUP4 ADD MSTORE PUSH2 0x3D0E DUP2 DUP5 PUSH2 0x3C9A JUMP JUMPDEST SWAP1 POP SWAP3 SWAP2 POP POP JUMP JUMPDEST PUSH0 PUSH0 PUSH0 PUSH1 0x60 DUP5 DUP7 SUB SLT ISZERO PUSH2 0x3D2D JUMPI PUSH2 0x3D2C PUSH2 0x35DF JUMP JUMPDEST JUMPDEST PUSH0 PUSH2 0x3D3A DUP7 DUP3 DUP8 ADD PUSH2 0x362D JUMP JUMPDEST SWAP4 POP POP PUSH1 0x20 PUSH2 0x3D4B DUP7 DUP3 DUP8 ADD PUSH2 0x3660 JUMP JUMPDEST SWAP3 POP POP PUSH1 0x40 PUSH2 0x3D5C DUP7 DUP3 DUP8 ADD PUSH2 0x3660 JUMP JUMPDEST SWAP2 POP POP SWAP3 POP SWAP3 POP SWAP3 JUMP JUMPDEST PUSH0 PUSH0 REVERT JUMPDEST PUSH0 PUSH0 DUP4 PUSH1 0x1F DUP5 ADD SLT PUSH2 0x3D7F JUMPI PUSH2 0x3D7E PUSH2 0x3705 JUMP JUMPDEST JUMPDEST DUP3 CALLDATALOAD SWAP1 POP PUSH8 0xFFFFFFFFFFFFFFFF DUP2 GT ISZERO PUSH2 0x3D9C JUMPI PUSH2 0x3D9B PUSH2 0x3D66 JUMP JUMPDEST JUMPDEST PUSH1 0x20 DUP4 ADD SWAP2 POP DUP4 PUSH1 0x1 DUP3 MUL DUP4 ADD GT ISZERO PUSH2 0x3DB8 JUMPI PUSH2 0x3DB7 PUSH2 0x37B6 JUMP JUMPDEST JUMPDEST SWAP3 POP SWAP3 SWAP1 POP JUMP JUMPDEST PUSH0 DUP2 SWAP1 POP DUP3 PUSH1 0x20 PUSH1 0x3 MUL DUP3 ADD GT ISZERO PUSH2 0x3DDA JUMPI PUSH2 0x3DD9 PUSH2 0x37B6 JUMP JUMPDEST JUMPDEST SWAP3 SWAP2 POP POP JUMP JUMPDEST PUSH0 PUSH0 PUSH0 PUSH0 PUSH0 PUSH0 PUSH0 PUSH0 PUSH2 0x140 DUP10 DUP12 SUB SLT ISZERO PUSH2 0x3DFD JUMPI PUSH2 0x3DFC PUSH2 0x35DF JUMP JUMPDEST JUMPDEST PUSH0 DUP10 ADD CALLDATALOAD PUSH8 0xFFFFFFFFFFFFFFFF DUP2 GT ISZERO PUSH2 0x3E1A JUMPI PUSH2 0x3E19 PUSH2 0x35E3 JUMP JUMPDEST JUMPDEST PUSH2 0x3E26 DUP12 DUP3 DUP13 ADD PUSH2 0x3D6A JUMP JUMPDEST SWAP9 POP SWAP9 POP POP PUSH1 0x20 PUSH2 0x3E39 DUP12 DUP3 DUP13 ADD PUSH2 0x3819 JUMP JUMPDEST SWAP7 POP POP PUSH1 0x80 PUSH2 0x3E4A DUP12 DUP3 DUP13 ADD PUSH2 0x3660 JUMP JUMPDEST SWAP6 POP POP PUSH1 0xA0 PUSH2 0x3E5B DUP12 DUP3 DUP13 ADD PUSH2 0x3819 JUMP JUMPDEST SWAP5 POP POP PUSH2 0x100 DUP10 ADD CALLDATALOAD PUSH8 0xFFFFFFFFFFFFFFFF DUP2 GT ISZERO PUSH2 0x3E7D JUMPI PUSH2 0x3E7C PUSH2 0x35E3 JUMP JUMPDEST JUMPDEST PUSH2 0x3E89 DUP12 DUP3 DUP13 ADD PUSH2 0x3D6A JUMP JUMPDEST SWAP4 POP SWAP4 POP POP PUSH2 0x120 DUP10 ADD CALLDATALOAD PUSH8 0xFFFFFFFFFFFFFFFF DUP2 GT ISZERO PUSH2 0x3EAD JUMPI PUSH2 0x3EAC PUSH2 0x35E3 JUMP JUMPDEST JUMPDEST PUSH2 0x3EB9 DUP12 DUP3 DUP13 ADD PUSH2 0x3DBF JUMP JUMPDEST SWAP2 POP POP SWAP3 SWAP6 SWAP9 POP SWAP3 SWAP6 SWAP9 SWAP1 SWAP4 SWAP7 POP JUMP JUMPDEST PUSH0 PUSH1 0x3 SWAP1 POP SWAP2 SWAP1 POP JUMP JUMPDEST PUSH0 DUP2 SWAP1 POP SWAP3 SWAP2 POP POP JUMP JUMPDEST PUSH0 DUP2 SWAP1 POP SWAP2 SWAP1 POP JUMP JUMPDEST PUSH0 PUSH2 0x3EF1 DUP4 DUP4 PUSH2 0x39C4 JUMP JUMPDEST PUSH1 0x20 DUP4 ADD SWAP1 POP SWAP3 SWAP2 POP POP JUMP JUMPDEST PUSH0 PUSH1 0x20 DUP3 ADD SWAP1 POP SWAP2 SWAP1 POP JUMP JUMPDEST PUSH2 0x3F12 DUP2 PUSH2 0x3EC9 JUMP JUMPDEST PUSH2 0x3F1C DUP2 DUP5 PUSH2 0x3ED3 JUMP JUMPDEST SWAP3 POP PUSH2 0x3F27 DUP3 PUSH2 0x3EDD JUMP JUMPDEST DUP1 PUSH0 JUMPDEST DUP4 DUP2 LT ISZERO PUSH2 0x3F57 JUMPI DUP2 MLOAD PUSH2 0x3F3E DUP8 DUP3 PUSH2 0x3EE6 JUMP JUMPDEST SWAP7 POP PUSH2 0x3F49 DUP4 PUSH2 0x3EFD JUMP JUMPDEST SWAP3 POP POP PUSH1 0x1 DUP2 ADD SWAP1 POP PUSH2 0x3F2A JUMP JUMPDEST POP POP POP POP POP POP JUMP JUMPDEST PUSH0 PUSH1 0x3 SWAP1 POP SWAP2 SWAP1 POP JUMP JUMPDEST PUSH0 DUP2 SWAP1 POP SWAP3 SWAP2 POP POP JUMP JUMPDEST PUSH0 DUP2 SWAP1 POP SWAP2 SWAP1 POP JUMP JUMPDEST PUSH0 PUSH2 0x3F87 DUP4 DUP4 PUSH2 0x398C JUMP JUMPDEST SWAP1 POP SWAP3 SWAP2 POP POP JUMP JUMPDEST PUSH0 PUSH1 0x20 DUP3 ADD SWAP1 POP SWAP2 SWAP1 POP JUMP JUMPDEST PUSH0 PUSH2 0x3FA5 DUP3 PUSH2 0x3F5F JUMP JUMPDEST PUSH2 0x3FAF DUP2 DUP6 PUSH2 0x3F69 JUMP JUMPDEST SWAP4 POP DUP4 PUSH1 0x20 DUP3 MUL DUP6 ADD PUSH2 0x3FC1 DUP6 PUSH2 0x3F73 JUMP JUMPDEST DUP1 PUSH0 JUMPDEST DUP6 DUP2 LT ISZERO PUSH2 0x3FFC JUMPI DUP5 DUP5 SUB DUP10 MSTORE DUP2 MLOAD PUSH2 0x3FDD DUP6 DUP3 PUSH2 0x3F7C JUMP JUMPDEST SWAP5 POP PUSH2 0x3FE8 DUP4 PUSH2 0x3F8F JUMP JUMPDEST SWAP3 POP PUSH1 0x20 DUP11 ADD SWAP10 POP POP PUSH1 0x1 DUP2 ADD SWAP1 POP PUSH2 0x3FC4 JUMP JUMPDEST POP DUP3 SWAP8 POP DUP8 SWAP6 POP POP POP POP POP POP SWAP3 SWAP2 POP POP JUMP JUMPDEST PUSH0 PUSH2 0x160 DUP4 ADD PUSH0 DUP4 ADD MLOAD PUSH2 0x4024 PUSH0 DUP7 ADD DUP3 PUSH2 0x3F09 JUMP JUMPDEST POP PUSH1 0x20 DUP4 ADD MLOAD PUSH2 0x4037 PUSH1 0x60 DUP7 ADD DUP3 PUSH2 0x39C4 JUMP JUMPDEST POP PUSH1 0x40 DUP4 ADD MLOAD PUSH2 0x404A PUSH1 0x80 DUP7 ADD DUP3 PUSH2 0x3F09 JUMP JUMPDEST POP PUSH1 0x60 DUP4 ADD MLOAD DUP5 DUP3 SUB PUSH1 0xE0 DUP7 ADD MSTORE PUSH2 0x4062 DUP3 DUP3 PUSH2 0x398C JUMP JUMPDEST SWAP2 POP POP PUSH1 0x80 DUP4 ADD MLOAD PUSH2 0x4078 PUSH2 0x100 DUP7 ADD DUP3 PUSH2 0x39DE JUMP JUMPDEST POP PUSH1 0xA0 DUP4 ADD MLOAD DUP5 DUP3 SUB PUSH2 0x120 DUP7 ADD MSTORE PUSH2 0x4091 DUP3 DUP3 PUSH2 0x398C JUMP JUMPDEST SWAP2 POP POP PUSH1 0xC0 DUP4 ADD MLOAD DUP5 DUP3 SUB PUSH2 0x140 DUP7 ADD MSTORE PUSH2 0x40AC DUP3 DUP3 PUSH2 0x3F9B JUMP JUMPDEST SWAP2 POP POP DUP1 SWAP2 POP POP SWAP3 SWAP2 POP POP JUMP JUMPDEST PUSH0 PUSH1 0x20 DUP3 ADD SWAP1 POP DUP2 DUP2 SUB PUSH0 DUP4 ADD MSTORE PUSH2 0x40D1 DUP2 DUP5 PUSH2 0x400E JUMP JUMPDEST SWAP1 POP SWAP3 SWAP2 POP POP JUMP JUMPDEST PUSH0 PUSH1 0xFF DUP3 AND SWAP1 POP SWAP2 SWAP1 POP JUMP JUMPDEST PUSH2 0x40EE DUP2 PUSH2 0x40D9 JUMP JUMPDEST DUP2 EQ PUSH2 0x40F8 JUMPI PUSH0 PUSH0 REVERT JUMPDEST POP JUMP JUMPDEST PUSH0 DUP2 CALLDATALOAD SWAP1 POP PUSH2 0x4109 DUP2 PUSH2 0x40E5 JUMP JUMPDEST SWAP3 SWAP2 POP POP JUMP JUMPDEST PUSH0 PUSH0 PUSH1 0x40 DUP4 DUP6 SUB SLT ISZERO PUSH2 0x4125 JUMPI PUSH2 0x4124 PUSH2 0x35DF JUMP JUMPDEST JUMPDEST PUSH0 PUSH2 0x4132 DUP6 DUP3 DUP7 ADD PUSH2 0x3660 JUMP JUMPDEST SWAP3 POP POP PUSH1 0x20 PUSH2 0x4143 DUP6 DUP3 DUP7 ADD PUSH2 0x40FB JUMP JUMPDEST SWAP2 POP POP SWAP3 POP SWAP3 SWAP1 POP JUMP JUMPDEST PUSH0 DUP3 DUP3 MSTORE PUSH1 0x20 DUP3 ADD SWAP1 POP SWAP3 SWAP2 POP POP JUMP JUMPDEST PUSH32 0x50617373206973207374696C6C20616374697665000000000000000000000000 PUSH0 DUP3 ADD MSTORE POP JUMP JUMPDEST PUSH0 PUSH2 0x4191 PUSH1 0x14 DUP4 PUSH2 0x414D JUMP JUMPDEST SWAP2 POP PUSH2 0x419C DUP3 PUSH2 0x415D JUMP JUMPDEST PUSH1 0x20 DUP3 ADD SWAP1 POP SWAP2 SWAP1 POP JUMP JUMPDEST PUSH0 PUSH1 0x20 DUP3 ADD SWAP1 POP DUP2 DUP2 SUB PUSH0 DUP4 ADD MSTORE PUSH2 0x41BE DUP2 PUSH2 0x4185 JUMP JUMPDEST SWAP1 POP SWAP2 SWAP1 POP JUMP JUMPDEST PUSH32 0x4E487B7100000000000000000000000000000000000000000000000000000000 PUSH0 MSTORE PUSH1 0x32 PUSH1 0x4 MSTORE PUSH1 0x24 PUSH0 REVERT JUMPDEST PUSH32 0x4E487B7100000000000000000000000000000000000000000000000000000000 PUSH0 MSTORE PUSH1 0x11 PUSH1 0x4 MSTORE PUSH1 0x24 PUSH0 REVERT JUMPDEST PUSH0 PUSH2 0x4229 DUP3 PUSH2 0x3641 JUMP JUMPDEST SWAP2 POP PUSH2 0x4234 DUP4 PUSH2 0x3641 JUMP JUMPDEST SWAP3 POP DUP3 DUP3 ADD SWAP1 POP DUP1 DUP3 GT ISZERO PUSH2 0x424C JUMPI PUSH2 0x424B PUSH2 0x41F2 JUMP JUMPDEST JUMPDEST SWAP3 SWAP2 POP POP JUMP JUMPDEST PUSH2 0x425B DUP2 PUSH2 0x3BDE JUMP JUMPDEST DUP3 MSTORE POP POP JUMP JUMPDEST PUSH0 PUSH1 0x40 DUP3 ADD SWAP1 POP PUSH2 0x4274 PUSH0 DUP4 ADD DUP6 PUSH2 0x36B2 JUMP JUMPDEST PUSH2 0x4281 PUSH1 0x20 DUP4 ADD DUP5 PUSH2 0x4252 JUMP JUMPDEST SWAP4 SWAP3 POP POP POP JUMP JUMPDEST PUSH0 DUP2 SWAP1 POP SWAP3 SWAP2 POP POP JUMP JUMPDEST PUSH2 0x429B DUP2 PUSH2 0x3641 JUMP JUMPDEST DUP3 MSTORE POP POP JUMP JUMPDEST PUSH0 PUSH2 0x42AC DUP4 DUP4 PUSH2 0x4292 JUMP JUMPDEST PUSH1 0x20 DUP4 ADD SWAP1 POP SWAP3 SWAP2 POP POP JUMP JUMPDEST PUSH2 0x42C1 DUP2 PUSH2 0x3EC9 JUMP JUMPDEST PUSH2 0x42CB DUP2 DUP5 PUSH2 0x4288 JUMP JUMPDEST SWAP3 POP PUSH2 0x42D6 DUP3 PUSH2 0x3EDD JUMP JUMPDEST DUP1 PUSH0 JUMPDEST DUP4 DUP2 LT ISZERO PUSH2 0x4306 JUMPI DUP2 MLOAD PUSH2 0x42ED DUP8 DUP3 PUSH2 0x42A1 JUMP JUMPDEST SWAP7 POP PUSH2 0x42F8 DUP4 PUSH2 0x3EFD JUMP JUMPDEST SWAP3 POP POP PUSH1 0x1 DUP2 ADD SWAP1 POP PUSH2 0x42D9 JUMP JUMPDEST POP POP POP POP POP POP JUMP JUMPDEST PUSH2 0x4317 DUP2 PUSH2 0x3641 JUMP JUMPDEST DUP3 MSTORE POP POP JUMP JUMPDEST PUSH0 PUSH1 0xE0 DUP3 ADD SWAP1 POP PUSH2 0x4330 PUSH0 DUP4 ADD DUP7 PUSH2 0x42B8 JUMP JUMPDEST PUSH2 0x433D PUSH1 0x60 DUP4 ADD DUP6 PUSH2 0x430E JUMP JUMPDEST PUSH2 0x434A PUSH1 0x80 DUP4 ADD DUP5 PUSH2 0x42B8 JUMP JUMPDEST SWAP5 SWAP4 POP POP POP POP JUMP JUMPDEST PUSH32 0x4D6178207061737365732062656C6F772063757272656E7420736F6C64000000 PUSH0 DUP3 ADD MSTORE POP JUMP JUMPDEST PUSH0 PUSH2 0x4386 PUSH1 0x1D DUP4 PUSH2 0x414D JUMP JUMPDEST SWAP2 POP PUSH2 0x4391 DUP3 PUSH2 0x4352 JUMP JUMPDEST PUSH1 0x20 DUP3 ADD SWAP1 POP SWAP2 SWAP1 POP JUMP JUMPDEST PUSH0 PUSH1 0x20 DUP3 ADD SWAP1 POP DUP2 DUP2 SUB PUSH0 DUP4 ADD MSTORE PUSH2 0x43B3 DUP2 PUSH2 0x437A JUMP JUMPDEST SWAP1 POP SWAP2 SWAP1 POP JUMP JUMPDEST PUSH0 DUP2 SWAP1 POP SWAP3 SWAP2 POP POP JUMP JUMPDEST PUSH2 0x43CD DUP2 PUSH2 0x3EC9 JUMP JUMPDEST PUSH2 0x43D7 DUP2 DUP5 PUSH2 0x43BA JUMP JUMPDEST SWAP3 POP PUSH2 0x43E2 DUP3 PUSH2 0x3EDD JUMP JUMPDEST DUP1 PUSH0 JUMPDEST DUP4 DUP2 LT ISZERO PUSH2 0x4412 JUMPI DUP2 MLOAD PUSH2 0x43F9 DUP8 DUP3 PUSH2 0x3EE6 JUMP JUMPDEST SWAP7 POP PUSH2 0x4404 DUP4 PUSH2 0x3EFD JUMP JUMPDEST SWAP3 POP POP PUSH1 0x1 DUP2 ADD SWAP1 POP PUSH2 0x43E5 JUMP JUMPDEST POP POP POP POP POP POP JUMP JUMPDEST PUSH0 PUSH1 0xE0 DUP3 ADD SWAP1 POP PUSH2 0x442D PUSH0 DUP4 ADD DUP7 PUSH2 0x43C4 JUMP JUMPDEST PUSH2 0x443A PUSH1 0x60 DUP4 ADD DUP6 PUSH2 0x36B2 JUMP JUMPDEST PUSH2 0x4447 PUSH1 0x80 DUP4 ADD DUP5 PUSH2 0x43C4 JUMP JUMPDEST SWAP5 SWAP4 POP POP POP POP JUMP JUMPDEST PUSH0 DUP2 MLOAD SWAP1 POP PUSH2 0x445D DUP2 PUSH2 0x364A JUMP JUMPDEST SWAP3 SWAP2 POP POP JUMP JUMPDEST PUSH0 PUSH1 0x20 DUP3 DUP5 SUB SLT ISZERO PUSH2 0x4478 JUMPI PUSH2 0x4477 PUSH2 0x35DF JUMP JUMPDEST JUMPDEST PUSH0 PUSH2 0x4485 DUP5 DUP3 DUP6 ADD PUSH2 0x444F JUMP JUMPDEST SWAP2 POP POP SWAP3 SWAP2 POP POP JUMP JUMPDEST PUSH32 0x496E73756666696369656E742062616C616E6365000000000000000000000000 PUSH0 DUP3 ADD MSTORE POP JUMP JUMPDEST PUSH0 PUSH2 0x44C2 PUSH1 0x14 DUP4 PUSH2 0x414D JUMP JUMPDEST SWAP2 POP PUSH2 0x44CD DUP3 PUSH2 0x448E JUMP JUMPDEST PUSH1 0x20 DUP3 ADD SWAP1 POP SWAP2 SWAP1 POP JUMP JUMPDEST PUSH0 PUSH1 0x20 DUP3 ADD SWAP1 POP DUP2 DUP2 SUB PUSH0 DUP4 ADD MSTORE PUSH2 0x44EF DUP2 PUSH2 0x44B6 JUMP JUMPDEST SWAP1 POP SWAP2 SWAP1 POP JUMP JUMPDEST PUSH0 PUSH1 0x40 DUP3 ADD SWAP1 POP PUSH2 0x4509 PUSH0 DUP4 ADD DUP6 PUSH2 0x3B12 JUMP JUMPDEST PUSH2 0x4516 PUSH1 0x20 DUP4 ADD DUP5 PUSH2 0x36B2 JUMP JUMPDEST SWAP4 SWAP3 POP POP POP JUMP JUMPDEST PUSH2 0x4526 DUP2 PUSH2 0x39D3 JUMP JUMPDEST DUP2 EQ PUSH2 0x4530 JUMPI PUSH0 PUSH0 REVERT JUMPDEST POP JUMP JUMPDEST PUSH0 DUP2 MLOAD SWAP1 POP PUSH2 0x4541 DUP2 PUSH2 0x451D JUMP JUMPDEST SWAP3 SWAP2 POP POP JUMP JUMPDEST PUSH0 PUSH1 0x20 DUP3 DUP5 SUB SLT ISZERO PUSH2 0x455C JUMPI PUSH2 0x455B PUSH2 0x35DF JUMP JUMPDEST JUMPDEST PUSH0 PUSH2 0x4569 DUP5 DUP3 DUP6 ADD PUSH2 0x4533 JUMP JUMPDEST SWAP2 POP POP SWAP3 SWAP2 POP POP JUMP JUMPDEST PUSH32 0x5472616E73666572206661696C65640000000000000000000000000000000000 PUSH0 DUP3 ADD MSTORE POP JUMP JUMPDEST PUSH0 PUSH2 0x45A6 PUSH1 0xF DUP4 PUSH2 0x414D JUMP JUMPDEST SWAP2 POP PUSH2 0x45B1 DUP3 PUSH2 0x4572 JUMP JUMPDEST PUSH1 0x20 DUP3 ADD SWAP1 POP SWAP2 SWAP1 POP JUMP JUMPDEST PUSH0 PUSH1 0x20 DUP3 ADD SWAP1 POP DUP2 DUP2 SUB PUSH0 DUP4 ADD MSTORE PUSH2 0x45D3 DUP2 PUSH2 0x459A JUMP JUMPDEST SWAP1 POP SWAP2 SWAP1 POP JUMP JUMPDEST DUP1 DUP3 MSTORE POP POP JUMP JUMPDEST PUSH2 0x45EA DUP2 PUSH2 0x3606 JUMP JUMPDEST DUP3 MSTORE POP POP JUMP JUMPDEST PUSH0 PUSH1 0x60 DUP3 ADD SWAP1 POP PUSH2 0x4603 PUSH0 DUP4 ADD DUP7 PUSH2 0x45DA JUMP JUMPDEST PUSH2 0x4610 PUSH1 0x20 DUP4 ADD DUP6 PUSH2 0x45E1 JUMP JUMPDEST PUSH2 0x461D PUSH1 0x40 DUP4 ADD DUP5 PUSH2 0x430E JUMP JUMPDEST SWAP5 SWAP4 POP POP POP POP JUMP JUMPDEST PUSH32 0x4E487B7100000000000000000000000000000000000000000000000000000000 PUSH0 MSTORE PUSH1 0x22 PUSH1 0x4 MSTORE PUSH1 0x24 PUSH0 REVERT JUMPDEST PUSH0 PUSH1 0x2 DUP3 DIV SWAP1 POP PUSH1 0x1 DUP3 AND DUP1 PUSH2 0x4669 JUMPI PUSH1 0x7F DUP3 AND SWAP2 POP JUMPDEST PUSH1 0x20 DUP3 LT DUP2 SUB PUSH2 0x467C JUMPI PUSH2 0x467B PUSH2 0x4625 JUMP JUMPDEST JUMPDEST POP SWAP2 SWAP1 POP JUMP JUMPDEST PUSH2 0x468B DUP2 PUSH2 0x3BDE JUMP JUMPDEST DUP3 MSTORE POP POP JUMP JUMPDEST PUSH0 PUSH1 0x20 DUP3 ADD SWAP1 POP PUSH2 0x46A4 PUSH0 DUP4 ADD DUP5 PUSH2 0x4682 JUMP JUMPDEST SWAP3 SWAP2 POP POP JUMP JUMPDEST PUSH0 PUSH0 REVERT JUMPDEST PUSH0 PUSH8 0xFFFFFFFFFFFFFFFF DUP3 GT ISZERO PUSH2 0x46C8 JUMPI PUSH2 0x46C7 PUSH2 0x3719 JUMP JUMPDEST JUMPDEST PUSH2 0x46D1 DUP3 PUSH2 0x3709 JUMP JUMPDEST SWAP1 POP PUSH1 0x20 DUP2 ADD SWAP1 POP SWAP2 SWAP1 POP JUMP JUMPDEST PUSH0 PUSH2 0x46F0 PUSH2 0x46EB DUP5 PUSH2 0x46AE JUMP JUMPDEST PUSH2 0x3777 JUMP JUMPDEST SWAP1 POP DUP3 DUP2 MSTORE PUSH1 0x20 DUP2 ADD DUP5 DUP5 DUP5 ADD GT ISZERO PUSH2 0x470C JUMPI PUSH2 0x470B PUSH2 0x46AA JUMP JUMPDEST JUMPDEST PUSH2 0x4717 DUP5 DUP3 DUP6 PUSH2 0x397E JUMP JUMPDEST POP SWAP4 SWAP3 POP POP POP JUMP JUMPDEST PUSH0 DUP3 PUSH1 0x1F DUP4 ADD SLT PUSH2 0x4733 JUMPI PUSH2 0x4732 PUSH2 0x3705 JUMP JUMPDEST JUMPDEST DUP2 MLOAD PUSH2 0x4743 DUP5 DUP3 PUSH1 0x20 DUP7 ADD PUSH2 0x46DE JUMP JUMPDEST SWAP2 POP POP SWAP3 SWAP2 POP POP JUMP JUMPDEST PUSH0 PUSH1 0x20 DUP3 DUP5 SUB SLT ISZERO PUSH2 0x4761 JUMPI PUSH2 0x4760 PUSH2 0x35DF JUMP JUMPDEST JUMPDEST PUSH0 DUP3 ADD MLOAD PUSH8 0xFFFFFFFFFFFFFFFF DUP2 GT ISZERO PUSH2 0x477E JUMPI PUSH2 0x477D PUSH2 0x35E3 JUMP JUMPDEST JUMPDEST PUSH2 0x478A DUP5 DUP3 DUP6 ADD PUSH2 0x471F JUMP JUMPDEST SWAP2 POP POP SWAP3 SWAP2 POP POP JUMP JUMPDEST PUSH32 0x5061737320616C72656164792064656163746976617465640000000000000000 PUSH0 DUP3 ADD MSTORE POP JUMP JUMPDEST PUSH0 PUSH2 0x47C7 PUSH1 0x18 DUP4 PUSH2 0x414D JUMP JUMPDEST SWAP2 POP PUSH2 0x47D2 DUP3 PUSH2 0x4793 JUMP JUMPDEST PUSH1 0x20 DUP3 ADD SWAP1 POP SWAP2 SWAP1 POP JUMP JUMPDEST PUSH0 PUSH1 0x20 DUP3 ADD SWAP1 POP DUP2 DUP2 SUB PUSH0 DUP4 ADD MSTORE PUSH2 0x47F4 DUP2 PUSH2 0x47BB JUMP JUMPDEST SWAP1 POP SWAP2 SWAP1 POP JUMP JUMPDEST PUSH0 PUSH2 0x4805 DUP3 PUSH2 0x3641 JUMP JUMPDEST SWAP2 POP PUSH0 DUP3 SUB PUSH2 0x4817 JUMPI PUSH2 0x4816 PUSH2 0x41F2 JUMP JUMPDEST JUMPDEST PUSH1 0x1 DUP3 SUB SWAP1 POP SWAP2 SWAP1 POP JUMP JUMPDEST PUSH0 PUSH1 0x20 DUP3 ADD SWAP1 POP PUSH2 0x4835 PUSH0 DUP4 ADD DUP5 PUSH2 0x45E1 JUMP JUMPDEST SWAP3 SWAP2 POP POP JUMP JUMPDEST PUSH32 0x4E6F74206120636F6E7472616374206164647265737300000000000000000000 PUSH0 DUP3 ADD MSTORE POP JUMP JUMPDEST PUSH0 PUSH2 0x486F PUSH1 0x16 DUP4 PUSH2 0x414D JUMP JUMPDEST SWAP2 POP PUSH2 0x487A DUP3 PUSH2 0x483B JUMP JUMPDEST PUSH1 0x20 DUP3 ADD SWAP1 POP SWAP2 SWAP1 POP JUMP JUMPDEST PUSH0 PUSH1 0x20 DUP3 ADD SWAP1 POP DUP2 DUP2 SUB PUSH0 DUP4 ADD MSTORE PUSH2 0x489C DUP2 PUSH2 0x4863 JUMP JUMPDEST SWAP1 POP SWAP2 SWAP1 POP JUMP JUMPDEST PUSH0 PUSH1 0x40 DUP3 ADD SWAP1 POP PUSH2 0x48B6 PUSH0 DUP4 ADD DUP6 PUSH2 0x3B12 JUMP JUMPDEST PUSH2 0x48C3 PUSH1 0x20 DUP4 ADD DUP5 PUSH2 0x3B12 JUMP JUMPDEST SWAP4 SWAP3 POP POP POP JUMP JUMPDEST PUSH0 PUSH2 0x48D4 DUP3 PUSH2 0x3641 JUMP JUMPDEST SWAP2 POP PUSH32 0xFFFFFFFFFFFFFFFFFFFFFFFFFFFFFFFFFFFFFFFFFFFFFFFFFFFFFFFFFFFFFFFF DUP3 SUB PUSH2 0x4906 JUMPI PUSH2 0x4905 PUSH2 0x41F2 JUMP JUMPDEST JUMPDEST PUSH1 0x1 DUP3 ADD SWAP1 POP SWAP2 SWAP1 POP JUMP JUMPDEST PUSH32 0x50617373206973206E6F74206163746976650000000000000000000000000000 PUSH0 DUP3 ADD MSTORE POP JUMP JUMPDEST PUSH0 PUSH2 0x4945 PUSH1 0x12 DUP4 PUSH2 0x414D JUMP JUMPDEST SWAP2 POP PUSH2 0x4950 DUP3 PUSH2 0x4911 JUMP JUMPDEST PUSH1 0x20 DUP3 ADD SWAP1 POP SWAP2 SWAP1 POP JUMP JUMPDEST PUSH0 PUSH1 0x20 DUP3 ADD SWAP1 POP DUP2 DUP2 SUB PUSH0 DUP4 ADD MSTORE PUSH2 0x4972 DUP2 PUSH2 0x4939 JUMP JUMPDEST SWAP1 POP SWAP2 SWAP1 POP JUMP JUMPDEST PUSH32 0x496E76616C6964206164646974696F6E616C2074696D65000000000000000000 PUSH0 DUP3 ADD MSTORE POP JUMP JUMPDEST PUSH0 PUSH2 0x49AD PUSH1 0x17 DUP4 PUSH2 0x414D JUMP JUMPDEST SWAP2 POP PUSH2 0x49B8 DUP3 PUSH2 0x4979 JUMP JUMPDEST PUSH1 0x20 DUP3 ADD SWAP1 POP SWAP2 SWAP1 POP JUMP JUMPDEST PUSH0 PUSH1 0x20 DUP3 ADD SWAP1 POP DUP2 DUP2 SUB PUSH0 DUP4 ADD MSTORE PUSH2 0x49DA DUP2 PUSH2 0x49A1 JUMP JUMPDEST SWAP1 POP SWAP2 SWAP1 POP JUMP JUMPDEST PUSH0 DUP3 DUP3 MSTORE PUSH1 0x20 DUP3 ADD SWAP1 POP SWAP3 SWAP2 POP POP JUMP JUMPDEST DUP3 DUP2 DUP4 CALLDATACOPY PUSH0 DUP4 DUP4 ADD MSTORE POP POP POP JUMP JUMPDEST PUSH0 PUSH2 0x4A0A DUP4 DUP6 PUSH2 0x49E1 JUMP JUMPDEST SWAP4 POP PUSH2 0x4A17 DUP4 DUP6 DUP5 PUSH2 0x49F1 JUMP JUMPDEST PUSH2 0x4A20 DUP4 PUSH2 0x3709 JUMP JUMPDEST DUP5 ADD SWAP1 POP SWAP4 SWAP3 POP POP POP JUMP JUMPDEST PUSH0 PUSH1 0x20 DUP3 ADD SWAP1 POP DUP2 DUP2 SUB PUSH0 DUP4 ADD MSTORE PUSH2 0x4A44 DUP2 DUP5 DUP7 PUSH2 0x49FF JUMP JUMPDEST SWAP1 POP SWAP4 SWAP3 POP POP POP JUMP JUMPDEST PUSH32 0x496E76616C696420495046532068617368000000000000000000000000000000 PUSH0 DUP3 ADD MSTORE POP JUMP JUMPDEST PUSH0 PUSH2 0x4A81 PUSH1 0x11 DUP4 PUSH2 0x414D JUMP JUMPDEST SWAP2 POP PUSH2 0x4A8C DUP3 PUSH2 0x4A4D JUMP JUMPDEST PUSH1 0x20 DUP3 ADD SWAP1 POP SWAP2 SWAP1 POP JUMP JUMPDEST PUSH0 PUSH1 0x20 DUP3 ADD SWAP1 POP DUP2 DUP2 SUB PUSH0 DUP4 ADD MSTORE PUSH2 0x4AAE DUP2 PUSH2 0x4A75 JUMP JUMPDEST SWAP1 POP SWAP2 SWAP1 POP JUMP JUMPDEST PUSH32 0x4576656E74206E616D6520726571756972656400000000000000000000000000 PUSH0 DUP3 ADD MSTORE POP JUMP JUMPDEST PUSH0 PUSH2 0x4AE9 PUSH1 0x13 DUP4 PUSH2 0x414D JUMP JUMPDEST SWAP2 POP PUSH2 0x4AF4 DUP3 PUSH2 0x4AB5 JUMP JUMPDEST PUSH1 0x20 DUP3 ADD SWAP1 POP SWAP2 SWAP1 POP JUMP JUMPDEST PUSH0 PUSH1 0x20 DUP3 ADD SWAP1 POP DUP2 DUP2 SUB PUSH0 DUP4 ADD MSTORE PUSH2 0x4B16 DUP2 PUSH2 0x4ADD JUMP JUMPDEST SWAP1 POP SWAP2 SWAP1 POP JUMP JUMPDEST PUSH0 PUSH8 0xFFFFFFFFFFFFFFFF DUP3 GT ISZERO PUSH2 0x4B37 JUMPI PUSH2 0x4B36 PUSH2 0x3719 JUMP JUMPDEST JUMPDEST PUSH1 0x20 DUP3 MUL SWAP1 POP SWAP2 SWAP1 POP JUMP JUMPDEST PUSH0 PUSH2 0x4B54 PUSH2 0x4B4F DUP5 PUSH2 0x46AE JUMP JUMPDEST PUSH2 0x3777 JUMP JUMPDEST SWAP1 POP DUP3 DUP2 MSTORE PUSH1 0x20 DUP2 ADD DUP5 DUP5 DUP5 ADD GT ISZERO PUSH2 0x4B70 JUMPI PUSH2 0x4B6F PUSH2 0x46AA JUMP JUMPDEST JUMPDEST PUSH2 0x4B7B DUP5 DUP3 DUP6 PUSH2 0x49F1 JUMP JUMPDEST POP SWAP4 SWAP3 POP POP POP JUMP JUMPDEST PUSH0 DUP3 PUSH1 0x1F DUP4 ADD SLT PUSH2 0x4B97 JUMPI PUSH2 0x4B96 PUSH2 0x3705 JUMP JUMPDEST JUMPDEST DUP2 CALLDATALOAD PUSH2 0x4BA7 DUP5 DUP3 PUSH1 0x20 DUP7 ADD PUSH2 0x4B42 JUMP JUMPDEST SWAP2 POP POP SWAP3 SWAP2 POP POP JUMP JUMPDEST PUSH0 PUSH2 0x4BC2 PUSH2 0x4BBD DUP5 PUSH2 0x4B1D JUMP JUMPDEST PUSH2 0x3777 JUMP JUMPDEST SWAP1 POP DUP1 PUSH1 0x20 DUP5 MUL DUP4 ADD DUP6 DUP2 GT ISZERO PUSH2 0x4BDC JUMPI PUSH2 0x4BDB PUSH2 0x37B6 JUMP JUMPDEST JUMPDEST DUP4 JUMPDEST DUP2 DUP2 LT ISZERO PUSH2 0x4C23 JUMPI DUP1 CALLDATALOAD PUSH8 0xFFFFFFFFFFFFFFFF DUP2 GT ISZERO PUSH2 0x4C01 JUMPI PUSH2 0x4C00 PUSH2 0x3705 JUMP JUMPDEST JUMPDEST DUP1 DUP7 ADD PUSH2 0x4C0E DUP10 DUP3 PUSH2 0x4B83 JUMP JUMPDEST DUP6 MSTORE PUSH1 0x20 DUP6 ADD SWAP5 POP POP POP PUSH1 0x20 DUP2 ADD SWAP1 POP PUSH2 0x4BDE JUMP JUMPDEST POP POP POP SWAP4 SWAP3 POP POP POP JUMP JUMPDEST PUSH0 PUSH2 0x4C3A CALLDATASIZE PUSH1 0x3 DUP5 PUSH2 0x4BB0 JUMP JUMPDEST SWAP1 POP SWAP2 SWAP1 POP JUMP JUMPDEST PUSH0 DUP2 SWAP1 POP DUP2 PUSH0 MSTORE PUSH1 0x20 PUSH0 KECCAK256 SWAP1 POP SWAP2 SWAP1 POP JUMP JUMPDEST PUSH0 PUSH1 0x20 PUSH1 0x1F DUP4 ADD DIV SWAP1 POP SWAP2 SWAP1 POP JUMP JUMPDEST PUSH0 DUP3 DUP3 SHL SWAP1 POP SWAP3 SWAP2 POP POP JUMP JUMPDEST PUSH0 PUSH1 0x8 DUP4 MUL PUSH2 0x4C9D PUSH32 0xFFFFFFFFFFFFFFFFFFFFFFFFFFFFFFFFFFFFFFFFFFFFFFFFFFFFFFFFFFFFFFFF DUP3 PUSH2 0x4C62 JUMP JUMPDEST PUSH2 0x4CA7 DUP7 DUP4 PUSH2 0x4C62 JUMP JUMPDEST SWAP6 POP DUP1 NOT DUP5 AND SWAP4 POP DUP1 DUP7 AND DUP5 OR SWAP3 POP POP POP SWAP4 SWAP3 POP POP POP JUMP JUMPDEST PUSH0 PUSH2 0x4CD9 PUSH2 0x4CD4 PUSH2 0x4CCF DUP5 PUSH2 0x3641 JUMP JUMPDEST PUSH2 0x38A8 JUMP JUMPDEST PUSH2 0x3641 JUMP JUMPDEST SWAP1 POP SWAP2 SWAP1 POP JUMP JUMPDEST PUSH0 DUP2 SWAP1 POP SWAP2 SWAP1 POP JUMP JUMPDEST PUSH2 0x4CF2 DUP4 PUSH2 0x4CBF JUMP JUMPDEST PUSH2 0x4D06 PUSH2 0x4CFE DUP3 PUSH2 0x4CE0 JUMP JUMPDEST DUP5 DUP5 SLOAD PUSH2 0x4C6E JUMP JUMPDEST DUP3 SSTORE POP POP POP POP JUMP JUMPDEST PUSH0 PUSH0 SWAP1 POP SWAP1 JUMP JUMPDEST PUSH2 0x4D1D PUSH2 0x4D0E JUMP JUMPDEST PUSH2 0x4D28 DUP2 DUP5 DUP5 PUSH2 0x4CE9 JUMP JUMPDEST POP POP POP JUMP JUMPDEST JUMPDEST DUP2 DUP2 LT ISZERO PUSH2 0x4D4B JUMPI PUSH2 0x4D40 PUSH0 DUP3 PUSH2 0x4D15 JUMP JUMPDEST PUSH1 0x1 DUP2 ADD SWAP1 POP PUSH2 0x4D2E JUMP JUMPDEST POP POP JUMP JUMPDEST PUSH1 0x1F DUP3 GT ISZERO PUSH2 0x4D90 JUMPI PUSH2 0x4D61 DUP2 PUSH2 0x4C41 JUMP JUMPDEST PUSH2 0x4D6A DUP5 PUSH2 0x4C53 JUMP JUMPDEST DUP2 ADD PUSH1 0x20 DUP6 LT ISZERO PUSH2 0x4D79 JUMPI DUP2 SWAP1 POP JUMPDEST PUSH2 0x4D8D PUSH2 0x4D85 DUP6 PUSH2 0x4C53 JUMP JUMPDEST DUP4 ADD DUP3 PUSH2 0x4D2D JUMP JUMPDEST POP POP JUMPDEST POP POP POP JUMP JUMPDEST PUSH0 DUP3 DUP3 SHR SWAP1 POP SWAP3 SWAP2 POP POP JUMP JUMPDEST PUSH0 PUSH2 0x4DB0 PUSH0 NOT DUP5 PUSH1 0x8 MUL PUSH2 0x4D95 JUMP JUMPDEST NOT DUP1 DUP4 AND SWAP2 POP POP SWAP3 SWAP2 POP POP JUMP JUMPDEST PUSH0 PUSH2 0x4DC8 DUP4 DUP4 PUSH2 0x4DA1 JUMP JUMPDEST SWAP2 POP DUP3 PUSH1 0x2 MUL DUP3 OR SWAP1 POP SWAP3 SWAP2 POP POP JUMP JUMPDEST PUSH2 0x4DE1 DUP3 PUSH2 0x3964 JUMP JUMPDEST PUSH8 0xFFFFFFFFFFFFFFFF DUP2 GT ISZERO PUSH2 0x4DFA JUMPI PUSH2 0x4DF9 PUSH2 0x3719 JUMP JUMPDEST JUMPDEST PUSH2 0x4E04 DUP3 SLOAD PUSH2 0x4652 JUMP JUMPDEST PUSH2 0x4E0F DUP3 DUP3 DUP6 PUSH2 0x4D4F JUMP JUMPDEST PUSH0 PUSH1 0x20 SWAP1 POP PUSH1 0x1F DUP4 GT PUSH1 0x1 DUP2 EQ PUSH2 0x4E40 JUMPI PUSH0 DUP5 ISZERO PUSH2 0x4E2E JUMPI DUP3 DUP8 ADD MLOAD SWAP1 POP JUMPDEST PUSH2 0x4E38 DUP6 DUP3 PUSH2 0x4DBD JUMP JUMPDEST DUP7 SSTORE POP PUSH2 0x4E9F JUMP JUMPDEST PUSH1 0x1F NOT DUP5 AND PUSH2 0x4E4E DUP7 PUSH2 0x4C41 JUMP JUMPDEST PUSH0 JUMPDEST DUP3 DUP2 LT ISZERO PUSH2 0x4E75 JUMPI DUP5 DUP10 ADD MLOAD DUP3 SSTORE PUSH1 0x1 DUP3 ADD SWAP2 POP PUSH1 0x20 DUP6 ADD SWAP5 POP PUSH1 0x20 DUP2 ADD SWAP1 POP PUSH2 0x4E50 JUMP JUMPDEST DUP7 DUP4 LT ISZERO PUSH2 0x4E92 JUMPI DUP5 DUP10 ADD MLOAD PUSH2 0x4E8E PUSH1 0x1F DUP10 AND DUP3 PUSH2 0x4DA1 JUMP JUMPDEST DUP4 SSTORE POP JUMPDEST PUSH1 0x1 PUSH1 0x2 DUP9 MUL ADD DUP9 SSTORE POP POP POP JUMPDEST POP POP POP POP POP POP JUMP JUMPDEST PUSH0 PUSH2 0x4EB2 DUP4 DUP6 PUSH2 0x414D JUMP JUMPDEST SWAP4 POP PUSH2 0x4EBF DUP4 DUP6 DUP5 PUSH2 0x49F1 JUMP JUMPDEST PUSH2 0x4EC8 DUP4 PUSH2 0x3709 JUMP JUMPDEST DUP5 ADD SWAP1 POP SWAP4 SWAP3 POP POP POP JUMP JUMPDEST PUSH0 PUSH2 0x100 DUP3 ADD SWAP1 POP DUP2 DUP2 SUB PUSH0 DUP4 ADD MSTORE PUSH2 0x4EED DUP2 DUP9 DUP11 PUSH2 0x4EA7 JUMP JUMPDEST SWAP1 POP PUSH2 0x4EFC PUSH1 0x20 DUP4 ADD DUP8 PUSH2 0x43C4 JUMP JUMPDEST PUSH2 0x4F09 PUSH1 0x80 DUP4 ADD DUP7 PUSH2 0x43C4 JUMP JUMPDEST DUP2 DUP2 SUB PUSH1 0xE0 DUP4 ADD MSTORE PUSH2 0x4F1C DUP2 DUP5 DUP7 PUSH2 0x4EA7 JUMP JUMPDEST SWAP1 POP SWAP8 SWAP7 POP POP POP POP POP POP POP JUMP JUMPDEST PUSH32 0x50617373207479706520736F6C64206F75740000000000000000000000000000 PUSH0 DUP3 ADD MSTORE POP JUMP JUMPDEST PUSH0 PUSH2 0x4F5D PUSH1 0x12 DUP4 PUSH2 0x414D JUMP JUMPDEST SWAP2 POP PUSH2 0x4F68 DUP3 PUSH2 0x4F29 JUMP JUMPDEST PUSH1 0x20 DUP3 ADD SWAP1 POP SWAP2 SWAP1 POP JUMP JUMPDEST PUSH0 PUSH1 0x20 DUP3 ADD SWAP1 POP DUP2 DUP2 SUB PUSH0 DUP4 ADD MSTORE PUSH2 0x4F8A DUP2 PUSH2 0x4F51 JUMP JUMPDEST SWAP1 POP SWAP2 SWAP1 POP JUMP JUMPDEST PUSH32 0x5061737320616C72656164792065786973747300000000000000000000000000 PUSH0 DUP3 ADD MSTORE POP JUMP JUMPDEST PUSH0 PUSH2 0x4FC5 PUSH1 0x13 DUP4 PUSH2 0x414D JUMP JUMPDEST SWAP2 POP PUSH2 0x4FD0 DUP3 PUSH2 0x4F91 JUMP JUMPDEST PUSH1 0x20 DUP3 ADD SWAP1 POP SWAP2 SWAP1 POP JUMP JUMPDEST PUSH0 PUSH1 0x20 DUP3 ADD SWAP1 POP DUP2 DUP2 SUB PUSH0 DUP4 ADD MSTORE PUSH2 0x4FF2 DUP2 PUSH2 0x4FB9 JUMP JUMPDEST SWAP1 POP SWAP2 SWAP1 POP JUMP JUMPDEST DUP1 DUP3 MSTORE POP POP JUMP JUMPDEST DUP1 DUP3 MSTORE POP POP JUMP JUMPDEST DUP1 DUP3 MSTORE POP POP JUMP JUMPDEST PUSH2 0x5017 DUP2 PUSH2 0x40D9 JUMP JUMPDEST DUP3 MSTORE POP POP JUMP JUMPDEST PUSH0 PUSH2 0x100 DUP3 ADD SWAP1 POP PUSH2 0x5031 PUSH0 DUP4 ADD DUP12 PUSH2 0x45DA JUMP JUMPDEST PUSH2 0x503E PUSH1 0x20 DUP4 ADD DUP11 PUSH2 0x4FF9 JUMP JUMPDEST PUSH2 0x504B PUSH1 0x40 DUP4 ADD DUP10 PUSH2 0x5000 JUMP JUMPDEST PUSH2 0x5058 PUSH1 0x60 DUP4 ADD DUP9 PUSH2 0x5007 JUMP JUMPDEST PUSH2 0x5065 PUSH1 0x80 DUP4 ADD DUP8 PUSH2 0x45E1 JUMP JUMPDEST PUSH2 0x5072 PUSH1 0xA0 DUP4 ADD DUP7 PUSH2 0x430E JUMP JUMPDEST PUSH2 0x507F PUSH1 0xC0 DUP4 ADD DUP6 PUSH2 0x500E JUMP JUMPDEST PUSH2 0x508C PUSH1 0xE0 DUP4 ADD DUP5 PUSH2 0x430E JUMP JUMPDEST SWAP10 SWAP9 POP POP POP POP POP POP POP POP POP JUMP JUMPDEST PUSH0 PUSH1 0x60 DUP3 ADD SWAP1 POP PUSH2 0x50AC PUSH0 DUP4 ADD DUP7 PUSH2 0x4252 JUMP JUMPDEST PUSH2 0x50B9 PUSH1 0x20 DUP4 ADD DUP6 PUSH2 0x36B2 JUMP JUMPDEST PUSH2 0x50C6 PUSH1 0x40 DUP4 ADD DUP5 PUSH2 0x36B2 JUMP JUMPDEST SWAP5 SWAP4 POP POP POP POP JUMP JUMPDEST PUSH32 0x5265656E7472616E637947756172643A207265656E7472616E742063616C6C00 PUSH0 DUP3 ADD MSTORE POP JUMP JUMPDEST PUSH0 PUSH2 0x5102 PUSH1 0x1F DUP4 PUSH2 0x414D JUMP JUMPDEST SWAP2 POP PUSH2 0x510D DUP3 PUSH2 0x50CE JUMP JUMPDEST PUSH1 0x20 DUP3 ADD SWAP1 POP SWAP2 SWAP1 POP JUMP JUMPDEST PUSH0 PUSH1 0x20 DUP3 ADD SWAP1 POP DUP2 DUP2 SUB PUSH0 DUP4 ADD MSTORE PUSH2 0x512F DUP2 PUSH2 0x50F6 JUMP JUMPDEST SWAP1 POP SWAP2 SWAP1 POP JUMP JUMPDEST PUSH32 0x496E73756666696369656E7420616C6C6F77616E636500000000000000000000 PUSH0 DUP3 ADD MSTORE POP JUMP JUMPDEST PUSH0 PUSH2 0x516A PUSH1 0x16 DUP4 PUSH2 0x414D JUMP JUMPDEST SWAP2 POP PUSH2 0x5175 DUP3 PUSH2 0x5136 JUMP JUMPDEST PUSH1 0x20 DUP3 ADD SWAP1 POP SWAP2 SWAP1 POP JUMP JUMPDEST PUSH0 PUSH1 0x20 DUP3 ADD SWAP1 POP DUP2 DUP2 SUB PUSH0 DUP4 ADD MSTORE PUSH2 0x5197 DUP2 PUSH2 0x515E JUMP JUMPDEST SWAP1 POP SWAP2 SWAP1 POP JUMP JUMPDEST PUSH0 PUSH1 0x60 DUP3 ADD SWAP1 POP PUSH2 0x51B1 PUSH0 DUP4 ADD DUP7 PUSH2 0x3B12 JUMP JUMPDEST PUSH2 0x51BE PUSH1 0x20 DUP4 ADD DUP6 PUSH2 0x3B12 JUMP JUMPDEST PUSH2 0x51CB PUSH1 0x40 DUP4 ADD DUP5 PUSH2 0x36B2 JUMP JUMPDEST SWAP5 SWAP4 POP POP POP POP JUMP JUMPDEST PUSH32 0x5061796D656E74207472616E73666572206661696C6564000000000000000000 PUSH0 DUP3 ADD MSTORE POP JUMP JUMPDEST PUSH0 PUSH2 0x5207 PUSH1 0x17 DUP4 PUSH2 0x414D JUMP JUMPDEST SWAP2 POP PUSH2 0x5212 DUP3 PUSH2 0x51D3 JUMP JUMPDEST PUSH1 0x20 DUP3 ADD SWAP1 POP SWAP2 SWAP1 POP JUMP JUMPDEST PUSH0 PUSH1 0x20 DUP3 ADD SWAP1 POP DUP2 DUP2 SUB PUSH0 DUP4 ADD MSTORE PUSH2 0x5234 DUP2 PUSH2 0x51FB JUMP JUMPDEST SWAP1 POP SWAP2 SWAP1 POP JUMP INVALID LOG2 PUSH5 0x6970667358 0x22 SLT KECCAK256 0xB9 TLOAD PUSH31 0xBC64161E77A6F53087E3D56BABFB0834694E43AA05ABEE11B102CFEF936473 PUSH16 0x6C634300081C00330000000000000000 "
		},
		"gasEstimates": {
			"creation": {
				"codeDepositCost": "4221000",
				"executionCost": "infinite",
				"totalCost": "infinite"
			},
			"external": {
				"addEventManager(address)": "28227",
				"createEvent(string,uint256[3],uint256,uint256[3],string,string[3])": "infinite",
				"deactivateEvent(uint256)": "32567",
				"extendPass(address,uint256,uint256)": "infinite",
				"getContractBalance()": "infinite",
				"getEventDetails(uint256)": "infinite",
				"getPassExpiry(address,uint256)": "infinite",
				"getPassTypesInfo(uint256)": "infinite",
				"getUserActivePassCount(address)": "infinite",
				"getUserPasses(address)": "infinite",
				"isPassValid(address,uint256)": "infinite",
				"owner()": "2559",
				"paymentToken()": "infinite",
				"purchasePass(uint256,uint8)": "infinite",
				"removeEventManager(address)": "28276",
				"renewPass(uint256)": "infinite",
				"renounceOwnership()": "infinite",
				"revokePass(address,uint256)": "infinite",
				"setPaymentToken(address)": "infinite",
				"setTreasury(address)": "30736",
				"transferOwnership(address)": "infinite",
				"treasury()": "2575",
				"updateEvent(uint256,uint256[3],uint256,uint256[3])": "infinite",
				"withdrawFunds()": "infinite"
			},
			"internal": {
				"_validatePayment(uint256)": "infinite"
			}
		},
		"methodIdentifiers": {
			"addEventManager(address)": "d6f8a505",
			"createEvent(string,uint256[3],uint256,uint256[3],string,string[3])": "e0f22e19",
			"deactivateEvent(uint256)": "957a632e",
			"extendPass(address,uint256,uint256)": "d4b57802",
			"getContractBalance()": "6f9fb98a",
			"getEventDetails(uint256)": "ec38d5a0",
			"getPassExpiry(address,uint256)": "08654d3b",
			"getPassTypesInfo(uint256)": "52ef05be",
			"getUserActivePassCount(address)": "38ac497e",
			"getUserPasses(address)": "bc38d48c",
			"isPassValid(address,uint256)": "70aa75f3",
			"owner()": "8da5cb5b",
			"paymentToken()": "3013ce29",
			"purchasePass(uint256,uint8)": "f9f29fab",
			"removeEventManager(address)": "ce07502d",
			"renewPass(uint256)": "177342eb",
			"renounceOwnership()": "715018a6",
			"revokePass(address,uint256)": "5f29a154",
			"setPaymentToken(address)": "6a326ab1",
			"setTreasury(address)": "f0f44260",
			"transferOwnership(address)": "f2fde38b",
			"treasury()": "61d027b3",
			"updateEvent(uint256,uint256[3],uint256,uint256[3])": "1c40bd91",
			"withdrawFunds()": "24600fc3"
		}
	},
	"abi": [
		{
			"inputs": [
				{
					"internalType": "address",
					"name": "_paymentToken",
					"type": "address"
				},
				{
					"internalType": "address",
					"name": "_treasury",
					"type": "address"
				}
			],
			"stateMutability": "nonpayable",
			"type": "constructor"
		},
		{
			"inputs": [],
			"name": "EventNotActive",
			"type": "error"
		},
		{
			"inputs": [],
			"name": "InvalidAddress",
			"type": "error"
		},
		{
			"inputs": [],
			"name": "InvalidEventId",
			"type": "error"
		},
		{
			"inputs": [],
			"name": "InvalidPassType",
			"type": "error"
		},
		{
			"inputs": [],
			"name": "NotAdmin",
			"type": "error"
		},
		{
			"inputs": [],
			"name": "NotEventManager",
			"type": "error"
		},
		{
			"inputs": [
				{
					"internalType": "address",
					"name": "owner",
					"type": "address"
				}
			],
			"name": "OwnableInvalidOwner",
			"type": "error"
		},
		{
			"inputs": [
				{
					"internalType": "address",
					"name": "account",
					"type": "address"
				}
			],
			"name": "OwnableUnauthorizedAccount",
			"type": "error"
		},
		{
			"inputs": [],
			"name": "PassDoesNotExist",
			"type": "error"
		},
		{
			"anonymous": false,
			"inputs": [
				{
					"indexed": true,
					"internalType": "uint256",
					"name": "eventId",
					"type": "uint256"
				},
				{
					"indexed": false,
					"internalType": "string",
					"name": "eventName",
					"type": "string"
				},
				{
					"indexed": false,
					"internalType": "uint256[3]",
					"name": "prices",
					"type": "uint256[3]"
				},
				{
					"indexed": false,
					"internalType": "uint256[3]",
					"name": "maxPasses",
					"type": "uint256[3]"
				},
				{
					"indexed": false,
					"internalType": "string",
					"name": "ipfsHash",
					"type": "string"
				}
			],
			"name": "EventCreated",
			"type": "event"
		},
		{
			"anonymous": false,
			"inputs": [
				{
					"indexed": true,
					"internalType": "uint256",
					"name": "eventId",
					"type": "uint256"
				}
			],
			"name": "EventDeactivated",
			"type": "event"
		},
		{
			"anonymous": false,
			"inputs": [
				{
					"indexed": true,
					"internalType": "address",
					"name": "manager",
					"type": "address"
				}
			],
			"name": "EventManagerAdded",
			"type": "event"
		},
		{
			"anonymous": false,
			"inputs": [
				{
					"indexed": true,
					"internalType": "address",
					"name": "manager",
					"type": "address"
				}
			],
			"name": "EventManagerRemoved",
			"type": "event"
		},
		{
			"anonymous": false,
			"inputs": [
				{
					"indexed": true,
					"internalType": "uint256",
					"name": "eventId",
					"type": "uint256"
				},
				{
					"indexed": false,
					"internalType": "uint256[3]",
					"name": "newPrice",
					"type": "uint256[3]"
				},
				{
					"indexed": false,
					"internalType": "uint256",
					"name": "newDuration",
					"type": "uint256"
				},
				{
					"indexed": false,
					"internalType": "uint256[3]",
					"name": "newMaxPasses",
					"type": "uint256[3]"
				}
			],
			"name": "EventUpdated",
			"type": "event"
		},
		{
			"anonymous": false,
			"inputs": [
				{
					"indexed": true,
					"internalType": "address",
					"name": "previousOwner",
					"type": "address"
				},
				{
					"indexed": true,
					"internalType": "address",
					"name": "newOwner",
					"type": "address"
				}
			],
			"name": "OwnershipTransferred",
			"type": "event"
		},
		{
			"anonymous": false,
			"inputs": [
				{
					"indexed": true,
					"internalType": "address",
					"name": "user",
					"type": "address"
				},
				{
					"indexed": true,
					"internalType": "uint256",
					"name": "eventId",
					"type": "uint256"
				},
				{
					"indexed": false,
					"internalType": "enum PassManagement.PassType",
					"name": "passType",
					"type": "uint8"
				},
				{
					"indexed": false,
					"internalType": "uint256",
					"name": "expiry",
					"type": "uint256"
				},
				{
					"indexed": false,
					"internalType": "uint256",
					"name": "price",
					"type": "uint256"
				}
			],
			"name": "PassCreated",
			"type": "event"
		},
		{
			"anonymous": false,
			"inputs": [
				{
					"indexed": true,
					"internalType": "address",
					"name": "user",
					"type": "address"
				},
				{
					"indexed": true,
					"internalType": "uint256",
					"name": "eventId",
					"type": "uint256"
				},
				{
					"indexed": false,
					"internalType": "uint256",
					"name": "newExpiry",
					"type": "uint256"
				}
			],
			"name": "PassExtended",
			"type": "event"
		},
		{
			"anonymous": false,
			"inputs": [
				{
					"indexed": true,
					"internalType": "address",
					"name": "user",
					"type": "address"
				},
				{
					"indexed": true,
					"internalType": "uint256",
					"name": "eventId",
					"type": "uint256"
				},
				{
					"indexed": false,
					"internalType": "uint256",
					"name": "newExpiry",
					"type": "uint256"
				}
			],
			"name": "PassRenewed",
			"type": "event"
		},
		{
			"anonymous": false,
			"inputs": [
				{
					"indexed": true,
					"internalType": "address",
					"name": "user",
					"type": "address"
				},
				{
					"indexed": true,
					"internalType": "uint256",
					"name": "eventId",
					"type": "uint256"
				}
			],
			"name": "PassRevoked",
			"type": "event"
		},
		{
			"anonymous": false,
			"inputs": [
				{
					"indexed": true,
					"internalType": "address",
					"name": "user",
					"type": "address"
				},
				{
					"indexed": false,
					"internalType": "uint256",
					"name": "amount",
					"type": "uint256"
				},
				{
					"indexed": true,
					"internalType": "uint256",
					"name": "eventId",
					"type": "uint256"
				},
				{
					"indexed": false,
					"internalType": "enum PassManagement.PassType",
					"name": "passType",
					"type": "uint8"
				}
			],
			"name": "PaymentReceived",
			"type": "event"
		},
		{
			"anonymous": false,
			"inputs": [
				{
					"indexed": false,
					"internalType": "address",
					"name": "oldToken",
					"type": "address"
				},
				{
					"indexed": false,
					"internalType": "address",
					"name": "newToken",
					"type": "address"
				}
			],
			"name": "PaymentTokenChanged",
			"type": "event"
		},
		{
			"anonymous": false,
			"inputs": [
				{
					"indexed": true,
					"internalType": "address",
					"name": "recipient",
					"type": "address"
				},
				{
					"indexed": false,
					"internalType": "uint256",
					"name": "value",
					"type": "uint256"
				}
			],
			"name": "PaymentWithdrawn",
			"type": "event"
		},
		{
			"anonymous": false,
			"inputs": [
				{
					"indexed": true,
					"internalType": "address",
					"name": "oldTreasury",
					"type": "address"
				},
				{
					"indexed": true,
					"internalType": "address",
					"name": "newTreasury",
					"type": "address"
				}
			],
			"name": "TreasuryUpdated",
			"type": "event"
		},
		{
			"inputs": [
				{
					"internalType": "address",
					"name": "manager",
					"type": "address"
				}
			],
			"name": "addEventManager",
			"outputs": [],
			"stateMutability": "nonpayable",
			"type": "function"
		},
		{
			"inputs": [
				{
					"internalType": "string",
					"name": "eventName",
					"type": "string"
				},
				{
					"internalType": "uint256[3]",
					"name": "_price",
					"type": "uint256[3]"
				},
				{
					"internalType": "uint256",
					"name": "duration",
					"type": "uint256"
				},
				{
					"internalType": "uint256[3]",
					"name": "_maxpass",
					"type": "uint256[3]"
				},
				{
					"internalType": "string",
					"name": "ipfsHash",
					"type": "string"
				},
				{
					"internalType": "string[3]",
					"name": "passTypeNames",
					"type": "string[3]"
				}
			],
			"name": "createEvent",
			"outputs": [],
			"stateMutability": "nonpayable",
			"type": "function"
		},
		{
			"inputs": [
				{
					"internalType": "uint256",
					"name": "eventId",
					"type": "uint256"
				}
			],
			"name": "deactivateEvent",
			"outputs": [],
			"stateMutability": "nonpayable",
			"type": "function"
		},
		{
			"inputs": [
				{
					"internalType": "address",
					"name": "user",
					"type": "address"
				},
				{
					"internalType": "uint256",
					"name": "eventId",
					"type": "uint256"
				},
				{
					"internalType": "uint256",
					"name": "additionalTime",
					"type": "uint256"
				}
			],
			"name": "extendPass",
			"outputs": [],
			"stateMutability": "nonpayable",
			"type": "function"
		},
		{
			"inputs": [],
			"name": "getContractBalance",
			"outputs": [
				{
					"internalType": "uint256",
					"name": "",
					"type": "uint256"
				}
			],
			"stateMutability": "view",
			"type": "function"
		},
		{
			"inputs": [
				{
					"internalType": "uint256",
					"name": "eventId",
					"type": "uint256"
				}
			],
			"name": "getEventDetails",
			"outputs": [
				{
					"components": [
						{
							"internalType": "uint256[3]",
							"name": "price",
							"type": "uint256[3]"
						},
						{
							"internalType": "uint256",
							"name": "duration",
							"type": "uint256"
						},
						{
							"internalType": "uint256[3]",
							"name": "maxPasses",
							"type": "uint256[3]"
						},
						{
							"internalType": "string",
							"name": "ipfsHash",
							"type": "string"
						},
						{
							"internalType": "bool",
							"name": "active",
							"type": "bool"
						},
						{
							"internalType": "string",
							"name": "eventName",
							"type": "string"
						},
						{
							"internalType": "string[3]",
							"name": "passTypeNames",
							"type": "string[3]"
						}
					],
					"internalType": "struct PassManagement.EventData",
					"name": "",
					"type": "tuple"
				}
			],
			"stateMutability": "view",
			"type": "function"
		},
		{
			"inputs": [
				{
					"internalType": "address",
					"name": "user",
					"type": "address"
				},
				{
					"internalType": "uint256",
					"name": "eventId",
					"type": "uint256"
				}
			],
			"name": "getPassExpiry",
			"outputs": [
				{
					"internalType": "uint256",
					"name": "",
					"type": "uint256"
				}
			],
			"stateMutability": "view",
			"type": "function"
		},
		{
			"inputs": [
				{
					"internalType": "uint256",
					"name": "eventId",
					"type": "uint256"
				}
			],
			"name": "getPassTypesInfo",
			"outputs": [
				{
					"components": [
						{
							"internalType": "string",
							"name": "name",
							"type": "string"
						},
						{
							"internalType": "uint256",
							"name": "price",
							"type": "uint256"
						},
						{
							"internalType": "uint256",
							"name": "maxPasses",
							"type": "uint256"
						},
						{
							"internalType": "uint256",
							"name": "soldPasses",
							"type": "uint256"
						},
						{
							"internalType": "bool",
							"name": "available",
							"type": "bool"
						}
					],
					"internalType": "struct PassManagement.PassTypeInfo[3]",
					"name": "",
					"type": "tuple[3]"
				}
			],
			"stateMutability": "view",
			"type": "function"
		},
		{
			"inputs": [
				{
					"internalType": "address",
					"name": "user",
					"type": "address"
				}
			],
			"name": "getUserActivePassCount",
			"outputs": [
				{
					"internalType": "uint256",
					"name": "",
					"type": "uint256"
				}
			],
			"stateMutability": "view",
			"type": "function"
		},
		{
			"inputs": [
				{
					"internalType": "address",
					"name": "user",
					"type": "address"
				}
			],
			"name": "getUserPasses",
			"outputs": [
				{
					"components": [
						{
							"internalType": "uint256",
							"name": "eventId",
							"type": "uint256"
						},
						{
							"internalType": "enum PassManagement.PassType",
							"name": "accessLevel",
							"type": "uint8"
						},
						{
							"internalType": "uint256",
							"name": "expiry",
							"type": "uint256"
						},
						{
							"internalType": "bool",
							"name": "active",
							"type": "bool"
						},
						{
							"internalType": "bool",
							"name": "exists",
							"type": "bool"
						},
						{
							"internalType": "uint256",
							"name": "purchaseTime",
							"type": "uint256"
						}
					],
					"internalType": "struct PassManagement.UserPassDetails[]",
					"name": "",
					"type": "tuple[]"
				}
			],
			"stateMutability": "view",
			"type": "function"
		},
		{
			"inputs": [
				{
					"internalType": "address",
					"name": "user",
					"type": "address"
				},
				{
					"internalType": "uint256",
					"name": "eventId",
					"type": "uint256"
				}
			],
			"name": "isPassValid",
			"outputs": [
				{
					"internalType": "bool",
					"name": "",
					"type": "bool"
				}
			],
			"stateMutability": "view",
			"type": "function"
		},
		{
			"inputs": [],
			"name": "owner",
			"outputs": [
				{
					"internalType": "address",
					"name": "",
					"type": "address"
				}
			],
			"stateMutability": "view",
			"type": "function"
		},
		{
			"inputs": [],
			"name": "paymentToken",
			"outputs": [
				{
					"internalType": "contract IERC20",
					"name": "",
					"type": "address"
				}
			],
			"stateMutability": "view",
			"type": "function"
		},
		{
			"inputs": [
				{
					"internalType": "uint256",
					"name": "eventId",
					"type": "uint256"
				},
				{
					"internalType": "uint8",
					"name": "passType",
					"type": "uint8"
				}
			],
			"name": "purchasePass",
			"outputs": [],
			"stateMutability": "nonpayable",
			"type": "function"
		},
		{
			"inputs": [
				{
					"internalType": "address",
					"name": "manager",
					"type": "address"
				}
			],
			"name": "removeEventManager",
			"outputs": [],
			"stateMutability": "nonpayable",
			"type": "function"
		},
		{
			"inputs": [
				{
					"internalType": "uint256",
					"name": "eventId",
					"type": "uint256"
				}
			],
			"name": "renewPass",
			"outputs": [],
			"stateMutability": "nonpayable",
			"type": "function"
		},
		{
			"inputs": [],
			"name": "renounceOwnership",
			"outputs": [],
			"stateMutability": "nonpayable",
			"type": "function"
		},
		{
			"inputs": [
				{
					"internalType": "address",
					"name": "user",
					"type": "address"
				},
				{
					"internalType": "uint256",
					"name": "eventId",
					"type": "uint256"
				}
			],
			"name": "revokePass",
			"outputs": [],
			"stateMutability": "nonpayable",
			"type": "function"
		},
		{
			"inputs": [
				{
					"internalType": "address",
					"name": "tokenAddress",
					"type": "address"
				}
			],
			"name": "setPaymentToken",
			"outputs": [],
			"stateMutability": "nonpayable",
			"type": "function"
		},
		{
			"inputs": [
				{
					"internalType": "address",
					"name": "_treasury",
					"type": "address"
				}
			],
			"name": "setTreasury",
			"outputs": [],
			"stateMutability": "nonpayable",
			"type": "function"
		},
		{
			"inputs": [
				{
					"internalType": "address",
					"name": "newOwner",
					"type": "address"
				}
			],
			"name": "transferOwnership",
			"outputs": [],
			"stateMutability": "nonpayable",
			"type": "function"
		},
		{
			"inputs": [],
			"name": "treasury",
			"outputs": [
				{
					"internalType": "address",
					"name": "",
					"type": "address"
				}
			],
			"stateMutability": "view",
			"type": "function"
		},
		{
			"inputs": [
				{
					"internalType": "uint256",
					"name": "eventId",
					"type": "uint256"
				},
				{
					"internalType": "uint256[3]",
					"name": "_price",
					"type": "uint256[3]"
				},
				{
					"internalType": "uint256",
					"name": "_duration",
					"type": "uint256"
				},
				{
					"internalType": "uint256[3]",
					"name": "_maxpasses",
					"type": "uint256[3]"
				}
			],
			"name": "updateEvent",
			"outputs": [],
			"stateMutability": "nonpayable",
			"type": "function"
		},
		{
			"inputs": [],
			"name": "withdrawFunds",
			"outputs": [],
			"stateMutability": "nonpayable",
			"type": "function"
		}
	]
}