{
	"data": {
		"bytecode": {
			"linkReferences": {},
			"object": "6109e561004d600b8282823980515f1a6073146041577f4e487b71000000000000000000000000000000000000000000000000000000005f525f60045260245ffd5b305f52607381538281f3fe730000000000000000000000000000000000000000301460806040526004361061004a575f3560e01c8063162790551461004e578063c934fdfc1461007e578063eef2a370146100ae575b5f5ffd5b6100686004803603810190610063919061050f565b6100ca565b6040516100759190610554565b60405180910390f35b610098600480360381019061009391906105ce565b6100db565b6040516100a59190610554565b60405180910390f35b6100c860048036038101906100c39190610782565b61025a565b005b5f5f823b90505f8111915050919050565b5f5f83838080601f0160208091040260200160405190810160405280939291908181526020018383808284375f81840152601f19601f8201169050808301925050505050505090505f81519050602c8110806101375750603e81115b15610146575f92505050610254565b6002811061024e57605160f81b825f81518110610166576101656107d2565b5b602001015160f81c60f81b7effffffffffffffffffffffffffffffffffffffffffffffffffffffffffffff19161480156101e35750606d60f81b826001815181106101b4576101b36107d2565b5b602001015160f81c60f81b7effffffffffffffffffffffffffffffffffffffffffffffffffffffffffffff1916145b156101f557602e811492505050610254565b606260f81b825f8151811061020d5761020c6107d2565b5b602001015160f81c60f81b7effffffffffffffffffffffffffffffffffffffffffffffffffffffffffffff19160361024d57602c81101592505050610254565b5b5f925050505b92915050565b610e10821015801561027057506301e133808211155b6102af576040517f08c379a00000000000000000000000000000000000000000000000000000000081526004016102a690610859565b60405180910390fd5b5f835f600381106102c3576102c26107d2565b5b60200201511180156102ec57505f836001600381106102e5576102e46107d2565b5b6020020151115b801561030f57505f83600260038110610308576103076107d2565b5b6020020151115b61034e576040517f08c379a0000000000000000000000000000000000000000000000000000000008152600401610345906108c1565b60405180910390fd5b82600160038110610362576103616107d2565b5b6020020151835f6003811061037a576103796107d2565b5b6020020151111580156103bd57508260026003811061039c5761039b6107d2565b5b6020020151836001600381106103b5576103b46107d2565b5b602002015111155b6103fc576040517f08c379a00000000000000000000000000000000000000000000000000000000081526004016103f390610929565b60405180910390fd5b5f5f90505b60038160ff16101561049e575f828260ff1660038110610424576104236107d2565b5b60200201511180156104525750612710828260ff166003811061044a576104496107d2565b5b602002015111155b610491576040517f08c379a000000000000000000000000000000000000000000000000000000000815260040161048890610991565b60405180910390fd5b8080600101915050610401565b50505050565b5f604051905090565b5f5ffd5b5f5ffd5b5f73ffffffffffffffffffffffffffffffffffffffff82169050919050565b5f6104de826104b5565b9050919050565b6104ee816104d4565b81146104f8575f5ffd5b50565b5f81359050610509816104e5565b92915050565b5f60208284031215610524576105236104ad565b5b5f610531848285016104fb565b91505092915050565b5f8115159050919050565b61054e8161053a565b82525050565b5f6020820190506105675f830184610545565b92915050565b5f5ffd5b5f5ffd5b5f5ffd5b5f5f83601f84011261058e5761058d61056d565b5b8235905067ffffffffffffffff8111156105ab576105aa610571565b5b6020830191508360018202830111156105c7576105c6610575565b5b9250929050565b5f5f602083850312156105e4576105e36104ad565b5b5f83013567ffffffffffffffff811115610601576106006104b1565b5b61060d85828601610579565b92509250509250929050565b5f601f19601f8301169050919050565b7f4e487b71000000000000000000000000000000000000000000000000000000005f52604160045260245ffd5b61065f82610619565b810181811067ffffffffffffffff8211171561067e5761067d610629565b5b80604052505050565b5f6106906104a4565b905061069c8282610656565b919050565b5f67ffffffffffffffff8211156106bb576106ba610629565b5b602082029050919050565b5f819050919050565b6106d8816106c6565b81146106e2575f5ffd5b50565b5f813590506106f3816106cf565b92915050565b5f61070b610706846106a1565b610687565b9050806020840283018581111561072557610724610575565b5b835b8181101561074e578061073a88826106e5565b845260208401935050602081019050610727565b5050509392505050565b5f82601f83011261076c5761076b61056d565b5b60036107798482856106f9565b91505092915050565b5f5f5f60e08486031215610799576107986104ad565b5b5f6107a686828701610758565b93505060606107b7868287016106e5565b92505060806107c886828701610758565b9150509250925092565b7f4e487b71000000000000000000000000000000000000000000000000000000005f52603260045260245ffd5b5f82825260208201905092915050565b7f496e76616c6964206475726174696f6e000000000000000000000000000000005f82015250565b5f6108436010836107ff565b915061084e8261080f565b602082019050919050565b5f6020820190508181035f83015261087081610837565b9050919050565b7f496e76616c6964207072696365730000000000000000000000000000000000005f82015250565b5f6108ab600e836107ff565b91506108b682610877565b602082019050919050565b5f6020820190508181035f8301526108d88161089f565b9050919050565b7f496e76616c6964207072696365207469657273000000000000000000000000005f82015250565b5f6109136013836107ff565b915061091e826108df565b602082019050919050565b5f6020820190508181035f83015261094081610907565b9050919050565b7f496e76616c6964206d61782070617373657300000000000000000000000000005f82015250565b5f61097b6012836107ff565b915061098682610947565b602082019050919050565b5f6020820190508181035f8301526109a88161096f565b905091905056fea2646970667358221220734c985e195b31306a48dd9c75ccbc25230419d0dbbf371de52ecefe4890ddff64736f6c634300081c0033",
			"opcodes": "PUSH2 0x9E5 PUSH2 0x4D PUSH1 0xB DUP3 DUP3 DUP3 CODECOPY DUP1 MLOAD PUSH0 BYTE PUSH1 0x73 EQ PUSH1 0x41 JUMPI PUSH32 0x4E487B7100000000000000000000000000000000000000000000000000000000 PUSH0 MSTORE PUSH0 PUSH1 0x4 MSTORE PUSH1 0x24 PUSH0 REVERT JUMPDEST ADDRESS PUSH0 MSTORE PUSH1 0x73 DUP2 MSTORE8 DUP3 DUP2 RETURN INVALID PUSH20 0x0 ADDRESS EQ PUSH1 0x80 PUSH1 0x40 MSTORE PUSH1 0x4 CALLDATASIZE LT PUSH2 0x4A JUMPI PUSH0 CALLDATALOAD PUSH1 0xE0 SHR DUP1 PUSH4 0x16279055 EQ PUSH2 0x4E JUMPI DUP1 PUSH4 0xC934FDFC EQ PUSH2 0x7E JUMPI DUP1 PUSH4 0xEEF2A370 EQ PUSH2 0xAE JUMPI JUMPDEST PUSH0 PUSH0 REVERT JUMPDEST PUSH2 0x68 PUSH1 0x4 DUP1 CALLDATASIZE SUB DUP2 ADD SWAP1 PUSH2 0x63 SWAP2 SWAP1 PUSH2 0x50F JUMP JUMPDEST PUSH2 0xCA JUMP JUMPDEST PUSH1 0x40 MLOAD PUSH2 0x75 SWAP2 SWAP1 PUSH2 0x554 JUMP JUMPDEST PUSH1 0x40 MLOAD DUP1 SWAP2 SUB SWAP1 RETURN JUMPDEST PUSH2 0x98 PUSH1 0x4 DUP1 CALLDATASIZE SUB DUP2 ADD SWAP1 PUSH2 0x93 SWAP2 SWAP1 PUSH2 0x5CE JUMP JUMPDEST PUSH2 0xDB JUMP JUMPDEST PUSH1 0x40 MLOAD PUSH2 0xA5 SWAP2 SWAP1 PUSH2 0x554 JUMP JUMPDEST PUSH1 0x40 MLOAD DUP1 SWAP2 SUB SWAP1 RETURN JUMPDEST PUSH2 0xC8 PUSH1 0x4 DUP1 CALLDATASIZE SUB DUP2 ADD SWAP1 PUSH2 0xC3 SWAP2 SWAP1 PUSH2 0x782 JUMP JUMPDEST PUSH2 0x25A JUMP JUMPDEST STOP JUMPDEST PUSH0 PUSH0 DUP3 EXTCODESIZE SWAP1 POP PUSH0 DUP2 GT SWAP2 POP POP SWAP2 SWAP1 POP JUMP JUMPDEST PUSH0 PUSH0 DUP4 DUP4 DUP1 DUP1 PUSH1 0x1F ADD PUSH1 0x20 DUP1 SWAP2 DIV MUL PUSH1 0x20 ADD PUSH1 0x40 MLOAD SWAP1 DUP2 ADD PUSH1 0x40 MSTORE DUP1 SWAP4 SWAP3 SWAP2 SWAP1 DUP2 DUP2 MSTORE PUSH1 0x20 ADD DUP4 DUP4 DUP1 DUP3 DUP5 CALLDATACOPY PUSH0 DUP2 DUP5 ADD MSTORE PUSH1 0x1F NOT PUSH1 0x1F DUP3 ADD AND SWAP1 POP DUP1 DUP4 ADD SWAP3 POP POP POP POP POP POP POP SWAP1 POP PUSH0 DUP2 MLOAD SWAP1 POP PUSH1 0x2C DUP2 LT DUP1 PUSH2 0x137 JUMPI POP PUSH1 0x3E DUP2 GT JUMPDEST ISZERO PUSH2 0x146 JUMPI PUSH0 SWAP3 POP POP POP PUSH2 0x254 JUMP JUMPDEST PUSH1 0x2 DUP2 LT PUSH2 0x24E JUMPI PUSH1 0x51 PUSH1 0xF8 SHL DUP3 PUSH0 DUP2 MLOAD DUP2 LT PUSH2 0x166 JUMPI PUSH2 0x165 PUSH2 0x7D2 JUMP JUMPDEST JUMPDEST PUSH1 0x20 ADD ADD MLOAD PUSH1 0xF8 SHR PUSH1 0xF8 SHL PUSH31 0xFFFFFFFFFFFFFFFFFFFFFFFFFFFFFFFFFFFFFFFFFFFFFFFFFFFFFFFFFFFFFF NOT AND EQ DUP1 ISZERO PUSH2 0x1E3 JUMPI POP PUSH1 0x6D PUSH1 0xF8 SHL DUP3 PUSH1 0x1 DUP2 MLOAD DUP2 LT PUSH2 0x1B4 JUMPI PUSH2 0x1B3 PUSH2 0x7D2 JUMP JUMPDEST JUMPDEST PUSH1 0x20 ADD ADD MLOAD PUSH1 0xF8 SHR PUSH1 0xF8 SHL PUSH31 0xFFFFFFFFFFFFFFFFFFFFFFFFFFFFFFFFFFFFFFFFFFFFFFFFFFFFFFFFFFFFFF NOT AND EQ JUMPDEST ISZERO PUSH2 0x1F5 JUMPI PUSH1 0x2E DUP2 EQ SWAP3 POP POP POP PUSH2 0x254 JUMP JUMPDEST PUSH1 0x62 PUSH1 0xF8 SHL DUP3 PUSH0 DUP2 MLOAD DUP2 LT PUSH2 0x20D JUMPI PUSH2 0x20C PUSH2 0x7D2 JUMP JUMPDEST JUMPDEST PUSH1 0x20 ADD ADD MLOAD PUSH1 0xF8 SHR PUSH1 0xF8 SHL PUSH31 0xFFFFFFFFFFFFFFFFFFFFFFFFFFFFFFFFFFFFFFFFFFFFFFFFFFFFFFFFFFFFFF NOT AND SUB PUSH2 0x24D JUMPI PUSH1 0x2C DUP2 LT ISZERO SWAP3 POP POP POP PUSH2 0x254 JUMP JUMPDEST JUMPDEST PUSH0 SWAP3 POP POP POP JUMPDEST SWAP3 SWAP2 POP POP JUMP JUMPDEST PUSH2 0xE10 DUP3 LT ISZERO DUP1 ISZERO PUSH2 0x270 JUMPI POP PUSH4 0x1E13380 DUP3 GT ISZERO JUMPDEST PUSH2 0x2AF JUMPI PUSH1 0x40 MLOAD PUSH32 0x8C379A000000000000000000000000000000000000000000000000000000000 DUP2 MSTORE PUSH1 0x4 ADD PUSH2 0x2A6 SWAP1 PUSH2 0x859 JUMP JUMPDEST PUSH1 0x40 MLOAD DUP1 SWAP2 SUB SWAP1 REVERT JUMPDEST PUSH0 DUP4 PUSH0 PUSH1 0x3 DUP2 LT PUSH2 0x2C3 JUMPI PUSH2 0x2C2 PUSH2 0x7D2 JUMP JUMPDEST JUMPDEST PUSH1 0x20 MUL ADD MLOAD GT DUP1 ISZERO PUSH2 0x2EC JUMPI POP PUSH0 DUP4 PUSH1 0x1 PUSH1 0x3 DUP2 LT PUSH2 0x2E5 JUMPI PUSH2 0x2E4 PUSH2 0x7D2 JUMP JUMPDEST JUMPDEST PUSH1 0x20 MUL ADD MLOAD GT JUMPDEST DUP1 ISZERO PUSH2 0x30F JUMPI POP PUSH0 DUP4 PUSH1 0x2 PUSH1 0x3 DUP2 LT PUSH2 0x308 JUMPI PUSH2 0x307 PUSH2 0x7D2 JUMP JUMPDEST JUMPDEST PUSH1 0x20 MUL ADD MLOAD GT JUMPDEST PUSH2 0x34E JUMPI PUSH1 0x40 MLOAD PUSH32 0x8C379A000000000000000000000000000000000000000000000000000000000 DUP2 MSTORE PUSH1 0x4 ADD PUSH2 0x345 SWAP1 PUSH2 0x8C1 JUMP JUMPDEST PUSH1 0x40 MLOAD DUP1 SWAP2 SUB SWAP1 REVERT JUMPDEST DUP3 PUSH1 0x1 PUSH1 0x3 DUP2 LT PUSH2 0x362 JUMPI PUSH2 0x361 PUSH2 0x7D2 JUMP JUMPDEST JUMPDEST PUSH1 0x20 MUL ADD MLOAD DUP4 PUSH0 PUSH1 0x3 DUP2 LT PUSH2 0x37A JUMPI PUSH2 0x379 PUSH2 0x7D2 JUMP JUMPDEST JUMPDEST PUSH1 0x20 MUL ADD MLOAD GT ISZERO DUP1 ISZERO PUSH2 0x3BD JUMPI POP DUP3 PUSH1 0x2 PUSH1 0x3 DUP2 LT PUSH2 0x39C JUMPI PUSH2 0x39B PUSH2 0x7D2 JUMP JUMPDEST JUMPDEST PUSH1 0x20 MUL ADD MLOAD DUP4 PUSH1 0x1 PUSH1 0x3 DUP2 LT PUSH2 0x3B5 JUMPI PUSH2 0x3B4 PUSH2 0x7D2 JUMP JUMPDEST JUMPDEST PUSH1 0x20 MUL ADD MLOAD GT ISZERO JUMPDEST PUSH2 0x3FC JUMPI PUSH1 0x40 MLOAD PUSH32 0x8C379A000000000000000000000000000000000000000000000000000000000 DUP2 MSTORE PUSH1 0x4 ADD PUSH2 0x3F3 SWAP1 PUSH2 0x929 JUMP JUMPDEST PUSH1 0x40 MLOAD DUP1 SWAP2 SUB SWAP1 REVERT JUMPDEST PUSH0 PUSH0 SWAP1 POP JUMPDEST PUSH1 0x3 DUP2 PUSH1 0xFF AND LT ISZERO PUSH2 0x49E JUMPI PUSH0 DUP3 DUP3 PUSH1 0xFF AND PUSH1 0x3 DUP2 LT PUSH2 0x424 JUMPI PUSH2 0x423 PUSH2 0x7D2 JUMP JUMPDEST JUMPDEST PUSH1 0x20 MUL ADD MLOAD GT DUP1 ISZERO PUSH2 0x452 JUMPI POP PUSH2 0x2710 DUP3 DUP3 PUSH1 0xFF AND PUSH1 0x3 DUP2 LT PUSH2 0x44A JUMPI PUSH2 0x449 PUSH2 0x7D2 JUMP JUMPDEST JUMPDEST PUSH1 0x20 MUL ADD MLOAD GT ISZERO JUMPDEST PUSH2 0x491 JUMPI PUSH1 0x40 MLOAD PUSH32 0x8C379A000000000000000000000000000000000000000000000000000000000 DUP2 MSTORE PUSH1 0x4 ADD PUSH2 0x488 SWAP1 PUSH2 0x991 JUMP JUMPDEST PUSH1 0x40 MLOAD DUP1 SWAP2 SUB SWAP1 REVERT JUMPDEST DUP1 DUP1 PUSH1 0x1 ADD SWAP2 POP POP PUSH2 0x401 JUMP JUMPDEST POP POP POP POP JUMP JUMPDEST PUSH0 PUSH1 0x40 MLOAD SWAP1 POP SWAP1 JUMP JUMPDEST PUSH0 PUSH0 REVERT JUMPDEST PUSH0 PUSH0 REVERT JUMPDEST PUSH0 PUSH20 0xFFFFFFFFFFFFFFFFFFFFFFFFFFFFFFFFFFFFFFFF DUP3 AND SWAP1 POP SWAP2 SWAP1 POP JUMP JUMPDEST PUSH0 PUSH2 0x4DE DUP3 PUSH2 0x4B5 JUMP JUMPDEST SWAP1 POP SWAP2 SWAP1 POP JUMP JUMPDEST PUSH2 0x4EE DUP2 PUSH2 0x4D4 JUMP JUMPDEST DUP2 EQ PUSH2 0x4F8 JUMPI PUSH0 PUSH0 REVERT JUMPDEST POP JUMP JUMPDEST PUSH0 DUP2 CALLDATALOAD SWAP1 POP PUSH2 0x509 DUP2 PUSH2 0x4E5 JUMP JUMPDEST SWAP3 SWAP2 POP POP JUMP JUMPDEST PUSH0 PUSH1 0x20 DUP3 DUP5 SUB SLT ISZERO PUSH2 0x524 JUMPI PUSH2 0x523 PUSH2 0x4AD JUMP JUMPDEST JUMPDEST PUSH0 PUSH2 0x531 DUP5 DUP3 DUP6 ADD PUSH2 0x4FB JUMP JUMPDEST SWAP2 POP POP SWAP3 SWAP2 POP POP JUMP JUMPDEST PUSH0 DUP2 ISZERO ISZERO SWAP1 POP SWAP2 SWAP1 POP JUMP JUMPDEST PUSH2 0x54E DUP2 PUSH2 0x53A JUMP JUMPDEST DUP3 MSTORE POP POP JUMP JUMPDEST PUSH0 PUSH1 0x20 DUP3 ADD SWAP1 POP PUSH2 0x567 PUSH0 DUP4 ADD DUP5 PUSH2 0x545 JUMP JUMPDEST SWAP3 SWAP2 POP POP JUMP JUMPDEST PUSH0 PUSH0 REVERT JUMPDEST PUSH0 PUSH0 REVERT JUMPDEST PUSH0 PUSH0 REVERT JUMPDEST PUSH0 PUSH0 DUP4 PUSH1 0x1F DUP5 ADD SLT PUSH2 0x58E JUMPI PUSH2 0x58D PUSH2 0x56D JUMP JUMPDEST JUMPDEST DUP3 CALLDATALOAD SWAP1 POP PUSH8 0xFFFFFFFFFFFFFFFF DUP2 GT ISZERO PUSH2 0x5AB JUMPI PUSH2 0x5AA PUSH2 0x571 JUMP JUMPDEST JUMPDEST PUSH1 0x20 DUP4 ADD SWAP2 POP DUP4 PUSH1 0x1 DUP3 MUL DUP4 ADD GT ISZERO PUSH2 0x5C7 JUMPI PUSH2 0x5C6 PUSH2 0x575 JUMP JUMPDEST JUMPDEST SWAP3 POP SWAP3 SWAP1 POP JUMP JUMPDEST PUSH0 PUSH0 PUSH1 0x20 DUP4 DUP6 SUB SLT ISZERO PUSH2 0x5E4 JUMPI PUSH2 0x5E3 PUSH2 0x4AD JUMP JUMPDEST JUMPDEST PUSH0 DUP4 ADD CALLDATALOAD PUSH8 0xFFFFFFFFFFFFFFFF DUP2 GT ISZERO PUSH2 0x601 JUMPI PUSH2 0x600 PUSH2 0x4B1 JUMP JUMPDEST JUMPDEST PUSH2 0x60D DUP6 DUP3 DUP7 ADD PUSH2 0x579 JUMP JUMPDEST SWAP3 POP SWAP3 POP POP SWAP3 POP SWAP3 SWAP1 POP JUMP JUMPDEST PUSH0 PUSH1 0x1F NOT PUSH1 0x1F DUP4 ADD AND SWAP1 POP SWAP2 SWAP1 POP JUMP JUMPDEST PUSH32 0x4E487B7100000000000000000000000000000000000000000000000000000000 PUSH0 MSTORE PUSH1 0x41 PUSH1 0x4 MSTORE PUSH1 0x24 PUSH0 REVERT JUMPDEST PUSH2 0x65F DUP3 PUSH2 0x619 JUMP JUMPDEST DUP2 ADD DUP2 DUP2 LT PUSH8 0xFFFFFFFFFFFFFFFF DUP3 GT OR ISZERO PUSH2 0x67E JUMPI PUSH2 0x67D PUSH2 0x629 JUMP JUMPDEST JUMPDEST DUP1 PUSH1 0x40 MSTORE POP POP POP JUMP JUMPDEST PUSH0 PUSH2 0x690 PUSH2 0x4A4 JUMP JUMPDEST SWAP1 POP PUSH2 0x69C DUP3 DUP3 PUSH2 0x656 JUMP JUMPDEST SWAP2 SWAP1 POP JUMP JUMPDEST PUSH0 PUSH8 0xFFFFFFFFFFFFFFFF DUP3 GT ISZERO PUSH2 0x6BB JUMPI PUSH2 0x6BA PUSH2 0x629 JUMP JUMPDEST JUMPDEST PUSH1 0x20 DUP3 MUL SWAP1 POP SWAP2 SWAP1 POP JUMP JUMPDEST PUSH0 DUP2 SWAP1 POP SWAP2 SWAP1 POP JUMP JUMPDEST PUSH2 0x6D8 DUP2 PUSH2 0x6C6 JUMP JUMPDEST DUP2 EQ PUSH2 0x6E2 JUMPI PUSH0 PUSH0 REVERT JUMPDEST POP JUMP JUMPDEST PUSH0 DUP2 CALLDATALOAD SWAP1 POP PUSH2 0x6F3 DUP2 PUSH2 0x6CF JUMP JUMPDEST SWAP3 SWAP2 POP POP JUMP JUMPDEST PUSH0 PUSH2 0x70B PUSH2 0x706 DUP5 PUSH2 0x6A1 JUMP JUMPDEST PUSH2 0x687 JUMP JUMPDEST SWAP1 POP DUP1 PUSH1 0x20 DUP5 MUL DUP4 ADD DUP6 DUP2 GT ISZERO PUSH2 0x725 JUMPI PUSH2 0x724 PUSH2 0x575 JUMP JUMPDEST JUMPDEST DUP4 JUMPDEST DUP2 DUP2 LT ISZERO PUSH2 0x74E JUMPI DUP1 PUSH2 0x73A DUP9 DUP3 PUSH2 0x6E5 JUMP JUMPDEST DUP5 MSTORE PUSH1 0x20 DUP5 ADD SWAP4 POP POP PUSH1 0x20 DUP2 ADD SWAP1 POP PUSH2 0x727 JUMP JUMPDEST POP POP POP SWAP4 SWAP3 POP POP POP JUMP JUMPDEST PUSH0 DUP3 PUSH1 0x1F DUP4 ADD SLT PUSH2 0x76C JUMPI PUSH2 0x76B PUSH2 0x56D JUMP JUMPDEST JUMPDEST PUSH1 0x3 PUSH2 0x779 DUP5 DUP3 DUP6 PUSH2 0x6F9 JUMP JUMPDEST SWAP2 POP POP SWAP3 SWAP2 POP POP JUMP JUMPDEST PUSH0 PUSH0 PUSH0 PUSH1 0xE0 DUP5 DUP7 SUB SLT ISZERO PUSH2 0x799 JUMPI PUSH2 0x798 PUSH2 0x4AD JUMP JUMPDEST JUMPDEST PUSH0 PUSH2 0x7A6 DUP7 DUP3 DUP8 ADD PUSH2 0x758 JUMP JUMPDEST SWAP4 POP POP PUSH1 0x60 PUSH2 0x7B7 DUP7 DUP3 DUP8 ADD PUSH2 0x6E5 JUMP JUMPDEST SWAP3 POP POP PUSH1 0x80 PUSH2 0x7C8 DUP7 DUP3 DUP8 ADD PUSH2 0x758 JUMP JUMPDEST SWAP2 POP POP SWAP3 POP SWAP3 POP SWAP3 JUMP JUMPDEST PUSH32 0x4E487B7100000000000000000000000000000000000000000000000000000000 PUSH0 MSTORE PUSH1 0x32 PUSH1 0x4 MSTORE PUSH1 0x24 PUSH0 REVERT JUMPDEST PUSH0 DUP3 DUP3 MSTORE PUSH1 0x20 DUP3 ADD SWAP1 POP SWAP3 SWAP2 POP POP JUMP JUMPDEST PUSH32 0x496E76616C6964206475726174696F6E00000000000000000000000000000000 PUSH0 DUP3 ADD MSTORE POP JUMP JUMPDEST PUSH0 PUSH2 0x843 PUSH1 0x10 DUP4 PUSH2 0x7FF JUMP JUMPDEST SWAP2 POP PUSH2 0x84E DUP3 PUSH2 0x80F JUMP JUMPDEST PUSH1 0x20 DUP3 ADD SWAP1 POP SWAP2 SWAP1 POP JUMP JUMPDEST PUSH0 PUSH1 0x20 DUP3 ADD SWAP1 POP DUP2 DUP2 SUB PUSH0 DUP4 ADD MSTORE PUSH2 0x870 DUP2 PUSH2 0x837 JUMP JUMPDEST SWAP1 POP SWAP2 SWAP1 POP JUMP JUMPDEST PUSH32 0x496E76616C696420707269636573000000000000000000000000000000000000 PUSH0 DUP3 ADD MSTORE POP JUMP JUMPDEST PUSH0 PUSH2 0x8AB PUSH1 0xE DUP4 PUSH2 0x7FF JUMP JUMPDEST SWAP2 POP PUSH2 0x8B6 DUP3 PUSH2 0x877 JUMP JUMPDEST PUSH1 0x20 DUP3 ADD SWAP1 POP SWAP2 SWAP1 POP JUMP JUMPDEST PUSH0 PUSH1 0x20 DUP3 ADD SWAP1 POP DUP2 DUP2 SUB PUSH0 DUP4 ADD MSTORE PUSH2 0x8D8 DUP2 PUSH2 0x89F JUMP JUMPDEST SWAP1 POP SWAP2 SWAP1 POP JUMP JUMPDEST PUSH32 0x496E76616C696420707269636520746965727300000000000000000000000000 PUSH0 DUP3 ADD MSTORE POP JUMP JUMPDEST PUSH0 PUSH2 0x913 PUSH1 0x13 DUP4 PUSH2 0x7FF JUMP JUMPDEST SWAP2 POP PUSH2 0x91E DUP3 PUSH2 0x8DF JUMP JUMPDEST PUSH1 0x20 DUP3 ADD SWAP1 POP SWAP2 SWAP1 POP JUMP JUMPDEST PUSH0 PUSH1 0x20 DUP3 ADD SWAP1 POP DUP2 DUP2 SUB PUSH0 DUP4 ADD MSTORE PUSH2 0x940 DUP2 PUSH2 0x907 JUMP JUMPDEST SWAP1 POP SWAP2 SWAP1 POP JUMP JUMPDEST PUSH32 0x496E76616C6964206D6178207061737365730000000000000000000000000000 PUSH0 DUP3 ADD MSTORE POP JUMP JUMPDEST PUSH0 PUSH2 0x97B PUSH1 0x12 DUP4 PUSH2 0x7FF JUMP JUMPDEST SWAP2 POP PUSH2 0x986 DUP3 PUSH2 0x947 JUMP JUMPDEST PUSH1 0x20 DUP3 ADD SWAP1 POP SWAP2 SWAP1 POP JUMP JUMPDEST PUSH0 PUSH1 0x20 DUP3 ADD SWAP1 POP DUP2 DUP2 SUB PUSH0 DUP4 ADD MSTORE PUSH2 0x9A8 DUP2 PUSH2 0x96F JUMP JUMPDEST SWAP1 POP SWAP2 SWAP1 POP JUMP INVALID LOG2 PUSH5 0x6970667358 0x22 SLT KECCAK256 PUSH20 0x4C985E195B31306A48DD9C75CCBC25230419D0DB 0xBF CALLDATACOPY SAR 0xE5 0x2E 0xCE INVALID BASEFEE SWAP1 0xDD SELFDESTRUCT PUSH5 0x736F6C6343 STOP ADDMOD SHR STOP CALLER "
		},
		"gasEstimates": {
			"creation": {
				"codeDepositCost": "506600",
				"executionCost": "566",
				"totalCost": "507166"
			},
			"external": {
				"isContract(address)": "3226",
				"validateEventParams(uint256[3],uint256,uint256[3])": "infinite",
				"validateIPFSHash(string)": "infinite"
			}
		},
		"methodIdentifiers": {
			"isContract(address)": "16279055",
			"validateEventParams(uint256[3],uint256,uint256[3])": "eef2a370",
			"validateIPFSHash(string)": "c934fdfc"
		}
	},
	"abi": [
		{
			"inputs": [
				{
					"internalType": "address",
					"name": "account",
					"type": "address"
				}
			],
			"name": "isContract",
			"outputs": [
				{
					"internalType": "bool",
					"name": "",
					"type": "bool"
				}
			],
			"stateMutability": "view",
			"type": "function"
		},
		{
			"inputs": [
				{
					"internalType": "uint256[3]",
					"name": "_price",
					"type": "uint256[3]"
				},
				{
					"internalType": "uint256",
					"name": "duration",
					"type": "uint256"
				},
				{
					"internalType": "uint256[3]",
					"name": "_maxpass",
					"type": "uint256[3]"
				}
			],
			"name": "validateEventParams",
			"outputs": [],
			"stateMutability": "pure",
			"type": "function"
		},
		{
			"inputs": [
				{
					"internalType": "string",
					"name": "ipfsHash",
					"type": "string"
				}
			],
			"name": "validateIPFSHash",
			"outputs": [
				{
					"internalType": "bool",
					"name": "",
					"type": "bool"
				}
			],
			"stateMutability": "pure",
			"type": "function"
		}
	]
}