{
	"Tip Jar/TipJar.sol": {
		"TipJar": {
			"abi": [
				{
					"inputs": [],
					"stateMutability": "nonpayable",
					"type": "constructor"
				},
				{
					"inputs": [],
					"name": "getAllTips",
					"outputs": [
						{
							"components": [
								{
									"internalType": "address",
									"name": "sender",
									"type": "address"
								},
								{
									"internalType": "uint256",
									"name": "amount",
									"type": "uint256"
								},
								{
									"internalType": "string",
									"name": "message",
									"type": "string"
								}
							],
							"internalType": "struct TipJar.Tip[]",
							"name": "",
							"type": "tuple[]"
						}
					],
					"stateMutability": "view",
					"type": "function"
				},
				{
					"inputs": [
						{
							"internalType": "string",
							"name": "message",
							"type": "string"
						}
					],
					"name": "tip",
					"outputs": [],
					"stateMutability": "payable",
					"type": "function"
				},
				{
					"inputs": [],
					"name": "withdraw",
					"outputs": [],
					"stateMutability": "nonpayable",
					"type": "function"
				}
			],
			"devdoc": {
				"kind": "dev",
				"methods": {},
				"version": 1
			},
			"evm": {
				"assembly": "    /* \"Tip Jar/TipJar.sol\":57:708  contract TipJar {... */\n  mstore(0x40, 0x80)\n    /* \"Tip Jar/TipJar.sol\":223:272  constructor() {... */\n  callvalue\n  dup1\n  iszero\n  tag_1\n  jumpi\n  revert(0x00, 0x00)\ntag_1:\n  pop\n    /* \"Tip Jar/TipJar.sol\":255:265  msg.sender */\n  caller\n    /* \"Tip Jar/TipJar.sol\":247:252  owner */\n  0x00\n  0x00\n    /* \"Tip Jar/TipJar.sol\":247:265  owner = msg.sender */\n  0x0100\n  exp\n  dup2\n  sload\n  dup2\n  0xffffffffffffffffffffffffffffffffffffffff\n  mul\n  not\n  and\n  swap1\n  dup4\n  0xffffffffffffffffffffffffffffffffffffffff\n  and\n  mul\n  or\n  swap1\n  sstore\n  pop\n    /* \"Tip Jar/TipJar.sol\":57:708  contract TipJar {... */\n  dataSize(sub_0)\n  dup1\n  dataOffset(sub_0)\n  0x00\n  codecopy\n  0x00\n  return\nstop\n\nsub_0: assembly {\n        /* \"Tip Jar/TipJar.sol\":57:708  contract TipJar {... */\n      mstore(0x40, 0x80)\n      jumpi(tag_1, lt(calldatasize, 0x04))\n      shr(0xe0, calldataload(0x00))\n      dup1\n      0x399ddbbd\n      eq\n      tag_2\n      jumpi\n      dup1\n      0x3ccfd60b\n      eq\n      tag_3\n      jumpi\n      dup1\n      0xcb56393c\n      eq\n      tag_4\n      jumpi\n    tag_1:\n      revert(0x00, 0x00)\n        /* \"Tip Jar/TipJar.sol\":618:706  function getAllTips() public view returns(Tip[] memory) {... */\n    tag_2:\n      callvalue\n      dup1\n      iszero\n      tag_5\n      jumpi\n      revert(0x00, 0x00)\n    tag_5:\n      pop\n      tag_6\n      tag_7\n      jump\t// in\n    tag_6:\n      mload(0x40)\n      tag_8\n      swap2\n      swap1\n      tag_9\n      jump\t// in\n    tag_8:\n      mload(0x40)\n      dup1\n      swap2\n      sub\n      swap1\n      return\n        /* \"Tip Jar/TipJar.sol\":512:612  function withdraw() public onlyOwner {... */\n    tag_3:\n      callvalue\n      dup1\n      iszero\n      tag_10\n      jumpi\n      revert(0x00, 0x00)\n    tag_10:\n      pop\n      tag_11\n      tag_12\n      jump\t// in\n    tag_11:\n      stop\n        /* \"Tip Jar/TipJar.sol\":386:506  function tip(string calldata message) public payable {... */\n    tag_4:\n      tag_13\n      0x04\n      dup1\n      calldatasize\n      sub\n      dup2\n      add\n      swap1\n      tag_14\n      swap2\n      swap1\n      tag_15\n      jump\t// in\n    tag_14:\n      tag_16\n      jump\t// in\n    tag_13:\n      stop\n        /* \"Tip Jar/TipJar.sol\":618:706  function getAllTips() public view returns(Tip[] memory) {... */\n    tag_7:\n        /* \"Tip Jar/TipJar.sol\":660:672  Tip[] memory */\n      0x60\n        /* \"Tip Jar/TipJar.sol\":691:699  messages */\n      0x01\n        /* \"Tip Jar/TipJar.sol\":684:699  return messages */\n      dup1\n      sload\n      dup1\n      0x20\n      mul\n      0x20\n      add\n      mload(0x40)\n      swap1\n      dup2\n      add\n      0x40\n      mstore\n      dup1\n      swap3\n      swap2\n      swap1\n      dup2\n      dup2\n      mstore\n      0x20\n      add\n      0x00\n      swap1\n    tag_18:\n      dup3\n      dup3\n      lt\n      iszero\n      tag_19\n      jumpi\n      dup4\n      dup3\n      swap1\n      0x00\n      mstore\n      keccak256(0x00, 0x20)\n      swap1\n      0x03\n      mul\n      add\n      mload(0x40)\n      dup1\n      0x60\n      add\n      0x40\n      mstore\n      swap1\n      dup2\n      0x00\n      dup3\n      add\n      0x00\n      swap1\n      sload\n      swap1\n      0x0100\n      exp\n      swap1\n      div\n      0xffffffffffffffffffffffffffffffffffffffff\n      and\n      0xffffffffffffffffffffffffffffffffffffffff\n      and\n      0xffffffffffffffffffffffffffffffffffffffff\n      and\n      dup2\n      mstore\n      0x20\n      add\n      0x01\n      dup3\n      add\n      sload\n      dup2\n      mstore\n      0x20\n      add\n      0x02\n      dup3\n      add\n      dup1\n      sload\n      tag_21\n      swap1\n      tag_22\n      jump\t// in\n    tag_21:\n      dup1\n      0x1f\n      add\n      0x20\n      dup1\n      swap2\n      div\n      mul\n      0x20\n      add\n      mload(0x40)\n      swap1\n      dup2\n      add\n      0x40\n      mstore\n      dup1\n      swap3\n      swap2\n      swap1\n      dup2\n      dup2\n      mstore\n      0x20\n      add\n      dup3\n      dup1\n      sload\n      tag_23\n      swap1\n      tag_22\n      jump\t// in\n    tag_23:\n      dup1\n      iszero\n      tag_24\n      jumpi\n      dup1\n      0x1f\n      lt\n      tag_25\n      jumpi\n      0x0100\n      dup1\n      dup4\n      sload\n      div\n      mul\n      dup4\n      mstore\n      swap2\n      0x20\n      add\n      swap2\n      jump(tag_24)\n    tag_25:\n      dup3\n      add\n      swap2\n      swap1\n      0x00\n      mstore\n      keccak256(0x00, 0x20)\n      swap1\n    tag_26:\n      dup2\n      sload\n      dup2\n      mstore\n      swap1\n      0x01\n      add\n      swap1\n      0x20\n      add\n      dup1\n      dup4\n      gt\n      tag_26\n      jumpi\n      dup3\n      swap1\n      sub\n      0x1f\n      and\n      dup3\n      add\n      swap2\n    tag_24:\n      pop\n      pop\n      pop\n      pop\n      pop\n      dup2\n      mstore\n      pop\n      pop\n      dup2\n      mstore\n      0x20\n      add\n      swap1\n      0x01\n      add\n      swap1\n      jump(tag_18)\n    tag_19:\n      pop\n      pop\n      pop\n      pop\n      swap1\n      pop\n        /* \"Tip Jar/TipJar.sol\":618:706  function getAllTips() public view returns(Tip[] memory) {... */\n      swap1\n      jump\t// out\n        /* \"Tip Jar/TipJar.sol\":512:612  function withdraw() public onlyOwner {... */\n    tag_12:\n        /* \"Tip Jar/TipJar.sol\":326:336  msg.sender */\n      caller\n        /* \"Tip Jar/TipJar.sol\":317:336  owner == msg.sender */\n      0xffffffffffffffffffffffffffffffffffffffff\n      and\n        /* \"Tip Jar/TipJar.sol\":317:322  owner */\n      0x00\n      0x00\n      swap1\n      sload\n      swap1\n      0x0100\n      exp\n      swap1\n      div\n      0xffffffffffffffffffffffffffffffffffffffff\n      and\n        /* \"Tip Jar/TipJar.sol\":317:336  owner == msg.sender */\n      0xffffffffffffffffffffffffffffffffffffffff\n      and\n      eq\n        /* \"Tip Jar/TipJar.sol\":309:362  require(owner == msg.sender, \"You are not the owner\") */\n      tag_28\n      jumpi\n      mload(0x40)\n      0x08c379a000000000000000000000000000000000000000000000000000000000\n      dup2\n      mstore\n      0x04\n      add\n      tag_29\n      swap1\n      tag_30\n      jump\t// in\n    tag_29:\n      mload(0x40)\n      dup1\n      swap2\n      sub\n      swap1\n      revert\n    tag_28:\n        /* \"Tip Jar/TipJar.sol\":567:572  owner */\n      0x00\n      0x00\n      swap1\n      sload\n      swap1\n      0x0100\n      exp\n      swap1\n      div\n      0xffffffffffffffffffffffffffffffffffffffff\n      and\n        /* \"Tip Jar/TipJar.sol\":559:582  payable(owner).transfer */\n      0xffffffffffffffffffffffffffffffffffffffff\n      and\n        /* \"Tip Jar/TipJar.sol\":559:605  payable(owner).transfer(address(this).balance) */\n      0x08fc\n        /* \"Tip Jar/TipJar.sol\":583:604  address(this).balance */\n      selfbalance\n        /* \"Tip Jar/TipJar.sol\":559:605  payable(owner).transfer(address(this).balance) */\n      swap1\n      dup2\n      iszero\n      mul\n      swap1\n      mload(0x40)\n      0x00\n      mload(0x40)\n      dup1\n      dup4\n      sub\n      dup2\n      dup6\n      dup9\n      dup9\n      call\n      swap4\n      pop\n      pop\n      pop\n      pop\n      iszero\n      dup1\n      iszero\n      tag_33\n      jumpi\n      returndatacopy(0x00, 0x00, returndatasize)\n      revert(0x00, returndatasize)\n    tag_33:\n      pop\n        /* \"Tip Jar/TipJar.sol\":512:612  function withdraw() public onlyOwner {... */\n      jump\t// out\n        /* \"Tip Jar/TipJar.sol\":386:506  function tip(string calldata message) public payable {... */\n    tag_16:\n        /* \"Tip Jar/TipJar.sol\":449:457  messages */\n      0x01\n        /* \"Tip Jar/TipJar.sol\":463:498  Tip(msg.sender, msg.value, message) */\n      mload(0x40)\n      dup1\n      0x60\n      add\n      0x40\n      mstore\n      dup1\n        /* \"Tip Jar/TipJar.sol\":467:477  msg.sender */\n      caller\n        /* \"Tip Jar/TipJar.sol\":463:498  Tip(msg.sender, msg.value, message) */\n      0xffffffffffffffffffffffffffffffffffffffff\n      and\n      dup2\n      mstore\n      0x20\n      add\n        /* \"Tip Jar/TipJar.sol\":479:488  msg.value */\n      callvalue\n        /* \"Tip Jar/TipJar.sol\":463:498  Tip(msg.sender, msg.value, message) */\n      dup2\n      mstore\n      0x20\n      add\n        /* \"Tip Jar/TipJar.sol\":490:497  message */\n      dup5\n      dup5\n        /* \"Tip Jar/TipJar.sol\":463:498  Tip(msg.sender, msg.value, message) */\n      dup1\n      dup1\n      0x1f\n      add\n      0x20\n      dup1\n      swap2\n      div\n      mul\n      0x20\n      add\n      mload(0x40)\n      swap1\n      dup2\n      add\n      0x40\n      mstore\n      dup1\n      swap4\n      swap3\n      swap2\n      swap1\n      dup2\n      dup2\n      mstore\n      0x20\n      add\n      dup4\n      dup4\n      dup1\n      dup3\n      dup5\n      calldatacopy\n      0x00\n      dup2\n      dup5\n      add\n      mstore\n      not(0x1f)\n      0x1f\n      dup3\n      add\n      and\n      swap1\n      pop\n      dup1\n      dup4\n      add\n      swap3\n      pop\n      pop\n      pop\n      pop\n      pop\n      pop\n      pop\n      dup2\n      mstore\n      pop\n        /* \"Tip Jar/TipJar.sol\":449:499  messages.push(Tip(msg.sender, msg.value, message)) */\n      swap1\n      dup1\n      0x01\n      dup2\n      sload\n      add\n      dup1\n      dup3\n      sstore\n      dup1\n      swap2\n      pop\n      pop\n      0x01\n      swap1\n      sub\n      swap1\n      0x00\n      mstore\n      keccak256(0x00, 0x20)\n      swap1\n      0x03\n      mul\n      add\n      0x00\n      swap1\n      swap2\n      swap1\n      swap2\n      swap1\n      swap2\n      pop\n      0x00\n      dup3\n      add\n      mload\n      dup2\n      0x00\n      add\n      exp(0x0100, 0x00)\n      dup2\n      sload\n      dup2\n      0xffffffffffffffffffffffffffffffffffffffff\n      mul\n      not\n      and\n      swap1\n      dup4\n      0xffffffffffffffffffffffffffffffffffffffff\n      and\n      mul\n      or\n      swap1\n      sstore\n      pop\n      0x20\n      dup3\n      add\n      mload\n      dup2\n      0x01\n      add\n      sstore\n      0x40\n      dup3\n      add\n      mload\n      dup2\n      0x02\n      add\n      swap1\n      dup2\n      tag_36\n      swap2\n      swap1\n      tag_37\n      jump\t// in\n    tag_36:\n      pop\n      pop\n      pop\n        /* \"Tip Jar/TipJar.sol\":386:506  function tip(string calldata message) public payable {... */\n      pop\n      pop\n      jump\t// out\n        /* \"#utility.yul\":7:139   */\n    tag_38:\n        /* \"#utility.yul\":92:98   */\n      0x00\n        /* \"#utility.yul\":126:131   */\n      dup2\n        /* \"#utility.yul\":120:132   */\n      mload\n        /* \"#utility.yul\":110:132   */\n      swap1\n      pop\n        /* \"#utility.yul\":7:139   */\n      swap2\n      swap1\n      pop\n      jump\t// out\n        /* \"#utility.yul\":145:347   */\n    tag_39:\n        /* \"#utility.yul\":262:273   */\n      0x00\n        /* \"#utility.yul\":296:302   */\n      dup3\n        /* \"#utility.yul\":291:294   */\n      dup3\n        /* \"#utility.yul\":284:303   */\n      mstore\n        /* \"#utility.yul\":336:340   */\n      0x20\n        /* \"#utility.yul\":331:334   */\n      dup3\n        /* \"#utility.yul\":327:341   */\n      add\n        /* \"#utility.yul\":312:341   */\n      swap1\n      pop\n        /* \"#utility.yul\":145:347   */\n      swap3\n      swap2\n      pop\n      pop\n      jump\t// out\n        /* \"#utility.yul\":353:503   */\n    tag_40:\n        /* \"#utility.yul\":438:442   */\n      0x00\n        /* \"#utility.yul\":461:464   */\n      dup2\n        /* \"#utility.yul\":453:464   */\n      swap1\n      pop\n        /* \"#utility.yul\":491:495   */\n      0x20\n        /* \"#utility.yul\":486:489   */\n      dup3\n        /* \"#utility.yul\":482:496   */\n      add\n        /* \"#utility.yul\":474:496   */\n      swap1\n      pop\n        /* \"#utility.yul\":353:503   */\n      swap2\n      swap1\n      pop\n      jump\t// out\n        /* \"#utility.yul\":509:635   */\n    tag_41:\n        /* \"#utility.yul\":546:553   */\n      0x00\n        /* \"#utility.yul\":586:628   */\n      0xffffffffffffffffffffffffffffffffffffffff\n        /* \"#utility.yul\":579:584   */\n      dup3\n        /* \"#utility.yul\":575:629   */\n      and\n        /* \"#utility.yul\":564:629   */\n      swap1\n      pop\n        /* \"#utility.yul\":509:635   */\n      swap2\n      swap1\n      pop\n      jump\t// out\n        /* \"#utility.yul\":641:737   */\n    tag_42:\n        /* \"#utility.yul\":678:685   */\n      0x00\n        /* \"#utility.yul\":707:731   */\n      tag_88\n        /* \"#utility.yul\":725:730   */\n      dup3\n        /* \"#utility.yul\":707:731   */\n      tag_41\n      jump\t// in\n    tag_88:\n        /* \"#utility.yul\":696:731   */\n      swap1\n      pop\n        /* \"#utility.yul\":641:737   */\n      swap2\n      swap1\n      pop\n      jump\t// out\n        /* \"#utility.yul\":743:851   */\n    tag_43:\n        /* \"#utility.yul\":820:844   */\n      tag_90\n        /* \"#utility.yul\":838:843   */\n      dup2\n        /* \"#utility.yul\":820:844   */\n      tag_42\n      jump\t// in\n    tag_90:\n        /* \"#utility.yul\":815:818   */\n      dup3\n        /* \"#utility.yul\":808:845   */\n      mstore\n        /* \"#utility.yul\":743:851   */\n      pop\n      pop\n      jump\t// out\n        /* \"#utility.yul\":857:934   */\n    tag_44:\n        /* \"#utility.yul\":894:901   */\n      0x00\n        /* \"#utility.yul\":923:928   */\n      dup2\n        /* \"#utility.yul\":912:928   */\n      swap1\n      pop\n        /* \"#utility.yul\":857:934   */\n      swap2\n      swap1\n      pop\n      jump\t// out\n        /* \"#utility.yul\":940:1048   */\n    tag_45:\n        /* \"#utility.yul\":1017:1041   */\n      tag_93\n        /* \"#utility.yul\":1035:1040   */\n      dup2\n        /* \"#utility.yul\":1017:1041   */\n      tag_44\n      jump\t// in\n    tag_93:\n        /* \"#utility.yul\":1012:1015   */\n      dup3\n        /* \"#utility.yul\":1005:1042   */\n      mstore\n        /* \"#utility.yul\":940:1048   */\n      pop\n      pop\n      jump\t// out\n        /* \"#utility.yul\":1054:1153   */\n    tag_46:\n        /* \"#utility.yul\":1106:1112   */\n      0x00\n        /* \"#utility.yul\":1140:1145   */\n      dup2\n        /* \"#utility.yul\":1134:1146   */\n      mload\n        /* \"#utility.yul\":1124:1146   */\n      swap1\n      pop\n        /* \"#utility.yul\":1054:1153   */\n      swap2\n      swap1\n      pop\n      jump\t// out\n        /* \"#utility.yul\":1159:1318   */\n    tag_47:\n        /* \"#utility.yul\":1233:1244   */\n      0x00\n        /* \"#utility.yul\":1267:1273   */\n      dup3\n        /* \"#utility.yul\":1262:1265   */\n      dup3\n        /* \"#utility.yul\":1255:1274   */\n      mstore\n        /* \"#utility.yul\":1307:1311   */\n      0x20\n        /* \"#utility.yul\":1302:1305   */\n      dup3\n        /* \"#utility.yul\":1298:1312   */\n      add\n        /* \"#utility.yul\":1283:1312   */\n      swap1\n      pop\n        /* \"#utility.yul\":1159:1318   */\n      swap3\n      swap2\n      pop\n      pop\n      jump\t// out\n        /* \"#utility.yul\":1324:1463   */\n    tag_48:\n        /* \"#utility.yul\":1413:1419   */\n      dup3\n        /* \"#utility.yul\":1408:1411   */\n      dup2\n        /* \"#utility.yul\":1403:1406   */\n      dup4\n        /* \"#utility.yul\":1397:1420   */\n      mcopy\n        /* \"#utility.yul\":1454:1455   */\n      0x00\n        /* \"#utility.yul\":1445:1451   */\n      dup4\n        /* \"#utility.yul\":1440:1443   */\n      dup4\n        /* \"#utility.yul\":1436:1452   */\n      add\n        /* \"#utility.yul\":1429:1456   */\n      mstore\n        /* \"#utility.yul\":1324:1463   */\n      pop\n      pop\n      pop\n      jump\t// out\n        /* \"#utility.yul\":1469:1571   */\n    tag_49:\n        /* \"#utility.yul\":1510:1516   */\n      0x00\n        /* \"#utility.yul\":1561:1563   */\n      0x1f\n        /* \"#utility.yul\":1557:1564   */\n      not\n        /* \"#utility.yul\":1552:1554   */\n      0x1f\n        /* \"#utility.yul\":1545:1550   */\n      dup4\n        /* \"#utility.yul\":1541:1555   */\n      add\n        /* \"#utility.yul\":1537:1565   */\n      and\n        /* \"#utility.yul\":1527:1565   */\n      swap1\n      pop\n        /* \"#utility.yul\":1469:1571   */\n      swap2\n      swap1\n      pop\n      jump\t// out\n        /* \"#utility.yul\":1577:1934   */\n    tag_50:\n        /* \"#utility.yul\":1655:1658   */\n      0x00\n        /* \"#utility.yul\":1683:1722   */\n      tag_99\n        /* \"#utility.yul\":1716:1721   */\n      dup3\n        /* \"#utility.yul\":1683:1722   */\n      tag_46\n      jump\t// in\n    tag_99:\n        /* \"#utility.yul\":1738:1799   */\n      tag_100\n        /* \"#utility.yul\":1792:1798   */\n      dup2\n        /* \"#utility.yul\":1787:1790   */\n      dup6\n        /* \"#utility.yul\":1738:1799   */\n      tag_47\n      jump\t// in\n    tag_100:\n        /* \"#utility.yul\":1731:1799   */\n      swap4\n      pop\n        /* \"#utility.yul\":1808:1873   */\n      tag_101\n        /* \"#utility.yul\":1866:1872   */\n      dup2\n        /* \"#utility.yul\":1861:1864   */\n      dup6\n        /* \"#utility.yul\":1854:1858   */\n      0x20\n        /* \"#utility.yul\":1847:1852   */\n      dup7\n        /* \"#utility.yul\":1843:1859   */\n      add\n        /* \"#utility.yul\":1808:1873   */\n      tag_48\n      jump\t// in\n    tag_101:\n        /* \"#utility.yul\":1898:1927   */\n      tag_102\n        /* \"#utility.yul\":1920:1926   */\n      dup2\n        /* \"#utility.yul\":1898:1927   */\n      tag_49\n      jump\t// in\n    tag_102:\n        /* \"#utility.yul\":1893:1896   */\n      dup5\n        /* \"#utility.yul\":1889:1928   */\n      add\n        /* \"#utility.yul\":1882:1928   */\n      swap2\n      pop\n        /* \"#utility.yul\":1659:1934   */\n      pop\n        /* \"#utility.yul\":1577:1934   */\n      swap3\n      swap2\n      pop\n      pop\n      jump\t// out\n        /* \"#utility.yul\":1986:2749   */\n    tag_51:\n        /* \"#utility.yul\":2081:2084   */\n      0x00\n        /* \"#utility.yul\":2117:2121   */\n      0x60\n        /* \"#utility.yul\":2112:2115   */\n      dup4\n        /* \"#utility.yul\":2108:2122   */\n      add\n        /* \"#utility.yul\":2206:2210   */\n      0x00\n        /* \"#utility.yul\":2199:2204   */\n      dup4\n        /* \"#utility.yul\":2195:2211   */\n      add\n        /* \"#utility.yul\":2189:2212   */\n      mload\n        /* \"#utility.yul\":2225:2288   */\n      tag_104\n        /* \"#utility.yul\":2282:2286   */\n      0x00\n        /* \"#utility.yul\":2277:2280   */\n      dup7\n        /* \"#utility.yul\":2273:2287   */\n      add\n        /* \"#utility.yul\":2259:2271   */\n      dup3\n        /* \"#utility.yul\":2225:2288   */\n      tag_43\n      jump\t// in\n    tag_104:\n        /* \"#utility.yul\":2132:2298   */\n      pop\n        /* \"#utility.yul\":2382:2386   */\n      0x20\n        /* \"#utility.yul\":2375:2380   */\n      dup4\n        /* \"#utility.yul\":2371:2387   */\n      add\n        /* \"#utility.yul\":2365:2388   */\n      mload\n        /* \"#utility.yul\":2401:2464   */\n      tag_105\n        /* \"#utility.yul\":2458:2462   */\n      0x20\n        /* \"#utility.yul\":2453:2456   */\n      dup7\n        /* \"#utility.yul\":2449:2463   */\n      add\n        /* \"#utility.yul\":2435:2447   */\n      dup3\n        /* \"#utility.yul\":2401:2464   */\n      tag_45\n      jump\t// in\n    tag_105:\n        /* \"#utility.yul\":2308:2474   */\n      pop\n        /* \"#utility.yul\":2559:2563   */\n      0x40\n        /* \"#utility.yul\":2552:2557   */\n      dup4\n        /* \"#utility.yul\":2548:2564   */\n      add\n        /* \"#utility.yul\":2542:2565   */\n      mload\n        /* \"#utility.yul\":2612:2615   */\n      dup5\n        /* \"#utility.yul\":2606:2610   */\n      dup3\n        /* \"#utility.yul\":2602:2616   */\n      sub\n        /* \"#utility.yul\":2595:2599   */\n      0x40\n        /* \"#utility.yul\":2590:2593   */\n      dup7\n        /* \"#utility.yul\":2586:2600   */\n      add\n        /* \"#utility.yul\":2579:2617   */\n      mstore\n        /* \"#utility.yul\":2638:2711   */\n      tag_106\n        /* \"#utility.yul\":2706:2710   */\n      dup3\n        /* \"#utility.yul\":2692:2704   */\n      dup3\n        /* \"#utility.yul\":2638:2711   */\n      tag_50\n      jump\t// in\n    tag_106:\n        /* \"#utility.yul\":2630:2711   */\n      swap2\n      pop\n        /* \"#utility.yul\":2484:2722   */\n      pop\n        /* \"#utility.yul\":2739:2743   */\n      dup1\n        /* \"#utility.yul\":2732:2743   */\n      swap2\n      pop\n        /* \"#utility.yul\":2086:2749   */\n      pop\n        /* \"#utility.yul\":1986:2749   */\n      swap3\n      swap2\n      pop\n      pop\n      jump\t// out\n        /* \"#utility.yul\":2755:2983   */\n    tag_52:\n        /* \"#utility.yul\":2860:2870   */\n      0x00\n        /* \"#utility.yul\":2895:2977   */\n      tag_108\n        /* \"#utility.yul\":2973:2976   */\n      dup4\n        /* \"#utility.yul\":2965:2971   */\n      dup4\n        /* \"#utility.yul\":2895:2977   */\n      tag_51\n      jump\t// in\n    tag_108:\n        /* \"#utility.yul\":2881:2977   */\n      swap1\n      pop\n        /* \"#utility.yul\":2755:2983   */\n      swap3\n      swap2\n      pop\n      pop\n      jump\t// out\n        /* \"#utility.yul\":2989:3120   */\n    tag_53:\n        /* \"#utility.yul\":3077:3081   */\n      0x00\n        /* \"#utility.yul\":3109:3113   */\n      0x20\n        /* \"#utility.yul\":3104:3107   */\n      dup3\n        /* \"#utility.yul\":3100:3114   */\n      add\n        /* \"#utility.yul\":3092:3114   */\n      swap1\n      pop\n        /* \"#utility.yul\":2989:3120   */\n      swap2\n      swap1\n      pop\n      jump\t// out\n        /* \"#utility.yul\":3176:4231   */\n    tag_54:\n        /* \"#utility.yul\":3331:3334   */\n      0x00\n        /* \"#utility.yul\":3360:3432   */\n      tag_111\n        /* \"#utility.yul\":3426:3431   */\n      dup3\n        /* \"#utility.yul\":3360:3432   */\n      tag_38\n      jump\t// in\n    tag_111:\n        /* \"#utility.yul\":3448:3552   */\n      tag_112\n        /* \"#utility.yul\":3545:3551   */\n      dup2\n        /* \"#utility.yul\":3540:3543   */\n      dup6\n        /* \"#utility.yul\":3448:3552   */\n      tag_39\n      jump\t// in\n    tag_112:\n        /* \"#utility.yul\":3441:3552   */\n      swap4\n      pop\n        /* \"#utility.yul\":3578:3581   */\n      dup4\n        /* \"#utility.yul\":3623:3627   */\n      0x20\n        /* \"#utility.yul\":3615:3621   */\n      dup3\n        /* \"#utility.yul\":3611:3628   */\n      mul\n        /* \"#utility.yul\":3606:3609   */\n      dup6\n        /* \"#utility.yul\":3602:3629   */\n      add\n        /* \"#utility.yul\":3653:3727   */\n      tag_113\n        /* \"#utility.yul\":3721:3726   */\n      dup6\n        /* \"#utility.yul\":3653:3727   */\n      tag_40\n      jump\t// in\n    tag_113:\n        /* \"#utility.yul\":3750:3757   */\n      dup1\n        /* \"#utility.yul\":3781:3782   */\n      0x00\n        /* \"#utility.yul\":3766:4186   */\n    tag_114:\n        /* \"#utility.yul\":3791:3797   */\n      dup6\n        /* \"#utility.yul\":3788:3789   */\n      dup2\n        /* \"#utility.yul\":3785:3798   */\n      lt\n        /* \"#utility.yul\":3766:4186   */\n      iszero\n      tag_116\n      jumpi\n        /* \"#utility.yul\":3862:3871   */\n      dup5\n        /* \"#utility.yul\":3856:3860   */\n      dup5\n        /* \"#utility.yul\":3852:3872   */\n      sub\n        /* \"#utility.yul\":3847:3850   */\n      dup10\n        /* \"#utility.yul\":3840:3873   */\n      mstore\n        /* \"#utility.yul\":3913:3919   */\n      dup2\n        /* \"#utility.yul\":3907:3920   */\n      mload\n        /* \"#utility.yul\":3941:4041   */\n      tag_117\n        /* \"#utility.yul\":4036:4040   */\n      dup6\n        /* \"#utility.yul\":4021:4034   */\n      dup3\n        /* \"#utility.yul\":3941:4041   */\n      tag_52\n      jump\t// in\n    tag_117:\n        /* \"#utility.yul\":3933:4041   */\n      swap5\n      pop\n        /* \"#utility.yul\":4064:4142   */\n      tag_118\n        /* \"#utility.yul\":4135:4141   */\n      dup4\n        /* \"#utility.yul\":4064:4142   */\n      tag_53\n      jump\t// in\n    tag_118:\n        /* \"#utility.yul\":4054:4142   */\n      swap3\n      pop\n        /* \"#utility.yul\":4171:4175   */\n      0x20\n        /* \"#utility.yul\":4166:4169   */\n      dup11\n        /* \"#utility.yul\":4162:4176   */\n      add\n        /* \"#utility.yul\":4155:4176   */\n      swap10\n      pop\n        /* \"#utility.yul\":3826:4186   */\n      pop\n        /* \"#utility.yul\":3813:3814   */\n      0x01\n        /* \"#utility.yul\":3810:3811   */\n      dup2\n        /* \"#utility.yul\":3806:3815   */\n      add\n        /* \"#utility.yul\":3801:3815   */\n      swap1\n      pop\n        /* \"#utility.yul\":3766:4186   */\n      jump(tag_114)\n    tag_116:\n        /* \"#utility.yul\":3770:3784   */\n      pop\n        /* \"#utility.yul\":4202:4206   */\n      dup3\n        /* \"#utility.yul\":4195:4206   */\n      swap8\n      pop\n        /* \"#utility.yul\":4222:4225   */\n      dup8\n        /* \"#utility.yul\":4215:4225   */\n      swap6\n      pop\n        /* \"#utility.yul\":3336:4231   */\n      pop\n      pop\n      pop\n      pop\n      pop\n        /* \"#utility.yul\":3176:4231   */\n      swap3\n      swap2\n      pop\n      pop\n      jump\t// out\n        /* \"#utility.yul\":4237:4682   */\n    tag_9:\n        /* \"#utility.yul\":4416:4420   */\n      0x00\n        /* \"#utility.yul\":4454:4456   */\n      0x20\n        /* \"#utility.yul\":4443:4452   */\n      dup3\n        /* \"#utility.yul\":4439:4457   */\n      add\n        /* \"#utility.yul\":4431:4457   */\n      swap1\n      pop\n        /* \"#utility.yul\":4503:4512   */\n      dup2\n        /* \"#utility.yul\":4497:4501   */\n      dup2\n        /* \"#utility.yul\":4493:4513   */\n      sub\n        /* \"#utility.yul\":4489:4490   */\n      0x00\n        /* \"#utility.yul\":4478:4487   */\n      dup4\n        /* \"#utility.yul\":4474:4491   */\n      add\n        /* \"#utility.yul\":4467:4514   */\n      mstore\n        /* \"#utility.yul\":4531:4675   */\n      tag_120\n        /* \"#utility.yul\":4670:4674   */\n      dup2\n        /* \"#utility.yul\":4661:4667   */\n      dup5\n        /* \"#utility.yul\":4531:4675   */\n      tag_54\n      jump\t// in\n    tag_120:\n        /* \"#utility.yul\":4523:4675   */\n      swap1\n      pop\n        /* \"#utility.yul\":4237:4682   */\n      swap3\n      swap2\n      pop\n      pop\n      jump\t// out\n        /* \"#utility.yul\":4769:4886   */\n    tag_56:\n        /* \"#utility.yul\":4878:4879   */\n      0x00\n        /* \"#utility.yul\":4875:4876   */\n      0x00\n        /* \"#utility.yul\":4868:4880   */\n      revert\n        /* \"#utility.yul\":4892:5009   */\n    tag_57:\n        /* \"#utility.yul\":5001:5002   */\n      0x00\n        /* \"#utility.yul\":4998:4999   */\n      0x00\n        /* \"#utility.yul\":4991:5003   */\n      revert\n        /* \"#utility.yul\":5015:5132   */\n    tag_58:\n        /* \"#utility.yul\":5124:5125   */\n      0x00\n        /* \"#utility.yul\":5121:5122   */\n      0x00\n        /* \"#utility.yul\":5114:5126   */\n      revert\n        /* \"#utility.yul\":5138:5255   */\n    tag_59:\n        /* \"#utility.yul\":5247:5248   */\n      0x00\n        /* \"#utility.yul\":5244:5245   */\n      0x00\n        /* \"#utility.yul\":5237:5249   */\n      revert\n        /* \"#utility.yul\":5261:5378   */\n    tag_60:\n        /* \"#utility.yul\":5370:5371   */\n      0x00\n        /* \"#utility.yul\":5367:5368   */\n      0x00\n        /* \"#utility.yul\":5360:5372   */\n      revert\n        /* \"#utility.yul\":5398:5951   */\n    tag_61:\n        /* \"#utility.yul\":5456:5464   */\n      0x00\n        /* \"#utility.yul\":5466:5472   */\n      0x00\n        /* \"#utility.yul\":5516:5519   */\n      dup4\n        /* \"#utility.yul\":5509:5513   */\n      0x1f\n        /* \"#utility.yul\":5501:5507   */\n      dup5\n        /* \"#utility.yul\":5497:5514   */\n      add\n        /* \"#utility.yul\":5493:5520   */\n      slt\n        /* \"#utility.yul\":5483:5605   */\n      tag_128\n      jumpi\n        /* \"#utility.yul\":5524:5603   */\n      tag_129\n      tag_58\n      jump\t// in\n    tag_129:\n        /* \"#utility.yul\":5483:5605   */\n    tag_128:\n        /* \"#utility.yul\":5637:5643   */\n      dup3\n        /* \"#utility.yul\":5624:5644   */\n      calldataload\n        /* \"#utility.yul\":5614:5644   */\n      swap1\n      pop\n        /* \"#utility.yul\":5667:5685   */\n      0xffffffffffffffff\n        /* \"#utility.yul\":5659:5665   */\n      dup2\n        /* \"#utility.yul\":5656:5686   */\n      gt\n        /* \"#utility.yul\":5653:5770   */\n      iszero\n      tag_130\n      jumpi\n        /* \"#utility.yul\":5689:5768   */\n      tag_131\n      tag_59\n      jump\t// in\n    tag_131:\n        /* \"#utility.yul\":5653:5770   */\n    tag_130:\n        /* \"#utility.yul\":5803:5807   */\n      0x20\n        /* \"#utility.yul\":5795:5801   */\n      dup4\n        /* \"#utility.yul\":5791:5808   */\n      add\n        /* \"#utility.yul\":5779:5808   */\n      swap2\n      pop\n        /* \"#utility.yul\":5857:5860   */\n      dup4\n        /* \"#utility.yul\":5849:5853   */\n      0x01\n        /* \"#utility.yul\":5841:5847   */\n      dup3\n        /* \"#utility.yul\":5837:5854   */\n      mul\n        /* \"#utility.yul\":5827:5835   */\n      dup4\n        /* \"#utility.yul\":5823:5855   */\n      add\n        /* \"#utility.yul\":5820:5861   */\n      gt\n        /* \"#utility.yul\":5817:5945   */\n      iszero\n      tag_132\n      jumpi\n        /* \"#utility.yul\":5864:5943   */\n      tag_133\n      tag_60\n      jump\t// in\n    tag_133:\n        /* \"#utility.yul\":5817:5945   */\n    tag_132:\n        /* \"#utility.yul\":5398:5951   */\n      swap3\n      pop\n      swap3\n      swap1\n      pop\n      jump\t// out\n        /* \"#utility.yul\":5957:6486   */\n    tag_15:\n        /* \"#utility.yul\":6028:6034   */\n      0x00\n        /* \"#utility.yul\":6036:6042   */\n      0x00\n        /* \"#utility.yul\":6085:6087   */\n      0x20\n        /* \"#utility.yul\":6073:6082   */\n      dup4\n        /* \"#utility.yul\":6064:6071   */\n      dup6\n        /* \"#utility.yul\":6060:6083   */\n      sub\n        /* \"#utility.yul\":6056:6088   */\n      slt\n        /* \"#utility.yul\":6053:6172   */\n      iszero\n      tag_135\n      jumpi\n        /* \"#utility.yul\":6091:6170   */\n      tag_136\n      tag_56\n      jump\t// in\n    tag_136:\n        /* \"#utility.yul\":6053:6172   */\n    tag_135:\n        /* \"#utility.yul\":6239:6240   */\n      0x00\n        /* \"#utility.yul\":6228:6237   */\n      dup4\n        /* \"#utility.yul\":6224:6241   */\n      add\n        /* \"#utility.yul\":6211:6242   */\n      calldataload\n        /* \"#utility.yul\":6269:6287   */\n      0xffffffffffffffff\n        /* \"#utility.yul\":6261:6267   */\n      dup2\n        /* \"#utility.yul\":6258:6288   */\n      gt\n        /* \"#utility.yul\":6255:6372   */\n      iszero\n      tag_137\n      jumpi\n        /* \"#utility.yul\":6291:6370   */\n      tag_138\n      tag_57\n      jump\t// in\n    tag_138:\n        /* \"#utility.yul\":6255:6372   */\n    tag_137:\n        /* \"#utility.yul\":6404:6469   */\n      tag_139\n        /* \"#utility.yul\":6461:6468   */\n      dup6\n        /* \"#utility.yul\":6452:6458   */\n      dup3\n        /* \"#utility.yul\":6441:6450   */\n      dup7\n        /* \"#utility.yul\":6437:6459   */\n      add\n        /* \"#utility.yul\":6404:6469   */\n      tag_61\n      jump\t// in\n    tag_139:\n        /* \"#utility.yul\":6386:6469   */\n      swap3\n      pop\n      swap3\n      pop\n        /* \"#utility.yul\":6182:6479   */\n      pop\n        /* \"#utility.yul\":5957:6486   */\n      swap3\n      pop\n      swap3\n      swap1\n      pop\n      jump\t// out\n        /* \"#utility.yul\":6492:6672   */\n    tag_62:\n        /* \"#utility.yul\":6540:6617   */\n      0x4e487b7100000000000000000000000000000000000000000000000000000000\n        /* \"#utility.yul\":6537:6538   */\n      0x00\n        /* \"#utility.yul\":6530:6618   */\n      mstore\n        /* \"#utility.yul\":6637:6641   */\n      0x22\n        /* \"#utility.yul\":6634:6635   */\n      0x04\n        /* \"#utility.yul\":6627:6642   */\n      mstore\n        /* \"#utility.yul\":6661:6665   */\n      0x24\n        /* \"#utility.yul\":6658:6659   */\n      0x00\n        /* \"#utility.yul\":6651:6666   */\n      revert\n        /* \"#utility.yul\":6678:6998   */\n    tag_22:\n        /* \"#utility.yul\":6722:6728   */\n      0x00\n        /* \"#utility.yul\":6759:6760   */\n      0x02\n        /* \"#utility.yul\":6753:6757   */\n      dup3\n        /* \"#utility.yul\":6749:6761   */\n      div\n        /* \"#utility.yul\":6739:6761   */\n      swap1\n      pop\n        /* \"#utility.yul\":6806:6807   */\n      0x01\n        /* \"#utility.yul\":6800:6804   */\n      dup3\n        /* \"#utility.yul\":6796:6808   */\n      and\n        /* \"#utility.yul\":6827:6845   */\n      dup1\n        /* \"#utility.yul\":6817:6898   */\n      tag_142\n      jumpi\n        /* \"#utility.yul\":6883:6887   */\n      0x7f\n        /* \"#utility.yul\":6875:6881   */\n      dup3\n        /* \"#utility.yul\":6871:6888   */\n      and\n        /* \"#utility.yul\":6861:6888   */\n      swap2\n      pop\n        /* \"#utility.yul\":6817:6898   */\n    tag_142:\n        /* \"#utility.yul\":6945:6947   */\n      0x20\n        /* \"#utility.yul\":6937:6943   */\n      dup3\n        /* \"#utility.yul\":6934:6948   */\n      lt\n        /* \"#utility.yul\":6914:6932   */\n      dup2\n        /* \"#utility.yul\":6911:6949   */\n      sub\n        /* \"#utility.yul\":6908:6992   */\n      tag_143\n      jumpi\n        /* \"#utility.yul\":6964:6982   */\n      tag_144\n      tag_62\n      jump\t// in\n    tag_144:\n        /* \"#utility.yul\":6908:6992   */\n    tag_143:\n        /* \"#utility.yul\":6729:6998   */\n      pop\n        /* \"#utility.yul\":6678:6998   */\n      swap2\n      swap1\n      pop\n      jump\t// out\n        /* \"#utility.yul\":7004:7173   */\n    tag_63:\n        /* \"#utility.yul\":7088:7099   */\n      0x00\n        /* \"#utility.yul\":7122:7128   */\n      dup3\n        /* \"#utility.yul\":7117:7120   */\n      dup3\n        /* \"#utility.yul\":7110:7129   */\n      mstore\n        /* \"#utility.yul\":7162:7166   */\n      0x20\n        /* \"#utility.yul\":7157:7160   */\n      dup3\n        /* \"#utility.yul\":7153:7167   */\n      add\n        /* \"#utility.yul\":7138:7167   */\n      swap1\n      pop\n        /* \"#utility.yul\":7004:7173   */\n      swap3\n      swap2\n      pop\n      pop\n      jump\t// out\n        /* \"#utility.yul\":7179:7350   */\n    tag_64:\n        /* \"#utility.yul\":7319:7342   */\n      0x596f7520617265206e6f7420746865206f776e65720000000000000000000000\n        /* \"#utility.yul\":7315:7316   */\n      0x00\n        /* \"#utility.yul\":7307:7313   */\n      dup3\n        /* \"#utility.yul\":7303:7317   */\n      add\n        /* \"#utility.yul\":7296:7343   */\n      mstore\n        /* \"#utility.yul\":7179:7350   */\n      pop\n      jump\t// out\n        /* \"#utility.yul\":7356:7722   */\n    tag_65:\n        /* \"#utility.yul\":7498:7501   */\n      0x00\n        /* \"#utility.yul\":7519:7586   */\n      tag_148\n        /* \"#utility.yul\":7583:7585   */\n      0x15\n        /* \"#utility.yul\":7578:7581   */\n      dup4\n        /* \"#utility.yul\":7519:7586   */\n      tag_63\n      jump\t// in\n    tag_148:\n        /* \"#utility.yul\":7512:7586   */\n      swap2\n      pop\n        /* \"#utility.yul\":7595:7688   */\n      tag_149\n        /* \"#utility.yul\":7684:7687   */\n      dup3\n        /* \"#utility.yul\":7595:7688   */\n      tag_64\n      jump\t// in\n    tag_149:\n        /* \"#utility.yul\":7713:7715   */\n      0x20\n        /* \"#utility.yul\":7708:7711   */\n      dup3\n        /* \"#utility.yul\":7704:7716   */\n      add\n        /* \"#utility.yul\":7697:7716   */\n      swap1\n      pop\n        /* \"#utility.yul\":7356:7722   */\n      swap2\n      swap1\n      pop\n      jump\t// out\n        /* \"#utility.yul\":7728:8147   */\n    tag_30:\n        /* \"#utility.yul\":7894:7898   */\n      0x00\n        /* \"#utility.yul\":7932:7934   */\n      0x20\n        /* \"#utility.yul\":7921:7930   */\n      dup3\n        /* \"#utility.yul\":7917:7935   */\n      add\n        /* \"#utility.yul\":7909:7935   */\n      swap1\n      pop\n        /* \"#utility.yul\":7981:7990   */\n      dup2\n        /* \"#utility.yul\":7975:7979   */\n      dup2\n        /* \"#utility.yul\":7971:7991   */\n      sub\n        /* \"#utility.yul\":7967:7968   */\n      0x00\n        /* \"#utility.yul\":7956:7965   */\n      dup4\n        /* \"#utility.yul\":7952:7969   */\n      add\n        /* \"#utility.yul\":7945:7992   */\n      mstore\n        /* \"#utility.yul\":8009:8140   */\n      tag_151\n        /* \"#utility.yul\":8135:8139   */\n      dup2\n        /* \"#utility.yul\":8009:8140   */\n      tag_65\n      jump\t// in\n    tag_151:\n        /* \"#utility.yul\":8001:8140   */\n      swap1\n      pop\n        /* \"#utility.yul\":7728:8147   */\n      swap2\n      swap1\n      pop\n      jump\t// out\n        /* \"#utility.yul\":8153:8333   */\n    tag_66:\n        /* \"#utility.yul\":8201:8278   */\n      0x4e487b7100000000000000000000000000000000000000000000000000000000\n        /* \"#utility.yul\":8198:8199   */\n      0x00\n        /* \"#utility.yul\":8191:8279   */\n      mstore\n        /* \"#utility.yul\":8298:8302   */\n      0x41\n        /* \"#utility.yul\":8295:8296   */\n      0x04\n        /* \"#utility.yul\":8288:8303   */\n      mstore\n        /* \"#utility.yul\":8322:8326   */\n      0x24\n        /* \"#utility.yul\":8319:8320   */\n      0x00\n        /* \"#utility.yul\":8312:8327   */\n      revert\n        /* \"#utility.yul\":8339:8480   */\n    tag_67:\n        /* \"#utility.yul\":8388:8392   */\n      0x00\n        /* \"#utility.yul\":8411:8414   */\n      dup2\n        /* \"#utility.yul\":8403:8414   */\n      swap1\n      pop\n        /* \"#utility.yul\":8434:8437   */\n      dup2\n        /* \"#utility.yul\":8431:8432   */\n      0x00\n        /* \"#utility.yul\":8424:8438   */\n      mstore\n        /* \"#utility.yul\":8468:8472   */\n      0x20\n        /* \"#utility.yul\":8465:8466   */\n      0x00\n        /* \"#utility.yul\":8455:8473   */\n      keccak256\n        /* \"#utility.yul\":8447:8473   */\n      swap1\n      pop\n        /* \"#utility.yul\":8339:8480   */\n      swap2\n      swap1\n      pop\n      jump\t// out\n        /* \"#utility.yul\":8486:8579   */\n    tag_68:\n        /* \"#utility.yul\":8523:8529   */\n      0x00\n        /* \"#utility.yul\":8570:8572   */\n      0x20\n        /* \"#utility.yul\":8565:8567   */\n      0x1f\n        /* \"#utility.yul\":8558:8563   */\n      dup4\n        /* \"#utility.yul\":8554:8568   */\n      add\n        /* \"#utility.yul\":8550:8573   */\n      div\n        /* \"#utility.yul\":8540:8573   */\n      swap1\n      pop\n        /* \"#utility.yul\":8486:8579   */\n      swap2\n      swap1\n      pop\n      jump\t// out\n        /* \"#utility.yul\":8585:8692   */\n    tag_69:\n        /* \"#utility.yul\":8629:8637   */\n      0x00\n        /* \"#utility.yul\":8679:8684   */\n      dup3\n        /* \"#utility.yul\":8673:8677   */\n      dup3\n        /* \"#utility.yul\":8669:8685   */\n      shl\n        /* \"#utility.yul\":8648:8685   */\n      swap1\n      pop\n        /* \"#utility.yul\":8585:8692   */\n      swap3\n      swap2\n      pop\n      pop\n      jump\t// out\n        /* \"#utility.yul\":8698:9091   */\n    tag_70:\n        /* \"#utility.yul\":8767:8773   */\n      0x00\n        /* \"#utility.yul\":8817:8818   */\n      0x08\n        /* \"#utility.yul\":8805:8815   */\n      dup4\n        /* \"#utility.yul\":8801:8819   */\n      mul\n        /* \"#utility.yul\":8840:8937   */\n      tag_157\n        /* \"#utility.yul\":8870:8936   */\n      0xffffffffffffffffffffffffffffffffffffffffffffffffffffffffffffffff\n        /* \"#utility.yul\":8859:8868   */\n      dup3\n        /* \"#utility.yul\":8840:8937   */\n      tag_69\n      jump\t// in\n    tag_157:\n        /* \"#utility.yul\":8958:8997   */\n      tag_158\n        /* \"#utility.yul\":8988:8996   */\n      dup7\n        /* \"#utility.yul\":8977:8986   */\n      dup4\n        /* \"#utility.yul\":8958:8997   */\n      tag_69\n      jump\t// in\n    tag_158:\n        /* \"#utility.yul\":8946:8997   */\n      swap6\n      pop\n        /* \"#utility.yul\":9030:9034   */\n      dup1\n        /* \"#utility.yul\":9026:9035   */\n      not\n        /* \"#utility.yul\":9019:9024   */\n      dup5\n        /* \"#utility.yul\":9015:9036   */\n      and\n        /* \"#utility.yul\":9006:9036   */\n      swap4\n      pop\n        /* \"#utility.yul\":9079:9083   */\n      dup1\n        /* \"#utility.yul\":9069:9077   */\n      dup7\n        /* \"#utility.yul\":9065:9084   */\n      and\n        /* \"#utility.yul\":9058:9063   */\n      dup5\n        /* \"#utility.yul\":9055:9085   */\n      or\n        /* \"#utility.yul\":9045:9085   */\n      swap3\n      pop\n        /* \"#utility.yul\":8774:9091   */\n      pop\n      pop\n        /* \"#utility.yul\":8698:9091   */\n      swap4\n      swap3\n      pop\n      pop\n      pop\n      jump\t// out\n        /* \"#utility.yul\":9097:9157   */\n    tag_71:\n        /* \"#utility.yul\":9125:9128   */\n      0x00\n        /* \"#utility.yul\":9146:9151   */\n      dup2\n        /* \"#utility.yul\":9139:9151   */\n      swap1\n      pop\n        /* \"#utility.yul\":9097:9157   */\n      swap2\n      swap1\n      pop\n      jump\t// out\n        /* \"#utility.yul\":9163:9305   */\n    tag_72:\n        /* \"#utility.yul\":9213:9222   */\n      0x00\n        /* \"#utility.yul\":9246:9299   */\n      tag_161\n        /* \"#utility.yul\":9264:9298   */\n      tag_162\n        /* \"#utility.yul\":9273:9297   */\n      tag_163\n        /* \"#utility.yul\":9291:9296   */\n      dup5\n        /* \"#utility.yul\":9273:9297   */\n      tag_44\n      jump\t// in\n    tag_163:\n        /* \"#utility.yul\":9264:9298   */\n      tag_71\n      jump\t// in\n    tag_162:\n        /* \"#utility.yul\":9246:9299   */\n      tag_44\n      jump\t// in\n    tag_161:\n        /* \"#utility.yul\":9233:9299   */\n      swap1\n      pop\n        /* \"#utility.yul\":9163:9305   */\n      swap2\n      swap1\n      pop\n      jump\t// out\n        /* \"#utility.yul\":9311:9386   */\n    tag_73:\n        /* \"#utility.yul\":9354:9357   */\n      0x00\n        /* \"#utility.yul\":9375:9380   */\n      dup2\n        /* \"#utility.yul\":9368:9380   */\n      swap1\n      pop\n        /* \"#utility.yul\":9311:9386   */\n      swap2\n      swap1\n      pop\n      jump\t// out\n        /* \"#utility.yul\":9392:9661   */\n    tag_74:\n        /* \"#utility.yul\":9502:9541   */\n      tag_166\n        /* \"#utility.yul\":9533:9540   */\n      dup4\n        /* \"#utility.yul\":9502:9541   */\n      tag_72\n      jump\t// in\n    tag_166:\n        /* \"#utility.yul\":9563:9654   */\n      tag_167\n        /* \"#utility.yul\":9612:9653   */\n      tag_168\n        /* \"#utility.yul\":9636:9652   */\n      dup3\n        /* \"#utility.yul\":9612:9653   */\n      tag_73\n      jump\t// in\n    tag_168:\n        /* \"#utility.yul\":9604:9610   */\n      dup5\n        /* \"#utility.yul\":9597:9601   */\n      dup5\n        /* \"#utility.yul\":9591:9602   */\n      sload\n        /* \"#utility.yul\":9563:9654   */\n      tag_70\n      jump\t// in\n    tag_167:\n        /* \"#utility.yul\":9557:9561   */\n      dup3\n        /* \"#utility.yul\":9550:9655   */\n      sstore\n        /* \"#utility.yul\":9468:9661   */\n      pop\n        /* \"#utility.yul\":9392:9661   */\n      pop\n      pop\n      pop\n      jump\t// out\n        /* \"#utility.yul\":9667:9740   */\n    tag_75:\n        /* \"#utility.yul\":9712:9715   */\n      0x00\n        /* \"#utility.yul\":9733:9734   */\n      0x00\n        /* \"#utility.yul\":9726:9734   */\n      swap1\n      pop\n        /* \"#utility.yul\":9667:9740   */\n      swap1\n      jump\t// out\n        /* \"#utility.yul\":9746:9935   */\n    tag_76:\n        /* \"#utility.yul\":9823:9855   */\n      tag_171\n      tag_75\n      jump\t// in\n    tag_171:\n        /* \"#utility.yul\":9864:9929   */\n      tag_172\n        /* \"#utility.yul\":9922:9928   */\n      dup2\n        /* \"#utility.yul\":9914:9920   */\n      dup5\n        /* \"#utility.yul\":9908:9912   */\n      dup5\n        /* \"#utility.yul\":9864:9929   */\n      tag_74\n      jump\t// in\n    tag_172:\n        /* \"#utility.yul\":9799:9935   */\n      pop\n        /* \"#utility.yul\":9746:9935   */\n      pop\n      pop\n      jump\t// out\n        /* \"#utility.yul\":9941:10127   */\n    tag_77:\n        /* \"#utility.yul\":10001:10121   */\n    tag_174:\n        /* \"#utility.yul\":10018:10021   */\n      dup2\n        /* \"#utility.yul\":10011:10016   */\n      dup2\n        /* \"#utility.yul\":10008:10022   */\n      lt\n        /* \"#utility.yul\":10001:10121   */\n      iszero\n      tag_176\n      jumpi\n        /* \"#utility.yul\":10072:10111   */\n      tag_177\n        /* \"#utility.yul\":10109:10110   */\n      0x00\n        /* \"#utility.yul\":10102:10107   */\n      dup3\n        /* \"#utility.yul\":10072:10111   */\n      tag_76\n      jump\t// in\n    tag_177:\n        /* \"#utility.yul\":10045:10046   */\n      0x01\n        /* \"#utility.yul\":10038:10043   */\n      dup2\n        /* \"#utility.yul\":10034:10047   */\n      add\n        /* \"#utility.yul\":10025:10047   */\n      swap1\n      pop\n        /* \"#utility.yul\":10001:10121   */\n      jump(tag_174)\n    tag_176:\n        /* \"#utility.yul\":9941:10127   */\n      pop\n      pop\n      jump\t// out\n        /* \"#utility.yul\":10133:10676   */\n    tag_78:\n        /* \"#utility.yul\":10234:10236   */\n      0x1f\n        /* \"#utility.yul\":10229:10232   */\n      dup3\n        /* \"#utility.yul\":10226:10237   */\n      gt\n        /* \"#utility.yul\":10223:10669   */\n      iszero\n      tag_179\n      jumpi\n        /* \"#utility.yul\":10268:10306   */\n      tag_180\n        /* \"#utility.yul\":10300:10305   */\n      dup2\n        /* \"#utility.yul\":10268:10306   */\n      tag_67\n      jump\t// in\n    tag_180:\n        /* \"#utility.yul\":10352:10381   */\n      tag_181\n        /* \"#utility.yul\":10370:10380   */\n      dup5\n        /* \"#utility.yul\":10352:10381   */\n      tag_68\n      jump\t// in\n    tag_181:\n        /* \"#utility.yul\":10342:10350   */\n      dup2\n        /* \"#utility.yul\":10338:10382   */\n      add\n        /* \"#utility.yul\":10535:10537   */\n      0x20\n        /* \"#utility.yul\":10523:10533   */\n      dup6\n        /* \"#utility.yul\":10520:10538   */\n      lt\n        /* \"#utility.yul\":10517:10566   */\n      iszero\n      tag_182\n      jumpi\n        /* \"#utility.yul\":10556:10564   */\n      dup2\n        /* \"#utility.yul\":10541:10564   */\n      swap1\n      pop\n        /* \"#utility.yul\":10517:10566   */\n    tag_182:\n        /* \"#utility.yul\":10579:10659   */\n      tag_183\n        /* \"#utility.yul\":10635:10657   */\n      tag_184\n        /* \"#utility.yul\":10653:10656   */\n      dup6\n        /* \"#utility.yul\":10635:10657   */\n      tag_68\n      jump\t// in\n    tag_184:\n        /* \"#utility.yul\":10625:10633   */\n      dup4\n        /* \"#utility.yul\":10621:10658   */\n      add\n        /* \"#utility.yul\":10608:10619   */\n      dup3\n        /* \"#utility.yul\":10579:10659   */\n      tag_77\n      jump\t// in\n    tag_183:\n        /* \"#utility.yul\":10238:10669   */\n      pop\n      pop\n        /* \"#utility.yul\":10223:10669   */\n    tag_179:\n        /* \"#utility.yul\":10133:10676   */\n      pop\n      pop\n      pop\n      jump\t// out\n        /* \"#utility.yul\":10682:10799   */\n    tag_79:\n        /* \"#utility.yul\":10736:10744   */\n      0x00\n        /* \"#utility.yul\":10786:10791   */\n      dup3\n        /* \"#utility.yul\":10780:10784   */\n      dup3\n        /* \"#utility.yul\":10776:10792   */\n      shr\n        /* \"#utility.yul\":10755:10792   */\n      swap1\n      pop\n        /* \"#utility.yul\":10682:10799   */\n      swap3\n      swap2\n      pop\n      pop\n      jump\t// out\n        /* \"#utility.yul\":10805:10974   */\n    tag_80:\n        /* \"#utility.yul\":10849:10855   */\n      0x00\n        /* \"#utility.yul\":10882:10933   */\n      tag_187\n        /* \"#utility.yul\":10930:10931   */\n      0x00\n        /* \"#utility.yul\":10926:10932   */\n      not\n        /* \"#utility.yul\":10918:10923   */\n      dup5\n        /* \"#utility.yul\":10915:10916   */\n      0x08\n        /* \"#utility.yul\":10911:10924   */\n      mul\n        /* \"#utility.yul\":10882:10933   */\n      tag_79\n      jump\t// in\n    tag_187:\n        /* \"#utility.yul\":10878:10934   */\n      not\n        /* \"#utility.yul\":10963:10967   */\n      dup1\n        /* \"#utility.yul\":10957:10961   */\n      dup4\n        /* \"#utility.yul\":10953:10968   */\n      and\n        /* \"#utility.yul\":10943:10968   */\n      swap2\n      pop\n        /* \"#utility.yul\":10856:10974   */\n      pop\n        /* \"#utility.yul\":10805:10974   */\n      swap3\n      swap2\n      pop\n      pop\n      jump\t// out\n        /* \"#utility.yul\":10979:11274   */\n    tag_81:\n        /* \"#utility.yul\":11055:11059   */\n      0x00\n        /* \"#utility.yul\":11201:11230   */\n      tag_189\n        /* \"#utility.yul\":11226:11229   */\n      dup4\n        /* \"#utility.yul\":11220:11224   */\n      dup4\n        /* \"#utility.yul\":11201:11230   */\n      tag_80\n      jump\t// in\n    tag_189:\n        /* \"#utility.yul\":11193:11230   */\n      swap2\n      pop\n        /* \"#utility.yul\":11263:11266   */\n      dup3\n        /* \"#utility.yul\":11260:11261   */\n      0x02\n        /* \"#utility.yul\":11256:11267   */\n      mul\n        /* \"#utility.yul\":11250:11254   */\n      dup3\n        /* \"#utility.yul\":11247:11268   */\n      or\n        /* \"#utility.yul\":11239:11268   */\n      swap1\n      pop\n        /* \"#utility.yul\":10979:11274   */\n      swap3\n      swap2\n      pop\n      pop\n      jump\t// out\n        /* \"#utility.yul\":11279:12674   */\n    tag_37:\n        /* \"#utility.yul\":11396:11433   */\n      tag_191\n        /* \"#utility.yul\":11429:11432   */\n      dup3\n        /* \"#utility.yul\":11396:11433   */\n      tag_46\n      jump\t// in\n    tag_191:\n        /* \"#utility.yul\":11498:11516   */\n      0xffffffffffffffff\n        /* \"#utility.yul\":11490:11496   */\n      dup2\n        /* \"#utility.yul\":11487:11517   */\n      gt\n        /* \"#utility.yul\":11484:11540   */\n      iszero\n      tag_192\n      jumpi\n        /* \"#utility.yul\":11520:11538   */\n      tag_193\n      tag_66\n      jump\t// in\n    tag_193:\n        /* \"#utility.yul\":11484:11540   */\n    tag_192:\n        /* \"#utility.yul\":11564:11602   */\n      tag_194\n        /* \"#utility.yul\":11596:11600   */\n      dup3\n        /* \"#utility.yul\":11590:11601   */\n      sload\n        /* \"#utility.yul\":11564:11602   */\n      tag_22\n      jump\t// in\n    tag_194:\n        /* \"#utility.yul\":11649:11716   */\n      tag_195\n        /* \"#utility.yul\":11709:11715   */\n      dup3\n        /* \"#utility.yul\":11701:11707   */\n      dup3\n        /* \"#utility.yul\":11695:11699   */\n      dup6\n        /* \"#utility.yul\":11649:11716   */\n      tag_78\n      jump\t// in\n    tag_195:\n        /* \"#utility.yul\":11743:11744   */\n      0x00\n        /* \"#utility.yul\":11767:11771   */\n      0x20\n        /* \"#utility.yul\":11754:11771   */\n      swap1\n      pop\n        /* \"#utility.yul\":11799:11801   */\n      0x1f\n        /* \"#utility.yul\":11791:11797   */\n      dup4\n        /* \"#utility.yul\":11788:11802   */\n      gt\n        /* \"#utility.yul\":11816:11817   */\n      0x01\n        /* \"#utility.yul\":11811:12429   */\n      dup2\n      eq\n      tag_197\n      jumpi\n        /* \"#utility.yul\":12473:12474   */\n      0x00\n        /* \"#utility.yul\":12490:12496   */\n      dup5\n        /* \"#utility.yul\":12487:12564   */\n      iszero\n      tag_198\n      jumpi\n        /* \"#utility.yul\":12539:12548   */\n      dup3\n        /* \"#utility.yul\":12534:12537   */\n      dup8\n        /* \"#utility.yul\":12530:12549   */\n      add\n        /* \"#utility.yul\":12524:12550   */\n      mload\n        /* \"#utility.yul\":12515:12550   */\n      swap1\n      pop\n        /* \"#utility.yul\":12487:12564   */\n    tag_198:\n        /* \"#utility.yul\":12590:12657   */\n      tag_199\n        /* \"#utility.yul\":12650:12656   */\n      dup6\n        /* \"#utility.yul\":12643:12648   */\n      dup3\n        /* \"#utility.yul\":12590:12657   */\n      tag_81\n      jump\t// in\n    tag_199:\n        /* \"#utility.yul\":12584:12588   */\n      dup7\n        /* \"#utility.yul\":12577:12658   */\n      sstore\n        /* \"#utility.yul\":12446:12668   */\n      pop\n        /* \"#utility.yul\":11781:12668   */\n      jump(tag_196)\n        /* \"#utility.yul\":11811:12429   */\n    tag_197:\n        /* \"#utility.yul\":11863:11867   */\n      0x1f\n        /* \"#utility.yul\":11859:11868   */\n      not\n        /* \"#utility.yul\":11851:11857   */\n      dup5\n        /* \"#utility.yul\":11847:11869   */\n      and\n        /* \"#utility.yul\":11897:11934   */\n      tag_200\n        /* \"#utility.yul\":11929:11933   */\n      dup7\n        /* \"#utility.yul\":11897:11934   */\n      tag_67\n      jump\t// in\n    tag_200:\n        /* \"#utility.yul\":11956:11957   */\n      0x00\n        /* \"#utility.yul\":11970:12178   */\n    tag_201:\n        /* \"#utility.yul\":11984:11991   */\n      dup3\n        /* \"#utility.yul\":11981:11982   */\n      dup2\n        /* \"#utility.yul\":11978:11992   */\n      lt\n        /* \"#utility.yul\":11970:12178   */\n      iszero\n      tag_203\n      jumpi\n        /* \"#utility.yul\":12063:12072   */\n      dup5\n        /* \"#utility.yul\":12058:12061   */\n      dup10\n        /* \"#utility.yul\":12054:12073   */\n      add\n        /* \"#utility.yul\":12048:12074   */\n      mload\n        /* \"#utility.yul\":12040:12046   */\n      dup3\n        /* \"#utility.yul\":12033:12075   */\n      sstore\n        /* \"#utility.yul\":12114:12115   */\n      0x01\n        /* \"#utility.yul\":12106:12112   */\n      dup3\n        /* \"#utility.yul\":12102:12116   */\n      add\n        /* \"#utility.yul\":12092:12116   */\n      swap2\n      pop\n        /* \"#utility.yul\":12161:12163   */\n      0x20\n        /* \"#utility.yul\":12150:12159   */\n      dup6\n        /* \"#utility.yul\":12146:12164   */\n      add\n        /* \"#utility.yul\":12133:12164   */\n      swap5\n      pop\n        /* \"#utility.yul\":12007:12011   */\n      0x20\n        /* \"#utility.yul\":12004:12005   */\n      dup2\n        /* \"#utility.yul\":12000:12012   */\n      add\n        /* \"#utility.yul\":11995:12012   */\n      swap1\n      pop\n        /* \"#utility.yul\":11970:12178   */\n      jump(tag_201)\n    tag_203:\n        /* \"#utility.yul\":12206:12212   */\n      dup7\n        /* \"#utility.yul\":12197:12204   */\n      dup4\n        /* \"#utility.yul\":12194:12213   */\n      lt\n        /* \"#utility.yul\":12191:12370   */\n      iszero\n      tag_204\n      jumpi\n        /* \"#utility.yul\":12264:12273   */\n      dup5\n        /* \"#utility.yul\":12259:12262   */\n      dup10\n        /* \"#utility.yul\":12255:12274   */\n      add\n        /* \"#utility.yul\":12249:12275   */\n      mload\n        /* \"#utility.yul\":12307:12355   */\n      tag_205\n        /* \"#utility.yul\":12349:12353   */\n      0x1f\n        /* \"#utility.yul\":12341:12347   */\n      dup10\n        /* \"#utility.yul\":12337:12354   */\n      and\n        /* \"#utility.yul\":12326:12335   */\n      dup3\n        /* \"#utility.yul\":12307:12355   */\n      tag_80\n      jump\t// in\n    tag_205:\n        /* \"#utility.yul\":12299:12305   */\n      dup4\n        /* \"#utility.yul\":12292:12356   */\n      sstore\n        /* \"#utility.yul\":12214:12370   */\n      pop\n        /* \"#utility.yul\":12191:12370   */\n    tag_204:\n        /* \"#utility.yul\":12416:12417   */\n      0x01\n        /* \"#utility.yul\":12412:12413   */\n      0x02\n        /* \"#utility.yul\":12404:12410   */\n      dup9\n        /* \"#utility.yul\":12400:12414   */\n      mul\n        /* \"#utility.yul\":12396:12418   */\n      add\n        /* \"#utility.yul\":12390:12394   */\n      dup9\n        /* \"#utility.yul\":12383:12419   */\n      sstore\n        /* \"#utility.yul\":11818:12429   */\n      pop\n      pop\n      pop\n        /* \"#utility.yul\":11781:12668   */\n    tag_196:\n      pop\n        /* \"#utility.yul\":11371:12674   */\n      pop\n      pop\n      pop\n        /* \"#utility.yul\":11279:12674   */\n      pop\n      pop\n      jump\t// out\n\n    auxdata: 0xa2646970667358221220c7c6b98473d3ea864be0dc491a102fd298e9f1d67d47be139ddc0b56f306071064736f6c634300081e0033\n}\n",
				"bytecode": {
					"linkReferences": {},
					"object": "6080604052348015600e575f5ffd5b50335f5f6101000a81548173ffffffffffffffffffffffffffffffffffffffff021916908373ffffffffffffffffffffffffffffffffffffffff160217905550610a218061005b5f395ff3fe608060405260043610610033575f3560e01c8063399ddbbd146100375780633ccfd60b14610061578063cb56393c14610077575b5f5ffd5b348015610042575f5ffd5b5061004b610093565b60405161005891906105a6565b60405180910390f35b34801561006c575f5ffd5b506100756101dd565b005b610091600480360381019061008c919061062f565b6102d1565b005b60606001805480602002602001604051908101604052809291908181526020015f905b828210156101d4578382905f5260205f2090600302016040518060600160405290815f82015f9054906101000a900473ffffffffffffffffffffffffffffffffffffffff1673ffffffffffffffffffffffffffffffffffffffff1673ffffffffffffffffffffffffffffffffffffffff16815260200160018201548152602001600282018054610145906106a7565b80601f0160208091040260200160405190810160405280929190818152602001828054610171906106a7565b80156101bc5780601f10610193576101008083540402835291602001916101bc565b820191905f5260205f20905b81548152906001019060200180831161019f57829003601f168201915b505050505081525050815260200190600101906100b6565b50505050905090565b3373ffffffffffffffffffffffffffffffffffffffff165f5f9054906101000a900473ffffffffffffffffffffffffffffffffffffffff1673ffffffffffffffffffffffffffffffffffffffff161461026b576040517f08c379a000000000000000000000000000000000000000000000000000000000815260040161026290610731565b60405180910390fd5b5f5f9054906101000a900473ffffffffffffffffffffffffffffffffffffffff1673ffffffffffffffffffffffffffffffffffffffff166108fc4790811502906040515f60405180830381858888f193505050501580156102ce573d5f5f3e3d5ffd5b50565b600160405180606001604052803373ffffffffffffffffffffffffffffffffffffffff16815260200134815260200184848080601f0160208091040260200160405190810160405280939291908181526020018383808284375f81840152601f19601f82011690508083019250505050505050815250908060018154018082558091505060019003905f5260205f2090600302015f909190919091505f820151815f015f6101000a81548173ffffffffffffffffffffffffffffffffffffffff021916908373ffffffffffffffffffffffffffffffffffffffff1602179055506020820151816001015560408201518160020190816103d0919061091c565b5050505050565b5f81519050919050565b5f82825260208201905092915050565b5f819050602082019050919050565b5f73ffffffffffffffffffffffffffffffffffffffff82169050919050565b5f61042982610400565b9050919050565b6104398161041f565b82525050565b5f819050919050565b6104518161043f565b82525050565b5f81519050919050565b5f82825260208201905092915050565b8281835e5f83830152505050565b5f601f19601f8301169050919050565b5f61049982610457565b6104a38185610461565b93506104b3818560208601610471565b6104bc8161047f565b840191505092915050565b5f606083015f8301516104dc5f860182610430565b5060208301516104ef6020860182610448565b5060408301518482036040860152610507828261048f565b9150508091505092915050565b5f61051f83836104c7565b905092915050565b5f602082019050919050565b5f61053d826103d7565b61054781856103e1565b935083602082028501610559856103f1565b805f5b8581101561059457848403895281516105758582610514565b945061058083610527565b925060208a0199505060018101905061055c565b50829750879550505050505092915050565b5f6020820190508181035f8301526105be8184610533565b905092915050565b5f5ffd5b5f5ffd5b5f5ffd5b5f5ffd5b5f5ffd5b5f5f83601f8401126105ef576105ee6105ce565b5b8235905067ffffffffffffffff81111561060c5761060b6105d2565b5b602083019150836001820283011115610628576106276105d6565b5b9250929050565b5f5f60208385031215610645576106446105c6565b5b5f83013567ffffffffffffffff811115610662576106616105ca565b5b61066e858286016105da565b92509250509250929050565b7f4e487b71000000000000000000000000000000000000000000000000000000005f52602260045260245ffd5b5f60028204905060018216806106be57607f821691505b6020821081036106d1576106d061067a565b5b50919050565b5f82825260208201905092915050565b7f596f7520617265206e6f7420746865206f776e657200000000000000000000005f82015250565b5f61071b6015836106d7565b9150610726826106e7565b602082019050919050565b5f6020820190508181035f8301526107488161070f565b9050919050565b7f4e487b71000000000000000000000000000000000000000000000000000000005f52604160045260245ffd5b5f819050815f5260205f209050919050565b5f6020601f8301049050919050565b5f82821b905092915050565b5f600883026107d87fffffffffffffffffffffffffffffffffffffffffffffffffffffffffffffffff8261079d565b6107e2868361079d565b95508019841693508086168417925050509392505050565b5f819050919050565b5f61081d6108186108138461043f565b6107fa565b61043f565b9050919050565b5f819050919050565b61083683610803565b61084a61084282610824565b8484546107a9565b825550505050565b5f5f905090565b610861610852565b61086c81848461082d565b505050565b5b8181101561088f576108845f82610859565b600181019050610872565b5050565b601f8211156108d4576108a58161077c565b6108ae8461078e565b810160208510156108bd578190505b6108d16108c98561078e565b830182610871565b50505b505050565b5f82821c905092915050565b5f6108f45f19846008026108d9565b1980831691505092915050565b5f61090c83836108e5565b9150826002028217905092915050565b61092582610457565b67ffffffffffffffff81111561093e5761093d61074f565b5b61094882546106a7565b610953828285610893565b5f60209050601f831160018114610984575f8415610972578287015190505b61097c8582610901565b8655506109e3565b601f1984166109928661077c565b5f5b828110156109b957848901518255600182019150602085019450602081019050610994565b868310156109d657848901516109d2601f8916826108e5565b8355505b6001600288020188555050505b50505050505056fea2646970667358221220c7c6b98473d3ea864be0dc491a102fd298e9f1d67d47be139ddc0b56f306071064736f6c634300081e0033",
					"opcodes": "PUSH1 0x80 PUSH1 0x40 MSTORE CALLVALUE DUP1 ISZERO PUSH1 0xE JUMPI PUSH0 PUSH0 REVERT JUMPDEST POP CALLER PUSH0 PUSH0 PUSH2 0x100 EXP DUP2 SLOAD DUP2 PUSH20 0xFFFFFFFFFFFFFFFFFFFFFFFFFFFFFFFFFFFFFFFF MUL NOT AND SWAP1 DUP4 PUSH20 0xFFFFFFFFFFFFFFFFFFFFFFFFFFFFFFFFFFFFFFFF AND MUL OR SWAP1 SSTORE POP PUSH2 0xA21 DUP1 PUSH2 0x5B PUSH0 CODECOPY PUSH0 RETURN INVALID PUSH1 0x80 PUSH1 0x40 MSTORE PUSH1 0x4 CALLDATASIZE LT PUSH2 0x33 JUMPI PUSH0 CALLDATALOAD PUSH1 0xE0 SHR DUP1 PUSH4 0x399DDBBD EQ PUSH2 0x37 JUMPI DUP1 PUSH4 0x3CCFD60B EQ PUSH2 0x61 JUMPI DUP1 PUSH4 0xCB56393C EQ PUSH2 0x77 JUMPI JUMPDEST PUSH0 PUSH0 REVERT JUMPDEST CALLVALUE DUP1 ISZERO PUSH2 0x42 JUMPI PUSH0 PUSH0 REVERT JUMPDEST POP PUSH2 0x4B PUSH2 0x93 JUMP JUMPDEST PUSH1 0x40 MLOAD PUSH2 0x58 SWAP2 SWAP1 PUSH2 0x5A6 JUMP JUMPDEST PUSH1 0x40 MLOAD DUP1 SWAP2 SUB SWAP1 RETURN JUMPDEST CALLVALUE DUP1 ISZERO PUSH2 0x6C JUMPI PUSH0 PUSH0 REVERT JUMPDEST POP PUSH2 0x75 PUSH2 0x1DD JUMP JUMPDEST STOP JUMPDEST PUSH2 0x91 PUSH1 0x4 DUP1 CALLDATASIZE SUB DUP2 ADD SWAP1 PUSH2 0x8C SWAP2 SWAP1 PUSH2 0x62F JUMP JUMPDEST PUSH2 0x2D1 JUMP JUMPDEST STOP JUMPDEST PUSH1 0x60 PUSH1 0x1 DUP1 SLOAD DUP1 PUSH1 0x20 MUL PUSH1 0x20 ADD PUSH1 0x40 MLOAD SWAP1 DUP2 ADD PUSH1 0x40 MSTORE DUP1 SWAP3 SWAP2 SWAP1 DUP2 DUP2 MSTORE PUSH1 0x20 ADD PUSH0 SWAP1 JUMPDEST DUP3 DUP3 LT ISZERO PUSH2 0x1D4 JUMPI DUP4 DUP3 SWAP1 PUSH0 MSTORE PUSH1 0x20 PUSH0 KECCAK256 SWAP1 PUSH1 0x3 MUL ADD PUSH1 0x40 MLOAD DUP1 PUSH1 0x60 ADD PUSH1 0x40 MSTORE SWAP1 DUP2 PUSH0 DUP3 ADD PUSH0 SWAP1 SLOAD SWAP1 PUSH2 0x100 EXP SWAP1 DIV PUSH20 0xFFFFFFFFFFFFFFFFFFFFFFFFFFFFFFFFFFFFFFFF AND PUSH20 0xFFFFFFFFFFFFFFFFFFFFFFFFFFFFFFFFFFFFFFFF AND PUSH20 0xFFFFFFFFFFFFFFFFFFFFFFFFFFFFFFFFFFFFFFFF AND DUP2 MSTORE PUSH1 0x20 ADD PUSH1 0x1 DUP3 ADD SLOAD DUP2 MSTORE PUSH1 0x20 ADD PUSH1 0x2 DUP3 ADD DUP1 SLOAD PUSH2 0x145 SWAP1 PUSH2 0x6A7 JUMP JUMPDEST DUP1 PUSH1 0x1F ADD PUSH1 0x20 DUP1 SWAP2 DIV MUL PUSH1 0x20 ADD PUSH1 0x40 MLOAD SWAP1 DUP2 ADD PUSH1 0x40 MSTORE DUP1 SWAP3 SWAP2 SWAP1 DUP2 DUP2 MSTORE PUSH1 0x20 ADD DUP3 DUP1 SLOAD PUSH2 0x171 SWAP1 PUSH2 0x6A7 JUMP JUMPDEST DUP1 ISZERO PUSH2 0x1BC JUMPI DUP1 PUSH1 0x1F LT PUSH2 0x193 JUMPI PUSH2 0x100 DUP1 DUP4 SLOAD DIV MUL DUP4 MSTORE SWAP2 PUSH1 0x20 ADD SWAP2 PUSH2 0x1BC JUMP JUMPDEST DUP3 ADD SWAP2 SWAP1 PUSH0 MSTORE PUSH1 0x20 PUSH0 KECCAK256 SWAP1 JUMPDEST DUP2 SLOAD DUP2 MSTORE SWAP1 PUSH1 0x1 ADD SWAP1 PUSH1 0x20 ADD DUP1 DUP4 GT PUSH2 0x19F JUMPI DUP3 SWAP1 SUB PUSH1 0x1F AND DUP3 ADD SWAP2 JUMPDEST POP POP POP POP POP DUP2 MSTORE POP POP DUP2 MSTORE PUSH1 0x20 ADD SWAP1 PUSH1 0x1 ADD SWAP1 PUSH2 0xB6 JUMP JUMPDEST POP POP POP POP SWAP1 POP SWAP1 JUMP JUMPDEST CALLER PUSH20 0xFFFFFFFFFFFFFFFFFFFFFFFFFFFFFFFFFFFFFFFF AND PUSH0 PUSH0 SWAP1 SLOAD SWAP1 PUSH2 0x100 EXP SWAP1 DIV PUSH20 0xFFFFFFFFFFFFFFFFFFFFFFFFFFFFFFFFFFFFFFFF AND PUSH20 0xFFFFFFFFFFFFFFFFFFFFFFFFFFFFFFFFFFFFFFFF AND EQ PUSH2 0x26B JUMPI PUSH1 0x40 MLOAD PUSH32 0x8C379A000000000000000000000000000000000000000000000000000000000 DUP2 MSTORE PUSH1 0x4 ADD PUSH2 0x262 SWAP1 PUSH2 0x731 JUMP JUMPDEST PUSH1 0x40 MLOAD DUP1 SWAP2 SUB SWAP1 REVERT JUMPDEST PUSH0 PUSH0 SWAP1 SLOAD SWAP1 PUSH2 0x100 EXP SWAP1 DIV PUSH20 0xFFFFFFFFFFFFFFFFFFFFFFFFFFFFFFFFFFFFFFFF AND PUSH20 0xFFFFFFFFFFFFFFFFFFFFFFFFFFFFFFFFFFFFFFFF AND PUSH2 0x8FC SELFBALANCE SWAP1 DUP2 ISZERO MUL SWAP1 PUSH1 0x40 MLOAD PUSH0 PUSH1 0x40 MLOAD DUP1 DUP4 SUB DUP2 DUP6 DUP9 DUP9 CALL SWAP4 POP POP POP POP ISZERO DUP1 ISZERO PUSH2 0x2CE JUMPI RETURNDATASIZE PUSH0 PUSH0 RETURNDATACOPY RETURNDATASIZE PUSH0 REVERT JUMPDEST POP JUMP JUMPDEST PUSH1 0x1 PUSH1 0x40 MLOAD DUP1 PUSH1 0x60 ADD PUSH1 0x40 MSTORE DUP1 CALLER PUSH20 0xFFFFFFFFFFFFFFFFFFFFFFFFFFFFFFFFFFFFFFFF AND DUP2 MSTORE PUSH1 0x20 ADD CALLVALUE DUP2 MSTORE PUSH1 0x20 ADD DUP5 DUP5 DUP1 DUP1 PUSH1 0x1F ADD PUSH1 0x20 DUP1 SWAP2 DIV MUL PUSH1 0x20 ADD PUSH1 0x40 MLOAD SWAP1 DUP2 ADD PUSH1 0x40 MSTORE DUP1 SWAP4 SWAP3 SWAP2 SWAP1 DUP2 DUP2 MSTORE PUSH1 0x20 ADD DUP4 DUP4 DUP1 DUP3 DUP5 CALLDATACOPY PUSH0 DUP2 DUP5 ADD MSTORE PUSH1 0x1F NOT PUSH1 0x1F DUP3 ADD AND SWAP1 POP DUP1 DUP4 ADD SWAP3 POP POP POP POP POP POP POP DUP2 MSTORE POP SWAP1 DUP1 PUSH1 0x1 DUP2 SLOAD ADD DUP1 DUP3 SSTORE DUP1 SWAP2 POP POP PUSH1 0x1 SWAP1 SUB SWAP1 PUSH0 MSTORE PUSH1 0x20 PUSH0 KECCAK256 SWAP1 PUSH1 0x3 MUL ADD PUSH0 SWAP1 SWAP2 SWAP1 SWAP2 SWAP1 SWAP2 POP PUSH0 DUP3 ADD MLOAD DUP2 PUSH0 ADD PUSH0 PUSH2 0x100 EXP DUP2 SLOAD DUP2 PUSH20 0xFFFFFFFFFFFFFFFFFFFFFFFFFFFFFFFFFFFFFFFF MUL NOT AND SWAP1 DUP4 PUSH20 0xFFFFFFFFFFFFFFFFFFFFFFFFFFFFFFFFFFFFFFFF AND MUL OR SWAP1 SSTORE POP PUSH1 0x20 DUP3 ADD MLOAD DUP2 PUSH1 0x1 ADD SSTORE PUSH1 0x40 DUP3 ADD MLOAD DUP2 PUSH1 0x2 ADD SWAP1 DUP2 PUSH2 0x3D0 SWAP2 SWAP1 PUSH2 0x91C JUMP JUMPDEST POP POP POP POP POP JUMP JUMPDEST PUSH0 DUP2 MLOAD SWAP1 POP SWAP2 SWAP1 POP JUMP JUMPDEST PUSH0 DUP3 DUP3 MSTORE PUSH1 0x20 DUP3 ADD SWAP1 POP SWAP3 SWAP2 POP POP JUMP JUMPDEST PUSH0 DUP2 SWAP1 POP PUSH1 0x20 DUP3 ADD SWAP1 POP SWAP2 SWAP1 POP JUMP JUMPDEST PUSH0 PUSH20 0xFFFFFFFFFFFFFFFFFFFFFFFFFFFFFFFFFFFFFFFF DUP3 AND SWAP1 POP SWAP2 SWAP1 POP JUMP JUMPDEST PUSH0 PUSH2 0x429 DUP3 PUSH2 0x400 JUMP JUMPDEST SWAP1 POP SWAP2 SWAP1 POP JUMP JUMPDEST PUSH2 0x439 DUP2 PUSH2 0x41F JUMP JUMPDEST DUP3 MSTORE POP POP JUMP JUMPDEST PUSH0 DUP2 SWAP1 POP SWAP2 SWAP1 POP JUMP JUMPDEST PUSH2 0x451 DUP2 PUSH2 0x43F JUMP JUMPDEST DUP3 MSTORE POP POP JUMP JUMPDEST PUSH0 DUP2 MLOAD SWAP1 POP SWAP2 SWAP1 POP JUMP JUMPDEST PUSH0 DUP3 DUP3 MSTORE PUSH1 0x20 DUP3 ADD SWAP1 POP SWAP3 SWAP2 POP POP JUMP JUMPDEST DUP3 DUP2 DUP4 MCOPY PUSH0 DUP4 DUP4 ADD MSTORE POP POP POP JUMP JUMPDEST PUSH0 PUSH1 0x1F NOT PUSH1 0x1F DUP4 ADD AND SWAP1 POP SWAP2 SWAP1 POP JUMP JUMPDEST PUSH0 PUSH2 0x499 DUP3 PUSH2 0x457 JUMP JUMPDEST PUSH2 0x4A3 DUP2 DUP6 PUSH2 0x461 JUMP JUMPDEST SWAP4 POP PUSH2 0x4B3 DUP2 DUP6 PUSH1 0x20 DUP7 ADD PUSH2 0x471 JUMP JUMPDEST PUSH2 0x4BC DUP2 PUSH2 0x47F JUMP JUMPDEST DUP5 ADD SWAP2 POP POP SWAP3 SWAP2 POP POP JUMP JUMPDEST PUSH0 PUSH1 0x60 DUP4 ADD PUSH0 DUP4 ADD MLOAD PUSH2 0x4DC PUSH0 DUP7 ADD DUP3 PUSH2 0x430 JUMP JUMPDEST POP PUSH1 0x20 DUP4 ADD MLOAD PUSH2 0x4EF PUSH1 0x20 DUP7 ADD DUP3 PUSH2 0x448 JUMP JUMPDEST POP PUSH1 0x40 DUP4 ADD MLOAD DUP5 DUP3 SUB PUSH1 0x40 DUP7 ADD MSTORE PUSH2 0x507 DUP3 DUP3 PUSH2 0x48F JUMP JUMPDEST SWAP2 POP POP DUP1 SWAP2 POP POP SWAP3 SWAP2 POP POP JUMP JUMPDEST PUSH0 PUSH2 0x51F DUP4 DUP4 PUSH2 0x4C7 JUMP JUMPDEST SWAP1 POP SWAP3 SWAP2 POP POP JUMP JUMPDEST PUSH0 PUSH1 0x20 DUP3 ADD SWAP1 POP SWAP2 SWAP1 POP JUMP JUMPDEST PUSH0 PUSH2 0x53D DUP3 PUSH2 0x3D7 JUMP JUMPDEST PUSH2 0x547 DUP2 DUP6 PUSH2 0x3E1 JUMP JUMPDEST SWAP4 POP DUP4 PUSH1 0x20 DUP3 MUL DUP6 ADD PUSH2 0x559 DUP6 PUSH2 0x3F1 JUMP JUMPDEST DUP1 PUSH0 JUMPDEST DUP6 DUP2 LT ISZERO PUSH2 0x594 JUMPI DUP5 DUP5 SUB DUP10 MSTORE DUP2 MLOAD PUSH2 0x575 DUP6 DUP3 PUSH2 0x514 JUMP JUMPDEST SWAP5 POP PUSH2 0x580 DUP4 PUSH2 0x527 JUMP JUMPDEST SWAP3 POP PUSH1 0x20 DUP11 ADD SWAP10 POP POP PUSH1 0x1 DUP2 ADD SWAP1 POP PUSH2 0x55C JUMP JUMPDEST POP DUP3 SWAP8 POP DUP8 SWAP6 POP POP POP POP POP POP SWAP3 SWAP2 POP POP JUMP JUMPDEST PUSH0 PUSH1 0x20 DUP3 ADD SWAP1 POP DUP2 DUP2 SUB PUSH0 DUP4 ADD MSTORE PUSH2 0x5BE DUP2 DUP5 PUSH2 0x533 JUMP JUMPDEST SWAP1 POP SWAP3 SWAP2 POP POP JUMP JUMPDEST PUSH0 PUSH0 REVERT JUMPDEST PUSH0 PUSH0 REVERT JUMPDEST PUSH0 PUSH0 REVERT JUMPDEST PUSH0 PUSH0 REVERT JUMPDEST PUSH0 PUSH0 REVERT JUMPDEST PUSH0 PUSH0 DUP4 PUSH1 0x1F DUP5 ADD SLT PUSH2 0x5EF JUMPI PUSH2 0x5EE PUSH2 0x5CE JUMP JUMPDEST JUMPDEST DUP3 CALLDATALOAD SWAP1 POP PUSH8 0xFFFFFFFFFFFFFFFF DUP2 GT ISZERO PUSH2 0x60C JUMPI PUSH2 0x60B PUSH2 0x5D2 JUMP JUMPDEST JUMPDEST PUSH1 0x20 DUP4 ADD SWAP2 POP DUP4 PUSH1 0x1 DUP3 MUL DUP4 ADD GT ISZERO PUSH2 0x628 JUMPI PUSH2 0x627 PUSH2 0x5D6 JUMP JUMPDEST JUMPDEST SWAP3 POP SWAP3 SWAP1 POP JUMP JUMPDEST PUSH0 PUSH0 PUSH1 0x20 DUP4 DUP6 SUB SLT ISZERO PUSH2 0x645 JUMPI PUSH2 0x644 PUSH2 0x5C6 JUMP JUMPDEST JUMPDEST PUSH0 DUP4 ADD CALLDATALOAD PUSH8 0xFFFFFFFFFFFFFFFF DUP2 GT ISZERO PUSH2 0x662 JUMPI PUSH2 0x661 PUSH2 0x5CA JUMP JUMPDEST JUMPDEST PUSH2 0x66E DUP6 DUP3 DUP7 ADD PUSH2 0x5DA JUMP JUMPDEST SWAP3 POP SWAP3 POP POP SWAP3 POP SWAP3 SWAP1 POP JUMP JUMPDEST PUSH32 0x4E487B7100000000000000000000000000000000000000000000000000000000 PUSH0 MSTORE PUSH1 0x22 PUSH1 0x4 MSTORE PUSH1 0x24 PUSH0 REVERT JUMPDEST PUSH0 PUSH1 0x2 DUP3 DIV SWAP1 POP PUSH1 0x1 DUP3 AND DUP1 PUSH2 0x6BE JUMPI PUSH1 0x7F DUP3 AND SWAP2 POP JUMPDEST PUSH1 0x20 DUP3 LT DUP2 SUB PUSH2 0x6D1 JUMPI PUSH2 0x6D0 PUSH2 0x67A JUMP JUMPDEST JUMPDEST POP SWAP2 SWAP1 POP JUMP JUMPDEST PUSH0 DUP3 DUP3 MSTORE PUSH1 0x20 DUP3 ADD SWAP1 POP SWAP3 SWAP2 POP POP JUMP JUMPDEST PUSH32 0x596F7520617265206E6F7420746865206F776E65720000000000000000000000 PUSH0 DUP3 ADD MSTORE POP JUMP JUMPDEST PUSH0 PUSH2 0x71B PUSH1 0x15 DUP4 PUSH2 0x6D7 JUMP JUMPDEST SWAP2 POP PUSH2 0x726 DUP3 PUSH2 0x6E7 JUMP JUMPDEST PUSH1 0x20 DUP3 ADD SWAP1 POP SWAP2 SWAP1 POP JUMP JUMPDEST PUSH0 PUSH1 0x20 DUP3 ADD SWAP1 POP DUP2 DUP2 SUB PUSH0 DUP4 ADD MSTORE PUSH2 0x748 DUP2 PUSH2 0x70F JUMP JUMPDEST SWAP1 POP SWAP2 SWAP1 POP JUMP JUMPDEST PUSH32 0x4E487B7100000000000000000000000000000000000000000000000000000000 PUSH0 MSTORE PUSH1 0x41 PUSH1 0x4 MSTORE PUSH1 0x24 PUSH0 REVERT JUMPDEST PUSH0 DUP2 SWAP1 POP DUP2 PUSH0 MSTORE PUSH1 0x20 PUSH0 KECCAK256 SWAP1 POP SWAP2 SWAP1 POP JUMP JUMPDEST PUSH0 PUSH1 0x20 PUSH1 0x1F DUP4 ADD DIV SWAP1 POP SWAP2 SWAP1 POP JUMP JUMPDEST PUSH0 DUP3 DUP3 SHL SWAP1 POP SWAP3 SWAP2 POP POP JUMP JUMPDEST PUSH0 PUSH1 0x8 DUP4 MUL PUSH2 0x7D8 PUSH32 0xFFFFFFFFFFFFFFFFFFFFFFFFFFFFFFFFFFFFFFFFFFFFFFFFFFFFFFFFFFFFFFFF DUP3 PUSH2 0x79D JUMP JUMPDEST PUSH2 0x7E2 DUP7 DUP4 PUSH2 0x79D JUMP JUMPDEST SWAP6 POP DUP1 NOT DUP5 AND SWAP4 POP DUP1 DUP7 AND DUP5 OR SWAP3 POP POP POP SWAP4 SWAP3 POP POP POP JUMP JUMPDEST PUSH0 DUP2 SWAP1 POP SWAP2 SWAP1 POP JUMP JUMPDEST PUSH0 PUSH2 0x81D PUSH2 0x818 PUSH2 0x813 DUP5 PUSH2 0x43F JUMP JUMPDEST PUSH2 0x7FA JUMP JUMPDEST PUSH2 0x43F JUMP JUMPDEST SWAP1 POP SWAP2 SWAP1 POP JUMP JUMPDEST PUSH0 DUP2 SWAP1 POP SWAP2 SWAP1 POP JUMP JUMPDEST PUSH2 0x836 DUP4 PUSH2 0x803 JUMP JUMPDEST PUSH2 0x84A PUSH2 0x842 DUP3 PUSH2 0x824 JUMP JUMPDEST DUP5 DUP5 SLOAD PUSH2 0x7A9 JUMP JUMPDEST DUP3 SSTORE POP POP POP POP JUMP JUMPDEST PUSH0 PUSH0 SWAP1 POP SWAP1 JUMP JUMPDEST PUSH2 0x861 PUSH2 0x852 JUMP JUMPDEST PUSH2 0x86C DUP2 DUP5 DUP5 PUSH2 0x82D JUMP JUMPDEST POP POP POP JUMP JUMPDEST JUMPDEST DUP2 DUP2 LT ISZERO PUSH2 0x88F JUMPI PUSH2 0x884 PUSH0 DUP3 PUSH2 0x859 JUMP JUMPDEST PUSH1 0x1 DUP2 ADD SWAP1 POP PUSH2 0x872 JUMP JUMPDEST POP POP JUMP JUMPDEST PUSH1 0x1F DUP3 GT ISZERO PUSH2 0x8D4 JUMPI PUSH2 0x8A5 DUP2 PUSH2 0x77C JUMP JUMPDEST PUSH2 0x8AE DUP5 PUSH2 0x78E JUMP JUMPDEST DUP2 ADD PUSH1 0x20 DUP6 LT ISZERO PUSH2 0x8BD JUMPI DUP2 SWAP1 POP JUMPDEST PUSH2 0x8D1 PUSH2 0x8C9 DUP6 PUSH2 0x78E JUMP JUMPDEST DUP4 ADD DUP3 PUSH2 0x871 JUMP JUMPDEST POP POP JUMPDEST POP POP POP JUMP JUMPDEST PUSH0 DUP3 DUP3 SHR SWAP1 POP SWAP3 SWAP2 POP POP JUMP JUMPDEST PUSH0 PUSH2 0x8F4 PUSH0 NOT DUP5 PUSH1 0x8 MUL PUSH2 0x8D9 JUMP JUMPDEST NOT DUP1 DUP4 AND SWAP2 POP POP SWAP3 SWAP2 POP POP JUMP JUMPDEST PUSH0 PUSH2 0x90C DUP4 DUP4 PUSH2 0x8E5 JUMP JUMPDEST SWAP2 POP DUP3 PUSH1 0x2 MUL DUP3 OR SWAP1 POP SWAP3 SWAP2 POP POP JUMP JUMPDEST PUSH2 0x925 DUP3 PUSH2 0x457 JUMP JUMPDEST PUSH8 0xFFFFFFFFFFFFFFFF DUP2 GT ISZERO PUSH2 0x93E JUMPI PUSH2 0x93D PUSH2 0x74F JUMP JUMPDEST JUMPDEST PUSH2 0x948 DUP3 SLOAD PUSH2 0x6A7 JUMP JUMPDEST PUSH2 0x953 DUP3 DUP3 DUP6 PUSH2 0x893 JUMP JUMPDEST PUSH0 PUSH1 0x20 SWAP1 POP PUSH1 0x1F DUP4 GT PUSH1 0x1 DUP2 EQ PUSH2 0x984 JUMPI PUSH0 DUP5 ISZERO PUSH2 0x972 JUMPI DUP3 DUP8 ADD MLOAD SWAP1 POP JUMPDEST PUSH2 0x97C DUP6 DUP3 PUSH2 0x901 JUMP JUMPDEST DUP7 SSTORE POP PUSH2 0x9E3 JUMP JUMPDEST PUSH1 0x1F NOT DUP5 AND PUSH2 0x992 DUP7 PUSH2 0x77C JUMP JUMPDEST PUSH0 JUMPDEST DUP3 DUP2 LT ISZERO PUSH2 0x9B9 JUMPI DUP5 DUP10 ADD MLOAD DUP3 SSTORE PUSH1 0x1 DUP3 ADD SWAP2 POP PUSH1 0x20 DUP6 ADD SWAP5 POP PUSH1 0x20 DUP2 ADD SWAP1 POP PUSH2 0x994 JUMP JUMPDEST DUP7 DUP4 LT ISZERO PUSH2 0x9D6 JUMPI DUP5 DUP10 ADD MLOAD PUSH2 0x9D2 PUSH1 0x1F DUP10 AND DUP3 PUSH2 0x8E5 JUMP JUMPDEST DUP4 SSTORE POP JUMPDEST PUSH1 0x1 PUSH1 0x2 DUP9 MUL ADD DUP9 SSTORE POP POP POP JUMPDEST POP POP POP POP POP POP JUMP INVALID LOG2 PUSH5 0x6970667358 0x22 SLT KECCAK256 0xC7 0xC6 0xB9 DUP5 PUSH20 0xD3EA864BE0DC491A102FD298E9F1D67D47BE139D 0xDC SIGNEXTEND JUMP RETURN MOD SMOD LT PUSH5 0x736F6C6343 STOP ADDMOD 0x1E STOP CALLER "
				},
				"gasEstimates": {
					"creation": {
						"codeDepositCost": "518600",
						"executionCost": "24818",
						"totalCost": "543418"
					},
					"external": {
						"getAllTips()": "infinite",
						"tip(string)": "infinite",
						"withdraw()": "infinite"
					}
				},
				"methodIdentifiers": {
					"getAllTips()": "399ddbbd",
					"tip(string)": "cb56393c",
					"withdraw()": "3ccfd60b"
				}
			},
			"storageLayout": {
				"storage": [
					{
						"astId": 10,
						"contract": "Tip Jar/TipJar.sol:TipJar",
						"label": "owner",
						"offset": 0,
						"slot": "0",
						"type": "t_address"
					},
					{
						"astId": 14,
						"contract": "Tip Jar/TipJar.sol:TipJar",
						"label": "messages",
						"offset": 0,
						"slot": "1",
						"type": "t_array(t_struct(Tip)8_storage)dyn_storage"
					}
				],
				"types": {
					"t_address": {
						"encoding": "inplace",
						"label": "address",
						"numberOfBytes": "20"
					},
					"t_array(t_struct(Tip)8_storage)dyn_storage": {
						"base": "t_struct(Tip)8_storage",
						"encoding": "dynamic_array",
						"label": "struct TipJar.Tip[]",
						"numberOfBytes": "32"
					},
					"t_string_storage": {
						"encoding": "bytes",
						"label": "string",
						"numberOfBytes": "32"
					},
					"t_struct(Tip)8_storage": {
						"encoding": "inplace",
						"label": "struct TipJar.Tip",
						"members": [
							{
								"astId": 3,
								"contract": "Tip Jar/TipJar.sol:TipJar",
								"label": "sender",
								"offset": 0,
								"slot": "0",
								"type": "t_address"
							},
							{
								"astId": 5,
								"contract": "Tip Jar/TipJar.sol:TipJar",
								"label": "amount",
								"offset": 0,
								"slot": "1",
								"type": "t_uint256"
							},
							{
								"astId": 7,
								"contract": "Tip Jar/TipJar.sol:TipJar",
								"label": "message",
								"offset": 0,
								"slot": "2",
								"type": "t_string_storage"
							}
						],
						"numberOfBytes": "96"
					},
					"t_uint256": {
						"encoding": "inplace",
						"label": "uint256",
						"numberOfBytes": "32"
					}
				}
			},
			"userdoc": {
				"kind": "user",
				"methods": {},
				"version": 1
			}
		}
	}
}