{
	"TodoList/TodoList.sol": {
		"TodoList": {
			"abi": [
				{
					"anonymous": false,
					"inputs": [
						{
							"indexed": false,
							"internalType": "string",
							"name": "name",
							"type": "string"
						},
						{
							"indexed": false,
							"internalType": "bool",
							"name": "finished",
							"type": "bool"
						}
					],
					"name": "CompletedTask",
					"type": "event"
				},
				{
					"anonymous": false,
					"inputs": [
						{
							"indexed": false,
							"internalType": "string",
							"name": "name",
							"type": "string"
						},
						{
							"indexed": false,
							"internalType": "bool",
							"name": "deleted",
							"type": "bool"
						}
					],
					"name": "DeleteTask",
					"type": "event"
				},
				{
					"anonymous": false,
					"inputs": [
						{
							"indexed": false,
							"internalType": "address",
							"name": "user",
							"type": "address"
						},
						{
							"indexed": false,
							"internalType": "string",
							"name": "name",
							"type": "string"
						}
					],
					"name": "TaskAdded",
					"type": "event"
				},
				{
					"inputs": [
						{
							"internalType": "string",
							"name": "_name",
							"type": "string"
						},
						{
							"internalType": "string",
							"name": "_description",
							"type": "string"
						}
					],
					"name": "addTask",
					"outputs": [
						{
							"internalType": "bool",
							"name": "",
							"type": "bool"
						}
					],
					"stateMutability": "nonpayable",
					"type": "function"
				},
				{
					"inputs": [
						{
							"internalType": "uint8[]",
							"name": "index",
							"type": "uint8[]"
						}
					],
					"name": "deleteTask",
					"outputs": [],
					"stateMutability": "nonpayable",
					"type": "function"
				},
				{
					"inputs": [],
					"name": "getTodo",
					"outputs": [
						{
							"components": [
								{
									"internalType": "string",
									"name": "name",
									"type": "string"
								},
								{
									"internalType": "string",
									"name": "description",
									"type": "string"
								},
								{
									"internalType": "bool",
									"name": "finish",
									"type": "bool"
								},
								{
									"internalType": "bool",
									"name": "isDelete",
									"type": "bool"
								}
							],
							"internalType": "struct TodoList.Todo[]",
							"name": "",
							"type": "tuple[]"
						}
					],
					"stateMutability": "view",
					"type": "function"
				},
				{
					"inputs": [
						{
							"internalType": "address",
							"name": "",
							"type": "address"
						},
						{
							"internalType": "uint256",
							"name": "",
							"type": "uint256"
						}
					],
					"name": "lists",
					"outputs": [
						{
							"internalType": "string",
							"name": "name",
							"type": "string"
						},
						{
							"internalType": "string",
							"name": "description",
							"type": "string"
						},
						{
							"internalType": "bool",
							"name": "finish",
							"type": "bool"
						},
						{
							"internalType": "bool",
							"name": "isDelete",
							"type": "bool"
						}
					],
					"stateMutability": "view",
					"type": "function"
				},
				{
					"inputs": [
						{
							"internalType": "uint8",
							"name": "index",
							"type": "uint8"
						}
					],
					"name": "marked",
					"outputs": [],
					"stateMutability": "nonpayable",
					"type": "function"
				}
			],
			"devdoc": {
				"kind": "dev",
				"methods": {},
				"version": 1
			},
			"evm": {
				"assembly": "    /* \"TodoList/TodoList.sol\":58:1563  contract TodoList {... */\n  mstore(0x40, 0x80)\n  callvalue\n  dup1\n  iszero\n  tag_1\n  jumpi\n  revert(0x00, 0x00)\ntag_1:\n  pop\n  dataSize(sub_0)\n  dup1\n  dataOffset(sub_0)\n  0x00\n  codecopy\n  0x00\n  return\nstop\n\nsub_0: assembly {\n        /* \"TodoList/TodoList.sol\":58:1563  contract TodoList {... */\n      mstore(0x40, 0x80)\n      callvalue\n      dup1\n      iszero\n      tag_1\n      jumpi\n      revert(0x00, 0x00)\n    tag_1:\n      pop\n      jumpi(tag_2, lt(calldatasize, 0x04))\n      shr(0xe0, calldataload(0x00))\n      dup1\n      0x36662c42\n      eq\n      tag_3\n      jumpi\n      dup1\n      0x7fa1680a\n      eq\n      tag_4\n      jumpi\n      dup1\n      0xb37b1000\n      eq\n      tag_5\n      jumpi\n      dup1\n      0xc50a2def\n      eq\n      tag_6\n      jumpi\n      dup1\n      0xc71375ac\n      eq\n      tag_7\n      jumpi\n    tag_2:\n      revert(0x00, 0x00)\n        /* \"TodoList/TodoList.sol\":660:982  function marked(uint8 index) public {... */\n    tag_3:\n      tag_8\n      0x04\n      dup1\n      calldatasize\n      sub\n      dup2\n      add\n      swap1\n      tag_9\n      swap2\n      swap1\n      tag_10\n      jump\t// in\n    tag_9:\n      tag_11\n      jump\t// in\n    tag_8:\n      stop\n        /* \"TodoList/TodoList.sol\":1465:1561  function getTodo() public view returns (Todo[] memory) {... */\n    tag_4:\n      tag_12\n      tag_13\n      jump\t// in\n    tag_12:\n      mload(0x40)\n      tag_14\n      swap2\n      swap1\n      tag_15\n      jump\t// in\n    tag_14:\n      mload(0x40)\n      dup1\n      swap2\n      sub\n      swap1\n      return\n        /* \"TodoList/TodoList.sol\":396:654  function addTask(... */\n    tag_5:\n      tag_16\n      0x04\n      dup1\n      calldatasize\n      sub\n      dup2\n      add\n      swap1\n      tag_17\n      swap2\n      swap1\n      tag_18\n      jump\t// in\n    tag_17:\n      tag_19\n      jump\t// in\n    tag_16:\n      mload(0x40)\n      tag_20\n      swap2\n      swap1\n      tag_21\n      jump\t// in\n    tag_20:\n      mload(0x40)\n      dup1\n      swap2\n      sub\n      swap1\n      return\n        /* \"TodoList/TodoList.sol\":199:238  mapping(address => Todo[]) public lists */\n    tag_6:\n      tag_22\n      0x04\n      dup1\n      calldatasize\n      sub\n      dup2\n      add\n      swap1\n      tag_23\n      swap2\n      swap1\n      tag_24\n      jump\t// in\n    tag_23:\n      tag_25\n      jump\t// in\n    tag_22:\n      mload(0x40)\n      tag_26\n      swap5\n      swap4\n      swap3\n      swap2\n      swap1\n      tag_27\n      jump\t// in\n    tag_26:\n      mload(0x40)\n      dup1\n      swap2\n      sub\n      swap1\n      return\n        /* \"TodoList/TodoList.sol\":988:1459  function deleteTask(uint8[] calldata index) public {... */\n    tag_7:\n      tag_28\n      0x04\n      dup1\n      calldatasize\n      sub\n      dup2\n      add\n      swap1\n      tag_29\n      swap2\n      swap1\n      tag_30\n      jump\t// in\n    tag_29:\n      tag_31\n      jump\t// in\n    tag_28:\n      stop\n        /* \"TodoList/TodoList.sol\":660:982  function marked(uint8 index) public {... */\n    tag_11:\n        /* \"TodoList/TodoList.sol\":715:720  lists */\n      0x00\n        /* \"TodoList/TodoList.sol\":715:732  lists[msg.sender] */\n      0x00\n        /* \"TodoList/TodoList.sol\":721:731  msg.sender */\n      caller\n        /* \"TodoList/TodoList.sol\":715:732  lists[msg.sender] */\n      0xffffffffffffffffffffffffffffffffffffffff\n      and\n      0xffffffffffffffffffffffffffffffffffffffff\n      and\n      dup2\n      mstore\n      0x20\n      add\n      swap1\n      dup2\n      mstore\n      0x20\n      add\n      0x00\n      keccak256\n        /* \"TodoList/TodoList.sol\":733:738  index */\n      dup2\n        /* \"TodoList/TodoList.sol\":715:739  lists[msg.sender][index] */\n      0xff\n      and\n      dup2\n      sload\n      dup2\n      lt\n      tag_33\n      jumpi\n      tag_34\n      tag_35\n      jump\t// in\n    tag_34:\n    tag_33:\n      swap1\n      0x00\n      mstore\n      keccak256(0x00, 0x20)\n      swap1\n      0x03\n      mul\n      add\n        /* \"TodoList/TodoList.sol\":715:746  lists[msg.sender][index].finish */\n      0x02\n      add\n      0x00\n      swap1\n      sload\n      swap1\n      0x0100\n      exp\n      swap1\n      div\n      0xff\n      and\n        /* \"TodoList/TodoList.sol\":714:746  !lists[msg.sender][index].finish */\n      iszero\n        /* \"TodoList/TodoList.sol\":706:767  require(!lists[msg.sender][index].finish, \"Already Finished\") */\n      tag_37\n      jumpi\n      mload(0x40)\n      0x08c379a000000000000000000000000000000000000000000000000000000000\n      dup2\n      mstore\n      0x04\n      add\n      tag_38\n      swap1\n      tag_39\n      jump\t// in\n    tag_38:\n      mload(0x40)\n      dup1\n      swap2\n      sub\n      swap1\n      revert\n    tag_37:\n        /* \"TodoList/TodoList.sol\":786:791  lists */\n      0x00\n        /* \"TodoList/TodoList.sol\":786:803  lists[msg.sender] */\n      0x00\n        /* \"TodoList/TodoList.sol\":792:802  msg.sender */\n      caller\n        /* \"TodoList/TodoList.sol\":786:803  lists[msg.sender] */\n      0xffffffffffffffffffffffffffffffffffffffff\n      and\n      0xffffffffffffffffffffffffffffffffffffffff\n      and\n      dup2\n      mstore\n      0x20\n      add\n      swap1\n      dup2\n      mstore\n      0x20\n      add\n      0x00\n      keccak256\n        /* \"TodoList/TodoList.sol\":804:809  index */\n      dup2\n        /* \"TodoList/TodoList.sol\":786:810  lists[msg.sender][index] */\n      0xff\n      and\n      dup2\n      sload\n      dup2\n      lt\n      tag_40\n      jumpi\n      tag_41\n      tag_35\n      jump\t// in\n    tag_41:\n    tag_40:\n      swap1\n      0x00\n      mstore\n      keccak256(0x00, 0x20)\n      swap1\n      0x03\n      mul\n      add\n        /* \"TodoList/TodoList.sol\":786:819  lists[msg.sender][index].isDelete */\n      0x02\n      add\n      0x01\n      swap1\n      sload\n      swap1\n      0x0100\n      exp\n      swap1\n      div\n      0xff\n      and\n        /* \"TodoList/TodoList.sol\":785:819  !lists[msg.sender][index].isDelete */\n      iszero\n        /* \"TodoList/TodoList.sol\":777:839  require(!lists[msg.sender][index].isDelete, \"Already Deleted\") */\n      tag_43\n      jumpi\n      mload(0x40)\n      0x08c379a000000000000000000000000000000000000000000000000000000000\n      dup2\n      mstore\n      0x04\n      add\n      tag_44\n      swap1\n      tag_45\n      jump\t// in\n    tag_44:\n      mload(0x40)\n      dup1\n      swap2\n      sub\n      swap1\n      revert\n    tag_43:\n        /* \"TodoList/TodoList.sol\":850:867  Todo storage todo */\n      0x00\n        /* \"TodoList/TodoList.sol\":870:875  lists */\n      0x00\n        /* \"TodoList/TodoList.sol\":870:887  lists[msg.sender] */\n      0x00\n        /* \"TodoList/TodoList.sol\":876:886  msg.sender */\n      caller\n        /* \"TodoList/TodoList.sol\":870:887  lists[msg.sender] */\n      0xffffffffffffffffffffffffffffffffffffffff\n      and\n      0xffffffffffffffffffffffffffffffffffffffff\n      and\n      dup2\n      mstore\n      0x20\n      add\n      swap1\n      dup2\n      mstore\n      0x20\n      add\n      0x00\n      keccak256\n        /* \"TodoList/TodoList.sol\":888:893  index */\n      dup3\n        /* \"TodoList/TodoList.sol\":870:894  lists[msg.sender][index] */\n      0xff\n      and\n      dup2\n      sload\n      dup2\n      lt\n      tag_46\n      jumpi\n      tag_47\n      tag_35\n      jump\t// in\n    tag_47:\n    tag_46:\n      swap1\n      0x00\n      mstore\n      keccak256(0x00, 0x20)\n      swap1\n      0x03\n      mul\n      add\n        /* \"TodoList/TodoList.sol\":850:894  Todo storage todo = lists[msg.sender][index] */\n      swap1\n      pop\n        /* \"TodoList/TodoList.sol\":919:923  true */\n      0x01\n        /* \"TodoList/TodoList.sol\":905:909  todo */\n      dup2\n        /* \"TodoList/TodoList.sol\":905:916  todo.finish */\n      0x02\n      add\n      0x00\n        /* \"TodoList/TodoList.sol\":905:923  todo.finish = true */\n      0x0100\n      exp\n      dup2\n      sload\n      dup2\n      0xff\n      mul\n      not\n      and\n      swap1\n      dup4\n      iszero\n      iszero\n      mul\n      or\n      swap1\n      sstore\n      pop\n        /* \"TodoList/TodoList.sol\":938:975  CompletedTask(todo.name, todo.finish) */\n      0x5b1b6cc89147c2c62cf0af108fad37be06bcd07bcffe42b4acb7cd1af2602238\n        /* \"TodoList/TodoList.sol\":952:956  todo */\n      dup2\n        /* \"TodoList/TodoList.sol\":952:961  todo.name */\n      0x00\n      add\n        /* \"TodoList/TodoList.sol\":963:967  todo */\n      dup3\n        /* \"TodoList/TodoList.sol\":963:974  todo.finish */\n      0x02\n      add\n      0x00\n      swap1\n      sload\n      swap1\n      0x0100\n      exp\n      swap1\n      div\n      0xff\n      and\n        /* \"TodoList/TodoList.sol\":938:975  CompletedTask(todo.name, todo.finish) */\n      mload(0x40)\n      tag_49\n      swap3\n      swap2\n      swap1\n      tag_50\n      jump\t// in\n    tag_49:\n      mload(0x40)\n      dup1\n      swap2\n      sub\n      swap1\n      log1\n        /* \"TodoList/TodoList.sol\":696:982  {... */\n      pop\n        /* \"TodoList/TodoList.sol\":660:982  function marked(uint8 index) public {... */\n      pop\n      jump\t// out\n        /* \"TodoList/TodoList.sol\":1465:1561  function getTodo() public view returns (Todo[] memory) {... */\n    tag_13:\n        /* \"TodoList/TodoList.sol\":1505:1518  Todo[] memory */\n      0x60\n        /* \"TodoList/TodoList.sol\":1537:1542  lists */\n      0x00\n        /* \"TodoList/TodoList.sol\":1537:1554  lists[msg.sender] */\n      0x00\n        /* \"TodoList/TodoList.sol\":1543:1553  msg.sender */\n      caller\n        /* \"TodoList/TodoList.sol\":1537:1554  lists[msg.sender] */\n      0xffffffffffffffffffffffffffffffffffffffff\n      and\n      0xffffffffffffffffffffffffffffffffffffffff\n      and\n      dup2\n      mstore\n      0x20\n      add\n      swap1\n      dup2\n      mstore\n      0x20\n      add\n      0x00\n      keccak256\n        /* \"TodoList/TodoList.sol\":1530:1554  return lists[msg.sender] */\n      dup1\n      sload\n      dup1\n      0x20\n      mul\n      0x20\n      add\n      mload(0x40)\n      swap1\n      dup2\n      add\n      0x40\n      mstore\n      dup1\n      swap3\n      swap2\n      swap1\n      dup2\n      dup2\n      mstore\n      0x20\n      add\n      0x00\n      swap1\n    tag_52:\n      dup3\n      dup3\n      lt\n      iszero\n      tag_53\n      jumpi\n      dup4\n      dup3\n      swap1\n      0x00\n      mstore\n      keccak256(0x00, 0x20)\n      swap1\n      0x03\n      mul\n      add\n      mload(0x40)\n      dup1\n      0x80\n      add\n      0x40\n      mstore\n      swap1\n      dup2\n      0x00\n      dup3\n      add\n      dup1\n      sload\n      tag_55\n      swap1\n      tag_56\n      jump\t// in\n    tag_55:\n      dup1\n      0x1f\n      add\n      0x20\n      dup1\n      swap2\n      div\n      mul\n      0x20\n      add\n      mload(0x40)\n      swap1\n      dup2\n      add\n      0x40\n      mstore\n      dup1\n      swap3\n      swap2\n      swap1\n      dup2\n      dup2\n      mstore\n      0x20\n      add\n      dup3\n      dup1\n      sload\n      tag_57\n      swap1\n      tag_56\n      jump\t// in\n    tag_57:\n      dup1\n      iszero\n      tag_58\n      jumpi\n      dup1\n      0x1f\n      lt\n      tag_59\n      jumpi\n      0x0100\n      dup1\n      dup4\n      sload\n      div\n      mul\n      dup4\n      mstore\n      swap2\n      0x20\n      add\n      swap2\n      jump(tag_58)\n    tag_59:\n      dup3\n      add\n      swap2\n      swap1\n      0x00\n      mstore\n      keccak256(0x00, 0x20)\n      swap1\n    tag_60:\n      dup2\n      sload\n      dup2\n      mstore\n      swap1\n      0x01\n      add\n      swap1\n      0x20\n      add\n      dup1\n      dup4\n      gt\n      tag_60\n      jumpi\n      dup3\n      swap1\n      sub\n      0x1f\n      and\n      dup3\n      add\n      swap2\n    tag_58:\n      pop\n      pop\n      pop\n      pop\n      pop\n      dup2\n      mstore\n      0x20\n      add\n      0x01\n      dup3\n      add\n      dup1\n      sload\n      tag_61\n      swap1\n      tag_56\n      jump\t// in\n    tag_61:\n      dup1\n      0x1f\n      add\n      0x20\n      dup1\n      swap2\n      div\n      mul\n      0x20\n      add\n      mload(0x40)\n      swap1\n      dup2\n      add\n      0x40\n      mstore\n      dup1\n      swap3\n      swap2\n      swap1\n      dup2\n      dup2\n      mstore\n      0x20\n      add\n      dup3\n      dup1\n      sload\n      tag_62\n      swap1\n      tag_56\n      jump\t// in\n    tag_62:\n      dup1\n      iszero\n      tag_63\n      jumpi\n      dup1\n      0x1f\n      lt\n      tag_64\n      jumpi\n      0x0100\n      dup1\n      dup4\n      sload\n      div\n      mul\n      dup4\n      mstore\n      swap2\n      0x20\n      add\n      swap2\n      jump(tag_63)\n    tag_64:\n      dup3\n      add\n      swap2\n      swap1\n      0x00\n      mstore\n      keccak256(0x00, 0x20)\n      swap1\n    tag_65:\n      dup2\n      sload\n      dup2\n      mstore\n      swap1\n      0x01\n      add\n      swap1\n      0x20\n      add\n      dup1\n      dup4\n      gt\n      tag_65\n      jumpi\n      dup3\n      swap1\n      sub\n      0x1f\n      and\n      dup3\n      add\n      swap2\n    tag_63:\n      pop\n      pop\n      pop\n      pop\n      pop\n      dup2\n      mstore\n      0x20\n      add\n      0x02\n      dup3\n      add\n      0x00\n      swap1\n      sload\n      swap1\n      0x0100\n      exp\n      swap1\n      div\n      0xff\n      and\n      iszero\n      iszero\n      iszero\n      iszero\n      dup2\n      mstore\n      0x20\n      add\n      0x02\n      dup3\n      add\n      0x01\n      swap1\n      sload\n      swap1\n      0x0100\n      exp\n      swap1\n      div\n      0xff\n      and\n      iszero\n      iszero\n      iszero\n      iszero\n      dup2\n      mstore\n      pop\n      pop\n      dup2\n      mstore\n      0x20\n      add\n      swap1\n      0x01\n      add\n      swap1\n      jump(tag_52)\n    tag_53:\n      pop\n      pop\n      pop\n      pop\n      swap1\n      pop\n        /* \"TodoList/TodoList.sol\":1465:1561  function getTodo() public view returns (Todo[] memory) {... */\n      swap1\n      jump\t// out\n        /* \"TodoList/TodoList.sol\":396:654  function addTask(... */\n    tag_19:\n        /* \"TodoList/TodoList.sol\":504:508  bool */\n      0x00\n        /* \"TodoList/TodoList.sol\":520:525  lists */\n      0x00\n        /* \"TodoList/TodoList.sol\":520:537  lists[msg.sender] */\n      0x00\n        /* \"TodoList/TodoList.sol\":526:536  msg.sender */\n      caller\n        /* \"TodoList/TodoList.sol\":520:537  lists[msg.sender] */\n      0xffffffffffffffffffffffffffffffffffffffff\n      and\n      0xffffffffffffffffffffffffffffffffffffffff\n      and\n      dup2\n      mstore\n      0x20\n      add\n      swap1\n      dup2\n      mstore\n      0x20\n      add\n      0x00\n      keccak256\n        /* \"TodoList/TodoList.sol\":543:582  Todo(_name, _description, false, false) */\n      mload(0x40)\n      dup1\n      0x80\n      add\n      0x40\n      mstore\n      dup1\n        /* \"TodoList/TodoList.sol\":548:553  _name */\n      dup8\n      dup8\n        /* \"TodoList/TodoList.sol\":543:582  Todo(_name, _description, false, false) */\n      dup1\n      dup1\n      0x1f\n      add\n      0x20\n      dup1\n      swap2\n      div\n      mul\n      0x20\n      add\n      mload(0x40)\n      swap1\n      dup2\n      add\n      0x40\n      mstore\n      dup1\n      swap4\n      swap3\n      swap2\n      swap1\n      dup2\n      dup2\n      mstore\n      0x20\n      add\n      dup4\n      dup4\n      dup1\n      dup3\n      dup5\n      calldatacopy\n      0x00\n      dup2\n      dup5\n      add\n      mstore\n      not(0x1f)\n      0x1f\n      dup3\n      add\n      and\n      swap1\n      pop\n      dup1\n      dup4\n      add\n      swap3\n      pop\n      pop\n      pop\n      pop\n      pop\n      pop\n      pop\n      dup2\n      mstore\n      0x20\n      add\n        /* \"TodoList/TodoList.sol\":555:567  _description */\n      dup6\n      dup6\n        /* \"TodoList/TodoList.sol\":543:582  Todo(_name, _description, false, false) */\n      dup1\n      dup1\n      0x1f\n      add\n      0x20\n      dup1\n      swap2\n      div\n      mul\n      0x20\n      add\n      mload(0x40)\n      swap1\n      dup2\n      add\n      0x40\n      mstore\n      dup1\n      swap4\n      swap3\n      swap2\n      swap1\n      dup2\n      dup2\n      mstore\n      0x20\n      add\n      dup4\n      dup4\n      dup1\n      dup3\n      dup5\n      calldatacopy\n      0x00\n      dup2\n      dup5\n      add\n      mstore\n      not(0x1f)\n      0x1f\n      dup3\n      add\n      and\n      swap1\n      pop\n      dup1\n      dup4\n      add\n      swap3\n      pop\n      pop\n      pop\n      pop\n      pop\n      pop\n      pop\n      dup2\n      mstore\n      0x20\n      add\n        /* \"TodoList/TodoList.sol\":569:574  false */\n      0x00\n        /* \"TodoList/TodoList.sol\":543:582  Todo(_name, _description, false, false) */\n      iszero\n      iszero\n      dup2\n      mstore\n      0x20\n      add\n        /* \"TodoList/TodoList.sol\":576:581  false */\n      0x00\n        /* \"TodoList/TodoList.sol\":543:582  Todo(_name, _description, false, false) */\n      iszero\n      iszero\n      dup2\n      mstore\n      pop\n        /* \"TodoList/TodoList.sol\":520:583  lists[msg.sender].push(Todo(_name, _description, false, false)) */\n      swap1\n      dup1\n      0x01\n      dup2\n      sload\n      add\n      dup1\n      dup3\n      sstore\n      dup1\n      swap2\n      pop\n      pop\n      0x01\n      swap1\n      sub\n      swap1\n      0x00\n      mstore\n      keccak256(0x00, 0x20)\n      swap1\n      0x03\n      mul\n      add\n      0x00\n      swap1\n      swap2\n      swap1\n      swap2\n      swap1\n      swap2\n      pop\n      0x00\n      dup3\n      add\n      mload\n      dup2\n      0x00\n      add\n      swap1\n      dup2\n      tag_68\n      swap2\n      swap1\n      tag_69\n      jump\t// in\n    tag_68:\n      pop\n      0x20\n      dup3\n      add\n      mload\n      dup2\n      0x01\n      add\n      swap1\n      dup2\n      tag_70\n      swap2\n      swap1\n      tag_69\n      jump\t// in\n    tag_70:\n      pop\n      0x40\n      dup3\n      add\n      mload\n      dup2\n      0x02\n      add\n      exp(0x0100, 0x00)\n      dup2\n      sload\n      dup2\n      0xff\n      mul\n      not\n      and\n      swap1\n      dup4\n      iszero\n      iszero\n      mul\n      or\n      swap1\n      sstore\n      pop\n      0x60\n      dup3\n      add\n      mload\n      dup2\n      0x02\n      add\n      exp(0x0100, 0x01)\n      dup2\n      sload\n      dup2\n      0xff\n      mul\n      not\n      and\n      swap1\n      dup4\n      iszero\n      iszero\n      mul\n      or\n      swap1\n      sstore\n      pop\n      pop\n      pop\n        /* \"TodoList/TodoList.sol\":598:626  TaskAdded(msg.sender, _name) */\n      0x9b4a26434bf628985823f51fa800c6230e24e0284bc40b22877ac82104dd0c\n        /* \"TodoList/TodoList.sol\":608:618  msg.sender */\n      caller\n        /* \"TodoList/TodoList.sol\":620:625  _name */\n      dup7\n      dup7\n        /* \"TodoList/TodoList.sol\":598:626  TaskAdded(msg.sender, _name) */\n      mload(0x40)\n      tag_71\n      swap4\n      swap3\n      swap2\n      swap1\n      tag_72\n      jump\t// in\n    tag_71:\n      mload(0x40)\n      dup1\n      swap2\n      sub\n      swap1\n      log1\n        /* \"TodoList/TodoList.sol\":643:647  true */\n      0x01\n        /* \"TodoList/TodoList.sol\":636:647  return true */\n      swap1\n      pop\n        /* \"TodoList/TodoList.sol\":396:654  function addTask(... */\n      swap5\n      swap4\n      pop\n      pop\n      pop\n      pop\n      jump\t// out\n        /* \"TodoList/TodoList.sol\":199:238  mapping(address => Todo[]) public lists */\n    tag_25:\n      mstore(0x20, 0x00)\n      dup2\n      0x00\n      mstore\n      keccak256(0x00, 0x40)\n      dup2\n      dup2\n      sload\n      dup2\n      lt\n      tag_73\n      jumpi\n      0x00\n      dup1\n      revert\n    tag_73:\n      swap1\n      0x00\n      mstore\n      keccak256(0x00, 0x20)\n      swap1\n      0x03\n      mul\n      add\n      0x00\n      swap2\n      pop\n      swap2\n      pop\n      pop\n      dup1\n      0x00\n      add\n      dup1\n      sload\n      tag_75\n      swap1\n      tag_56\n      jump\t// in\n    tag_75:\n      dup1\n      0x1f\n      add\n      0x20\n      dup1\n      swap2\n      div\n      mul\n      0x20\n      add\n      mload(0x40)\n      swap1\n      dup2\n      add\n      0x40\n      mstore\n      dup1\n      swap3\n      swap2\n      swap1\n      dup2\n      dup2\n      mstore\n      0x20\n      add\n      dup3\n      dup1\n      sload\n      tag_76\n      swap1\n      tag_56\n      jump\t// in\n    tag_76:\n      dup1\n      iszero\n      tag_77\n      jumpi\n      dup1\n      0x1f\n      lt\n      tag_78\n      jumpi\n      0x0100\n      dup1\n      dup4\n      sload\n      div\n      mul\n      dup4\n      mstore\n      swap2\n      0x20\n      add\n      swap2\n      jump(tag_77)\n    tag_78:\n      dup3\n      add\n      swap2\n      swap1\n      0x00\n      mstore\n      keccak256(0x00, 0x20)\n      swap1\n    tag_79:\n      dup2\n      sload\n      dup2\n      mstore\n      swap1\n      0x01\n      add\n      swap1\n      0x20\n      add\n      dup1\n      dup4\n      gt\n      tag_79\n      jumpi\n      dup3\n      swap1\n      sub\n      0x1f\n      and\n      dup3\n      add\n      swap2\n    tag_77:\n      pop\n      pop\n      pop\n      pop\n      pop\n      swap1\n      dup1\n      0x01\n      add\n      dup1\n      sload\n      tag_80\n      swap1\n      tag_56\n      jump\t// in\n    tag_80:\n      dup1\n      0x1f\n      add\n      0x20\n      dup1\n      swap2\n      div\n      mul\n      0x20\n      add\n      mload(0x40)\n      swap1\n      dup2\n      add\n      0x40\n      mstore\n      dup1\n      swap3\n      swap2\n      swap1\n      dup2\n      dup2\n      mstore\n      0x20\n      add\n      dup3\n      dup1\n      sload\n      tag_81\n      swap1\n      tag_56\n      jump\t// in\n    tag_81:\n      dup1\n      iszero\n      tag_82\n      jumpi\n      dup1\n      0x1f\n      lt\n      tag_83\n      jumpi\n      0x0100\n      dup1\n      dup4\n      sload\n      div\n      mul\n      dup4\n      mstore\n      swap2\n      0x20\n      add\n      swap2\n      jump(tag_82)\n    tag_83:\n      dup3\n      add\n      swap2\n      swap1\n      0x00\n      mstore\n      keccak256(0x00, 0x20)\n      swap1\n    tag_84:\n      dup2\n      sload\n      dup2\n      mstore\n      swap1\n      0x01\n      add\n      swap1\n      0x20\n      add\n      dup1\n      dup4\n      gt\n      tag_84\n      jumpi\n      dup3\n      swap1\n      sub\n      0x1f\n      and\n      dup3\n      add\n      swap2\n    tag_82:\n      pop\n      pop\n      pop\n      pop\n      pop\n      swap1\n      dup1\n      0x02\n      add\n      0x00\n      swap1\n      sload\n      swap1\n      0x0100\n      exp\n      swap1\n      div\n      0xff\n      and\n      swap1\n      dup1\n      0x02\n      add\n      0x01\n      swap1\n      sload\n      swap1\n      0x0100\n      exp\n      swap1\n      div\n      0xff\n      and\n      swap1\n      pop\n      dup5\n      jump\t// out\n        /* \"TodoList/TodoList.sol\":988:1459  function deleteTask(uint8[] calldata index) public {... */\n    tag_31:\n        /* \"TodoList/TodoList.sol\":1049:1068  Todo[] storage todo */\n      0x00\n        /* \"TodoList/TodoList.sol\":1071:1076  lists */\n      0x00\n        /* \"TodoList/TodoList.sol\":1071:1088  lists[msg.sender] */\n      0x00\n        /* \"TodoList/TodoList.sol\":1077:1087  msg.sender */\n      caller\n        /* \"TodoList/TodoList.sol\":1071:1088  lists[msg.sender] */\n      0xffffffffffffffffffffffffffffffffffffffff\n      and\n      0xffffffffffffffffffffffffffffffffffffffff\n      and\n      dup2\n      mstore\n      0x20\n      add\n      swap1\n      dup2\n      mstore\n      0x20\n      add\n      0x00\n      keccak256\n        /* \"TodoList/TodoList.sol\":1049:1088  Todo[] storage todo = lists[msg.sender] */\n      swap1\n      pop\n        /* \"TodoList/TodoList.sol\":1103:1112  uint256 i */\n      0x00\n        /* \"TodoList/TodoList.sol\":1115:1116  0 */\n      0x00\n        /* \"TodoList/TodoList.sol\":1103:1116  uint256 i = 0 */\n      swap1\n      pop\n        /* \"TodoList/TodoList.sol\":1098:1453  for (uint256 i = 0; i < index.length; i++) {... */\n    tag_86:\n        /* \"TodoList/TodoList.sol\":1122:1127  index */\n      dup4\n      dup4\n        /* \"TodoList/TodoList.sol\":1122:1134  index.length */\n      swap1\n      pop\n        /* \"TodoList/TodoList.sol\":1118:1119  i */\n      dup2\n        /* \"TodoList/TodoList.sol\":1118:1134  i < index.length */\n      lt\n        /* \"TodoList/TodoList.sol\":1098:1453  for (uint256 i = 0; i < index.length; i++) {... */\n      iszero\n      tag_87\n      jumpi\n        /* \"TodoList/TodoList.sol\":1155:1170  uint8 todoIndex */\n      0x00\n        /* \"TodoList/TodoList.sol\":1173:1178  index */\n      dup5\n      dup5\n        /* \"TodoList/TodoList.sol\":1179:1180  i */\n      dup4\n        /* \"TodoList/TodoList.sol\":1173:1181  index[i] */\n      dup2\n      dup2\n      lt\n      tag_89\n      jumpi\n      tag_90\n      tag_35\n      jump\t// in\n    tag_90:\n    tag_89:\n      swap1\n      pop\n      0x20\n      mul\n      add\n      0x20\n      dup2\n      add\n      swap1\n      tag_91\n      swap2\n      swap1\n      tag_10\n      jump\t// in\n    tag_91:\n        /* \"TodoList/TodoList.sol\":1155:1181  uint8 todoIndex = index[i] */\n      swap1\n      pop\n        /* \"TodoList/TodoList.sol\":1216:1221  lists */\n      0x00\n        /* \"TodoList/TodoList.sol\":1216:1233  lists[msg.sender] */\n      0x00\n        /* \"TodoList/TodoList.sol\":1222:1232  msg.sender */\n      caller\n        /* \"TodoList/TodoList.sol\":1216:1233  lists[msg.sender] */\n      0xffffffffffffffffffffffffffffffffffffffff\n      and\n      0xffffffffffffffffffffffffffffffffffffffff\n      and\n      dup2\n      mstore\n      0x20\n      add\n      swap1\n      dup2\n      mstore\n      0x20\n      add\n      0x00\n      keccak256\n        /* \"TodoList/TodoList.sol\":1216:1240  lists[msg.sender].length */\n      dup1\n      sload\n      swap1\n      pop\n        /* \"TodoList/TodoList.sol\":1204:1213  todoIndex */\n      dup2\n        /* \"TodoList/TodoList.sol\":1204:1240  todoIndex < lists[msg.sender].length */\n      0xff\n      and\n      lt\n        /* \"TodoList/TodoList.sol\":1196:1258  require(todoIndex < lists[msg.sender].length, \"Invalid Index\") */\n      tag_92\n      jumpi\n      mload(0x40)\n      0x08c379a000000000000000000000000000000000000000000000000000000000\n      dup2\n      mstore\n      0x04\n      add\n      tag_93\n      swap1\n      tag_94\n      jump\t// in\n    tag_93:\n      mload(0x40)\n      dup1\n      swap2\n      sub\n      swap1\n      revert\n    tag_92:\n        /* \"TodoList/TodoList.sol\":1281:1286  lists */\n      0x00\n        /* \"TodoList/TodoList.sol\":1281:1298  lists[msg.sender] */\n      0x00\n        /* \"TodoList/TodoList.sol\":1287:1297  msg.sender */\n      caller\n        /* \"TodoList/TodoList.sol\":1281:1298  lists[msg.sender] */\n      0xffffffffffffffffffffffffffffffffffffffff\n      and\n      0xffffffffffffffffffffffffffffffffffffffff\n      and\n      dup2\n      mstore\n      0x20\n      add\n      swap1\n      dup2\n      mstore\n      0x20\n      add\n      0x00\n      keccak256\n        /* \"TodoList/TodoList.sol\":1299:1308  todoIndex */\n      dup2\n        /* \"TodoList/TodoList.sol\":1281:1309  lists[msg.sender][todoIndex] */\n      0xff\n      and\n      dup2\n      sload\n      dup2\n      lt\n      tag_95\n      jumpi\n      tag_96\n      tag_35\n      jump\t// in\n    tag_96:\n    tag_95:\n      swap1\n      0x00\n      mstore\n      keccak256(0x00, 0x20)\n      swap1\n      0x03\n      mul\n      add\n        /* \"TodoList/TodoList.sol\":1281:1318  lists[msg.sender][todoIndex].isDelete */\n      0x02\n      add\n      0x01\n      swap1\n      sload\n      swap1\n      0x0100\n      exp\n      swap1\n      div\n      0xff\n      and\n        /* \"TodoList/TodoList.sol\":1280:1318  !lists[msg.sender][todoIndex].isDelete */\n      iszero\n        /* \"TodoList/TodoList.sol\":1272:1338  require(!lists[msg.sender][todoIndex].isDelete, \"Already Deleted\") */\n      tag_98\n      jumpi\n      mload(0x40)\n      0x08c379a000000000000000000000000000000000000000000000000000000000\n      dup2\n      mstore\n      0x04\n      add\n      tag_99\n      swap1\n      tag_45\n      jump\t// in\n    tag_99:\n      mload(0x40)\n      dup1\n      swap2\n      sub\n      swap1\n      revert\n    tag_98:\n        /* \"TodoList/TodoList.sol\":1380:1384  true */\n      0x01\n        /* \"TodoList/TodoList.sol\":1353:1357  todo */\n      dup4\n        /* \"TodoList/TodoList.sol\":1358:1367  todoIndex */\n      dup3\n        /* \"TodoList/TodoList.sol\":1353:1368  todo[todoIndex] */\n      0xff\n      and\n      dup2\n      sload\n      dup2\n      lt\n      tag_100\n      jumpi\n      tag_101\n      tag_35\n      jump\t// in\n    tag_101:\n    tag_100:\n      swap1\n      0x00\n      mstore\n      keccak256(0x00, 0x20)\n      swap1\n      0x03\n      mul\n      add\n        /* \"TodoList/TodoList.sol\":1353:1377  todo[todoIndex].isDelete */\n      0x02\n      add\n      0x01\n        /* \"TodoList/TodoList.sol\":1353:1384  todo[todoIndex].isDelete = true */\n      0x0100\n      exp\n      dup2\n      sload\n      dup2\n      0xff\n      mul\n      not\n      and\n      swap1\n      dup4\n      iszero\n      iszero\n      mul\n      or\n      swap1\n      sstore\n      pop\n        /* \"TodoList/TodoList.sol\":1404:1442  DeleteTask(todo[todoIndex].name, true) */\n      0x9534f516785fe8bdba306243d0961a83772f11490e6bb6562d880807b3625690\n        /* \"TodoList/TodoList.sol\":1415:1419  todo */\n      dup4\n        /* \"TodoList/TodoList.sol\":1420:1429  todoIndex */\n      dup3\n        /* \"TodoList/TodoList.sol\":1415:1430  todo[todoIndex] */\n      0xff\n      and\n      dup2\n      sload\n      dup2\n      lt\n      tag_103\n      jumpi\n      tag_104\n      tag_35\n      jump\t// in\n    tag_104:\n    tag_103:\n      swap1\n      0x00\n      mstore\n      keccak256(0x00, 0x20)\n      swap1\n      0x03\n      mul\n      add\n        /* \"TodoList/TodoList.sol\":1415:1435  todo[todoIndex].name */\n      0x00\n      add\n        /* \"TodoList/TodoList.sol\":1437:1441  true */\n      0x01\n        /* \"TodoList/TodoList.sol\":1404:1442  DeleteTask(todo[todoIndex].name, true) */\n      mload(0x40)\n      tag_106\n      swap3\n      swap2\n      swap1\n      tag_50\n      jump\t// in\n    tag_106:\n      mload(0x40)\n      dup1\n      swap2\n      sub\n      swap1\n      log1\n        /* \"TodoList/TodoList.sol\":1141:1453  {... */\n      pop\n        /* \"TodoList/TodoList.sol\":1136:1139  i++ */\n      dup1\n      dup1\n      0x01\n      add\n      swap2\n      pop\n      pop\n        /* \"TodoList/TodoList.sol\":1098:1453  for (uint256 i = 0; i < index.length; i++) {... */\n      jump(tag_86)\n    tag_87:\n      pop\n        /* \"TodoList/TodoList.sol\":1039:1459  {... */\n      pop\n        /* \"TodoList/TodoList.sol\":988:1459  function deleteTask(uint8[] calldata index) public {... */\n      pop\n      pop\n      jump\t// out\n        /* \"#utility.yul\":88:205   */\n    tag_108:\n        /* \"#utility.yul\":197:198   */\n      0x00\n        /* \"#utility.yul\":194:195   */\n      0x00\n        /* \"#utility.yul\":187:199   */\n      revert\n        /* \"#utility.yul\":211:328   */\n    tag_109:\n        /* \"#utility.yul\":320:321   */\n      0x00\n        /* \"#utility.yul\":317:318   */\n      0x00\n        /* \"#utility.yul\":310:322   */\n      revert\n        /* \"#utility.yul\":334:420   */\n    tag_110:\n        /* \"#utility.yul\":369:376   */\n      0x00\n        /* \"#utility.yul\":409:413   */\n      0xff\n        /* \"#utility.yul\":402:407   */\n      dup3\n        /* \"#utility.yul\":398:414   */\n      and\n        /* \"#utility.yul\":387:414   */\n      swap1\n      pop\n        /* \"#utility.yul\":334:420   */\n      swap2\n      swap1\n      pop\n      jump\t// out\n        /* \"#utility.yul\":426:544   */\n    tag_111:\n        /* \"#utility.yul\":497:519   */\n      tag_175\n        /* \"#utility.yul\":513:518   */\n      dup2\n        /* \"#utility.yul\":497:519   */\n      tag_110\n      jump\t// in\n    tag_175:\n        /* \"#utility.yul\":490:495   */\n      dup2\n        /* \"#utility.yul\":487:520   */\n      eq\n        /* \"#utility.yul\":477:538   */\n      tag_176\n      jumpi\n        /* \"#utility.yul\":534:535   */\n      0x00\n        /* \"#utility.yul\":531:532   */\n      0x00\n        /* \"#utility.yul\":524:536   */\n      revert\n        /* \"#utility.yul\":477:538   */\n    tag_176:\n        /* \"#utility.yul\":426:544   */\n      pop\n      jump\t// out\n        /* \"#utility.yul\":550:685   */\n    tag_112:\n        /* \"#utility.yul\":594:599   */\n      0x00\n        /* \"#utility.yul\":632:638   */\n      dup2\n        /* \"#utility.yul\":619:639   */\n      calldataload\n        /* \"#utility.yul\":610:639   */\n      swap1\n      pop\n        /* \"#utility.yul\":648:679   */\n      tag_178\n        /* \"#utility.yul\":673:678   */\n      dup2\n        /* \"#utility.yul\":648:679   */\n      tag_111\n      jump\t// in\n    tag_178:\n        /* \"#utility.yul\":550:685   */\n      swap3\n      swap2\n      pop\n      pop\n      jump\t// out\n        /* \"#utility.yul\":691:1016   */\n    tag_10:\n        /* \"#utility.yul\":748:754   */\n      0x00\n        /* \"#utility.yul\":797:799   */\n      0x20\n        /* \"#utility.yul\":785:794   */\n      dup3\n        /* \"#utility.yul\":776:783   */\n      dup5\n        /* \"#utility.yul\":772:795   */\n      sub\n        /* \"#utility.yul\":768:800   */\n      slt\n        /* \"#utility.yul\":765:884   */\n      iszero\n      tag_180\n      jumpi\n        /* \"#utility.yul\":803:882   */\n      tag_181\n      tag_108\n      jump\t// in\n    tag_181:\n        /* \"#utility.yul\":765:884   */\n    tag_180:\n        /* \"#utility.yul\":923:924   */\n      0x00\n        /* \"#utility.yul\":948:999   */\n      tag_182\n        /* \"#utility.yul\":991:998   */\n      dup5\n        /* \"#utility.yul\":982:988   */\n      dup3\n        /* \"#utility.yul\":971:980   */\n      dup6\n        /* \"#utility.yul\":967:989   */\n      add\n        /* \"#utility.yul\":948:999   */\n      tag_112\n      jump\t// in\n    tag_182:\n        /* \"#utility.yul\":938:999   */\n      swap2\n      pop\n        /* \"#utility.yul\":894:1009   */\n      pop\n        /* \"#utility.yul\":691:1016   */\n      swap3\n      swap2\n      pop\n      pop\n      jump\t// out\n        /* \"#utility.yul\":1022:1156   */\n    tag_113:\n        /* \"#utility.yul\":1109:1115   */\n      0x00\n        /* \"#utility.yul\":1143:1148   */\n      dup2\n        /* \"#utility.yul\":1137:1149   */\n      mload\n        /* \"#utility.yul\":1127:1149   */\n      swap1\n      pop\n        /* \"#utility.yul\":1022:1156   */\n      swap2\n      swap1\n      pop\n      jump\t// out\n        /* \"#utility.yul\":1162:1366   */\n    tag_114:\n        /* \"#utility.yul\":1281:1292   */\n      0x00\n        /* \"#utility.yul\":1315:1321   */\n      dup3\n        /* \"#utility.yul\":1310:1313   */\n      dup3\n        /* \"#utility.yul\":1303:1322   */\n      mstore\n        /* \"#utility.yul\":1355:1359   */\n      0x20\n        /* \"#utility.yul\":1350:1353   */\n      dup3\n        /* \"#utility.yul\":1346:1360   */\n      add\n        /* \"#utility.yul\":1331:1360   */\n      swap1\n      pop\n        /* \"#utility.yul\":1162:1366   */\n      swap3\n      swap2\n      pop\n      pop\n      jump\t// out\n        /* \"#utility.yul\":1372:1524   */\n    tag_115:\n        /* \"#utility.yul\":1459:1463   */\n      0x00\n        /* \"#utility.yul\":1482:1485   */\n      dup2\n        /* \"#utility.yul\":1474:1485   */\n      swap1\n      pop\n        /* \"#utility.yul\":1512:1516   */\n      0x20\n        /* \"#utility.yul\":1507:1510   */\n      dup3\n        /* \"#utility.yul\":1503:1517   */\n      add\n        /* \"#utility.yul\":1495:1517   */\n      swap1\n      pop\n        /* \"#utility.yul\":1372:1524   */\n      swap2\n      swap1\n      pop\n      jump\t// out\n        /* \"#utility.yul\":1530:1629   */\n    tag_116:\n        /* \"#utility.yul\":1582:1588   */\n      0x00\n        /* \"#utility.yul\":1616:1621   */\n      dup2\n        /* \"#utility.yul\":1610:1622   */\n      mload\n        /* \"#utility.yul\":1600:1622   */\n      swap1\n      pop\n        /* \"#utility.yul\":1530:1629   */\n      swap2\n      swap1\n      pop\n      jump\t// out\n        /* \"#utility.yul\":1635:1794   */\n    tag_117:\n        /* \"#utility.yul\":1709:1720   */\n      0x00\n        /* \"#utility.yul\":1743:1749   */\n      dup3\n        /* \"#utility.yul\":1738:1741   */\n      dup3\n        /* \"#utility.yul\":1731:1750   */\n      mstore\n        /* \"#utility.yul\":1783:1787   */\n      0x20\n        /* \"#utility.yul\":1778:1781   */\n      dup3\n        /* \"#utility.yul\":1774:1788   */\n      add\n        /* \"#utility.yul\":1759:1788   */\n      swap1\n      pop\n        /* \"#utility.yul\":1635:1794   */\n      swap3\n      swap2\n      pop\n      pop\n      jump\t// out\n        /* \"#utility.yul\":1800:1939   */\n    tag_118:\n        /* \"#utility.yul\":1889:1895   */\n      dup3\n        /* \"#utility.yul\":1884:1887   */\n      dup2\n        /* \"#utility.yul\":1879:1882   */\n      dup4\n        /* \"#utility.yul\":1873:1896   */\n      mcopy\n        /* \"#utility.yul\":1930:1931   */\n      0x00\n        /* \"#utility.yul\":1921:1927   */\n      dup4\n        /* \"#utility.yul\":1916:1919   */\n      dup4\n        /* \"#utility.yul\":1912:1928   */\n      add\n        /* \"#utility.yul\":1905:1932   */\n      mstore\n        /* \"#utility.yul\":1800:1939   */\n      pop\n      pop\n      pop\n      jump\t// out\n        /* \"#utility.yul\":1945:2047   */\n    tag_119:\n        /* \"#utility.yul\":1986:1992   */\n      0x00\n        /* \"#utility.yul\":2037:2039   */\n      0x1f\n        /* \"#utility.yul\":2033:2040   */\n      not\n        /* \"#utility.yul\":2028:2030   */\n      0x1f\n        /* \"#utility.yul\":2021:2026   */\n      dup4\n        /* \"#utility.yul\":2017:2031   */\n      add\n        /* \"#utility.yul\":2013:2041   */\n      and\n        /* \"#utility.yul\":2003:2041   */\n      swap1\n      pop\n        /* \"#utility.yul\":1945:2047   */\n      swap2\n      swap1\n      pop\n      jump\t// out\n        /* \"#utility.yul\":2053:2410   */\n    tag_120:\n        /* \"#utility.yul\":2131:2134   */\n      0x00\n        /* \"#utility.yul\":2159:2198   */\n      tag_191\n        /* \"#utility.yul\":2192:2197   */\n      dup3\n        /* \"#utility.yul\":2159:2198   */\n      tag_116\n      jump\t// in\n    tag_191:\n        /* \"#utility.yul\":2214:2275   */\n      tag_192\n        /* \"#utility.yul\":2268:2274   */\n      dup2\n        /* \"#utility.yul\":2263:2266   */\n      dup6\n        /* \"#utility.yul\":2214:2275   */\n      tag_117\n      jump\t// in\n    tag_192:\n        /* \"#utility.yul\":2207:2275   */\n      swap4\n      pop\n        /* \"#utility.yul\":2284:2349   */\n      tag_193\n        /* \"#utility.yul\":2342:2348   */\n      dup2\n        /* \"#utility.yul\":2337:2340   */\n      dup6\n        /* \"#utility.yul\":2330:2334   */\n      0x20\n        /* \"#utility.yul\":2323:2328   */\n      dup7\n        /* \"#utility.yul\":2319:2335   */\n      add\n        /* \"#utility.yul\":2284:2349   */\n      tag_118\n      jump\t// in\n    tag_193:\n        /* \"#utility.yul\":2374:2403   */\n      tag_194\n        /* \"#utility.yul\":2396:2402   */\n      dup2\n        /* \"#utility.yul\":2374:2403   */\n      tag_119\n      jump\t// in\n    tag_194:\n        /* \"#utility.yul\":2369:2372   */\n      dup5\n        /* \"#utility.yul\":2365:2404   */\n      add\n        /* \"#utility.yul\":2358:2404   */\n      swap2\n      pop\n        /* \"#utility.yul\":2135:2410   */\n      pop\n        /* \"#utility.yul\":2053:2410   */\n      swap3\n      swap2\n      pop\n      pop\n      jump\t// out\n        /* \"#utility.yul\":2416:2506   */\n    tag_121:\n        /* \"#utility.yul\":2450:2457   */\n      0x00\n        /* \"#utility.yul\":2493:2498   */\n      dup2\n        /* \"#utility.yul\":2486:2499   */\n      iszero\n        /* \"#utility.yul\":2479:2500   */\n      iszero\n        /* \"#utility.yul\":2468:2500   */\n      swap1\n      pop\n        /* \"#utility.yul\":2416:2506   */\n      swap2\n      swap1\n      pop\n      jump\t// out\n        /* \"#utility.yul\":2512:2611   */\n    tag_122:\n        /* \"#utility.yul\":2583:2604   */\n      tag_197\n        /* \"#utility.yul\":2598:2603   */\n      dup2\n        /* \"#utility.yul\":2583:2604   */\n      tag_121\n      jump\t// in\n    tag_197:\n        /* \"#utility.yul\":2578:2581   */\n      dup3\n        /* \"#utility.yul\":2571:2605   */\n      mstore\n        /* \"#utility.yul\":2512:2611   */\n      pop\n      pop\n      jump\t// out\n        /* \"#utility.yul\":2669:3675   */\n    tag_123:\n        /* \"#utility.yul\":2768:2771   */\n      0x00\n        /* \"#utility.yul\":2804:2808   */\n      0x80\n        /* \"#utility.yul\":2799:2802   */\n      dup4\n        /* \"#utility.yul\":2795:2809   */\n      add\n        /* \"#utility.yul\":2891:2895   */\n      0x00\n        /* \"#utility.yul\":2884:2889   */\n      dup4\n        /* \"#utility.yul\":2880:2896   */\n      add\n        /* \"#utility.yul\":2874:2897   */\n      mload\n        /* \"#utility.yul\":2944:2947   */\n      dup5\n        /* \"#utility.yul\":2938:2942   */\n      dup3\n        /* \"#utility.yul\":2934:2948   */\n      sub\n        /* \"#utility.yul\":2927:2931   */\n      0x00\n        /* \"#utility.yul\":2922:2925   */\n      dup7\n        /* \"#utility.yul\":2918:2932   */\n      add\n        /* \"#utility.yul\":2911:2949   */\n      mstore\n        /* \"#utility.yul\":2970:3043   */\n      tag_199\n        /* \"#utility.yul\":3038:3042   */\n      dup3\n        /* \"#utility.yul\":3024:3036   */\n      dup3\n        /* \"#utility.yul\":2970:3043   */\n      tag_120\n      jump\t// in\n    tag_199:\n        /* \"#utility.yul\":2962:3043   */\n      swap2\n      pop\n        /* \"#utility.yul\":2819:3054   */\n      pop\n        /* \"#utility.yul\":3143:3147   */\n      0x20\n        /* \"#utility.yul\":3136:3141   */\n      dup4\n        /* \"#utility.yul\":3132:3148   */\n      add\n        /* \"#utility.yul\":3126:3149   */\n      mload\n        /* \"#utility.yul\":3196:3199   */\n      dup5\n        /* \"#utility.yul\":3190:3194   */\n      dup3\n        /* \"#utility.yul\":3186:3200   */\n      sub\n        /* \"#utility.yul\":3179:3183   */\n      0x20\n        /* \"#utility.yul\":3174:3177   */\n      dup7\n        /* \"#utility.yul\":3170:3184   */\n      add\n        /* \"#utility.yul\":3163:3201   */\n      mstore\n        /* \"#utility.yul\":3222:3295   */\n      tag_200\n        /* \"#utility.yul\":3290:3294   */\n      dup3\n        /* \"#utility.yul\":3276:3288   */\n      dup3\n        /* \"#utility.yul\":3222:3295   */\n      tag_120\n      jump\t// in\n    tag_200:\n        /* \"#utility.yul\":3214:3295   */\n      swap2\n      pop\n        /* \"#utility.yul\":3064:3306   */\n      pop\n        /* \"#utility.yul\":3390:3394   */\n      0x40\n        /* \"#utility.yul\":3383:3388   */\n      dup4\n        /* \"#utility.yul\":3379:3395   */\n      add\n        /* \"#utility.yul\":3373:3396   */\n      mload\n        /* \"#utility.yul\":3409:3466   */\n      tag_201\n        /* \"#utility.yul\":3460:3464   */\n      0x40\n        /* \"#utility.yul\":3455:3458   */\n      dup7\n        /* \"#utility.yul\":3451:3465   */\n      add\n        /* \"#utility.yul\":3437:3449   */\n      dup3\n        /* \"#utility.yul\":3409:3466   */\n      tag_122\n      jump\t// in\n    tag_201:\n        /* \"#utility.yul\":3316:3476   */\n      pop\n        /* \"#utility.yul\":3562:3566   */\n      0x60\n        /* \"#utility.yul\":3555:3560   */\n      dup4\n        /* \"#utility.yul\":3551:3567   */\n      add\n        /* \"#utility.yul\":3545:3568   */\n      mload\n        /* \"#utility.yul\":3581:3638   */\n      tag_202\n        /* \"#utility.yul\":3632:3636   */\n      0x60\n        /* \"#utility.yul\":3627:3630   */\n      dup7\n        /* \"#utility.yul\":3623:3637   */\n      add\n        /* \"#utility.yul\":3609:3621   */\n      dup3\n        /* \"#utility.yul\":3581:3638   */\n      tag_122\n      jump\t// in\n    tag_202:\n        /* \"#utility.yul\":3486:3648   */\n      pop\n        /* \"#utility.yul\":3665:3669   */\n      dup1\n        /* \"#utility.yul\":3658:3669   */\n      swap2\n      pop\n        /* \"#utility.yul\":2773:3675   */\n      pop\n        /* \"#utility.yul\":2669:3675   */\n      swap3\n      swap2\n      pop\n      pop\n      jump\t// out\n        /* \"#utility.yul\":3681:3917   */\n    tag_124:\n        /* \"#utility.yul\":3790:3800   */\n      0x00\n        /* \"#utility.yul\":3825:3911   */\n      tag_204\n        /* \"#utility.yul\":3907:3910   */\n      dup4\n        /* \"#utility.yul\":3899:3905   */\n      dup4\n        /* \"#utility.yul\":3825:3911   */\n      tag_123\n      jump\t// in\n    tag_204:\n        /* \"#utility.yul\":3811:3911   */\n      swap1\n      pop\n        /* \"#utility.yul\":3681:3917   */\n      swap3\n      swap2\n      pop\n      pop\n      jump\t// out\n        /* \"#utility.yul\":3923:4056   */\n    tag_125:\n        /* \"#utility.yul\":4013:4017   */\n      0x00\n        /* \"#utility.yul\":4045:4049   */\n      0x20\n        /* \"#utility.yul\":4040:4043   */\n      dup3\n        /* \"#utility.yul\":4036:4050   */\n      add\n        /* \"#utility.yul\":4028:4050   */\n      swap1\n      pop\n        /* \"#utility.yul\":3923:4056   */\n      swap2\n      swap1\n      pop\n      jump\t// out\n        /* \"#utility.yul\":4118:5189   */\n    tag_126:\n        /* \"#utility.yul\":4277:4280   */\n      0x00\n        /* \"#utility.yul\":4306:4380   */\n      tag_207\n        /* \"#utility.yul\":4374:4379   */\n      dup3\n        /* \"#utility.yul\":4306:4380   */\n      tag_113\n      jump\t// in\n    tag_207:\n        /* \"#utility.yul\":4396:4502   */\n      tag_208\n        /* \"#utility.yul\":4495:4501   */\n      dup2\n        /* \"#utility.yul\":4490:4493   */\n      dup6\n        /* \"#utility.yul\":4396:4502   */\n      tag_114\n      jump\t// in\n    tag_208:\n        /* \"#utility.yul\":4389:4502   */\n      swap4\n      pop\n        /* \"#utility.yul\":4528:4531   */\n      dup4\n        /* \"#utility.yul\":4573:4577   */\n      0x20\n        /* \"#utility.yul\":4565:4571   */\n      dup3\n        /* \"#utility.yul\":4561:4578   */\n      mul\n        /* \"#utility.yul\":4556:4559   */\n      dup6\n        /* \"#utility.yul\":4552:4579   */\n      add\n        /* \"#utility.yul\":4603:4679   */\n      tag_209\n        /* \"#utility.yul\":4673:4678   */\n      dup6\n        /* \"#utility.yul\":4603:4679   */\n      tag_115\n      jump\t// in\n    tag_209:\n        /* \"#utility.yul\":4702:4709   */\n      dup1\n        /* \"#utility.yul\":4733:4734   */\n      0x00\n        /* \"#utility.yul\":4718:5144   */\n    tag_210:\n        /* \"#utility.yul\":4743:4749   */\n      dup6\n        /* \"#utility.yul\":4740:4741   */\n      dup2\n        /* \"#utility.yul\":4737:4750   */\n      lt\n        /* \"#utility.yul\":4718:5144   */\n      iszero\n      tag_212\n      jumpi\n        /* \"#utility.yul\":4814:4823   */\n      dup5\n        /* \"#utility.yul\":4808:4812   */\n      dup5\n        /* \"#utility.yul\":4804:4824   */\n      sub\n        /* \"#utility.yul\":4799:4802   */\n      dup10\n        /* \"#utility.yul\":4792:4825   */\n      mstore\n        /* \"#utility.yul\":4865:4871   */\n      dup2\n        /* \"#utility.yul\":4859:4872   */\n      mload\n        /* \"#utility.yul\":4893:4997   */\n      tag_213\n        /* \"#utility.yul\":4992:4996   */\n      dup6\n        /* \"#utility.yul\":4977:4990   */\n      dup3\n        /* \"#utility.yul\":4893:4997   */\n      tag_124\n      jump\t// in\n    tag_213:\n        /* \"#utility.yul\":4885:4997   */\n      swap5\n      pop\n        /* \"#utility.yul\":5020:5100   */\n      tag_214\n        /* \"#utility.yul\":5093:5099   */\n      dup4\n        /* \"#utility.yul\":5020:5100   */\n      tag_125\n      jump\t// in\n    tag_214:\n        /* \"#utility.yul\":5010:5100   */\n      swap3\n      pop\n        /* \"#utility.yul\":5129:5133   */\n      0x20\n        /* \"#utility.yul\":5124:5127   */\n      dup11\n        /* \"#utility.yul\":5120:5134   */\n      add\n        /* \"#utility.yul\":5113:5134   */\n      swap10\n      pop\n        /* \"#utility.yul\":4778:5144   */\n      pop\n        /* \"#utility.yul\":4765:4766   */\n      0x01\n        /* \"#utility.yul\":4762:4763   */\n      dup2\n        /* \"#utility.yul\":4758:4767   */\n      add\n        /* \"#utility.yul\":4753:4767   */\n      swap1\n      pop\n        /* \"#utility.yul\":4718:5144   */\n      jump(tag_210)\n    tag_212:\n        /* \"#utility.yul\":4722:4736   */\n      pop\n        /* \"#utility.yul\":5160:5164   */\n      dup3\n        /* \"#utility.yul\":5153:5164   */\n      swap8\n      pop\n        /* \"#utility.yul\":5180:5183   */\n      dup8\n        /* \"#utility.yul\":5173:5183   */\n      swap6\n      pop\n        /* \"#utility.yul\":4282:5189   */\n      pop\n      pop\n      pop\n      pop\n      pop\n        /* \"#utility.yul\":4118:5189   */\n      swap3\n      swap2\n      pop\n      pop\n      jump\t// out\n        /* \"#utility.yul\":5195:5648   */\n    tag_15:\n        /* \"#utility.yul\":5378:5382   */\n      0x00\n        /* \"#utility.yul\":5416:5418   */\n      0x20\n        /* \"#utility.yul\":5405:5414   */\n      dup3\n        /* \"#utility.yul\":5401:5419   */\n      add\n        /* \"#utility.yul\":5393:5419   */\n      swap1\n      pop\n        /* \"#utility.yul\":5465:5474   */\n      dup2\n        /* \"#utility.yul\":5459:5463   */\n      dup2\n        /* \"#utility.yul\":5455:5475   */\n      sub\n        /* \"#utility.yul\":5451:5452   */\n      0x00\n        /* \"#utility.yul\":5440:5449   */\n      dup4\n        /* \"#utility.yul\":5436:5453   */\n      add\n        /* \"#utility.yul\":5429:5476   */\n      mstore\n        /* \"#utility.yul\":5493:5641   */\n      tag_216\n        /* \"#utility.yul\":5636:5640   */\n      dup2\n        /* \"#utility.yul\":5627:5633   */\n      dup5\n        /* \"#utility.yul\":5493:5641   */\n      tag_126\n      jump\t// in\n    tag_216:\n        /* \"#utility.yul\":5485:5641   */\n      swap1\n      pop\n        /* \"#utility.yul\":5195:5648   */\n      swap3\n      swap2\n      pop\n      pop\n      jump\t// out\n        /* \"#utility.yul\":5654:5771   */\n    tag_127:\n        /* \"#utility.yul\":5763:5764   */\n      0x00\n        /* \"#utility.yul\":5760:5761   */\n      0x00\n        /* \"#utility.yul\":5753:5765   */\n      revert\n        /* \"#utility.yul\":5777:5894   */\n    tag_128:\n        /* \"#utility.yul\":5886:5887   */\n      0x00\n        /* \"#utility.yul\":5883:5884   */\n      0x00\n        /* \"#utility.yul\":5876:5888   */\n      revert\n        /* \"#utility.yul\":5900:6017   */\n    tag_129:\n        /* \"#utility.yul\":6009:6010   */\n      0x00\n        /* \"#utility.yul\":6006:6007   */\n      0x00\n        /* \"#utility.yul\":5999:6011   */\n      revert\n        /* \"#utility.yul\":6037:6590   */\n    tag_130:\n        /* \"#utility.yul\":6095:6103   */\n      0x00\n        /* \"#utility.yul\":6105:6111   */\n      0x00\n        /* \"#utility.yul\":6155:6158   */\n      dup4\n        /* \"#utility.yul\":6148:6152   */\n      0x1f\n        /* \"#utility.yul\":6140:6146   */\n      dup5\n        /* \"#utility.yul\":6136:6153   */\n      add\n        /* \"#utility.yul\":6132:6159   */\n      slt\n        /* \"#utility.yul\":6122:6244   */\n      tag_221\n      jumpi\n        /* \"#utility.yul\":6163:6242   */\n      tag_222\n      tag_127\n      jump\t// in\n    tag_222:\n        /* \"#utility.yul\":6122:6244   */\n    tag_221:\n        /* \"#utility.yul\":6276:6282   */\n      dup3\n        /* \"#utility.yul\":6263:6283   */\n      calldataload\n        /* \"#utility.yul\":6253:6283   */\n      swap1\n      pop\n        /* \"#utility.yul\":6306:6324   */\n      0xffffffffffffffff\n        /* \"#utility.yul\":6298:6304   */\n      dup2\n        /* \"#utility.yul\":6295:6325   */\n      gt\n        /* \"#utility.yul\":6292:6409   */\n      iszero\n      tag_223\n      jumpi\n        /* \"#utility.yul\":6328:6407   */\n      tag_224\n      tag_128\n      jump\t// in\n    tag_224:\n        /* \"#utility.yul\":6292:6409   */\n    tag_223:\n        /* \"#utility.yul\":6442:6446   */\n      0x20\n        /* \"#utility.yul\":6434:6440   */\n      dup4\n        /* \"#utility.yul\":6430:6447   */\n      add\n        /* \"#utility.yul\":6418:6447   */\n      swap2\n      pop\n        /* \"#utility.yul\":6496:6499   */\n      dup4\n        /* \"#utility.yul\":6488:6492   */\n      0x01\n        /* \"#utility.yul\":6480:6486   */\n      dup3\n        /* \"#utility.yul\":6476:6493   */\n      mul\n        /* \"#utility.yul\":6466:6474   */\n      dup4\n        /* \"#utility.yul\":6462:6494   */\n      add\n        /* \"#utility.yul\":6459:6500   */\n      gt\n        /* \"#utility.yul\":6456:6584   */\n      iszero\n      tag_225\n      jumpi\n        /* \"#utility.yul\":6503:6582   */\n      tag_226\n      tag_129\n      jump\t// in\n    tag_226:\n        /* \"#utility.yul\":6456:6584   */\n    tag_225:\n        /* \"#utility.yul\":6037:6590   */\n      swap3\n      pop\n      swap3\n      swap1\n      pop\n      jump\t// out\n        /* \"#utility.yul\":6596:7470   */\n    tag_18:\n        /* \"#utility.yul\":6688:6694   */\n      0x00\n        /* \"#utility.yul\":6696:6702   */\n      0x00\n        /* \"#utility.yul\":6704:6710   */\n      0x00\n        /* \"#utility.yul\":6712:6718   */\n      0x00\n        /* \"#utility.yul\":6761:6763   */\n      0x40\n        /* \"#utility.yul\":6749:6758   */\n      dup6\n        /* \"#utility.yul\":6740:6747   */\n      dup8\n        /* \"#utility.yul\":6736:6759   */\n      sub\n        /* \"#utility.yul\":6732:6764   */\n      slt\n        /* \"#utility.yul\":6729:6848   */\n      iszero\n      tag_228\n      jumpi\n        /* \"#utility.yul\":6767:6846   */\n      tag_229\n      tag_108\n      jump\t// in\n    tag_229:\n        /* \"#utility.yul\":6729:6848   */\n    tag_228:\n        /* \"#utility.yul\":6915:6916   */\n      0x00\n        /* \"#utility.yul\":6904:6913   */\n      dup6\n        /* \"#utility.yul\":6900:6917   */\n      add\n        /* \"#utility.yul\":6887:6918   */\n      calldataload\n        /* \"#utility.yul\":6945:6963   */\n      0xffffffffffffffff\n        /* \"#utility.yul\":6937:6943   */\n      dup2\n        /* \"#utility.yul\":6934:6964   */\n      gt\n        /* \"#utility.yul\":6931:7048   */\n      iszero\n      tag_230\n      jumpi\n        /* \"#utility.yul\":6967:7046   */\n      tag_231\n      tag_109\n      jump\t// in\n    tag_231:\n        /* \"#utility.yul\":6931:7048   */\n    tag_230:\n        /* \"#utility.yul\":7080:7145   */\n      tag_232\n        /* \"#utility.yul\":7137:7144   */\n      dup8\n        /* \"#utility.yul\":7128:7134   */\n      dup3\n        /* \"#utility.yul\":7117:7126   */\n      dup9\n        /* \"#utility.yul\":7113:7135   */\n      add\n        /* \"#utility.yul\":7080:7145   */\n      tag_130\n      jump\t// in\n    tag_232:\n        /* \"#utility.yul\":7062:7145   */\n      swap5\n      pop\n      swap5\n      pop\n        /* \"#utility.yul\":6858:7155   */\n      pop\n        /* \"#utility.yul\":7222:7224   */\n      0x20\n        /* \"#utility.yul\":7211:7220   */\n      dup6\n        /* \"#utility.yul\":7207:7225   */\n      add\n        /* \"#utility.yul\":7194:7226   */\n      calldataload\n        /* \"#utility.yul\":7253:7271   */\n      0xffffffffffffffff\n        /* \"#utility.yul\":7245:7251   */\n      dup2\n        /* \"#utility.yul\":7242:7272   */\n      gt\n        /* \"#utility.yul\":7239:7356   */\n      iszero\n      tag_233\n      jumpi\n        /* \"#utility.yul\":7275:7354   */\n      tag_234\n      tag_109\n      jump\t// in\n    tag_234:\n        /* \"#utility.yul\":7239:7356   */\n    tag_233:\n        /* \"#utility.yul\":7388:7453   */\n      tag_235\n        /* \"#utility.yul\":7445:7452   */\n      dup8\n        /* \"#utility.yul\":7436:7442   */\n      dup3\n        /* \"#utility.yul\":7425:7434   */\n      dup9\n        /* \"#utility.yul\":7421:7443   */\n      add\n        /* \"#utility.yul\":7388:7453   */\n      tag_130\n      jump\t// in\n    tag_235:\n        /* \"#utility.yul\":7370:7453   */\n      swap3\n      pop\n      swap3\n      pop\n        /* \"#utility.yul\":7165:7463   */\n      pop\n        /* \"#utility.yul\":6596:7470   */\n      swap3\n      swap6\n      swap2\n      swap5\n      pop\n      swap3\n      pop\n      jump\t// out\n        /* \"#utility.yul\":7476:7585   */\n    tag_131:\n        /* \"#utility.yul\":7557:7578   */\n      tag_237\n        /* \"#utility.yul\":7572:7577   */\n      dup2\n        /* \"#utility.yul\":7557:7578   */\n      tag_121\n      jump\t// in\n    tag_237:\n        /* \"#utility.yul\":7552:7555   */\n      dup3\n        /* \"#utility.yul\":7545:7579   */\n      mstore\n        /* \"#utility.yul\":7476:7585   */\n      pop\n      pop\n      jump\t// out\n        /* \"#utility.yul\":7591:7801   */\n    tag_21:\n        /* \"#utility.yul\":7678:7682   */\n      0x00\n        /* \"#utility.yul\":7716:7718   */\n      0x20\n        /* \"#utility.yul\":7705:7714   */\n      dup3\n        /* \"#utility.yul\":7701:7719   */\n      add\n        /* \"#utility.yul\":7693:7719   */\n      swap1\n      pop\n        /* \"#utility.yul\":7729:7794   */\n      tag_239\n        /* \"#utility.yul\":7791:7792   */\n      0x00\n        /* \"#utility.yul\":7780:7789   */\n      dup4\n        /* \"#utility.yul\":7776:7793   */\n      add\n        /* \"#utility.yul\":7767:7773   */\n      dup5\n        /* \"#utility.yul\":7729:7794   */\n      tag_131\n      jump\t// in\n    tag_239:\n        /* \"#utility.yul\":7591:7801   */\n      swap3\n      swap2\n      pop\n      pop\n      jump\t// out\n        /* \"#utility.yul\":7807:7933   */\n    tag_132:\n        /* \"#utility.yul\":7844:7851   */\n      0x00\n        /* \"#utility.yul\":7884:7926   */\n      0xffffffffffffffffffffffffffffffffffffffff\n        /* \"#utility.yul\":7877:7882   */\n      dup3\n        /* \"#utility.yul\":7873:7927   */\n      and\n        /* \"#utility.yul\":7862:7927   */\n      swap1\n      pop\n        /* \"#utility.yul\":7807:7933   */\n      swap2\n      swap1\n      pop\n      jump\t// out\n        /* \"#utility.yul\":7939:8035   */\n    tag_133:\n        /* \"#utility.yul\":7976:7983   */\n      0x00\n        /* \"#utility.yul\":8005:8029   */\n      tag_242\n        /* \"#utility.yul\":8023:8028   */\n      dup3\n        /* \"#utility.yul\":8005:8029   */\n      tag_132\n      jump\t// in\n    tag_242:\n        /* \"#utility.yul\":7994:8029   */\n      swap1\n      pop\n        /* \"#utility.yul\":7939:8035   */\n      swap2\n      swap1\n      pop\n      jump\t// out\n        /* \"#utility.yul\":8041:8163   */\n    tag_134:\n        /* \"#utility.yul\":8114:8138   */\n      tag_244\n        /* \"#utility.yul\":8132:8137   */\n      dup2\n        /* \"#utility.yul\":8114:8138   */\n      tag_133\n      jump\t// in\n    tag_244:\n        /* \"#utility.yul\":8107:8112   */\n      dup2\n        /* \"#utility.yul\":8104:8139   */\n      eq\n        /* \"#utility.yul\":8094:8157   */\n      tag_245\n      jumpi\n        /* \"#utility.yul\":8153:8154   */\n      0x00\n        /* \"#utility.yul\":8150:8151   */\n      0x00\n        /* \"#utility.yul\":8143:8155   */\n      revert\n        /* \"#utility.yul\":8094:8157   */\n    tag_245:\n        /* \"#utility.yul\":8041:8163   */\n      pop\n      jump\t// out\n        /* \"#utility.yul\":8169:8308   */\n    tag_135:\n        /* \"#utility.yul\":8215:8220   */\n      0x00\n        /* \"#utility.yul\":8253:8259   */\n      dup2\n        /* \"#utility.yul\":8240:8260   */\n      calldataload\n        /* \"#utility.yul\":8231:8260   */\n      swap1\n      pop\n        /* \"#utility.yul\":8269:8302   */\n      tag_247\n        /* \"#utility.yul\":8296:8301   */\n      dup2\n        /* \"#utility.yul\":8269:8302   */\n      tag_134\n      jump\t// in\n    tag_247:\n        /* \"#utility.yul\":8169:8308   */\n      swap3\n      swap2\n      pop\n      pop\n      jump\t// out\n        /* \"#utility.yul\":8314:8391   */\n    tag_136:\n        /* \"#utility.yul\":8351:8358   */\n      0x00\n        /* \"#utility.yul\":8380:8385   */\n      dup2\n        /* \"#utility.yul\":8369:8385   */\n      swap1\n      pop\n        /* \"#utility.yul\":8314:8391   */\n      swap2\n      swap1\n      pop\n      jump\t// out\n        /* \"#utility.yul\":8397:8519   */\n    tag_137:\n        /* \"#utility.yul\":8470:8494   */\n      tag_250\n        /* \"#utility.yul\":8488:8493   */\n      dup2\n        /* \"#utility.yul\":8470:8494   */\n      tag_136\n      jump\t// in\n    tag_250:\n        /* \"#utility.yul\":8463:8468   */\n      dup2\n        /* \"#utility.yul\":8460:8495   */\n      eq\n        /* \"#utility.yul\":8450:8513   */\n      tag_251\n      jumpi\n        /* \"#utility.yul\":8509:8510   */\n      0x00\n        /* \"#utility.yul\":8506:8507   */\n      0x00\n        /* \"#utility.yul\":8499:8511   */\n      revert\n        /* \"#utility.yul\":8450:8513   */\n    tag_251:\n        /* \"#utility.yul\":8397:8519   */\n      pop\n      jump\t// out\n        /* \"#utility.yul\":8525:8664   */\n    tag_138:\n        /* \"#utility.yul\":8571:8576   */\n      0x00\n        /* \"#utility.yul\":8609:8615   */\n      dup2\n        /* \"#utility.yul\":8596:8616   */\n      calldataload\n        /* \"#utility.yul\":8587:8616   */\n      swap1\n      pop\n        /* \"#utility.yul\":8625:8658   */\n      tag_253\n        /* \"#utility.yul\":8652:8657   */\n      dup2\n        /* \"#utility.yul\":8625:8658   */\n      tag_137\n      jump\t// in\n    tag_253:\n        /* \"#utility.yul\":8525:8664   */\n      swap3\n      swap2\n      pop\n      pop\n      jump\t// out\n        /* \"#utility.yul\":8670:9144   */\n    tag_24:\n        /* \"#utility.yul\":8738:8744   */\n      0x00\n        /* \"#utility.yul\":8746:8752   */\n      0x00\n        /* \"#utility.yul\":8795:8797   */\n      0x40\n        /* \"#utility.yul\":8783:8792   */\n      dup4\n        /* \"#utility.yul\":8774:8781   */\n      dup6\n        /* \"#utility.yul\":8770:8793   */\n      sub\n        /* \"#utility.yul\":8766:8798   */\n      slt\n        /* \"#utility.yul\":8763:8882   */\n      iszero\n      tag_255\n      jumpi\n        /* \"#utility.yul\":8801:8880   */\n      tag_256\n      tag_108\n      jump\t// in\n    tag_256:\n        /* \"#utility.yul\":8763:8882   */\n    tag_255:\n        /* \"#utility.yul\":8921:8922   */\n      0x00\n        /* \"#utility.yul\":8946:8999   */\n      tag_257\n        /* \"#utility.yul\":8991:8998   */\n      dup6\n        /* \"#utility.yul\":8982:8988   */\n      dup3\n        /* \"#utility.yul\":8971:8980   */\n      dup7\n        /* \"#utility.yul\":8967:8989   */\n      add\n        /* \"#utility.yul\":8946:8999   */\n      tag_135\n      jump\t// in\n    tag_257:\n        /* \"#utility.yul\":8936:8999   */\n      swap3\n      pop\n        /* \"#utility.yul\":8892:9009   */\n      pop\n        /* \"#utility.yul\":9048:9050   */\n      0x20\n        /* \"#utility.yul\":9074:9127   */\n      tag_258\n        /* \"#utility.yul\":9119:9126   */\n      dup6\n        /* \"#utility.yul\":9110:9116   */\n      dup3\n        /* \"#utility.yul\":9099:9108   */\n      dup7\n        /* \"#utility.yul\":9095:9117   */\n      add\n        /* \"#utility.yul\":9074:9127   */\n      tag_138\n      jump\t// in\n    tag_258:\n        /* \"#utility.yul\":9064:9127   */\n      swap2\n      pop\n        /* \"#utility.yul\":9019:9137   */\n      pop\n        /* \"#utility.yul\":8670:9144   */\n      swap3\n      pop\n      swap3\n      swap1\n      pop\n      jump\t// out\n        /* \"#utility.yul\":9150:9319   */\n    tag_139:\n        /* \"#utility.yul\":9234:9245   */\n      0x00\n        /* \"#utility.yul\":9268:9274   */\n      dup3\n        /* \"#utility.yul\":9263:9266   */\n      dup3\n        /* \"#utility.yul\":9256:9275   */\n      mstore\n        /* \"#utility.yul\":9308:9312   */\n      0x20\n        /* \"#utility.yul\":9303:9306   */\n      dup3\n        /* \"#utility.yul\":9299:9313   */\n      add\n        /* \"#utility.yul\":9284:9313   */\n      swap1\n      pop\n        /* \"#utility.yul\":9150:9319   */\n      swap3\n      swap2\n      pop\n      pop\n      jump\t// out\n        /* \"#utility.yul\":9325:9702   */\n    tag_140:\n        /* \"#utility.yul\":9413:9416   */\n      0x00\n        /* \"#utility.yul\":9441:9480   */\n      tag_261\n        /* \"#utility.yul\":9474:9479   */\n      dup3\n        /* \"#utility.yul\":9441:9480   */\n      tag_116\n      jump\t// in\n    tag_261:\n        /* \"#utility.yul\":9496:9567   */\n      tag_262\n        /* \"#utility.yul\":9560:9566   */\n      dup2\n        /* \"#utility.yul\":9555:9558   */\n      dup6\n        /* \"#utility.yul\":9496:9567   */\n      tag_139\n      jump\t// in\n    tag_262:\n        /* \"#utility.yul\":9489:9567   */\n      swap4\n      pop\n        /* \"#utility.yul\":9576:9641   */\n      tag_263\n        /* \"#utility.yul\":9634:9640   */\n      dup2\n        /* \"#utility.yul\":9629:9632   */\n      dup6\n        /* \"#utility.yul\":9622:9626   */\n      0x20\n        /* \"#utility.yul\":9615:9620   */\n      dup7\n        /* \"#utility.yul\":9611:9627   */\n      add\n        /* \"#utility.yul\":9576:9641   */\n      tag_118\n      jump\t// in\n    tag_263:\n        /* \"#utility.yul\":9666:9695   */\n      tag_264\n        /* \"#utility.yul\":9688:9694   */\n      dup2\n        /* \"#utility.yul\":9666:9695   */\n      tag_119\n      jump\t// in\n    tag_264:\n        /* \"#utility.yul\":9661:9664   */\n      dup5\n        /* \"#utility.yul\":9657:9696   */\n      add\n        /* \"#utility.yul\":9650:9696   */\n      swap2\n      pop\n        /* \"#utility.yul\":9417:9702   */\n      pop\n        /* \"#utility.yul\":9325:9702   */\n      swap3\n      swap2\n      pop\n      pop\n      jump\t// out\n        /* \"#utility.yul\":9708:10419   */\n    tag_27:\n        /* \"#utility.yul\":9913:9917   */\n      0x00\n        /* \"#utility.yul\":9951:9954   */\n      0x80\n        /* \"#utility.yul\":9940:9949   */\n      dup3\n        /* \"#utility.yul\":9936:9955   */\n      add\n        /* \"#utility.yul\":9928:9955   */\n      swap1\n      pop\n        /* \"#utility.yul\":10001:10010   */\n      dup2\n        /* \"#utility.yul\":9995:9999   */\n      dup2\n        /* \"#utility.yul\":9991:10011   */\n      sub\n        /* \"#utility.yul\":9987:9988   */\n      0x00\n        /* \"#utility.yul\":9976:9985   */\n      dup4\n        /* \"#utility.yul\":9972:9989   */\n      add\n        /* \"#utility.yul\":9965:10012   */\n      mstore\n        /* \"#utility.yul\":10029:10107   */\n      tag_266\n        /* \"#utility.yul\":10102:10106   */\n      dup2\n        /* \"#utility.yul\":10093:10099   */\n      dup8\n        /* \"#utility.yul\":10029:10107   */\n      tag_140\n      jump\t// in\n    tag_266:\n        /* \"#utility.yul\":10021:10107   */\n      swap1\n      pop\n        /* \"#utility.yul\":10154:10163   */\n      dup2\n        /* \"#utility.yul\":10148:10152   */\n      dup2\n        /* \"#utility.yul\":10144:10164   */\n      sub\n        /* \"#utility.yul\":10139:10141   */\n      0x20\n        /* \"#utility.yul\":10128:10137   */\n      dup4\n        /* \"#utility.yul\":10124:10142   */\n      add\n        /* \"#utility.yul\":10117:10165   */\n      mstore\n        /* \"#utility.yul\":10182:10260   */\n      tag_267\n        /* \"#utility.yul\":10255:10259   */\n      dup2\n        /* \"#utility.yul\":10246:10252   */\n      dup7\n        /* \"#utility.yul\":10182:10260   */\n      tag_140\n      jump\t// in\n    tag_267:\n        /* \"#utility.yul\":10174:10260   */\n      swap1\n      pop\n        /* \"#utility.yul\":10270:10336   */\n      tag_268\n        /* \"#utility.yul\":10332:10334   */\n      0x40\n        /* \"#utility.yul\":10321:10330   */\n      dup4\n        /* \"#utility.yul\":10317:10335   */\n      add\n        /* \"#utility.yul\":10308:10314   */\n      dup6\n        /* \"#utility.yul\":10270:10336   */\n      tag_131\n      jump\t// in\n    tag_268:\n        /* \"#utility.yul\":10346:10412   */\n      tag_269\n        /* \"#utility.yul\":10408:10410   */\n      0x60\n        /* \"#utility.yul\":10397:10406   */\n      dup4\n        /* \"#utility.yul\":10393:10411   */\n      add\n        /* \"#utility.yul\":10384:10390   */\n      dup5\n        /* \"#utility.yul\":10346:10412   */\n      tag_131\n      jump\t// in\n    tag_269:\n        /* \"#utility.yul\":9708:10419   */\n      swap6\n      swap5\n      pop\n      pop\n      pop\n      pop\n      pop\n      jump\t// out\n        /* \"#utility.yul\":10440:11006   */\n    tag_141:\n        /* \"#utility.yul\":10511:10519   */\n      0x00\n        /* \"#utility.yul\":10521:10527   */\n      0x00\n        /* \"#utility.yul\":10571:10574   */\n      dup4\n        /* \"#utility.yul\":10564:10568   */\n      0x1f\n        /* \"#utility.yul\":10556:10562   */\n      dup5\n        /* \"#utility.yul\":10552:10569   */\n      add\n        /* \"#utility.yul\":10548:10575   */\n      slt\n        /* \"#utility.yul\":10538:10660   */\n      tag_271\n      jumpi\n        /* \"#utility.yul\":10579:10658   */\n      tag_272\n      tag_127\n      jump\t// in\n    tag_272:\n        /* \"#utility.yul\":10538:10660   */\n    tag_271:\n        /* \"#utility.yul\":10692:10698   */\n      dup3\n        /* \"#utility.yul\":10679:10699   */\n      calldataload\n        /* \"#utility.yul\":10669:10699   */\n      swap1\n      pop\n        /* \"#utility.yul\":10722:10740   */\n      0xffffffffffffffff\n        /* \"#utility.yul\":10714:10720   */\n      dup2\n        /* \"#utility.yul\":10711:10741   */\n      gt\n        /* \"#utility.yul\":10708:10825   */\n      iszero\n      tag_273\n      jumpi\n        /* \"#utility.yul\":10744:10823   */\n      tag_274\n      tag_128\n      jump\t// in\n    tag_274:\n        /* \"#utility.yul\":10708:10825   */\n    tag_273:\n        /* \"#utility.yul\":10858:10862   */\n      0x20\n        /* \"#utility.yul\":10850:10856   */\n      dup4\n        /* \"#utility.yul\":10846:10863   */\n      add\n        /* \"#utility.yul\":10834:10863   */\n      swap2\n      pop\n        /* \"#utility.yul\":10912:10915   */\n      dup4\n        /* \"#utility.yul\":10904:10908   */\n      0x20\n        /* \"#utility.yul\":10896:10902   */\n      dup3\n        /* \"#utility.yul\":10892:10909   */\n      mul\n        /* \"#utility.yul\":10882:10890   */\n      dup4\n        /* \"#utility.yul\":10878:10910   */\n      add\n        /* \"#utility.yul\":10875:10916   */\n      gt\n        /* \"#utility.yul\":10872:11000   */\n      iszero\n      tag_275\n      jumpi\n        /* \"#utility.yul\":10919:10998   */\n      tag_276\n      tag_129\n      jump\t// in\n    tag_276:\n        /* \"#utility.yul\":10872:11000   */\n    tag_275:\n        /* \"#utility.yul\":10440:11006   */\n      swap3\n      pop\n      swap3\n      swap1\n      pop\n      jump\t// out\n        /* \"#utility.yul\":11012:11567   */\n    tag_30:\n        /* \"#utility.yul\":11096:11102   */\n      0x00\n        /* \"#utility.yul\":11104:11110   */\n      0x00\n        /* \"#utility.yul\":11153:11155   */\n      0x20\n        /* \"#utility.yul\":11141:11150   */\n      dup4\n        /* \"#utility.yul\":11132:11139   */\n      dup6\n        /* \"#utility.yul\":11128:11151   */\n      sub\n        /* \"#utility.yul\":11124:11156   */\n      slt\n        /* \"#utility.yul\":11121:11240   */\n      iszero\n      tag_278\n      jumpi\n        /* \"#utility.yul\":11159:11238   */\n      tag_279\n      tag_108\n      jump\t// in\n    tag_279:\n        /* \"#utility.yul\":11121:11240   */\n    tag_278:\n        /* \"#utility.yul\":11307:11308   */\n      0x00\n        /* \"#utility.yul\":11296:11305   */\n      dup4\n        /* \"#utility.yul\":11292:11309   */\n      add\n        /* \"#utility.yul\":11279:11310   */\n      calldataload\n        /* \"#utility.yul\":11337:11355   */\n      0xffffffffffffffff\n        /* \"#utility.yul\":11329:11335   */\n      dup2\n        /* \"#utility.yul\":11326:11356   */\n      gt\n        /* \"#utility.yul\":11323:11440   */\n      iszero\n      tag_280\n      jumpi\n        /* \"#utility.yul\":11359:11438   */\n      tag_281\n      tag_109\n      jump\t// in\n    tag_281:\n        /* \"#utility.yul\":11323:11440   */\n    tag_280:\n        /* \"#utility.yul\":11472:11550   */\n      tag_282\n        /* \"#utility.yul\":11542:11549   */\n      dup6\n        /* \"#utility.yul\":11533:11539   */\n      dup3\n        /* \"#utility.yul\":11522:11531   */\n      dup7\n        /* \"#utility.yul\":11518:11540   */\n      add\n        /* \"#utility.yul\":11472:11550   */\n      tag_141\n      jump\t// in\n    tag_282:\n        /* \"#utility.yul\":11454:11550   */\n      swap3\n      pop\n      swap3\n      pop\n        /* \"#utility.yul\":11250:11560   */\n      pop\n        /* \"#utility.yul\":11012:11567   */\n      swap3\n      pop\n      swap3\n      swap1\n      pop\n      jump\t// out\n        /* \"#utility.yul\":11573:11753   */\n    tag_35:\n        /* \"#utility.yul\":11621:11698   */\n      0x4e487b7100000000000000000000000000000000000000000000000000000000\n        /* \"#utility.yul\":11618:11619   */\n      0x00\n        /* \"#utility.yul\":11611:11699   */\n      mstore\n        /* \"#utility.yul\":11718:11722   */\n      0x32\n        /* \"#utility.yul\":11715:11716   */\n      0x04\n        /* \"#utility.yul\":11708:11723   */\n      mstore\n        /* \"#utility.yul\":11742:11746   */\n      0x24\n        /* \"#utility.yul\":11739:11740   */\n      0x00\n        /* \"#utility.yul\":11732:11747   */\n      revert\n        /* \"#utility.yul\":11759:11925   */\n    tag_142:\n        /* \"#utility.yul\":11899:11917   */\n      0x416c72656164792046696e697368656400000000000000000000000000000000\n        /* \"#utility.yul\":11895:11896   */\n      0x00\n        /* \"#utility.yul\":11887:11893   */\n      dup3\n        /* \"#utility.yul\":11883:11897   */\n      add\n        /* \"#utility.yul\":11876:11918   */\n      mstore\n        /* \"#utility.yul\":11759:11925   */\n      pop\n      jump\t// out\n        /* \"#utility.yul\":11931:12297   */\n    tag_143:\n        /* \"#utility.yul\":12073:12076   */\n      0x00\n        /* \"#utility.yul\":12094:12161   */\n      tag_286\n        /* \"#utility.yul\":12158:12160   */\n      0x10\n        /* \"#utility.yul\":12153:12156   */\n      dup4\n        /* \"#utility.yul\":12094:12161   */\n      tag_139\n      jump\t// in\n    tag_286:\n        /* \"#utility.yul\":12087:12161   */\n      swap2\n      pop\n        /* \"#utility.yul\":12170:12263   */\n      tag_287\n        /* \"#utility.yul\":12259:12262   */\n      dup3\n        /* \"#utility.yul\":12170:12263   */\n      tag_142\n      jump\t// in\n    tag_287:\n        /* \"#utility.yul\":12288:12290   */\n      0x20\n        /* \"#utility.yul\":12283:12286   */\n      dup3\n        /* \"#utility.yul\":12279:12291   */\n      add\n        /* \"#utility.yul\":12272:12291   */\n      swap1\n      pop\n        /* \"#utility.yul\":11931:12297   */\n      swap2\n      swap1\n      pop\n      jump\t// out\n        /* \"#utility.yul\":12303:12722   */\n    tag_39:\n        /* \"#utility.yul\":12469:12473   */\n      0x00\n        /* \"#utility.yul\":12507:12509   */\n      0x20\n        /* \"#utility.yul\":12496:12505   */\n      dup3\n        /* \"#utility.yul\":12492:12510   */\n      add\n        /* \"#utility.yul\":12484:12510   */\n      swap1\n      pop\n        /* \"#utility.yul\":12556:12565   */\n      dup2\n        /* \"#utility.yul\":12550:12554   */\n      dup2\n        /* \"#utility.yul\":12546:12566   */\n      sub\n        /* \"#utility.yul\":12542:12543   */\n      0x00\n        /* \"#utility.yul\":12531:12540   */\n      dup4\n        /* \"#utility.yul\":12527:12544   */\n      add\n        /* \"#utility.yul\":12520:12567   */\n      mstore\n        /* \"#utility.yul\":12584:12715   */\n      tag_289\n        /* \"#utility.yul\":12710:12714   */\n      dup2\n        /* \"#utility.yul\":12584:12715   */\n      tag_143\n      jump\t// in\n    tag_289:\n        /* \"#utility.yul\":12576:12715   */\n      swap1\n      pop\n        /* \"#utility.yul\":12303:12722   */\n      swap2\n      swap1\n      pop\n      jump\t// out\n        /* \"#utility.yul\":12728:12893   */\n    tag_144:\n        /* \"#utility.yul\":12868:12885   */\n      0x416c72656164792044656c657465640000000000000000000000000000000000\n        /* \"#utility.yul\":12864:12865   */\n      0x00\n        /* \"#utility.yul\":12856:12862   */\n      dup3\n        /* \"#utility.yul\":12852:12866   */\n      add\n        /* \"#utility.yul\":12845:12886   */\n      mstore\n        /* \"#utility.yul\":12728:12893   */\n      pop\n      jump\t// out\n        /* \"#utility.yul\":12899:13265   */\n    tag_145:\n        /* \"#utility.yul\":13041:13044   */\n      0x00\n        /* \"#utility.yul\":13062:13129   */\n      tag_292\n        /* \"#utility.yul\":13126:13128   */\n      0x0f\n        /* \"#utility.yul\":13121:13124   */\n      dup4\n        /* \"#utility.yul\":13062:13129   */\n      tag_139\n      jump\t// in\n    tag_292:\n        /* \"#utility.yul\":13055:13129   */\n      swap2\n      pop\n        /* \"#utility.yul\":13138:13231   */\n      tag_293\n        /* \"#utility.yul\":13227:13230   */\n      dup3\n        /* \"#utility.yul\":13138:13231   */\n      tag_144\n      jump\t// in\n    tag_293:\n        /* \"#utility.yul\":13256:13258   */\n      0x20\n        /* \"#utility.yul\":13251:13254   */\n      dup3\n        /* \"#utility.yul\":13247:13259   */\n      add\n        /* \"#utility.yul\":13240:13259   */\n      swap1\n      pop\n        /* \"#utility.yul\":12899:13265   */\n      swap2\n      swap1\n      pop\n      jump\t// out\n        /* \"#utility.yul\":13271:13690   */\n    tag_45:\n        /* \"#utility.yul\":13437:13441   */\n      0x00\n        /* \"#utility.yul\":13475:13477   */\n      0x20\n        /* \"#utility.yul\":13464:13473   */\n      dup3\n        /* \"#utility.yul\":13460:13478   */\n      add\n        /* \"#utility.yul\":13452:13478   */\n      swap1\n      pop\n        /* \"#utility.yul\":13524:13533   */\n      dup2\n        /* \"#utility.yul\":13518:13522   */\n      dup2\n        /* \"#utility.yul\":13514:13534   */\n      sub\n        /* \"#utility.yul\":13510:13511   */\n      0x00\n        /* \"#utility.yul\":13499:13508   */\n      dup4\n        /* \"#utility.yul\":13495:13512   */\n      add\n        /* \"#utility.yul\":13488:13535   */\n      mstore\n        /* \"#utility.yul\":13552:13683   */\n      tag_295\n        /* \"#utility.yul\":13678:13682   */\n      dup2\n        /* \"#utility.yul\":13552:13683   */\n      tag_145\n      jump\t// in\n    tag_295:\n        /* \"#utility.yul\":13544:13683   */\n      swap1\n      pop\n        /* \"#utility.yul\":13271:13690   */\n      swap2\n      swap1\n      pop\n      jump\t// out\n        /* \"#utility.yul\":13696:13876   */\n    tag_146:\n        /* \"#utility.yul\":13744:13821   */\n      0x4e487b7100000000000000000000000000000000000000000000000000000000\n        /* \"#utility.yul\":13741:13742   */\n      0x00\n        /* \"#utility.yul\":13734:13822   */\n      mstore\n        /* \"#utility.yul\":13841:13845   */\n      0x22\n        /* \"#utility.yul\":13838:13839   */\n      0x04\n        /* \"#utility.yul\":13831:13846   */\n      mstore\n        /* \"#utility.yul\":13865:13869   */\n      0x24\n        /* \"#utility.yul\":13862:13863   */\n      0x00\n        /* \"#utility.yul\":13855:13870   */\n      revert\n        /* \"#utility.yul\":13882:14202   */\n    tag_56:\n        /* \"#utility.yul\":13926:13932   */\n      0x00\n        /* \"#utility.yul\":13963:13964   */\n      0x02\n        /* \"#utility.yul\":13957:13961   */\n      dup3\n        /* \"#utility.yul\":13953:13965   */\n      div\n        /* \"#utility.yul\":13943:13965   */\n      swap1\n      pop\n        /* \"#utility.yul\":14010:14011   */\n      0x01\n        /* \"#utility.yul\":14004:14008   */\n      dup3\n        /* \"#utility.yul\":14000:14012   */\n      and\n        /* \"#utility.yul\":14031:14049   */\n      dup1\n        /* \"#utility.yul\":14021:14102   */\n      tag_298\n      jumpi\n        /* \"#utility.yul\":14087:14091   */\n      0x7f\n        /* \"#utility.yul\":14079:14085   */\n      dup3\n        /* \"#utility.yul\":14075:14092   */\n      and\n        /* \"#utility.yul\":14065:14092   */\n      swap2\n      pop\n        /* \"#utility.yul\":14021:14102   */\n    tag_298:\n        /* \"#utility.yul\":14149:14151   */\n      0x20\n        /* \"#utility.yul\":14141:14147   */\n      dup3\n        /* \"#utility.yul\":14138:14152   */\n      lt\n        /* \"#utility.yul\":14118:14136   */\n      dup2\n        /* \"#utility.yul\":14115:14153   */\n      sub\n        /* \"#utility.yul\":14112:14196   */\n      tag_299\n      jumpi\n        /* \"#utility.yul\":14168:14186   */\n      tag_300\n      tag_146\n      jump\t// in\n    tag_300:\n        /* \"#utility.yul\":14112:14196   */\n    tag_299:\n        /* \"#utility.yul\":13933:14202   */\n      pop\n        /* \"#utility.yul\":13882:14202   */\n      swap2\n      swap1\n      pop\n      jump\t// out\n        /* \"#utility.yul\":14208:14349   */\n    tag_147:\n        /* \"#utility.yul\":14257:14261   */\n      0x00\n        /* \"#utility.yul\":14280:14283   */\n      dup2\n        /* \"#utility.yul\":14272:14283   */\n      swap1\n      pop\n        /* \"#utility.yul\":14303:14306   */\n      dup2\n        /* \"#utility.yul\":14300:14301   */\n      0x00\n        /* \"#utility.yul\":14293:14307   */\n      mstore\n        /* \"#utility.yul\":14337:14341   */\n      0x20\n        /* \"#utility.yul\":14334:14335   */\n      0x00\n        /* \"#utility.yul\":14324:14342   */\n      keccak256\n        /* \"#utility.yul\":14316:14342   */\n      swap1\n      pop\n        /* \"#utility.yul\":14208:14349   */\n      swap2\n      swap1\n      pop\n      jump\t// out\n        /* \"#utility.yul\":14379:15210   */\n    tag_148:\n        /* \"#utility.yul\":14464:14467   */\n      0x00\n        /* \"#utility.yul\":14501:14506   */\n      dup2\n        /* \"#utility.yul\":14495:14507   */\n      sload\n        /* \"#utility.yul\":14530:14566   */\n      tag_303\n        /* \"#utility.yul\":14556:14565   */\n      dup2\n        /* \"#utility.yul\":14530:14566   */\n      tag_56\n      jump\t// in\n    tag_303:\n        /* \"#utility.yul\":14582:14653   */\n      tag_304\n        /* \"#utility.yul\":14646:14652   */\n      dup2\n        /* \"#utility.yul\":14641:14644   */\n      dup7\n        /* \"#utility.yul\":14582:14653   */\n      tag_139\n      jump\t// in\n    tag_304:\n        /* \"#utility.yul\":14575:14653   */\n      swap5\n      pop\n        /* \"#utility.yul\":14684:14685   */\n      0x01\n        /* \"#utility.yul\":14673:14682   */\n      dup3\n        /* \"#utility.yul\":14669:14686   */\n      and\n        /* \"#utility.yul\":14700:14701   */\n      0x00\n        /* \"#utility.yul\":14695:14859   */\n      dup2\n      eq\n      tag_306\n      jumpi\n        /* \"#utility.yul\":14873:14874   */\n      0x01\n        /* \"#utility.yul\":14868:15204   */\n      dup2\n      eq\n      tag_307\n      jumpi\n        /* \"#utility.yul\":14662:15204   */\n      jump(tag_305)\n        /* \"#utility.yul\":14695:14859   */\n    tag_306:\n        /* \"#utility.yul\":14779:14783   */\n      0xff\n        /* \"#utility.yul\":14775:14784   */\n      not\n        /* \"#utility.yul\":14764:14773   */\n      dup4\n        /* \"#utility.yul\":14760:14785   */\n      and\n        /* \"#utility.yul\":14755:14758   */\n      dup7\n        /* \"#utility.yul\":14748:14786   */\n      mstore\n        /* \"#utility.yul\":14839:14845   */\n      dup2\n        /* \"#utility.yul\":14832:14846   */\n      iszero\n        /* \"#utility.yul\":14825:14847   */\n      iszero\n        /* \"#utility.yul\":14819:14823   */\n      0x20\n        /* \"#utility.yul\":14815:14848   */\n      mul\n        /* \"#utility.yul\":14810:14813   */\n      dup7\n        /* \"#utility.yul\":14806:14849   */\n      add\n        /* \"#utility.yul\":14799:14849   */\n      swap4\n      pop\n        /* \"#utility.yul\":14695:14859   */\n      jump(tag_305)\n        /* \"#utility.yul\":14868:15204   */\n    tag_307:\n        /* \"#utility.yul\":14935:14973   */\n      tag_308\n        /* \"#utility.yul\":14967:14972   */\n      dup6\n        /* \"#utility.yul\":14935:14973   */\n      tag_147\n      jump\t// in\n    tag_308:\n        /* \"#utility.yul\":14995:14996   */\n      0x00\n        /* \"#utility.yul\":15009:15163   */\n    tag_309:\n        /* \"#utility.yul\":15023:15029   */\n      dup4\n        /* \"#utility.yul\":15020:15021   */\n      dup2\n        /* \"#utility.yul\":15017:15030   */\n      lt\n        /* \"#utility.yul\":15009:15163   */\n      iszero\n      tag_311\n      jumpi\n        /* \"#utility.yul\":15097:15104   */\n      dup2\n        /* \"#utility.yul\":15091:15105   */\n      sload\n        /* \"#utility.yul\":15087:15088   */\n      dup2\n        /* \"#utility.yul\":15082:15085   */\n      dup10\n        /* \"#utility.yul\":15078:15089   */\n      add\n        /* \"#utility.yul\":15071:15106   */\n      mstore\n        /* \"#utility.yul\":15147:15148   */\n      0x01\n        /* \"#utility.yul\":15138:15145   */\n      dup3\n        /* \"#utility.yul\":15134:15149   */\n      add\n        /* \"#utility.yul\":15123:15149   */\n      swap2\n      pop\n        /* \"#utility.yul\":15045:15049   */\n      0x20\n        /* \"#utility.yul\":15042:15043   */\n      dup2\n        /* \"#utility.yul\":15038:15050   */\n      add\n        /* \"#utility.yul\":15033:15050   */\n      swap1\n      pop\n        /* \"#utility.yul\":15009:15163   */\n      jump(tag_309)\n    tag_311:\n        /* \"#utility.yul\":15192:15193   */\n      dup1\n        /* \"#utility.yul\":15187:15190   */\n      dup9\n        /* \"#utility.yul\":15183:15194   */\n      add\n        /* \"#utility.yul\":15176:15194   */\n      swap6\n      pop\n        /* \"#utility.yul\":14875:15204   */\n      pop\n      pop\n        /* \"#utility.yul\":14662:15204   */\n    tag_305:\n      pop\n        /* \"#utility.yul\":14468:15210   */\n      pop\n      pop\n        /* \"#utility.yul\":14379:15210   */\n      swap3\n      swap2\n      pop\n      pop\n      jump\t// out\n        /* \"#utility.yul\":15216:15621   */\n    tag_50:\n        /* \"#utility.yul\":15348:15352   */\n      0x00\n        /* \"#utility.yul\":15386:15388   */\n      0x40\n        /* \"#utility.yul\":15375:15384   */\n      dup3\n        /* \"#utility.yul\":15371:15389   */\n      add\n        /* \"#utility.yul\":15363:15389   */\n      swap1\n      pop\n        /* \"#utility.yul\":15435:15444   */\n      dup2\n        /* \"#utility.yul\":15429:15433   */\n      dup2\n        /* \"#utility.yul\":15425:15445   */\n      sub\n        /* \"#utility.yul\":15421:15422   */\n      0x00\n        /* \"#utility.yul\":15410:15419   */\n      dup4\n        /* \"#utility.yul\":15406:15423   */\n      add\n        /* \"#utility.yul\":15399:15446   */\n      mstore\n        /* \"#utility.yul\":15463:15538   */\n      tag_313\n        /* \"#utility.yul\":15533:15537   */\n      dup2\n        /* \"#utility.yul\":15524:15530   */\n      dup6\n        /* \"#utility.yul\":15463:15538   */\n      tag_148\n      jump\t// in\n    tag_313:\n        /* \"#utility.yul\":15455:15538   */\n      swap1\n      pop\n        /* \"#utility.yul\":15548:15614   */\n      tag_314\n        /* \"#utility.yul\":15610:15612   */\n      0x20\n        /* \"#utility.yul\":15599:15608   */\n      dup4\n        /* \"#utility.yul\":15595:15613   */\n      add\n        /* \"#utility.yul\":15586:15592   */\n      dup5\n        /* \"#utility.yul\":15548:15614   */\n      tag_131\n      jump\t// in\n    tag_314:\n        /* \"#utility.yul\":15216:15621   */\n      swap4\n      swap3\n      pop\n      pop\n      pop\n      jump\t// out\n        /* \"#utility.yul\":15627:15807   */\n    tag_149:\n        /* \"#utility.yul\":15675:15752   */\n      0x4e487b7100000000000000000000000000000000000000000000000000000000\n        /* \"#utility.yul\":15672:15673   */\n      0x00\n        /* \"#utility.yul\":15665:15753   */\n      mstore\n        /* \"#utility.yul\":15772:15776   */\n      0x41\n        /* \"#utility.yul\":15769:15770   */\n      0x04\n        /* \"#utility.yul\":15762:15777   */\n      mstore\n        /* \"#utility.yul\":15796:15800   */\n      0x24\n        /* \"#utility.yul\":15793:15794   */\n      0x00\n        /* \"#utility.yul\":15786:15801   */\n      revert\n        /* \"#utility.yul\":15813:15906   */\n    tag_150:\n        /* \"#utility.yul\":15850:15856   */\n      0x00\n        /* \"#utility.yul\":15897:15899   */\n      0x20\n        /* \"#utility.yul\":15892:15894   */\n      0x1f\n        /* \"#utility.yul\":15885:15890   */\n      dup4\n        /* \"#utility.yul\":15881:15895   */\n      add\n        /* \"#utility.yul\":15877:15900   */\n      div\n        /* \"#utility.yul\":15867:15900   */\n      swap1\n      pop\n        /* \"#utility.yul\":15813:15906   */\n      swap2\n      swap1\n      pop\n      jump\t// out\n        /* \"#utility.yul\":15912:16019   */\n    tag_151:\n        /* \"#utility.yul\":15956:15964   */\n      0x00\n        /* \"#utility.yul\":16006:16011   */\n      dup3\n        /* \"#utility.yul\":16000:16004   */\n      dup3\n        /* \"#utility.yul\":15996:16012   */\n      shl\n        /* \"#utility.yul\":15975:16012   */\n      swap1\n      pop\n        /* \"#utility.yul\":15912:16019   */\n      swap3\n      swap2\n      pop\n      pop\n      jump\t// out\n        /* \"#utility.yul\":16025:16418   */\n    tag_152:\n        /* \"#utility.yul\":16094:16100   */\n      0x00\n        /* \"#utility.yul\":16144:16145   */\n      0x08\n        /* \"#utility.yul\":16132:16142   */\n      dup4\n        /* \"#utility.yul\":16128:16146   */\n      mul\n        /* \"#utility.yul\":16167:16264   */\n      tag_319\n        /* \"#utility.yul\":16197:16263   */\n      0xffffffffffffffffffffffffffffffffffffffffffffffffffffffffffffffff\n        /* \"#utility.yul\":16186:16195   */\n      dup3\n        /* \"#utility.yul\":16167:16264   */\n      tag_151\n      jump\t// in\n    tag_319:\n        /* \"#utility.yul\":16285:16324   */\n      tag_320\n        /* \"#utility.yul\":16315:16323   */\n      dup7\n        /* \"#utility.yul\":16304:16313   */\n      dup4\n        /* \"#utility.yul\":16285:16324   */\n      tag_151\n      jump\t// in\n    tag_320:\n        /* \"#utility.yul\":16273:16324   */\n      swap6\n      pop\n        /* \"#utility.yul\":16357:16361   */\n      dup1\n        /* \"#utility.yul\":16353:16362   */\n      not\n        /* \"#utility.yul\":16346:16351   */\n      dup5\n        /* \"#utility.yul\":16342:16363   */\n      and\n        /* \"#utility.yul\":16333:16363   */\n      swap4\n      pop\n        /* \"#utility.yul\":16406:16410   */\n      dup1\n        /* \"#utility.yul\":16396:16404   */\n      dup7\n        /* \"#utility.yul\":16392:16411   */\n      and\n        /* \"#utility.yul\":16385:16390   */\n      dup5\n        /* \"#utility.yul\":16382:16412   */\n      or\n        /* \"#utility.yul\":16372:16412   */\n      swap3\n      pop\n        /* \"#utility.yul\":16101:16418   */\n      pop\n      pop\n        /* \"#utility.yul\":16025:16418   */\n      swap4\n      swap3\n      pop\n      pop\n      pop\n      jump\t// out\n        /* \"#utility.yul\":16424:16484   */\n    tag_153:\n        /* \"#utility.yul\":16452:16455   */\n      0x00\n        /* \"#utility.yul\":16473:16478   */\n      dup2\n        /* \"#utility.yul\":16466:16478   */\n      swap1\n      pop\n        /* \"#utility.yul\":16424:16484   */\n      swap2\n      swap1\n      pop\n      jump\t// out\n        /* \"#utility.yul\":16490:16632   */\n    tag_154:\n        /* \"#utility.yul\":16540:16549   */\n      0x00\n        /* \"#utility.yul\":16573:16626   */\n      tag_323\n        /* \"#utility.yul\":16591:16625   */\n      tag_324\n        /* \"#utility.yul\":16600:16624   */\n      tag_325\n        /* \"#utility.yul\":16618:16623   */\n      dup5\n        /* \"#utility.yul\":16600:16624   */\n      tag_136\n      jump\t// in\n    tag_325:\n        /* \"#utility.yul\":16591:16625   */\n      tag_153\n      jump\t// in\n    tag_324:\n        /* \"#utility.yul\":16573:16626   */\n      tag_136\n      jump\t// in\n    tag_323:\n        /* \"#utility.yul\":16560:16626   */\n      swap1\n      pop\n        /* \"#utility.yul\":16490:16632   */\n      swap2\n      swap1\n      pop\n      jump\t// out\n        /* \"#utility.yul\":16638:16713   */\n    tag_155:\n        /* \"#utility.yul\":16681:16684   */\n      0x00\n        /* \"#utility.yul\":16702:16707   */\n      dup2\n        /* \"#utility.yul\":16695:16707   */\n      swap1\n      pop\n        /* \"#utility.yul\":16638:16713   */\n      swap2\n      swap1\n      pop\n      jump\t// out\n        /* \"#utility.yul\":16719:16988   */\n    tag_156:\n        /* \"#utility.yul\":16829:16868   */\n      tag_328\n        /* \"#utility.yul\":16860:16867   */\n      dup4\n        /* \"#utility.yul\":16829:16868   */\n      tag_154\n      jump\t// in\n    tag_328:\n        /* \"#utility.yul\":16890:16981   */\n      tag_329\n        /* \"#utility.yul\":16939:16980   */\n      tag_330\n        /* \"#utility.yul\":16963:16979   */\n      dup3\n        /* \"#utility.yul\":16939:16980   */\n      tag_155\n      jump\t// in\n    tag_330:\n        /* \"#utility.yul\":16931:16937   */\n      dup5\n        /* \"#utility.yul\":16924:16928   */\n      dup5\n        /* \"#utility.yul\":16918:16929   */\n      sload\n        /* \"#utility.yul\":16890:16981   */\n      tag_152\n      jump\t// in\n    tag_329:\n        /* \"#utility.yul\":16884:16888   */\n      dup3\n        /* \"#utility.yul\":16877:16982   */\n      sstore\n        /* \"#utility.yul\":16795:16988   */\n      pop\n        /* \"#utility.yul\":16719:16988   */\n      pop\n      pop\n      pop\n      jump\t// out\n        /* \"#utility.yul\":16994:17067   */\n    tag_157:\n        /* \"#utility.yul\":17039:17042   */\n      0x00\n        /* \"#utility.yul\":17060:17061   */\n      0x00\n        /* \"#utility.yul\":17053:17061   */\n      swap1\n      pop\n        /* \"#utility.yul\":16994:17067   */\n      swap1\n      jump\t// out\n        /* \"#utility.yul\":17073:17262   */\n    tag_158:\n        /* \"#utility.yul\":17150:17182   */\n      tag_333\n      tag_157\n      jump\t// in\n    tag_333:\n        /* \"#utility.yul\":17191:17256   */\n      tag_334\n        /* \"#utility.yul\":17249:17255   */\n      dup2\n        /* \"#utility.yul\":17241:17247   */\n      dup5\n        /* \"#utility.yul\":17235:17239   */\n      dup5\n        /* \"#utility.yul\":17191:17256   */\n      tag_156\n      jump\t// in\n    tag_334:\n        /* \"#utility.yul\":17126:17262   */\n      pop\n        /* \"#utility.yul\":17073:17262   */\n      pop\n      pop\n      jump\t// out\n        /* \"#utility.yul\":17268:17454   */\n    tag_159:\n        /* \"#utility.yul\":17328:17448   */\n    tag_336:\n        /* \"#utility.yul\":17345:17348   */\n      dup2\n        /* \"#utility.yul\":17338:17343   */\n      dup2\n        /* \"#utility.yul\":17335:17349   */\n      lt\n        /* \"#utility.yul\":17328:17448   */\n      iszero\n      tag_338\n      jumpi\n        /* \"#utility.yul\":17399:17438   */\n      tag_339\n        /* \"#utility.yul\":17436:17437   */\n      0x00\n        /* \"#utility.yul\":17429:17434   */\n      dup3\n        /* \"#utility.yul\":17399:17438   */\n      tag_158\n      jump\t// in\n    tag_339:\n        /* \"#utility.yul\":17372:17373   */\n      0x01\n        /* \"#utility.yul\":17365:17370   */\n      dup2\n        /* \"#utility.yul\":17361:17374   */\n      add\n        /* \"#utility.yul\":17352:17374   */\n      swap1\n      pop\n        /* \"#utility.yul\":17328:17448   */\n      jump(tag_336)\n    tag_338:\n        /* \"#utility.yul\":17268:17454   */\n      pop\n      pop\n      jump\t// out\n        /* \"#utility.yul\":17460:18003   */\n    tag_160:\n        /* \"#utility.yul\":17561:17563   */\n      0x1f\n        /* \"#utility.yul\":17556:17559   */\n      dup3\n        /* \"#utility.yul\":17553:17564   */\n      gt\n        /* \"#utility.yul\":17550:17996   */\n      iszero\n      tag_341\n      jumpi\n        /* \"#utility.yul\":17595:17633   */\n      tag_342\n        /* \"#utility.yul\":17627:17632   */\n      dup2\n        /* \"#utility.yul\":17595:17633   */\n      tag_147\n      jump\t// in\n    tag_342:\n        /* \"#utility.yul\":17679:17708   */\n      tag_343\n        /* \"#utility.yul\":17697:17707   */\n      dup5\n        /* \"#utility.yul\":17679:17708   */\n      tag_150\n      jump\t// in\n    tag_343:\n        /* \"#utility.yul\":17669:17677   */\n      dup2\n        /* \"#utility.yul\":17665:17709   */\n      add\n        /* \"#utility.yul\":17862:17864   */\n      0x20\n        /* \"#utility.yul\":17850:17860   */\n      dup6\n        /* \"#utility.yul\":17847:17865   */\n      lt\n        /* \"#utility.yul\":17844:17893   */\n      iszero\n      tag_344\n      jumpi\n        /* \"#utility.yul\":17883:17891   */\n      dup2\n        /* \"#utility.yul\":17868:17891   */\n      swap1\n      pop\n        /* \"#utility.yul\":17844:17893   */\n    tag_344:\n        /* \"#utility.yul\":17906:17986   */\n      tag_345\n        /* \"#utility.yul\":17962:17984   */\n      tag_346\n        /* \"#utility.yul\":17980:17983   */\n      dup6\n        /* \"#utility.yul\":17962:17984   */\n      tag_150\n      jump\t// in\n    tag_346:\n        /* \"#utility.yul\":17952:17960   */\n      dup4\n        /* \"#utility.yul\":17948:17985   */\n      add\n        /* \"#utility.yul\":17935:17946   */\n      dup3\n        /* \"#utility.yul\":17906:17986   */\n      tag_159\n      jump\t// in\n    tag_345:\n        /* \"#utility.yul\":17565:17996   */\n      pop\n      pop\n        /* \"#utility.yul\":17550:17996   */\n    tag_341:\n        /* \"#utility.yul\":17460:18003   */\n      pop\n      pop\n      pop\n      jump\t// out\n        /* \"#utility.yul\":18009:18126   */\n    tag_161:\n        /* \"#utility.yul\":18063:18071   */\n      0x00\n        /* \"#utility.yul\":18113:18118   */\n      dup3\n        /* \"#utility.yul\":18107:18111   */\n      dup3\n        /* \"#utility.yul\":18103:18119   */\n      shr\n        /* \"#utility.yul\":18082:18119   */\n      swap1\n      pop\n        /* \"#utility.yul\":18009:18126   */\n      swap3\n      swap2\n      pop\n      pop\n      jump\t// out\n        /* \"#utility.yul\":18132:18301   */\n    tag_162:\n        /* \"#utility.yul\":18176:18182   */\n      0x00\n        /* \"#utility.yul\":18209:18260   */\n      tag_349\n        /* \"#utility.yul\":18257:18258   */\n      0x00\n        /* \"#utility.yul\":18253:18259   */\n      not\n        /* \"#utility.yul\":18245:18250   */\n      dup5\n        /* \"#utility.yul\":18242:18243   */\n      0x08\n        /* \"#utility.yul\":18238:18251   */\n      mul\n        /* \"#utility.yul\":18209:18260   */\n      tag_161\n      jump\t// in\n    tag_349:\n        /* \"#utility.yul\":18205:18261   */\n      not\n        /* \"#utility.yul\":18290:18294   */\n      dup1\n        /* \"#utility.yul\":18284:18288   */\n      dup4\n        /* \"#utility.yul\":18280:18295   */\n      and\n        /* \"#utility.yul\":18270:18295   */\n      swap2\n      pop\n        /* \"#utility.yul\":18183:18301   */\n      pop\n        /* \"#utility.yul\":18132:18301   */\n      swap3\n      swap2\n      pop\n      pop\n      jump\t// out\n        /* \"#utility.yul\":18306:18601   */\n    tag_163:\n        /* \"#utility.yul\":18382:18386   */\n      0x00\n        /* \"#utility.yul\":18528:18557   */\n      tag_351\n        /* \"#utility.yul\":18553:18556   */\n      dup4\n        /* \"#utility.yul\":18547:18551   */\n      dup4\n        /* \"#utility.yul\":18528:18557   */\n      tag_162\n      jump\t// in\n    tag_351:\n        /* \"#utility.yul\":18520:18557   */\n      swap2\n      pop\n        /* \"#utility.yul\":18590:18593   */\n      dup3\n        /* \"#utility.yul\":18587:18588   */\n      0x02\n        /* \"#utility.yul\":18583:18594   */\n      mul\n        /* \"#utility.yul\":18577:18581   */\n      dup3\n        /* \"#utility.yul\":18574:18595   */\n      or\n        /* \"#utility.yul\":18566:18595   */\n      swap1\n      pop\n        /* \"#utility.yul\":18306:18601   */\n      swap3\n      swap2\n      pop\n      pop\n      jump\t// out\n        /* \"#utility.yul\":18606:20001   */\n    tag_69:\n        /* \"#utility.yul\":18723:18760   */\n      tag_353\n        /* \"#utility.yul\":18756:18759   */\n      dup3\n        /* \"#utility.yul\":18723:18760   */\n      tag_116\n      jump\t// in\n    tag_353:\n        /* \"#utility.yul\":18825:18843   */\n      0xffffffffffffffff\n        /* \"#utility.yul\":18817:18823   */\n      dup2\n        /* \"#utility.yul\":18814:18844   */\n      gt\n        /* \"#utility.yul\":18811:18867   */\n      iszero\n      tag_354\n      jumpi\n        /* \"#utility.yul\":18847:18865   */\n      tag_355\n      tag_149\n      jump\t// in\n    tag_355:\n        /* \"#utility.yul\":18811:18867   */\n    tag_354:\n        /* \"#utility.yul\":18891:18929   */\n      tag_356\n        /* \"#utility.yul\":18923:18927   */\n      dup3\n        /* \"#utility.yul\":18917:18928   */\n      sload\n        /* \"#utility.yul\":18891:18929   */\n      tag_56\n      jump\t// in\n    tag_356:\n        /* \"#utility.yul\":18976:19043   */\n      tag_357\n        /* \"#utility.yul\":19036:19042   */\n      dup3\n        /* \"#utility.yul\":19028:19034   */\n      dup3\n        /* \"#utility.yul\":19022:19026   */\n      dup6\n        /* \"#utility.yul\":18976:19043   */\n      tag_160\n      jump\t// in\n    tag_357:\n        /* \"#utility.yul\":19070:19071   */\n      0x00\n        /* \"#utility.yul\":19094:19098   */\n      0x20\n        /* \"#utility.yul\":19081:19098   */\n      swap1\n      pop\n        /* \"#utility.yul\":19126:19128   */\n      0x1f\n        /* \"#utility.yul\":19118:19124   */\n      dup4\n        /* \"#utility.yul\":19115:19129   */\n      gt\n        /* \"#utility.yul\":19143:19144   */\n      0x01\n        /* \"#utility.yul\":19138:19756   */\n      dup2\n      eq\n      tag_359\n      jumpi\n        /* \"#utility.yul\":19800:19801   */\n      0x00\n        /* \"#utility.yul\":19817:19823   */\n      dup5\n        /* \"#utility.yul\":19814:19891   */\n      iszero\n      tag_360\n      jumpi\n        /* \"#utility.yul\":19866:19875   */\n      dup3\n        /* \"#utility.yul\":19861:19864   */\n      dup8\n        /* \"#utility.yul\":19857:19876   */\n      add\n        /* \"#utility.yul\":19851:19877   */\n      mload\n        /* \"#utility.yul\":19842:19877   */\n      swap1\n      pop\n        /* \"#utility.yul\":19814:19891   */\n    tag_360:\n        /* \"#utility.yul\":19917:19984   */\n      tag_361\n        /* \"#utility.yul\":19977:19983   */\n      dup6\n        /* \"#utility.yul\":19970:19975   */\n      dup3\n        /* \"#utility.yul\":19917:19984   */\n      tag_163\n      jump\t// in\n    tag_361:\n        /* \"#utility.yul\":19911:19915   */\n      dup7\n        /* \"#utility.yul\":19904:19985   */\n      sstore\n        /* \"#utility.yul\":19773:19995   */\n      pop\n        /* \"#utility.yul\":19108:19995   */\n      jump(tag_358)\n        /* \"#utility.yul\":19138:19756   */\n    tag_359:\n        /* \"#utility.yul\":19190:19194   */\n      0x1f\n        /* \"#utility.yul\":19186:19195   */\n      not\n        /* \"#utility.yul\":19178:19184   */\n      dup5\n        /* \"#utility.yul\":19174:19196   */\n      and\n        /* \"#utility.yul\":19224:19261   */\n      tag_362\n        /* \"#utility.yul\":19256:19260   */\n      dup7\n        /* \"#utility.yul\":19224:19261   */\n      tag_147\n      jump\t// in\n    tag_362:\n        /* \"#utility.yul\":19283:19284   */\n      0x00\n        /* \"#utility.yul\":19297:19505   */\n    tag_363:\n        /* \"#utility.yul\":19311:19318   */\n      dup3\n        /* \"#utility.yul\":19308:19309   */\n      dup2\n        /* \"#utility.yul\":19305:19319   */\n      lt\n        /* \"#utility.yul\":19297:19505   */\n      iszero\n      tag_365\n      jumpi\n        /* \"#utility.yul\":19390:19399   */\n      dup5\n        /* \"#utility.yul\":19385:19388   */\n      dup10\n        /* \"#utility.yul\":19381:19400   */\n      add\n        /* \"#utility.yul\":19375:19401   */\n      mload\n        /* \"#utility.yul\":19367:19373   */\n      dup3\n        /* \"#utility.yul\":19360:19402   */\n      sstore\n        /* \"#utility.yul\":19441:19442   */\n      0x01\n        /* \"#utility.yul\":19433:19439   */\n      dup3\n        /* \"#utility.yul\":19429:19443   */\n      add\n        /* \"#utility.yul\":19419:19443   */\n      swap2\n      pop\n        /* \"#utility.yul\":19488:19490   */\n      0x20\n        /* \"#utility.yul\":19477:19486   */\n      dup6\n        /* \"#utility.yul\":19473:19491   */\n      add\n        /* \"#utility.yul\":19460:19491   */\n      swap5\n      pop\n        /* \"#utility.yul\":19334:19338   */\n      0x20\n        /* \"#utility.yul\":19331:19332   */\n      dup2\n        /* \"#utility.yul\":19327:19339   */\n      add\n        /* \"#utility.yul\":19322:19339   */\n      swap1\n      pop\n        /* \"#utility.yul\":19297:19505   */\n      jump(tag_363)\n    tag_365:\n        /* \"#utility.yul\":19533:19539   */\n      dup7\n        /* \"#utility.yul\":19524:19531   */\n      dup4\n        /* \"#utility.yul\":19521:19540   */\n      lt\n        /* \"#utility.yul\":19518:19697   */\n      iszero\n      tag_366\n      jumpi\n        /* \"#utility.yul\":19591:19600   */\n      dup5\n        /* \"#utility.yul\":19586:19589   */\n      dup10\n        /* \"#utility.yul\":19582:19601   */\n      add\n        /* \"#utility.yul\":19576:19602   */\n      mload\n        /* \"#utility.yul\":19634:19682   */\n      tag_367\n        /* \"#utility.yul\":19676:19680   */\n      0x1f\n        /* \"#utility.yul\":19668:19674   */\n      dup10\n        /* \"#utility.yul\":19664:19681   */\n      and\n        /* \"#utility.yul\":19653:19662   */\n      dup3\n        /* \"#utility.yul\":19634:19682   */\n      tag_162\n      jump\t// in\n    tag_367:\n        /* \"#utility.yul\":19626:19632   */\n      dup4\n        /* \"#utility.yul\":19619:19683   */\n      sstore\n        /* \"#utility.yul\":19541:19697   */\n      pop\n        /* \"#utility.yul\":19518:19697   */\n    tag_366:\n        /* \"#utility.yul\":19743:19744   */\n      0x01\n        /* \"#utility.yul\":19739:19740   */\n      0x02\n        /* \"#utility.yul\":19731:19737   */\n      dup9\n        /* \"#utility.yul\":19727:19741   */\n      mul\n        /* \"#utility.yul\":19723:19745   */\n      add\n        /* \"#utility.yul\":19717:19721   */\n      dup9\n        /* \"#utility.yul\":19710:19746   */\n      sstore\n        /* \"#utility.yul\":19145:19756   */\n      pop\n      pop\n      pop\n        /* \"#utility.yul\":19108:19995   */\n    tag_358:\n      pop\n        /* \"#utility.yul\":18698:20001   */\n      pop\n      pop\n      pop\n        /* \"#utility.yul\":18606:20001   */\n      pop\n      pop\n      jump\t// out\n        /* \"#utility.yul\":20007:20125   */\n    tag_164:\n        /* \"#utility.yul\":20094:20118   */\n      tag_369\n        /* \"#utility.yul\":20112:20117   */\n      dup2\n        /* \"#utility.yul\":20094:20118   */\n      tag_133\n      jump\t// in\n    tag_369:\n        /* \"#utility.yul\":20089:20092   */\n      dup3\n        /* \"#utility.yul\":20082:20119   */\n      mstore\n        /* \"#utility.yul\":20007:20125   */\n      pop\n      pop\n      jump\t// out\n        /* \"#utility.yul\":20131:20279   */\n    tag_165:\n        /* \"#utility.yul\":20229:20235   */\n      dup3\n        /* \"#utility.yul\":20224:20227   */\n      dup2\n        /* \"#utility.yul\":20219:20222   */\n      dup4\n        /* \"#utility.yul\":20206:20236   */\n      calldatacopy\n        /* \"#utility.yul\":20270:20271   */\n      0x00\n        /* \"#utility.yul\":20261:20267   */\n      dup4\n        /* \"#utility.yul\":20256:20259   */\n      dup4\n        /* \"#utility.yul\":20252:20268   */\n      add\n        /* \"#utility.yul\":20245:20272   */\n      mstore\n        /* \"#utility.yul\":20131:20279   */\n      pop\n      pop\n      pop\n      jump\t// out\n        /* \"#utility.yul\":20309:20626   */\n    tag_166:\n        /* \"#utility.yul\":20407:20410   */\n      0x00\n        /* \"#utility.yul\":20428:20499   */\n      tag_372\n        /* \"#utility.yul\":20492:20498   */\n      dup4\n        /* \"#utility.yul\":20487:20490   */\n      dup6\n        /* \"#utility.yul\":20428:20499   */\n      tag_139\n      jump\t// in\n    tag_372:\n        /* \"#utility.yul\":20421:20499   */\n      swap4\n      pop\n        /* \"#utility.yul\":20509:20565   */\n      tag_373\n        /* \"#utility.yul\":20558:20564   */\n      dup4\n        /* \"#utility.yul\":20553:20556   */\n      dup6\n        /* \"#utility.yul\":20546:20551   */\n      dup5\n        /* \"#utility.yul\":20509:20565   */\n      tag_165\n      jump\t// in\n    tag_373:\n        /* \"#utility.yul\":20590:20619   */\n      tag_374\n        /* \"#utility.yul\":20612:20618   */\n      dup4\n        /* \"#utility.yul\":20590:20619   */\n      tag_119\n      jump\t// in\n    tag_374:\n        /* \"#utility.yul\":20585:20588   */\n      dup5\n        /* \"#utility.yul\":20581:20620   */\n      add\n        /* \"#utility.yul\":20574:20620   */\n      swap1\n      pop\n        /* \"#utility.yul\":20309:20626   */\n      swap4\n      swap3\n      pop\n      pop\n      pop\n      jump\t// out\n        /* \"#utility.yul\":20632:21075   */\n    tag_72:\n        /* \"#utility.yul\":20783:20787   */\n      0x00\n        /* \"#utility.yul\":20821:20823   */\n      0x40\n        /* \"#utility.yul\":20810:20819   */\n      dup3\n        /* \"#utility.yul\":20806:20824   */\n      add\n        /* \"#utility.yul\":20798:20824   */\n      swap1\n      pop\n        /* \"#utility.yul\":20834:20905   */\n      tag_376\n        /* \"#utility.yul\":20902:20903   */\n      0x00\n        /* \"#utility.yul\":20891:20900   */\n      dup4\n        /* \"#utility.yul\":20887:20904   */\n      add\n        /* \"#utility.yul\":20878:20884   */\n      dup7\n        /* \"#utility.yul\":20834:20905   */\n      tag_164\n      jump\t// in\n    tag_376:\n        /* \"#utility.yul\":20952:20961   */\n      dup2\n        /* \"#utility.yul\":20946:20950   */\n      dup2\n        /* \"#utility.yul\":20942:20962   */\n      sub\n        /* \"#utility.yul\":20937:20939   */\n      0x20\n        /* \"#utility.yul\":20926:20935   */\n      dup4\n        /* \"#utility.yul\":20922:20940   */\n      add\n        /* \"#utility.yul\":20915:20963   */\n      mstore\n        /* \"#utility.yul\":20980:21068   */\n      tag_377\n        /* \"#utility.yul\":21063:21067   */\n      dup2\n        /* \"#utility.yul\":21054:21060   */\n      dup5\n        /* \"#utility.yul\":21046:21052   */\n      dup7\n        /* \"#utility.yul\":20980:21068   */\n      tag_166\n      jump\t// in\n    tag_377:\n        /* \"#utility.yul\":20972:21068   */\n      swap1\n      pop\n        /* \"#utility.yul\":20632:21075   */\n      swap5\n      swap4\n      pop\n      pop\n      pop\n      pop\n      jump\t// out\n        /* \"#utility.yul\":21081:21244   */\n    tag_167:\n        /* \"#utility.yul\":21221:21236   */\n      0x496e76616c696420496e64657800000000000000000000000000000000000000\n        /* \"#utility.yul\":21217:21218   */\n      0x00\n        /* \"#utility.yul\":21209:21215   */\n      dup3\n        /* \"#utility.yul\":21205:21219   */\n      add\n        /* \"#utility.yul\":21198:21237   */\n      mstore\n        /* \"#utility.yul\":21081:21244   */\n      pop\n      jump\t// out\n        /* \"#utility.yul\":21250:21616   */\n    tag_168:\n        /* \"#utility.yul\":21392:21395   */\n      0x00\n        /* \"#utility.yul\":21413:21480   */\n      tag_380\n        /* \"#utility.yul\":21477:21479   */\n      0x0d\n        /* \"#utility.yul\":21472:21475   */\n      dup4\n        /* \"#utility.yul\":21413:21480   */\n      tag_139\n      jump\t// in\n    tag_380:\n        /* \"#utility.yul\":21406:21480   */\n      swap2\n      pop\n        /* \"#utility.yul\":21489:21582   */\n      tag_381\n        /* \"#utility.yul\":21578:21581   */\n      dup3\n        /* \"#utility.yul\":21489:21582   */\n      tag_167\n      jump\t// in\n    tag_381:\n        /* \"#utility.yul\":21607:21609   */\n      0x20\n        /* \"#utility.yul\":21602:21605   */\n      dup3\n        /* \"#utility.yul\":21598:21610   */\n      add\n        /* \"#utility.yul\":21591:21610   */\n      swap1\n      pop\n        /* \"#utility.yul\":21250:21616   */\n      swap2\n      swap1\n      pop\n      jump\t// out\n        /* \"#utility.yul\":21622:22041   */\n    tag_94:\n        /* \"#utility.yul\":21788:21792   */\n      0x00\n        /* \"#utility.yul\":21826:21828   */\n      0x20\n        /* \"#utility.yul\":21815:21824   */\n      dup3\n        /* \"#utility.yul\":21811:21829   */\n      add\n        /* \"#utility.yul\":21803:21829   */\n      swap1\n      pop\n        /* \"#utility.yul\":21875:21884   */\n      dup2\n        /* \"#utility.yul\":21869:21873   */\n      dup2\n        /* \"#utility.yul\":21865:21885   */\n      sub\n        /* \"#utility.yul\":21861:21862   */\n      0x00\n        /* \"#utility.yul\":21850:21859   */\n      dup4\n        /* \"#utility.yul\":21846:21863   */\n      add\n        /* \"#utility.yul\":21839:21886   */\n      mstore\n        /* \"#utility.yul\":21903:22034   */\n      tag_383\n        /* \"#utility.yul\":22029:22033   */\n      dup2\n        /* \"#utility.yul\":21903:22034   */\n      tag_168\n      jump\t// in\n    tag_383:\n        /* \"#utility.yul\":21895:22034   */\n      swap1\n      pop\n        /* \"#utility.yul\":21622:22041   */\n      swap2\n      swap1\n      pop\n      jump\t// out\n\n    auxdata: 0xa264697066735822122082e32277740e173201089241b25a766287b513d97024b21664f2f09475ae8e8a64736f6c634300081e0033\n}\n",
				"bytecode": {
					"linkReferences": {},
					"object": "6080604052348015600e575f5ffd5b506115a28061001c5f395ff3fe608060405234801561000f575f5ffd5b5060043610610055575f3560e01c806336662c42146100595780637fa1680a14610075578063b37b100014610093578063c50a2def146100c3578063c71375ac146100f6575b5f5ffd5b610073600480360381019061006e9190610ae4565b610112565b005b61007d610338565b60405161008a9190610cbb565b60405180910390f35b6100ad60048036038101906100a89190610d3c565b610522565b6040516100ba9190610dc9565b60405180910390f35b6100dd60048036038101906100d89190610e6f565b6106e1565b6040516100ed9493929190610ef5565b60405180910390f35b610110600480360381019061010b9190610f9b565b61084b565b005b5f5f3373ffffffffffffffffffffffffffffffffffffffff1673ffffffffffffffffffffffffffffffffffffffff1681526020019081526020015f208160ff168154811061016357610162610fe6565b5b905f5260205f2090600302016002015f9054906101000a900460ff16156101bf576040517f08c379a00000000000000000000000000000000000000000000000000000000081526004016101b69061105d565b60405180910390fd5b5f5f3373ffffffffffffffffffffffffffffffffffffffff1673ffffffffffffffffffffffffffffffffffffffff1681526020019081526020015f208160ff16815481106102105761020f610fe6565b5b905f5260205f20906003020160020160019054906101000a900460ff161561026d576040517f08c379a0000000000000000000000000000000000000000000000000000000008152600401610264906110c5565b60405180910390fd5b5f5f5f3373ffffffffffffffffffffffffffffffffffffffff1673ffffffffffffffffffffffffffffffffffffffff1681526020019081526020015f208260ff16815481106102bf576102be610fe6565b5b905f5260205f20906003020190506001816002015f6101000a81548160ff0219169083151502179055507f5b1b6cc89147c2c62cf0af108fad37be06bcd07bcffe42b4acb7cd1af2602238815f01826002015f9054906101000a900460ff1660405161032c9291906111d3565b60405180910390a15050565b60605f5f3373ffffffffffffffffffffffffffffffffffffffff1673ffffffffffffffffffffffffffffffffffffffff1681526020019081526020015f20805480602002602001604051908101604052809291908181526020015f905b82821015610519578382905f5260205f2090600302016040518060800160405290815f820180546103c590611110565b80601f01602080910402602001604051908101604052809291908181526020018280546103f190611110565b801561043c5780601f106104135761010080835404028352916020019161043c565b820191905f5260205f20905b81548152906001019060200180831161041f57829003601f168201915b5050505050815260200160018201805461045590611110565b80601f016020809104026020016040519081016040528092919081815260200182805461048190611110565b80156104cc5780601f106104a3576101008083540402835291602001916104cc565b820191905f5260205f20905b8154815290600101906020018083116104af57829003601f168201915b50505050508152602001600282015f9054906101000a900460ff161515151581526020016002820160019054906101000a900460ff16151515158152505081526020019060010190610395565b50505050905090565b5f5f5f3373ffffffffffffffffffffffffffffffffffffffff1673ffffffffffffffffffffffffffffffffffffffff1681526020019081526020015f20604051806080016040528087878080601f0160208091040260200160405190810160405280939291908181526020018383808284375f81840152601f19601f82011690508083019250505050505050815260200185858080601f0160208091040260200160405190810160405280939291908181526020018383808284375f81840152601f19601f8201169050808301925050505050505081526020015f151581526020015f1515815250908060018154018082558091505060019003905f5260205f2090600302015f909190919091505f820151815f01908161064391906113bc565b50602082015181600101908161065991906113bc565b506040820151816002015f6101000a81548160ff02191690831515021790555060608201518160020160016101000a81548160ff02191690831515021790555050507e9b4a26434bf628985823f51fa800c6230e24e0284bc40b22877ac82104dd0c3386866040516106cd939291906114d4565b60405180910390a160019050949350505050565b5f602052815f5260405f2081815481106106f9575f80fd5b905f5260205f2090600302015f9150915050805f01805461071990611110565b80601f016020809104026020016040519081016040528092919081815260200182805461074590611110565b80156107905780601f1061076757610100808354040283529160200191610790565b820191905f5260205f20905b81548152906001019060200180831161077357829003601f168201915b5050505050908060010180546107a590611110565b80601f01602080910402602001604051908101604052809291908181526020018280546107d190611110565b801561081c5780601f106107f35761010080835404028352916020019161081c565b820191905f5260205f20905b8154815290600101906020018083116107ff57829003601f168201915b505050505090806002015f9054906101000a900460ff16908060020160019054906101000a900460ff16905084565b5f5f5f3373ffffffffffffffffffffffffffffffffffffffff1673ffffffffffffffffffffffffffffffffffffffff1681526020019081526020015f2090505f5f90505b83839050811015610aa0575f8484838181106108ae576108ad610fe6565b5b90506020020160208101906108c39190610ae4565b90505f5f3373ffffffffffffffffffffffffffffffffffffffff1673ffffffffffffffffffffffffffffffffffffffff1681526020019081526020015f20805490508160ff1610610949576040517f08c379a00000000000000000000000000000000000000000000000000000000081526004016109409061154e565b60405180910390fd5b5f5f3373ffffffffffffffffffffffffffffffffffffffff1673ffffffffffffffffffffffffffffffffffffffff1681526020019081526020015f208160ff168154811061099a57610999610fe6565b5b905f5260205f20906003020160020160019054906101000a900460ff16156109f7576040517f08c379a00000000000000000000000000000000000000000000000000000000081526004016109ee906110c5565b60405180910390fd5b6001838260ff1681548110610a0f57610a0e610fe6565b5b905f5260205f20906003020160020160016101000a81548160ff0219169083151502179055507f9534f516785fe8bdba306243d0961a83772f11490e6bb6562d880807b3625690838260ff1681548110610a6c57610a6b610fe6565b5b905f5260205f2090600302015f016001604051610a8a9291906111d3565b60405180910390a150808060010191505061088f565b50505050565b5f5ffd5b5f5ffd5b5f60ff82169050919050565b610ac381610aae565b8114610acd575f5ffd5b50565b5f81359050610ade81610aba565b92915050565b5f60208284031215610af957610af8610aa6565b5b5f610b0684828501610ad0565b91505092915050565b5f81519050919050565b5f82825260208201905092915050565b5f819050602082019050919050565b5f81519050919050565b5f82825260208201905092915050565b8281835e5f83830152505050565b5f601f19601f8301169050919050565b5f610b7a82610b38565b610b848185610b42565b9350610b94818560208601610b52565b610b9d81610b60565b840191505092915050565b5f8115159050919050565b610bbc81610ba8565b82525050565b5f608083015f8301518482035f860152610bdc8282610b70565b91505060208301518482036020860152610bf68282610b70565b9150506040830151610c0b6040860182610bb3565b506060830151610c1e6060860182610bb3565b508091505092915050565b5f610c348383610bc2565b905092915050565b5f602082019050919050565b5f610c5282610b0f565b610c5c8185610b19565b935083602082028501610c6e85610b29565b805f5b85811015610ca95784840389528151610c8a8582610c29565b9450610c9583610c3c565b925060208a01995050600181019050610c71565b50829750879550505050505092915050565b5f6020820190508181035f830152610cd38184610c48565b905092915050565b5f5ffd5b5f5ffd5b5f5ffd5b5f5f83601f840112610cfc57610cfb610cdb565b5b8235905067ffffffffffffffff811115610d1957610d18610cdf565b5b602083019150836001820283011115610d3557610d34610ce3565b5b9250929050565b5f5f5f5f60408587031215610d5457610d53610aa6565b5b5f85013567ffffffffffffffff811115610d7157610d70610aaa565b5b610d7d87828801610ce7565b9450945050602085013567ffffffffffffffff811115610da057610d9f610aaa565b5b610dac87828801610ce7565b925092505092959194509250565b610dc381610ba8565b82525050565b5f602082019050610ddc5f830184610dba565b92915050565b5f73ffffffffffffffffffffffffffffffffffffffff82169050919050565b5f610e0b82610de2565b9050919050565b610e1b81610e01565b8114610e25575f5ffd5b50565b5f81359050610e3681610e12565b92915050565b5f819050919050565b610e4e81610e3c565b8114610e58575f5ffd5b50565b5f81359050610e6981610e45565b92915050565b5f5f60408385031215610e8557610e84610aa6565b5b5f610e9285828601610e28565b9250506020610ea385828601610e5b565b9150509250929050565b5f82825260208201905092915050565b5f610ec782610b38565b610ed18185610ead565b9350610ee1818560208601610b52565b610eea81610b60565b840191505092915050565b5f6080820190508181035f830152610f0d8187610ebd565b90508181036020830152610f218186610ebd565b9050610f306040830185610dba565b610f3d6060830184610dba565b95945050505050565b5f5f83601f840112610f5b57610f5a610cdb565b5b8235905067ffffffffffffffff811115610f7857610f77610cdf565b5b602083019150836020820283011115610f9457610f93610ce3565b5b9250929050565b5f5f60208385031215610fb157610fb0610aa6565b5b5f83013567ffffffffffffffff811115610fce57610fcd610aaa565b5b610fda85828601610f46565b92509250509250929050565b7f4e487b71000000000000000000000000000000000000000000000000000000005f52603260045260245ffd5b7f416c72656164792046696e6973686564000000000000000000000000000000005f82015250565b5f611047601083610ead565b915061105282611013565b602082019050919050565b5f6020820190508181035f8301526110748161103b565b9050919050565b7f416c72656164792044656c6574656400000000000000000000000000000000005f82015250565b5f6110af600f83610ead565b91506110ba8261107b565b602082019050919050565b5f6020820190508181035f8301526110dc816110a3565b9050919050565b7f4e487b71000000000000000000000000000000000000000000000000000000005f52602260045260245ffd5b5f600282049050600182168061112757607f821691505b60208210810361113a576111396110e3565b5b50919050565b5f819050815f5260205f209050919050565b5f815461115e81611110565b6111688186610ead565b9450600182165f81146111825760018114611198576111ca565b60ff1983168652811515602002860193506111ca565b6111a185611140565b5f5b838110156111c2578154818901526001820191506020810190506111a3565b808801955050505b50505092915050565b5f6040820190508181035f8301526111eb8185611152565b90506111fa6020830184610dba565b9392505050565b7f4e487b71000000000000000000000000000000000000000000000000000000005f52604160045260245ffd5b5f6020601f8301049050919050565b5f82821b905092915050565b5f600883026112787fffffffffffffffffffffffffffffffffffffffffffffffffffffffffffffffff8261123d565b611282868361123d565b95508019841693508086168417925050509392505050565b5f819050919050565b5f6112bd6112b86112b384610e3c565b61129a565b610e3c565b9050919050565b5f819050919050565b6112d6836112a3565b6112ea6112e2826112c4565b848454611249565b825550505050565b5f5f905090565b6113016112f2565b61130c8184846112cd565b505050565b5b8181101561132f576113245f826112f9565b600181019050611312565b5050565b601f8211156113745761134581611140565b61134e8461122e565b8101602085101561135d578190505b6113716113698561122e565b830182611311565b50505b505050565b5f82821c905092915050565b5f6113945f1984600802611379565b1980831691505092915050565b5f6113ac8383611385565b9150826002028217905092915050565b6113c582610b38565b67ffffffffffffffff8111156113de576113dd611201565b5b6113e88254611110565b6113f3828285611333565b5f60209050601f831160018114611424575f8415611412578287015190505b61141c85826113a1565b865550611483565b601f19841661143286611140565b5f5b8281101561145957848901518255600182019150602085019450602081019050611434565b868310156114765784890151611472601f891682611385565b8355505b6001600288020188555050505b505050505050565b61149481610e01565b82525050565b828183375f83830152505050565b5f6114b38385610ead565b93506114c083858461149a565b6114c983610b60565b840190509392505050565b5f6040820190506114e75f83018661148b565b81810360208301526114fa8184866114a8565b9050949350505050565b7f496e76616c696420496e646578000000000000000000000000000000000000005f82015250565b5f611538600d83610ead565b915061154382611504565b602082019050919050565b5f6020820190508181035f8301526115658161152c565b905091905056fea264697066735822122082e32277740e173201089241b25a766287b513d97024b21664f2f09475ae8e8a64736f6c634300081e0033",
					"opcodes": "PUSH1 0x80 PUSH1 0x40 MSTORE CALLVALUE DUP1 ISZERO PUSH1 0xE JUMPI PUSH0 PUSH0 REVERT JUMPDEST POP PUSH2 0x15A2 DUP1 PUSH2 0x1C PUSH0 CODECOPY PUSH0 RETURN INVALID PUSH1 0x80 PUSH1 0x40 MSTORE CALLVALUE DUP1 ISZERO PUSH2 0xF JUMPI PUSH0 PUSH0 REVERT JUMPDEST POP PUSH1 0x4 CALLDATASIZE LT PUSH2 0x55 JUMPI PUSH0 CALLDATALOAD PUSH1 0xE0 SHR DUP1 PUSH4 0x36662C42 EQ PUSH2 0x59 JUMPI DUP1 PUSH4 0x7FA1680A EQ PUSH2 0x75 JUMPI DUP1 PUSH4 0xB37B1000 EQ PUSH2 0x93 JUMPI DUP1 PUSH4 0xC50A2DEF EQ PUSH2 0xC3 JUMPI DUP1 PUSH4 0xC71375AC EQ PUSH2 0xF6 JUMPI JUMPDEST PUSH0 PUSH0 REVERT JUMPDEST PUSH2 0x73 PUSH1 0x4 DUP1 CALLDATASIZE SUB DUP2 ADD SWAP1 PUSH2 0x6E SWAP2 SWAP1 PUSH2 0xAE4 JUMP JUMPDEST PUSH2 0x112 JUMP JUMPDEST STOP JUMPDEST PUSH2 0x7D PUSH2 0x338 JUMP JUMPDEST PUSH1 0x40 MLOAD PUSH2 0x8A SWAP2 SWAP1 PUSH2 0xCBB JUMP JUMPDEST PUSH1 0x40 MLOAD DUP1 SWAP2 SUB SWAP1 RETURN JUMPDEST PUSH2 0xAD PUSH1 0x4 DUP1 CALLDATASIZE SUB DUP2 ADD SWAP1 PUSH2 0xA8 SWAP2 SWAP1 PUSH2 0xD3C JUMP JUMPDEST PUSH2 0x522 JUMP JUMPDEST PUSH1 0x40 MLOAD PUSH2 0xBA SWAP2 SWAP1 PUSH2 0xDC9 JUMP JUMPDEST PUSH1 0x40 MLOAD DUP1 SWAP2 SUB SWAP1 RETURN JUMPDEST PUSH2 0xDD PUSH1 0x4 DUP1 CALLDATASIZE SUB DUP2 ADD SWAP1 PUSH2 0xD8 SWAP2 SWAP1 PUSH2 0xE6F JUMP JUMPDEST PUSH2 0x6E1 JUMP JUMPDEST PUSH1 0x40 MLOAD PUSH2 0xED SWAP5 SWAP4 SWAP3 SWAP2 SWAP1 PUSH2 0xEF5 JUMP JUMPDEST PUSH1 0x40 MLOAD DUP1 SWAP2 SUB SWAP1 RETURN JUMPDEST PUSH2 0x110 PUSH1 0x4 DUP1 CALLDATASIZE SUB DUP2 ADD SWAP1 PUSH2 0x10B SWAP2 SWAP1 PUSH2 0xF9B JUMP JUMPDEST PUSH2 0x84B JUMP JUMPDEST STOP JUMPDEST PUSH0 PUSH0 CALLER PUSH20 0xFFFFFFFFFFFFFFFFFFFFFFFFFFFFFFFFFFFFFFFF AND PUSH20 0xFFFFFFFFFFFFFFFFFFFFFFFFFFFFFFFFFFFFFFFF AND DUP2 MSTORE PUSH1 0x20 ADD SWAP1 DUP2 MSTORE PUSH1 0x20 ADD PUSH0 KECCAK256 DUP2 PUSH1 0xFF AND DUP2 SLOAD DUP2 LT PUSH2 0x163 JUMPI PUSH2 0x162 PUSH2 0xFE6 JUMP JUMPDEST JUMPDEST SWAP1 PUSH0 MSTORE PUSH1 0x20 PUSH0 KECCAK256 SWAP1 PUSH1 0x3 MUL ADD PUSH1 0x2 ADD PUSH0 SWAP1 SLOAD SWAP1 PUSH2 0x100 EXP SWAP1 DIV PUSH1 0xFF AND ISZERO PUSH2 0x1BF JUMPI PUSH1 0x40 MLOAD PUSH32 0x8C379A000000000000000000000000000000000000000000000000000000000 DUP2 MSTORE PUSH1 0x4 ADD PUSH2 0x1B6 SWAP1 PUSH2 0x105D JUMP JUMPDEST PUSH1 0x40 MLOAD DUP1 SWAP2 SUB SWAP1 REVERT JUMPDEST PUSH0 PUSH0 CALLER PUSH20 0xFFFFFFFFFFFFFFFFFFFFFFFFFFFFFFFFFFFFFFFF AND PUSH20 0xFFFFFFFFFFFFFFFFFFFFFFFFFFFFFFFFFFFFFFFF AND DUP2 MSTORE PUSH1 0x20 ADD SWAP1 DUP2 MSTORE PUSH1 0x20 ADD PUSH0 KECCAK256 DUP2 PUSH1 0xFF AND DUP2 SLOAD DUP2 LT PUSH2 0x210 JUMPI PUSH2 0x20F PUSH2 0xFE6 JUMP JUMPDEST JUMPDEST SWAP1 PUSH0 MSTORE PUSH1 0x20 PUSH0 KECCAK256 SWAP1 PUSH1 0x3 MUL ADD PUSH1 0x2 ADD PUSH1 0x1 SWAP1 SLOAD SWAP1 PUSH2 0x100 EXP SWAP1 DIV PUSH1 0xFF AND ISZERO PUSH2 0x26D JUMPI PUSH1 0x40 MLOAD PUSH32 0x8C379A000000000000000000000000000000000000000000000000000000000 DUP2 MSTORE PUSH1 0x4 ADD PUSH2 0x264 SWAP1 PUSH2 0x10C5 JUMP JUMPDEST PUSH1 0x40 MLOAD DUP1 SWAP2 SUB SWAP1 REVERT JUMPDEST PUSH0 PUSH0 PUSH0 CALLER PUSH20 0xFFFFFFFFFFFFFFFFFFFFFFFFFFFFFFFFFFFFFFFF AND PUSH20 0xFFFFFFFFFFFFFFFFFFFFFFFFFFFFFFFFFFFFFFFF AND DUP2 MSTORE PUSH1 0x20 ADD SWAP1 DUP2 MSTORE PUSH1 0x20 ADD PUSH0 KECCAK256 DUP3 PUSH1 0xFF AND DUP2 SLOAD DUP2 LT PUSH2 0x2BF JUMPI PUSH2 0x2BE PUSH2 0xFE6 JUMP JUMPDEST JUMPDEST SWAP1 PUSH0 MSTORE PUSH1 0x20 PUSH0 KECCAK256 SWAP1 PUSH1 0x3 MUL ADD SWAP1 POP PUSH1 0x1 DUP2 PUSH1 0x2 ADD PUSH0 PUSH2 0x100 EXP DUP2 SLOAD DUP2 PUSH1 0xFF MUL NOT AND SWAP1 DUP4 ISZERO ISZERO MUL OR SWAP1 SSTORE POP PUSH32 0x5B1B6CC89147C2C62CF0AF108FAD37BE06BCD07BCFFE42B4ACB7CD1AF2602238 DUP2 PUSH0 ADD DUP3 PUSH1 0x2 ADD PUSH0 SWAP1 SLOAD SWAP1 PUSH2 0x100 EXP SWAP1 DIV PUSH1 0xFF AND PUSH1 0x40 MLOAD PUSH2 0x32C SWAP3 SWAP2 SWAP1 PUSH2 0x11D3 JUMP JUMPDEST PUSH1 0x40 MLOAD DUP1 SWAP2 SUB SWAP1 LOG1 POP POP JUMP JUMPDEST PUSH1 0x60 PUSH0 PUSH0 CALLER PUSH20 0xFFFFFFFFFFFFFFFFFFFFFFFFFFFFFFFFFFFFFFFF AND PUSH20 0xFFFFFFFFFFFFFFFFFFFFFFFFFFFFFFFFFFFFFFFF AND DUP2 MSTORE PUSH1 0x20 ADD SWAP1 DUP2 MSTORE PUSH1 0x20 ADD PUSH0 KECCAK256 DUP1 SLOAD DUP1 PUSH1 0x20 MUL PUSH1 0x20 ADD PUSH1 0x40 MLOAD SWAP1 DUP2 ADD PUSH1 0x40 MSTORE DUP1 SWAP3 SWAP2 SWAP1 DUP2 DUP2 MSTORE PUSH1 0x20 ADD PUSH0 SWAP1 JUMPDEST DUP3 DUP3 LT ISZERO PUSH2 0x519 JUMPI DUP4 DUP3 SWAP1 PUSH0 MSTORE PUSH1 0x20 PUSH0 KECCAK256 SWAP1 PUSH1 0x3 MUL ADD PUSH1 0x40 MLOAD DUP1 PUSH1 0x80 ADD PUSH1 0x40 MSTORE SWAP1 DUP2 PUSH0 DUP3 ADD DUP1 SLOAD PUSH2 0x3C5 SWAP1 PUSH2 0x1110 JUMP JUMPDEST DUP1 PUSH1 0x1F ADD PUSH1 0x20 DUP1 SWAP2 DIV MUL PUSH1 0x20 ADD PUSH1 0x40 MLOAD SWAP1 DUP2 ADD PUSH1 0x40 MSTORE DUP1 SWAP3 SWAP2 SWAP1 DUP2 DUP2 MSTORE PUSH1 0x20 ADD DUP3 DUP1 SLOAD PUSH2 0x3F1 SWAP1 PUSH2 0x1110 JUMP JUMPDEST DUP1 ISZERO PUSH2 0x43C JUMPI DUP1 PUSH1 0x1F LT PUSH2 0x413 JUMPI PUSH2 0x100 DUP1 DUP4 SLOAD DIV MUL DUP4 MSTORE SWAP2 PUSH1 0x20 ADD SWAP2 PUSH2 0x43C JUMP JUMPDEST DUP3 ADD SWAP2 SWAP1 PUSH0 MSTORE PUSH1 0x20 PUSH0 KECCAK256 SWAP1 JUMPDEST DUP2 SLOAD DUP2 MSTORE SWAP1 PUSH1 0x1 ADD SWAP1 PUSH1 0x20 ADD DUP1 DUP4 GT PUSH2 0x41F JUMPI DUP3 SWAP1 SUB PUSH1 0x1F AND DUP3 ADD SWAP2 JUMPDEST POP POP POP POP POP DUP2 MSTORE PUSH1 0x20 ADD PUSH1 0x1 DUP3 ADD DUP1 SLOAD PUSH2 0x455 SWAP1 PUSH2 0x1110 JUMP JUMPDEST DUP1 PUSH1 0x1F ADD PUSH1 0x20 DUP1 SWAP2 DIV MUL PUSH1 0x20 ADD PUSH1 0x40 MLOAD SWAP1 DUP2 ADD PUSH1 0x40 MSTORE DUP1 SWAP3 SWAP2 SWAP1 DUP2 DUP2 MSTORE PUSH1 0x20 ADD DUP3 DUP1 SLOAD PUSH2 0x481 SWAP1 PUSH2 0x1110 JUMP JUMPDEST DUP1 ISZERO PUSH2 0x4CC JUMPI DUP1 PUSH1 0x1F LT PUSH2 0x4A3 JUMPI PUSH2 0x100 DUP1 DUP4 SLOAD DIV MUL DUP4 MSTORE SWAP2 PUSH1 0x20 ADD SWAP2 PUSH2 0x4CC JUMP JUMPDEST DUP3 ADD SWAP2 SWAP1 PUSH0 MSTORE PUSH1 0x20 PUSH0 KECCAK256 SWAP1 JUMPDEST DUP2 SLOAD DUP2 MSTORE SWAP1 PUSH1 0x1 ADD SWAP1 PUSH1 0x20 ADD DUP1 DUP4 GT PUSH2 0x4AF JUMPI DUP3 SWAP1 SUB PUSH1 0x1F AND DUP3 ADD SWAP2 JUMPDEST POP POP POP POP POP DUP2 MSTORE PUSH1 0x20 ADD PUSH1 0x2 DUP3 ADD PUSH0 SWAP1 SLOAD SWAP1 PUSH2 0x100 EXP SWAP1 DIV PUSH1 0xFF AND ISZERO ISZERO ISZERO ISZERO DUP2 MSTORE PUSH1 0x20 ADD PUSH1 0x2 DUP3 ADD PUSH1 0x1 SWAP1 SLOAD SWAP1 PUSH2 0x100 EXP SWAP1 DIV PUSH1 0xFF AND ISZERO ISZERO ISZERO ISZERO DUP2 MSTORE POP POP DUP2 MSTORE PUSH1 0x20 ADD SWAP1 PUSH1 0x1 ADD SWAP1 PUSH2 0x395 JUMP JUMPDEST POP POP POP POP SWAP1 POP SWAP1 JUMP JUMPDEST PUSH0 PUSH0 PUSH0 CALLER PUSH20 0xFFFFFFFFFFFFFFFFFFFFFFFFFFFFFFFFFFFFFFFF AND PUSH20 0xFFFFFFFFFFFFFFFFFFFFFFFFFFFFFFFFFFFFFFFF AND DUP2 MSTORE PUSH1 0x20 ADD SWAP1 DUP2 MSTORE PUSH1 0x20 ADD PUSH0 KECCAK256 PUSH1 0x40 MLOAD DUP1 PUSH1 0x80 ADD PUSH1 0x40 MSTORE DUP1 DUP8 DUP8 DUP1 DUP1 PUSH1 0x1F ADD PUSH1 0x20 DUP1 SWAP2 DIV MUL PUSH1 0x20 ADD PUSH1 0x40 MLOAD SWAP1 DUP2 ADD PUSH1 0x40 MSTORE DUP1 SWAP4 SWAP3 SWAP2 SWAP1 DUP2 DUP2 MSTORE PUSH1 0x20 ADD DUP4 DUP4 DUP1 DUP3 DUP5 CALLDATACOPY PUSH0 DUP2 DUP5 ADD MSTORE PUSH1 0x1F NOT PUSH1 0x1F DUP3 ADD AND SWAP1 POP DUP1 DUP4 ADD SWAP3 POP POP POP POP POP POP POP DUP2 MSTORE PUSH1 0x20 ADD DUP6 DUP6 DUP1 DUP1 PUSH1 0x1F ADD PUSH1 0x20 DUP1 SWAP2 DIV MUL PUSH1 0x20 ADD PUSH1 0x40 MLOAD SWAP1 DUP2 ADD PUSH1 0x40 MSTORE DUP1 SWAP4 SWAP3 SWAP2 SWAP1 DUP2 DUP2 MSTORE PUSH1 0x20 ADD DUP4 DUP4 DUP1 DUP3 DUP5 CALLDATACOPY PUSH0 DUP2 DUP5 ADD MSTORE PUSH1 0x1F NOT PUSH1 0x1F DUP3 ADD AND SWAP1 POP DUP1 DUP4 ADD SWAP3 POP POP POP POP POP POP POP DUP2 MSTORE PUSH1 0x20 ADD PUSH0 ISZERO ISZERO DUP2 MSTORE PUSH1 0x20 ADD PUSH0 ISZERO ISZERO DUP2 MSTORE POP SWAP1 DUP1 PUSH1 0x1 DUP2 SLOAD ADD DUP1 DUP3 SSTORE DUP1 SWAP2 POP POP PUSH1 0x1 SWAP1 SUB SWAP1 PUSH0 MSTORE PUSH1 0x20 PUSH0 KECCAK256 SWAP1 PUSH1 0x3 MUL ADD PUSH0 SWAP1 SWAP2 SWAP1 SWAP2 SWAP1 SWAP2 POP PUSH0 DUP3 ADD MLOAD DUP2 PUSH0 ADD SWAP1 DUP2 PUSH2 0x643 SWAP2 SWAP1 PUSH2 0x13BC JUMP JUMPDEST POP PUSH1 0x20 DUP3 ADD MLOAD DUP2 PUSH1 0x1 ADD SWAP1 DUP2 PUSH2 0x659 SWAP2 SWAP1 PUSH2 0x13BC JUMP JUMPDEST POP PUSH1 0x40 DUP3 ADD MLOAD DUP2 PUSH1 0x2 ADD PUSH0 PUSH2 0x100 EXP DUP2 SLOAD DUP2 PUSH1 0xFF MUL NOT AND SWAP1 DUP4 ISZERO ISZERO MUL OR SWAP1 SSTORE POP PUSH1 0x60 DUP3 ADD MLOAD DUP2 PUSH1 0x2 ADD PUSH1 0x1 PUSH2 0x100 EXP DUP2 SLOAD DUP2 PUSH1 0xFF MUL NOT AND SWAP1 DUP4 ISZERO ISZERO MUL OR SWAP1 SSTORE POP POP POP PUSH31 0x9B4A26434BF628985823F51FA800C6230E24E0284BC40B22877AC82104DD0C CALLER DUP7 DUP7 PUSH1 0x40 MLOAD PUSH2 0x6CD SWAP4 SWAP3 SWAP2 SWAP1 PUSH2 0x14D4 JUMP JUMPDEST PUSH1 0x40 MLOAD DUP1 SWAP2 SUB SWAP1 LOG1 PUSH1 0x1 SWAP1 POP SWAP5 SWAP4 POP POP POP POP JUMP JUMPDEST PUSH0 PUSH1 0x20 MSTORE DUP2 PUSH0 MSTORE PUSH1 0x40 PUSH0 KECCAK256 DUP2 DUP2 SLOAD DUP2 LT PUSH2 0x6F9 JUMPI PUSH0 DUP1 REVERT JUMPDEST SWAP1 PUSH0 MSTORE PUSH1 0x20 PUSH0 KECCAK256 SWAP1 PUSH1 0x3 MUL ADD PUSH0 SWAP2 POP SWAP2 POP POP DUP1 PUSH0 ADD DUP1 SLOAD PUSH2 0x719 SWAP1 PUSH2 0x1110 JUMP JUMPDEST DUP1 PUSH1 0x1F ADD PUSH1 0x20 DUP1 SWAP2 DIV MUL PUSH1 0x20 ADD PUSH1 0x40 MLOAD SWAP1 DUP2 ADD PUSH1 0x40 MSTORE DUP1 SWAP3 SWAP2 SWAP1 DUP2 DUP2 MSTORE PUSH1 0x20 ADD DUP3 DUP1 SLOAD PUSH2 0x745 SWAP1 PUSH2 0x1110 JUMP JUMPDEST DUP1 ISZERO PUSH2 0x790 JUMPI DUP1 PUSH1 0x1F LT PUSH2 0x767 JUMPI PUSH2 0x100 DUP1 DUP4 SLOAD DIV MUL DUP4 MSTORE SWAP2 PUSH1 0x20 ADD SWAP2 PUSH2 0x790 JUMP JUMPDEST DUP3 ADD SWAP2 SWAP1 PUSH0 MSTORE PUSH1 0x20 PUSH0 KECCAK256 SWAP1 JUMPDEST DUP2 SLOAD DUP2 MSTORE SWAP1 PUSH1 0x1 ADD SWAP1 PUSH1 0x20 ADD DUP1 DUP4 GT PUSH2 0x773 JUMPI DUP3 SWAP1 SUB PUSH1 0x1F AND DUP3 ADD SWAP2 JUMPDEST POP POP POP POP POP SWAP1 DUP1 PUSH1 0x1 ADD DUP1 SLOAD PUSH2 0x7A5 SWAP1 PUSH2 0x1110 JUMP JUMPDEST DUP1 PUSH1 0x1F ADD PUSH1 0x20 DUP1 SWAP2 DIV MUL PUSH1 0x20 ADD PUSH1 0x40 MLOAD SWAP1 DUP2 ADD PUSH1 0x40 MSTORE DUP1 SWAP3 SWAP2 SWAP1 DUP2 DUP2 MSTORE PUSH1 0x20 ADD DUP3 DUP1 SLOAD PUSH2 0x7D1 SWAP1 PUSH2 0x1110 JUMP JUMPDEST DUP1 ISZERO PUSH2 0x81C JUMPI DUP1 PUSH1 0x1F LT PUSH2 0x7F3 JUMPI PUSH2 0x100 DUP1 DUP4 SLOAD DIV MUL DUP4 MSTORE SWAP2 PUSH1 0x20 ADD SWAP2 PUSH2 0x81C JUMP JUMPDEST DUP3 ADD SWAP2 SWAP1 PUSH0 MSTORE PUSH1 0x20 PUSH0 KECCAK256 SWAP1 JUMPDEST DUP2 SLOAD DUP2 MSTORE SWAP1 PUSH1 0x1 ADD SWAP1 PUSH1 0x20 ADD DUP1 DUP4 GT PUSH2 0x7FF JUMPI DUP3 SWAP1 SUB PUSH1 0x1F AND DUP3 ADD SWAP2 JUMPDEST POP POP POP POP POP SWAP1 DUP1 PUSH1 0x2 ADD PUSH0 SWAP1 SLOAD SWAP1 PUSH2 0x100 EXP SWAP1 DIV PUSH1 0xFF AND SWAP1 DUP1 PUSH1 0x2 ADD PUSH1 0x1 SWAP1 SLOAD SWAP1 PUSH2 0x100 EXP SWAP1 DIV PUSH1 0xFF AND SWAP1 POP DUP5 JUMP JUMPDEST PUSH0 PUSH0 PUSH0 CALLER PUSH20 0xFFFFFFFFFFFFFFFFFFFFFFFFFFFFFFFFFFFFFFFF AND PUSH20 0xFFFFFFFFFFFFFFFFFFFFFFFFFFFFFFFFFFFFFFFF AND DUP2 MSTORE PUSH1 0x20 ADD SWAP1 DUP2 MSTORE PUSH1 0x20 ADD PUSH0 KECCAK256 SWAP1 POP PUSH0 PUSH0 SWAP1 POP JUMPDEST DUP4 DUP4 SWAP1 POP DUP2 LT ISZERO PUSH2 0xAA0 JUMPI PUSH0 DUP5 DUP5 DUP4 DUP2 DUP2 LT PUSH2 0x8AE JUMPI PUSH2 0x8AD PUSH2 0xFE6 JUMP JUMPDEST JUMPDEST SWAP1 POP PUSH1 0x20 MUL ADD PUSH1 0x20 DUP2 ADD SWAP1 PUSH2 0x8C3 SWAP2 SWAP1 PUSH2 0xAE4 JUMP JUMPDEST SWAP1 POP PUSH0 PUSH0 CALLER PUSH20 0xFFFFFFFFFFFFFFFFFFFFFFFFFFFFFFFFFFFFFFFF AND PUSH20 0xFFFFFFFFFFFFFFFFFFFFFFFFFFFFFFFFFFFFFFFF AND DUP2 MSTORE PUSH1 0x20 ADD SWAP1 DUP2 MSTORE PUSH1 0x20 ADD PUSH0 KECCAK256 DUP1 SLOAD SWAP1 POP DUP2 PUSH1 0xFF AND LT PUSH2 0x949 JUMPI PUSH1 0x40 MLOAD PUSH32 0x8C379A000000000000000000000000000000000000000000000000000000000 DUP2 MSTORE PUSH1 0x4 ADD PUSH2 0x940 SWAP1 PUSH2 0x154E JUMP JUMPDEST PUSH1 0x40 MLOAD DUP1 SWAP2 SUB SWAP1 REVERT JUMPDEST PUSH0 PUSH0 CALLER PUSH20 0xFFFFFFFFFFFFFFFFFFFFFFFFFFFFFFFFFFFFFFFF AND PUSH20 0xFFFFFFFFFFFFFFFFFFFFFFFFFFFFFFFFFFFFFFFF AND DUP2 MSTORE PUSH1 0x20 ADD SWAP1 DUP2 MSTORE PUSH1 0x20 ADD PUSH0 KECCAK256 DUP2 PUSH1 0xFF AND DUP2 SLOAD DUP2 LT PUSH2 0x99A JUMPI PUSH2 0x999 PUSH2 0xFE6 JUMP JUMPDEST JUMPDEST SWAP1 PUSH0 MSTORE PUSH1 0x20 PUSH0 KECCAK256 SWAP1 PUSH1 0x3 MUL ADD PUSH1 0x2 ADD PUSH1 0x1 SWAP1 SLOAD SWAP1 PUSH2 0x100 EXP SWAP1 DIV PUSH1 0xFF AND ISZERO PUSH2 0x9F7 JUMPI PUSH1 0x40 MLOAD PUSH32 0x8C379A000000000000000000000000000000000000000000000000000000000 DUP2 MSTORE PUSH1 0x4 ADD PUSH2 0x9EE SWAP1 PUSH2 0x10C5 JUMP JUMPDEST PUSH1 0x40 MLOAD DUP1 SWAP2 SUB SWAP1 REVERT JUMPDEST PUSH1 0x1 DUP4 DUP3 PUSH1 0xFF AND DUP2 SLOAD DUP2 LT PUSH2 0xA0F JUMPI PUSH2 0xA0E PUSH2 0xFE6 JUMP JUMPDEST JUMPDEST SWAP1 PUSH0 MSTORE PUSH1 0x20 PUSH0 KECCAK256 SWAP1 PUSH1 0x3 MUL ADD PUSH1 0x2 ADD PUSH1 0x1 PUSH2 0x100 EXP DUP2 SLOAD DUP2 PUSH1 0xFF MUL NOT AND SWAP1 DUP4 ISZERO ISZERO MUL OR SWAP1 SSTORE POP PUSH32 0x9534F516785FE8BDBA306243D0961A83772F11490E6BB6562D880807B3625690 DUP4 DUP3 PUSH1 0xFF AND DUP2 SLOAD DUP2 LT PUSH2 0xA6C JUMPI PUSH2 0xA6B PUSH2 0xFE6 JUMP JUMPDEST JUMPDEST SWAP1 PUSH0 MSTORE PUSH1 0x20 PUSH0 KECCAK256 SWAP1 PUSH1 0x3 MUL ADD PUSH0 ADD PUSH1 0x1 PUSH1 0x40 MLOAD PUSH2 0xA8A SWAP3 SWAP2 SWAP1 PUSH2 0x11D3 JUMP JUMPDEST PUSH1 0x40 MLOAD DUP1 SWAP2 SUB SWAP1 LOG1 POP DUP1 DUP1 PUSH1 0x1 ADD SWAP2 POP POP PUSH2 0x88F JUMP JUMPDEST POP POP POP POP JUMP JUMPDEST PUSH0 PUSH0 REVERT JUMPDEST PUSH0 PUSH0 REVERT JUMPDEST PUSH0 PUSH1 0xFF DUP3 AND SWAP1 POP SWAP2 SWAP1 POP JUMP JUMPDEST PUSH2 0xAC3 DUP2 PUSH2 0xAAE JUMP JUMPDEST DUP2 EQ PUSH2 0xACD JUMPI PUSH0 PUSH0 REVERT JUMPDEST POP JUMP JUMPDEST PUSH0 DUP2 CALLDATALOAD SWAP1 POP PUSH2 0xADE DUP2 PUSH2 0xABA JUMP JUMPDEST SWAP3 SWAP2 POP POP JUMP JUMPDEST PUSH0 PUSH1 0x20 DUP3 DUP5 SUB SLT ISZERO PUSH2 0xAF9 JUMPI PUSH2 0xAF8 PUSH2 0xAA6 JUMP JUMPDEST JUMPDEST PUSH0 PUSH2 0xB06 DUP5 DUP3 DUP6 ADD PUSH2 0xAD0 JUMP JUMPDEST SWAP2 POP POP SWAP3 SWAP2 POP POP JUMP JUMPDEST PUSH0 DUP2 MLOAD SWAP1 POP SWAP2 SWAP1 POP JUMP JUMPDEST PUSH0 DUP3 DUP3 MSTORE PUSH1 0x20 DUP3 ADD SWAP1 POP SWAP3 SWAP2 POP POP JUMP JUMPDEST PUSH0 DUP2 SWAP1 POP PUSH1 0x20 DUP3 ADD SWAP1 POP SWAP2 SWAP1 POP JUMP JUMPDEST PUSH0 DUP2 MLOAD SWAP1 POP SWAP2 SWAP1 POP JUMP JUMPDEST PUSH0 DUP3 DUP3 MSTORE PUSH1 0x20 DUP3 ADD SWAP1 POP SWAP3 SWAP2 POP POP JUMP JUMPDEST DUP3 DUP2 DUP4 MCOPY PUSH0 DUP4 DUP4 ADD MSTORE POP POP POP JUMP JUMPDEST PUSH0 PUSH1 0x1F NOT PUSH1 0x1F DUP4 ADD AND SWAP1 POP SWAP2 SWAP1 POP JUMP JUMPDEST PUSH0 PUSH2 0xB7A DUP3 PUSH2 0xB38 JUMP JUMPDEST PUSH2 0xB84 DUP2 DUP6 PUSH2 0xB42 JUMP JUMPDEST SWAP4 POP PUSH2 0xB94 DUP2 DUP6 PUSH1 0x20 DUP7 ADD PUSH2 0xB52 JUMP JUMPDEST PUSH2 0xB9D DUP2 PUSH2 0xB60 JUMP JUMPDEST DUP5 ADD SWAP2 POP POP SWAP3 SWAP2 POP POP JUMP JUMPDEST PUSH0 DUP2 ISZERO ISZERO SWAP1 POP SWAP2 SWAP1 POP JUMP JUMPDEST PUSH2 0xBBC DUP2 PUSH2 0xBA8 JUMP JUMPDEST DUP3 MSTORE POP POP JUMP JUMPDEST PUSH0 PUSH1 0x80 DUP4 ADD PUSH0 DUP4 ADD MLOAD DUP5 DUP3 SUB PUSH0 DUP7 ADD MSTORE PUSH2 0xBDC DUP3 DUP3 PUSH2 0xB70 JUMP JUMPDEST SWAP2 POP POP PUSH1 0x20 DUP4 ADD MLOAD DUP5 DUP3 SUB PUSH1 0x20 DUP7 ADD MSTORE PUSH2 0xBF6 DUP3 DUP3 PUSH2 0xB70 JUMP JUMPDEST SWAP2 POP POP PUSH1 0x40 DUP4 ADD MLOAD PUSH2 0xC0B PUSH1 0x40 DUP7 ADD DUP3 PUSH2 0xBB3 JUMP JUMPDEST POP PUSH1 0x60 DUP4 ADD MLOAD PUSH2 0xC1E PUSH1 0x60 DUP7 ADD DUP3 PUSH2 0xBB3 JUMP JUMPDEST POP DUP1 SWAP2 POP POP SWAP3 SWAP2 POP POP JUMP JUMPDEST PUSH0 PUSH2 0xC34 DUP4 DUP4 PUSH2 0xBC2 JUMP JUMPDEST SWAP1 POP SWAP3 SWAP2 POP POP JUMP JUMPDEST PUSH0 PUSH1 0x20 DUP3 ADD SWAP1 POP SWAP2 SWAP1 POP JUMP JUMPDEST PUSH0 PUSH2 0xC52 DUP3 PUSH2 0xB0F JUMP JUMPDEST PUSH2 0xC5C DUP2 DUP6 PUSH2 0xB19 JUMP JUMPDEST SWAP4 POP DUP4 PUSH1 0x20 DUP3 MUL DUP6 ADD PUSH2 0xC6E DUP6 PUSH2 0xB29 JUMP JUMPDEST DUP1 PUSH0 JUMPDEST DUP6 DUP2 LT ISZERO PUSH2 0xCA9 JUMPI DUP5 DUP5 SUB DUP10 MSTORE DUP2 MLOAD PUSH2 0xC8A DUP6 DUP3 PUSH2 0xC29 JUMP JUMPDEST SWAP5 POP PUSH2 0xC95 DUP4 PUSH2 0xC3C JUMP JUMPDEST SWAP3 POP PUSH1 0x20 DUP11 ADD SWAP10 POP POP PUSH1 0x1 DUP2 ADD SWAP1 POP PUSH2 0xC71 JUMP JUMPDEST POP DUP3 SWAP8 POP DUP8 SWAP6 POP POP POP POP POP POP SWAP3 SWAP2 POP POP JUMP JUMPDEST PUSH0 PUSH1 0x20 DUP3 ADD SWAP1 POP DUP2 DUP2 SUB PUSH0 DUP4 ADD MSTORE PUSH2 0xCD3 DUP2 DUP5 PUSH2 0xC48 JUMP JUMPDEST SWAP1 POP SWAP3 SWAP2 POP POP JUMP JUMPDEST PUSH0 PUSH0 REVERT JUMPDEST PUSH0 PUSH0 REVERT JUMPDEST PUSH0 PUSH0 REVERT JUMPDEST PUSH0 PUSH0 DUP4 PUSH1 0x1F DUP5 ADD SLT PUSH2 0xCFC JUMPI PUSH2 0xCFB PUSH2 0xCDB JUMP JUMPDEST JUMPDEST DUP3 CALLDATALOAD SWAP1 POP PUSH8 0xFFFFFFFFFFFFFFFF DUP2 GT ISZERO PUSH2 0xD19 JUMPI PUSH2 0xD18 PUSH2 0xCDF JUMP JUMPDEST JUMPDEST PUSH1 0x20 DUP4 ADD SWAP2 POP DUP4 PUSH1 0x1 DUP3 MUL DUP4 ADD GT ISZERO PUSH2 0xD35 JUMPI PUSH2 0xD34 PUSH2 0xCE3 JUMP JUMPDEST JUMPDEST SWAP3 POP SWAP3 SWAP1 POP JUMP JUMPDEST PUSH0 PUSH0 PUSH0 PUSH0 PUSH1 0x40 DUP6 DUP8 SUB SLT ISZERO PUSH2 0xD54 JUMPI PUSH2 0xD53 PUSH2 0xAA6 JUMP JUMPDEST JUMPDEST PUSH0 DUP6 ADD CALLDATALOAD PUSH8 0xFFFFFFFFFFFFFFFF DUP2 GT ISZERO PUSH2 0xD71 JUMPI PUSH2 0xD70 PUSH2 0xAAA JUMP JUMPDEST JUMPDEST PUSH2 0xD7D DUP8 DUP3 DUP9 ADD PUSH2 0xCE7 JUMP JUMPDEST SWAP5 POP SWAP5 POP POP PUSH1 0x20 DUP6 ADD CALLDATALOAD PUSH8 0xFFFFFFFFFFFFFFFF DUP2 GT ISZERO PUSH2 0xDA0 JUMPI PUSH2 0xD9F PUSH2 0xAAA JUMP JUMPDEST JUMPDEST PUSH2 0xDAC DUP8 DUP3 DUP9 ADD PUSH2 0xCE7 JUMP JUMPDEST SWAP3 POP SWAP3 POP POP SWAP3 SWAP6 SWAP2 SWAP5 POP SWAP3 POP JUMP JUMPDEST PUSH2 0xDC3 DUP2 PUSH2 0xBA8 JUMP JUMPDEST DUP3 MSTORE POP POP JUMP JUMPDEST PUSH0 PUSH1 0x20 DUP3 ADD SWAP1 POP PUSH2 0xDDC PUSH0 DUP4 ADD DUP5 PUSH2 0xDBA JUMP JUMPDEST SWAP3 SWAP2 POP POP JUMP JUMPDEST PUSH0 PUSH20 0xFFFFFFFFFFFFFFFFFFFFFFFFFFFFFFFFFFFFFFFF DUP3 AND SWAP1 POP SWAP2 SWAP1 POP JUMP JUMPDEST PUSH0 PUSH2 0xE0B DUP3 PUSH2 0xDE2 JUMP JUMPDEST SWAP1 POP SWAP2 SWAP1 POP JUMP JUMPDEST PUSH2 0xE1B DUP2 PUSH2 0xE01 JUMP JUMPDEST DUP2 EQ PUSH2 0xE25 JUMPI PUSH0 PUSH0 REVERT JUMPDEST POP JUMP JUMPDEST PUSH0 DUP2 CALLDATALOAD SWAP1 POP PUSH2 0xE36 DUP2 PUSH2 0xE12 JUMP JUMPDEST SWAP3 SWAP2 POP POP JUMP JUMPDEST PUSH0 DUP2 SWAP1 POP SWAP2 SWAP1 POP JUMP JUMPDEST PUSH2 0xE4E DUP2 PUSH2 0xE3C JUMP JUMPDEST DUP2 EQ PUSH2 0xE58 JUMPI PUSH0 PUSH0 REVERT JUMPDEST POP JUMP JUMPDEST PUSH0 DUP2 CALLDATALOAD SWAP1 POP PUSH2 0xE69 DUP2 PUSH2 0xE45 JUMP JUMPDEST SWAP3 SWAP2 POP POP JUMP JUMPDEST PUSH0 PUSH0 PUSH1 0x40 DUP4 DUP6 SUB SLT ISZERO PUSH2 0xE85 JUMPI PUSH2 0xE84 PUSH2 0xAA6 JUMP JUMPDEST JUMPDEST PUSH0 PUSH2 0xE92 DUP6 DUP3 DUP7 ADD PUSH2 0xE28 JUMP JUMPDEST SWAP3 POP POP PUSH1 0x20 PUSH2 0xEA3 DUP6 DUP3 DUP7 ADD PUSH2 0xE5B JUMP JUMPDEST SWAP2 POP POP SWAP3 POP SWAP3 SWAP1 POP JUMP JUMPDEST PUSH0 DUP3 DUP3 MSTORE PUSH1 0x20 DUP3 ADD SWAP1 POP SWAP3 SWAP2 POP POP JUMP JUMPDEST PUSH0 PUSH2 0xEC7 DUP3 PUSH2 0xB38 JUMP JUMPDEST PUSH2 0xED1 DUP2 DUP6 PUSH2 0xEAD JUMP JUMPDEST SWAP4 POP PUSH2 0xEE1 DUP2 DUP6 PUSH1 0x20 DUP7 ADD PUSH2 0xB52 JUMP JUMPDEST PUSH2 0xEEA DUP2 PUSH2 0xB60 JUMP JUMPDEST DUP5 ADD SWAP2 POP POP SWAP3 SWAP2 POP POP JUMP JUMPDEST PUSH0 PUSH1 0x80 DUP3 ADD SWAP1 POP DUP2 DUP2 SUB PUSH0 DUP4 ADD MSTORE PUSH2 0xF0D DUP2 DUP8 PUSH2 0xEBD JUMP JUMPDEST SWAP1 POP DUP2 DUP2 SUB PUSH1 0x20 DUP4 ADD MSTORE PUSH2 0xF21 DUP2 DUP7 PUSH2 0xEBD JUMP JUMPDEST SWAP1 POP PUSH2 0xF30 PUSH1 0x40 DUP4 ADD DUP6 PUSH2 0xDBA JUMP JUMPDEST PUSH2 0xF3D PUSH1 0x60 DUP4 ADD DUP5 PUSH2 0xDBA JUMP JUMPDEST SWAP6 SWAP5 POP POP POP POP POP JUMP JUMPDEST PUSH0 PUSH0 DUP4 PUSH1 0x1F DUP5 ADD SLT PUSH2 0xF5B JUMPI PUSH2 0xF5A PUSH2 0xCDB JUMP JUMPDEST JUMPDEST DUP3 CALLDATALOAD SWAP1 POP PUSH8 0xFFFFFFFFFFFFFFFF DUP2 GT ISZERO PUSH2 0xF78 JUMPI PUSH2 0xF77 PUSH2 0xCDF JUMP JUMPDEST JUMPDEST PUSH1 0x20 DUP4 ADD SWAP2 POP DUP4 PUSH1 0x20 DUP3 MUL DUP4 ADD GT ISZERO PUSH2 0xF94 JUMPI PUSH2 0xF93 PUSH2 0xCE3 JUMP JUMPDEST JUMPDEST SWAP3 POP SWAP3 SWAP1 POP JUMP JUMPDEST PUSH0 PUSH0 PUSH1 0x20 DUP4 DUP6 SUB SLT ISZERO PUSH2 0xFB1 JUMPI PUSH2 0xFB0 PUSH2 0xAA6 JUMP JUMPDEST JUMPDEST PUSH0 DUP4 ADD CALLDATALOAD PUSH8 0xFFFFFFFFFFFFFFFF DUP2 GT ISZERO PUSH2 0xFCE JUMPI PUSH2 0xFCD PUSH2 0xAAA JUMP JUMPDEST JUMPDEST PUSH2 0xFDA DUP6 DUP3 DUP7 ADD PUSH2 0xF46 JUMP JUMPDEST SWAP3 POP SWAP3 POP POP SWAP3 POP SWAP3 SWAP1 POP JUMP JUMPDEST PUSH32 0x4E487B7100000000000000000000000000000000000000000000000000000000 PUSH0 MSTORE PUSH1 0x32 PUSH1 0x4 MSTORE PUSH1 0x24 PUSH0 REVERT JUMPDEST PUSH32 0x416C72656164792046696E697368656400000000000000000000000000000000 PUSH0 DUP3 ADD MSTORE POP JUMP JUMPDEST PUSH0 PUSH2 0x1047 PUSH1 0x10 DUP4 PUSH2 0xEAD JUMP JUMPDEST SWAP2 POP PUSH2 0x1052 DUP3 PUSH2 0x1013 JUMP JUMPDEST PUSH1 0x20 DUP3 ADD SWAP1 POP SWAP2 SWAP1 POP JUMP JUMPDEST PUSH0 PUSH1 0x20 DUP3 ADD SWAP1 POP DUP2 DUP2 SUB PUSH0 DUP4 ADD MSTORE PUSH2 0x1074 DUP2 PUSH2 0x103B JUMP JUMPDEST SWAP1 POP SWAP2 SWAP1 POP JUMP JUMPDEST PUSH32 0x416C72656164792044656C657465640000000000000000000000000000000000 PUSH0 DUP3 ADD MSTORE POP JUMP JUMPDEST PUSH0 PUSH2 0x10AF PUSH1 0xF DUP4 PUSH2 0xEAD JUMP JUMPDEST SWAP2 POP PUSH2 0x10BA DUP3 PUSH2 0x107B JUMP JUMPDEST PUSH1 0x20 DUP3 ADD SWAP1 POP SWAP2 SWAP1 POP JUMP JUMPDEST PUSH0 PUSH1 0x20 DUP3 ADD SWAP1 POP DUP2 DUP2 SUB PUSH0 DUP4 ADD MSTORE PUSH2 0x10DC DUP2 PUSH2 0x10A3 JUMP JUMPDEST SWAP1 POP SWAP2 SWAP1 POP JUMP JUMPDEST PUSH32 0x4E487B7100000000000000000000000000000000000000000000000000000000 PUSH0 MSTORE PUSH1 0x22 PUSH1 0x4 MSTORE PUSH1 0x24 PUSH0 REVERT JUMPDEST PUSH0 PUSH1 0x2 DUP3 DIV SWAP1 POP PUSH1 0x1 DUP3 AND DUP1 PUSH2 0x1127 JUMPI PUSH1 0x7F DUP3 AND SWAP2 POP JUMPDEST PUSH1 0x20 DUP3 LT DUP2 SUB PUSH2 0x113A JUMPI PUSH2 0x1139 PUSH2 0x10E3 JUMP JUMPDEST JUMPDEST POP SWAP2 SWAP1 POP JUMP JUMPDEST PUSH0 DUP2 SWAP1 POP DUP2 PUSH0 MSTORE PUSH1 0x20 PUSH0 KECCAK256 SWAP1 POP SWAP2 SWAP1 POP JUMP JUMPDEST PUSH0 DUP2 SLOAD PUSH2 0x115E DUP2 PUSH2 0x1110 JUMP JUMPDEST PUSH2 0x1168 DUP2 DUP7 PUSH2 0xEAD JUMP JUMPDEST SWAP5 POP PUSH1 0x1 DUP3 AND PUSH0 DUP2 EQ PUSH2 0x1182 JUMPI PUSH1 0x1 DUP2 EQ PUSH2 0x1198 JUMPI PUSH2 0x11CA JUMP JUMPDEST PUSH1 0xFF NOT DUP4 AND DUP7 MSTORE DUP2 ISZERO ISZERO PUSH1 0x20 MUL DUP7 ADD SWAP4 POP PUSH2 0x11CA JUMP JUMPDEST PUSH2 0x11A1 DUP6 PUSH2 0x1140 JUMP JUMPDEST PUSH0 JUMPDEST DUP4 DUP2 LT ISZERO PUSH2 0x11C2 JUMPI DUP2 SLOAD DUP2 DUP10 ADD MSTORE PUSH1 0x1 DUP3 ADD SWAP2 POP PUSH1 0x20 DUP2 ADD SWAP1 POP PUSH2 0x11A3 JUMP JUMPDEST DUP1 DUP9 ADD SWAP6 POP POP POP JUMPDEST POP POP POP SWAP3 SWAP2 POP POP JUMP JUMPDEST PUSH0 PUSH1 0x40 DUP3 ADD SWAP1 POP DUP2 DUP2 SUB PUSH0 DUP4 ADD MSTORE PUSH2 0x11EB DUP2 DUP6 PUSH2 0x1152 JUMP JUMPDEST SWAP1 POP PUSH2 0x11FA PUSH1 0x20 DUP4 ADD DUP5 PUSH2 0xDBA JUMP JUMPDEST SWAP4 SWAP3 POP POP POP JUMP JUMPDEST PUSH32 0x4E487B7100000000000000000000000000000000000000000000000000000000 PUSH0 MSTORE PUSH1 0x41 PUSH1 0x4 MSTORE PUSH1 0x24 PUSH0 REVERT JUMPDEST PUSH0 PUSH1 0x20 PUSH1 0x1F DUP4 ADD DIV SWAP1 POP SWAP2 SWAP1 POP JUMP JUMPDEST PUSH0 DUP3 DUP3 SHL SWAP1 POP SWAP3 SWAP2 POP POP JUMP JUMPDEST PUSH0 PUSH1 0x8 DUP4 MUL PUSH2 0x1278 PUSH32 0xFFFFFFFFFFFFFFFFFFFFFFFFFFFFFFFFFFFFFFFFFFFFFFFFFFFFFFFFFFFFFFFF DUP3 PUSH2 0x123D JUMP JUMPDEST PUSH2 0x1282 DUP7 DUP4 PUSH2 0x123D JUMP JUMPDEST SWAP6 POP DUP1 NOT DUP5 AND SWAP4 POP DUP1 DUP7 AND DUP5 OR SWAP3 POP POP POP SWAP4 SWAP3 POP POP POP JUMP JUMPDEST PUSH0 DUP2 SWAP1 POP SWAP2 SWAP1 POP JUMP JUMPDEST PUSH0 PUSH2 0x12BD PUSH2 0x12B8 PUSH2 0x12B3 DUP5 PUSH2 0xE3C JUMP JUMPDEST PUSH2 0x129A JUMP JUMPDEST PUSH2 0xE3C JUMP JUMPDEST SWAP1 POP SWAP2 SWAP1 POP JUMP JUMPDEST PUSH0 DUP2 SWAP1 POP SWAP2 SWAP1 POP JUMP JUMPDEST PUSH2 0x12D6 DUP4 PUSH2 0x12A3 JUMP JUMPDEST PUSH2 0x12EA PUSH2 0x12E2 DUP3 PUSH2 0x12C4 JUMP JUMPDEST DUP5 DUP5 SLOAD PUSH2 0x1249 JUMP JUMPDEST DUP3 SSTORE POP POP POP POP JUMP JUMPDEST PUSH0 PUSH0 SWAP1 POP SWAP1 JUMP JUMPDEST PUSH2 0x1301 PUSH2 0x12F2 JUMP JUMPDEST PUSH2 0x130C DUP2 DUP5 DUP5 PUSH2 0x12CD JUMP JUMPDEST POP POP POP JUMP JUMPDEST JUMPDEST DUP2 DUP2 LT ISZERO PUSH2 0x132F JUMPI PUSH2 0x1324 PUSH0 DUP3 PUSH2 0x12F9 JUMP JUMPDEST PUSH1 0x1 DUP2 ADD SWAP1 POP PUSH2 0x1312 JUMP JUMPDEST POP POP JUMP JUMPDEST PUSH1 0x1F DUP3 GT ISZERO PUSH2 0x1374 JUMPI PUSH2 0x1345 DUP2 PUSH2 0x1140 JUMP JUMPDEST PUSH2 0x134E DUP5 PUSH2 0x122E JUMP JUMPDEST DUP2 ADD PUSH1 0x20 DUP6 LT ISZERO PUSH2 0x135D JUMPI DUP2 SWAP1 POP JUMPDEST PUSH2 0x1371 PUSH2 0x1369 DUP6 PUSH2 0x122E JUMP JUMPDEST DUP4 ADD DUP3 PUSH2 0x1311 JUMP JUMPDEST POP POP JUMPDEST POP POP POP JUMP JUMPDEST PUSH0 DUP3 DUP3 SHR SWAP1 POP SWAP3 SWAP2 POP POP JUMP JUMPDEST PUSH0 PUSH2 0x1394 PUSH0 NOT DUP5 PUSH1 0x8 MUL PUSH2 0x1379 JUMP JUMPDEST NOT DUP1 DUP4 AND SWAP2 POP POP SWAP3 SWAP2 POP POP JUMP JUMPDEST PUSH0 PUSH2 0x13AC DUP4 DUP4 PUSH2 0x1385 JUMP JUMPDEST SWAP2 POP DUP3 PUSH1 0x2 MUL DUP3 OR SWAP1 POP SWAP3 SWAP2 POP POP JUMP JUMPDEST PUSH2 0x13C5 DUP3 PUSH2 0xB38 JUMP JUMPDEST PUSH8 0xFFFFFFFFFFFFFFFF DUP2 GT ISZERO PUSH2 0x13DE JUMPI PUSH2 0x13DD PUSH2 0x1201 JUMP JUMPDEST JUMPDEST PUSH2 0x13E8 DUP3 SLOAD PUSH2 0x1110 JUMP JUMPDEST PUSH2 0x13F3 DUP3 DUP3 DUP6 PUSH2 0x1333 JUMP JUMPDEST PUSH0 PUSH1 0x20 SWAP1 POP PUSH1 0x1F DUP4 GT PUSH1 0x1 DUP2 EQ PUSH2 0x1424 JUMPI PUSH0 DUP5 ISZERO PUSH2 0x1412 JUMPI DUP3 DUP8 ADD MLOAD SWAP1 POP JUMPDEST PUSH2 0x141C DUP6 DUP3 PUSH2 0x13A1 JUMP JUMPDEST DUP7 SSTORE POP PUSH2 0x1483 JUMP JUMPDEST PUSH1 0x1F NOT DUP5 AND PUSH2 0x1432 DUP7 PUSH2 0x1140 JUMP JUMPDEST PUSH0 JUMPDEST DUP3 DUP2 LT ISZERO PUSH2 0x1459 JUMPI DUP5 DUP10 ADD MLOAD DUP3 SSTORE PUSH1 0x1 DUP3 ADD SWAP2 POP PUSH1 0x20 DUP6 ADD SWAP5 POP PUSH1 0x20 DUP2 ADD SWAP1 POP PUSH2 0x1434 JUMP JUMPDEST DUP7 DUP4 LT ISZERO PUSH2 0x1476 JUMPI DUP5 DUP10 ADD MLOAD PUSH2 0x1472 PUSH1 0x1F DUP10 AND DUP3 PUSH2 0x1385 JUMP JUMPDEST DUP4 SSTORE POP JUMPDEST PUSH1 0x1 PUSH1 0x2 DUP9 MUL ADD DUP9 SSTORE POP POP POP JUMPDEST POP POP POP POP POP POP JUMP JUMPDEST PUSH2 0x1494 DUP2 PUSH2 0xE01 JUMP JUMPDEST DUP3 MSTORE POP POP JUMP JUMPDEST DUP3 DUP2 DUP4 CALLDATACOPY PUSH0 DUP4 DUP4 ADD MSTORE POP POP POP JUMP JUMPDEST PUSH0 PUSH2 0x14B3 DUP4 DUP6 PUSH2 0xEAD JUMP JUMPDEST SWAP4 POP PUSH2 0x14C0 DUP4 DUP6 DUP5 PUSH2 0x149A JUMP JUMPDEST PUSH2 0x14C9 DUP4 PUSH2 0xB60 JUMP JUMPDEST DUP5 ADD SWAP1 POP SWAP4 SWAP3 POP POP POP JUMP JUMPDEST PUSH0 PUSH1 0x40 DUP3 ADD SWAP1 POP PUSH2 0x14E7 PUSH0 DUP4 ADD DUP7 PUSH2 0x148B JUMP JUMPDEST DUP2 DUP2 SUB PUSH1 0x20 DUP4 ADD MSTORE PUSH2 0x14FA DUP2 DUP5 DUP7 PUSH2 0x14A8 JUMP JUMPDEST SWAP1 POP SWAP5 SWAP4 POP POP POP POP JUMP JUMPDEST PUSH32 0x496E76616C696420496E64657800000000000000000000000000000000000000 PUSH0 DUP3 ADD MSTORE POP JUMP JUMPDEST PUSH0 PUSH2 0x1538 PUSH1 0xD DUP4 PUSH2 0xEAD JUMP JUMPDEST SWAP2 POP PUSH2 0x1543 DUP3 PUSH2 0x1504 JUMP JUMPDEST PUSH1 0x20 DUP3 ADD SWAP1 POP SWAP2 SWAP1 POP JUMP JUMPDEST PUSH0 PUSH1 0x20 DUP3 ADD SWAP1 POP DUP2 DUP2 SUB PUSH0 DUP4 ADD MSTORE PUSH2 0x1565 DUP2 PUSH2 0x152C JUMP JUMPDEST SWAP1 POP SWAP2 SWAP1 POP JUMP INVALID LOG2 PUSH5 0x6970667358 0x22 SLT KECCAK256 DUP3 CALLF 0x2277 PUSH21 0xE173201089241B25A766287B513D97024B21664F2 CREATE SWAP5 PUSH22 0xAE8E8A64736F6C634300081E00330000000000000000 "
				},
				"gasEstimates": {
					"creation": {
						"codeDepositCost": "1107600",
						"executionCost": "1152",
						"totalCost": "1108752"
					},
					"external": {
						"addTask(string,string)": "infinite",
						"deleteTask(uint8[])": "infinite",
						"getTodo()": "infinite",
						"lists(address,uint256)": "infinite",
						"marked(uint8)": "infinite"
					}
				},
				"methodIdentifiers": {
					"addTask(string,string)": "b37b1000",
					"deleteTask(uint8[])": "c71375ac",
					"getTodo()": "7fa1680a",
					"lists(address,uint256)": "c50a2def",
					"marked(uint8)": "36662c42"
				}
			},
			"storageLayout": {
				"storage": [
					{
						"astId": 16,
						"contract": "TodoList/TodoList.sol:TodoList",
						"label": "lists",
						"offset": 0,
						"slot": "0",
						"type": "t_mapping(t_address,t_array(t_struct(Todo)10_storage)dyn_storage)"
					}
				],
				"types": {
					"t_address": {
						"encoding": "inplace",
						"label": "address",
						"numberOfBytes": "20"
					},
					"t_array(t_struct(Todo)10_storage)dyn_storage": {
						"base": "t_struct(Todo)10_storage",
						"encoding": "dynamic_array",
						"label": "struct TodoList.Todo[]",
						"numberOfBytes": "32"
					},
					"t_bool": {
						"encoding": "inplace",
						"label": "bool",
						"numberOfBytes": "1"
					},
					"t_mapping(t_address,t_array(t_struct(Todo)10_storage)dyn_storage)": {
						"encoding": "mapping",
						"key": "t_address",
						"label": "mapping(address => struct TodoList.Todo[])",
						"numberOfBytes": "32",
						"value": "t_array(t_struct(Todo)10_storage)dyn_storage"
					},
					"t_string_storage": {
						"encoding": "bytes",
						"label": "string",
						"numberOfBytes": "32"
					},
					"t_struct(Todo)10_storage": {
						"encoding": "inplace",
						"label": "struct TodoList.Todo",
						"members": [
							{
								"astId": 3,
								"contract": "TodoList/TodoList.sol:TodoList",
								"label": "name",
								"offset": 0,
								"slot": "0",
								"type": "t_string_storage"
							},
							{
								"astId": 5,
								"contract": "TodoList/TodoList.sol:TodoList",
								"label": "description",
								"offset": 0,
								"slot": "1",
								"type": "t_string_storage"
							},
							{
								"astId": 7,
								"contract": "TodoList/TodoList.sol:TodoList",
								"label": "finish",
								"offset": 0,
								"slot": "2",
								"type": "t_bool"
							},
							{
								"astId": 9,
								"contract": "TodoList/TodoList.sol:TodoList",
								"label": "isDelete",
								"offset": 1,
								"slot": "2",
								"type": "t_bool"
							}
						],
						"numberOfBytes": "96"
					}
				}
			},
			"userdoc": {
				"kind": "user",
				"methods": {},
				"version": 1
			}
		}
	}
}