{
	"Decentralized-Access-Pass-System/PassManagement.sol": {
		"PassManagement": {
			"abi": [
				{
					"inputs": [
						{
							"internalType": "enum PassManagement.PassType",
							"name": "passType",
							"type": "PassManagement.PassType"
						}
					],
					"name": "getPassTypeName",
					"outputs": [
						{
							"internalType": "string",
							"name": "",
							"type": "string"
						}
					],
					"stateMutability": "pure",
					"type": "function"
				}
			],
			"devdoc": {
				"kind": "dev",
				"methods": {},
				"version": 1
			},
			"evm": {
				"assembly": "    /* \"Decentralized-Access-Pass-System/PassManagement.sol\":60:2980  library PassManagement {... */\n  dataSize(sub_0)\n  dataOffset(sub_0)\n  0x0b\n  dup3\n  dup3\n  dup3\n  codecopy\n  dup1\n  mload\n  0x00\n  byte\n  0x73\n  eq\n  tag_1\n  jumpi\n  mstore(0x00, 0x4e487b7100000000000000000000000000000000000000000000000000000000)\n  mstore(0x04, 0x00)\n  revert(0x00, 0x24)\ntag_1:\n  mstore(0x00, address)\n  0x73\n  dup2\n  mstore8\n  dup3\n  dup2\n  return\nstop\n\nsub_0: assembly {\n        /* \"Decentralized-Access-Pass-System/PassManagement.sol\":60:2980  library PassManagement {... */\n      eq(address, deployTimeAddress())\n      mstore(0x40, 0x80)\n      jumpi(tag_1, lt(calldatasize, 0x04))\n      shr(0xe0, calldataload(0x00))\n      dup1\n      0x7f6dd152\n      eq\n      tag_2\n      jumpi\n      dup1\n      0x846c343d\n      eq\n      tag_3\n      jumpi\n      dup1\n      0x89747e40\n      eq\n      tag_4\n      jumpi\n      dup1\n      0xc610290a\n      eq\n      tag_5\n      jumpi\n    tag_1:\n      revert(0x00, 0x00)\n        /* \"Decentralized-Access-Pass-System/PassManagement.sol\":1822:2151  function isPassValid(... */\n    tag_2:\n      tag_6\n      0x04\n      dup1\n      calldatasize\n      sub\n      dup2\n      add\n      swap1\n      tag_7\n      swap2\n      swap1\n      tag_8\n      jump\t// in\n    tag_7:\n      tag_9\n      jump\t// in\n    tag_6:\n      mload(0x40)\n      tag_10\n      swap2\n      swap1\n      tag_11\n      jump\t// in\n    tag_10:\n      mload(0x40)\n      dup1\n      swap2\n      sub\n      swap1\n      return\n        /* \"Decentralized-Access-Pass-System/PassManagement.sol\":2159:2681  function getUserActivePassCount(... */\n    tag_3:\n      tag_12\n      0x04\n      dup1\n      calldatasize\n      sub\n      dup2\n      add\n      swap1\n      tag_13\n      swap2\n      swap1\n      tag_8\n      jump\t// in\n    tag_13:\n      tag_14\n      jump\t// in\n    tag_12:\n      mload(0x40)\n      tag_15\n      swap2\n      swap1\n      tag_16\n      jump\t// in\n    tag_15:\n      mload(0x40)\n      dup1\n      swap2\n      sub\n      swap1\n      return\n        /* \"Decentralized-Access-Pass-System/PassManagement.sol\":2689:2977  function getPassTypeName(PassType passType) external pure returns (string memory) {... */\n    tag_4:\n      tag_17\n      0x04\n      dup1\n      calldatasize\n      sub\n      dup2\n      add\n      swap1\n      tag_18\n      swap2\n      swap1\n      tag_19\n      jump\t// in\n    tag_18:\n      tag_20\n      jump\t// in\n    tag_17:\n      mload(0x40)\n      tag_21\n      swap2\n      swap1\n      tag_22\n      jump\t// in\n    tag_21:\n      mload(0x40)\n      dup1\n      swap2\n      sub\n      swap1\n      return\n        /* \"Decentralized-Access-Pass-System/PassManagement.sol\":932:1814  function createPass(... */\n    tag_5:\n      dup2\n      dup1\n      iszero\n      tag_23\n      jumpi\n      revert(0x00, 0x00)\n    tag_23:\n      pop\n      tag_24\n      0x04\n      dup1\n      calldatasize\n      sub\n      dup2\n      add\n      swap1\n      tag_25\n      swap2\n      swap1\n      tag_26\n      jump\t// in\n    tag_25:\n      tag_27\n      jump\t// in\n    tag_24:\n      stop\n        /* \"Decentralized-Access-Pass-System/PassManagement.sol\":1822:2151  function isPassValid(... */\n    tag_9:\n        /* \"Decentralized-Access-Pass-System/PassManagement.sol\":2000:2004  bool */\n      0x00\n        /* \"Decentralized-Access-Pass-System/PassManagement.sol\":2017:2038  PassData storage pass */\n      0x00\n        /* \"Decentralized-Access-Pass-System/PassManagement.sol\":2041:2051  userPasses */\n      dup5\n        /* \"Decentralized-Access-Pass-System/PassManagement.sol\":2041:2057  userPasses[user] */\n      0x00\n        /* \"Decentralized-Access-Pass-System/PassManagement.sol\":2052:2056  user */\n      dup6\n        /* \"Decentralized-Access-Pass-System/PassManagement.sol\":2041:2057  userPasses[user] */\n      0xffffffffffffffffffffffffffffffffffffffff\n      and\n      0xffffffffffffffffffffffffffffffffffffffff\n      and\n      dup2\n      mstore\n      0x20\n      add\n      swap1\n      dup2\n      mstore\n      0x20\n      add\n      0x00\n      keccak256\n        /* \"Decentralized-Access-Pass-System/PassManagement.sol\":2041:2066  userPasses[user][eventId] */\n      0x00\n        /* \"Decentralized-Access-Pass-System/PassManagement.sol\":2058:2065  eventId */\n      dup5\n        /* \"Decentralized-Access-Pass-System/PassManagement.sol\":2041:2066  userPasses[user][eventId] */\n      dup2\n      mstore\n      0x20\n      add\n      swap1\n      dup2\n      mstore\n      0x20\n      add\n      0x00\n      keccak256\n        /* \"Decentralized-Access-Pass-System/PassManagement.sol\":2017:2066  PassData storage pass = userPasses[user][eventId] */\n      swap1\n      pop\n        /* \"Decentralized-Access-Pass-System/PassManagement.sol\":2084:2088  pass */\n      dup1\n        /* \"Decentralized-Access-Pass-System/PassManagement.sol\":2084:2095  pass.exists */\n      0x03\n      add\n      0x01\n      swap1\n      sload\n      swap1\n      0x0100\n      exp\n      swap1\n      div\n      0xff\n      and\n        /* \"Decentralized-Access-Pass-System/PassManagement.sol\":2084:2110  pass.exists && pass.active */\n      dup1\n      iszero\n      tag_29\n      jumpi\n      pop\n        /* \"Decentralized-Access-Pass-System/PassManagement.sol\":2099:2103  pass */\n      dup1\n        /* \"Decentralized-Access-Pass-System/PassManagement.sol\":2099:2110  pass.active */\n      0x00\n      add\n      0x00\n      swap1\n      sload\n      swap1\n      0x0100\n      exp\n      swap1\n      div\n      0xff\n      and\n        /* \"Decentralized-Access-Pass-System/PassManagement.sol\":2084:2110  pass.exists && pass.active */\n    tag_29:\n        /* \"Decentralized-Access-Pass-System/PassManagement.sol\":2084:2143  pass.exists && pass.active && pass.expiry > block.timestamp */\n      dup1\n      iszero\n      tag_30\n      jumpi\n      pop\n        /* \"Decentralized-Access-Pass-System/PassManagement.sol\":2128:2143  block.timestamp */\n      timestamp\n        /* \"Decentralized-Access-Pass-System/PassManagement.sol\":2114:2118  pass */\n      dup2\n        /* \"Decentralized-Access-Pass-System/PassManagement.sol\":2114:2125  pass.expiry */\n      0x01\n      add\n      sload\n        /* \"Decentralized-Access-Pass-System/PassManagement.sol\":2114:2143  pass.expiry > block.timestamp */\n      gt\n        /* \"Decentralized-Access-Pass-System/PassManagement.sol\":2084:2143  pass.exists && pass.active && pass.expiry > block.timestamp */\n    tag_30:\n        /* \"Decentralized-Access-Pass-System/PassManagement.sol\":2077:2143  return pass.exists && pass.active && pass.expiry > block.timestamp */\n      swap2\n      pop\n      pop\n        /* \"Decentralized-Access-Pass-System/PassManagement.sol\":1822:2151  function isPassValid(... */\n      swap4\n      swap3\n      pop\n      pop\n      pop\n      jump\t// out\n        /* \"Decentralized-Access-Pass-System/PassManagement.sol\":2159:2681  function getUserActivePassCount(... */\n    tag_14:\n        /* \"Decentralized-Access-Pass-System/PassManagement.sol\":2352:2359  uint256 */\n      0x00\n        /* \"Decentralized-Access-Pass-System/PassManagement.sol\":2372:2391  uint256 activeCount */\n      0x00\n        /* \"Decentralized-Access-Pass-System/PassManagement.sol\":2394:2395  0 */\n      0x00\n        /* \"Decentralized-Access-Pass-System/PassManagement.sol\":2372:2395  uint256 activeCount = 0 */\n      swap1\n      pop\n        /* \"Decentralized-Access-Pass-System/PassManagement.sol\":2411:2420  uint256 i */\n      0x00\n        /* \"Decentralized-Access-Pass-System/PassManagement.sol\":2423:2424  1 */\n      0x01\n        /* \"Decentralized-Access-Pass-System/PassManagement.sol\":2411:2424  uint256 i = 1 */\n      swap1\n      pop\n        /* \"Decentralized-Access-Pass-System/PassManagement.sol\":2406:2645  for (uint256 i = 1; i < nextEventId; i++) {... */\n    tag_32:\n        /* \"Decentralized-Access-Pass-System/PassManagement.sol\":2430:2441  nextEventId */\n      dup4\n        /* \"Decentralized-Access-Pass-System/PassManagement.sol\":2426:2427  i */\n      dup2\n        /* \"Decentralized-Access-Pass-System/PassManagement.sol\":2426:2441  i < nextEventId */\n      lt\n        /* \"Decentralized-Access-Pass-System/PassManagement.sol\":2406:2645  for (uint256 i = 1; i < nextEventId; i++) {... */\n      iszero\n      tag_33\n      jumpi\n        /* \"Decentralized-Access-Pass-System/PassManagement.sol\":2463:2484  PassData storage pass */\n      0x00\n        /* \"Decentralized-Access-Pass-System/PassManagement.sol\":2487:2497  userPasses */\n      dup7\n        /* \"Decentralized-Access-Pass-System/PassManagement.sol\":2487:2503  userPasses[user] */\n      0x00\n        /* \"Decentralized-Access-Pass-System/PassManagement.sol\":2498:2502  user */\n      dup8\n        /* \"Decentralized-Access-Pass-System/PassManagement.sol\":2487:2503  userPasses[user] */\n      0xffffffffffffffffffffffffffffffffffffffff\n      and\n      0xffffffffffffffffffffffffffffffffffffffff\n      and\n      dup2\n      mstore\n      0x20\n      add\n      swap1\n      dup2\n      mstore\n      0x20\n      add\n      0x00\n      keccak256\n        /* \"Decentralized-Access-Pass-System/PassManagement.sol\":2487:2506  userPasses[user][i] */\n      0x00\n        /* \"Decentralized-Access-Pass-System/PassManagement.sol\":2504:2505  i */\n      dup4\n        /* \"Decentralized-Access-Pass-System/PassManagement.sol\":2487:2506  userPasses[user][i] */\n      dup2\n      mstore\n      0x20\n      add\n      swap1\n      dup2\n      mstore\n      0x20\n      add\n      0x00\n      keccak256\n        /* \"Decentralized-Access-Pass-System/PassManagement.sol\":2463:2506  PassData storage pass = userPasses[user][i] */\n      swap1\n      pop\n        /* \"Decentralized-Access-Pass-System/PassManagement.sol\":2525:2529  pass */\n      dup1\n        /* \"Decentralized-Access-Pass-System/PassManagement.sol\":2525:2536  pass.exists */\n      0x03\n      add\n      0x01\n      swap1\n      sload\n      swap1\n      0x0100\n      exp\n      swap1\n      div\n      0xff\n      and\n        /* \"Decentralized-Access-Pass-System/PassManagement.sol\":2525:2551  pass.exists && pass.active */\n      dup1\n      iszero\n      tag_35\n      jumpi\n      pop\n        /* \"Decentralized-Access-Pass-System/PassManagement.sol\":2540:2544  pass */\n      dup1\n        /* \"Decentralized-Access-Pass-System/PassManagement.sol\":2540:2551  pass.active */\n      0x00\n      add\n      0x00\n      swap1\n      sload\n      swap1\n      0x0100\n      exp\n      swap1\n      div\n      0xff\n      and\n        /* \"Decentralized-Access-Pass-System/PassManagement.sol\":2525:2551  pass.exists && pass.active */\n    tag_35:\n        /* \"Decentralized-Access-Pass-System/PassManagement.sol\":2525:2584  pass.exists && pass.active && pass.expiry > block.timestamp */\n      dup1\n      iszero\n      tag_36\n      jumpi\n      pop\n        /* \"Decentralized-Access-Pass-System/PassManagement.sol\":2569:2584  block.timestamp */\n      timestamp\n        /* \"Decentralized-Access-Pass-System/PassManagement.sol\":2555:2559  pass */\n      dup2\n        /* \"Decentralized-Access-Pass-System/PassManagement.sol\":2555:2566  pass.expiry */\n      0x01\n      add\n      sload\n        /* \"Decentralized-Access-Pass-System/PassManagement.sol\":2555:2584  pass.expiry > block.timestamp */\n      gt\n        /* \"Decentralized-Access-Pass-System/PassManagement.sol\":2525:2584  pass.exists && pass.active && pass.expiry > block.timestamp */\n    tag_36:\n        /* \"Decentralized-Access-Pass-System/PassManagement.sol\":2521:2634  if (pass.exists && pass.active && pass.expiry > block.timestamp) {... */\n      iszero\n      tag_37\n      jumpi\n        /* \"Decentralized-Access-Pass-System/PassManagement.sol\":2605:2618  activeCount++ */\n      dup3\n      dup1\n      tag_38\n      swap1\n      tag_39\n      jump\t// in\n    tag_38:\n      swap4\n      pop\n      pop\n        /* \"Decentralized-Access-Pass-System/PassManagement.sol\":2521:2634  if (pass.exists && pass.active && pass.expiry > block.timestamp) {... */\n    tag_37:\n        /* \"Decentralized-Access-Pass-System/PassManagement.sol\":2448:2645  {... */\n      pop\n        /* \"Decentralized-Access-Pass-System/PassManagement.sol\":2443:2446  i++ */\n      dup1\n      dup1\n      0x01\n      add\n      swap2\n      pop\n      pop\n        /* \"Decentralized-Access-Pass-System/PassManagement.sol\":2406:2645  for (uint256 i = 1; i < nextEventId; i++) {... */\n      jump(tag_32)\n    tag_33:\n      pop\n        /* \"Decentralized-Access-Pass-System/PassManagement.sol\":2662:2673  activeCount */\n      dup1\n        /* \"Decentralized-Access-Pass-System/PassManagement.sol\":2655:2673  return activeCount */\n      swap2\n      pop\n      pop\n        /* \"Decentralized-Access-Pass-System/PassManagement.sol\":2159:2681  function getUserActivePassCount(... */\n      swap4\n      swap3\n      pop\n      pop\n      pop\n      jump\t// out\n        /* \"Decentralized-Access-Pass-System/PassManagement.sol\":2689:2977  function getPassTypeName(PassType passType) external pure returns (string memory) {... */\n    tag_20:\n        /* \"Decentralized-Access-Pass-System/PassManagement.sol\":2756:2769  string memory */\n      0x60\n        /* \"Decentralized-Access-Pass-System/PassManagement.sol\":2798:2812  PassType.BASIC */\n      0x00\n        /* \"Decentralized-Access-Pass-System/PassManagement.sol\":2786:2812  passType == PassType.BASIC */\n      0x02\n      dup2\n      gt\n      iszero\n      tag_41\n      jumpi\n      tag_42\n      tag_43\n      jump\t// in\n    tag_42:\n    tag_41:\n        /* \"Decentralized-Access-Pass-System/PassManagement.sol\":2786:2794  passType */\n      dup3\n        /* \"Decentralized-Access-Pass-System/PassManagement.sol\":2786:2812  passType == PassType.BASIC */\n      0x02\n      dup2\n      gt\n      iszero\n      tag_44\n      jumpi\n      tag_45\n      tag_43\n      jump\t// in\n    tag_45:\n    tag_44:\n      sub\n        /* \"Decentralized-Access-Pass-System/PassManagement.sol\":2782:2828  if (passType == PassType.BASIC) return \"Basic\" */\n      tag_46\n      jumpi\n        /* \"Decentralized-Access-Pass-System/PassManagement.sol\":2814:2828  return \"Basic\" */\n      mload(0x40)\n      dup1\n      0x40\n      add\n      0x40\n      mstore\n      dup1\n      0x05\n      dup2\n      mstore\n      0x20\n      add\n      0x4261736963000000000000000000000000000000000000000000000000000000\n      dup2\n      mstore\n      pop\n      swap1\n      pop\n      jump(tag_40)\n        /* \"Decentralized-Access-Pass-System/PassManagement.sol\":2782:2828  if (passType == PassType.BASIC) return \"Basic\" */\n    tag_46:\n        /* \"Decentralized-Access-Pass-System/PassManagement.sol\":2855:2871  PassType.PREMIUM */\n      0x01\n        /* \"Decentralized-Access-Pass-System/PassManagement.sol\":2843:2871  passType == PassType.PREMIUM */\n      0x02\n      dup2\n      gt\n      iszero\n      tag_47\n      jumpi\n      tag_48\n      tag_43\n      jump\t// in\n    tag_48:\n    tag_47:\n        /* \"Decentralized-Access-Pass-System/PassManagement.sol\":2843:2851  passType */\n      dup3\n        /* \"Decentralized-Access-Pass-System/PassManagement.sol\":2843:2871  passType == PassType.PREMIUM */\n      0x02\n      dup2\n      gt\n      iszero\n      tag_49\n      jumpi\n      tag_50\n      tag_43\n      jump\t// in\n    tag_50:\n    tag_49:\n      sub\n        /* \"Decentralized-Access-Pass-System/PassManagement.sol\":2839:2889  if (passType == PassType.PREMIUM) return \"Premium\" */\n      tag_51\n      jumpi\n        /* \"Decentralized-Access-Pass-System/PassManagement.sol\":2873:2889  return \"Premium\" */\n      mload(0x40)\n      dup1\n      0x40\n      add\n      0x40\n      mstore\n      dup1\n      0x07\n      dup2\n      mstore\n      0x20\n      add\n      0x5072656d69756d00000000000000000000000000000000000000000000000000\n      dup2\n      mstore\n      pop\n      swap1\n      pop\n      jump(tag_40)\n        /* \"Decentralized-Access-Pass-System/PassManagement.sol\":2839:2889  if (passType == PassType.PREMIUM) return \"Premium\" */\n    tag_51:\n        /* \"Decentralized-Access-Pass-System/PassManagement.sol\":2916:2928  PassType.VIP */\n      0x02\n        /* \"Decentralized-Access-Pass-System/PassManagement.sol\":2904:2928  passType == PassType.VIP */\n      dup1\n      dup2\n      gt\n      iszero\n      tag_52\n      jumpi\n      tag_53\n      tag_43\n      jump\t// in\n    tag_53:\n    tag_52:\n        /* \"Decentralized-Access-Pass-System/PassManagement.sol\":2904:2912  passType */\n      dup3\n        /* \"Decentralized-Access-Pass-System/PassManagement.sol\":2904:2928  passType == PassType.VIP */\n      0x02\n      dup2\n      gt\n      iszero\n      tag_54\n      jumpi\n      tag_55\n      tag_43\n      jump\t// in\n    tag_55:\n    tag_54:\n      sub\n        /* \"Decentralized-Access-Pass-System/PassManagement.sol\":2900:2942  if (passType == PassType.VIP) return \"VIP\" */\n      tag_56\n      jumpi\n        /* \"Decentralized-Access-Pass-System/PassManagement.sol\":2930:2942  return \"VIP\" */\n      mload(0x40)\n      dup1\n      0x40\n      add\n      0x40\n      mstore\n      dup1\n      0x03\n      dup2\n      mstore\n      0x20\n      add\n      0x5649500000000000000000000000000000000000000000000000000000000000\n      dup2\n      mstore\n      pop\n      swap1\n      pop\n      jump(tag_40)\n        /* \"Decentralized-Access-Pass-System/PassManagement.sol\":2900:2942  if (passType == PassType.VIP) return \"VIP\" */\n    tag_56:\n        /* \"Decentralized-Access-Pass-System/PassManagement.sol\":2953:2969  return \"Unknown\" */\n      mload(0x40)\n      dup1\n      0x40\n      add\n      0x40\n      mstore\n      dup1\n      0x07\n      dup2\n      mstore\n      0x20\n      add\n      0x556e6b6e6f776e00000000000000000000000000000000000000000000000000\n      dup2\n      mstore\n      pop\n      swap1\n      pop\n        /* \"Decentralized-Access-Pass-System/PassManagement.sol\":2689:2977  function getPassTypeName(PassType passType) external pure returns (string memory) {... */\n    tag_40:\n      swap2\n      swap1\n      pop\n      jump\t// out\n        /* \"Decentralized-Access-Pass-System/PassManagement.sol\":932:1814  function createPass(... */\n    tag_27:\n        /* \"Decentralized-Access-Pass-System/PassManagement.sol\":1362:1380  uint256 expiryTime */\n      0x00\n        /* \"Decentralized-Access-Pass-System/PassManagement.sol\":1401:1409  duration */\n      dup2\n        /* \"Decentralized-Access-Pass-System/PassManagement.sol\":1383:1398  block.timestamp */\n      timestamp\n        /* \"Decentralized-Access-Pass-System/PassManagement.sol\":1383:1409  block.timestamp + duration */\n      tag_58\n      swap2\n      swap1\n      tag_59\n      jump\t// in\n    tag_58:\n        /* \"Decentralized-Access-Pass-System/PassManagement.sol\":1362:1409  uint256 expiryTime = block.timestamp + duration */\n      swap1\n      pop\n        /* \"Decentralized-Access-Pass-System/PassManagement.sol\":1450:1679  PassData({... */\n      mload(0x40)\n      dup1\n      0xc0\n      add\n      0x40\n      mstore\n      dup1\n        /* \"Decentralized-Access-Pass-System/PassManagement.sol\":1482:1486  true */\n      0x01\n        /* \"Decentralized-Access-Pass-System/PassManagement.sol\":1450:1679  PassData({... */\n      iszero\n      iszero\n      dup2\n      mstore\n      0x20\n      add\n        /* \"Decentralized-Access-Pass-System/PassManagement.sol\":1509:1519  expiryTime */\n      dup3\n        /* \"Decentralized-Access-Pass-System/PassManagement.sol\":1450:1679  PassData({... */\n      dup2\n      mstore\n      0x20\n      add\n        /* \"Decentralized-Access-Pass-System/PassManagement.sol\":1543:1550  eventId */\n      dup6\n        /* \"Decentralized-Access-Pass-System/PassManagement.sol\":1450:1679  PassData({... */\n      dup2\n      mstore\n      0x20\n      add\n        /* \"Decentralized-Access-Pass-System/PassManagement.sol\":1587:1595  passType */\n      dup5\n        /* \"Decentralized-Access-Pass-System/PassManagement.sol\":1578:1596  PassType(passType) */\n      0xff\n      and\n      0x02\n      dup2\n      gt\n      iszero\n      tag_60\n      jumpi\n      tag_61\n      tag_43\n      jump\t// in\n    tag_61:\n    tag_60:\n        /* \"Decentralized-Access-Pass-System/PassManagement.sol\":1450:1679  PassData({... */\n      0x02\n      dup2\n      gt\n      iszero\n      tag_62\n      jumpi\n      tag_63\n      tag_43\n      jump\t// in\n    tag_63:\n    tag_62:\n      dup2\n      mstore\n      0x20\n      add\n        /* \"Decentralized-Access-Pass-System/PassManagement.sol\":1619:1623  true */\n      0x01\n        /* \"Decentralized-Access-Pass-System/PassManagement.sol\":1450:1679  PassData({... */\n      iszero\n      iszero\n      dup2\n      mstore\n      0x20\n      add\n        /* \"Decentralized-Access-Pass-System/PassManagement.sol\":1652:1667  block.timestamp */\n      timestamp\n        /* \"Decentralized-Access-Pass-System/PassManagement.sol\":1450:1679  PassData({... */\n      dup2\n      mstore\n      pop\n        /* \"Decentralized-Access-Pass-System/PassManagement.sol\":1422:1432  userPasses */\n      dup10\n        /* \"Decentralized-Access-Pass-System/PassManagement.sol\":1422:1438  userPasses[user] */\n      0x00\n        /* \"Decentralized-Access-Pass-System/PassManagement.sol\":1433:1437  user */\n      dup8\n        /* \"Decentralized-Access-Pass-System/PassManagement.sol\":1422:1438  userPasses[user] */\n      0xffffffffffffffffffffffffffffffffffffffff\n      and\n      0xffffffffffffffffffffffffffffffffffffffff\n      and\n      dup2\n      mstore\n      0x20\n      add\n      swap1\n      dup2\n      mstore\n      0x20\n      add\n      0x00\n      keccak256\n        /* \"Decentralized-Access-Pass-System/PassManagement.sol\":1422:1447  userPasses[user][eventId] */\n      0x00\n        /* \"Decentralized-Access-Pass-System/PassManagement.sol\":1439:1446  eventId */\n      dup7\n        /* \"Decentralized-Access-Pass-System/PassManagement.sol\":1422:1447  userPasses[user][eventId] */\n      dup2\n      mstore\n      0x20\n      add\n      swap1\n      dup2\n      mstore\n      0x20\n      add\n      0x00\n      keccak256\n        /* \"Decentralized-Access-Pass-System/PassManagement.sol\":1422:1679  userPasses[user][eventId] = PassData({... */\n      0x00\n      dup3\n      add\n      mload\n      dup2\n      0x00\n      add\n      exp(0x0100, 0x00)\n      dup2\n      sload\n      dup2\n      0xff\n      mul\n      not\n      and\n      swap1\n      dup4\n      iszero\n      iszero\n      mul\n      or\n      swap1\n      sstore\n      pop\n      0x20\n      dup3\n      add\n      mload\n      dup2\n      0x01\n      add\n      sstore\n      0x40\n      dup3\n      add\n      mload\n      dup2\n      0x02\n      add\n      sstore\n      0x60\n      dup3\n      add\n      mload\n      dup2\n      0x03\n      add\n      exp(0x0100, 0x00)\n      dup2\n      sload\n      dup2\n      0xff\n      mul\n      not\n      and\n      swap1\n      dup4\n      0x02\n      dup2\n      gt\n      iszero\n      tag_64\n      jumpi\n      tag_65\n      tag_43\n      jump\t// in\n    tag_65:\n    tag_64:\n      mul\n      or\n      swap1\n      sstore\n      pop\n      0x80\n      dup3\n      add\n      mload\n      dup2\n      0x03\n      add\n      exp(0x0100, 0x01)\n      dup2\n      sload\n      dup2\n      0xff\n      mul\n      not\n      and\n      swap1\n      dup4\n      iszero\n      iszero\n      mul\n      or\n      swap1\n      sstore\n      pop\n      0xa0\n      dup3\n      add\n      mload\n      dup2\n      0x04\n      add\n      sstore\n      swap1\n      pop\n      pop\n        /* \"Decentralized-Access-Pass-System/PassManagement.sol\":1692:1708  eventPassHolders */\n      dup8\n        /* \"Decentralized-Access-Pass-System/PassManagement.sol\":1692:1717  eventPassHolders[eventId] */\n      0x00\n        /* \"Decentralized-Access-Pass-System/PassManagement.sol\":1709:1716  eventId */\n      dup6\n        /* \"Decentralized-Access-Pass-System/PassManagement.sol\":1692:1717  eventPassHolders[eventId] */\n      dup2\n      mstore\n      0x20\n      add\n      swap1\n      dup2\n      mstore\n      0x20\n      add\n      0x00\n      keccak256\n        /* \"Decentralized-Access-Pass-System/PassManagement.sol\":1723:1727  user */\n      dup6\n        /* \"Decentralized-Access-Pass-System/PassManagement.sol\":1692:1728  eventPassHolders[eventId].push(user) */\n      swap1\n      dup1\n      0x01\n      dup2\n      sload\n      add\n      dup1\n      dup3\n      sstore\n      dup1\n      swap2\n      pop\n      pop\n      0x01\n      swap1\n      sub\n      swap1\n      0x00\n      mstore\n      keccak256(0x00, 0x20)\n      add\n      0x00\n      swap1\n      swap2\n      swap1\n      swap2\n      swap1\n      swap2\n      0x0100\n      exp\n      dup2\n      sload\n      dup2\n      0xffffffffffffffffffffffffffffffffffffffff\n      mul\n      not\n      and\n      swap1\n      dup4\n      0xffffffffffffffffffffffffffffffffffffffff\n      and\n      mul\n      or\n      swap1\n      sstore\n      pop\n        /* \"Decentralized-Access-Pass-System/PassManagement.sol\":1739:1752  userPassCount */\n      dup7\n        /* \"Decentralized-Access-Pass-System/PassManagement.sol\":1739:1758  userPassCount[user] */\n      0x00\n        /* \"Decentralized-Access-Pass-System/PassManagement.sol\":1753:1757  user */\n      dup7\n        /* \"Decentralized-Access-Pass-System/PassManagement.sol\":1739:1758  userPassCount[user] */\n      0xffffffffffffffffffffffffffffffffffffffff\n      and\n      0xffffffffffffffffffffffffffffffffffffffff\n      and\n      dup2\n      mstore\n      0x20\n      add\n      swap1\n      dup2\n      mstore\n      0x20\n      add\n      0x00\n      keccak256\n      0x00\n        /* \"Decentralized-Access-Pass-System/PassManagement.sol\":1739:1760  userPassCount[user]++ */\n      dup2\n      sload\n      dup1\n      swap3\n      swap2\n      swap1\n      tag_67\n      swap1\n      tag_39\n      jump\t// in\n    tag_67:\n      swap2\n      swap1\n      pop\n      sstore\n      pop\n        /* \"Decentralized-Access-Pass-System/PassManagement.sol\":1771:1785  eventPassCount */\n      dup6\n        /* \"Decentralized-Access-Pass-System/PassManagement.sol\":1771:1794  eventPassCount[eventId] */\n      0x00\n        /* \"Decentralized-Access-Pass-System/PassManagement.sol\":1786:1793  eventId */\n      dup6\n        /* \"Decentralized-Access-Pass-System/PassManagement.sol\":1771:1794  eventPassCount[eventId] */\n      dup2\n      mstore\n      0x20\n      add\n      swap1\n      dup2\n      mstore\n      0x20\n      add\n      0x00\n      keccak256\n        /* \"Decentralized-Access-Pass-System/PassManagement.sol\":1771:1804  eventPassCount[eventId][passType] */\n      0x00\n        /* \"Decentralized-Access-Pass-System/PassManagement.sol\":1795:1803  passType */\n      dup5\n        /* \"Decentralized-Access-Pass-System/PassManagement.sol\":1771:1804  eventPassCount[eventId][passType] */\n      0xff\n      and\n      0xff\n      and\n      dup2\n      mstore\n      0x20\n      add\n      swap1\n      dup2\n      mstore\n      0x20\n      add\n      0x00\n      keccak256\n      0x00\n        /* \"Decentralized-Access-Pass-System/PassManagement.sol\":1771:1806  eventPassCount[eventId][passType]++ */\n      dup2\n      sload\n      dup1\n      swap3\n      swap2\n      swap1\n      tag_68\n      swap1\n      tag_39\n      jump\t// in\n    tag_68:\n      swap2\n      swap1\n      pop\n      sstore\n      pop\n        /* \"Decentralized-Access-Pass-System/PassManagement.sol\":1351:1814  {... */\n      pop\n        /* \"Decentralized-Access-Pass-System/PassManagement.sol\":932:1814  function createPass(... */\n      pop\n      pop\n      pop\n      pop\n      pop\n      pop\n      pop\n      pop\n      jump\t// out\n        /* \"#utility.yul\":88:205   */\n    tag_70:\n        /* \"#utility.yul\":197:198   */\n      0x00\n        /* \"#utility.yul\":194:195   */\n      0x00\n        /* \"#utility.yul\":187:199   */\n      revert\n        /* \"#utility.yul\":334:482   */\n    tag_72:\n        /* \"#utility.yul\":442:449   */\n      0x00\n        /* \"#utility.yul\":471:476   */\n      dup2\n        /* \"#utility.yul\":460:476   */\n      swap1\n      pop\n        /* \"#utility.yul\":334:482   */\n      swap2\n      swap1\n      pop\n      jump\t// out\n        /* \"#utility.yul\":488:752   */\n    tag_73:\n        /* \"#utility.yul\":632:727   */\n      tag_111\n        /* \"#utility.yul\":721:726   */\n      dup2\n        /* \"#utility.yul\":632:727   */\n      tag_72\n      jump\t// in\n    tag_111:\n        /* \"#utility.yul\":625:630   */\n      dup2\n        /* \"#utility.yul\":622:728   */\n      eq\n        /* \"#utility.yul\":612:746   */\n      tag_112\n      jumpi\n        /* \"#utility.yul\":742:743   */\n      0x00\n        /* \"#utility.yul\":739:740   */\n      0x00\n        /* \"#utility.yul\":732:744   */\n      revert\n        /* \"#utility.yul\":612:746   */\n    tag_112:\n        /* \"#utility.yul\":488:752   */\n      pop\n      jump\t// out\n        /* \"#utility.yul\":758:1039   */\n    tag_74:\n        /* \"#utility.yul\":875:880   */\n      0x00\n        /* \"#utility.yul\":913:919   */\n      dup2\n        /* \"#utility.yul\":900:920   */\n      calldataload\n        /* \"#utility.yul\":891:920   */\n      swap1\n      pop\n        /* \"#utility.yul\":929:1033   */\n      tag_114\n        /* \"#utility.yul\":1027:1032   */\n      dup2\n        /* \"#utility.yul\":929:1033   */\n      tag_73\n      jump\t// in\n    tag_114:\n        /* \"#utility.yul\":758:1039   */\n      swap3\n      swap2\n      pop\n      pop\n      jump\t// out\n        /* \"#utility.yul\":1045:1171   */\n    tag_75:\n        /* \"#utility.yul\":1082:1089   */\n      0x00\n        /* \"#utility.yul\":1122:1164   */\n      0xffffffffffffffffffffffffffffffffffffffff\n        /* \"#utility.yul\":1115:1120   */\n      dup3\n        /* \"#utility.yul\":1111:1165   */\n      and\n        /* \"#utility.yul\":1100:1165   */\n      swap1\n      pop\n        /* \"#utility.yul\":1045:1171   */\n      swap2\n      swap1\n      pop\n      jump\t// out\n        /* \"#utility.yul\":1177:1273   */\n    tag_76:\n        /* \"#utility.yul\":1214:1221   */\n      0x00\n        /* \"#utility.yul\":1243:1267   */\n      tag_117\n        /* \"#utility.yul\":1261:1266   */\n      dup3\n        /* \"#utility.yul\":1243:1267   */\n      tag_75\n      jump\t// in\n    tag_117:\n        /* \"#utility.yul\":1232:1267   */\n      swap1\n      pop\n        /* \"#utility.yul\":1177:1273   */\n      swap2\n      swap1\n      pop\n      jump\t// out\n        /* \"#utility.yul\":1279:1401   */\n    tag_77:\n        /* \"#utility.yul\":1352:1376   */\n      tag_119\n        /* \"#utility.yul\":1370:1375   */\n      dup2\n        /* \"#utility.yul\":1352:1376   */\n      tag_76\n      jump\t// in\n    tag_119:\n        /* \"#utility.yul\":1345:1350   */\n      dup2\n        /* \"#utility.yul\":1342:1377   */\n      eq\n        /* \"#utility.yul\":1332:1395   */\n      tag_120\n      jumpi\n        /* \"#utility.yul\":1391:1392   */\n      0x00\n        /* \"#utility.yul\":1388:1389   */\n      0x00\n        /* \"#utility.yul\":1381:1393   */\n      revert\n        /* \"#utility.yul\":1332:1395   */\n    tag_120:\n        /* \"#utility.yul\":1279:1401   */\n      pop\n      jump\t// out\n        /* \"#utility.yul\":1407:1546   */\n    tag_78:\n        /* \"#utility.yul\":1453:1458   */\n      0x00\n        /* \"#utility.yul\":1491:1497   */\n      dup2\n        /* \"#utility.yul\":1478:1498   */\n      calldataload\n        /* \"#utility.yul\":1469:1498   */\n      swap1\n      pop\n        /* \"#utility.yul\":1507:1540   */\n      tag_122\n        /* \"#utility.yul\":1534:1539   */\n      dup2\n        /* \"#utility.yul\":1507:1540   */\n      tag_77\n      jump\t// in\n    tag_122:\n        /* \"#utility.yul\":1407:1546   */\n      swap3\n      swap2\n      pop\n      pop\n      jump\t// out\n        /* \"#utility.yul\":1552:1629   */\n    tag_79:\n        /* \"#utility.yul\":1589:1596   */\n      0x00\n        /* \"#utility.yul\":1618:1623   */\n      dup2\n        /* \"#utility.yul\":1607:1623   */\n      swap1\n      pop\n        /* \"#utility.yul\":1552:1629   */\n      swap2\n      swap1\n      pop\n      jump\t// out\n        /* \"#utility.yul\":1635:1757   */\n    tag_80:\n        /* \"#utility.yul\":1708:1732   */\n      tag_125\n        /* \"#utility.yul\":1726:1731   */\n      dup2\n        /* \"#utility.yul\":1708:1732   */\n      tag_79\n      jump\t// in\n    tag_125:\n        /* \"#utility.yul\":1701:1706   */\n      dup2\n        /* \"#utility.yul\":1698:1733   */\n      eq\n        /* \"#utility.yul\":1688:1751   */\n      tag_126\n      jumpi\n        /* \"#utility.yul\":1747:1748   */\n      0x00\n        /* \"#utility.yul\":1744:1745   */\n      0x00\n        /* \"#utility.yul\":1737:1749   */\n      revert\n        /* \"#utility.yul\":1688:1751   */\n    tag_126:\n        /* \"#utility.yul\":1635:1757   */\n      pop\n      jump\t// out\n        /* \"#utility.yul\":1763:1902   */\n    tag_81:\n        /* \"#utility.yul\":1809:1814   */\n      0x00\n        /* \"#utility.yul\":1847:1853   */\n      dup2\n        /* \"#utility.yul\":1834:1854   */\n      calldataload\n        /* \"#utility.yul\":1825:1854   */\n      swap1\n      pop\n        /* \"#utility.yul\":1863:1896   */\n      tag_128\n        /* \"#utility.yul\":1890:1895   */\n      dup2\n        /* \"#utility.yul\":1863:1896   */\n      tag_80\n      jump\t// in\n    tag_128:\n        /* \"#utility.yul\":1763:1902   */\n      swap3\n      swap2\n      pop\n      pop\n      jump\t// out\n        /* \"#utility.yul\":1908:2669   */\n    tag_8:\n        /* \"#utility.yul\":2056:2062   */\n      0x00\n        /* \"#utility.yul\":2064:2070   */\n      0x00\n        /* \"#utility.yul\":2072:2078   */\n      0x00\n        /* \"#utility.yul\":2121:2123   */\n      0x60\n        /* \"#utility.yul\":2109:2118   */\n      dup5\n        /* \"#utility.yul\":2100:2107   */\n      dup7\n        /* \"#utility.yul\":2096:2119   */\n      sub\n        /* \"#utility.yul\":2092:2124   */\n      slt\n        /* \"#utility.yul\":2089:2208   */\n      iszero\n      tag_130\n      jumpi\n        /* \"#utility.yul\":2127:2206   */\n      tag_131\n      tag_70\n      jump\t// in\n    tag_131:\n        /* \"#utility.yul\":2089:2208   */\n    tag_130:\n        /* \"#utility.yul\":2247:2248   */\n      0x00\n        /* \"#utility.yul\":2272:2396   */\n      tag_132\n        /* \"#utility.yul\":2388:2395   */\n      dup7\n        /* \"#utility.yul\":2379:2385   */\n      dup3\n        /* \"#utility.yul\":2368:2377   */\n      dup8\n        /* \"#utility.yul\":2364:2386   */\n      add\n        /* \"#utility.yul\":2272:2396   */\n      tag_74\n      jump\t// in\n    tag_132:\n        /* \"#utility.yul\":2262:2396   */\n      swap4\n      pop\n        /* \"#utility.yul\":2218:2406   */\n      pop\n        /* \"#utility.yul\":2445:2447   */\n      0x20\n        /* \"#utility.yul\":2471:2524   */\n      tag_133\n        /* \"#utility.yul\":2516:2523   */\n      dup7\n        /* \"#utility.yul\":2507:2513   */\n      dup3\n        /* \"#utility.yul\":2496:2505   */\n      dup8\n        /* \"#utility.yul\":2492:2514   */\n      add\n        /* \"#utility.yul\":2471:2524   */\n      tag_78\n      jump\t// in\n    tag_133:\n        /* \"#utility.yul\":2461:2524   */\n      swap3\n      pop\n        /* \"#utility.yul\":2416:2534   */\n      pop\n        /* \"#utility.yul\":2573:2575   */\n      0x40\n        /* \"#utility.yul\":2599:2652   */\n      tag_134\n        /* \"#utility.yul\":2644:2651   */\n      dup7\n        /* \"#utility.yul\":2635:2641   */\n      dup3\n        /* \"#utility.yul\":2624:2633   */\n      dup8\n        /* \"#utility.yul\":2620:2642   */\n      add\n        /* \"#utility.yul\":2599:2652   */\n      tag_81\n      jump\t// in\n    tag_134:\n        /* \"#utility.yul\":2589:2652   */\n      swap2\n      pop\n        /* \"#utility.yul\":2544:2662   */\n      pop\n        /* \"#utility.yul\":1908:2669   */\n      swap3\n      pop\n      swap3\n      pop\n      swap3\n      jump\t// out\n        /* \"#utility.yul\":2675:2765   */\n    tag_82:\n        /* \"#utility.yul\":2709:2716   */\n      0x00\n        /* \"#utility.yul\":2752:2757   */\n      dup2\n        /* \"#utility.yul\":2745:2758   */\n      iszero\n        /* \"#utility.yul\":2738:2759   */\n      iszero\n        /* \"#utility.yul\":2727:2759   */\n      swap1\n      pop\n        /* \"#utility.yul\":2675:2765   */\n      swap2\n      swap1\n      pop\n      jump\t// out\n        /* \"#utility.yul\":2771:2888   */\n    tag_83:\n        /* \"#utility.yul\":2860:2881   */\n      tag_137\n        /* \"#utility.yul\":2875:2880   */\n      dup2\n        /* \"#utility.yul\":2860:2881   */\n      tag_82\n      jump\t// in\n    tag_137:\n        /* \"#utility.yul\":2855:2858   */\n      dup3\n        /* \"#utility.yul\":2848:2882   */\n      mstore\n        /* \"#utility.yul\":2771:2888   */\n      pop\n      pop\n      jump\t// out\n        /* \"#utility.yul\":2894:3120   */\n    tag_11:\n        /* \"#utility.yul\":2989:2993   */\n      0x00\n        /* \"#utility.yul\":3027:3029   */\n      0x20\n        /* \"#utility.yul\":3016:3025   */\n      dup3\n        /* \"#utility.yul\":3012:3030   */\n      add\n        /* \"#utility.yul\":3004:3030   */\n      swap1\n      pop\n        /* \"#utility.yul\":3040:3113   */\n      tag_139\n        /* \"#utility.yul\":3110:3111   */\n      0x00\n        /* \"#utility.yul\":3099:3108   */\n      dup4\n        /* \"#utility.yul\":3095:3112   */\n      add\n        /* \"#utility.yul\":3086:3092   */\n      dup5\n        /* \"#utility.yul\":3040:3113   */\n      tag_83\n      jump\t// in\n    tag_139:\n        /* \"#utility.yul\":2894:3120   */\n      swap3\n      swap2\n      pop\n      pop\n      jump\t// out\n        /* \"#utility.yul\":3126:3252   */\n    tag_84:\n        /* \"#utility.yul\":3221:3245   */\n      tag_141\n        /* \"#utility.yul\":3239:3244   */\n      dup2\n        /* \"#utility.yul\":3221:3245   */\n      tag_79\n      jump\t// in\n    tag_141:\n        /* \"#utility.yul\":3216:3219   */\n      dup3\n        /* \"#utility.yul\":3209:3246   */\n      mstore\n        /* \"#utility.yul\":3126:3252   */\n      pop\n      pop\n      jump\t// out\n        /* \"#utility.yul\":3258:3496   */\n    tag_16:\n        /* \"#utility.yul\":3359:3363   */\n      0x00\n        /* \"#utility.yul\":3397:3399   */\n      0x20\n        /* \"#utility.yul\":3386:3395   */\n      dup3\n        /* \"#utility.yul\":3382:3400   */\n      add\n        /* \"#utility.yul\":3374:3400   */\n      swap1\n      pop\n        /* \"#utility.yul\":3410:3489   */\n      tag_143\n        /* \"#utility.yul\":3486:3487   */\n      0x00\n        /* \"#utility.yul\":3475:3484   */\n      dup4\n        /* \"#utility.yul\":3471:3488   */\n      add\n        /* \"#utility.yul\":3462:3468   */\n      dup5\n        /* \"#utility.yul\":3410:3489   */\n      tag_84\n      jump\t// in\n    tag_143:\n        /* \"#utility.yul\":3258:3496   */\n      swap3\n      swap2\n      pop\n      pop\n      jump\t// out\n        /* \"#utility.yul\":3502:3611   */\n    tag_85:\n        /* \"#utility.yul\":3585:3586   */\n      0x03\n        /* \"#utility.yul\":3578:3583   */\n      dup2\n        /* \"#utility.yul\":3575:3587   */\n      lt\n        /* \"#utility.yul\":3565:3605   */\n      tag_145\n      jumpi\n        /* \"#utility.yul\":3601:3602   */\n      0x00\n        /* \"#utility.yul\":3598:3599   */\n      0x00\n        /* \"#utility.yul\":3591:3603   */\n      revert\n        /* \"#utility.yul\":3565:3605   */\n    tag_145:\n        /* \"#utility.yul\":3502:3611   */\n      pop\n      jump\t// out\n        /* \"#utility.yul\":3617:3776   */\n    tag_86:\n        /* \"#utility.yul\":3673:3678   */\n      0x00\n        /* \"#utility.yul\":3711:3717   */\n      dup2\n        /* \"#utility.yul\":3698:3718   */\n      calldataload\n        /* \"#utility.yul\":3689:3718   */\n      swap1\n      pop\n        /* \"#utility.yul\":3727:3770   */\n      tag_147\n        /* \"#utility.yul\":3764:3769   */\n      dup2\n        /* \"#utility.yul\":3727:3770   */\n      tag_85\n      jump\t// in\n    tag_147:\n        /* \"#utility.yul\":3617:3776   */\n      swap3\n      swap2\n      pop\n      pop\n      jump\t// out\n        /* \"#utility.yul\":3782:4131   */\n    tag_19:\n        /* \"#utility.yul\":3851:3857   */\n      0x00\n        /* \"#utility.yul\":3900:3902   */\n      0x20\n        /* \"#utility.yul\":3888:3897   */\n      dup3\n        /* \"#utility.yul\":3879:3886   */\n      dup5\n        /* \"#utility.yul\":3875:3898   */\n      sub\n        /* \"#utility.yul\":3871:3903   */\n      slt\n        /* \"#utility.yul\":3868:3987   */\n      iszero\n      tag_149\n      jumpi\n        /* \"#utility.yul\":3906:3985   */\n      tag_150\n      tag_70\n      jump\t// in\n    tag_150:\n        /* \"#utility.yul\":3868:3987   */\n    tag_149:\n        /* \"#utility.yul\":4026:4027   */\n      0x00\n        /* \"#utility.yul\":4051:4114   */\n      tag_151\n        /* \"#utility.yul\":4106:4113   */\n      dup5\n        /* \"#utility.yul\":4097:4103   */\n      dup3\n        /* \"#utility.yul\":4086:4095   */\n      dup6\n        /* \"#utility.yul\":4082:4104   */\n      add\n        /* \"#utility.yul\":4051:4114   */\n      tag_86\n      jump\t// in\n    tag_151:\n        /* \"#utility.yul\":4041:4114   */\n      swap2\n      pop\n        /* \"#utility.yul\":3997:4124   */\n      pop\n        /* \"#utility.yul\":3782:4131   */\n      swap3\n      swap2\n      pop\n      pop\n      jump\t// out\n        /* \"#utility.yul\":4137:4236   */\n    tag_87:\n        /* \"#utility.yul\":4189:4195   */\n      0x00\n        /* \"#utility.yul\":4223:4228   */\n      dup2\n        /* \"#utility.yul\":4217:4229   */\n      mload\n        /* \"#utility.yul\":4207:4229   */\n      swap1\n      pop\n        /* \"#utility.yul\":4137:4236   */\n      swap2\n      swap1\n      pop\n      jump\t// out\n        /* \"#utility.yul\":4242:4419   */\n    tag_88:\n        /* \"#utility.yul\":4334:4345   */\n      0x00\n        /* \"#utility.yul\":4368:4374   */\n      dup3\n        /* \"#utility.yul\":4363:4366   */\n      dup3\n        /* \"#utility.yul\":4356:4375   */\n      mstore\n        /* \"#utility.yul\":4408:4412   */\n      0x20\n        /* \"#utility.yul\":4403:4406   */\n      dup3\n        /* \"#utility.yul\":4399:4413   */\n      add\n        /* \"#utility.yul\":4384:4413   */\n      swap1\n      pop\n        /* \"#utility.yul\":4242:4419   */\n      swap3\n      swap2\n      pop\n      pop\n      jump\t// out\n        /* \"#utility.yul\":4425:4564   */\n    tag_89:\n        /* \"#utility.yul\":4514:4520   */\n      dup3\n        /* \"#utility.yul\":4509:4512   */\n      dup2\n        /* \"#utility.yul\":4504:4507   */\n      dup4\n        /* \"#utility.yul\":4498:4521   */\n      mcopy\n        /* \"#utility.yul\":4555:4556   */\n      0x00\n        /* \"#utility.yul\":4546:4552   */\n      dup4\n        /* \"#utility.yul\":4541:4544   */\n      dup4\n        /* \"#utility.yul\":4537:4553   */\n      add\n        /* \"#utility.yul\":4530:4557   */\n      mstore\n        /* \"#utility.yul\":4425:4564   */\n      pop\n      pop\n      pop\n      jump\t// out\n        /* \"#utility.yul\":4570:4672   */\n    tag_90:\n        /* \"#utility.yul\":4611:4617   */\n      0x00\n        /* \"#utility.yul\":4662:4664   */\n      0x1f\n        /* \"#utility.yul\":4658:4665   */\n      not\n        /* \"#utility.yul\":4653:4655   */\n      0x1f\n        /* \"#utility.yul\":4646:4651   */\n      dup4\n        /* \"#utility.yul\":4642:4656   */\n      add\n        /* \"#utility.yul\":4638:4666   */\n      and\n        /* \"#utility.yul\":4628:4666   */\n      swap1\n      pop\n        /* \"#utility.yul\":4570:4672   */\n      swap2\n      swap1\n      pop\n      jump\t// out\n        /* \"#utility.yul\":4678:5071   */\n    tag_91:\n        /* \"#utility.yul\":4774:4777   */\n      0x00\n        /* \"#utility.yul\":4802:4841   */\n      tag_157\n        /* \"#utility.yul\":4835:4840   */\n      dup3\n        /* \"#utility.yul\":4802:4841   */\n      tag_87\n      jump\t// in\n    tag_157:\n        /* \"#utility.yul\":4857:4936   */\n      tag_158\n        /* \"#utility.yul\":4929:4935   */\n      dup2\n        /* \"#utility.yul\":4924:4927   */\n      dup6\n        /* \"#utility.yul\":4857:4936   */\n      tag_88\n      jump\t// in\n    tag_158:\n        /* \"#utility.yul\":4850:4936   */\n      swap4\n      pop\n        /* \"#utility.yul\":4945:5010   */\n      tag_159\n        /* \"#utility.yul\":5003:5009   */\n      dup2\n        /* \"#utility.yul\":4998:5001   */\n      dup6\n        /* \"#utility.yul\":4991:4995   */\n      0x20\n        /* \"#utility.yul\":4984:4989   */\n      dup7\n        /* \"#utility.yul\":4980:4996   */\n      add\n        /* \"#utility.yul\":4945:5010   */\n      tag_89\n      jump\t// in\n    tag_159:\n        /* \"#utility.yul\":5035:5064   */\n      tag_160\n        /* \"#utility.yul\":5057:5063   */\n      dup2\n        /* \"#utility.yul\":5035:5064   */\n      tag_90\n      jump\t// in\n    tag_160:\n        /* \"#utility.yul\":5030:5033   */\n      dup5\n        /* \"#utility.yul\":5026:5065   */\n      add\n        /* \"#utility.yul\":5019:5065   */\n      swap2\n      pop\n        /* \"#utility.yul\":4778:5071   */\n      pop\n        /* \"#utility.yul\":4678:5071   */\n      swap3\n      swap2\n      pop\n      pop\n      jump\t// out\n        /* \"#utility.yul\":5077:5406   */\n    tag_22:\n        /* \"#utility.yul\":5198:5202   */\n      0x00\n        /* \"#utility.yul\":5236:5238   */\n      0x20\n        /* \"#utility.yul\":5225:5234   */\n      dup3\n        /* \"#utility.yul\":5221:5239   */\n      add\n        /* \"#utility.yul\":5213:5239   */\n      swap1\n      pop\n        /* \"#utility.yul\":5285:5294   */\n      dup2\n        /* \"#utility.yul\":5279:5283   */\n      dup2\n        /* \"#utility.yul\":5275:5295   */\n      sub\n        /* \"#utility.yul\":5271:5272   */\n      0x00\n        /* \"#utility.yul\":5260:5269   */\n      dup4\n        /* \"#utility.yul\":5256:5273   */\n      add\n        /* \"#utility.yul\":5249:5296   */\n      mstore\n        /* \"#utility.yul\":5313:5399   */\n      tag_162\n        /* \"#utility.yul\":5394:5398   */\n      dup2\n        /* \"#utility.yul\":5385:5391   */\n      dup5\n        /* \"#utility.yul\":5313:5399   */\n      tag_91\n      jump\t// in\n    tag_162:\n        /* \"#utility.yul\":5305:5399   */\n      swap1\n      pop\n        /* \"#utility.yul\":5077:5406   */\n      swap3\n      swap2\n      pop\n      pop\n      jump\t// out\n        /* \"#utility.yul\":5412:5536   */\n    tag_92:\n        /* \"#utility.yul\":5496:5503   */\n      0x00\n        /* \"#utility.yul\":5525:5530   */\n      dup2\n        /* \"#utility.yul\":5514:5530   */\n      swap1\n      pop\n        /* \"#utility.yul\":5412:5536   */\n      swap2\n      swap1\n      pop\n      jump\t// out\n        /* \"#utility.yul\":5542:5758   */\n    tag_93:\n        /* \"#utility.yul\":5662:5733   */\n      tag_165\n        /* \"#utility.yul\":5727:5732   */\n      dup2\n        /* \"#utility.yul\":5662:5733   */\n      tag_92\n      jump\t// in\n    tag_165:\n        /* \"#utility.yul\":5655:5660   */\n      dup2\n        /* \"#utility.yul\":5652:5734   */\n      eq\n        /* \"#utility.yul\":5642:5752   */\n      tag_166\n      jumpi\n        /* \"#utility.yul\":5748:5749   */\n      0x00\n        /* \"#utility.yul\":5745:5746   */\n      0x00\n        /* \"#utility.yul\":5738:5750   */\n      revert\n        /* \"#utility.yul\":5642:5752   */\n    tag_166:\n        /* \"#utility.yul\":5542:5758   */\n      pop\n      jump\t// out\n        /* \"#utility.yul\":5764:5997   */\n    tag_94:\n        /* \"#utility.yul\":5857:5862   */\n      0x00\n        /* \"#utility.yul\":5895:5901   */\n      dup2\n        /* \"#utility.yul\":5882:5902   */\n      calldataload\n        /* \"#utility.yul\":5873:5902   */\n      swap1\n      pop\n        /* \"#utility.yul\":5911:5991   */\n      tag_168\n        /* \"#utility.yul\":5985:5990   */\n      dup2\n        /* \"#utility.yul\":5911:5991   */\n      tag_93\n      jump\t// in\n    tag_168:\n        /* \"#utility.yul\":5764:5997   */\n      swap3\n      swap2\n      pop\n      pop\n      jump\t// out\n        /* \"#utility.yul\":6003:6105   */\n    tag_95:\n        /* \"#utility.yul\":6065:6072   */\n      0x00\n        /* \"#utility.yul\":6094:6099   */\n      dup2\n        /* \"#utility.yul\":6083:6099   */\n      swap1\n      pop\n        /* \"#utility.yul\":6003:6105   */\n      swap2\n      swap1\n      pop\n      jump\t// out\n        /* \"#utility.yul\":6111:6283   */\n    tag_96:\n        /* \"#utility.yul\":6209:6258   */\n      tag_171\n        /* \"#utility.yul\":6252:6257   */\n      dup2\n        /* \"#utility.yul\":6209:6258   */\n      tag_95\n      jump\t// in\n    tag_171:\n        /* \"#utility.yul\":6202:6207   */\n      dup2\n        /* \"#utility.yul\":6199:6259   */\n      eq\n        /* \"#utility.yul\":6189:6277   */\n      tag_172\n      jumpi\n        /* \"#utility.yul\":6273:6274   */\n      0x00\n        /* \"#utility.yul\":6270:6271   */\n      0x00\n        /* \"#utility.yul\":6263:6275   */\n      revert\n        /* \"#utility.yul\":6189:6277   */\n    tag_172:\n        /* \"#utility.yul\":6111:6283   */\n      pop\n      jump\t// out\n        /* \"#utility.yul\":6289:6478   */\n    tag_97:\n        /* \"#utility.yul\":6360:6365   */\n      0x00\n        /* \"#utility.yul\":6398:6404   */\n      dup2\n        /* \"#utility.yul\":6385:6405   */\n      calldataload\n        /* \"#utility.yul\":6376:6405   */\n      swap1\n      pop\n        /* \"#utility.yul\":6414:6472   */\n      tag_174\n        /* \"#utility.yul\":6466:6471   */\n      dup2\n        /* \"#utility.yul\":6414:6472   */\n      tag_96\n      jump\t// in\n    tag_174:\n        /* \"#utility.yul\":6289:6478   */\n      swap3\n      swap2\n      pop\n      pop\n      jump\t// out\n        /* \"#utility.yul\":6484:6609   */\n    tag_98:\n        /* \"#utility.yul\":6569:6576   */\n      0x00\n        /* \"#utility.yul\":6598:6603   */\n      dup2\n        /* \"#utility.yul\":6587:6603   */\n      swap1\n      pop\n        /* \"#utility.yul\":6484:6609   */\n      swap2\n      swap1\n      pop\n      jump\t// out\n        /* \"#utility.yul\":6615:6833   */\n    tag_99:\n        /* \"#utility.yul\":6736:6808   */\n      tag_177\n        /* \"#utility.yul\":6802:6807   */\n      dup2\n        /* \"#utility.yul\":6736:6808   */\n      tag_98\n      jump\t// in\n    tag_177:\n        /* \"#utility.yul\":6729:6734   */\n      dup2\n        /* \"#utility.yul\":6726:6809   */\n      eq\n        /* \"#utility.yul\":6716:6827   */\n      tag_178\n      jumpi\n        /* \"#utility.yul\":6823:6824   */\n      0x00\n        /* \"#utility.yul\":6820:6821   */\n      0x00\n        /* \"#utility.yul\":6813:6825   */\n      revert\n        /* \"#utility.yul\":6716:6827   */\n    tag_178:\n        /* \"#utility.yul\":6615:6833   */\n      pop\n      jump\t// out\n        /* \"#utility.yul\":6839:7074   */\n    tag_100:\n        /* \"#utility.yul\":6933:6938   */\n      0x00\n        /* \"#utility.yul\":6971:6977   */\n      dup2\n        /* \"#utility.yul\":6958:6978   */\n      calldataload\n        /* \"#utility.yul\":6949:6978   */\n      swap1\n      pop\n        /* \"#utility.yul\":6987:7068   */\n      tag_180\n        /* \"#utility.yul\":7062:7067   */\n      dup2\n        /* \"#utility.yul\":6987:7068   */\n      tag_99\n      jump\t// in\n    tag_180:\n        /* \"#utility.yul\":6839:7074   */\n      swap3\n      swap2\n      pop\n      pop\n      jump\t// out\n        /* \"#utility.yul\":7080:7166   */\n    tag_101:\n        /* \"#utility.yul\":7115:7122   */\n      0x00\n        /* \"#utility.yul\":7155:7159   */\n      0xff\n        /* \"#utility.yul\":7148:7153   */\n      dup3\n        /* \"#utility.yul\":7144:7160   */\n      and\n        /* \"#utility.yul\":7133:7160   */\n      swap1\n      pop\n        /* \"#utility.yul\":7080:7166   */\n      swap2\n      swap1\n      pop\n      jump\t// out\n        /* \"#utility.yul\":7172:7290   */\n    tag_102:\n        /* \"#utility.yul\":7243:7265   */\n      tag_183\n        /* \"#utility.yul\":7259:7264   */\n      dup2\n        /* \"#utility.yul\":7243:7265   */\n      tag_101\n      jump\t// in\n    tag_183:\n        /* \"#utility.yul\":7236:7241   */\n      dup2\n        /* \"#utility.yul\":7233:7266   */\n      eq\n        /* \"#utility.yul\":7223:7284   */\n      tag_184\n      jumpi\n        /* \"#utility.yul\":7280:7281   */\n      0x00\n        /* \"#utility.yul\":7277:7278   */\n      0x00\n        /* \"#utility.yul\":7270:7282   */\n      revert\n        /* \"#utility.yul\":7223:7284   */\n    tag_184:\n        /* \"#utility.yul\":7172:7290   */\n      pop\n      jump\t// out\n        /* \"#utility.yul\":7296:7431   */\n    tag_103:\n        /* \"#utility.yul\":7340:7345   */\n      0x00\n        /* \"#utility.yul\":7378:7384   */\n      dup2\n        /* \"#utility.yul\":7365:7385   */\n      calldataload\n        /* \"#utility.yul\":7356:7385   */\n      swap1\n      pop\n        /* \"#utility.yul\":7394:7425   */\n      tag_186\n        /* \"#utility.yul\":7419:7424   */\n      dup2\n        /* \"#utility.yul\":7394:7425   */\n      tag_102\n      jump\t// in\n    tag_186:\n        /* \"#utility.yul\":7296:7431   */\n      swap3\n      swap2\n      pop\n      pop\n      jump\t// out\n        /* \"#utility.yul\":7437:9164   */\n    tag_26:\n        /* \"#utility.yul\":7748:7754   */\n      0x00\n        /* \"#utility.yul\":7756:7762   */\n      0x00\n        /* \"#utility.yul\":7764:7770   */\n      0x00\n        /* \"#utility.yul\":7772:7778   */\n      0x00\n        /* \"#utility.yul\":7780:7786   */\n      0x00\n        /* \"#utility.yul\":7788:7794   */\n      0x00\n        /* \"#utility.yul\":7796:7802   */\n      0x00\n        /* \"#utility.yul\":7804:7810   */\n      0x00\n        /* \"#utility.yul\":7853:7856   */\n      0x0100\n        /* \"#utility.yul\":7841:7850   */\n      dup10\n        /* \"#utility.yul\":7832:7839   */\n      dup12\n        /* \"#utility.yul\":7828:7851   */\n      sub\n        /* \"#utility.yul\":7824:7857   */\n      slt\n        /* \"#utility.yul\":7821:7941   */\n      iszero\n      tag_188\n      jumpi\n        /* \"#utility.yul\":7860:7939   */\n      tag_189\n      tag_70\n      jump\t// in\n    tag_189:\n        /* \"#utility.yul\":7821:7941   */\n    tag_188:\n        /* \"#utility.yul\":7980:7981   */\n      0x00\n        /* \"#utility.yul\":8005:8129   */\n      tag_190\n        /* \"#utility.yul\":8121:8128   */\n      dup12\n        /* \"#utility.yul\":8112:8118   */\n      dup3\n        /* \"#utility.yul\":8101:8110   */\n      dup13\n        /* \"#utility.yul\":8097:8119   */\n      add\n        /* \"#utility.yul\":8005:8129   */\n      tag_74\n      jump\t// in\n    tag_190:\n        /* \"#utility.yul\":7995:8129   */\n      swap9\n      pop\n        /* \"#utility.yul\":7951:8139   */\n      pop\n        /* \"#utility.yul\":8178:8180   */\n      0x20\n        /* \"#utility.yul\":8204:8304   */\n      tag_191\n        /* \"#utility.yul\":8296:8303   */\n      dup12\n        /* \"#utility.yul\":8287:8293   */\n      dup3\n        /* \"#utility.yul\":8276:8285   */\n      dup13\n        /* \"#utility.yul\":8272:8294   */\n      add\n        /* \"#utility.yul\":8204:8304   */\n      tag_94\n      jump\t// in\n    tag_191:\n        /* \"#utility.yul\":8194:8304   */\n      swap8\n      pop\n        /* \"#utility.yul\":8149:8314   */\n      pop\n        /* \"#utility.yul\":8353:8355   */\n      0x40\n        /* \"#utility.yul\":8379:8457   */\n      tag_192\n        /* \"#utility.yul\":8449:8456   */\n      dup12\n        /* \"#utility.yul\":8440:8446   */\n      dup3\n        /* \"#utility.yul\":8429:8438   */\n      dup13\n        /* \"#utility.yul\":8425:8447   */\n      add\n        /* \"#utility.yul\":8379:8457   */\n      tag_97\n      jump\t// in\n    tag_192:\n        /* \"#utility.yul\":8369:8457   */\n      swap7\n      pop\n        /* \"#utility.yul\":8324:8467   */\n      pop\n        /* \"#utility.yul\":8506:8508   */\n      0x60\n        /* \"#utility.yul\":8532:8633   */\n      tag_193\n        /* \"#utility.yul\":8625:8632   */\n      dup12\n        /* \"#utility.yul\":8616:8622   */\n      dup3\n        /* \"#utility.yul\":8605:8614   */\n      dup13\n        /* \"#utility.yul\":8601:8623   */\n      add\n        /* \"#utility.yul\":8532:8633   */\n      tag_100\n      jump\t// in\n    tag_193:\n        /* \"#utility.yul\":8522:8633   */\n      swap6\n      pop\n        /* \"#utility.yul\":8477:8643   */\n      pop\n        /* \"#utility.yul\":8682:8685   */\n      0x80\n        /* \"#utility.yul\":8709:8762   */\n      tag_194\n        /* \"#utility.yul\":8754:8761   */\n      dup12\n        /* \"#utility.yul\":8745:8751   */\n      dup3\n        /* \"#utility.yul\":8734:8743   */\n      dup13\n        /* \"#utility.yul\":8730:8752   */\n      add\n        /* \"#utility.yul\":8709:8762   */\n      tag_78\n      jump\t// in\n    tag_194:\n        /* \"#utility.yul\":8699:8762   */\n      swap5\n      pop\n        /* \"#utility.yul\":8653:8772   */\n      pop\n        /* \"#utility.yul\":8811:8814   */\n      0xa0\n        /* \"#utility.yul\":8838:8891   */\n      tag_195\n        /* \"#utility.yul\":8883:8890   */\n      dup12\n        /* \"#utility.yul\":8874:8880   */\n      dup3\n        /* \"#utility.yul\":8863:8872   */\n      dup13\n        /* \"#utility.yul\":8859:8881   */\n      add\n        /* \"#utility.yul\":8838:8891   */\n      tag_81\n      jump\t// in\n    tag_195:\n        /* \"#utility.yul\":8828:8891   */\n      swap4\n      pop\n        /* \"#utility.yul\":8782:8901   */\n      pop\n        /* \"#utility.yul\":8940:8943   */\n      0xc0\n        /* \"#utility.yul\":8967:9018   */\n      tag_196\n        /* \"#utility.yul\":9010:9017   */\n      dup12\n        /* \"#utility.yul\":9001:9007   */\n      dup3\n        /* \"#utility.yul\":8990:8999   */\n      dup13\n        /* \"#utility.yul\":8986:9008   */\n      add\n        /* \"#utility.yul\":8967:9018   */\n      tag_103\n      jump\t// in\n    tag_196:\n        /* \"#utility.yul\":8957:9018   */\n      swap3\n      pop\n        /* \"#utility.yul\":8911:9028   */\n      pop\n        /* \"#utility.yul\":9067:9070   */\n      0xe0\n        /* \"#utility.yul\":9094:9147   */\n      tag_197\n        /* \"#utility.yul\":9139:9146   */\n      dup12\n        /* \"#utility.yul\":9130:9136   */\n      dup3\n        /* \"#utility.yul\":9119:9128   */\n      dup13\n        /* \"#utility.yul\":9115:9137   */\n      add\n        /* \"#utility.yul\":9094:9147   */\n      tag_81\n      jump\t// in\n    tag_197:\n        /* \"#utility.yul\":9084:9147   */\n      swap2\n      pop\n        /* \"#utility.yul\":9038:9157   */\n      pop\n        /* \"#utility.yul\":7437:9164   */\n      swap3\n      swap6\n      swap9\n      pop\n      swap3\n      swap6\n      swap9\n      swap1\n      swap4\n      swap7\n      pop\n      jump\t// out\n        /* \"#utility.yul\":9170:9350   */\n    tag_104:\n        /* \"#utility.yul\":9218:9295   */\n      0x4e487b7100000000000000000000000000000000000000000000000000000000\n        /* \"#utility.yul\":9215:9216   */\n      0x00\n        /* \"#utility.yul\":9208:9296   */\n      mstore\n        /* \"#utility.yul\":9315:9319   */\n      0x11\n        /* \"#utility.yul\":9312:9313   */\n      0x04\n        /* \"#utility.yul\":9305:9320   */\n      mstore\n        /* \"#utility.yul\":9339:9343   */\n      0x24\n        /* \"#utility.yul\":9336:9337   */\n      0x00\n        /* \"#utility.yul\":9329:9344   */\n      revert\n        /* \"#utility.yul\":9356:9589   */\n    tag_39:\n        /* \"#utility.yul\":9395:9398   */\n      0x00\n        /* \"#utility.yul\":9418:9442   */\n      tag_200\n        /* \"#utility.yul\":9436:9441   */\n      dup3\n        /* \"#utility.yul\":9418:9442   */\n      tag_79\n      jump\t// in\n    tag_200:\n        /* \"#utility.yul\":9409:9442   */\n      swap2\n      pop\n        /* \"#utility.yul\":9464:9530   */\n      0xffffffffffffffffffffffffffffffffffffffffffffffffffffffffffffffff\n        /* \"#utility.yul\":9457:9462   */\n      dup3\n        /* \"#utility.yul\":9454:9531   */\n      sub\n        /* \"#utility.yul\":9451:9554   */\n      tag_201\n      jumpi\n        /* \"#utility.yul\":9534:9552   */\n      tag_202\n      tag_104\n      jump\t// in\n    tag_202:\n        /* \"#utility.yul\":9451:9554   */\n    tag_201:\n        /* \"#utility.yul\":9581:9582   */\n      0x01\n        /* \"#utility.yul\":9574:9579   */\n      dup3\n        /* \"#utility.yul\":9570:9583   */\n      add\n        /* \"#utility.yul\":9563:9583   */\n      swap1\n      pop\n        /* \"#utility.yul\":9356:9589   */\n      swap2\n      swap1\n      pop\n      jump\t// out\n        /* \"#utility.yul\":9595:9775   */\n    tag_43:\n        /* \"#utility.yul\":9643:9720   */\n      0x4e487b7100000000000000000000000000000000000000000000000000000000\n        /* \"#utility.yul\":9640:9641   */\n      0x00\n        /* \"#utility.yul\":9633:9721   */\n      mstore\n        /* \"#utility.yul\":9740:9744   */\n      0x21\n        /* \"#utility.yul\":9737:9738   */\n      0x04\n        /* \"#utility.yul\":9730:9745   */\n      mstore\n        /* \"#utility.yul\":9764:9768   */\n      0x24\n        /* \"#utility.yul\":9761:9762   */\n      0x00\n        /* \"#utility.yul\":9754:9769   */\n      revert\n        /* \"#utility.yul\":9781:9972   */\n    tag_59:\n        /* \"#utility.yul\":9821:9824   */\n      0x00\n        /* \"#utility.yul\":9840:9860   */\n      tag_205\n        /* \"#utility.yul\":9858:9859   */\n      dup3\n        /* \"#utility.yul\":9840:9860   */\n      tag_79\n      jump\t// in\n    tag_205:\n        /* \"#utility.yul\":9835:9860   */\n      swap2\n      pop\n        /* \"#utility.yul\":9874:9894   */\n      tag_206\n        /* \"#utility.yul\":9892:9893   */\n      dup4\n        /* \"#utility.yul\":9874:9894   */\n      tag_79\n      jump\t// in\n    tag_206:\n        /* \"#utility.yul\":9869:9894   */\n      swap3\n      pop\n        /* \"#utility.yul\":9917:9918   */\n      dup3\n        /* \"#utility.yul\":9914:9915   */\n      dup3\n        /* \"#utility.yul\":9910:9919   */\n      add\n        /* \"#utility.yul\":9903:9919   */\n      swap1\n      pop\n        /* \"#utility.yul\":9938:9941   */\n      dup1\n        /* \"#utility.yul\":9935:9936   */\n      dup3\n        /* \"#utility.yul\":9932:9942   */\n      gt\n        /* \"#utility.yul\":9929:9965   */\n      iszero\n      tag_207\n      jumpi\n        /* \"#utility.yul\":9945:9963   */\n      tag_208\n      tag_104\n      jump\t// in\n    tag_208:\n        /* \"#utility.yul\":9929:9965   */\n    tag_207:\n        /* \"#utility.yul\":9781:9972   */\n      swap3\n      swap2\n      pop\n      pop\n      jump\t// out\n\n    auxdata: 0xa26469706673582212204797695e3d685abf1ba3eb2d85a92c4a1166c847c524478478e068f85af6e0d464736f6c634300081c0033\n}\n",
				"bytecode": {
					"linkReferences": {},
					"object": "610b0061004d600b8282823980515f1a6073146041577f4e487b71000000000000000000000000000000000000000000000000000000005f525f60045260245ffd5b305f52607381538281f3fe7300000000000000000000000000000000000000003014608060405260043610610055575f3560e01c80637f6dd15214610059578063846c343d1461008957806389747e40146100b9578063c610290a146100e9575b5f5ffd5b610073600480360381019061006e91906106ed565b610111565b6040516100809190610757565b60405180910390f35b6100a3600480360381019061009e91906106ed565b6101a3565b6040516100b0919061077f565b60405180910390f35b6100d360048036038101906100ce91906107bb565b61026b565b6040516100e09190610856565b60405180910390f35b8180156100f4575f5ffd5b5061010f600480360381019061010a9190610945565b6103e4565b005b5f5f845f8573ffffffffffffffffffffffffffffffffffffffff1673ffffffffffffffffffffffffffffffffffffffff1681526020019081526020015f205f8481526020019081526020015f2090508060030160019054906101000a900460ff16801561018a5750805f015f9054906101000a900460ff165b80156101995750428160010154115b9150509392505050565b5f5f5f90505f600190505b8381101561025f575f865f8773ffffffffffffffffffffffffffffffffffffffff1673ffffffffffffffffffffffffffffffffffffffff1681526020019081526020015f205f8381526020019081526020015f2090508060030160019054906101000a900460ff16801561022e5750805f015f9054906101000a900460ff165b801561023d5750428160010154115b1561025157828061024d90610a23565b9350505b5080806001019150506101ae565b50809150509392505050565b60605f60028111156102805761027f610a6a565b5b82600281111561029357610292610a6a565b5b036102d5576040518060400160405280600581526020017f426173696300000000000000000000000000000000000000000000000000000081525090506103df565b600160028111156102e9576102e8610a6a565b5b8260028111156102fc576102fb610a6a565b5b0361033e576040518060400160405280600781526020017f5072656d69756d0000000000000000000000000000000000000000000000000081525090506103df565b60028081111561035157610350610a6a565b5b82600281111561036457610363610a6a565b5b036103a6576040518060400160405280600381526020017f564950000000000000000000000000000000000000000000000000000000000081525090506103df565b6040518060400160405280600781526020017f556e6b6e6f776e0000000000000000000000000000000000000000000000000081525090505b919050565b5f81426103f19190610a97565b90506040518060c001604052806001151581526020018281526020018581526020018460ff16600281111561042957610428610a6a565b5b600281111561043b5761043a610a6a565b5b815260200160011515815260200142815250895f8773ffffffffffffffffffffffffffffffffffffffff1673ffffffffffffffffffffffffffffffffffffffff1681526020019081526020015f205f8681526020019081526020015f205f820151815f015f6101000a81548160ff02191690831515021790555060208201518160010155604082015181600201556060820151816003015f6101000a81548160ff021916908360028111156104f3576104f2610a6a565b5b021790555060808201518160030160016101000a81548160ff02191690831515021790555060a08201518160040155905050875f8581526020019081526020015f2085908060018154018082558091505060019003905f5260205f20015f9091909190916101000a81548173ffffffffffffffffffffffffffffffffffffffff021916908373ffffffffffffffffffffffffffffffffffffffff160217905550865f8673ffffffffffffffffffffffffffffffffffffffff1673ffffffffffffffffffffffffffffffffffffffff1681526020019081526020015f205f8154809291906105df90610a23565b9190505550855f8581526020019081526020015f205f8460ff1660ff1681526020019081526020015f205f81548092919061061990610a23565b9190505550505050505050505050565b5f5ffd5b5f819050919050565b61063f8161062d565b8114610649575f5ffd5b50565b5f8135905061065a81610636565b92915050565b5f73ffffffffffffffffffffffffffffffffffffffff82169050919050565b5f61068982610660565b9050919050565b6106998161067f565b81146106a3575f5ffd5b50565b5f813590506106b481610690565b92915050565b5f819050919050565b6106cc816106ba565b81146106d6575f5ffd5b50565b5f813590506106e7816106c3565b92915050565b5f5f5f6060848603121561070457610703610629565b5b5f6107118682870161064c565b9350506020610722868287016106a6565b9250506040610733868287016106d9565b9150509250925092565b5f8115159050919050565b6107518161073d565b82525050565b5f60208201905061076a5f830184610748565b92915050565b610779816106ba565b82525050565b5f6020820190506107925f830184610770565b92915050565b600381106107a4575f5ffd5b50565b5f813590506107b581610798565b92915050565b5f602082840312156107d0576107cf610629565b5b5f6107dd848285016107a7565b91505092915050565b5f81519050919050565b5f82825260208201905092915050565b8281835e5f83830152505050565b5f601f19601f8301169050919050565b5f610828826107e6565b61083281856107f0565b9350610842818560208601610800565b61084b8161080e565b840191505092915050565b5f6020820190508181035f83015261086e818461081e565b905092915050565b5f819050919050565b61088881610876565b8114610892575f5ffd5b50565b5f813590506108a38161087f565b92915050565b5f819050919050565b6108bb816108a9565b81146108c5575f5ffd5b50565b5f813590506108d6816108b2565b92915050565b5f819050919050565b6108ee816108dc565b81146108f8575f5ffd5b50565b5f81359050610909816108e5565b92915050565b5f60ff82169050919050565b6109248161090f565b811461092e575f5ffd5b50565b5f8135905061093f8161091b565b92915050565b5f5f5f5f5f5f5f5f610100898b03121561096257610961610629565b5b5f61096f8b828c0161064c565b98505060206109808b828c01610895565b97505060406109918b828c016108c8565b96505060606109a28b828c016108fb565b95505060806109b38b828c016106a6565b94505060a06109c48b828c016106d9565b93505060c06109d58b828c01610931565b92505060e06109e68b828c016106d9565b9150509295985092959890939650565b7f4e487b71000000000000000000000000000000000000000000000000000000005f52601160045260245ffd5b5f610a2d826106ba565b91507fffffffffffffffffffffffffffffffffffffffffffffffffffffffffffffffff8203610a5f57610a5e6109f6565b5b600182019050919050565b7f4e487b71000000000000000000000000000000000000000000000000000000005f52602160045260245ffd5b5f610aa1826106ba565b9150610aac836106ba565b9250828201905080821115610ac457610ac36109f6565b5b9291505056fea26469706673582212204797695e3d685abf1ba3eb2d85a92c4a1166c847c524478478e068f85af6e0d464736f6c634300081c0033",
					"opcodes": "PUSH2 0xB00 PUSH2 0x4D PUSH1 0xB DUP3 DUP3 DUP3 CODECOPY DUP1 MLOAD PUSH0 BYTE PUSH1 0x73 EQ PUSH1 0x41 JUMPI PUSH32 0x4E487B7100000000000000000000000000000000000000000000000000000000 PUSH0 MSTORE PUSH0 PUSH1 0x4 MSTORE PUSH1 0x24 PUSH0 REVERT JUMPDEST ADDRESS PUSH0 MSTORE PUSH1 0x73 DUP2 MSTORE8 DUP3 DUP2 RETURN INVALID PUSH20 0x0 ADDRESS EQ PUSH1 0x80 PUSH1 0x40 MSTORE PUSH1 0x4 CALLDATASIZE LT PUSH2 0x55 JUMPI PUSH0 CALLDATALOAD PUSH1 0xE0 SHR DUP1 PUSH4 0x7F6DD152 EQ PUSH2 0x59 JUMPI DUP1 PUSH4 0x846C343D EQ PUSH2 0x89 JUMPI DUP1 PUSH4 0x89747E40 EQ PUSH2 0xB9 JUMPI DUP1 PUSH4 0xC610290A EQ PUSH2 0xE9 JUMPI JUMPDEST PUSH0 PUSH0 REVERT JUMPDEST PUSH2 0x73 PUSH1 0x4 DUP1 CALLDATASIZE SUB DUP2 ADD SWAP1 PUSH2 0x6E SWAP2 SWAP1 PUSH2 0x6ED JUMP JUMPDEST PUSH2 0x111 JUMP JUMPDEST PUSH1 0x40 MLOAD PUSH2 0x80 SWAP2 SWAP1 PUSH2 0x757 JUMP JUMPDEST PUSH1 0x40 MLOAD DUP1 SWAP2 SUB SWAP1 RETURN JUMPDEST PUSH2 0xA3 PUSH1 0x4 DUP1 CALLDATASIZE SUB DUP2 ADD SWAP1 PUSH2 0x9E SWAP2 SWAP1 PUSH2 0x6ED JUMP JUMPDEST PUSH2 0x1A3 JUMP JUMPDEST PUSH1 0x40 MLOAD PUSH2 0xB0 SWAP2 SWAP1 PUSH2 0x77F JUMP JUMPDEST PUSH1 0x40 MLOAD DUP1 SWAP2 SUB SWAP1 RETURN JUMPDEST PUSH2 0xD3 PUSH1 0x4 DUP1 CALLDATASIZE SUB DUP2 ADD SWAP1 PUSH2 0xCE SWAP2 SWAP1 PUSH2 0x7BB JUMP JUMPDEST PUSH2 0x26B JUMP JUMPDEST PUSH1 0x40 MLOAD PUSH2 0xE0 SWAP2 SWAP1 PUSH2 0x856 JUMP JUMPDEST PUSH1 0x40 MLOAD DUP1 SWAP2 SUB SWAP1 RETURN JUMPDEST DUP2 DUP1 ISZERO PUSH2 0xF4 JUMPI PUSH0 PUSH0 REVERT JUMPDEST POP PUSH2 0x10F PUSH1 0x4 DUP1 CALLDATASIZE SUB DUP2 ADD SWAP1 PUSH2 0x10A SWAP2 SWAP1 PUSH2 0x945 JUMP JUMPDEST PUSH2 0x3E4 JUMP JUMPDEST STOP JUMPDEST PUSH0 PUSH0 DUP5 PUSH0 DUP6 PUSH20 0xFFFFFFFFFFFFFFFFFFFFFFFFFFFFFFFFFFFFFFFF AND PUSH20 0xFFFFFFFFFFFFFFFFFFFFFFFFFFFFFFFFFFFFFFFF AND DUP2 MSTORE PUSH1 0x20 ADD SWAP1 DUP2 MSTORE PUSH1 0x20 ADD PUSH0 KECCAK256 PUSH0 DUP5 DUP2 MSTORE PUSH1 0x20 ADD SWAP1 DUP2 MSTORE PUSH1 0x20 ADD PUSH0 KECCAK256 SWAP1 POP DUP1 PUSH1 0x3 ADD PUSH1 0x1 SWAP1 SLOAD SWAP1 PUSH2 0x100 EXP SWAP1 DIV PUSH1 0xFF AND DUP1 ISZERO PUSH2 0x18A JUMPI POP DUP1 PUSH0 ADD PUSH0 SWAP1 SLOAD SWAP1 PUSH2 0x100 EXP SWAP1 DIV PUSH1 0xFF AND JUMPDEST DUP1 ISZERO PUSH2 0x199 JUMPI POP TIMESTAMP DUP2 PUSH1 0x1 ADD SLOAD GT JUMPDEST SWAP2 POP POP SWAP4 SWAP3 POP POP POP JUMP JUMPDEST PUSH0 PUSH0 PUSH0 SWAP1 POP PUSH0 PUSH1 0x1 SWAP1 POP JUMPDEST DUP4 DUP2 LT ISZERO PUSH2 0x25F JUMPI PUSH0 DUP7 PUSH0 DUP8 PUSH20 0xFFFFFFFFFFFFFFFFFFFFFFFFFFFFFFFFFFFFFFFF AND PUSH20 0xFFFFFFFFFFFFFFFFFFFFFFFFFFFFFFFFFFFFFFFF AND DUP2 MSTORE PUSH1 0x20 ADD SWAP1 DUP2 MSTORE PUSH1 0x20 ADD PUSH0 KECCAK256 PUSH0 DUP4 DUP2 MSTORE PUSH1 0x20 ADD SWAP1 DUP2 MSTORE PUSH1 0x20 ADD PUSH0 KECCAK256 SWAP1 POP DUP1 PUSH1 0x3 ADD PUSH1 0x1 SWAP1 SLOAD SWAP1 PUSH2 0x100 EXP SWAP1 DIV PUSH1 0xFF AND DUP1 ISZERO PUSH2 0x22E JUMPI POP DUP1 PUSH0 ADD PUSH0 SWAP1 SLOAD SWAP1 PUSH2 0x100 EXP SWAP1 DIV PUSH1 0xFF AND JUMPDEST DUP1 ISZERO PUSH2 0x23D JUMPI POP TIMESTAMP DUP2 PUSH1 0x1 ADD SLOAD GT JUMPDEST ISZERO PUSH2 0x251 JUMPI DUP3 DUP1 PUSH2 0x24D SWAP1 PUSH2 0xA23 JUMP JUMPDEST SWAP4 POP POP JUMPDEST POP DUP1 DUP1 PUSH1 0x1 ADD SWAP2 POP POP PUSH2 0x1AE JUMP JUMPDEST POP DUP1 SWAP2 POP POP SWAP4 SWAP3 POP POP POP JUMP JUMPDEST PUSH1 0x60 PUSH0 PUSH1 0x2 DUP2 GT ISZERO PUSH2 0x280 JUMPI PUSH2 0x27F PUSH2 0xA6A JUMP JUMPDEST JUMPDEST DUP3 PUSH1 0x2 DUP2 GT ISZERO PUSH2 0x293 JUMPI PUSH2 0x292 PUSH2 0xA6A JUMP JUMPDEST JUMPDEST SUB PUSH2 0x2D5 JUMPI PUSH1 0x40 MLOAD DUP1 PUSH1 0x40 ADD PUSH1 0x40 MSTORE DUP1 PUSH1 0x5 DUP2 MSTORE PUSH1 0x20 ADD PUSH32 0x4261736963000000000000000000000000000000000000000000000000000000 DUP2 MSTORE POP SWAP1 POP PUSH2 0x3DF JUMP JUMPDEST PUSH1 0x1 PUSH1 0x2 DUP2 GT ISZERO PUSH2 0x2E9 JUMPI PUSH2 0x2E8 PUSH2 0xA6A JUMP JUMPDEST JUMPDEST DUP3 PUSH1 0x2 DUP2 GT ISZERO PUSH2 0x2FC JUMPI PUSH2 0x2FB PUSH2 0xA6A JUMP JUMPDEST JUMPDEST SUB PUSH2 0x33E JUMPI PUSH1 0x40 MLOAD DUP1 PUSH1 0x40 ADD PUSH1 0x40 MSTORE DUP1 PUSH1 0x7 DUP2 MSTORE PUSH1 0x20 ADD PUSH32 0x5072656D69756D00000000000000000000000000000000000000000000000000 DUP2 MSTORE POP SWAP1 POP PUSH2 0x3DF JUMP JUMPDEST PUSH1 0x2 DUP1 DUP2 GT ISZERO PUSH2 0x351 JUMPI PUSH2 0x350 PUSH2 0xA6A JUMP JUMPDEST JUMPDEST DUP3 PUSH1 0x2 DUP2 GT ISZERO PUSH2 0x364 JUMPI PUSH2 0x363 PUSH2 0xA6A JUMP JUMPDEST JUMPDEST SUB PUSH2 0x3A6 JUMPI PUSH1 0x40 MLOAD DUP1 PUSH1 0x40 ADD PUSH1 0x40 MSTORE DUP1 PUSH1 0x3 DUP2 MSTORE PUSH1 0x20 ADD PUSH32 0x5649500000000000000000000000000000000000000000000000000000000000 DUP2 MSTORE POP SWAP1 POP PUSH2 0x3DF JUMP JUMPDEST PUSH1 0x40 MLOAD DUP1 PUSH1 0x40 ADD PUSH1 0x40 MSTORE DUP1 PUSH1 0x7 DUP2 MSTORE PUSH1 0x20 ADD PUSH32 0x556E6B6E6F776E00000000000000000000000000000000000000000000000000 DUP2 MSTORE POP SWAP1 POP JUMPDEST SWAP2 SWAP1 POP JUMP JUMPDEST PUSH0 DUP2 TIMESTAMP PUSH2 0x3F1 SWAP2 SWAP1 PUSH2 0xA97 JUMP JUMPDEST SWAP1 POP PUSH1 0x40 MLOAD DUP1 PUSH1 0xC0 ADD PUSH1 0x40 MSTORE DUP1 PUSH1 0x1 ISZERO ISZERO DUP2 MSTORE PUSH1 0x20 ADD DUP3 DUP2 MSTORE PUSH1 0x20 ADD DUP6 DUP2 MSTORE PUSH1 0x20 ADD DUP5 PUSH1 0xFF AND PUSH1 0x2 DUP2 GT ISZERO PUSH2 0x429 JUMPI PUSH2 0x428 PUSH2 0xA6A JUMP JUMPDEST JUMPDEST PUSH1 0x2 DUP2 GT ISZERO PUSH2 0x43B JUMPI PUSH2 0x43A PUSH2 0xA6A JUMP JUMPDEST JUMPDEST DUP2 MSTORE PUSH1 0x20 ADD PUSH1 0x1 ISZERO ISZERO DUP2 MSTORE PUSH1 0x20 ADD TIMESTAMP DUP2 MSTORE POP DUP10 PUSH0 DUP8 PUSH20 0xFFFFFFFFFFFFFFFFFFFFFFFFFFFFFFFFFFFFFFFF AND PUSH20 0xFFFFFFFFFFFFFFFFFFFFFFFFFFFFFFFFFFFFFFFF AND DUP2 MSTORE PUSH1 0x20 ADD SWAP1 DUP2 MSTORE PUSH1 0x20 ADD PUSH0 KECCAK256 PUSH0 DUP7 DUP2 MSTORE PUSH1 0x20 ADD SWAP1 DUP2 MSTORE PUSH1 0x20 ADD PUSH0 KECCAK256 PUSH0 DUP3 ADD MLOAD DUP2 PUSH0 ADD PUSH0 PUSH2 0x100 EXP DUP2 SLOAD DUP2 PUSH1 0xFF MUL NOT AND SWAP1 DUP4 ISZERO ISZERO MUL OR SWAP1 SSTORE POP PUSH1 0x20 DUP3 ADD MLOAD DUP2 PUSH1 0x1 ADD SSTORE PUSH1 0x40 DUP3 ADD MLOAD DUP2 PUSH1 0x2 ADD SSTORE PUSH1 0x60 DUP3 ADD MLOAD DUP2 PUSH1 0x3 ADD PUSH0 PUSH2 0x100 EXP DUP2 SLOAD DUP2 PUSH1 0xFF MUL NOT AND SWAP1 DUP4 PUSH1 0x2 DUP2 GT ISZERO PUSH2 0x4F3 JUMPI PUSH2 0x4F2 PUSH2 0xA6A JUMP JUMPDEST JUMPDEST MUL OR SWAP1 SSTORE POP PUSH1 0x80 DUP3 ADD MLOAD DUP2 PUSH1 0x3 ADD PUSH1 0x1 PUSH2 0x100 EXP DUP2 SLOAD DUP2 PUSH1 0xFF MUL NOT AND SWAP1 DUP4 ISZERO ISZERO MUL OR SWAP1 SSTORE POP PUSH1 0xA0 DUP3 ADD MLOAD DUP2 PUSH1 0x4 ADD SSTORE SWAP1 POP POP DUP8 PUSH0 DUP6 DUP2 MSTORE PUSH1 0x20 ADD SWAP1 DUP2 MSTORE PUSH1 0x20 ADD PUSH0 KECCAK256 DUP6 SWAP1 DUP1 PUSH1 0x1 DUP2 SLOAD ADD DUP1 DUP3 SSTORE DUP1 SWAP2 POP POP PUSH1 0x1 SWAP1 SUB SWAP1 PUSH0 MSTORE PUSH1 0x20 PUSH0 KECCAK256 ADD PUSH0 SWAP1 SWAP2 SWAP1 SWAP2 SWAP1 SWAP2 PUSH2 0x100 EXP DUP2 SLOAD DUP2 PUSH20 0xFFFFFFFFFFFFFFFFFFFFFFFFFFFFFFFFFFFFFFFF MUL NOT AND SWAP1 DUP4 PUSH20 0xFFFFFFFFFFFFFFFFFFFFFFFFFFFFFFFFFFFFFFFF AND MUL OR SWAP1 SSTORE POP DUP7 PUSH0 DUP7 PUSH20 0xFFFFFFFFFFFFFFFFFFFFFFFFFFFFFFFFFFFFFFFF AND PUSH20 0xFFFFFFFFFFFFFFFFFFFFFFFFFFFFFFFFFFFFFFFF AND DUP2 MSTORE PUSH1 0x20 ADD SWAP1 DUP2 MSTORE PUSH1 0x20 ADD PUSH0 KECCAK256 PUSH0 DUP2 SLOAD DUP1 SWAP3 SWAP2 SWAP1 PUSH2 0x5DF SWAP1 PUSH2 0xA23 JUMP JUMPDEST SWAP2 SWAP1 POP SSTORE POP DUP6 PUSH0 DUP6 DUP2 MSTORE PUSH1 0x20 ADD SWAP1 DUP2 MSTORE PUSH1 0x20 ADD PUSH0 KECCAK256 PUSH0 DUP5 PUSH1 0xFF AND PUSH1 0xFF AND DUP2 MSTORE PUSH1 0x20 ADD SWAP1 DUP2 MSTORE PUSH1 0x20 ADD PUSH0 KECCAK256 PUSH0 DUP2 SLOAD DUP1 SWAP3 SWAP2 SWAP1 PUSH2 0x619 SWAP1 PUSH2 0xA23 JUMP JUMPDEST SWAP2 SWAP1 POP SSTORE POP POP POP POP POP POP POP POP POP POP JUMP JUMPDEST PUSH0 PUSH0 REVERT JUMPDEST PUSH0 DUP2 SWAP1 POP SWAP2 SWAP1 POP JUMP JUMPDEST PUSH2 0x63F DUP2 PUSH2 0x62D JUMP JUMPDEST DUP2 EQ PUSH2 0x649 JUMPI PUSH0 PUSH0 REVERT JUMPDEST POP JUMP JUMPDEST PUSH0 DUP2 CALLDATALOAD SWAP1 POP PUSH2 0x65A DUP2 PUSH2 0x636 JUMP JUMPDEST SWAP3 SWAP2 POP POP JUMP JUMPDEST PUSH0 PUSH20 0xFFFFFFFFFFFFFFFFFFFFFFFFFFFFFFFFFFFFFFFF DUP3 AND SWAP1 POP SWAP2 SWAP1 POP JUMP JUMPDEST PUSH0 PUSH2 0x689 DUP3 PUSH2 0x660 JUMP JUMPDEST SWAP1 POP SWAP2 SWAP1 POP JUMP JUMPDEST PUSH2 0x699 DUP2 PUSH2 0x67F JUMP JUMPDEST DUP2 EQ PUSH2 0x6A3 JUMPI PUSH0 PUSH0 REVERT JUMPDEST POP JUMP JUMPDEST PUSH0 DUP2 CALLDATALOAD SWAP1 POP PUSH2 0x6B4 DUP2 PUSH2 0x690 JUMP JUMPDEST SWAP3 SWAP2 POP POP JUMP JUMPDEST PUSH0 DUP2 SWAP1 POP SWAP2 SWAP1 POP JUMP JUMPDEST PUSH2 0x6CC DUP2 PUSH2 0x6BA JUMP JUMPDEST DUP2 EQ PUSH2 0x6D6 JUMPI PUSH0 PUSH0 REVERT JUMPDEST POP JUMP JUMPDEST PUSH0 DUP2 CALLDATALOAD SWAP1 POP PUSH2 0x6E7 DUP2 PUSH2 0x6C3 JUMP JUMPDEST SWAP3 SWAP2 POP POP JUMP JUMPDEST PUSH0 PUSH0 PUSH0 PUSH1 0x60 DUP5 DUP7 SUB SLT ISZERO PUSH2 0x704 JUMPI PUSH2 0x703 PUSH2 0x629 JUMP JUMPDEST JUMPDEST PUSH0 PUSH2 0x711 DUP7 DUP3 DUP8 ADD PUSH2 0x64C JUMP JUMPDEST SWAP4 POP POP PUSH1 0x20 PUSH2 0x722 DUP7 DUP3 DUP8 ADD PUSH2 0x6A6 JUMP JUMPDEST SWAP3 POP POP PUSH1 0x40 PUSH2 0x733 DUP7 DUP3 DUP8 ADD PUSH2 0x6D9 JUMP JUMPDEST SWAP2 POP POP SWAP3 POP SWAP3 POP SWAP3 JUMP JUMPDEST PUSH0 DUP2 ISZERO ISZERO SWAP1 POP SWAP2 SWAP1 POP JUMP JUMPDEST PUSH2 0x751 DUP2 PUSH2 0x73D JUMP JUMPDEST DUP3 MSTORE POP POP JUMP JUMPDEST PUSH0 PUSH1 0x20 DUP3 ADD SWAP1 POP PUSH2 0x76A PUSH0 DUP4 ADD DUP5 PUSH2 0x748 JUMP JUMPDEST SWAP3 SWAP2 POP POP JUMP JUMPDEST PUSH2 0x779 DUP2 PUSH2 0x6BA JUMP JUMPDEST DUP3 MSTORE POP POP JUMP JUMPDEST PUSH0 PUSH1 0x20 DUP3 ADD SWAP1 POP PUSH2 0x792 PUSH0 DUP4 ADD DUP5 PUSH2 0x770 JUMP JUMPDEST SWAP3 SWAP2 POP POP JUMP JUMPDEST PUSH1 0x3 DUP2 LT PUSH2 0x7A4 JUMPI PUSH0 PUSH0 REVERT JUMPDEST POP JUMP JUMPDEST PUSH0 DUP2 CALLDATALOAD SWAP1 POP PUSH2 0x7B5 DUP2 PUSH2 0x798 JUMP JUMPDEST SWAP3 SWAP2 POP POP JUMP JUMPDEST PUSH0 PUSH1 0x20 DUP3 DUP5 SUB SLT ISZERO PUSH2 0x7D0 JUMPI PUSH2 0x7CF PUSH2 0x629 JUMP JUMPDEST JUMPDEST PUSH0 PUSH2 0x7DD DUP5 DUP3 DUP6 ADD PUSH2 0x7A7 JUMP JUMPDEST SWAP2 POP POP SWAP3 SWAP2 POP POP JUMP JUMPDEST PUSH0 DUP2 MLOAD SWAP1 POP SWAP2 SWAP1 POP JUMP JUMPDEST PUSH0 DUP3 DUP3 MSTORE PUSH1 0x20 DUP3 ADD SWAP1 POP SWAP3 SWAP2 POP POP JUMP JUMPDEST DUP3 DUP2 DUP4 MCOPY PUSH0 DUP4 DUP4 ADD MSTORE POP POP POP JUMP JUMPDEST PUSH0 PUSH1 0x1F NOT PUSH1 0x1F DUP4 ADD AND SWAP1 POP SWAP2 SWAP1 POP JUMP JUMPDEST PUSH0 PUSH2 0x828 DUP3 PUSH2 0x7E6 JUMP JUMPDEST PUSH2 0x832 DUP2 DUP6 PUSH2 0x7F0 JUMP JUMPDEST SWAP4 POP PUSH2 0x842 DUP2 DUP6 PUSH1 0x20 DUP7 ADD PUSH2 0x800 JUMP JUMPDEST PUSH2 0x84B DUP2 PUSH2 0x80E JUMP JUMPDEST DUP5 ADD SWAP2 POP POP SWAP3 SWAP2 POP POP JUMP JUMPDEST PUSH0 PUSH1 0x20 DUP3 ADD SWAP1 POP DUP2 DUP2 SUB PUSH0 DUP4 ADD MSTORE PUSH2 0x86E DUP2 DUP5 PUSH2 0x81E JUMP JUMPDEST SWAP1 POP SWAP3 SWAP2 POP POP JUMP JUMPDEST PUSH0 DUP2 SWAP1 POP SWAP2 SWAP1 POP JUMP JUMPDEST PUSH2 0x888 DUP2 PUSH2 0x876 JUMP JUMPDEST DUP2 EQ PUSH2 0x892 JUMPI PUSH0 PUSH0 REVERT JUMPDEST POP JUMP JUMPDEST PUSH0 DUP2 CALLDATALOAD SWAP1 POP PUSH2 0x8A3 DUP2 PUSH2 0x87F JUMP JUMPDEST SWAP3 SWAP2 POP POP JUMP JUMPDEST PUSH0 DUP2 SWAP1 POP SWAP2 SWAP1 POP JUMP JUMPDEST PUSH2 0x8BB DUP2 PUSH2 0x8A9 JUMP JUMPDEST DUP2 EQ PUSH2 0x8C5 JUMPI PUSH0 PUSH0 REVERT JUMPDEST POP JUMP JUMPDEST PUSH0 DUP2 CALLDATALOAD SWAP1 POP PUSH2 0x8D6 DUP2 PUSH2 0x8B2 JUMP JUMPDEST SWAP3 SWAP2 POP POP JUMP JUMPDEST PUSH0 DUP2 SWAP1 POP SWAP2 SWAP1 POP JUMP JUMPDEST PUSH2 0x8EE DUP2 PUSH2 0x8DC JUMP JUMPDEST DUP2 EQ PUSH2 0x8F8 JUMPI PUSH0 PUSH0 REVERT JUMPDEST POP JUMP JUMPDEST PUSH0 DUP2 CALLDATALOAD SWAP1 POP PUSH2 0x909 DUP2 PUSH2 0x8E5 JUMP JUMPDEST SWAP3 SWAP2 POP POP JUMP JUMPDEST PUSH0 PUSH1 0xFF DUP3 AND SWAP1 POP SWAP2 SWAP1 POP JUMP JUMPDEST PUSH2 0x924 DUP2 PUSH2 0x90F JUMP JUMPDEST DUP2 EQ PUSH2 0x92E JUMPI PUSH0 PUSH0 REVERT JUMPDEST POP JUMP JUMPDEST PUSH0 DUP2 CALLDATALOAD SWAP1 POP PUSH2 0x93F DUP2 PUSH2 0x91B JUMP JUMPDEST SWAP3 SWAP2 POP POP JUMP JUMPDEST PUSH0 PUSH0 PUSH0 PUSH0 PUSH0 PUSH0 PUSH0 PUSH0 PUSH2 0x100 DUP10 DUP12 SUB SLT ISZERO PUSH2 0x962 JUMPI PUSH2 0x961 PUSH2 0x629 JUMP JUMPDEST JUMPDEST PUSH0 PUSH2 0x96F DUP12 DUP3 DUP13 ADD PUSH2 0x64C JUMP JUMPDEST SWAP9 POP POP PUSH1 0x20 PUSH2 0x980 DUP12 DUP3 DUP13 ADD PUSH2 0x895 JUMP JUMPDEST SWAP8 POP POP PUSH1 0x40 PUSH2 0x991 DUP12 DUP3 DUP13 ADD PUSH2 0x8C8 JUMP JUMPDEST SWAP7 POP POP PUSH1 0x60 PUSH2 0x9A2 DUP12 DUP3 DUP13 ADD PUSH2 0x8FB JUMP JUMPDEST SWAP6 POP POP PUSH1 0x80 PUSH2 0x9B3 DUP12 DUP3 DUP13 ADD PUSH2 0x6A6 JUMP JUMPDEST SWAP5 POP POP PUSH1 0xA0 PUSH2 0x9C4 DUP12 DUP3 DUP13 ADD PUSH2 0x6D9 JUMP JUMPDEST SWAP4 POP POP PUSH1 0xC0 PUSH2 0x9D5 DUP12 DUP3 DUP13 ADD PUSH2 0x931 JUMP JUMPDEST SWAP3 POP POP PUSH1 0xE0 PUSH2 0x9E6 DUP12 DUP3 DUP13 ADD PUSH2 0x6D9 JUMP JUMPDEST SWAP2 POP POP SWAP3 SWAP6 SWAP9 POP SWAP3 SWAP6 SWAP9 SWAP1 SWAP4 SWAP7 POP JUMP JUMPDEST PUSH32 0x4E487B7100000000000000000000000000000000000000000000000000000000 PUSH0 MSTORE PUSH1 0x11 PUSH1 0x4 MSTORE PUSH1 0x24 PUSH0 REVERT JUMPDEST PUSH0 PUSH2 0xA2D DUP3 PUSH2 0x6BA JUMP JUMPDEST SWAP2 POP PUSH32 0xFFFFFFFFFFFFFFFFFFFFFFFFFFFFFFFFFFFFFFFFFFFFFFFFFFFFFFFFFFFFFFFF DUP3 SUB PUSH2 0xA5F JUMPI PUSH2 0xA5E PUSH2 0x9F6 JUMP JUMPDEST JUMPDEST PUSH1 0x1 DUP3 ADD SWAP1 POP SWAP2 SWAP1 POP JUMP JUMPDEST PUSH32 0x4E487B7100000000000000000000000000000000000000000000000000000000 PUSH0 MSTORE PUSH1 0x21 PUSH1 0x4 MSTORE PUSH1 0x24 PUSH0 REVERT JUMPDEST PUSH0 PUSH2 0xAA1 DUP3 PUSH2 0x6BA JUMP JUMPDEST SWAP2 POP PUSH2 0xAAC DUP4 PUSH2 0x6BA JUMP JUMPDEST SWAP3 POP DUP3 DUP3 ADD SWAP1 POP DUP1 DUP3 GT ISZERO PUSH2 0xAC4 JUMPI PUSH2 0xAC3 PUSH2 0x9F6 JUMP JUMPDEST JUMPDEST SWAP3 SWAP2 POP POP JUMP INVALID LOG2 PUSH5 0x6970667358 0x22 SLT KECCAK256 SELFBALANCE SWAP8 PUSH10 0x5E3D685ABF1BA3EB2D85 0xA9 0x2C BLOBBASEFEE GT PUSH7 0xC847C524478478 0xE0 PUSH9 0xF85AF6E0D464736F6C PUSH4 0x4300081C STOP CALLER "
				},
				"gasEstimates": {
					"creation": {
						"codeDepositCost": "563200",
						"executionCost": "620",
						"totalCost": "563820"
					},
					"external": {
						"createPass(mapping(address => mapping(uint256 => PassManagement.PassData)) storage,mapping(uint256 => address[]) storage,mapping(address => uint256) storage,mapping(uint256 => mapping(uint8 => uint256)) storage,address,uint256,uint8,uint256)": "infinite",
						"getPassTypeName(PassManagement.PassType)": "infinite",
						"getUserActivePassCount(mapping(address => mapping(uint256 => PassManagement.PassData)) storage,address,uint256)": "infinite",
						"isPassValid(mapping(address => mapping(uint256 => PassManagement.PassData)) storage,address,uint256)": "7615"
					}
				},
				"methodIdentifiers": {
					"createPass(mapping(address => mapping(uint256 => PassManagement.PassData)) storage,mapping(uint256 => address[]) storage,mapping(address => uint256) storage,mapping(uint256 => mapping(uint8 => uint256)) storage,address,uint256,uint8,uint256)": "c610290a",
					"getPassTypeName(PassManagement.PassType)": "89747e40",
					"getUserActivePassCount(mapping(address => mapping(uint256 => PassManagement.PassData)) storage,address,uint256)": "846c343d",
					"isPassValid(mapping(address => mapping(uint256 => PassManagement.PassData)) storage,address,uint256)": "7f6dd152"
				}
			},
			"storageLayout": {
				"storage": [],
				"types": null
			},
			"userdoc": {
				"kind": "user",
				"methods": {},
				"version": 1
			}
		}
	}
}